Component: ARM Compiler 5.06 update 7 (build 960) Tool: armlink [4d3601]

==============================================================================

Section Cross References

    startup_stm32f405xx.o(RESET) refers to startup_stm32f405xx.o(STACK) for __initial_sp
    startup_stm32f405xx.o(RESET) refers to startup_stm32f405xx.o(.text) for Reset_Handler
    startup_stm32f405xx.o(RESET) refers to stm32f4xx_it.o(i.NMI_Handler) for NMI_Handler
    startup_stm32f405xx.o(RESET) refers to stm32f4xx_it.o(i.HardFault_Handler) for HardFault_Handler
    startup_stm32f405xx.o(RESET) refers to stm32f4xx_it.o(i.MemManage_Handler) for MemManage_Handler
    startup_stm32f405xx.o(RESET) refers to stm32f4xx_it.o(i.BusFault_Handler) for BusFault_Handler
    startup_stm32f405xx.o(RESET) refers to stm32f4xx_it.o(i.UsageFault_Handler) for UsageFault_Handler
    startup_stm32f405xx.o(RESET) refers to stm32f4xx_it.o(i.SVC_Handler) for SVC_Handler
    startup_stm32f405xx.o(RESET) refers to stm32f4xx_it.o(i.DebugMon_Handler) for DebugMon_Handler
    startup_stm32f405xx.o(RESET) refers to stm32f4xx_it.o(i.PendSV_Handler) for PendSV_Handler
    startup_stm32f405xx.o(RESET) refers to stm32f4xx_it.o(i.SysTick_Handler) for SysTick_Handler
    startup_stm32f405xx.o(RESET) refers to stm32f4xx_it.o(i.TIM1_CC_IRQHandler) for TIM1_CC_IRQHandler
    startup_stm32f405xx.o(RESET) refers to stm32f4xx_it.o(i.EXTI15_10_IRQHandler) for EXTI15_10_IRQHandler
    startup_stm32f405xx.o(RESET) refers to stm32f4xx_it.o(i.DMA2_Stream0_IRQHandler) for DMA2_Stream0_IRQHandler
    startup_stm32f405xx.o(.text) refers to system_stm32f4xx.o(i.SystemInit) for SystemInit
    startup_stm32f405xx.o(.text) refers to entry.o(.ARM.Collect$$$$00000000) for __main
    main.o(i.SystemClock_Config) refers to memseta.o(.text) for __aeabi_memclr4
    main.o(i.SystemClock_Config) refers to stm32f4xx_hal_rcc.o(i.HAL_RCC_OscConfig) for HAL_RCC_OscConfig
==============================================================================

Removing Unused input sections from the image.

    Removing startup_stm32f405xx.o(HEAP), (2048 bytes).
    Removing main.o(.rev16_text), (4 bytes).
    Removing main.o(.revsh_text), (4 bytes).
    Removing main.o(.rrx_text), (6 bytes).
    Removing gpio.o(.rev16_text), (4 bytes).
    Removing gpio.o(.revsh_text), (4 bytes).
    Removing gpio.o(.rrx_text), (6 bytes).
    Removing adc.o(.rev16_text), (4 bytes).
    Removing adc.o(.revsh_text), (4 bytes).
    Removing adc.o(.rrx_text), (6 bytes).
    Removing adc.o(i.HAL_ADC_MspDeInit), (92 bytes).
    Removing can.o(.rev16_text), (4 bytes).
    Removing can.o(.revsh_text), (4 bytes).
    Removing can.o(.rrx_text), (6 bytes).
    Removing can.o(i.HAL_CAN_MspDeInit), (48 bytes).
    Removing crc.o(.rev16_text), (4 bytes).
    Removing crc.o(.revsh_text), (4 bytes).
    Removing crc.o(.rrx_text), (6 bytes).
==============================================================================

Image Symbol Table

    Local Symbols

    Symbol Name                              Value     Ov Type        Size  Object(Section)

    ../Core/Src/adc.c                        0x00000000   Number         0  adc.o ABSOLUTE
    ../Core/Src/can.c                        0x00000000   Number         0  can.o ABSOLUTE
    ../Core/Src/crc.c                        0x00000000   Number         0  crc.o ABSOLUTE
    ../Core/Src/dma.c                        0x00000000   Number         0  dma.o ABSOLUTE
    ../Core/Src/gpio.c                       0x00000000   Number         0  gpio.o ABSOLUTE
    ../Core/Src/i2c.c                        0x00000000   Number         0  i2c.o ABSOLUTE
    ../Core/Src/main.c                       0x00000000   Number         0  main.o ABSOLUTE
    ../Core/Src/spi.c                        0x00000000   Number         0  spi.o ABSOLUTE
    ../Core/Src/stm32f4xx_hal_msp.c          0x00000000   Number         0  stm32f4xx_hal_msp.o ABSOLUTE
    ../Core/Src/stm32f4xx_it.c               0x00000000   Number         0  stm32f4xx_it.o ABSOLUTE
    ../Core/Src/system_stm32f4xx.c           0x00000000   Number         0  system_stm32f4xx.o ABSOLUTE
    ../Core/Src/tim.c                        0x00000000   Number         0  tim.o ABSOLUTE
    ../Drivers/STM32F4xx_HAL_Driver/Src/stm32f4xx_hal.c 0x00000000   Number         0  stm32f4xx_hal.o ABSOLUTE
    ../Drivers/STM32F4xx_HAL_Driver/Src/stm32f4xx_hal_adc.c 0x00000000   Number         0  stm32f4xx_hal_adc.o ABSOLUTE
    ../Drivers/STM32F4xx_HAL_Driver/Src/stm32f4xx_hal_adc_ex.c 0x00000000   Number         0  stm32f4xx_hal_adc_ex.o ABSOLUTE
    ../Drivers/STM32F4xx_HAL_Driver/Src/stm32f4xx_hal_can.c 0x00000000   Number         0  stm32f4xx_hal_can.o ABSOLUTE
    ../Drivers/STM32F4xx_HAL_Driver/Src/stm32f4xx_hal_cortex.c 0x00000000   Number         0  stm32f4xx_hal_cortex.o ABSOLUTE
    ../Drivers/STM32F4xx_HAL_Driver/Src/stm32f4xx_hal_crc.c 0x00000000   Number         0  stm32f4xx_hal_crc.o ABSOLUTE
    ../Drivers/STM32F4xx_HAL_Driver/Src/stm32f4xx_hal_dma.c 0x00000000   Number         0  stm32f4xx_hal_dma.o ABSOLUTE
    ../Drivers/STM32F4xx_HAL_Driver/Src/stm32f4xx_hal_dma_ex.c 0x00000000   Number         0  stm32f4xx_hal_dma_ex.o ABSOLUTE
    ../Drivers/STM32F4xx_HAL_Driver/Src/stm32f4xx_hal_exti.c 0x00000000   Number         0  stm32f4xx_hal_exti.o ABSOLUTE
    ../Drivers/STM32F4xx_HAL_Driver/Src/stm32f4xx_hal_flash.c 0x00000000   Number         0  stm32f4xx_hal_flash.o ABSOLUTE
    ../Drivers/STM32F4xx_HAL_Driver/Src/stm32f4xx_hal_flash_ex.c 0x00000000   Number         0  stm32f4xx_hal_flash_ex.o ABSOLUTE
    ../Drivers/STM32F4xx_HAL_Driver/Src/stm32f4xx_hal_flash_ramfunc.c 0x00000000   Number         0  stm32f4xx_hal_flash_ramfunc.o ABSOLUTE
    ../Drivers/STM32F4xx_HAL_Driver/Src/stm32f4xx_hal_gpio.c 0x00000000   Number         0  stm32f4xx_hal_gpio.o ABSOLUTE
    ../Drivers/STM32F4xx_HAL_Driver/Src/stm32f4xx_hal_i2c.c 0x00000000   Number         0  stm32f4xx_hal_i2c.o ABSOLUTE
    ../Drivers/STM32F4xx_HAL_Driver/Src/stm32f4xx_hal_i2c_ex.c 0x00000000   Number         0  stm32f4xx_hal_i2c_ex.o ABSOLUTE
    ../Drivers/STM32F4xx_HAL_Driver/Src/stm32f4xx_hal_pwr.c 0x00000000   Number         0  stm32f4xx_hal_pwr.o ABSOLUTE
    ../Drivers/STM32F4xx_HAL_Driver/Src/stm32f4xx_hal_pwr_ex.c 0x00000000   Number         0  stm32f4xx_hal_pwr_ex.o ABSOLUTE
    ../Drivers/STM32F4xx_HAL_Driver/Src/stm32f4xx_hal_rcc.c 0x00000000   Number         0  stm32f4xx_hal_rcc.o ABSOLUTE
    ../Drivers/STM32F4xx_HAL_Driver/Src/stm32f4xx_hal_rcc_ex.c 0x00000000   Number         0  stm32f4xx_hal_rcc_ex.o ABSOLUTE
    ../Drivers/STM32F4xx_HAL_Driver/Src/stm32f4xx_hal_spi.c 0x00000000   Number         0  stm32f4xx_hal_spi.o ABSOLUTE
    ../Drivers/STM32F4xx_HAL_Driver/Src/stm32f4xx_hal_tim.c 0x00000000   Number         0  stm32f4xx_hal_tim.o ABSOLUTE
    ../Drivers/STM32F4xx_HAL_Driver/Src/stm32f4xx_hal_tim_ex.c 0x00000000   Number         0  stm32f4xx_hal_tim_ex.o ABSOLUTE
    ../Drivers/STM32F4xx_HAL_Driver/Src/stm32f4xx_ll_adc.c 0x00000000   Number         0  stm32f4xx_ll_adc.o ABSOLUTE
    ../clib/../cmprslib/zerorunl2.c          0x00000000   Number         0  __dczerorl2.o ABSOLUTE
    ../clib/microlib/division.c              0x00000000   Number         0  uidiv.o ABSOLUTE
    ../clib/microlib/division.c              0x00000000   Number         0  uldiv.o ABSOLUTE
    ../clib/microlib/init/entry.s            0x00000000   Number         0  entry9b.o ABSOLUTE
    ../clib/microlib/init/entry.s            0x00000000   Number         0  entry9a.o ABSOLUTE
    ../clib/microlib/init/entry.s            0x00000000   Number         0  entry8b.o ABSOLUTE
    ../clib/microlib/init/entry.s            0x00000000   Number         0  entry8a.o ABSOLUTE
    ../clib/microlib/init/entry.s            0x00000000   Number         0  entry2.o ABSOLUTE
    ../clib/microlib/init/entry.s            0x00000000   Number         0  entry5.o ABSOLUTE
    ../clib/microlib/init/entry.s            0x00000000   Number         0  entry7a.o ABSOLUTE
    ../clib/microlib/init/entry.s            0x00000000   Number         0  entry12b.o ABSOLUTE
    ../clib/microlib/init/entry.s            0x00000000   Number         0  entry.o ABSOLUTE
    ../clib/microlib/init/entry.s            0x00000000   Number         0  entry7b.o ABSOLUTE
    ../clib/microlib/init/entry.s            0x00000000   Number         0  entry10a.o ABSOLUTE
    ../clib/microlib/init/entry.s            0x00000000   Number         0  entry12a.o ABSOLUTE
    ../clib/microlib/init/entry.s            0x00000000   Number         0  entry11b.o ABSOLUTE
    ../clib/microlib/init/entry.s            0x00000000   Number         0  entry11a.o ABSOLUTE
    ../clib/microlib/init/entry.s            0x00000000   Number         0  entry10b.o ABSOLUTE
    ../clib/microlib/longlong.c              0x00000000   Number         0  llushr.o ABSOLUTE
    ../clib/microlib/longlong.c              0x00000000   Number         0  llsshr.o ABSOLUTE
    ../clib/microlib/longlong.c              0x00000000   Number         0  llshl.o ABSOLUTE
    ../clib/microlib/printf/printf.c         0x00000000   Number         0  printfb.o ABSOLUTE
    ../clib/microlib/printf/printf.c         0x00000000   Number         0  printf8.o ABSOLUTE
    ../clib/microlib/printf/printf.c         0x00000000   Number         0  printfa.o ABSOLUTE
    ../clib/microlib/printf/printf.c         0x00000000   Number         0  printf7.o ABSOLUTE
    ../clib/microlib/printf/printf.c         0x00000000   Number         0  printf6.o ABSOLUTE
    ../clib/microlib/printf/printf.c         0x00000000   Number         0  printf5.o ABSOLUTE
    ../clib/microlib/printf/printf.c         0x00000000   Number         0  printf4.o ABSOLUTE
    ../clib/microlib/printf/printf.c         0x00000000   Number         0  printf3.o ABSOLUTE
    ../clib/microlib/printf/printf.c         0x00000000   Number         0  printf2.o ABSOLUTE
    ../clib/microlib/printf/printf.c         0x00000000   Number         0  printf1.o ABSOLUTE
    ../clib/microlib/printf/printf.c         0x00000000   Number         0  printf0.o ABSOLUTE
    ../clib/microlib/printf/stubs.s          0x00000000   Number         0  stubs.o ABSOLUTE
    ../clib/microlib/stdio/streams.c         0x00000000   Number         0  stdout.o ABSOLUTE
    ../clib/microlib/string/memcpy.c         0x00000000   Number         0  memcpyb.o ABSOLUTE
    ../clib/microlib/string/memcpy.c         0x00000000   Number         0  memmovea.o ABSOLUTE
    ../clib/microlib/string/memcpy.c         0x00000000   Number         0  memmoveb.o ABSOLUTE
    ../clib/microlib/string/memcpy.c         0x00000000   Number         0  memcpya.o ABSOLUTE
    ../clib/microlib/string/memset.c         0x00000000   Number         0  memseta.o ABSOLUTE
    ../clib/microlib/string/strcpy.c         0x00000000   Number         0  strcpy.o ABSOLUTE
    ../clib/microlib/string/strlen.c         0x00000000   Number         0  strlen.o ABSOLUTE
    ../clib/microlib/stubs.s                 0x00000000   Number         0  iusefp.o ABSOLUTE
    ../fplib/microlib/d2f.c                  0x00000000   Number         0  d2f.o ABSOLUTE
    ../fplib/microlib/f2d.c                  0x00000000   Number         0  f2d.o ABSOLUTE
    ../fplib/microlib/fpadd.c                0x00000000   Number         0  dadd.o ABSOLUTE
    ../fplib/microlib/fpdiv.c                0x00000000   Number         0  ddiv.o ABSOLUTE
    ../fplib/microlib/fpepilogue.c           0x00000000   Number         0  depilogue.o ABSOLUTE
    ../fplib/microlib/fpepilogue.c           0x00000000   Number         0  fepilogue.o ABSOLUTE
    ../fplib/microlib/fpfix.c                0x00000000   Number         0  dfixul.o ABSOLUTE
    ../fplib/microlib/fpflt.c                0x00000000   Number         0  dfltui.o ABSOLUTE
    ../fplib/microlib/fpmul.c                0x00000000   Number         0  dmul.o ABSOLUTE
    ../fplib/microlib/fpneg.c                0x00000000   Number         0  dneg.o ABSOLUTE
    ../mathlib/fabs.c                        0x00000000   Number         0  fabs.o ABSOLUTE
    ..\..\..\Utilities\Third_Party\STemWin532_20160205\GUI\Core\GUICC_0.c 0x00000000   Number         0  guicc_0.o ABSOLUTE
    ..\..\..\Utilities\Third_Party\STemWin532_20160205\GUI\Core\GUICC_1.c 0x00000000   Number         0  guicc_1.o ABSOLUTE
    ..\..\..\Utilities\Third_Party\STemWin532_20160205\GUI\Core\GUICC_444_12_1_Index2Color.c 0x00000000   Number         0  guicc_444_12_1_index2color.o ABSOLUTE
    ..\..\..\Utilities\Third_Party\STemWin532_20160205\GUI\Core\GUICC_444_12_Index2Color.c 0x00000000   Number         0  guicc_444_12_index2color.o ABSOLUTE
    ..\..\..\Utilities\Third_Party\STemWin532_20160205\GUI\Core\GUICC_444_16_Index2Color.c 0x00000000   Number         0  guicc_444_16_index2color.o ABSOLUTE
    ..\..\..\Utilities\Third_Party\STemWin532_20160205\GUI\Core\GUICC_555_Index2Color.c 0x00000000   Number         0  guicc_555_index2color.o ABSOLUTE
    ..\..\..\Utilities\Third_Party\STemWin532_20160205\GUI\Core\GUICC_565.c 0x00000000   Number         0  guicc_565.o ABSOLUTE
    ..\..\..\Utilities\Third_Party\STemWin532_20160205\GUI\Core\GUICC_8888.c 0x00000000   Number         0  guicc_8888.o ABSOLUTE
    ..\..\..\Utilities\Third_Party\STemWin532_20160205\GUI\Core\GUICC_8888_Index2Color.c 0x00000000   Number         0  guicc_8888_index2color.o ABSOLUTE
    ..\..\..\Utilities\Third_Party\STemWin532_20160205\GUI\Core\GUICC_888_Index2Color.c 0x00000000   Number         0  guicc_888_index2color.o ABSOLUTE
    ..\..\..\Utilities\Third_Party\STemWin532_20160205\GUI\Core\GUICC_M444_12_1_Index2Color.c 0x00000000   Number         0  guicc_m444_12_1_index2color.o ABSOLUTE
    ..\..\..\Utilities\Third_Party\STemWin532_20160205\GUI\Core\GUICC_M444_12_Index2Color.c 0x00000000   Number         0  guicc_m444_12_index2color.o ABSOLUTE
    ..\..\..\Utilities\Third_Party\STemWin532_20160205\GUI\Core\GUICC_M444_16_Index2Color.c 0x00000000   Number         0  guicc_m444_16_index2color.o ABSOLUTE
    ..\..\..\Utilities\Third_Party\STemWin532_20160205\GUI\Core\GUICC_M555_Index2Color.c 0x00000000   Number         0  guicc_m555_index2color.o ABSOLUTE
    ..\..\..\Utilities\Third_Party\STemWin532_20160205\GUI\Core\GUICC_M565.c 0x00000000   Number         0  guicc_m565.o ABSOLUTE
    ..\..\..\Utilities\Third_Party\STemWin532_20160205\GUI\Core\GUICC_M8888I_Index2Color.c 0x00000000   Number         0  guicc_m8888i_index2color.o ABSOLUTE
    ..\..\..\Utilities\Third_Party\STemWin532_20160205\GUI\Core\GUI_2DLib.c 0x00000000   Number         0  gui_2dlib.o ABSOLUTE
    ..\..\..\Utilities\Third_Party\STemWin532_20160205\GUI\Core\GUI_ALLOC_AllocInit.c 0x00000000   Number         0  gui_alloc_allocinit.o ABSOLUTE
    ..\..\..\Utilities\Third_Party\STemWin532_20160205\GUI\Core\GUI_ALLOC_AllocZero.c 0x00000000   Number         0  gui_alloc_alloczero.o ABSOLUTE
    ..\..\..\Utilities\Third_Party\STemWin532_20160205\GUI\Core\GUI_Alloc.c 0x00000000   Number         0  gui_alloc.o ABSOLUTE
    ..\..\..\Utilities\Third_Party\STemWin532_20160205\GUI\Core\GUI_CalcColorDist.c 0x00000000   Number         0  gui_calccolordist.o ABSOLUTE
    ..\..\..\Utilities\Third_Party\STemWin532_20160205\GUI\Core\GUI_Char.c 0x00000000   Number         0  gui_char.o ABSOLUTE
    ..\..\..\Utilities\Third_Party\STemWin532_20160205\GUI\Core\GUI_CharLine.c 0x00000000   Number         0  gui_charline.o ABSOLUTE
    ..\..\..\Utilities\Third_Party\STemWin532_20160205\GUI\Core\GUI_CharM.c 0x00000000   Number         0  gui_charm.o ABSOLUTE
    ..\..\..\Utilities\Third_Party\STemWin532_20160205\GUI\Core\GUI_CharP.c 0x00000000   Number         0  gui_charp.o ABSOLUTE
    ..\..\..\Utilities\Third_Party\STemWin532_20160205\GUI\Core\GUI_ClearRectEx.c 0x00000000   Number         0  gui_clearrectex.o ABSOLUTE
    ..\..\..\Utilities\Third_Party\STemWin532_20160205\GUI\Core\GUI_Core.c 0x00000000   Number         0  gui_core.o ABSOLUTE
    ..\..\..\Utilities\Third_Party\STemWin532_20160205\GUI\Core\GUI_Curs1.c 0x00000000   Number         0  gui_curs1.o ABSOLUTE
    ..\..\..\Utilities\Third_Party\STemWin532_20160205\GUI\Core\GUI_CursorArrowM.c 0x00000000   Number         0  gui_cursorarrowm.o ABSOLUTE
    ..\..\..\Utilities\Third_Party\STemWin532_20160205\GUI\Core\GUI_CursorArrowMPx.c 0x00000000   Number         0  gui_cursorarrowmpx.o ABSOLUTE
    ..\..\..\Utilities\Third_Party\STemWin532_20160205\GUI\Core\GUI_CursorPal.c 0x00000000   Number         0  gui_cursorpal.o ABSOLUTE
    ..\..\..\Utilities\Third_Party\STemWin532_20160205\GUI\Core\GUI_Device.c 0x00000000   Number         0  gui_device.o ABSOLUTE
    ..\..\..\Utilities\Third_Party\STemWin532_20160205\GUI\Core\GUI_DispStringInRect.c 0x00000000   Number         0  gui_dispstringinrect.o ABSOLUTE
    ..\..\..\Utilities\Third_Party\STemWin532_20160205\GUI\Core\GUI_DrawBitmap.c 0x00000000   Number         0  gui_drawbitmap.o ABSOLUTE
    ..\..\..\Utilities\Third_Party\STemWin532_20160205\GUI\Core\GUI_DrawBitmap_24.c 0x00000000   Number         0  gui_drawbitmap_24.o ABSOLUTE
    ..\..\..\Utilities\Third_Party\STemWin532_20160205\GUI\Core\GUI_DrawBitmap_444.c 0x00000000   Number         0  gui_drawbitmap_444.o ABSOLUTE
    ..\..\..\Utilities\Third_Party\STemWin532_20160205\GUI\Core\GUI_DrawBitmap_555.c 0x00000000   Number         0  gui_drawbitmap_555.o ABSOLUTE
    ..\..\..\Utilities\Third_Party\STemWin532_20160205\GUI\Core\GUI_DrawBitmap_565.c 0x00000000   Number         0  gui_drawbitmap_565.o ABSOLUTE
    ..\..\..\Utilities\Third_Party\STemWin532_20160205\GUI\Core\GUI_DrawBitmap_8888.c 0x00000000   Number         0  gui_drawbitmap_8888.o ABSOLUTE
    ..\..\..\Utilities\Third_Party\STemWin532_20160205\GUI\Core\GUI_DrawBitmap_A16.c 0x00000000   Number         0  gui_drawbitmap_a16.o ABSOLUTE
    ..\..\..\Utilities\Third_Party\STemWin532_20160205\GUI\Core\GUI_DrawFocusRect.c 0x00000000   Number         0  gui_drawfocusrect.o ABSOLUTE
    ..\..\..\Utilities\Third_Party\STemWin532_20160205\GUI\Core\GUI_DrawGradient.c 0x00000000   Number         0  gui_drawgradient.o ABSOLUTE
    ..\..\..\Utilities\Third_Party\STemWin532_20160205\GUI\Core\GUI_DrawHLine.c 0x00000000   Number         0  gui_drawhline.o ABSOLUTE
    ..\..\..\Utilities\Third_Party\STemWin532_20160205\GUI\Core\GUI_DrawPixel.c 0x00000000   Number         0  gui_drawpixel.o ABSOLUTE
    ..\..\..\Utilities\Third_Party\STemWin532_20160205\GUI\Core\GUI_DrawVLine.c 0x00000000   Number         0  gui_drawvline.o ABSOLUTE
    ..\..\..\Utilities\Third_Party\STemWin532_20160205\GUI\Core\GUI_Exec.c 0x00000000   Number         0  gui_exec.o ABSOLUTE
    ..\..\..\Utilities\Third_Party\STemWin532_20160205\GUI\Core\GUI_FillRect.c 0x00000000   Number         0  gui_fillrect.o ABSOLUTE
    ..\..\..\Utilities\Third_Party\STemWin532_20160205\GUI\Core\GUI_FillRectEx.c 0x00000000   Number         0  gui_fillrectex.o ABSOLUTE
    ..\..\..\Utilities\Third_Party\STemWin532_20160205\GUI\Core\GUI_GetBitmapPixelIndex.c 0x00000000   Number         0  gui_getbitmappixelindex.o ABSOLUTE
    ..\..\..\Utilities\Third_Party\STemWin532_20160205\GUI\Core\GUI_GetClientRect.c 0x00000000   Number         0  gui_getclientrect.o ABSOLUTE
    ..\..\..\Utilities\Third_Party\STemWin532_20160205\GUI\Core\GUI_GetColor.c 0x00000000   Number         0  gui_getcolor.o ABSOLUTE
    ..\..\..\Utilities\Third_Party\STemWin532_20160205\GUI\Core\GUI_GetOrg.c 0x00000000   Number         0  gui_getorg.o ABSOLUTE
    ..\..\..\Utilities\Third_Party\STemWin532_20160205\GUI\Core\GUI_GetStringDistX.c 0x00000000   Number         0  gui_getstringdistx.o ABSOLUTE
    ..\..\..\Utilities\Third_Party\STemWin532_20160205\GUI\Core\GUI_GetYSizeOfFont.c 0x00000000   Number         0  gui_getysizeoffont.o ABSOLUTE
    ..\..\..\Utilities\Third_Party\STemWin532_20160205\GUI\Core\GUI_Goto.c 0x00000000   Number         0  gui_goto.o ABSOLUTE
    ..\..\..\Utilities\Third_Party\STemWin532_20160205\GUI\Core\GUI_MergeRect.c 0x00000000   Number         0  gui_mergerect.o ABSOLUTE
    ..\..\..\Utilities\Third_Party\STemWin532_20160205\GUI\Core\GUI_MoveRect.c 0x00000000   Number         0  gui_moverect.o ABSOLUTE
    ..\..\..\Utilities\Third_Party\STemWin532_20160205\GUI\Core\GUI_OnKey.c 0x00000000   Number         0  gui_onkey.o ABSOLUTE
    ..\..\..\Utilities\Third_Party\STemWin532_20160205\GUI\Core\GUI_PID.c 0x00000000   Number         0  gui_pid.o ABSOLUTE
    ..\..\..\Utilities\Third_Party\STemWin532_20160205\GUI\Core\GUI_Pen.c 0x00000000   Number         0  gui_pen.o ABSOLUTE
    ..\..\..\Utilities\Third_Party\STemWin532_20160205\GUI\Core\GUI_Realloc.c 0x00000000   Number         0  gui_realloc.o ABSOLUTE
    ..\..\..\Utilities\Third_Party\STemWin532_20160205\GUI\Core\GUI_RectsIntersect.c 0x00000000   Number         0  gui_rectsintersect.o ABSOLUTE
    ..\..\..\Utilities\Third_Party\STemWin532_20160205\GUI\Core\GUI_SPRITE.c 0x00000000   Number         0  gui_sprite.o ABSOLUTE
    ..\..\..\Utilities\Third_Party\STemWin532_20160205\GUI\Core\GUI_SaveContext.c 0x00000000   Number         0  gui_savecontext.o ABSOLUTE
    ..\..\..\Utilities\Third_Party\STemWin532_20160205\GUI\Core\GUI_SelectLCD.c 0x00000000   Number         0  gui_selectlcd.o ABSOLUTE
    ..\..\..\Utilities\Third_Party\STemWin532_20160205\GUI\Core\GUI_SelectLayer.c 0x00000000   Number         0  gui_selectlayer.o ABSOLUTE
    ..\..\..\Utilities\Third_Party\STemWin532_20160205\GUI\Core\GUI_SetAlpha.c 0x00000000   Number         0  gui_setalpha.o ABSOLUTE
    ..\..\..\Utilities\Third_Party\STemWin532_20160205\GUI\Core\GUI_SetColor.c 0x00000000   Number         0  gui_setcolor.o ABSOLUTE
    ..\..\..\Utilities\Third_Party\STemWin532_20160205\GUI\Core\GUI_SetColorIndex.c 0x00000000   Number         0  gui_setcolorindex.o ABSOLUTE
    ..\..\..\Utilities\Third_Party\STemWin532_20160205\GUI\Core\GUI_SetDefault.c 0x00000000   Number         0  gui_setdefault.o ABSOLUTE
    ..\..\..\Utilities\Third_Party\STemWin532_20160205\GUI\Core\GUI_SetDrawMode.c 0x00000000   Number         0  gui_setdrawmode.o ABSOLUTE
    ..\..\..\Utilities\Third_Party\STemWin532_20160205\GUI\Core\GUI_SetFont.c 0x00000000   Number         0  gui_setfont.o ABSOLUTE
    ..\..\..\Utilities\Third_Party\STemWin532_20160205\GUI\Core\GUI_SetLineStyle.c 0x00000000   Number         0  gui_setlinestyle.o ABSOLUTE
    ..\..\..\Utilities\Third_Party\STemWin532_20160205\GUI\Core\GUI_SetOrg.c 0x00000000   Number         0  gui_setorg.o ABSOLUTE
    ..\..\..\Utilities\Third_Party\STemWin532_20160205\GUI\Core\GUI_SetPixelIndex.c 0x00000000   Number         0  gui_setpixelindex.o ABSOLUTE
    ..\..\..\Utilities\Third_Party\STemWin532_20160205\GUI\Core\GUI_SetTextAlign.c 0x00000000   Number         0  gui_settextalign.o ABSOLUTE
    ..\..\..\Utilities\Third_Party\STemWin532_20160205\GUI\Core\GUI_SetTextMode.c 0x00000000   Number         0  gui_settextmode.o ABSOLUTE
    ..\..\..\Utilities\Third_Party\STemWin532_20160205\GUI\Core\GUI_Stream.c 0x00000000   Number         0  gui_stream.o ABSOLUTE
    ..\..\..\Utilities\Third_Party\STemWin532_20160205\GUI\Core\GUI_StreamCreate.c 0x00000000   Number         0  gui_streamcreate.o ABSOLUTE
    ..\..\..\Utilities\Third_Party\STemWin532_20160205\GUI\Core\GUI_Time.c 0x00000000   Number         0  gui_time.o ABSOLUTE
    ..\..\..\Utilities\Third_Party\STemWin532_20160205\GUI\Core\GUI_Timer.c 0x00000000   Number         0  gui_timer.o ABSOLUTE
    ..\..\..\Utilities\Third_Party\STemWin532_20160205\GUI\Core\GUI_UC.c 0x00000000   Number         0  gui_uc.o ABSOLUTE
    ..\..\..\Utilities\Third_Party\STemWin532_20160205\GUI\Core\GUI_UC_EncodeNone.c 0x00000000   Number         0  gui_uc_encodenone.o ABSOLUTE
    ..\..\..\Utilities\Third_Party\STemWin532_20160205\GUI\Core\GUI_WaitEvent.c 0x00000000   Number         0  gui_waitevent.o ABSOLUTE
    ..\..\..\Utilities\Third_Party\STemWin532_20160205\GUI\Core\GUI__Alpha.c 0x00000000   Number         0  gui__alpha.o ABSOLUTE
    ..\..\..\Utilities\Third_Party\STemWin532_20160205\GUI\Core\GUI__CompactPixelIndices.c 0x00000000   Number         0  gui__compactpixelindices.o ABSOLUTE
    ..\..\..\Utilities\Third_Party\STemWin532_20160205\GUI\Core\GUI__DivTbl_15_255.c 0x00000000   Number         0  gui__divtbl_15_255.o ABSOLUTE
    ..\..\..\Utilities\Third_Party\STemWin532_20160205\GUI\Core\GUI__DivTbl_255_31.c 0x00000000   Number         0  gui__divtbl_255_31.o ABSOLUTE
    ..\..\..\Utilities\Third_Party\STemWin532_20160205\GUI\Core\GUI__DivTbl_255_63.c 0x00000000   Number         0  gui__divtbl_255_63.o ABSOLUTE
    ..\..\..\Utilities\Third_Party\STemWin532_20160205\GUI\Core\GUI__DivTbl_31_255.c 0x00000000   Number         0  gui__divtbl_31_255.o ABSOLUTE
    ..\..\..\Utilities\Third_Party\STemWin532_20160205\GUI\Core\GUI__DivTbl_63_255.c 0x00000000   Number         0  gui__divtbl_63_255.o ABSOLUTE
    ..\..\..\Utilities\Third_Party\STemWin532_20160205\GUI\Core\GUI__DivideRound32.c 0x00000000   Number         0  gui__divideround32.o ABSOLUTE
    ..\..\..\Utilities\Third_Party\STemWin532_20160205\GUI\Core\GUI__DrawBitmap16bpp.c 0x00000000   Number         0  gui__drawbitmap16bpp.o ABSOLUTE
    ..\..\..\Utilities\Third_Party\STemWin532_20160205\GUI\Core\GUI__ExpandPixelIndices.c 0x00000000   Number         0  gui__expandpixelindices.o ABSOLUTE
    ..\..\..\Utilities\Third_Party\STemWin532_20160205\GUI\Core\GUI__GetNumChars.c 0x00000000   Number         0  gui__getnumchars.o ABSOLUTE
    ..\..\..\Utilities\Third_Party\STemWin532_20160205\GUI\Core\GUI__HandleEOLine.c 0x00000000   Number         0  gui__handleeoline.o ABSOLUTE
    ..\..\..\Utilities\Third_Party\STemWin532_20160205\GUI\Core\GUI__IntersectRect.c 0x00000000   Number         0  gui__intersectrect.o ABSOLUTE
    ..\..\..\Utilities\Third_Party\STemWin532_20160205\GUI\Core\GUI__IntersectRects.c 0x00000000   Number         0  gui__intersectrects.o ABSOLUTE
    ..\..\..\Utilities\Third_Party\STemWin532_20160205\GUI\Core\GUI__ManageCache.c 0x00000000   Number         0  gui__managecache.o ABSOLUTE
    ..\..\..\Utilities\Third_Party\STemWin532_20160205\GUI\Core\GUI__Read.c 0x00000000   Number         0  gui__read.o ABSOLUTE
    ..\..\..\Utilities\Third_Party\STemWin532_20160205\GUI\Core\GUI__ReduceRect.c 0x00000000   Number         0  gui__reducerect.o ABSOLUTE
    ..\..\..\Utilities\Third_Party\STemWin532_20160205\GUI\Core\GUI__SetPixelAlpha.c 0x00000000   Number         0  gui__setpixelalpha.o ABSOLUTE
    ..\..\..\Utilities\Third_Party\STemWin532_20160205\GUI\Core\GUI__memset.c 0x00000000   Number         0  gui__memset.o ABSOLUTE
    ..\..\..\Utilities\Third_Party\STemWin532_20160205\GUI\Core\LCD.c 0x00000000   Number         0  lcd.o ABSOLUTE
    ..\..\..\Utilities\Third_Party\STemWin532_20160205\GUI\Core\LCD_AA.c 0x00000000   Number         0  lcd_aa.o ABSOLUTE
    ..\..\..\Utilities\Third_Party\STemWin532_20160205\GUI\Core\LCD_Color.c 0x00000000   Number         0  lcd_color.o ABSOLUTE
    ..\..\..\Utilities\Third_Party\STemWin532_20160205\GUI\Core\LCD_GetColorIndex.c 0x00000000   Number         0  lcd_getcolorindex.o ABSOLUTE
    ..\..\..\Utilities\Third_Party\STemWin532_20160205\GUI\Core\LCD_GetEx.c 0x00000000   Number         0  lcd_getex.o ABSOLUTE
    ..\..\..\Utilities\Third_Party\STemWin532_20160205\GUI\Core\LCD_GetNumDisplays.c 0x00000000   Number         0  lcd_getnumdisplays.o ABSOLUTE
    ..\..\..\Utilities\Third_Party\STemWin532_20160205\GUI\Core\LCD_GetP.c 0x00000000   Number         0  lcd_getp.o ABSOLUTE
    ..\..\..\Utilities\Third_Party\STemWin532_20160205\GUI\Core\LCD_GetPixelColor.c 0x00000000   Number         0  lcd_getpixelcolor.o ABSOLUTE
    ..\..\..\Utilities\Third_Party\STemWin532_20160205\GUI\Core\LCD_Mirror.c 0x00000000   Number         0  lcd_mirror.o ABSOLUTE
    ..\..\..\Utilities\Third_Party\STemWin532_20160205\GUI\Core\LCD_NextPixelAPI.c 0x00000000   Number         0  lcd_nextpixelapi.o ABSOLUTE
    ..\..\..\Utilities\Third_Party\STemWin532_20160205\GUI\Core\LCD_RLE16.c 0x00000000   Number         0  lcd_rle16.o ABSOLUTE
    ..\..\..\Utilities\Third_Party\STemWin532_20160205\GUI\Core\LCD_RLE32.c 0x00000000   Number         0  lcd_rle32.o ABSOLUTE
    ..\..\..\Utilities\Third_Party\STemWin532_20160205\GUI\Core\LCD_RLE4.c 0x00000000   Number         0  lcd_rle4.o ABSOLUTE
    ..\..\..\Utilities\Third_Party\STemWin532_20160205\GUI\Core\LCD_RLE8.c 0x00000000   Number         0  lcd_rle8.o ABSOLUTE
    ..\..\..\Utilities\Third_Party\STemWin532_20160205\GUI\Core\LCD_RLEAlpha.c 0x00000000   Number         0  lcd_rlealpha.o ABSOLUTE
    ..\..\..\Utilities\Third_Party\STemWin532_20160205\GUI\Core\LCD_ReadRect.c 0x00000000   Number         0  lcd_readrect.o ABSOLUTE
    ..\..\..\Utilities\Third_Party\STemWin532_20160205\GUI\Core\LCD_SelectLCD.c 0x00000000   Number         0  lcd_selectlcd.o ABSOLUTE
    ..\..\..\Utilities\Third_Party\STemWin532_20160205\GUI\Core\LCD_Set.c 0x00000000   Number         0  lcd_set.o ABSOLUTE
    ..\..\..\Utilities\Third_Party\STemWin532_20160205\GUI\Core\LCD_SetClipRectEx.c 0x00000000   Number         0  lcd_setcliprectex.o ABSOLUTE
    ..\..\..\Utilities\Third_Party\STemWin532_20160205\GUI\Core\LCD_UpdateColorIndices.c 0x00000000   Number         0  lcd_updatecolorindices.o ABSOLUTE
    ..\..\..\Utilities\Third_Party\STemWin532_20160205\GUI\Font\F13_1.c 0x00000000   Number         0  f13_1.o ABSOLUTE
    ..\..\..\Utilities\Third_Party\STemWin532_20160205\GUI\Font\F13_ASCII.c 0x00000000   Number         0  f13_ascii.o ABSOLUTE
    ..\..\..\Utilities\Third_Party\STemWin532_20160205\GUI\Font\F16B_1.c 0x00000000   Number         0  f16b_1.o ABSOLUTE
    ..\..\..\Utilities\Third_Party\STemWin532_20160205\GUI\Font\F16B_ASCII.c 0x00000000   Number         0  f16b_ascii.o ABSOLUTE
    ..\..\..\Utilities\Third_Party\STemWin532_20160205\GUI\Font\F6x8.c 0x00000000   Number         0  f6x8.o ABSOLUTE
    ..\..\..\Utilities\Third_Party\STemWin532_20160205\GUI\MemDev\GUIDEV.c 0x00000000   Number         0  guidev.o ABSOLUTE
    ..\..\..\Utilities\Third_Party\STemWin532_20160205\GUI\MemDev\GUIDEV_32.c 0x00000000   Number         0  guidev_32.o ABSOLUTE
    ..\..\..\Utilities\Third_Party\STemWin532_20160205\GUI\MemDev\GUIDEV_Banding.c 0x00000000   Number         0  guidev_banding.o ABSOLUTE
    ..\..\..\Utilities\Third_Party\STemWin532_20160205\GUI\MemDev\GUIDEV_Clear.c 0x00000000   Number         0  guidev_clear.o ABSOLUTE
    ..\..\..\Utilities\Third_Party\STemWin532_20160205\GUI\MemDev\GUIDEV_CreateFixed.c 0x00000000   Number         0  guidev_createfixed.o ABSOLUTE
    ..\..\..\Utilities\Third_Party\STemWin532_20160205\GUI\MemDev\GUIDEV_GetDataPtr.c 0x00000000   Number         0  guidev_getdataptr.o ABSOLUTE
    ..\..\..\Utilities\Third_Party\STemWin532_20160205\GUI\MemDev\GUIDEV_GetPos.c 0x00000000   Number         0  guidev_getpos.o ABSOLUTE
    ..\..\..\Utilities\Third_Party\STemWin532_20160205\GUI\MemDev\GUIDEV_GetXSize.c 0x00000000   Number         0  guidev_getxsize.o ABSOLUTE
    ..\..\..\Utilities\Third_Party\STemWin532_20160205\GUI\MemDev\GUIDEV_GetYSize.c 0x00000000   Number         0  guidev_getysize.o ABSOLUTE
    ..\..\..\Utilities\Third_Party\STemWin532_20160205\GUI\MemDev\GUIDEV_ReduceYSize.c 0x00000000   Number         0  guidev_reduceysize.o ABSOLUTE
    ..\..\..\Utilities\Third_Party\STemWin532_20160205\GUI\MemDev\GUIDEV_SetOrg.c 0x00000000   Number         0  guidev_setorg.o ABSOLUTE
    ..\..\..\Utilities\Third_Party\STemWin532_20160205\GUI\MemDev\GUIDEV_StaticDevices.c 0x00000000   Number         0  guidev_staticdevices.o ABSOLUTE
    ..\..\..\Utilities\Third_Party\STemWin532_20160205\GUI\MemDev\GUIDEV_Usage.c 0x00000000   Number         0  guidev_usage.o ABSOLUTE
    ..\..\..\Utilities\Third_Party\STemWin532_20160205\GUI\MemDev\GUIDEV_UsageBM.c 0x00000000   Number         0  guidev_usagebm.o ABSOLUTE
    ..\..\..\Utilities\Third_Party\STemWin532_20160205\GUI\MemDev\GUIDEV_Write.c 0x00000000   Number         0  guidev_write.o ABSOLUTE
    ..\..\..\Utilities\Third_Party\STemWin532_20160205\GUI\MemDev\GUIDEV_WriteToActiveAlpha.c 0x00000000   Number         0  guidev_writetoactivealpha.o ABSOLUTE
    ..\..\..\Utilities\Third_Party\STemWin532_20160205\GUI\MemDev\GUIDEV_WriteToActiveOpaque.c 0x00000000   Number         0  guidev_writetoactiveopaque.o ABSOLUTE
    ..\..\..\Utilities\Third_Party\STemWin532_20160205\GUI\WM\WM.c 0x00000000   Number         0  wm.o ABSOLUTE
    ..\..\..\Utilities\Third_Party\STemWin532_20160205\GUI\WM\WM_BringToBottom.c 0x00000000   Number         0  wm_bringtobottom.o ABSOLUTE
    ..\..\..\Utilities\Third_Party\STemWin532_20160205\GUI\WM\WM_BringToTop.c 0x00000000   Number         0  wm_bringtotop.o ABSOLUTE
    ..\..\..\Utilities\Third_Party\STemWin532_20160205\GUI\WM\WM_CheckScrollPos.c 0x00000000   Number         0  wm_checkscrollpos.o ABSOLUTE
    ..\..\..\Utilities\Third_Party\STemWin532_20160205\GUI\WM\WM_CriticalHandle.c 0x00000000   Number         0  wm_criticalhandle.o ABSOLUTE
    ..\..\..\Utilities\Third_Party\STemWin532_20160205\GUI\WM\WM_ForEachDesc.c 0x00000000   Number         0  wm_foreachdesc.o ABSOLUTE
    ..\..\..\Utilities\Third_Party\STemWin532_20160205\GUI\WM\WM_GetBkColor.c 0x00000000   Number         0  wm_getbkcolor.o ABSOLUTE
    ..\..\..\Utilities\Third_Party\STemWin532_20160205\GUI\WM\WM_GetClientRect.c 0x00000000   Number         0  wm_getclientrect.o ABSOLUTE
    ..\..\..\Utilities\Third_Party\STemWin532_20160205\GUI\WM\WM_GetClientWindow.c 0x00000000   Number         0  wm_getclientwindow.o ABSOLUTE
    ..\..\..\Utilities\Third_Party\STemWin532_20160205\GUI\WM\WM_GetDesktopWindow.c 0x00000000   Number         0  wm_getdesktopwindow.o ABSOLUTE
    ..\..\..\Utilities\Third_Party\STemWin532_20160205\GUI\WM\WM_GetDesktopWindowEx.c 0x00000000   Number         0  wm_getdesktopwindowex.o ABSOLUTE
    ..\..\..\Utilities\Third_Party\STemWin532_20160205\GUI\WM\WM_GetDialogItem.c 0x00000000   Number         0  wm_getdialogitem.o ABSOLUTE
    ..\..\..\Utilities\Third_Party\STemWin532_20160205\GUI\WM\WM_GetFirstChild.c 0x00000000   Number         0  wm_getfirstchild.o ABSOLUTE
    ..\..\..\Utilities\Third_Party\STemWin532_20160205\GUI\WM\WM_GetFlags.c 0x00000000   Number         0  wm_getflags.o ABSOLUTE
    ..\..\..\Utilities\Third_Party\STemWin532_20160205\GUI\WM\WM_GetFocussedWindow.c 0x00000000   Number         0  wm_getfocussedwindow.o ABSOLUTE
    ..\..\..\Utilities\Third_Party\STemWin532_20160205\GUI\WM\WM_GetId.c 0x00000000   Number         0  wm_getid.o ABSOLUTE
    ..\..\..\Utilities\Third_Party\STemWin532_20160205\GUI\WM\WM_GetInsideRect.c 0x00000000   Number         0  wm_getinsiderect.o ABSOLUTE
    ..\..\..\Utilities\Third_Party\STemWin532_20160205\GUI\WM\WM_GetInsideRectExScrollbar.c 0x00000000   Number         0  wm_getinsiderectexscrollbar.o ABSOLUTE
    ..\..\..\Utilities\Third_Party\STemWin532_20160205\GUI\WM\WM_GetOrg.c 0x00000000   Number         0  wm_getorg.o ABSOLUTE
    ..\..\..\Utilities\Third_Party\STemWin532_20160205\GUI\WM\WM_GetParent.c 0x00000000   Number         0  wm_getparent.o ABSOLUTE
    ..\..\..\Utilities\Third_Party\STemWin532_20160205\GUI\WM\WM_GetScrollPartner.c 0x00000000   Number         0  wm_getscrollpartner.o ABSOLUTE
    ..\..\..\Utilities\Third_Party\STemWin532_20160205\GUI\WM\WM_GetScrollState.c 0x00000000   Number         0  wm_getscrollstate.o ABSOLUTE
    ..\..\..\Utilities\Third_Party\STemWin532_20160205\GUI\WM\WM_GetScrollbar.c 0x00000000   Number         0  wm_getscrollbar.o ABSOLUTE
    ..\..\..\Utilities\Third_Party\STemWin532_20160205\GUI\WM\WM_GetWindowRect.c 0x00000000   Number         0  wm_getwindowrect.o ABSOLUTE
    ..\..\..\Utilities\Third_Party\STemWin532_20160205\GUI\WM\WM_GetWindowSize.c 0x00000000   Number         0  wm_getwindowsize.o ABSOLUTE
    ..\..\..\Utilities\Third_Party\STemWin532_20160205\GUI\WM\WM_HasFocus.c 0x00000000   Number         0  wm_hasfocus.o ABSOLUTE
    ..\..\..\Utilities\Third_Party\STemWin532_20160205\GUI\WM\WM_Hide.c 0x00000000   Number         0  wm_hide.o ABSOLUTE
    ..\..\..\Utilities\Third_Party\STemWin532_20160205\GUI\WM\WM_IsFocussable.c 0x00000000   Number         0  wm_isfocussable.o ABSOLUTE
    ..\..\..\Utilities\Third_Party\STemWin532_20160205\GUI\WM\WM_IsWindow.c 0x00000000   Number         0  wm_iswindow.o ABSOLUTE
    ..\..\..\Utilities\Third_Party\STemWin532_20160205\GUI\WM\WM_Move.c 0x00000000   Number         0  wm_move.o ABSOLUTE
    ..\..\..\Utilities\Third_Party\STemWin532_20160205\GUI\WM\WM_NotifyParent.c 0x00000000   Number         0  wm_notifyparent.o ABSOLUTE
    ..\..\..\Utilities\Third_Party\STemWin532_20160205\GUI\WM\WM_OnKey.c 0x00000000   Number         0  wm_onkey.o ABSOLUTE
    ..\..\..\Utilities\Third_Party\STemWin532_20160205\GUI\WM\WM_PID__GetPrevState.c 0x00000000   Number         0  wm_pid__getprevstate.o ABSOLUTE
    ..\..\..\Utilities\Third_Party\STemWin532_20160205\GUI\WM\WM_ResizeWindow.c 0x00000000   Number         0  wm_resizewindow.o ABSOLUTE
    ..\..\..\Utilities\Third_Party\STemWin532_20160205\GUI\WM\WM_Screen2Win.c 0x00000000   Number         0  wm_screen2win.o ABSOLUTE
    ..\..\..\Utilities\Third_Party\STemWin532_20160205\GUI\WM\WM_SendMessageNoPara.c 0x00000000   Number         0  wm_sendmessagenopara.o ABSOLUTE
    ..\..\..\Utilities\Third_Party\STemWin532_20160205\GUI\WM\WM_SendToParent.c 0x00000000   Number         0  wm_sendtoparent.o ABSOLUTE
    ..\..\..\Utilities\Third_Party\STemWin532_20160205\GUI\WM\WM_SetCapture.c 0x00000000   Number         0  wm_setcapture.o ABSOLUTE
    ..\..\..\Utilities\Third_Party\STemWin532_20160205\GUI\WM\WM_SetFocus.c 0x00000000   Number         0  wm_setfocus.o ABSOLUTE
    ..\..\..\Utilities\Third_Party\STemWin532_20160205\GUI\WM\WM_SetFocusOnNextChild.c 0x00000000   Number         0  wm_setfocusonnextchild.o ABSOLUTE
    ..\..\..\Utilities\Third_Party\STemWin532_20160205\GUI\WM\WM_SetFocusOnPrevChild.c 0x00000000   Number         0  wm_setfocusonprevchild.o ABSOLUTE
    ..\..\..\Utilities\Third_Party\STemWin532_20160205\GUI\WM\WM_SetScrollState.c 0x00000000   Number         0  wm_setscrollstate.o ABSOLUTE
    ..\..\..\Utilities\Third_Party\STemWin532_20160205\GUI\WM\WM_SetScrollbar.c 0x00000000   Number         0  wm_setscrollbar.o ABSOLUTE
    ..\..\..\Utilities\Third_Party\STemWin532_20160205\GUI\WM\WM_SetSize.c 0x00000000   Number         0  wm_setsize.o ABSOLUTE
    ..\..\..\Utilities\Third_Party\STemWin532_20160205\GUI\WM\WM_SetTrans.c 0x00000000   Number         0  wm_settrans.o ABSOLUTE
    ..\..\..\Utilities\Third_Party\STemWin532_20160205\GUI\WM\WM_SetUserClipRect.c 0x00000000   Number         0  wm_setusercliprect.o ABSOLUTE
    ..\..\..\Utilities\Third_Party\STemWin532_20160205\GUI\WM\WM_SetXSize.c 0x00000000   Number         0  wm_setxsize.o ABSOLUTE
    ..\..\..\Utilities\Third_Party\STemWin532_20160205\GUI\WM\WM_SetYSize.c 0x00000000   Number         0  wm_setysize.o ABSOLUTE
    ..\..\..\Utilities\Third_Party\STemWin532_20160205\GUI\WM\WM_Show.c 0x00000000   Number         0  wm_show.o ABSOLUTE
    ..\..\..\Utilities\Third_Party\STemWin532_20160205\GUI\WM\WM_Timer.c 0x00000000   Number         0  wm_timer.o ABSOLUTE
    ..\..\..\Utilities\Third_Party\STemWin532_20160205\GUI\WM\WM_Touch.c 0x00000000   Number         0  wm_touch.o ABSOLUTE
    ..\..\..\Utilities\Third_Party\STemWin532_20160205\GUI\WM\WM_UserData.c 0x00000000   Number         0  wm_userdata.o ABSOLUTE
    ..\..\..\Utilities\Third_Party\STemWin532_20160205\GUI\WM\WM_ValidateWindow.c 0x00000000   Number         0  wm_validatewindow.o ABSOLUTE
    ..\..\..\Utilities\Third_Party\STemWin532_20160205\GUI\WM\WM__ForEachDesc.c 0x00000000   Number         0  wm__foreachdesc.o ABSOLUTE
    ..\..\..\Utilities\Third_Party\STemWin532_20160205\GUI\WM\WM__GetFirstSibling.c 0x00000000   Number         0  wm__getfirstsibling.o ABSOLUTE
    ..\..\..\Utilities\Third_Party\STemWin532_20160205\GUI\WM\WM__GetFocussedChild.c 0x00000000   Number         0  wm__getfocussedchild.o ABSOLUTE
    ..\..\..\Utilities\Third_Party\STemWin532_20160205\GUI\WM\WM__GetLastSibling.c 0x00000000   Number         0  wm__getlastsibling.o ABSOLUTE
    ..\..\..\Utilities\Third_Party\STemWin532_20160205\GUI\WM\WM__GetPrevSibling.c 0x00000000   Number         0  wm__getprevsibling.o ABSOLUTE
    ..\..\..\Utilities\Third_Party\STemWin532_20160205\GUI\WM\WM__IsAncestor.c 0x00000000   Number         0  wm__isancestor.o ABSOLUTE
    ..\..\..\Utilities\Third_Party\STemWin532_20160205\GUI\WM\WM__IsChild.c 0x00000000   Number         0  wm__ischild.o ABSOLUTE
    ..\..\..\Utilities\Third_Party\STemWin532_20160205\GUI\WM\WM__IsEnabled.c 0x00000000   Number         0  wm__isenabled.o ABSOLUTE
    ..\..\..\Utilities\Third_Party\STemWin532_20160205\GUI\WM\WM__Screen2Client.c 0x00000000   Number         0  wm__screen2client.o ABSOLUTE
    ..\..\..\Utilities\Third_Party\STemWin532_20160205\GUI\WM\WM__SendMessage.c 0x00000000   Number         0  wm__sendmessage.o ABSOLUTE
    ..\..\..\Utilities\Third_Party\STemWin532_20160205\GUI\WM\WM__SendMessageIfEnabled.c 0x00000000   Number         0  wm__sendmessageifenabled.o ABSOLUTE
    ..\..\..\Utilities\Third_Party\STemWin532_20160205\GUI\WM\WM__SendMessageNoPara.c 0x00000000   Number         0  wm__sendmessagenopara.o ABSOLUTE
    ..\..\..\Utilities\Third_Party\STemWin532_20160205\GUI\WM\WM__UpdateChildPositions.c 0x00000000   Number         0  wm__updatechildpositions.o ABSOLUTE
    ..\..\..\Utilities\Third_Party\STemWin532_20160205\GUI\Widget\DIALOG.c 0x00000000   Number         0  dialog.o ABSOLUTE
    ..\..\..\Utilities\Third_Party\STemWin532_20160205\GUI\Widget\GUI_ARRAY.c 0x00000000   Number         0  gui_array.o ABSOLUTE
    ..\..\..\Utilities\Third_Party\STemWin532_20160205\GUI\Widget\IMAGE.c 0x00000000   Number         0  image.o ABSOLUTE
    ..\..\..\Utilities\Third_Party\STemWin532_20160205\GUI\Widget\IMAGE_DTA.c 0x00000000   Number         0  image_dta.o ABSOLUTE
    ..\..\..\Utilities\Third_Party\STemWin532_20160205\GUI\Widget\LISTBOX.c 0x00000000   Number         0  listbox.o ABSOLUTE
    ..\..\..\Utilities\Third_Party\STemWin532_20160205\GUI\Widget\LISTBOX_CreateIndirect.c 0x00000000   Number         0  listbox_createindirect.o ABSOLUTE
    ..\..\..\Utilities\Third_Party\STemWin532_20160205\GUI\Widget\LISTBOX_Default.c 0x00000000   Number         0  listbox_default.o ABSOLUTE
    ..\..\..\Utilities\Third_Party\STemWin532_20160205\GUI\Widget\LISTBOX_Font.c 0x00000000   Number         0  listbox_font.o ABSOLUTE
    ..\..\..\Utilities\Third_Party\STemWin532_20160205\GUI\Widget\LISTBOX_GetNumItems.c 0x00000000   Number         0  listbox_getnumitems.o ABSOLUTE
    ..\..\..\Utilities\Third_Party\STemWin532_20160205\GUI\Widget\SCROLLBAR.c 0x00000000   Number         0  scrollbar.o ABSOLUTE
    ..\..\..\Utilities\Third_Party\STemWin532_20160205\GUI\Widget\SCROLLBAR_Create.c 0x00000000   Number         0  scrollbar_create.o ABSOLUTE
    ..\..\..\Utilities\Third_Party\STemWin532_20160205\GUI\Widget\SCROLLBAR_Defaults.c 0x00000000   Number         0  scrollbar_defaults.o ABSOLUTE
    ..\..\..\Utilities\Third_Party\STemWin532_20160205\GUI\Widget\SCROLLBAR_SetColor.c 0x00000000   Number         0  scrollbar_setcolor.o ABSOLUTE
    ..\..\..\Utilities\Third_Party\STemWin532_20160205\GUI\Widget\SCROLLBAR_SetWidth.c 0x00000000   Number         0  scrollbar_setwidth.o ABSOLUTE
    ..\..\..\Utilities\Third_Party\STemWin532_20160205\GUI\Widget\SCROLLBAR_Skin.c 0x00000000   Number         0  scrollbar_skin.o ABSOLUTE
    ..\..\..\Utilities\Third_Party\STemWin532_20160205\GUI\Widget\SCROLLBAR_SkinFlex.c 0x00000000   Number         0  scrollbar_skinflex.o ABSOLUTE
    ..\..\..\Utilities\Third_Party\STemWin532_20160205\GUI\Widget\WIDGET.c 0x00000000   Number         0  widget.o ABSOLUTE
    ..\..\..\Utilities\Third_Party\STemWin532_20160205\GUI\Widget\WIDGET_Effect_Simple.c 0x00000000   Number         0  widget_effect_simple.o ABSOLUTE
    ..\..\..\Utilities\Third_Party\STemWin532_20160205\GUI\Widget\WIDGET_SetWidth.c 0x00000000   Number         0  widget_setwidth.o ABSOLUTE
    ..\..\..\Utilities\Third_Party\STemWin532_20160205\GUI\Widget\WINDOW.c 0x00000000   Number         0  window.o ABSOLUTE
    ..\..\Source\CommonTables\arm_common_tables.c 0x00000000   Number         0  arm_common_tables.o ABSOLUTE
    ..\..\Source\FastMathFunctions\arm_cos_f32.c 0x00000000   Number         0  arm_cos_f32.o ABSOLUTE
    ..\..\Source\FastMathFunctions\arm_sin_f32.c 0x00000000   Number         0  arm_sin_f32.o ABSOLUTE
    ..\Core\Src\adc.c                        0x00000000   Number         0  adc.o ABSOLUTE
    ..\Core\Src\can.c                        0x00000000   Number         0  can.o ABSOLUTE
    ..\Core\Src\crc.c                        0x00000000   Number         0  crc.o ABSOLUTE
    ..\Core\Src\dma.c                        0x00000000   Number         0  dma.o ABSOLUTE
    ..\Core\Src\gpio.c                       0x00000000   Number         0  gpio.o ABSOLUTE
    ..\Core\Src\i2c.c                        0x00000000   Number         0  i2c.o ABSOLUTE
    ..\Core\Src\main.c                       0x00000000   Number         0  main.o ABSOLUTE
    ..\Core\Src\spi.c                        0x00000000   Number         0  spi.o ABSOLUTE
    ..\Core\Src\stm32f4xx_hal_msp.c          0x00000000   Number         0  stm32f4xx_hal_msp.o ABSOLUTE
    ..\Core\Src\stm32f4xx_it.c               0x00000000   Number         0  stm32f4xx_it.o ABSOLUTE
    ..\Core\Src\system_stm32f4xx.c           0x00000000   Number         0  system_stm32f4xx.o ABSOLUTE
    ..\Core\Src\tim.c                        0x00000000   Number         0  tim.o ABSOLUTE
    ..\Drivers\STM32F4xx_HAL_Driver\Src\stm32f4xx_hal.c 0x00000000   Number         0  stm32f4xx_hal.o ABSOLUTE
    ..\Drivers\STM32F4xx_HAL_Driver\Src\stm32f4xx_hal_adc.c 0x00000000   Number         0  stm32f4xx_hal_adc.o ABSOLUTE
    ..\Drivers\STM32F4xx_HAL_Driver\Src\stm32f4xx_hal_adc_ex.c 0x00000000   Number         0  stm32f4xx_hal_adc_ex.o ABSOLUTE
    ..\Drivers\STM32F4xx_HAL_Driver\Src\stm32f4xx_hal_can.c 0x00000000   Number         0  stm32f4xx_hal_can.o ABSOLUTE
    ..\Drivers\STM32F4xx_HAL_Driver\Src\stm32f4xx_hal_cortex.c 0x00000000   Number         0  stm32f4xx_hal_cortex.o ABSOLUTE
    ..\Drivers\STM32F4xx_HAL_Driver\Src\stm32f4xx_hal_crc.c 0x00000000   Number         0  stm32f4xx_hal_crc.o ABSOLUTE
    ..\Drivers\STM32F4xx_HAL_Driver\Src\stm32f4xx_hal_dma.c 0x00000000   Number         0  stm32f4xx_hal_dma.o ABSOLUTE
    ..\Drivers\STM32F4xx_HAL_Driver\Src\stm32f4xx_hal_dma_ex.c 0x00000000   Number         0  stm32f4xx_hal_dma_ex.o ABSOLUTE
    ..\Drivers\STM32F4xx_HAL_Driver\Src\stm32f4xx_hal_exti.c 0x00000000   Number         0  stm32f4xx_hal_exti.o ABSOLUTE
    ..\Drivers\STM32F4xx_HAL_Driver\Src\stm32f4xx_hal_flash.c 0x00000000   Number         0  stm32f4xx_hal_flash.o ABSOLUTE
    ..\Drivers\STM32F4xx_HAL_Driver\Src\stm32f4xx_hal_flash_ex.c 0x00000000   Number         0  stm32f4xx_hal_flash_ex.o ABSOLUTE
    ..\Drivers\STM32F4xx_HAL_Driver\Src\stm32f4xx_hal_flash_ramfunc.c 0x00000000   Number         0  stm32f4xx_hal_flash_ramfunc.o ABSOLUTE
    ..\Drivers\STM32F4xx_HAL_Driver\Src\stm32f4xx_hal_gpio.c 0x00000000   Number         0  stm32f4xx_hal_gpio.o ABSOLUTE
    ..\Drivers\STM32F4xx_HAL_Driver\Src\stm32f4xx_hal_i2c.c 0x00000000   Number         0  stm32f4xx_hal_i2c.o ABSOLUTE
    ..\Drivers\STM32F4xx_HAL_Driver\Src\stm32f4xx_hal_i2c_ex.c 0x00000000   Number         0  stm32f4xx_hal_i2c_ex.o ABSOLUTE
    ..\Drivers\STM32F4xx_HAL_Driver\Src\stm32f4xx_hal_pwr.c 0x00000000   Number         0  stm32f4xx_hal_pwr.o ABSOLUTE
    ..\Drivers\STM32F4xx_HAL_Driver\Src\stm32f4xx_hal_pwr_ex.c 0x00000000   Number         0  stm32f4xx_hal_pwr_ex.o ABSOLUTE
    ..\Drivers\STM32F4xx_HAL_Driver\Src\stm32f4xx_hal_rcc.c 0x00000000   Number         0  stm32f4xx_hal_rcc.o ABSOLUTE
    ..\Drivers\STM32F4xx_HAL_Driver\Src\stm32f4xx_hal_rcc_ex.c 0x00000000   Number         0  stm32f4xx_hal_rcc_ex.o ABSOLUTE
    ..\Drivers\STM32F4xx_HAL_Driver\Src\stm32f4xx_hal_spi.c 0x00000000   Number         0  stm32f4xx_hal_spi.o ABSOLUTE
    ..\Drivers\STM32F4xx_HAL_Driver\Src\stm32f4xx_hal_tim.c 0x00000000   Number         0  stm32f4xx_hal_tim.o ABSOLUTE
    ..\Drivers\STM32F4xx_HAL_Driver\Src\stm32f4xx_hal_tim_ex.c 0x00000000   Number         0  stm32f4xx_hal_tim_ex.o ABSOLUTE
    ..\StemWin\Config\GUIConf.c              0x00000000   Number         0  guiconf.o ABSOLUTE
    ..\StemWin\Config\GUIDRV_Template.c      0x00000000   Number         0  guidrv_template.o ABSOLUTE
    ..\StemWin\Config\LCDConf_FlexColor_Template.c 0x00000000   Number         0  lcdconf_flexcolor_template.o ABSOLUTE
    ..\StemWin\OS\GUI_X.c                    0x00000000   Number         0  gui_x.o ABSOLUTE
    ..\StemWin\UI\About.c                    0x00000000   Number         0  about.o ABSOLUTE
    ..\StemWin\UI\About2.c                   0x00000000   Number         0  about2.o ABSOLUTE
    ..\StemWin\UI\Logo.c                     0x00000000   Number         0  logo.o ABSOLUTE
    ..\StemWin\UI\Wave.c                     0x00000000   Number         0  wave.o ABSOLUTE
    ..\User\APP\APPMain.c                    0x00000000   Number         0  appmain.o ABSOLUTE
    ..\User\Framework\FOC.c                  0x00000000   Number         0  foc.o ABSOLUTE
    ..\User\Framework\KeyScan.c              0x00000000   Number         0  keyscan.o ABSOLUTE
    ..\User\Framework\LEDControl.c           0x00000000   Number         0  ledcontrol.o ABSOLUTE
    ..\User\Framework\OLED.c                 0x00000000   Number         0  oled.o ABSOLUTE
    ..\User\Framework\PageGUI.c              0x00000000   Number         0  pagegui.o ABSOLUTE
    ..\User\Framework\PositionPID.c          0x00000000   Number         0  positionpid.o ABSOLUTE
    ..\User\Framework\SpeedPID.c             0x00000000   Number         0  speedpid.o ABSOLUTE
    ..\User\Framework\Svpwm.c                0x00000000   Number         0  svpwm.o ABSOLUTE
    ..\User\Function\FunctionMain.c          0x00000000   Number         0  functionmain.o ABSOLUTE
    ..\User\Function\GUIFunc.c               0x00000000   Number         0  guifunc.o ABSOLUTE
    ..\User\GUI\About2Page.c                 0x00000000   Number         0  about2page.o ABSOLUTE
    ..\User\GUI\AboutPage.c                  0x00000000   Number         0  aboutpage.o ABSOLUTE
    ..\User\GUI\GUIInputEvent.c              0x00000000   Number         0  guiinputevent.o ABSOLUTE
    ..\User\GUI\LogoPage.c                   0x00000000   Number         0  logopage.o ABSOLUTE
    ..\User\GUI\WavePage.c                   0x00000000   Number         0  wavepage.o ABSOLUTE
    ..\User\MCUDriver\ADC1.c                 0x00000000   Number         0  adc1.o ABSOLUTE
    ..\User\MCUDriver\GPIONVIC.c             0x00000000   Number         0  gpionvic.o ABSOLUTE
    ..\User\MCUDriver\IIC1.c                 0x00000000   Number         0  iic1.o ABSOLUTE
    ..\User\MCUDriver\KeyGpio.c              0x00000000   Number         0  keygpio.o ABSOLUTE
    ..\User\MCUDriver\LEDGPIO.c              0x00000000   Number         0  ledgpio.o ABSOLUTE
    ..\User\MCUDriver\MCUDriverMain.c        0x00000000   Number         0  mcudrivermain.o ABSOLUTE
    ..\User\MCUDriver\MotorGPIO.c            0x00000000   Number         0  motorgpio.o ABSOLUTE
    ..\User\MCUDriver\TIM1PWM.c              0x00000000   Number         0  tim1pwm.o ABSOLUTE
    ..\User\MCUDriver\TIM4Encoder.c          0x00000000   Number         0  tim4encoder.o ABSOLUTE
    ..\User\MCUDriver\Timer.c                0x00000000   Number         0  timer.o ABSOLUTE
    ..\User\PeripheralsDriver\FOCConfig.c    0x00000000   Number         0  focconfig.o ABSOLUTE
    ..\User\PeripheralsDriver\KeyConfig.c    0x00000000   Number         0  keyconfig.o ABSOLUTE
    ..\User\PeripheralsDriver\LEDConfig.c    0x00000000   Number         0  ledconfig.o ABSOLUTE
    ..\User\PeripheralsDriver\OLEDConfig.c   0x00000000   Number         0  oledconfig.o ABSOLUTE
    ..\User\PeripheralsDriver\PerDriverMain.c 0x00000000   Number         0  perdrivermain.o ABSOLUTE
    ..\User\PeripheralsDriver\PositionPIDConfig.c 0x00000000   Number         0  positionpidconfig.o ABSOLUTE
    ..\User\PeripheralsDriver\SpeedPIDConfig.c 0x00000000   Number         0  speedpidconfig.o ABSOLUTE
    ..\User\PeripheralsDriver\SvpwmConfig.c  0x00000000   Number         0  svpwmconfig.o ABSOLUTE
    ..\User\RTT\SEGGER_RTT.c                 0x00000000   Number         0  segger_rtt.o ABSOLUTE
    ..\User\RTT\SEGGER_RTT_printf.c          0x00000000   Number         0  segger_rtt_printf.o ABSOLUTE
    ..\\..\\Source\\CommonTables\\arm_common_tables.c 0x00000000   Number         0  arm_common_tables.o ABSOLUTE
    ..\\..\\Source\\FastMathFunctions\\arm_cos_f32.c 0x00000000   Number         0  arm_cos_f32.o ABSOLUTE
    ..\\..\\Source\\FastMathFunctions\\arm_sin_f32.c 0x00000000   Number         0  arm_sin_f32.o ABSOLUTE
    ..\\User\\Framework\\FOC.c               0x00000000   Number         0  foc.o ABSOLUTE
    ..\\User\\MCUDriver\\ADC1.c              0x00000000   Number         0  adc1.o ABSOLUTE
    ..\\User\\MCUDriver\\GPIONVIC.c          0x00000000   Number         0  gpionvic.o ABSOLUTE
    ..\\User\\MCUDriver\\IIC1.c              0x00000000   Number         0  iic1.o ABSOLUTE
    ..\\User\\MCUDriver\\KeyGpio.c           0x00000000   Number         0  keygpio.o ABSOLUTE
    ..\\User\\MCUDriver\\LEDGPIO.c           0x00000000   Number         0  ledgpio.o ABSOLUTE
    ..\\User\\MCUDriver\\MCUDriverMain.c     0x00000000   Number         0  mcudrivermain.o ABSOLUTE
    ..\\User\\MCUDriver\\MotorGPIO.c         0x00000000   Number         0  motorgpio.o ABSOLUTE
    ..\\User\\MCUDriver\\TIM1PWM.c           0x00000000   Number         0  tim1pwm.o ABSOLUTE
    ..\\User\\MCUDriver\\TIM4Encoder.c       0x00000000   Number         0  tim4encoder.o ABSOLUTE
    ..\\User\\MCUDriver\\Timer.c             0x00000000   Number         0  timer.o ABSOLUTE
    ..\\User\\PeripheralsDriver\\FOCConfig.c 0x00000000   Number         0  focconfig.o ABSOLUTE
    ..\\User\\PeripheralsDriver\\PerDriverMain.c 0x00000000   Number         0  perdrivermain.o ABSOLUTE
    cdcmple.s                                0x00000000   Number         0  cdcmple.o ABSOLUTE
    cdrcmple.s                               0x00000000   Number         0  cdrcmple.o ABSOLUTE
    dc.s                                     0x00000000   Number         0  dc.o ABSOLUTE
    handlers.s                               0x00000000   Number         0  handlers.o ABSOLUTE
    init.s                                   0x00000000   Number         0  init.o ABSOLUTE
    startup_stm32f405xx.s                    0x00000000   Number         0  startup_stm32f405xx.o ABSOLUTE
    RESET                                    0x08000000   Section      392  startup_stm32f405xx.o(RESET)
    .ARM.Collect$$$$00000000                 0x08000188   Section        0  entry.o(.ARM.Collect$$$$00000000)
    .ARM.Collect$$$$00000001                 0x08000188   Section        4  entry2.o(.ARM.Collect$$$$00000001)
    .ARM.Collect$$$$00000004                 0x0800018c   Section        4  entry5.o(.ARM.Collect$$$$00000004)
    .ARM.Collect$$$$00000008                 0x08000190   Section        0  entry7b.o(.ARM.Collect$$$$00000008)
    .ARM.Collect$$$$0000000A                 0x08000190   Section        0  entry8b.o(.ARM.Collect$$$$0000000A)
    .ARM.Collect$$$$0000000B                 0x08000190   Section        8  entry9a.o(.ARM.Collect$$$$0000000B)
    .ARM.Collect$$$$0000000E                 0x08000198   Section        4  entry12b.o(.ARM.Collect$$$$0000000E)
    .ARM.Collect$$$$0000000F                 0x0800019c   Section        0  entry10a.o(.ARM.Collect$$$$0000000F)
    .ARM.Collect$$$$00000011                 0x0800019c   Section        0  entry11a.o(.ARM.Collect$$$$00000011)
    .ARM.Collect$$$$00002712                 0x0800019c   Section        4  entry2.o(.ARM.Collect$$$$00002712)
    __lit__00000000                          0x0800019c   Data           4  entry2.o(.ARM.Collect$$$$00002712)
    .text                                    0x080001a0   Section       36  startup_stm32f405xx.o(.text)
    $v0                                      0x080001a0   Number         0  startup_stm32f405xx.o(.text)
    .text                                    0x080001c4   Section        0  arm_cos_f32.o(.text)
    .text                                    0x0800023c   Section        0  arm_sin_f32.o(.text)
    .text                                    0x080002d0   Section        0  uldiv.o(.text)
    .text                                    0x08000332   Section        0  memmovea.o(.text)
    .text                                    0x08000372   Section        0  memseta.o(.text)
    .text                                    0x08000396   Section        0  dmul.o(.text)
    .text                                    0x0800047a   Section        0  ddiv.o(.text)
    .text                                    0x08000558   Section        0  dfltui.o(.text)
    .text                                    0x08000572   Section        0  f2d.o(.text)
    .text                                    0x08000598   Section       48  cdcmple.o(.text)
    .text                                    0x080005c8   Section       48  cdrcmple.o(.text)
    .text                                    0x080005f8   Section        0  d2f.o(.text)
    .text                                    0x08000630   Section        0  uidiv.o(.text)
    .text                                    0x0800065c   Section        0  llshl.o(.text)
    .text                                    0x0800067a   Section        0  llushr.o(.text)
    .text                                    0x0800069a   Section        0  fepilogue.o(.text)
    .text                                    0x0800069a   Section        0  iusefp.o(.text)
    .text                                    0x08000708   Section        0  depilogue.o(.text)
    .text                                    0x080007c2   Section        0  dadd.o(.text)
    .text                                    0x08000910   Section        0  dfixul.o(.text)
    .text                                    0x08000940   Section       36  init.o(.text)
    .text                                    0x08000964   Section        0  llsshr.o(.text)
    .text                                    0x08000988   Section        0  __dczerorl2.o(.text)
    i.ADCDMAIRQHandler                       0x080009e0   Section        0  adc1.o(i.ADCDMAIRQHandler)
    i.ADCDMAStart                            0x08000a08   Section        0  adc1.o(i.ADCDMAStart)
    i.ADC_DMAConvCplt                        0x08000a20   Section        0  stm32f4xx_hal_adc.o(i.ADC_DMAConvCplt)
    ADC_DMAConvCplt                          0x08000a21   Thumb Code   126  stm32f4xx_hal_adc.o(i.ADC_DMAConvCplt)
    i.ADC_DMAError                           0x08000a9e   Section        0  stm32f4xx_hal_adc.o(i.ADC_DMAError)
    ADC_DMAError                             0x08000a9f   Thumb Code    26  stm32f4xx_hal_adc.o(i.ADC_DMAError)
    i.ADC_DMAHalfConvCplt                    0x08000ab8   Section        0  stm32f4xx_hal_adc.o(i.ADC_DMAHalfConvCplt)
    ADC_DMAHalfConvCplt                      0x08000ab9   Thumb Code    14  stm32f4xx_hal_adc.o(i.ADC_DMAHalfConvCplt)
    i.ADC_Init                               0x08000ac8   Section        0  stm32f4xx_hal_adc.o(i.ADC_Init)
    ADC_Init                                 0x08000ac9   Thumb Code   344  stm32f4xx_hal_adc.o(i.ADC_Init)
    i.APPMain_Init                           0x08000c28   Section        0  appmain.o(i.APPMain_Init)
    i.APPMain_Loop                           0x08000c38   Section        0  appmain.o(i.APPMain_Loop)
    i.BusFault_Handler                       0x08000c48   Section        0  stm32f4xx_it.o(i.BusFault_Handler)
    i.ClarkeTransform                        0x08000c4c   Section        0  foc.o(i.ClarkeTransform)
    ClarkeTransform                          0x08000c4d   Thumb Code    38  foc.o(i.ClarkeTransform)
    i.CurrentPIControlID                     0x08000c78   Section        0  foc.o(i.CurrentPIControlID)
    CurrentPIControlID                       0x08000c79   Thumb Code   346  foc.o(i.CurrentPIControlID)
    i.CurrentPIControlIQ                     0x08000dd2   Section        0  foc.o(i.CurrentPIControlIQ)
    CurrentPIControlIQ                       0x08000dd3   Thumb Code   346  foc.o(i.CurrentPIControlIQ)
    i.CurrentReconstruction                  0x08000f2c   Section        0  foc.o(i.CurrentReconstruction)
    CurrentReconstruction                    0x08000f2d   Thumb Code   212  foc.o(i.CurrentReconstruction)
    i.DMA2_Stream0_IRQHandler                0x08001004   Section        0  stm32f4xx_it.o(i.DMA2_Stream0_IRQHandler)
    i.DMA_CalcBaseAndBitshift                0x0800101c   Section        0  stm32f4xx_hal_dma.o(i.DMA_CalcBaseAndBitshift)
    DMA_CalcBaseAndBitshift                  0x0800101d   Thumb Code    46  stm32f4xx_hal_dma.o(i.DMA_CalcBaseAndBitshift)
    i.DMA_CheckFifoParam                     0x08001050   Section        0  stm32f4xx_hal_dma.o(i.DMA_CheckFifoParam)
    DMA_CheckFifoParam                       0x08001051   Thumb Code   170  stm32f4xx_hal_dma.o(i.DMA_CheckFifoParam)
    i.DMA_SetConfig                          0x080010fa   Section        0  stm32f4xx_hal_dma.o(i.DMA_SetConfig)
    DMA_SetConfig                            0x080010fb   Thumb Code    44  stm32f4xx_hal_dma.o(i.DMA_SetConfig)
    i.DebugMon_Handler                       0x08001126   Section        0  stm32f4xx_it.o(i.DebugMon_Handler)
    i.EXTI15_10_IRQHandler                   0x08001128   Section        0  stm32f4xx_it.o(i.EXTI15_10_IRQHandler)
    i.Error_Handler                          0x08001134   Section        0  main.o(i.Error_Handler)
    i.FOCConfig_Init                         0x0800113c   Section        0  focconfig.o(i.FOCConfig_Init)
    i.FocContorl                             0x08001180   Section        0  foc.o(i.FocContorl)
    i.FunctionMain_Init                      0x080011c6   Section        0  functionmain.o(i.FunctionMain_Init)
    i.FunctionMain_Loop                      0x080011c8   Section        0  functionmain.o(i.FunctionMain_Loop)
    i.GPIONVIC_Init                          0x080011cc   Section        0  gpionvic.o(i.GPIONVIC_Init)
    i.GetADC1ChannelXValue                   0x080011dc   Section        0  adc1.o(i.GetADC1ChannelXValue)
    i.GetElectricalAngle                     0x0800122c   Section        0  foc.o(i.GetElectricalAngle)
    GetElectricalAngle                       0x0800122d   Thumb Code    46  foc.o(i.GetElectricalAngle)
    i.GetMotorFaultLeave                     0x08001260   Section        0  motorgpio.o(i.GetMotorFaultLeave)
    i.GetMotorPosition                       0x0800127c   Section        0  positionpidconfig.o(i.GetMotorPosition)
    i.GetMotorPreCurrent                     0x08001290   Section        0  focconfig.o(i.GetMotorPreCurrent)
    GetMotorPreCurrent                       0x08001291   Thumb Code   202  focconfig.o(i.GetMotorPreCurrent)
    i.GetMotorPreSpeed                       0x08001368   Section        0  speedpidconfig.o(i.GetMotorPreSpeed)
    i.GetMotorSVPWMSector                    0x080013e8   Section        0  svpwmconfig.o(i.GetMotorSVPWMSector)
    i.GetSVPWMSector                         0x080013f8   Section        0  svpwm.o(i.GetSVPWMSector)
    i.GetTimer4EncoderAngle                  0x08001400   Section        0  tim4encoder.o(i.GetTimer4EncoderAngle)
    i.GetTimer4EncoderCnt                    0x08001458   Section        0  tim4encoder.o(i.GetTimer4EncoderCnt)
    i.GetVectorDuration                      0x080014b0   Section        0  svpwm.o(i.GetVectorDuration)
    i.HAL_ADC_ConfigChannel                  0x08001740   Section        0  stm32f4xx_hal_adc.o(i.HAL_ADC_ConfigChannel)
    i.HAL_ADC_ConvCpltCallback               0x080018cc   Section        0  stm32f4xx_hal_adc.o(i.HAL_ADC_ConvCpltCallback)
    i.HAL_ADC_ConvHalfCpltCallback           0x080018ce   Section        0  stm32f4xx_hal_adc.o(i.HAL_ADC_ConvHalfCpltCallback)
    i.HAL_ADC_ErrorCallback                  0x080018d0   Section        0  stm32f4xx_hal_adc.o(i.HAL_ADC_ErrorCallback)
    i.HAL_ADC_Init                           0x080018d4   Section        0  stm32f4xx_hal_adc.o(i.HAL_ADC_Init)
    i.HAL_ADC_MspInit                        0x0800193c   Section        0  adc.o(i.HAL_ADC_MspInit)
    i.HAL_ADC_Start_DMA                      0x08001a6c   Section        0  stm32f4xx_hal_adc.o(i.HAL_ADC_Start_DMA)
    i.HAL_CAN_Init                           0x08001c20   Section        0  stm32f4xx_hal_can.o(i.HAL_CAN_Init)
    i.HAL_CAN_MspInit                        0x08001d94   Section        0  can.o(i.HAL_CAN_MspInit)
    i.HAL_CRC_Init                           0x08001e1c   Section        0  stm32f4xx_hal_crc.o(i.HAL_CRC_Init)
    i.HAL_CRC_MspInit                        0x08001e3c   Section        0  crc.o(i.HAL_CRC_MspInit)
    i.HAL_DMA_IRQHandler                     0x08001e70   Section        0  stm32f4xx_hal_dma.o(i.HAL_DMA_IRQHandler)
    i.HAL_DMA_Init                           0x080020b0   Section        0  stm32f4xx_hal_dma.o(i.HAL_DMA_Init)
    i.HAL_DMA_Start_IT                       0x0800219c   Section        0  stm32f4xx_hal_dma.o(i.HAL_DMA_Start_IT)
    i.HAL_Delay                              0x08002230   Section        0  stm32f4xx_hal.o(i.HAL_Delay)
    i.HAL_GPIO_EXTI_Callback                 0x08002258   Section        0  gpionvic.o(i.HAL_GPIO_EXTI_Callback)
    i.HAL_GPIO_EXTI_IRQHandler               0x08002284   Section        0  stm32f4xx_hal_gpio.o(i.HAL_GPIO_EXTI_IRQHandler)
    i.HAL_GPIO_Init                          0x080022a0   Section        0  stm32f4xx_hal_gpio.o(i.HAL_GPIO_Init)
    i.HAL_GPIO_ReadPin                       0x080024a4   Section        0  stm32f4xx_hal_gpio.o(i.HAL_GPIO_ReadPin)
    i.HAL_GPIO_WritePin                      0x080024b4   Section        0  stm32f4xx_hal_gpio.o(i.HAL_GPIO_WritePin)
    i.HAL_GetTick                            0x080024c0   Section        0  stm32f4xx_hal.o(i.HAL_GetTick)
    i.HAL_I2C_Init                           0x080024cc   Section        0  stm32f4xx_hal_i2c.o(i.HAL_I2C_Init)
    i.HAL_I2C_MspInit                        0x0800269c   Section        0  i2c.o(i.HAL_I2C_MspInit)
    i.HAL_IncTick                            0x08002770   Section        0  stm32f4xx_hal.o(i.HAL_IncTick)
    i.HAL_Init                               0x08002788   Section        0  stm32f4xx_hal.o(i.HAL_Init)
    i.HAL_InitTick                           0x080027c4   Section        0  stm32f4xx_hal.o(i.HAL_InitTick)
    i.HAL_MspInit                            0x08002810   Section        0  stm32f4xx_hal_msp.o(i.HAL_MspInit)
    i.HAL_NVIC_EnableIRQ                     0x08002858   Section        0  stm32f4xx_hal_cortex.o(i.HAL_NVIC_EnableIRQ)
    i.HAL_NVIC_SetPriority                   0x08002878   Section        0  stm32f4xx_hal_cortex.o(i.HAL_NVIC_SetPriority)
    i.HAL_NVIC_SetPriorityGrouping           0x080028f4   Section        0  stm32f4xx_hal_cortex.o(i.HAL_NVIC_SetPriorityGrouping)
    i.HAL_RCC_ClockConfig                    0x0800291c   Section        0  stm32f4xx_hal_rcc.o(i.HAL_RCC_ClockConfig)
    i.HAL_RCC_GetHCLKFreq                    0x08002aa0   Section        0  stm32f4xx_hal_rcc.o(i.HAL_RCC_GetHCLKFreq)
    i.HAL_RCC_GetPCLK1Freq                   0x08002aac   Section        0  stm32f4xx_hal_rcc.o(i.HAL_RCC_GetPCLK1Freq)
    i.HAL_RCC_GetSysClockFreq                0x08002acc   Section        0  stm32f4xx_hal_rcc.o(i.HAL_RCC_GetSysClockFreq)
    i.HAL_RCC_OscConfig                      0x08002b7c   Section        0  stm32f4xx_hal_rcc.o(i.HAL_RCC_OscConfig)
    i.HAL_SPI_Init                           0x08003018   Section        0  stm32f4xx_hal_spi.o(i.HAL_SPI_Init)
    i.HAL_SPI_MspInit                        0x080030e0   Section        0  spi.o(i.HAL_SPI_MspInit)
    i.HAL_SYSTICK_Config                     0x080031e0   Section        0  stm32f4xx_hal_cortex.o(i.HAL_SYSTICK_Config)
    i.HAL_TIMEx_BreakCallback                0x08003214   Section        0  stm32f4xx_hal_tim_ex.o(i.HAL_TIMEx_BreakCallback)
    i.HAL_TIMEx_CommutCallback               0x08003216   Section        0  stm32f4xx_hal_tim_ex.o(i.HAL_TIMEx_CommutCallback)
    i.HAL_TIMEx_ConfigBreakDeadTime          0x08003218   Section        0  stm32f4xx_hal_tim_ex.o(i.HAL_TIMEx_ConfigBreakDeadTime)
    i.HAL_TIMEx_MasterConfigSynchronization  0x0800328c   Section        0  stm32f4xx_hal_tim_ex.o(i.HAL_TIMEx_MasterConfigSynchronization)
    i.HAL_TIMEx_PWMN_Start                   0x08003340   Section        0  stm32f4xx_hal_tim_ex.o(i.HAL_TIMEx_PWMN_Start)
    i.HAL_TIM_Base_Init                      0x08003434   Section        0  stm32f4xx_hal_tim.o(i.HAL_TIM_Base_Init)
    i.HAL_TIM_Base_MspInit                   0x0800349c   Section        0  tim.o(i.HAL_TIM_Base_MspInit)
    i.HAL_TIM_Base_Start_IT                  0x080034e4   Section        0  stm32f4xx_hal_tim.o(i.HAL_TIM_Base_Start_IT)
    i.HAL_TIM_Base_Stop_IT                   0x0800358c   Section        0  stm32f4xx_hal_tim.o(i.HAL_TIM_Base_Stop_IT)
    i.HAL_TIM_ConfigClockSource              0x080035ca   Section        0  stm32f4xx_hal_tim.o(i.HAL_TIM_ConfigClockSource)
    i.HAL_TIM_Encoder_Init                   0x080036d2   Section        0  stm32f4xx_hal_tim.o(i.HAL_TIM_Encoder_Init)
    i.HAL_TIM_Encoder_MspInit                0x0800379c   Section        0  tim.o(i.HAL_TIM_Encoder_MspInit)
    i.HAL_TIM_Encoder_Start                  0x08003820   Section        0  stm32f4xx_hal_tim.o(i.HAL_TIM_Encoder_Start)
    i.HAL_TIM_IC_CaptureCallback             0x080038ec   Section        0  stm32f4xx_hal_tim.o(i.HAL_TIM_IC_CaptureCallback)
    i.HAL_TIM_IRQHandler                     0x080038ee   Section        0  stm32f4xx_hal_tim.o(i.HAL_TIM_IRQHandler)
    i.HAL_TIM_MspPostInit                    0x08003a84   Section        0  tim.o(i.HAL_TIM_MspPostInit)
    i.HAL_TIM_OC_DelayElapsedCallback        0x08003b24   Section        0  stm32f4xx_hal_tim.o(i.HAL_TIM_OC_DelayElapsedCallback)
    i.HAL_TIM_PWM_ConfigChannel              0x08003b26   Section        0  stm32f4xx_hal_tim.o(i.HAL_TIM_PWM_ConfigChannel)
    i.HAL_TIM_PWM_Init                       0x08003c22   Section        0  stm32f4xx_hal_tim.o(i.HAL_TIM_PWM_Init)
    i.HAL_TIM_PWM_MspInit                    0x08003c88   Section        0  stm32f4xx_hal_tim.o(i.HAL_TIM_PWM_MspInit)
    i.HAL_TIM_PWM_PulseFinishedCallback      0x08003c8a   Section        0  stm32f4xx_hal_tim.o(i.HAL_TIM_PWM_PulseFinishedCallback)
    i.HAL_TIM_PWM_Start                      0x08003c8c   Section        0  stm32f4xx_hal_tim.o(i.HAL_TIM_PWM_Start)
    i.HAL_TIM_PWM_Start_IT                   0x08003d98   Section        0  stm32f4xx_hal_tim.o(i.HAL_TIM_PWM_Start_IT)
    i.HAL_TIM_PWM_Stop_IT                    0x08003ef0   Section        0  stm32f4xx_hal_tim.o(i.HAL_TIM_PWM_Stop_IT)
    i.HAL_TIM_PeriodElapsedCallback          0x08003fe4   Section        0  stm32f4xx_hal_tim.o(i.HAL_TIM_PeriodElapsedCallback)
    i.HAL_TIM_TriggerCallback                0x08003fe6   Section        0  stm32f4xx_hal_tim.o(i.HAL_TIM_TriggerCallback)
    i.HardFault_Handler                      0x08003fe8   Section        0  stm32f4xx_it.o(i.HardFault_Handler)
    i.KEYRunCycle                            0x08003fec   Section        0  keyscan.o(i.KEYRunCycle)
    i.KeyConfig_Init                         0x0800406c   Section        0  keyconfig.o(i.KeyConfig_Init)
    i.KeyConfig_Loop                         0x08004070   Section        0  keyconfig.o(i.KeyConfig_Loop)
    i.KeyScan                                0x08004088   Section        0  keyscan.o(i.KeyScan)
    i.LEDConfigSetSysLedStatus               0x08004130   Section        0  ledconfig.o(i.LEDConfigSetSysLedStatus)
    i.LEDConfig_Init                         0x08004154   Section        0  ledconfig.o(i.LEDConfig_Init)
    i.LEDConfig_Loop                         0x08004164   Section        0  ledconfig.o(i.LEDConfig_Loop)
    i.LEDRunCycle                            0x08004174   Section        0  ledcontrol.o(i.LEDRunCycle)
    i.LEDToggle                              0x080041c4   Section        0  ledcontrol.o(i.LEDToggle)
    i.MCUDriverMain_Init                     0x080041dc   Section        0  mcudrivermain.o(i.MCUDriverMain_Init)
    i.MCUDriverMain_Loop                     0x080041ec   Section        0  mcudrivermain.o(i.MCUDriverMain_Loop)
    i.MX_ADC1_Init                           0x08004214   Section        0  adc.o(i.MX_ADC1_Init)
    i.MX_ADC2_Init                           0x080042b4   Section        0  adc.o(i.MX_ADC2_Init)
    i.MX_CAN1_Init                           0x08004324   Section        0  can.o(i.MX_CAN1_Init)
    i.MX_CRC_Init                            0x0800435c   Section        0  crc.o(i.MX_CRC_Init)
    i.MX_DMA_Init                            0x0800437c   Section        0  dma.o(i.MX_DMA_Init)
    i.MX_GPIO_Init                           0x080043d4   Section        0  gpio.o(i.MX_GPIO_Init)
    i.MX_I2C1_Init                           0x080045d0   Section        0  i2c.o(i.MX_I2C1_Init)
    i.MX_SPI1_Init                           0x0800460c   Section        0  spi.o(i.MX_SPI1_Init)
    i.MX_SPI3_Init                           0x08004650   Section        0  spi.o(i.MX_SPI3_Init)
    i.MX_TIM1_Init                           0x08004694   Section        0  tim.o(i.MX_TIM1_Init)
    i.MX_TIM4_Init                           0x080047a8   Section        0  tim.o(i.MX_TIM4_Init)
    i.MemManage_Handler                      0x08004824   Section        0  stm32f4xx_it.o(i.MemManage_Handler)
    i.MotorAngleCalibration                  0x08004828   Section        0  focconfig.o(i.MotorAngleCalibration)
    MotorAngleCalibration                    0x08004829   Thumb Code   106  focconfig.o(i.MotorAngleCalibration)
    i.MotorFocControl                        0x080048a0   Section        0  focconfig.o(i.MotorFocControl)
    i.MotorSvpwmGenerate                     0x080048b0   Section        0  svpwmconfig.o(i.MotorSvpwmGenerate)
    i.NMI_Handler                            0x080048d8   Section        0  stm32f4xx_it.o(i.NMI_Handler)
    i.ParkAntiTransform                      0x080048dc   Section        0  foc.o(i.ParkAntiTransform)
    ParkAntiTransform                        0x080048dd   Thumb Code   102  foc.o(i.ParkAntiTransform)
    i.ParkTransform                          0x08004942   Section        0  foc.o(i.ParkTransform)
    ParkTransform                            0x08004943   Thumb Code   106  foc.o(i.ParkTransform)
    i.PendSV_Handler                         0x080049ac   Section        0  stm32f4xx_it.o(i.PendSV_Handler)
    i.PerDriverMain_Init                     0x080049ae   Section        0  perdrivermain.o(i.PerDriverMain_Init)
    i.PerDriverMain_Loop                     0x080049c8   Section        0  perdrivermain.o(i.PerDriverMain_Loop)
    i.PositionPIDConfig_Init                 0x08004a4c   Section        0  positionpidconfig.o(i.PositionPIDConfig_Init)
    i.PositionPIDConfig_Loop                 0x08004a88   Section        0  positionpidconfig.o(i.PositionPIDConfig_Loop)
    i.PositionPIDConfig_Printf               0x08004a98   Section        0  positionpidconfig.o(i.PositionPIDConfig_Printf)
    i.PositionPIDControl                     0x08004aa8   Section        0  positionpid.o(i.PositionPIDControl)
    PositionPIDControl                       0x08004aa9   Thumb Code   262  positionpid.o(i.PositionPIDControl)
    i.PositionPIDCycle                       0x08004bc0   Section        0  positionpid.o(i.PositionPIDCycle)
    i.PositionPIDPrintf                      0x08004c08   Section        0  positionpid.o(i.PositionPIDPrintf)
    i.ReadKeyDownLeave                       0x08004c60   Section        0  keygpio.o(i.ReadKeyDownLeave)
    i.ReadKeyUPLeave                         0x08004c70   Section        0  keygpio.o(i.ReadKeyUPLeave)
    i.SEGGER_RTT_Write                       0x08004c80   Section        0  segger_rtt.o(i.SEGGER_RTT_Write)
    i.SVC_Handler                            0x08004df0   Section        0  stm32f4xx_it.o(i.SVC_Handler)
    i.SetCurrentPIDParams                    0x08004df2   Section        0  foc.o(i.SetCurrentPIDParams)
    i.SetCurrentPIDTar                       0x08004e14   Section        0  foc.o(i.SetCurrentPIDTar)
    i.SetFaultLedLeave                       0x08004e20   Section        0  ledgpio.o(i.SetFaultLedLeave)
    i.SetFocEnable                           0x08004e38   Section        0  foc.o(i.SetFocEnable)
    i.SetLEDFlashing                         0x08004e4a   Section        0  ledcontrol.o(i.SetLEDFlashing)
    i.SetLEDOFF                              0x08004e54   Section        0  ledcontrol.o(i.SetLEDOFF)
    i.SetLEDON                               0x08004e6e   Section        0  ledcontrol.o(i.SetLEDON)
    i.SetLedStatus                           0x08004e7e   Section        0  ledcontrol.o(i.SetLedStatus)
    i.SetMotorAndTimITEnable                 0x08004ebc   Section        0  focconfig.o(i.SetMotorAndTimITEnable)
    SetMotorAndTimITEnable                   0x08004ebd   Thumb Code    18  focconfig.o(i.SetMotorAndTimITEnable)
    i.SetMotorCurrent                        0x08004ed0   Section        0  speedpidconfig.o(i.SetMotorCurrent)
    i.SetMotorEnable                         0x08004ef0   Section        0  motorgpio.o(i.SetMotorEnable)
    i.SetMotorPosition                       0x08004f04   Section        0  positionpidconfig.o(i.SetMotorPosition)
    i.SetPositionPIDConfigTarPosition        0x08004f1c   Section        0  positionpidconfig.o(i.SetPositionPIDConfigTarPosition)
    i.SetPositionPIDEnable                   0x08004f3c   Section        0  positionpid.o(i.SetPositionPIDEnable)
    i.SetPositionPIDParams                   0x08004f48   Section        0  positionpid.o(i.SetPositionPIDParams)
    i.SetPositionPIDTar                      0x08004f56   Section        0  positionpid.o(i.SetPositionPIDTar)
    i.SetSYSLedLeave                         0x08004f5c   Section        0  ledgpio.o(i.SetSYSLedLeave)
    i.SetSpeedPIDConfigTarSpeed              0x08004f74   Section        0  speedpidconfig.o(i.SetSpeedPIDConfigTarSpeed)
    i.SetSpeedPIDEnable                      0x08004f94   Section        0  speedpid.o(i.SetSpeedPIDEnable)
    i.SetSpeedPIDParams                      0x08004fa0   Section        0  speedpid.o(i.SetSpeedPIDParams)
    i.SetSpeedPIDTar                         0x08004fae   Section        0  speedpid.o(i.SetSpeedPIDTar)
    i.SetTIM1Channel1HighLeaveTime_us        0x08004fb4   Section        0  tim1pwm.o(i.SetTIM1Channel1HighLeaveTime_us)
    i.SetTIM1Channel2HighLeaveTime_us        0x08005004   Section        0  tim1pwm.o(i.SetTIM1Channel2HighLeaveTime_us)
    i.SetTIM1Channel3HighLeaveTime_us        0x08005054   Section        0  tim1pwm.o(i.SetTIM1Channel3HighLeaveTime_us)
    i.SetTIM1Channel4HighLeaveTime_us        0x080050a4   Section        0  tim1pwm.o(i.SetTIM1Channel4HighLeaveTime_us)
    i.SetTarIDIQ                             0x080050f4   Section        0  focconfig.o(i.SetTarIDIQ)
    i.SetTimer4EncoderCnt                    0x0800511c   Section        0  tim4encoder.o(i.SetTimer4EncoderCnt)
    i.SpeedPIDConfig_Init                    0x08005128   Section        0  speedpidconfig.o(i.SpeedPIDConfig_Init)
    i.SpeedPIDConfig_Loop                    0x08005164   Section        0  speedpidconfig.o(i.SpeedPIDConfig_Loop)
    i.SpeedPIDControl                        0x08005174   Section        0  speedpid.o(i.SpeedPIDControl)
    SpeedPIDControl                          0x08005175   Thumb Code   168  speedpid.o(i.SpeedPIDControl)
    i.SpeedPIDCycle                          0x08005220   Section        0  speedpid.o(i.SpeedPIDCycle)
    i.SvpwmContorol                          0x08005268   Section        0  svpwm.o(i.SvpwmContorol)
    i.SvpwmGenerate                          0x08005298   Section        0  svpwm.o(i.SvpwmGenerate)
    i.SvpwmSectorJudgment                    0x08005430   Section        0  svpwm.o(i.SvpwmSectorJudgment)
    i.SysTick_Handler                        0x08005508   Section        0  stm32f4xx_it.o(i.SysTick_Handler)
    i.SystemClock_Config                     0x08005574   Section        0  main.o(i.SystemClock_Config)
    i.SystemInit                             0x08005628   Section        0  system_stm32f4xx.o(i.SystemInit)
    i.TIM1_CC_IRQHandler                     0x0800563c   Section        0  stm32f4xx_it.o(i.TIM1_CC_IRQHandler)
    i.TIM1_Init                              0x08005650   Section        0  tim1pwm.o(i.TIM1_Init)
    i.TIM_Base_SetConfig                     0x080056b4   Section        0  stm32f4xx_hal_tim.o(i.TIM_Base_SetConfig)
    i.TIM_CCxChannelCmd                      0x0800578c   Section        0  stm32f4xx_hal_tim.o(i.TIM_CCxChannelCmd)
    i.TIM_CCxNChannelCmd                     0x080057ae   Section        0  stm32f4xx_hal_tim_ex.o(i.TIM_CCxNChannelCmd)
    TIM_CCxNChannelCmd                       0x080057af   Thumb Code    34  stm32f4xx_hal_tim_ex.o(i.TIM_CCxNChannelCmd)
    i.TIM_ETR_SetConfig                      0x080057d0   Section        0  stm32f4xx_hal_tim.o(i.TIM_ETR_SetConfig)
    i.TIM_ITRx_SetConfig                     0x080057e6   Section        0  stm32f4xx_hal_tim.o(i.TIM_ITRx_SetConfig)
    TIM_ITRx_SetConfig                       0x080057e7   Thumb Code    18  stm32f4xx_hal_tim.o(i.TIM_ITRx_SetConfig)
    i.TIM_OC1_SetConfig                      0x080057f8   Section        0  stm32f4xx_hal_tim.o(i.TIM_OC1_SetConfig)
    TIM_OC1_SetConfig                        0x080057f9   Thumb Code   104  stm32f4xx_hal_tim.o(i.TIM_OC1_SetConfig)
    i.TIM_OC2_SetConfig                      0x08005868   Section        0  stm32f4xx_hal_tim.o(i.TIM_OC2_SetConfig)
    i.TIM_OC3_SetConfig                      0x080058e4   Section        0  stm32f4xx_hal_tim.o(i.TIM_OC3_SetConfig)
    TIM_OC3_SetConfig                        0x080058e5   Thumb Code   112  stm32f4xx_hal_tim.o(i.TIM_OC3_SetConfig)
    i.TIM_OC4_SetConfig                      0x0800595c   Section        0  stm32f4xx_hal_tim.o(i.TIM_OC4_SetConfig)
    TIM_OC4_SetConfig                        0x0800595d   Thumb Code    74  stm32f4xx_hal_tim.o(i.TIM_OC4_SetConfig)
    i.TIM_TI1_ConfigInputStage               0x080059b0   Section        0  stm32f4xx_hal_tim.o(i.TIM_TI1_ConfigInputStage)
    TIM_TI1_ConfigInputStage                 0x080059b1   Thumb Code    38  stm32f4xx_hal_tim.o(i.TIM_TI1_ConfigInputStage)
    i.TIM_TI2_ConfigInputStage               0x080059d6   Section        0  stm32f4xx_hal_tim.o(i.TIM_TI2_ConfigInputStage)
    TIM_TI2_ConfigInputStage                 0x080059d7   Thumb Code    40  stm32f4xx_hal_tim.o(i.TIM_TI2_ConfigInputStage)
    i.Timer1Channel4ITEnable                 0x08005a00   Section        0  tim1pwm.o(i.Timer1Channel4ITEnable)
    i.TimerEncoderInit                       0x08005a2c   Section        0  tim4encoder.o(i.TimerEncoderInit)
    i.TimerEncoderReset                      0x08005a60   Section        0  tim4encoder.o(i.TimerEncoderReset)
    i.UsageFault_Handler                     0x08005a88   Section        0  stm32f4xx_it.o(i.UsageFault_Handler)
    i._Init                                  0x08005a8c   Section        0  segger_rtt.o(i._Init)
    _Init                                    0x08005a8d   Thumb Code     2  segger_rtt.o(i._Init)
    i.__0printf                              0x08005a90   Section        0  printfa.o(i.__0printf)
    i.__NVIC_GetPriorityGrouping             0x08005ab0   Section        0  stm32f4xx_hal_cortex.o(i.__NVIC_GetPriorityGrouping)
    __NVIC_GetPriorityGrouping               0x08005ab1   Thumb Code    10  stm32f4xx_hal_cortex.o(i.__NVIC_GetPriorityGrouping)
    i.__NVIC_SetPriority                     0x08005ac0   Section        0  stm32f4xx_hal_cortex.o(i.__NVIC_SetPriority)
    __NVIC_SetPriority                       0x08005ac1   Thumb Code    32  stm32f4xx_hal_cortex.o(i.__NVIC_SetPriority)
    i.__hardfp_fabs                          0x08005ae8   Section        0  fabs.o(i.__hardfp_fabs)
    i.__scatterload_copy                     0x08005afc   Section       14  handlers.o(i.__scatterload_copy)
    i.__scatterload_null                     0x08005b0a   Section        2  handlers.o(i.__scatterload_null)
    i.__scatterload_zeroinit                 0x08005b0c   Section       14  handlers.o(i.__scatterload_zeroinit)
    i._fp_digits                             0x08005b1c   Section        0  printfa.o(i._fp_digits)
    _fp_digits                               0x08005b1d   Thumb Code   366  printfa.o(i._fp_digits)
    i._printf_core                           0x08005ca0   Section        0  printfa.o(i._printf_core)
    _printf_core                             0x08005ca1   Thumb Code  1704  printfa.o(i._printf_core)
    i._printf_post_padding                   0x08006354   Section        0  printfa.o(i._printf_post_padding)
    _printf_post_padding                     0x08006355   Thumb Code    36  printfa.o(i._printf_post_padding)
    i._printf_pre_padding                    0x08006378   Section        0  printfa.o(i._printf_pre_padding)
    _printf_pre_padding                      0x08006379   Thumb Code    46  printfa.o(i._printf_pre_padding)
    i.fputc                                  0x080063a6   Section        0  segger_rtt.o(i.fputc)
    i.main                                   0x080063c0   Section        0  main.o(i.main)
    .constdata                               0x08006400   Section        8  stm32f4xx_hal_dma.o(.constdata)
    flagBitshiftOffset                       0x08006400   Data           8  stm32f4xx_hal_dma.o(.constdata)
    .constdata                               0x08006408   Section       24  system_stm32f4xx.o(.constdata)
    .constdata                               0x08006420   Section     2052  arm_common_tables.o(.constdata)
    .conststring                             0x08006c24   Section        9  segger_rtt.o(.conststring)
    .data                                    0x20000000   Section        8  crc.o(.data)
    .data                                    0x20000008   Section        9  stm32f4xx_hal.o(.data)
    .data                                    0x20000014   Section        4  system_stm32f4xx.o(.data)
    .data                                    0x20000018   Section      120  segger_rtt.o(.data)
    _SEGGER_RTT                              0x20000018   Data         120  segger_rtt.o(.data)
    .data                                    0x20000090   Section        4  mcudrivermain.o(.data)
    last_exec_ms                             0x20000090   Data           4  mcudrivermain.o(.data)
    .data                                    0x20000094   Section        4  timer.o(.data)
    .data                                    0x20000098   Section        8  tim4encoder.o(.data)
    .data                                    0x200000a0   Section        8  gpionvic.o(.data)
    .data                                    0x200000a8   Section       16  perdrivermain.o(.data)
    last_exec_ms                             0x200000b0   Data           4  perdrivermain.o(.data)
    last_exec_ms                             0x200000b4   Data           4  perdrivermain.o(.data)
    .data                                    0x200000b8   Section       20  ledconfig.o(.data)
    .data                                    0x200000cc   Section       88  svpwmconfig.o(.data)
    .data                                    0x20000124   Section      152  focconfig.o(.data)
    .data                                    0x200001bc   Section       68  speedpidconfig.o(.data)
    angle                                    0x200001f8   Data           4  speedpidconfig.o(.data)
    lastAngle                                0x200001fc   Data           4  speedpidconfig.o(.data)
    .data                                    0x20000200   Section       60  positionpidconfig.o(.data)
    .data                                    0x2000023c   Section       64  keyconfig.o(.data)
    .data                                    0x2000027c   Section        4  ledcontrol.o(.data)
    .data                                    0x20000280   Section        4  speedpid.o(.data)
    .data                                    0x20000284   Section        4  positionpid.o(.data)
    .data                                    0x20000288   Section        4  oled.o(.data)
    .data                                    0x2000028c   Section        4  keyscan.o(.data)
    .data                                    0x20000290   Section        4  pagegui.o(.data)
    .data                                    0x20000294   Section        4  stdout.o(.data)
    .bss                                     0x20000298   Section      240  adc.o(.bss)
    .bss                                     0x20000388   Section       40  can.o(.bss)
    .bss                                     0x200003b0   Section      180  i2c.o(.bss)
    .bss                                     0x20000464   Section      176  spi.o(.bss)
    .bss                                     0x20000514   Section      144  tim.o(.bss)
    .bss                                     0x200005a4   Section     1040  segger_rtt.o(.bss)
    _acUpBuffer                              0x200005a4   Data        1024  segger_rtt.o(.bss)
    _acDownBuffer                            0x200009a4   Data          16  segger_rtt.o(.bss)
    .bss                                     0x200009b4   Section       36  adc1.o(.bss)
    STACK                                    0x200009d8   Section     2048  startup_stm32f405xx.o(STACK)

    Global Symbols

    Symbol Name                              Value     Ov Type        Size  Object(Section)

    BuildAttributes$$THM_ISAv4$E$P$D$K$B$S$7EM$VFPi3$EXTD16$VFPS$VFMA$PE$A:L22UL41UL21$X:L11$S22US41US21$IEEE1$IW$USESV6$~STKCKD$USESV7$~SHL$OTIME$ROPI$IEEEX$EBA8$MICROLIB$REQ8$PRES8$EABIv2 0x00000000   Number         0  anon$$obj.o ABSOLUTE
    __ARM_use_no_argv                        0x00000000   Number         0  main.o ABSOLUTE
    _printf_a                                0x00000000   Number         0  stubs.o ABSOLUTE
    _printf_c                                0x00000000   Number         0  stubs.o ABSOLUTE
    _printf_charcount                        0x00000000   Number         0  stubs.o ABSOLUTE
    _printf_d                                0x00000000   Number         0  stubs.o ABSOLUTE
    _printf_e                                0x00000000   Number         0  stubs.o ABSOLUTE
    _printf_f                                0x00000000   Number         0  stubs.o ABSOLUTE
    _printf_flags                            0x00000000   Number         0  stubs.o ABSOLUTE
    _printf_fp_dec                           0x00000000   Number         0  stubs.o ABSOLUTE
    _printf_fp_hex                           0x00000000   Number         0  stubs.o ABSOLUTE
    _printf_g                                0x00000000   Number         0  stubs.o ABSOLUTE
    _printf_i                                0x00000000   Number         0  stubs.o ABSOLUTE
    _printf_int_dec                          0x00000000   Number         0  stubs.o ABSOLUTE
    _printf_l                                0x00000000   Number         0  stubs.o ABSOLUTE
    _printf_lc                               0x00000000   Number         0  stubs.o ABSOLUTE
    _printf_ll                               0x00000000   Number         0  stubs.o ABSOLUTE
    _printf_lld                              0x00000000   Number         0  stubs.o ABSOLUTE
    _printf_lli                              0x00000000   Number         0  stubs.o ABSOLUTE
    _printf_llo                              0x00000000   Number         0  stubs.o ABSOLUTE
    _printf_llu                              0x00000000   Number         0  stubs.o ABSOLUTE
    _printf_llx                              0x00000000   Number         0  stubs.o ABSOLUTE
    _printf_longlong_dec                     0x00000000   Number         0  stubs.o ABSOLUTE
    _printf_longlong_hex                     0x00000000   Number         0  stubs.o ABSOLUTE
    _printf_longlong_oct                     0x00000000   Number         0  stubs.o ABSOLUTE
    _printf_ls                               0x00000000   Number         0  stubs.o ABSOLUTE
    _printf_mbtowc                           0x00000000   Number         0  stubs.o ABSOLUTE
    _printf_n                                0x00000000   Number         0  stubs.o ABSOLUTE
    _printf_o                                0x00000000   Number         0  stubs.o ABSOLUTE
    _printf_p                                0x00000000   Number         0  stubs.o ABSOLUTE
    _printf_percent                          0x00000000   Number         0  stubs.o ABSOLUTE
    _printf_pre_padding                      0x00000000   Number         0  stubs.o ABSOLUTE
    _printf_return_value                     0x00000000   Number         0  stubs.o ABSOLUTE
    _printf_s                                0x00000000   Number         0  stubs.o ABSOLUTE
    _printf_sizespec                         0x00000000   Number         0  stubs.o ABSOLUTE
    _printf_str                              0x00000000   Number         0  stubs.o ABSOLUTE
    _printf_truncate_signed                  0x00000000   Number         0  stubs.o ABSOLUTE
    _printf_truncate_unsigned                0x00000000   Number         0  stubs.o ABSOLUTE
    _printf_u                                0x00000000   Number         0  stubs.o ABSOLUTE
    _printf_wc                               0x00000000   Number         0  stubs.o ABSOLUTE
    _printf_wctomb                           0x00000000   Number         0  stubs.o ABSOLUTE
    _printf_widthprec                        0x00000000   Number         0  stubs.o ABSOLUTE
    _printf_x                                0x00000000   Number         0  stubs.o ABSOLUTE
    __arm_fini_                               - Undefined Weak Reference
    __cpp_initialize__aeabi_                  - Undefined Weak Reference
    __cxa_finalize                            - Undefined Weak Reference
    _clock_init                               - Undefined Weak Reference
    _microlib_exit                            - Undefined Weak Reference
    __Vectors_Size                           0x00000188   Number         0  startup_stm32f405xx.o ABSOLUTE
    __Vectors                                0x08000000   Data           4  startup_stm32f405xx.o(RESET)
    __Vectors_End                            0x08000188   Data           0  startup_stm32f405xx.o(RESET)
    __main                                   0x08000189   Thumb Code     0  entry.o(.ARM.Collect$$$$00000000)
    _main_stk                                0x08000189   Thumb Code     0  entry2.o(.ARM.Collect$$$$00000001)
    _main_scatterload                        0x0800018d   Thumb Code     0  entry5.o(.ARM.Collect$$$$00000004)
    __main_after_scatterload                 0x08000191   Thumb Code     0  entry5.o(.ARM.Collect$$$$00000004)
    _main_clock                              0x08000191   Thumb Code     0  entry7b.o(.ARM.Collect$$$$00000008)
    _main_cpp_init                           0x08000191   Thumb Code     0  entry8b.o(.ARM.Collect$$$$0000000A)
    _main_init                               0x08000191   Thumb Code     0  entry9a.o(.ARM.Collect$$$$0000000B)
    __rt_lib_shutdown_fini                   0x08000199   Thumb Code     0  entry12b.o(.ARM.Collect$$$$0000000E)
    __rt_final_cpp                           0x0800019d   Thumb Code     0  entry10a.o(.ARM.Collect$$$$0000000F)
    __rt_final_exit                          0x0800019d   Thumb Code     0  entry11a.o(.ARM.Collect$$$$00000011)
    Reset_Handler                            0x080001a1   Thumb Code     8  startup_stm32f405xx.o(.text)
    ADC_IRQHandler                           0x080001bb   Thumb Code     0  startup_stm32f405xx.o(.text)
    CAN1_RX0_IRQHandler                      0x080001bb   Thumb Code     0  startup_stm32f405xx.o(.text)
    CAN1_RX1_IRQHandler                      0x080001bb   Thumb Code     0  startup_stm32f405xx.o(.text)
    CAN1_SCE_IRQHandler                      0x080001bb   Thumb Code     0  startup_stm32f405xx.o(.text)
    CAN1_TX_IRQHandler                       0x080001bb   Thumb Code     0  startup_stm32f405xx.o(.text)
    CAN2_RX0_IRQHandler                      0x080001bb   Thumb Code     0  startup_stm32f405xx.o(.text)
    CAN2_RX1_IRQHandler                      0x080001bb   Thumb Code     0  startup_stm32f405xx.o(.text)
    CAN2_SCE_IRQHandler                      0x080001bb   Thumb Code     0  startup_stm32f405xx.o(.text)
    CAN2_TX_IRQHandler                       0x080001bb   Thumb Code     0  startup_stm32f405xx.o(.text)
    DMA1_Stream0_IRQHandler                  0x080001bb   Thumb Code     0  startup_stm32f405xx.o(.text)
    DMA1_Stream1_IRQHandler                  0x080001bb   Thumb Code     0  startup_stm32f405xx.o(.text)
    DMA1_Stream2_IRQHandler                  0x080001bb   Thumb Code     0  startup_stm32f405xx.o(.text)
    DMA1_Stream3_IRQHandler                  0x080001bb   Thumb Code     0  startup_stm32f405xx.o(.text)
    DMA1_Stream4_IRQHandler                  0x080001bb   Thumb Code     0  startup_stm32f405xx.o(.text)
    DMA1_Stream5_IRQHandler                  0x080001bb   Thumb Code     0  startup_stm32f405xx.o(.text)
    DMA1_Stream6_IRQHandler                  0x080001bb   Thumb Code     0  startup_stm32f405xx.o(.text)
    DMA1_Stream7_IRQHandler                  0x080001bb   Thumb Code     0  startup_stm32f405xx.o(.text)
    DMA2_Stream1_IRQHandler                  0x080001bb   Thumb Code     0  startup_stm32f405xx.o(.text)
    DMA2_Stream2_IRQHandler                  0x080001bb   Thumb Code     0  startup_stm32f405xx.o(.text)
    DMA2_Stream3_IRQHandler                  0x080001bb   Thumb Code     0  startup_stm32f405xx.o(.text)
    DMA2_Stream4_IRQHandler                  0x080001bb   Thumb Code     0  startup_stm32f405xx.o(.text)
    DMA2_Stream5_IRQHandler                  0x080001bb   Thumb Code     0  startup_stm32f405xx.o(.text)
    DMA2_Stream6_IRQHandler                  0x080001bb   Thumb Code     0  startup_stm32f405xx.o(.text)
    DMA2_Stream7_IRQHandler                  0x080001bb   Thumb Code     0  startup_stm32f405xx.o(.text)
    EXTI0_IRQHandler                         0x080001bb   Thumb Code     0  startup_stm32f405xx.o(.text)
    EXTI1_IRQHandler                         0x080001bb   Thumb Code     0  startup_stm32f405xx.o(.text)
    EXTI2_IRQHandler                         0x080001bb   Thumb Code     0  startup_stm32f405xx.o(.text)
    EXTI3_IRQHandler                         0x080001bb   Thumb Code     0  startup_stm32f405xx.o(.text)
    EXTI4_IRQHandler                         0x080001bb   Thumb Code     0  startup_stm32f405xx.o(.text)
    EXTI9_5_IRQHandler                       0x080001bb   Thumb Code     0  startup_stm32f405xx.o(.text)
    FLASH_IRQHandler                         0x080001bb   Thumb Code     0  startup_stm32f405xx.o(.text)
    FMC_IRQHandler                           0x080001bb   Thumb Code     0  startup_stm32f405xx.o(.text)
    FPU_IRQHandler                           0x080001bb   Thumb Code     0  startup_stm32f405xx.o(.text)
    HASH_RNG_IRQHandler                      0x080001bb   Thumb Code     0  startup_stm32f405xx.o(.text)
    I2C1_ER_IRQHandler                       0x080001bb   Thumb Code     0  startup_stm32f405xx.o(.text)
    I2C1_EV_IRQHandler                       0x080001bb   Thumb Code     0  startup_stm32f405xx.o(.text)
    I2C2_ER_IRQHandler                       0x080001bb   Thumb Code     0  startup_stm32f405xx.o(.text)
    I2C2_EV_IRQHandler                       0x080001bb   Thumb Code     0  startup_stm32f405xx.o(.text)
    I2C3_ER_IRQHandler                       0x080001bb   Thumb Code     0  startup_stm32f405xx.o(.text)
    I2C3_EV_IRQHandler                       0x080001bb   Thumb Code     0  startup_stm32f405xx.o(.text)
    OTG_FS_IRQHandler                        0x080001bb   Thumb Code     0  startup_stm32f405xx.o(.text)
    OTG_FS_WKUP_IRQHandler                   0x080001bb   Thumb Code     0  startup_stm32f405xx.o(.text)
    OTG_HS_EP1_IN_IRQHandler                 0x080001bb   Thumb Code     0  startup_stm32f405xx.o(.text)
    OTG_HS_EP1_OUT_IRQHandler                0x080001bb   Thumb Code     0  startup_stm32f405xx.o(.text)
    OTG_HS_IRQHandler                        0x080001bb   Thumb Code     0  startup_stm32f405xx.o(.text)
    OTG_HS_WKUP_IRQHandler                   0x080001bb   Thumb Code     0  startup_stm32f405xx.o(.text)
    PVD_IRQHandler                           0x080001bb   Thumb Code     0  startup_stm32f405xx.o(.text)
    RCC_IRQHandler                           0x080001bb   Thumb Code     0  startup_stm32f405xx.o(.text)
    RTC_Alarm_IRQHandler                     0x080001bb   Thumb Code     0  startup_stm32f405xx.o(.text)
    RTC_WKUP_IRQHandler                      0x080001bb   Thumb Code     0  startup_stm32f405xx.o(.text)
    SDIO_IRQHandler                          0x080001bb   Thumb Code     0  startup_stm32f405xx.o(.text)
    SPI1_IRQHandler                          0x080001bb   Thumb Code     0  startup_stm32f405xx.o(.text)
    SPI2_IRQHandler                          0x080001bb   Thumb Code     0  startup_stm32f405xx.o(.text)
    SPI3_IRQHandler                          0x080001bb   Thumb Code     0  startup_stm32f405xx.o(.text)
    TAMP_STAMP_IRQHandler                    0x080001bb   Thumb Code     0  startup_stm32f405xx.o(.text)
    TIM1_BRK_TIM9_IRQHandler                 0x080001bb   Thumb Code     0  startup_stm32f405xx.o(.text)
    TIM1_TRG_COM_TIM11_IRQHandler            0x080001bb   Thumb Code     0  startup_stm32f405xx.o(.text)
    TIM1_UP_TIM10_IRQHandler                 0x080001bb   Thumb Code     0  startup_stm32f405xx.o(.text)
    TIM2_IRQHandler                          0x080001bb   Thumb Code     0  startup_stm32f405xx.o(.text)
    TIM3_IRQHandler                          0x080001bb   Thumb Code     0  startup_stm32f405xx.o(.text)
    TIM4_IRQHandler                          0x080001bb   Thumb Code     0  startup_stm32f405xx.o(.text)
    TIM5_IRQHandler                          0x080001bb   Thumb Code     0  startup_stm32f405xx.o(.text)
    TIM6_DAC_IRQHandler                      0x080001bb   Thumb Code     0  startup_stm32f405xx.o(.text)
    TIM7_IRQHandler                          0x080001bb   Thumb Code     0  startup_stm32f405xx.o(.text)
    TIM8_BRK_TIM12_IRQHandler                0x080001bb   Thumb Code     0  startup_stm32f405xx.o(.text)
    TIM8_CC_IRQHandler                       0x080001bb   Thumb Code     0  startup_stm32f405xx.o(.text)
    TIM8_TRG_COM_TIM14_IRQHandler            0x080001bb   Thumb Code     0  startup_stm32f405xx.o(.text)
    TIM8_UP_TIM13_IRQHandler                 0x080001bb   Thumb Code     0  startup_stm32f405xx.o(.text)
    UART4_IRQHandler                         0x080001bb   Thumb Code     0  startup_stm32f405xx.o(.text)
    UART5_IRQHandler                         0x080001bb   Thumb Code     0  startup_stm32f405xx.o(.text)
    USART1_IRQHandler                        0x080001bb   Thumb Code     0  startup_stm32f405xx.o(.text)
    USART2_IRQHandler                        0x080001bb   Thumb Code     0  startup_stm32f405xx.o(.text)
    USART3_IRQHandler                        0x080001bb   Thumb Code     0  startup_stm32f405xx.o(.text)
    USART6_IRQHandler                        0x080001bb   Thumb Code     0  startup_stm32f405xx.o(.text)
    WWDG_IRQHandler                          0x080001bb   Thumb Code     0  startup_stm32f405xx.o(.text)
    arm_cos_f32                              0x080001c5   Thumb Code   108  arm_cos_f32.o(.text)
    arm_sin_f32                              0x0800023d   Thumb Code   130  arm_sin_f32.o(.text)
    __aeabi_uldivmod                         0x080002d1   Thumb Code    98  uldiv.o(.text)
    ___aeabi_memcpy8$move                    0x08000333   Thumb Code     0  memmovea.o(.text)
    __aeabi_memcpy                           0x08000333   Thumb Code    64  memmovea.o(.text)
    __aeabi_memcpy4                          0x08000333   Thumb Code     0  memmovea.o(.text)
    __aeabi_memmove                          0x08000333   Thumb Code     0  memmovea.o(.text)
    __aeabi_memmove4                         0x08000333   Thumb Code     0  memmovea.o(.text)
    __aeabi_memmove8                         0x08000333   Thumb Code     0  memmovea.o(.text)
    __aeabi_memset                           0x08000373   Thumb Code    14  memseta.o(.text)
    __aeabi_memset4                          0x08000373   Thumb Code     0  memseta.o(.text)
    __aeabi_memset8                          0x08000373   Thumb Code     0  memseta.o(.text)
    __aeabi_memclr                           0x08000381   Thumb Code     4  memseta.o(.text)
    __aeabi_memclr4                          0x08000381   Thumb Code     0  memseta.o(.text)
    __aeabi_memclr8                          0x08000381   Thumb Code     0  memseta.o(.text)
    _memset$wrapper                          0x08000385   Thumb Code    18  memseta.o(.text)
    __aeabi_dmul                             0x08000397   Thumb Code   228  dmul.o(.text)
    __aeabi_ddiv                             0x0800047b   Thumb Code   222  ddiv.o(.text)
    __aeabi_ui2d                             0x08000559   Thumb Code    26  dfltui.o(.text)
    __aeabi_f2d                              0x08000573   Thumb Code    38  f2d.o(.text)
    __aeabi_cdcmpeq                          0x08000599   Thumb Code     0  cdcmple.o(.text)
    __aeabi_cdcmple                          0x08000599   Thumb Code    48  cdcmple.o(.text)
    __aeabi_cdrcmple                         0x080005c9   Thumb Code    48  cdrcmple.o(.text)
    __aeabi_d2f                              0x080005f9   Thumb Code    56  d2f.o(.text)
    __aeabi_uidiv                            0x08000631   Thumb Code     0  uidiv.o(.text)
    __aeabi_uidivmod                         0x08000631   Thumb Code    44  uidiv.o(.text)
    __aeabi_llsl                             0x0800065d   Thumb Code    30  llshl.o(.text)
    _ll_shift_l                              0x0800065d   Thumb Code     0  llshl.o(.text)
    __aeabi_llsr                             0x0800067b   Thumb Code    32  llushr.o(.text)
    _ll_ushift_r                             0x0800067b   Thumb Code     0  llushr.o(.text)
    __I$use$fp                               0x0800069b   Thumb Code     0  iusefp.o(.text)
    _float_round                             0x0800069b   Thumb Code    18  fepilogue.o(.text)
    _float_epilogue                          0x080006ad   Thumb Code    92  fepilogue.o(.text)
    _double_round                            0x08000709   Thumb Code    30  depilogue.o(.text)
    _double_epilogue                         0x08000727   Thumb Code   156  depilogue.o(.text)
    __aeabi_dadd                             0x080007c3   Thumb Code   322  dadd.o(.text)
    __aeabi_dsub                             0x08000905   Thumb Code     6  dadd.o(.text)
    __aeabi_drsub                            0x0800090b   Thumb Code     6  dadd.o(.text)
    __aeabi_d2ulz                            0x08000911   Thumb Code    48  dfixul.o(.text)
    __scatterload                            0x08000941   Thumb Code    28  init.o(.text)
    __scatterload_rt2                        0x08000941   Thumb Code     0  init.o(.text)
    __aeabi_lasr                             0x08000965   Thumb Code    36  llsshr.o(.text)
    _ll_sshift_r                             0x08000965   Thumb Code     0  llsshr.o(.text)
    __decompress                             0x08000989   Thumb Code     0  __dczerorl2.o(.text)
    __decompress1                            0x08000989   Thumb Code    86  __dczerorl2.o(.text)
    ADCDMAIRQHandler                         0x080009e1   Thumb Code    34  adc1.o(i.ADCDMAIRQHandler)
    ADCDMAStart                              0x08000a09   Thumb Code    14  adc1.o(i.ADCDMAStart)
    APPMain_Init                             0x08000c29   Thumb Code    16  appmain.o(i.APPMain_Init)
    APPMain_Loop                             0x08000c39   Thumb Code    16  appmain.o(i.APPMain_Loop)
    BusFault_Handler                         0x08000c49   Thumb Code     4  stm32f4xx_it.o(i.BusFault_Handler)
    DMA2_Stream0_IRQHandler                  0x08001005   Thumb Code    18  stm32f4xx_it.o(i.DMA2_Stream0_IRQHandler)
    DebugMon_Handler                         0x08001127   Thumb Code     2  stm32f4xx_it.o(i.DebugMon_Handler)
    EXTI15_10_IRQHandler                     0x08001129   Thumb Code    12  stm32f4xx_it.o(i.EXTI15_10_IRQHandler)
    Error_Handler                            0x08001135   Thumb Code     6  main.o(i.Error_Handler)
    FOCConfig_Init                           0x0800113d   Thumb Code    50  focconfig.o(i.FOCConfig_Init)
    FocContorl                               0x08001181   Thumb Code    70  foc.o(i.FocContorl)
    FunctionMain_Init                        0x080011c7   Thumb Code     2  functionmain.o(i.FunctionMain_Init)
    FunctionMain_Loop                        0x080011c9   Thumb Code     2  functionmain.o(i.FunctionMain_Loop)
    GPIONVIC_Init                            0x080011cd   Thumb Code    10  gpionvic.o(i.GPIONVIC_Init)
    GetADC1ChannelXValue                     0x080011dd   Thumb Code    66  adc1.o(i.GetADC1ChannelXValue)
    GetMotorFaultLeave                       0x08001261   Thumb Code    22  motorgpio.o(i.GetMotorFaultLeave)
    GetMotorPosition                         0x0800127d   Thumb Code    16  positionpidconfig.o(i.GetMotorPosition)
    GetMotorPreSpeed                         0x08001369   Thumb Code   108  speedpidconfig.o(i.GetMotorPreSpeed)
    GetMotorSVPWMSector                      0x080013e9   Thumb Code    10  svpwmconfig.o(i.GetMotorSVPWMSector)
    GetSVPWMSector                           0x080013f9   Thumb Code     8  svpwm.o(i.GetSVPWMSector)
    GetTimer4EncoderAngle                    0x08001401   Thumb Code    74  tim4encoder.o(i.GetTimer4EncoderAngle)
    GetTimer4EncoderCnt                      0x08001459   Thumb Code    78  tim4encoder.o(i.GetTimer4EncoderCnt)
    GetVectorDuration                        0x080014b1   Thumb Code   646  svpwm.o(i.GetVectorDuration)
    HAL_ADC_ConfigChannel                    0x08001741   Thumb Code   380  stm32f4xx_hal_adc.o(i.HAL_ADC_ConfigChannel)
    HAL_ADC_ConvCpltCallback                 0x080018cd   Thumb Code     2  stm32f4xx_hal_adc.o(i.HAL_ADC_ConvCpltCallback)
    HAL_ADC_ConvHalfCpltCallback             0x080018cf   Thumb Code     2  stm32f4xx_hal_adc.o(i.HAL_ADC_ConvHalfCpltCallback)
    HAL_ADC_ErrorCallback                    0x080018d1   Thumb Code     2  stm32f4xx_hal_adc.o(i.HAL_ADC_ErrorCallback)
    HAL_ADC_Init                             0x080018d5   Thumb Code   100  stm32f4xx_hal_adc.o(i.HAL_ADC_Init)
    HAL_ADC_MspInit                          0x0800193d   Thumb Code   274  adc.o(i.HAL_ADC_MspInit)
    HAL_ADC_Start_DMA                        0x08001a6d   Thumb Code   398  stm32f4xx_hal_adc.o(i.HAL_ADC_Start_DMA)
    HAL_CAN_Init                             0x08001c21   Thumb Code   372  stm32f4xx_hal_can.o(i.HAL_CAN_Init)
    HAL_CAN_MspInit                          0x08001d95   Thumb Code   124  can.o(i.HAL_CAN_MspInit)
    HAL_CRC_Init                             0x08001e1d   Thumb Code    32  stm32f4xx_hal_crc.o(i.HAL_CRC_Init)
    HAL_CRC_MspInit                          0x08001e3d   Thumb Code    44  crc.o(i.HAL_CRC_MspInit)
    HAL_DMA_IRQHandler                       0x08001e71   Thumb Code   570  stm32f4xx_hal_dma.o(i.HAL_DMA_IRQHandler)
    HAL_DMA_Init                             0x080020b1   Thumb Code   232  stm32f4xx_hal_dma.o(i.HAL_DMA_Init)
    HAL_DMA_Start_IT                         0x0800219d   Thumb Code   146  stm32f4xx_hal_dma.o(i.HAL_DMA_Start_IT)
    HAL_Delay                                0x08002231   Thumb Code    36  stm32f4xx_hal.o(i.HAL_Delay)
    HAL_GPIO_EXTI_Callback                   0x08002259   Thumb Code    40  gpionvic.o(i.HAL_GPIO_EXTI_Callback)
    HAL_GPIO_EXTI_IRQHandler                 0x08002285   Thumb Code    24  stm32f4xx_hal_gpio.o(i.HAL_GPIO_EXTI_IRQHandler)
    HAL_GPIO_Init                            0x080022a1   Thumb Code   470  stm32f4xx_hal_gpio.o(i.HAL_GPIO_Init)
    HAL_GPIO_ReadPin                         0x080024a5   Thumb Code    16  stm32f4xx_hal_gpio.o(i.HAL_GPIO_ReadPin)
    HAL_GPIO_WritePin                        0x080024b5   Thumb Code    12  stm32f4xx_hal_gpio.o(i.HAL_GPIO_WritePin)
    HAL_GetTick                              0x080024c1   Thumb Code     6  stm32f4xx_hal.o(i.HAL_GetTick)
    HAL_I2C_Init                             0x080024cd   Thumb Code   446  stm32f4xx_hal_i2c.o(i.HAL_I2C_Init)
    HAL_I2C_MspInit                          0x0800269d   Thumb Code   190  i2c.o(i.HAL_I2C_MspInit)
    HAL_IncTick                              0x08002771   Thumb Code    16  stm32f4xx_hal.o(i.HAL_IncTick)
    HAL_Init                                 0x08002789   Thumb Code    54  stm32f4xx_hal.o(i.HAL_Init)
    HAL_InitTick                             0x080027c5   Thumb Code    64  stm32f4xx_hal.o(i.HAL_InitTick)
    HAL_MspInit                              0x08002811   Thumb Code    68  stm32f4xx_hal_msp.o(i.HAL_MspInit)
    HAL_NVIC_EnableIRQ                       0x08002859   Thumb Code    32  stm32f4xx_hal_cortex.o(i.HAL_NVIC_EnableIRQ)
    HAL_NVIC_SetPriority                     0x08002879   Thumb Code   124  stm32f4xx_hal_cortex.o(i.HAL_NVIC_SetPriority)
    HAL_NVIC_SetPriorityGrouping             0x080028f5   Thumb Code    32  stm32f4xx_hal_cortex.o(i.HAL_NVIC_SetPriorityGrouping)
    HAL_RCC_ClockConfig                      0x0800291d   Thumb Code   368  stm32f4xx_hal_rcc.o(i.HAL_RCC_ClockConfig)
    HAL_RCC_GetHCLKFreq                      0x08002aa1   Thumb Code     6  stm32f4xx_hal_rcc.o(i.HAL_RCC_GetHCLKFreq)
    HAL_RCC_GetPCLK1Freq                     0x08002aad   Thumb Code    22  stm32f4xx_hal_rcc.o(i.HAL_RCC_GetPCLK1Freq)
    HAL_RCC_GetSysClockFreq                  0x08002acd   Thumb Code   162  stm32f4xx_hal_rcc.o(i.HAL_RCC_GetSysClockFreq)
    HAL_RCC_OscConfig                        0x08002b7d   Thumb Code  1172  stm32f4xx_hal_rcc.o(i.HAL_RCC_OscConfig)
    HAL_SPI_Init                             0x08003019   Thumb Code   200  stm32f4xx_hal_spi.o(i.HAL_SPI_Init)
    HAL_SPI_MspInit                          0x080030e1   Thumb Code   234  spi.o(i.HAL_SPI_MspInit)
    HAL_SYSTICK_Config                       0x080031e1   Thumb Code    52  stm32f4xx_hal_cortex.o(i.HAL_SYSTICK_Config)
    HAL_TIMEx_BreakCallback                  0x08003215   Thumb Code     2  stm32f4xx_hal_tim_ex.o(i.HAL_TIMEx_BreakCallback)
    HAL_TIMEx_CommutCallback                 0x08003217   Thumb Code     2  stm32f4xx_hal_tim_ex.o(i.HAL_TIMEx_CommutCallback)
    HAL_TIMEx_ConfigBreakDeadTime            0x08003219   Thumb Code   116  stm32f4xx_hal_tim_ex.o(i.HAL_TIMEx_ConfigBreakDeadTime)
    HAL_TIMEx_MasterConfigSynchronization    0x0800328d   Thumb Code   150  stm32f4xx_hal_tim_ex.o(i.HAL_TIMEx_MasterConfigSynchronization)
    HAL_TIMEx_PWMN_Start                     0x08003341   Thumb Code   214  stm32f4xx_hal_tim_ex.o(i.HAL_TIMEx_PWMN_Start)
    HAL_TIM_Base_Init                        0x08003435   Thumb Code   102  stm32f4xx_hal_tim.o(i.HAL_TIM_Base_Init)
    HAL_TIM_Base_MspInit                     0x0800349d   Thumb Code    62  tim.o(i.HAL_TIM_Base_MspInit)
    HAL_TIM_Base_Start_IT                    0x080034e5   Thumb Code   138  stm32f4xx_hal_tim.o(i.HAL_TIM_Base_Start_IT)
    HAL_TIM_Base_Stop_IT                     0x0800358d   Thumb Code    62  stm32f4xx_hal_tim.o(i.HAL_TIM_Base_Stop_IT)
    HAL_TIM_ConfigClockSource                0x080035cb   Thumb Code   264  stm32f4xx_hal_tim.o(i.HAL_TIM_ConfigClockSource)
    HAL_TIM_Encoder_Init                     0x080036d3   Thumb Code   200  stm32f4xx_hal_tim.o(i.HAL_TIM_Encoder_Init)
    HAL_TIM_Encoder_MspInit                  0x0800379d   Thumb Code   120  tim.o(i.HAL_TIM_Encoder_MspInit)
    HAL_TIM_Encoder_Start                    0x08003821   Thumb Code   204  stm32f4xx_hal_tim.o(i.HAL_TIM_Encoder_Start)
    HAL_TIM_IC_CaptureCallback               0x080038ed   Thumb Code     2  stm32f4xx_hal_tim.o(i.HAL_TIM_IC_CaptureCallback)
    HAL_TIM_IRQHandler                       0x080038ef   Thumb Code   406  stm32f4xx_hal_tim.o(i.HAL_TIM_IRQHandler)
    HAL_TIM_MspPostInit                      0x08003a85   Thumb Code   142  tim.o(i.HAL_TIM_MspPostInit)
    HAL_TIM_OC_DelayElapsedCallback          0x08003b25   Thumb Code     2  stm32f4xx_hal_tim.o(i.HAL_TIM_OC_DelayElapsedCallback)
    HAL_TIM_PWM_ConfigChannel                0x08003b27   Thumb Code   252  stm32f4xx_hal_tim.o(i.HAL_TIM_PWM_ConfigChannel)
    HAL_TIM_PWM_Init                         0x08003c23   Thumb Code   102  stm32f4xx_hal_tim.o(i.HAL_TIM_PWM_Init)
    HAL_TIM_PWM_MspInit                      0x08003c89   Thumb Code     2  stm32f4xx_hal_tim.o(i.HAL_TIM_PWM_MspInit)
    HAL_TIM_PWM_PulseFinishedCallback        0x08003c8b   Thumb Code     2  stm32f4xx_hal_tim.o(i.HAL_TIM_PWM_PulseFinishedCallback)
    HAL_TIM_PWM_Start                        0x08003c8d   Thumb Code   238  stm32f4xx_hal_tim.o(i.HAL_TIM_PWM_Start)
    HAL_TIM_PWM_Start_IT                     0x08003d99   Thumb Code   314  stm32f4xx_hal_tim.o(i.HAL_TIM_PWM_Start_IT)
    HAL_TIM_PWM_Stop_IT                      0x08003ef1   Thumb Code   236  stm32f4xx_hal_tim.o(i.HAL_TIM_PWM_Stop_IT)
    HAL_TIM_PeriodElapsedCallback            0x08003fe5   Thumb Code     2  stm32f4xx_hal_tim.o(i.HAL_TIM_PeriodElapsedCallback)
    HAL_TIM_TriggerCallback                  0x08003fe7   Thumb Code     2  stm32f4xx_hal_tim.o(i.HAL_TIM_TriggerCallback)
    HardFault_Handler                        0x08003fe9   Thumb Code     4  stm32f4xx_it.o(i.HardFault_Handler)
    KEYRunCycle                              0x08003fed   Thumb Code   110  keyscan.o(i.KEYRunCycle)
    KeyConfig_Init                           0x0800406d   Thumb Code     2  keyconfig.o(i.KeyConfig_Init)
    KeyConfig_Loop                           0x08004071   Thumb Code    16  keyconfig.o(i.KeyConfig_Loop)
    KeyScan                                  0x08004089   Thumb Code   146  keyscan.o(i.KeyScan)
    LEDConfigSetSysLedStatus                 0x08004131   Thumb Code    30  ledconfig.o(i.LEDConfigSetSysLedStatus)
    LEDConfig_Init                           0x08004155   Thumb Code    14  ledconfig.o(i.LEDConfig_Init)
    LEDConfig_Loop                           0x08004165   Thumb Code    10  ledconfig.o(i.LEDConfig_Loop)
    LEDRunCycle                              0x08004175   Thumb Code    70  ledcontrol.o(i.LEDRunCycle)
    LEDToggle                                0x080041c5   Thumb Code    24  ledcontrol.o(i.LEDToggle)
    MCUDriverMain_Init                       0x080041dd   Thumb Code    16  mcudrivermain.o(i.MCUDriverMain_Init)
    MCUDriverMain_Loop                       0x080041ed   Thumb Code    32  mcudrivermain.o(i.MCUDriverMain_Loop)
    MX_ADC1_Init                             0x08004215   Thumb Code   148  adc.o(i.MX_ADC1_Init)
    MX_ADC2_Init                             0x080042b5   Thumb Code   100  adc.o(i.MX_ADC2_Init)
    MX_CAN1_Init                             0x08004325   Thumb Code    48  can.o(i.MX_CAN1_Init)
    MX_CRC_Init                              0x0800435d   Thumb Code    22  crc.o(i.MX_CRC_Init)
    MX_DMA_Init                              0x0800437d   Thumb Code    82  dma.o(i.MX_DMA_Init)
    MX_GPIO_Init                             0x080043d5   Thumb Code   482  gpio.o(i.MX_GPIO_Init)
    MX_I2C1_Init                             0x080045d1   Thumb Code    48  i2c.o(i.MX_I2C1_Init)
    MX_SPI1_Init                             0x0800460d   Thumb Code    58  spi.o(i.MX_SPI1_Init)
    MX_SPI3_Init                             0x08004651   Thumb Code    58  spi.o(i.MX_SPI3_Init)
    MX_TIM1_Init                             0x08004695   Thumb Code   268  tim.o(i.MX_TIM1_Init)
    MX_TIM4_Init                             0x080047a9   Thumb Code   114  tim.o(i.MX_TIM4_Init)
    MemManage_Handler                        0x08004825   Thumb Code     4  stm32f4xx_it.o(i.MemManage_Handler)
    MotorFocControl                          0x080048a1   Thumb Code    10  focconfig.o(i.MotorFocControl)
    MotorSvpwmGenerate                       0x080048b1   Thumb Code    34  svpwmconfig.o(i.MotorSvpwmGenerate)
    NMI_Handler                              0x080048d9   Thumb Code     4  stm32f4xx_it.o(i.NMI_Handler)
    PendSV_Handler                           0x080049ad   Thumb Code     2  stm32f4xx_it.o(i.PendSV_Handler)
    PerDriverMain_Init                       0x080049af   Thumb Code    24  perdrivermain.o(i.PerDriverMain_Init)
    PerDriverMain_Loop                       0x080049c9   Thumb Code   106  perdrivermain.o(i.PerDriverMain_Loop)
    PositionPIDConfig_Init                   0x08004a4d   Thumb Code    42  positionpidconfig.o(i.PositionPIDConfig_Init)
    PositionPIDConfig_Loop                   0x08004a89   Thumb Code    10  positionpidconfig.o(i.PositionPIDConfig_Loop)
    PositionPIDConfig_Printf                 0x08004a99   Thumb Code    10  positionpidconfig.o(i.PositionPIDConfig_Printf)
    PositionPIDCycle                         0x08004bc1   Thumb Code    64  positionpid.o(i.PositionPIDCycle)
    PositionPIDPrintf                        0x08004c09   Thumb Code    70  positionpid.o(i.PositionPIDPrintf)
    ReadKeyDownLeave                         0x08004c61   Thumb Code    12  keygpio.o(i.ReadKeyDownLeave)
    ReadKeyUPLeave                           0x08004c71   Thumb Code    12  keygpio.o(i.ReadKeyUPLeave)
    SEGGER_RTT_Write                         0x08004c81   Thumb Code   364  segger_rtt.o(i.SEGGER_RTT_Write)
    SVC_Handler                              0x08004df1   Thumb Code     2  stm32f4xx_it.o(i.SVC_Handler)
    SetCurrentPIDParams                      0x08004df3   Thumb Code    34  foc.o(i.SetCurrentPIDParams)
    SetCurrentPIDTar                         0x08004e15   Thumb Code    10  foc.o(i.SetCurrentPIDTar)
    SetFaultLedLeave                         0x08004e21   Thumb Code    18  ledgpio.o(i.SetFaultLedLeave)
    SetFocEnable                             0x08004e39   Thumb Code    18  foc.o(i.SetFocEnable)
    SetLEDFlashing                           0x08004e4b   Thumb Code    10  ledcontrol.o(i.SetLEDFlashing)
    SetLEDOFF                                0x08004e55   Thumb Code    26  ledcontrol.o(i.SetLEDOFF)
    SetLEDON                                 0x08004e6f   Thumb Code    16  ledcontrol.o(i.SetLEDON)
    SetLedStatus                             0x08004e7f   Thumb Code    62  ledcontrol.o(i.SetLedStatus)
    SetMotorCurrent                          0x08004ed1   Thumb Code    28  speedpidconfig.o(i.SetMotorCurrent)
    SetMotorEnable                           0x08004ef1   Thumb Code    16  motorgpio.o(i.SetMotorEnable)
    SetMotorPosition                         0x08004f05   Thumb Code    24  positionpidconfig.o(i.SetMotorPosition)
    SetPositionPIDConfigTarPosition          0x08004f1d   Thumb Code    26  positionpidconfig.o(i.SetPositionPIDConfigTarPosition)
    SetPositionPIDEnable                     0x08004f3d   Thumb Code    12  positionpid.o(i.SetPositionPIDEnable)
    SetPositionPIDParams                     0x08004f49   Thumb Code    14  positionpid.o(i.SetPositionPIDParams)
    SetPositionPIDTar                        0x08004f57   Thumb Code     6  positionpid.o(i.SetPositionPIDTar)
    SetSYSLedLeave                           0x08004f5d   Thumb Code    18  ledgpio.o(i.SetSYSLedLeave)
    SetSpeedPIDConfigTarSpeed                0x08004f75   Thumb Code    26  speedpidconfig.o(i.SetSpeedPIDConfigTarSpeed)
    SetSpeedPIDEnable                        0x08004f95   Thumb Code    12  speedpid.o(i.SetSpeedPIDEnable)
    SetSpeedPIDParams                        0x08004fa1   Thumb Code    14  speedpid.o(i.SetSpeedPIDParams)
    SetSpeedPIDTar                           0x08004faf   Thumb Code     6  speedpid.o(i.SetSpeedPIDTar)
    SetTIM1Channel1HighLeaveTime_us          0x08004fb5   Thumb Code    64  tim1pwm.o(i.SetTIM1Channel1HighLeaveTime_us)
    SetTIM1Channel2HighLeaveTime_us          0x08005005   Thumb Code    64  tim1pwm.o(i.SetTIM1Channel2HighLeaveTime_us)
    SetTIM1Channel3HighLeaveTime_us          0x08005055   Thumb Code    64  tim1pwm.o(i.SetTIM1Channel3HighLeaveTime_us)
    SetTIM1Channel4HighLeaveTime_us          0x080050a5   Thumb Code    64  tim1pwm.o(i.SetTIM1Channel4HighLeaveTime_us)
    SetTarIDIQ                               0x080050f5   Thumb Code    34  focconfig.o(i.SetTarIDIQ)
    SetTimer4EncoderCnt                      0x0800511d   Thumb Code     6  tim4encoder.o(i.SetTimer4EncoderCnt)
    SpeedPIDConfig_Init                      0x08005129   Thumb Code    42  speedpidconfig.o(i.SpeedPIDConfig_Init)
    SpeedPIDConfig_Loop                      0x08005165   Thumb Code    10  speedpidconfig.o(i.SpeedPIDConfig_Loop)
    SpeedPIDCycle                            0x08005221   Thumb Code    64  speedpid.o(i.SpeedPIDCycle)
    SvpwmContorol                            0x08005269   Thumb Code    48  svpwm.o(i.SvpwmContorol)
    SvpwmGenerate                            0x08005299   Thumb Code   406  svpwm.o(i.SvpwmGenerate)
    SvpwmSectorJudgment                      0x08005431   Thumb Code   210  svpwm.o(i.SvpwmSectorJudgment)
    SysTick_Handler                          0x08005509   Thumb Code    78  stm32f4xx_it.o(i.SysTick_Handler)
    SystemClock_Config                       0x08005575   Thumb Code   170  main.o(i.SystemClock_Config)
    SystemInit                               0x08005629   Thumb Code    14  system_stm32f4xx.o(i.SystemInit)
    TIM1_CC_IRQHandler                       0x0800563d   Thumb Code    14  stm32f4xx_it.o(i.TIM1_CC_IRQHandler)
    TIM1_Init                                0x08005651   Thumb Code    90  tim1pwm.o(i.TIM1_Init)
    TIM_Base_SetConfig                       0x080056b5   Thumb Code   170  stm32f4xx_hal_tim.o(i.TIM_Base_SetConfig)
    TIM_CCxChannelCmd                        0x0800578d   Thumb Code    34  stm32f4xx_hal_tim.o(i.TIM_CCxChannelCmd)
    TIM_ETR_SetConfig                        0x080057d1   Thumb Code    22  stm32f4xx_hal_tim.o(i.TIM_ETR_SetConfig)
    TIM_OC2_SetConfig                        0x08005869   Thumb Code   114  stm32f4xx_hal_tim.o(i.TIM_OC2_SetConfig)
    Timer1Channel4ITEnable                   0x08005a01   Thumb Code    40  tim1pwm.o(i.Timer1Channel4ITEnable)
    TimerEncoderInit                         0x08005a2d   Thumb Code    38  tim4encoder.o(i.TimerEncoderInit)
    TimerEncoderReset                        0x08005a61   Thumb Code    28  tim4encoder.o(i.TimerEncoderReset)
    UsageFault_Handler                       0x08005a89   Thumb Code     4  stm32f4xx_it.o(i.UsageFault_Handler)
    __0printf                                0x08005a91   Thumb Code    22  printfa.o(i.__0printf)
    __1printf                                0x08005a91   Thumb Code     0  printfa.o(i.__0printf)
    __2printf                                0x08005a91   Thumb Code     0  printfa.o(i.__0printf)
    __c89printf                              0x08005a91   Thumb Code     0  printfa.o(i.__0printf)
    printf                                   0x08005a91   Thumb Code     0  printfa.o(i.__0printf)
    __hardfp_fabs                            0x08005ae9   Thumb Code    20  fabs.o(i.__hardfp_fabs)
    __scatterload_copy                       0x08005afd   Thumb Code    14  handlers.o(i.__scatterload_copy)
    __scatterload_null                       0x08005b0b   Thumb Code     2  handlers.o(i.__scatterload_null)
    __scatterload_zeroinit                   0x08005b0d   Thumb Code    14  handlers.o(i.__scatterload_zeroinit)
    fputc                                    0x080063a7   Thumb Code    26  segger_rtt.o(i.fputc)
    main                                     0x080063c1   Thumb Code    64  main.o(i.main)
    AHBPrescTable                            0x08006408   Data          16  system_stm32f4xx.o(.constdata)
    APBPrescTable                            0x08006418   Data           8  system_stm32f4xx.o(.constdata)
    sinTable_f32                             0x08006420   Data        2052  arm_common_tables.o(.constdata)
    Region$$Table$$Base                      0x08006c30   Number         0  anon$$obj.o(Region$$Table)
    Region$$Table$$Limit                     0x08006c50   Number         0  anon$$obj.o(Region$$Table)
    hcrc                                     0x20000000   Data           8  crc.o(.data)
    uwTick                                   0x20000008   Data           4  stm32f4xx_hal.o(.data)
    uwTickPrio                               0x2000000c   Data           4  stm32f4xx_hal.o(.data)
    uwTickFreq                               0x20000010   Data           1  stm32f4xx_hal.o(.data)
    SystemCoreClock                          0x20000014   Data           4  system_stm32f4xx.o(.data)
    gMS_TimeCNT                              0x20000094   Data           4  timer.o(.data)
    gSTTimerEncoder                          0x20000098   Data           8  tim4encoder.o(.data)
    gEncoderCal                              0x200000a0   Data           8  gpionvic.o(.data)
    debugFlag                                0x200000a8   Data           4  perdrivermain.o(.data)
    angle                                    0x200000ac   Data           4  perdrivermain.o(.data)
    gSysLed                                  0x200000b8   Data          20  ledconfig.o(.data)
    gMotor                                   0x200000cc   Data          88  svpwmconfig.o(.data)
    gMotorFOC                                0x20000124   Data         152  focconfig.o(.data)
    gSpeedPID                                0x200001bc   Data          60  speedpidconfig.o(.data)
    gPositionPID                             0x20000200   Data          60  positionpidconfig.o(.data)
    gKey_Up                                  0x2000023c   Data          32  keyconfig.o(.data)
    gKey_Down                                0x2000025c   Data          32  keyconfig.o(.data)
    gLED_TimeCNT                             0x2000027c   Data           4  ledcontrol.o(.data)
    gSpeedPID_TimeCNT                        0x20000280   Data           4  speedpid.o(.data)
    gPositionPID_TimeCNT                     0x20000284   Data           4  positionpid.o(.data)
    gOLED_TimeCNT                            0x20000288   Data           4  oled.o(.data)
    gKEY_TimeCNT                             0x2000028c   Data           4  keyscan.o(.data)
    gPageGUI_TimeCNT                         0x20000290   Data           4  pagegui.o(.data)
    __stdout                                 0x20000294   Data           4  stdout.o(.data)
    hadc1                                    0x20000298   Data          72  adc.o(.bss)
    hadc2                                    0x200002e0   Data          72  adc.o(.bss)
    hdma_adc1                                0x20000328   Data          96  adc.o(.bss)
    hcan1                                    0x20000388   Data          40  can.o(.bss)
    hi2c1                                    0x200003b0   Data          84  i2c.o(.bss)
    hdma_i2c1_tx                             0x20000404   Data          96  i2c.o(.bss)
    hspi1                                    0x20000464   Data          88  spi.o(.bss)
    hspi3                                    0x200004bc   Data          88  spi.o(.bss)
    htim1                                    0x20000514   Data          72  tim.o(.bss)
    htim4                                    0x2000055c   Data          72  tim.o(.bss)
    gADC1                                    0x200009b4   Data          36  adc1.o(.bss)
    __initial_sp                             0x200011d8   Data           0  startup_stm32f405xx.o(STACK)



==============================================================================

Memory Map of the image

  Image Entry point : 0x08000189

  Load Region LR_IROM1 (Base: 0x08000000, Size: 0x00006ee8, Max: 0x00100000, ABSOLUTE, COMPRESSED[0x00006ce8])

    Execution Region ER_IROM1 (Exec base: 0x08000000, Load base: 0x08000000, Size: 0x00006c50, Max: 0x00100000, ABSOLUTE)

    Exec Addr    Load Addr    Size         Type   Attr      Idx    E Section Name        Object

    0x08000000   0x08000000   0x00000188   Data   RO            3    RESET               startup_stm32f405xx.o
    0x08000188   0x08000188   0x00000000   Code   RO         9139  * .ARM.Collect$$$$00000000  mc_w.l(entry.o)
    0x08000188   0x08000188   0x00000004   Code   RO         9435    .ARM.Collect$$$$00000001  mc_w.l(entry2.o)
    0x0800018c   0x0800018c   0x00000004   Code   RO         9438    .ARM.Collect$$$$00000004  mc_w.l(entry5.o)
    0x08000190   0x08000190   0x00000000   Code   RO         9440    .ARM.Collect$$$$00000008  mc_w.l(entry7b.o)
    0x08000190   0x08000190   0x00000000   Code   RO         9442    .ARM.Collect$$$$0000000A  mc_w.l(entry8b.o)
    0x08000190   0x08000190   0x00000008   Code   RO         9443    .ARM.Collect$$$$0000000B  mc_w.l(entry9a.o)
    0x08000198   0x08000198   0x00000004   Code   RO         9450    .ARM.Collect$$$$0000000E  mc_w.l(entry12b.o)
    0x0800019c   0x0800019c   0x00000000   Code   RO         9445    .ARM.Collect$$$$0000000F  mc_w.l(entry10a.o)
    0x0800019c   0x0800019c   0x00000000   Code   RO         9447    .ARM.Collect$$$$00000011  mc_w.l(entry11a.o)
    0x0800019c   0x0800019c   0x00000004   Code   RO         9436    .ARM.Collect$$$$00002712  mc_w.l(entry2.o)
    0x080001a0   0x080001a0   0x00000024   Code   RO            4    .text               startup_stm32f405xx.o
    0x080001c4   0x080001c4   0x00000078   Code   RO         6419    .text               arm_cortexM4lf_math.lib(arm_cos_f32.o)
    0x0800023c   0x0800023c   0x00000094   Code   RO         6469    .text               arm_cortexM4lf_math.lib(arm_sin_f32.o)
    0x080002d0   0x080002d0   0x00000062   Code   RO         9142    .text               mc_w.l(uldiv.o)
    0x08000332   0x08000332   0x00000040   Code   RO         9146    .text               mc_w.l(memmovea.o)
    0x08000372   0x08000372   0x00000024   Code   RO         9148    .text               mc_w.l(memseta.o)
    0x08000396   0x08000396   0x000000e4   Code   RO         9419    .text               mf_w.l(dmul.o)
    0x0800047a   0x0800047a   0x000000de   Code   RO         9421    .text               mf_w.l(ddiv.o)
    0x08000558   0x08000558   0x0000001a   Code   RO         9425    .text               mf_w.l(dfltui.o)
    0x08000572   0x08000572   0x00000026   Code   RO         9427    .text               mf_w.l(f2d.o)
    0x08000598   0x08000598   0x00000030   Code   RO         9429    .text               mf_w.l(cdcmple.o)
    0x080005c8   0x080005c8   0x00000030   Code   RO         9431    .text               mf_w.l(cdrcmple.o)
    0x080005f8   0x080005f8   0x00000038   Code   RO         9433    .text               mf_w.l(d2f.o)
    0x08000630   0x08000630   0x0000002c   Code   RO         9452    .text               mc_w.l(uidiv.o)
    0x0800065c   0x0800065c   0x0000001e   Code   RO         9454    .text               mc_w.l(llshl.o)
    0x0800067a   0x0800067a   0x00000020   Code   RO         9456    .text               mc_w.l(llushr.o)
    0x0800069a   0x0800069a   0x00000000   Code   RO         9458    .text               mc_w.l(iusefp.o)
    0x0800069a   0x0800069a   0x0000006e   Code   RO         9459    .text               mf_w.l(fepilogue.o)
    0x08000708   0x08000708   0x000000ba   Code   RO         9461    .text               mf_w.l(depilogue.o)
    0x080007c2   0x080007c2   0x0000014e   Code   RO         9463    .text               mf_w.l(dadd.o)
    0x08000910   0x08000910   0x00000030   Code   RO         9465    .text               mf_w.l(dfixul.o)
    0x08000940   0x08000940   0x00000024   Code   RO         9467    .text               mc_w.l(init.o)
    0x08000964   0x08000964   0x00000024   Code   RO         9469    .text               mc_w.l(llsshr.o)
    0x08000988   0x08000988   0x00000056   Code   RO         9479    .text               mc_w.l(__dczerorl2.o)
    0x080009de   0x080009de   0x00000002   PAD
    0x080009e0   0x080009e0   0x00000028   Code   RO         4930    i.ADCDMAIRQHandler  adc1.o
    0x08000a08   0x08000a08   0x00000018   Code   RO         4931    i.ADCDMAStart       adc1.o
    0x08000a20   0x08000a20   0x0000007e   Code   RO          691    i.ADC_DMAConvCplt   stm32f4xx_hal_adc.o
    0x08000a9e   0x08000a9e   0x0000001a   Code   RO          692    i.ADC_DMAError      stm32f4xx_hal_adc.o
    0x08000ab8   0x08000ab8   0x0000000e   Code   RO          693    i.ADC_DMAHalfConvCplt  stm32f4xx_hal_adc.o
    0x08000ac6   0x08000ac6   0x00000002   PAD
    0x08000ac8   0x08000ac8   0x00000160   Code   RO          694    i.ADC_Init          stm32f4xx_hal_adc.o
    0x08000c28   0x08000c28   0x00000010   Code   RO         4408    i.APPMain_Init      appmain.o
    0x08000c38   0x08000c38   0x00000010   Code   RO         4409    i.APPMain_Loop      appmain.o
    0x08000c48   0x08000c48   0x00000004   Code   RO          536    i.BusFault_Handler  stm32f4xx_it.o
    0x08000c4c   0x08000c4c   0x0000002c   Code   RO         5459    i.ClarkeTransform   foc.o
    0x08000c78   0x08000c78   0x0000015a   Code   RO         5460    i.CurrentPIControlID  foc.o
    0x08000dd2   0x08000dd2   0x0000015a   Code   RO         5461    i.CurrentPIControlIQ  foc.o
    0x08000f2c   0x08000f2c   0x000000d8   Code   RO         5462    i.CurrentReconstruction  foc.o
    0x08001004   0x08001004   0x00000018   Code   RO          537    i.DMA2_Stream0_IRQHandler  stm32f4xx_it.o
    0x0800101c   0x0800101c   0x00000034   Code   RO         1473    i.DMA_CalcBaseAndBitshift  stm32f4xx_hal_dma.o
    0x08001050   0x08001050   0x000000aa   Code   RO         1474    i.DMA_CheckFifoParam  stm32f4xx_hal_dma.o
    0x080010fa   0x080010fa   0x0000002c   Code   RO         1475    i.DMA_SetConfig     stm32f4xx_hal_dma.o
    0x08001126   0x08001126   0x00000002   Code   RO          538    i.DebugMon_Handler  stm32f4xx_it.o
    0x08001128   0x08001128   0x0000000c   Code   RO          539    i.EXTI15_10_IRQHandler  stm32f4xx_it.o
    0x08001134   0x08001134   0x00000006   Code   RO           13    i.Error_Handler     main.o
    0x0800113a   0x0800113a   0x00000002   PAD
    0x0800113c   0x0800113c   0x00000044   Code   RO         5133    i.FOCConfig_Init    focconfig.o
    0x08001180   0x08001180   0x00000046   Code   RO         5464    i.FocContorl        foc.o
    0x080011c6   0x080011c6   0x00000002   Code   RO         4435    i.FunctionMain_Init  functionmain.o
    0x080011c8   0x080011c8   0x00000002   Code   RO         4436    i.FunctionMain_Loop  functionmain.o
    0x080011ca   0x080011ca   0x00000002   PAD
    0x080011cc   0x080011cc   0x00000010   Code   RO         4862    i.GPIONVIC_Init     gpionvic.o
    0x080011dc   0x080011dc   0x00000050   Code   RO         4932    i.GetADC1ChannelXValue  adc1.o
    0x0800122c   0x0800122c   0x00000034   Code   RO         5465    i.GetElectricalAngle  foc.o
    0x08001260   0x08001260   0x0000001c   Code   RO         4900    i.GetMotorFaultLeave  motorgpio.o
    0x0800127c   0x0800127c   0x00000014   Code   RO         5239    i.GetMotorPosition  positionpidconfig.o
    0x08001290   0x08001290   0x000000d8   Code   RO         5135    i.GetMotorPreCurrent  focconfig.o
    0x08001368   0x08001368   0x00000080   Code   RO         5194    i.GetMotorPreSpeed  speedpidconfig.o
    0x080013e8   0x080013e8   0x00000010   Code   RO         5103    i.GetMotorSVPWMSector  svpwmconfig.o
    0x080013f8   0x080013f8   0x00000008   Code   RO         5416    i.GetSVPWMSector    svpwm.o
    0x08001400   0x08001400   0x00000058   Code   RO         4802    i.GetTimer4EncoderAngle  tim4encoder.o
    0x08001458   0x08001458   0x00000058   Code   RO         4803    i.GetTimer4EncoderCnt  tim4encoder.o
    0x080014b0   0x080014b0   0x00000290   Code   RO         5417    i.GetVectorDuration  svpwm.o
    0x08001740   0x08001740   0x0000018c   Code   RO          696    i.HAL_ADC_ConfigChannel  stm32f4xx_hal_adc.o
    0x080018cc   0x080018cc   0x00000002   Code   RO          697    i.HAL_ADC_ConvCpltCallback  stm32f4xx_hal_adc.o
    0x080018ce   0x080018ce   0x00000002   Code   RO          698    i.HAL_ADC_ConvHalfCpltCallback  stm32f4xx_hal_adc.o
    0x080018d0   0x080018d0   0x00000002   Code   RO          700    i.HAL_ADC_ErrorCallback  stm32f4xx_hal_adc.o
    0x080018d2   0x080018d2   0x00000002   PAD
    0x080018d4   0x080018d4   0x00000068   Code   RO          705    i.HAL_ADC_Init      stm32f4xx_hal_adc.o
    0x0800193c   0x0800193c   0x00000130   Code   RO          225    i.HAL_ADC_MspInit   adc.o
    0x08001a6c   0x08001a6c   0x000001b4   Code   RO          712    i.HAL_ADC_Start_DMA  stm32f4xx_hal_adc.o
    0x08001c20   0x08001c20   0x00000174   Code   RO         2165    i.HAL_CAN_Init      stm32f4xx_hal_can.o
    0x08001d94   0x08001d94   0x00000088   Code   RO          273    i.HAL_CAN_MspInit   can.o
    0x08001e1c   0x08001e1c   0x00000020   Code   RO         2389    i.HAL_CRC_Init      stm32f4xx_hal_crc.o
    0x08001e3c   0x08001e3c   0x00000034   Code   RO          315    i.HAL_CRC_MspInit   crc.o
    0x08001e70   0x08001e70   0x00000240   Code   RO         1481    i.HAL_DMA_IRQHandler  stm32f4xx_hal_dma.o
    0x080020b0   0x080020b0   0x000000ec   Code   RO         1482    i.HAL_DMA_Init      stm32f4xx_hal_dma.o
    0x0800219c   0x0800219c   0x00000092   Code   RO         1486    i.HAL_DMA_Start_IT  stm32f4xx_hal_dma.o
    0x0800222e   0x0800222e   0x00000002   PAD
    0x08002230   0x08002230   0x00000028   Code   RO         1900    i.HAL_Delay         stm32f4xx_hal.o
    0x08002258   0x08002258   0x0000002c   Code   RO         4863    i.HAL_GPIO_EXTI_Callback  gpionvic.o
    0x08002284   0x08002284   0x0000001c   Code   RO         1368    i.HAL_GPIO_EXTI_IRQHandler  stm32f4xx_hal_gpio.o
    0x080022a0   0x080022a0   0x00000204   Code   RO         1369    i.HAL_GPIO_Init     stm32f4xx_hal_gpio.o
    0x080024a4   0x080024a4   0x00000010   Code   RO         1371    i.HAL_GPIO_ReadPin  stm32f4xx_hal_gpio.o
    0x080024b4   0x080024b4   0x0000000c   Code   RO         1373    i.HAL_GPIO_WritePin  stm32f4xx_hal_gpio.o
    0x080024c0   0x080024c0   0x0000000c   Code   RO         1906    i.HAL_GetTick       stm32f4xx_hal.o
    0x080024cc   0x080024cc   0x000001d0   Code   RO         2456    i.HAL_I2C_Init      stm32f4xx_hal_i2c.o
    0x0800269c   0x0800269c   0x000000d4   Code   RO          381    i.HAL_I2C_MspInit   i2c.o
    0x08002770   0x08002770   0x00000018   Code   RO         1912    i.HAL_IncTick       stm32f4xx_hal.o
    0x08002788   0x08002788   0x0000003c   Code   RO         1913    i.HAL_Init          stm32f4xx_hal.o
    0x080027c4   0x080027c4   0x0000004c   Code   RO         1914    i.HAL_InitTick      stm32f4xx_hal.o
    0x08002810   0x08002810   0x00000048   Code   RO          667    i.HAL_MspInit       stm32f4xx_hal_msp.o
    0x08002858   0x08002858   0x00000020   Code   RO         1758    i.HAL_NVIC_EnableIRQ  stm32f4xx_hal_cortex.o
    0x08002878   0x08002878   0x0000007c   Code   RO         1764    i.HAL_NVIC_SetPriority  stm32f4xx_hal_cortex.o
    0x080028f4   0x080028f4   0x00000028   Code   RO         1765    i.HAL_NVIC_SetPriorityGrouping  stm32f4xx_hal_cortex.o
    0x0800291c   0x0800291c   0x00000184   Code   RO          970    i.HAL_RCC_ClockConfig  stm32f4xx_hal_rcc.o
    0x08002aa0   0x08002aa0   0x0000000c   Code   RO          975    i.HAL_RCC_GetHCLKFreq  stm32f4xx_hal_rcc.o
    0x08002aac   0x08002aac   0x00000020   Code   RO          977    i.HAL_RCC_GetPCLK1Freq  stm32f4xx_hal_rcc.o
    0x08002acc   0x08002acc   0x000000b0   Code   RO          979    i.HAL_RCC_GetSysClockFreq  stm32f4xx_hal_rcc.o
    0x08002b7c   0x08002b7c   0x0000049c   Code   RO          982    i.HAL_RCC_OscConfig  stm32f4xx_hal_rcc.o
    0x08003018   0x08003018   0x000000c8   Code   RO         2946    i.HAL_SPI_Init      stm32f4xx_hal_spi.o
    0x080030e0   0x080030e0   0x00000100   Code   RO          423    i.HAL_SPI_MspInit   spi.o
    0x080031e0   0x080031e0   0x00000034   Code   RO         1769    i.HAL_SYSTICK_Config  stm32f4xx_hal_cortex.o
    0x08003214   0x08003214   0x00000002   Code   RO         3974    i.HAL_TIMEx_BreakCallback  stm32f4xx_hal_tim_ex.o
    0x08003216   0x08003216   0x00000002   Code   RO         3975    i.HAL_TIMEx_CommutCallback  stm32f4xx_hal_tim_ex.o
    0x08003218   0x08003218   0x00000074   Code   RO         3977    i.HAL_TIMEx_ConfigBreakDeadTime  stm32f4xx_hal_tim_ex.o
    0x0800328c   0x0800328c   0x000000b4   Code   RO         3993    i.HAL_TIMEx_MasterConfigSynchronization  stm32f4xx_hal_tim_ex.o
    0x08003340   0x08003340   0x000000f4   Code   RO         4004    i.HAL_TIMEx_PWMN_Start  stm32f4xx_hal_tim_ex.o
    0x08003434   0x08003434   0x00000066   Code   RO         3259    i.HAL_TIM_Base_Init  stm32f4xx_hal_tim.o
    0x0800349a   0x0800349a   0x00000002   PAD
    0x0800349c   0x0800349c   0x00000048   Code   RO          471    i.HAL_TIM_Base_MspInit  tim.o
    0x080034e4   0x080034e4   0x000000a8   Code   RO         3264    i.HAL_TIM_Base_Start_IT  stm32f4xx_hal_tim.o
    0x0800358c   0x0800358c   0x0000003e   Code   RO         3267    i.HAL_TIM_Base_Stop_IT  stm32f4xx_hal_tim.o
    0x080035ca   0x080035ca   0x00000108   Code   RO         3268    i.HAL_TIM_ConfigClockSource  stm32f4xx_hal_tim.o
    0x080036d2   0x080036d2   0x000000c8   Code   RO         3280    i.HAL_TIM_Encoder_Init  stm32f4xx_hal_tim.o
    0x0800379a   0x0800379a   0x00000002   PAD
    0x0800379c   0x0800379c   0x00000084   Code   RO          473    i.HAL_TIM_Encoder_MspInit  tim.o
    0x08003820   0x08003820   0x000000cc   Code   RO         3283    i.HAL_TIM_Encoder_Start  stm32f4xx_hal_tim.o
    0x080038ec   0x080038ec   0x00000002   Code   RO         3293    i.HAL_TIM_IC_CaptureCallback  stm32f4xx_hal_tim.o
    0x080038ee   0x080038ee   0x00000196   Code   RO         3307    i.HAL_TIM_IRQHandler  stm32f4xx_hal_tim.o
    0x08003a84   0x08003a84   0x000000a0   Code   RO          474    i.HAL_TIM_MspPostInit  tim.o
    0x08003b24   0x08003b24   0x00000002   Code   RO         3310    i.HAL_TIM_OC_DelayElapsedCallback  stm32f4xx_hal_tim.o
    0x08003b26   0x08003b26   0x000000fc   Code   RO         3331    i.HAL_TIM_PWM_ConfigChannel  stm32f4xx_hal_tim.o
    0x08003c22   0x08003c22   0x00000066   Code   RO         3334    i.HAL_TIM_PWM_Init  stm32f4xx_hal_tim.o
    0x08003c88   0x08003c88   0x00000002   Code   RO         3336    i.HAL_TIM_PWM_MspInit  stm32f4xx_hal_tim.o
    0x08003c8a   0x08003c8a   0x00000002   Code   RO         3337    i.HAL_TIM_PWM_PulseFinishedCallback  stm32f4xx_hal_tim.o
    0x08003c8c   0x08003c8c   0x0000010c   Code   RO         3339    i.HAL_TIM_PWM_Start  stm32f4xx_hal_tim.o
    0x08003d98   0x08003d98   0x00000158   Code   RO         3341    i.HAL_TIM_PWM_Start_IT  stm32f4xx_hal_tim.o
    0x08003ef0   0x08003ef0   0x000000f4   Code   RO         3344    i.HAL_TIM_PWM_Stop_IT  stm32f4xx_hal_tim.o
    0x08003fe4   0x08003fe4   0x00000002   Code   RO         3345    i.HAL_TIM_PeriodElapsedCallback  stm32f4xx_hal_tim.o
    0x08003fe6   0x08003fe6   0x00000002   Code   RO         3350    i.HAL_TIM_TriggerCallback  stm32f4xx_hal_tim.o
    0x08003fe8   0x08003fe8   0x00000004   Code   RO          540    i.HardFault_Handler  stm32f4xx_it.o
    0x08003fec   0x08003fec   0x00000080   Code   RO         5719    i.KEYRunCycle       keyscan.o
    0x0800406c   0x0800406c   0x00000002   Code   RO         5323    i.KeyConfig_Init    keyconfig.o
    0x0800406e   0x0800406e   0x00000002   PAD
    0x08004070   0x08004070   0x00000018   Code   RO         5324    i.KeyConfig_Loop    keyconfig.o
    0x08004088   0x08004088   0x000000a8   Code   RO         5720    i.KeyScan           keyscan.o
    0x08004130   0x08004130   0x00000024   Code   RO         5076    i.LEDConfigSetSysLedStatus  ledconfig.o
    0x08004154   0x08004154   0x0000000e   Code   RO         5077    i.LEDConfig_Init    ledconfig.o
    0x08004162   0x08004162   0x00000002   PAD
    0x08004164   0x08004164   0x00000010   Code   RO         5078    i.LEDConfig_Loop    ledconfig.o
    0x08004174   0x08004174   0x00000050   Code   RO         5368    i.LEDRunCycle       ledcontrol.o
    0x080041c4   0x080041c4   0x00000018   Code   RO         5369    i.LEDToggle         ledcontrol.o
    0x080041dc   0x080041dc   0x00000010   Code   RO         4627    i.MCUDriverMain_Init  mcudrivermain.o
    0x080041ec   0x080041ec   0x00000028   Code   RO         4628    i.MCUDriverMain_Loop  mcudrivermain.o
    0x08004214   0x08004214   0x000000a0   Code   RO          226    i.MX_ADC1_Init      adc.o
    0x080042b4   0x080042b4   0x00000070   Code   RO          227    i.MX_ADC2_Init      adc.o
    0x08004324   0x08004324   0x00000038   Code   RO          274    i.MX_CAN1_Init      can.o
    0x0800435c   0x0800435c   0x00000020   Code   RO          316    i.MX_CRC_Init       crc.o
    0x0800437c   0x0800437c   0x00000058   Code   RO          356    i.MX_DMA_Init       dma.o
    0x080043d4   0x080043d4   0x000001fc   Code   RO          200    i.MX_GPIO_Init      gpio.o
    0x080045d0   0x080045d0   0x0000003c   Code   RO          382    i.MX_I2C1_Init      i2c.o
    0x0800460c   0x0800460c   0x00000044   Code   RO          424    i.MX_SPI1_Init      spi.o
    0x08004650   0x08004650   0x00000044   Code   RO          425    i.MX_SPI3_Init      spi.o
    0x08004694   0x08004694   0x00000114   Code   RO          475    i.MX_TIM1_Init      tim.o
    0x080047a8   0x080047a8   0x0000007c   Code   RO          476    i.MX_TIM4_Init      tim.o
    0x08004824   0x08004824   0x00000004   Code   RO          541    i.MemManage_Handler  stm32f4xx_it.o
    0x08004828   0x08004828   0x00000078   Code   RO         5136    i.MotorAngleCalibration  focconfig.o
    0x080048a0   0x080048a0   0x00000010   Code   RO         5137    i.MotorFocControl   focconfig.o
    0x080048b0   0x080048b0   0x00000028   Code   RO         5104    i.MotorSvpwmGenerate  svpwmconfig.o
    0x080048d8   0x080048d8   0x00000004   Code   RO          542    i.NMI_Handler       stm32f4xx_it.o
    0x080048dc   0x080048dc   0x00000066   Code   RO         5466    i.ParkAntiTransform  foc.o
    0x08004942   0x08004942   0x0000006a   Code   RO         5467    i.ParkTransform     foc.o
    0x080049ac   0x080049ac   0x00000002   Code   RO          543    i.PendSV_Handler    stm32f4xx_it.o
    0x080049ae   0x080049ae   0x00000018   Code   RO         5031    i.PerDriverMain_Init  perdrivermain.o
    0x080049c6   0x080049c6   0x00000002   PAD
    0x080049c8   0x080049c8   0x00000084   Code   RO         5032    i.PerDriverMain_Loop  perdrivermain.o
    0x08004a4c   0x08004a4c   0x0000003c   Code   RO         5240    i.PositionPIDConfig_Init  positionpidconfig.o
    0x08004a88   0x08004a88   0x00000010   Code   RO         5241    i.PositionPIDConfig_Loop  positionpidconfig.o
    0x08004a98   0x08004a98   0x00000010   Code   RO         5242    i.PositionPIDConfig_Printf  positionpidconfig.o
    0x08004aa8   0x08004aa8   0x00000118   Code   RO         5598    i.PositionPIDControl  positionpid.o
    0x08004bc0   0x08004bc0   0x00000048   Code   RO         5599    i.PositionPIDCycle  positionpid.o
    0x08004c08   0x08004c08   0x00000058   Code   RO         5600    i.PositionPIDPrintf  positionpid.o
    0x08004c60   0x08004c60   0x00000010   Code   RO         4998    i.ReadKeyDownLeave  keygpio.o
    0x08004c70   0x08004c70   0x00000010   Code   RO         4999    i.ReadKeyUPLeave    keygpio.o
    0x08004c80   0x08004c80   0x00000170   Code   RO         4282    i.SEGGER_RTT_Write  segger_rtt.o
    0x08004df0   0x08004df0   0x00000002   Code   RO          544    i.SVC_Handler       stm32f4xx_it.o
    0x08004df2   0x08004df2   0x00000022   Code   RO         5468    i.SetCurrentPIDParams  foc.o
    0x08004e14   0x08004e14   0x0000000a   Code   RO         5469    i.SetCurrentPIDTar  foc.o
    0x08004e1e   0x08004e1e   0x00000002   PAD
    0x08004e20   0x08004e20   0x00000018   Code   RO         4712    i.SetFaultLedLeave  ledgpio.o
    0x08004e38   0x08004e38   0x00000012   Code   RO         5470    i.SetFocEnable      foc.o
    0x08004e4a   0x08004e4a   0x0000000a   Code   RO         5370    i.SetLEDFlashing    ledcontrol.o
    0x08004e54   0x08004e54   0x0000001a   Code   RO         5371    i.SetLEDOFF         ledcontrol.o
    0x08004e6e   0x08004e6e   0x00000010   Code   RO         5372    i.SetLEDON          ledcontrol.o
    0x08004e7e   0x08004e7e   0x0000003e   Code   RO         5373    i.SetLedStatus      ledcontrol.o
    0x08004ebc   0x08004ebc   0x00000012   Code   RO         5138    i.SetMotorAndTimITEnable  focconfig.o
    0x08004ece   0x08004ece   0x00000002   PAD
    0x08004ed0   0x08004ed0   0x00000020   Code   RO         5195    i.SetMotorCurrent   speedpidconfig.o
    0x08004ef0   0x08004ef0   0x00000014   Code   RO         4901    i.SetMotorEnable    motorgpio.o
    0x08004f04   0x08004f04   0x00000018   Code   RO         5243    i.SetMotorPosition  positionpidconfig.o
    0x08004f1c   0x08004f1c   0x00000020   Code   RO         5244    i.SetPositionPIDConfigTarPosition  positionpidconfig.o
    0x08004f3c   0x08004f3c   0x0000000c   Code   RO         5601    i.SetPositionPIDEnable  positionpid.o
    0x08004f48   0x08004f48   0x0000000e   Code   RO         5602    i.SetPositionPIDParams  positionpid.o
    0x08004f56   0x08004f56   0x00000006   Code   RO         5603    i.SetPositionPIDTar  positionpid.o
    0x08004f5c   0x08004f5c   0x00000018   Code   RO         4713    i.SetSYSLedLeave    ledgpio.o
    0x08004f74   0x08004f74   0x00000020   Code   RO         5196    i.SetSpeedPIDConfigTarSpeed  speedpidconfig.o
    0x08004f94   0x08004f94   0x0000000c   Code   RO         5551    i.SetSpeedPIDEnable  speedpid.o
    0x08004fa0   0x08004fa0   0x0000000e   Code   RO         5552    i.SetSpeedPIDParams  speedpid.o
    0x08004fae   0x08004fae   0x00000006   Code   RO         5553    i.SetSpeedPIDTar    speedpid.o
    0x08004fb4   0x08004fb4   0x00000050   Code   RO         4747    i.SetTIM1Channel1HighLeaveTime_us  tim1pwm.o
    0x08005004   0x08005004   0x00000050   Code   RO         4748    i.SetTIM1Channel2HighLeaveTime_us  tim1pwm.o
    0x08005054   0x08005054   0x00000050   Code   RO         4749    i.SetTIM1Channel3HighLeaveTime_us  tim1pwm.o
    0x080050a4   0x080050a4   0x00000050   Code   RO         4750    i.SetTIM1Channel4HighLeaveTime_us  tim1pwm.o
    0x080050f4   0x080050f4   0x00000028   Code   RO         5139    i.SetTarIDIQ        focconfig.o
    0x0800511c   0x0800511c   0x0000000c   Code   RO         4804    i.SetTimer4EncoderCnt  tim4encoder.o
    0x08005128   0x08005128   0x0000003c   Code   RO         5197    i.SpeedPIDConfig_Init  speedpidconfig.o
    0x08005164   0x08005164   0x00000010   Code   RO         5198    i.SpeedPIDConfig_Loop  speedpidconfig.o
    0x08005174   0x08005174   0x000000ac   Code   RO         5554    i.SpeedPIDControl   speedpid.o
    0x08005220   0x08005220   0x00000048   Code   RO         5555    i.SpeedPIDCycle     speedpid.o
    0x08005268   0x08005268   0x00000030   Code   RO         5418    i.SvpwmContorol     svpwm.o
    0x08005298   0x08005298   0x00000196   Code   RO         5419    i.SvpwmGenerate     svpwm.o
    0x0800542e   0x0800542e   0x00000002   PAD
    0x08005430   0x08005430   0x000000d8   Code   RO         5420    i.SvpwmSectorJudgment  svpwm.o
    0x08005508   0x08005508   0x0000006c   Code   RO          545    i.SysTick_Handler   stm32f4xx_it.o
    0x08005574   0x08005574   0x000000b4   Code   RO           14    i.SystemClock_Config  main.o
    0x08005628   0x08005628   0x00000014   Code   RO         4242    i.SystemInit        system_stm32f4xx.o
    0x0800563c   0x0800563c   0x00000014   Code   RO          546    i.TIM1_CC_IRQHandler  stm32f4xx_it.o
    0x08005650   0x08005650   0x00000064   Code   RO         4751    i.TIM1_Init         tim1pwm.o
    0x080056b4   0x080056b4   0x000000d8   Code   RO         3352    i.TIM_Base_SetConfig  stm32f4xx_hal_tim.o
    0x0800578c   0x0800578c   0x00000022   Code   RO         3353    i.TIM_CCxChannelCmd  stm32f4xx_hal_tim.o
    0x080057ae   0x080057ae   0x00000022   Code   RO         4013    i.TIM_CCxNChannelCmd  stm32f4xx_hal_tim_ex.o
    0x080057d0   0x080057d0   0x00000016   Code   RO         3363    i.TIM_ETR_SetConfig  stm32f4xx_hal_tim.o
    0x080057e6   0x080057e6   0x00000012   Code   RO         3364    i.TIM_ITRx_SetConfig  stm32f4xx_hal_tim.o
    0x080057f8   0x080057f8   0x00000070   Code   RO         3365    i.TIM_OC1_SetConfig  stm32f4xx_hal_tim.o
    0x08005868   0x08005868   0x0000007c   Code   RO         3366    i.TIM_OC2_SetConfig  stm32f4xx_hal_tim.o
    0x080058e4   0x080058e4   0x00000078   Code   RO         3367    i.TIM_OC3_SetConfig  stm32f4xx_hal_tim.o
    0x0800595c   0x0800595c   0x00000054   Code   RO         3368    i.TIM_OC4_SetConfig  stm32f4xx_hal_tim.o
    0x080059b0   0x080059b0   0x00000026   Code   RO         3370    i.TIM_TI1_ConfigInputStage  stm32f4xx_hal_tim.o
    0x080059d6   0x080059d6   0x00000028   Code   RO         3372    i.TIM_TI2_ConfigInputStage  stm32f4xx_hal_tim.o
    0x080059fe   0x080059fe   0x00000002   PAD
    0x08005a00   0x08005a00   0x0000002c   Code   RO         4752    i.Timer1Channel4ITEnable  tim1pwm.o
    0x08005a2c   0x08005a2c   0x00000034   Code   RO         4805    i.TimerEncoderInit  tim4encoder.o
    0x08005a60   0x08005a60   0x00000028   Code   RO         4806    i.TimerEncoderReset  tim4encoder.o
    0x08005a88   0x08005a88   0x00000004   Code   RO          547    i.UsageFault_Handler  stm32f4xx_it.o
    0x08005a8c   0x08005a8c   0x00000002   Code   RO         4284    i._Init             segger_rtt.o
    0x08005a8e   0x08005a8e   0x00000002   PAD
    0x08005a90   0x08005a90   0x00000020   Code   RO         9391    i.__0printf         mc_w.l(printfa.o)
    0x08005ab0   0x08005ab0   0x00000010   Code   RO         1771    i.__NVIC_GetPriorityGrouping  stm32f4xx_hal_cortex.o
    0x08005ac0   0x08005ac0   0x00000028   Code   RO         1772    i.__NVIC_SetPriority  stm32f4xx_hal_cortex.o
    0x08005ae8   0x08005ae8   0x00000014   Code   RO         9133    i.__hardfp_fabs     m_wm.l(fabs.o)
    0x08005afc   0x08005afc   0x0000000e   Code   RO         9473    i.__scatterload_copy  mc_w.l(handlers.o)
    0x08005b0a   0x08005b0a   0x00000002   Code   RO         9474    i.__scatterload_null  mc_w.l(handlers.o)
    0x08005b0c   0x08005b0c   0x0000000e   Code   RO         9475    i.__scatterload_zeroinit  mc_w.l(handlers.o)
    0x08005b1a   0x08005b1a   0x00000002   PAD
    0x08005b1c   0x08005b1c   0x00000184   Code   RO         9398    i._fp_digits        mc_w.l(printfa.o)
    0x08005ca0   0x08005ca0   0x000006b4   Code   RO         9399    i._printf_core      mc_w.l(printfa.o)
    0x08006354   0x08006354   0x00000024   Code   RO         9400    i._printf_post_padding  mc_w.l(printfa.o)
    0x08006378   0x08006378   0x0000002e   Code   RO         9401    i._printf_pre_padding  mc_w.l(printfa.o)
    0x080063a6   0x080063a6   0x0000001a   Code   RO         4286    i.fputc             segger_rtt.o
    0x080063c0   0x080063c0   0x00000040   Code   RO           15    i.main              main.o
    0x08006400   0x08006400   0x00000008   Data   RO         1488    .constdata          stm32f4xx_hal_dma.o
    0x08006408   0x08006408   0x00000018   Data   RO         4243    .constdata          system_stm32f4xx.o
    0x08006420   0x08006420   0x00000804   Data   RO         7234    .constdata          arm_cortexM4lf_math.lib(arm_common_tables.o)
    0x08006c24   0x08006c24   0x00000009   Data   RO         4288    .conststring        segger_rtt.o
    0x08006c2d   0x08006c2d   0x00000003   PAD
    0x08006c30   0x08006c30   0x00000020   Data   RO         9471    Region$$Table       anon$$obj.o


    Execution Region RW_IRAM2 (Exec base: 0x10000000, Load base: 0x08006ce8, Size: 0x00000000, Max: 0x00010000, ABSOLUTE)

    **** No section assigned to this execution region ****


    Execution Region RW_IRAM1 (Exec base: 0x20000000, Load base: 0x08006c50, Size: 0x000011d8, Max: 0x00020000, ABSOLUTE, COMPRESSED[0x00000098])

    Exec Addr    Load Addr    Size         Type   Attr      Idx    E Section Name        Object

    0x20000000   COMPRESSED   0x00000008   Data   RW          317    .data               crc.o
    0x20000008   COMPRESSED   0x00000009   Data   RW         1920    .data               stm32f4xx_hal.o
    0x20000011   COMPRESSED   0x00000003   PAD
    0x20000014   COMPRESSED   0x00000004   Data   RW         4244    .data               system_stm32f4xx.o
    0x20000018   COMPRESSED   0x00000078   Data   RW         4289    .data               segger_rtt.o
    0x20000090   COMPRESSED   0x00000004   Data   RW         4629    .data               mcudrivermain.o
    0x20000094   COMPRESSED   0x00000004   Data   RW         4682    .data               timer.o
    0x20000098   COMPRESSED   0x00000008   Data   RW         4807    .data               tim4encoder.o
    0x200000a0   COMPRESSED   0x00000008   Data   RW         4864    .data               gpionvic.o
    0x200000a8   COMPRESSED   0x00000010   Data   RW         5033    .data               perdrivermain.o
    0x200000b8   COMPRESSED   0x00000014   Data   RW         5079    .data               ledconfig.o
    0x200000cc   COMPRESSED   0x00000058   Data   RW         5105    .data               svpwmconfig.o
    0x20000124   COMPRESSED   0x00000098   Data   RW         5140    .data               focconfig.o
    0x200001bc   COMPRESSED   0x00000044   Data   RW         5200    .data               speedpidconfig.o
    0x20000200   COMPRESSED   0x0000003c   Data   RW         5245    .data               positionpidconfig.o
    0x2000023c   COMPRESSED   0x00000040   Data   RW         5329    .data               keyconfig.o
    0x2000027c   COMPRESSED   0x00000004   Data   RW         5374    .data               ledcontrol.o
    0x20000280   COMPRESSED   0x00000004   Data   RW         5557    .data               speedpid.o
    0x20000284   COMPRESSED   0x00000004   Data   RW         5604    .data               positionpid.o
    0x20000288   COMPRESSED   0x00000004   Data   RW         5655    .data               oled.o
    0x2000028c   COMPRESSED   0x00000004   Data   RW         5721    .data               keyscan.o
    0x20000290   COMPRESSED   0x00000004   Data   RW         5756    .data               pagegui.o
    0x20000294   COMPRESSED   0x00000004   Data   RW         9451    .data               mc_w.l(stdout.o)
    0x20000298        -       0x000000f0   Zero   RW          228    .bss                adc.o
    0x20000388        -       0x00000028   Zero   RW          275    .bss                can.o
    0x200003b0        -       0x000000b4   Zero   RW          383    .bss                i2c.o
    0x20000464        -       0x000000b0   Zero   RW          426    .bss                spi.o
    0x20000514        -       0x00000090   Zero   RW          477    .bss                tim.o
    0x200005a4        -       0x00000410   Zero   RW         4287    .bss                segger_rtt.o
    0x200009b4        -       0x00000024   Zero   RW         4933    .bss                adc1.o
    0x200009d8        -       0x00000800   Zero   RW            1    STACK               startup_stm32f405xx.o


==============================================================================

Image component sizes


      Code (inc. data)   RO Data    RW Data    ZI Data      Debug   Object Name

       576         54          0          0        240       2716   adc.o
       144         30          0          0         36       2352   adc1.o
        32          0          0          0          0       1030   appmain.o
       192         20          0          0         40       1785   can.o
        84         18          0          8          0       1619   crc.o
        88          6          0          0          0        866   dma.o
      1344         24          0          0          0       8085   foc.o
       478         58          0        152          0       5531   focconfig.o
         4          0          0          0          0       1016   functionmain.o
       508         26          0          0          0       1271   gpio.o
        60         10          0          8          0       1819   gpionvic.o
       272         34          0          0        180       1882   i2c.o
        26          8          0         64          0       1358   keyconfig.o
        32          8          0          0          0       1096   keygpio.o
       296         40          0          4          0       3199   keyscan.o
        66         12          0         20          0       2059   ledconfig.o
       218         10          0          4          0       5204   ledcontrol.o
        48         12          0          0          0       1152   ledgpio.o
       250         10          0          0          0     674048   main.o
        56          8          0          4          0       1190   mcudrivermain.o
        48         10          0          0          0       1170   motorgpio.o
         0          0          0          4          0        600   oled.o
         0          0          0          4          0        579   pagegui.o
       156         26          0         16          0       1664   perdrivermain.o
       472         44          0          4          0       5972   positionpid.o
       168         40          0         60          0       3984   positionpidconfig.o
       396          4          9        120       1040       4479   segger_rtt.o
       276         12          0          4          0       5085   speedpid.o
       268         54          0         68          0       3453   speedpidconfig.o
       392         42          0          0        176       2486   spi.o
        36          8        392          0       2048        864   startup_stm32f405xx.o
       212         36          0          9          0       9649   stm32f4xx_hal.o
      1460         66          0          0          0       7721   stm32f4xx_hal_adc.o
       372          0          0          0          0       1387   stm32f4xx_hal_can.o
       304         22          0          0          0      34683   stm32f4xx_hal_cortex.o
        32          0          0          0          0       1099   stm32f4xx_hal_crc.o
      1224         16          8          0          0       5771   stm32f4xx_hal_dma.o
       572         50          0          0          0       3574   stm32f4xx_hal_gpio.o
       464         18          0          0          0       2131   stm32f4xx_hal_i2c.o
        72          4          0          0          0        918   stm32f4xx_hal_msp.o
      1788         74          0          0          0       5229   stm32f4xx_hal_rcc.o
       200          0          0          0          0       1247   stm32f4xx_hal_spi.o
      3436        180          0          0          0      22211   stm32f4xx_hal_tim.o
       578         60          0          0          0       5084   stm32f4xx_hal_tim_ex.o
       190         42          0          0          0      11269   stm32f4xx_it.o
      1334         40          0          0          0       3507   svpwm.o
        56         12          0         88          0       2964   svpwmconfig.o
        20          6         24          4          0       1223   system_stm32f4xx.o
       764         58          0          0        144       4199   tim.o
       464         78          0          0          0       3665   tim1pwm.o
       280         56          0          8          0       3661   tim4encoder.o
         0          0          0          4          0        250   timer.o

    ----------------------------------------------------------------------
     20838       1446        468        660       3904     881056   Object Totals
         0          0         32          0          0          0   (incl. Generated)
        30          0          3          3          0          0   (incl. Padding)

    ----------------------------------------------------------------------

      Code (inc. data)   RO Data    RW Data    ZI Data      Debug   Library Member Name

         0          0       2052          0          0       4704   arm_common_tables.o
       120         12          0          0          0      17170   arm_cos_f32.o
       148         18          0          0          0        814   arm_sin_f32.o
        20          0          0          0          0        124   fabs.o
        86          0          0          0          0          0   __dczerorl2.o
         0          0          0          0          0          0   entry.o
         0          0          0          0          0          0   entry10a.o
         0          0          0          0          0          0   entry11a.o
         4          0          0          0          0          0   entry12b.o
         8          4          0          0          0          0   entry2.o
         4          0          0          0          0          0   entry5.o
         0          0          0          0          0          0   entry7b.o
         0          0          0          0          0          0   entry8b.o
         8          4          0          0          0          0   entry9a.o
        30          0          0          0          0          0   handlers.o
        36          8          0          0          0         68   init.o
         0          0          0          0          0          0   iusefp.o
        30          0          0          0          0         68   llshl.o
        36          0          0          0          0         68   llsshr.o
        32          0          0          0          0         68   llushr.o
        64          0          0          0          0         76   memmovea.o
        36          0          0          0          0        108   memseta.o
      2218         90          0          0          0        464   printfa.o
         0          0          0          4          0          0   stdout.o
        44          0          0          0          0         80   uidiv.o
        98          0          0          0          0         92   uldiv.o
        48          0          0          0          0         68   cdcmple.o
        48          0          0          0          0         68   cdrcmple.o
        56          0          0          0          0         88   d2f.o
       334          0          0          0          0        148   dadd.o
       222          0          0          0          0        100   ddiv.o
       186          0          0          0          0        176   depilogue.o
        48          0          0          0          0         68   dfixul.o
        26          0          0          0          0         76   dfltui.o
       228          0          0          0          0         96   dmul.o
        38          0          0          0          0         68   f2d.o
       110          0          0          0          0        168   fepilogue.o

    ----------------------------------------------------------------------
      4370        136       2052          4          0      25028   Library Totals
         4          0          0          0          0          0   (incl. Padding)

    ----------------------------------------------------------------------

      Code (inc. data)   RO Data    RW Data    ZI Data      Debug   Library Name

       268         30       2052          0          0      22688   arm_cortexM4lf_math.lib
        20          0          0          0          0        124   m_wm.l
      2734        106          0          4          0       1092   mc_w.l
      1344          0          0          0          0       1124   mf_w.l

    ----------------------------------------------------------------------
      4370        136       2052          4          0      25028   Library Totals

    ----------------------------------------------------------------------

==============================================================================


      Code (inc. data)   RO Data    RW Data    ZI Data      Debug   

     25208       1582       2520        664       3904     886076   Grand Totals
     25208       1582       2520        152       3904     886076   ELF Image Totals (compressed)
     25208       1582       2520        152          0          0   ROM Totals

==============================================================================

    Total RO  Size (Code + RO Data)                27728 (  27.08kB)
    Total RW  Size (RW Data + ZI Data)              4568 (   4.46kB)
    Total ROM Size (Code + RO Data + RW Data)      27880 (  27.23kB)

==============================================================================

