:020000040800F2
:10000000D8110020A1010008D9480008E93F0008E4
:1000100025480008490C0008895A00080000000023
:10002000000000000000000000000000F14D00088A
:100030002711000800000000AD490008095500081C
:10004000BB010008BB010008BB010008BB010008A0
:10005000BB010008BB010008BB010008BB01000890
:10006000BB010008BB010008BB010008BB01000880
:10007000BB010008BB010008BB010008BB01000870
:10008000BB010008BB010008BB010008BB01000860
:10009000BB010008BB010008BB010008BB01000850
:1000A000BB010008BB010008BB0100083D56000869
:1000B000BB010008BB010008BB010008BB01000830
:1000C000BB010008BB010008BB010008BB01000820
:1000D000BB010008BB010008BB010008BB01000810
:1000E00029110008BB010008BB010008BB01000882
:1000F000BB010008BB010008BB010008BB010008F0
:10010000BB010008BB010008BB010008BB010008DF
:10011000BB010008BB010008BB010008BB010008CF
:1001200005100008BB010008BB010008BB01000866
:10013000BB0100080000000000000000BB01000837
:10014000BB010008BB010008BB010008BB0100089F
:10015000BB010008BB010008BB010008BB0100088F
:10016000BB010008BB010008BB010008BB0100087F
:10017000BB010008BB0100080000000000000000F7
:10018000BB010008BB010008DFF810D000F0D8FB6D
:1001900000480047C1630008AFF30080D811002079
:1001A0000648804706480047FEE7FEE7FEE7FEE711
:1001B000FEE7FEE7FEE7FEE7FEE7FEE7295600085A
:1001C000890100089FED1A1AF5EE000A40EE010AB7
:1001D000BDEEE00AF5EEC00A10EE100AF1EE10FADC
:1001E00038BF401E00EE100A1349F7EE001AB8EEB1
:1001F000C00A30EEC00ADFED0F0A20EE200AFCEE46
:10020000C00A10EE900AC0F3080000EE900A01EB5D
:100210008000F8EE600A90ED011A70EE600A90ED31
:10022000000A71EEE01A21EE800A00EE810A7047A2
:1002300083F9223E0000004420640008B5EEC00AA5
:10024000F1EE10FA07D2DFED1E0AB4EEE00AF1EE8D
:1002500010FAA8BF7047DFED1B0AB5EEC00A60EECA
:10026000200ABDEEE01A11EE100AF1EE10FA38BFC6
:10027000401E00EE100A1549F7EE001AB8EEC00A4B
:1002800030EEC00ADFED100A60EE200ABCEEE00A94
:1002900010EE100AC0F3080000EE100A01EB800017
:1002A000B8EE400A90ED011A70EEC00A90ED000A17
:1002B00071EEE01A21EE800A00EE810A704700001C
:1002C000CD024CB483F9223E0000004420640008B3
:1002D0002DE9F05F0546002092469B46884606467B
:1002E000814640241BE0284641464746224600F00E
:1002F000C4F953465A46C01A914110D311461846C4
:10030000224600F0ABF92D1A67EB01084F46224652
:100310000120002100F0A2F917EB00094E41201E38
:10032000A4F10104DFDC484631462A464346BDE8D5
:10033000F09F10B5431A934209D28318881803E03E
:1003400010F8011D03F8011D521EF9D210BD40EA3C
:1003500001039B0703D009E008C9121F08C0042A43
:10036000FAD203E011F8013B00F8013B521EF9D22A
:1003700010BDD2B201E000F8012B491EFBD270473C
:100380000022F6E710B513460A4604461946FFF761
:10039000F0FF204610BD2DE9FE4F81EA030404F072
:1003A000004421F0004100944FF0000B23F0004383
:1003B00050EA01045ED052EA03045BD0C3F30A544E
:1003C000C1F30A552C44A4F2F3340194A0FB025467
:1003D000C1F3130141F48011C3F3130343F48013F9
:1003E00001FB024400FB034E840A970A44EA81544D
:1003F00047EA8357A4FB076802958D0A05FB07852A
:100400004FEA932C04FB0C542705029D4FEA065833
:1004100047EA1637B5EB08056EEB070C870E920E10
:1004200047EA811742EA8312A7FB0201B6EB0B01F0
:1004300064EB00042B0D43EA0C335E1844EB1C50B4
:10044000DA465146E7FB0201C5F313044FEA0B33CA
:1004500043EA14534FEA0432019C43EA0603A4F131
:100460000C040294009CCDE900B400F05CF903B0E8
:10047000BDE8F08F00200146F9E72DE9F04D81EA53
:10048000030404F0004B21F0004514464FF0000A2D
:1004900023F0004150EA050220D054EA01021DD0A9
:1004A000C5F30A570246C5F31303C1F31300C1F3A2
:1004B0000A5640F4801543F48013A7EB0608101B7E
:1004C000D64608F2FD3873EB050002D308F10108A7
:1004D00001E092185B41B8F1000F03DA00200146F9
:1004E000BDE8F08D00204FF48011064684460EE0F2
:1004F000171B73EB050705D3121B63EB05030643BC
:100500004CEA010C49084FEA300092185B4150EA6E
:100510000107EDD152EA030012D082EA040083EA17
:100520000501084305D0101BAB4106D20122002370
:1005300006E000224FF0004302E06FF0010253108A
:100540001AEB06004CEB085110EB0A0041EB0B01D3
:10055000BDE8F04D00F0D8B80EB540F2334102913D
:100560000021CDE900110A460B4600F0DCF803B08B
:1005700000BD00F0004230F000400AD0C10D01F58E
:100580006071C0F3160042EA0151C20840071143EE
:10059000704700200146704730B5041E71F1000419
:1005A00004DB4FF00044404264EB0101141E73F180
:1005B000000405DB1C464FF00043524263EB04038A
:1005C0008B4208BF824230BD30B5041E71F1000479
:1005D00004DB4FF00044404264EB0101141E73F150
:1005E000000405DB1C464FF00043524263EB04035A
:1005F000994208BF904230BD01F0004330B421F071
:10060000004150EA010206D00A0DA2F56072C1F362
:100610001301002A02DC30BC00207047440F44EA7A
:10062000C104C100E01830BC00EBC25000F035B886
:1006300030B50B46014600202022012409E021FAB2
:1006400002F59D4205D303FA02F5491B04FA02F5AF
:100650002844151EA2F10102F1DC30BD202A04DB82
:10066000203A00FA02F1002070479140C2F12003C5
:1006700020FA03F3194390407047202A04DB203A04
:1006800021FA02F00021704721FA02F3D040C2F1B2
:10069000200291400843194670470029A8BF7047BF
:1006A000401C490008BF20F00100704710B4B0FAA8
:1006B00080FC00FA0CF050EA010404BF10BC704743
:1006C00049B1CCF1200421FA04F411FA0CF118BF5D
:1006D000012121430843A3EB0C01CB1D4FEA00612C
:1006E0004FEA102042BF002010BC704700EBC350FF
:1006F00010440029A4BF10BC7047401C490008BF2B
:1007000020F0010010BC704710B5141E73F10004F6
:1007100008DA401C41F1000192185B411A4301D1F3
:1007200020F0010010BD2DE9F04D92469B4611B11D
:10073000B1FA81F202E0B0FA80F220329046FFF77F
:100740008DFF04460F4640EA0A0041EA0B0153467A
:100750005A46084313D0114653EA010019D0C8F194
:1007600040025046FFF789FF05460E46504659465F
:100770004246FFF773FF084305D0012004E02046FE
:100780003946BDE8F08D0020054346EAE0762C436B
:1007900037430A986305E40AA0EB08000022FD0A2B
:1007A00044EA47540A3002D500200146E9E7010532
:1007B00010196941DDE9084500196941BDE8F04DAE
:1007C000A2E72DE9FE4F804681EA0300C00F0C46E8
:1007D000009021F0004123F00045B8EB0200A94150
:1007E00005D24046214690461C460B46024623F061
:1007F0000040104347D0270DC7F30A00C3F30A5146
:100800000290401A019040286BDAC3F3130040F4C1
:10081000801B0098924620B10023D2EB030A63EBC1
:100820000B0B01985946C0F140025046FFF716FFE6
:1008300006460D4650465946019A00F093F810EBD3
:1008400008006141002487EA115284EAE7731A43E1
:1008500040D0009A62B3019A012A4FEA075215DC90
:10086000001B61EB02014FF0004202EA0752CDE9A2
:100870000042001C41F5801132462B46FFF753FF22
:1008800003B0BDE8F08F40462146F9E7001B61EB5D
:100890000201001C41F5801300185B412018A2F5ED
:1008A000001747EB030140EAD570B6196D4111E01E
:1008B0006D084FEA360645EAC0754FEA0752001B3D
:1008C00061EB0201001C41F5801149084FEA30003C
:1008D0000019514132462B4603B0BDE8F04FFFF7F7
:1008E00013BF0098012240000023D0EB020263EB0B
:1008F000E073009821464FEAE074B8EB000061EB2A
:100900000401E9E783F000435BE781F0004158E729
:10091000C1F30A52C1F3130140F2FF3341F48011D5
:100920009A4202DA00200146704740F233439A426D
:10093000A2F2334202DC5242FFF79FBEFFF78EBEA7
:10094000064C074D06E0E06840F0010394E807001C
:1009500098471034AC42F6D3FFF71AFC306C00080D
:10096000506C0008202A06DBCB17203A41FA02F02F
:1009700043EAE07306E041FA02F3D040C2F12002FC
:10098000914008431946704770B58C1810F8015B08
:1009900015F0070301D110F8013B2A1106D110F818
:1009A000012B03E010F8016B01F8016B5B1EF9D11C
:1009B0002B0705D40023521E0DD401F8013BFAE7A2
:1009C00010F8013BCB1A921C03E013F8015B01F80D
:1009D000015B521EF9D5A142D8D3002070BD0000A2
:1009E00008480068A0F636000649C8600846406816
:1009F000A0F2FA70086108468068A0F6030048611A
:100A000070470000B409002010B5032202490348D2
:100A100001F02CF810BD0000B4090020980200205D
:100A200070B50546AC6B206C00F0500050BB206CDC
:100A300040F4007020642068806800F04050E8B9FD
:100A4000207ED8B92068C06A00F4700020B1206808
:100A5000806800F4806088B92068406820F0200039
:100A600021684860206C20F480702064206C00F4C1
:100A7000805018B9206C40F001002064204600F03E
:100A800025FF0BE0206C00F0100018B1204600F0AC
:100A90001FFF03E0A06BC16C2846884770BD70B58E
:100AA0000546AC6B40202064606C40F0040060643C
:100AB000204600F00DFF70BD70B50446A56B2846BA
:100AC00000F005FF70BD000055494A6822F440322D
:100AD0004A604A6843681A434A600268526822F4CE
:100AE000807203685A6002685368026943EA02220E
:100AF00003685A600268526822F0407203685A60C4
:100B00000268526883681A4303685A6002689268F0
:100B100022F4006203689A6002689268C3681A430C
:100B200003689A603F4B826A9A4218D002689268C2
:100B300022F0706203689A6002689268836A1A43BE
:100B400003689A600268926822F0405203689A60D3
:100B500002689268C36A1A4303689A600BE00268ED
:100B6000926822F0706203689A600268926822F0CC
:100B7000405203689A600268926822F00202036899
:100B80009A6002689368027E43EA420203689A60B0
:100B90002022125CA2B10268526842F4006203682B
:100BA0005A600268526822F4604203685A60026820
:100BB0005368426A521E43EA423203685A6005E0B3
:100BC0000268526822F4006203685A600268D26ABE
:100BD00022F470020368DA620268D36A828B521EC2
:100BE00043EA02520368DA620268926822F40072F1
:100BF00003689A600268936890F8302043EA4222C2
:100C000003689A600268926822F4806203689A60BE
:100C100002689368426943EA822203689A607047D7
:100C2000002301400100000F10B503F0D7FA03F0D4
:100C3000BEFE00F0C8FA10BD10B503F0D7FA03F0FD
:100C4000C3FE00F0C1FA10BD00BFFEE790ED060A3A
:100C500080ED090A90ED060AD0ED070AB0EE001A01
:100C600001EE200ADFED030A80EE201A80ED0A1A59
:100C700070470000D0B3DD3F10B52DED088B044662
:100C800094ED0C0A84ED120A94ED020A84ED130A25
:100C900094ED130AD4ED120A30EE600A84ED140AC2
:100CA00094ED140AD4ED150A30EE600AD4ED0F0A63
:100CB00020EE200AD4ED100A94ED141A00EE810AF9
:100CC000D4ED160A30EE200A84ED160A94ED140ACB
:100CD00084ED150A94ED170A10EE101A0846FFF776
:100CE00048FC41EC1A0BB0EE4A0AF0EE6A0A04F036
:100CF000FBFEB0EE408AF0EE608A94ED160A10EE2C
:100D0000101A0846FFF735FC41EC190B53EC182B71
:100D1000FFF75AFC17D294ED170A10EE101A084686
:100D2000FFF727FC41EC190BB0EE490AF0EE690A17
:100D300004F0DAFEB0EE408AF0EE608A51EC180B57
:100D4000FFF75AFCA06594ED170A10EE101A08463A
:100D5000FFF70FFC41EC1B0BB0EE4B0AF0EE6B0AF9
:100D600004F0C2FEB0EE40AAF0EE60AA51EC1A0BFD
:100D700081F0004141EC180B94ED160A10EE101AA8
:100D80000846FFF7F6FB41EC190B53EC182BFFF765
:100D900003FC1BD294ED170A10EE101A0846FFF759
:100DA000E8FB41EC1A0BB0EE4A0AF0EE6A0A04F0D6
:100DB0009BFEB0EE409AF0EE609A51EC190B81F078
:100DC000004141EC180BFFF717FCA065BDEC088B48
:100DD00010BD10B52DED088B044694ED0B0A84ED83
:100DE0001B0A94ED010A84ED1C0A94ED1C0AD4ED53
:100DF0001B0A30EE600A84ED1D0A94ED1D0AD4ED45
:100E00001E0A30EE600AD4ED180A20EE200AD4ED56
:100E1000190A94ED1D1A00EE810AD4ED1F0A30EE76
:100E2000200A84ED1F0A94ED1D0A84ED1E0A94ED3C
:100E3000200A10EE101A0846FFF79BFB41EC1A0B34
:100E4000B0EE4A0AF0EE6A0A04F04EFEB0EE408AB6
:100E5000F0EE608A94ED1F0A10EE101A0846FFF7B4
:100E600088FB41EC190B53EC182BFFF7ADFB17D2A5
:100E700094ED200A10EE101A0846FFF77AFB41ECB9
:100E8000190BB0EE490AF0EE690A04F02DFEB0EE3F
:100E9000408AF0EE608A51EC180BFFF7ADFBE0677B
:100EA00094ED200A10EE101A0846FFF762FB41ECA1
:100EB0001B0BB0EE4B0AF0EE6B0A04F015FEB0EE21
:100EC00040AAF0EE60AA51EC1A0B81F0004141EC0F
:100ED000180B94ED1F0A10EE101A0846FFF749FB95
:100EE00041EC190B53EC182BFFF756FB1BD294ED7A
:100EF000200A10EE101A0846FFF73BFB41EC1A0BD4
:100F0000B0EE4A0AF0EE6A0A04F0EEFDB0EE409A46
:100F1000F0EE609A51EC190B81F0004141EC180B96
:100F2000FFF76AFBE067BDEC088B10BD10B5044607
:100F300004F12002111F081FD4F890309847207D3B
:100F4000032800DA10BDD4F88C008047072853D25C
:100F5000DFE800F05204111E2B38450094ED070A1B
:100F6000DFED270A30EEC00AD4ED080A30EE600A41
:100F700084ED060A41E094ED060ADFED210A30EE29
:100F8000C00AD4ED080A30EE600A84ED070A34E0A6
:100F900094ED060ADFED1A0A30EEC00AD4ED080A15
:100FA00030EE600A84ED070A27E094ED060ADFEDD3
:100FB000140A30EEC00AD4ED070A30EE600A84ED60
:100FC000080A1AE094ED060ADFED0D0A30EEC00AB9
:100FD000D4ED070A30EE600A84ED080A0DE094EDC6
:100FE000070ADFED070A30EEC00AD4ED080A30EE3A
:100FF000600A84ED060A00E000BF00BF00BFA1E761
:101000000000000010B5FFF7EBFC03F049FC0248BC
:1010100000F02EFF10BD00002803002001460878D4
:1010200010381823B0FBF3F20848805CC865032A27
:1010300005D908686FF30900001D886503E008689A
:101040006FF309008865886D704700000064000830
:10105000014600208A6A8B69CBB932B1012A0DD0D2
:10106000022A03D0032A10D10EE000BFCB6A03F09E
:101070008073B3F1807F00D1012007E0CB6AB3F128
:10108000C07F00D1012001E000E000BF34E08B69A7
:10109000B3F5005F1AD132B1012A07D0022A03D07A
:1010A000032A11D10AE000BF01200EE0CB6A03F051
:1010B0008073B3F1807F00D1012006E0CB6AB3F1E9
:1010C000C07F00D1012000E000BF15E032B1012A4D
:1010D00005D0022A04D0032A0CD103E000BF00BFD0
:1010E000012008E0CB6A03F08073B3F1807F00D168
:1010F000012000E000BF00BF704730B504682468DD
:1011000024F4802405682C60046863608468402CA3
:1011100004D10468A2600468E16003E00468A1608F
:101120000468E26030BD704710B54FF4005001F024
:10113000A9F810BD72B600BFFEE7000010B503F0BD
:1011400073FBDFED0B1A9FED0B1ADFED0B0A9FED22
:101150000A0A0A4803F04DFE0121084803F06CFE1C
:10116000DFED040A9FED030A03F0C4FF10BD000089
:101170006991DD400000000017B7513A24010020BA
:1011800010B50446204600F051F82046FFF7CEFE89
:101190002046FFF75BFD204603F0D3FB2046FFF718
:1011A0006BFD2046FFF715FE204603F097FB94EDFC
:1011B0000E1AF0EE410A94ED0D1AB0EE410AD4F881
:1011C0009400804710BD704770470000002002491E
:1011D0000860087170470000A00000200146104A16
:1011E00052F8212000EE102AB8EEC00ADFED0D0AF9
:1011F00020EE200A0A4A0C3252F8212000EE902AF2
:10120000F8EEE00A9FED081A01EE200ABDEEC00AD2
:1012100010EE100A024A0C3242F82100704700001A
:10122000C0090020CDCC4C3FCCCC4C3E10B5044680
:10123000D4F888008047607800EE900AF8EE600AE3
:1012400020EE200A84ED030A94ED030ADFED030A81
:1012500020EE200A84ED040A10BD00004DF38E3C00
:1012600010B54FF40071044801F01CF9012800D1B9
:1012700010BD0020FCE700000008024010B500F09F
:10128000BFF8DFED020A30EE600A10BD0000344303
:101290002DE9F0412DED048B04460D461646002045
:1012A000FFF79CFF404200EE100AB8EEC00ADFEDE7
:1012B0002B0A20EE200A10EE107A3846FFF759F973
:1012C00041EC190B9FED260B53EC102BFFF763F845
:1012D00041EC180BFFF790F920600120FFF77EFF2B
:1012E000404200EE100AB8EEC00ADFED1C0A20EE04
:1012F000200A10EE107A3846FFF73BF941EC190B43
:101300009FED170B53EC102BFFF745F841EC180B32
:10131000FFF772F928600220FFF760FF404200EEFD
:10132000100AB8EEC00ADFED0D0A20EE200A10EE1A
:10133000107A3846FFF71DF941EC190B9FED080BA9
:1013400053EC102BFFF727F841EC180BFFF754F97B
:101350003060BDEC048BBDE8F08100001EF9833CD9
:10136000000000000000F83F10B52DED028B00F0EA
:1013700047F8184880ED000A90ED000A1648D0EDB5
:10138000000A30EE600AB0EE408A9FED140AB4EE17
:10139000C08AF1EE10FA05D29FED110A38EE000A6C
:1013A000B0EE408A9FED0F0AB4EEC08AF1EE10FA5B
:1013B00005DD9FED0B0A38EE400AB0EE408A054885
:1013C00090ED000A044880ED000AB0EE480ABDEC3A
:1013D000028B10BDF8010020FC010020000034C386
:1013E0000000B4430000344310B5024800F004F894
:1013F00010BD0000CC000020014691F84400704769
:1014000000B500F029F800EE100AF8EEC00A9FEDD2
:101410000F1A80EE810ADFED0E0A20EE200A0D4839
:1014200080ED010A90ED010AB5EEC00AF1EE10FA66
:1014300007D290ED010ADFED060A30EE200A80EDBA
:10144000010A044890ED010A00BD000000000046BA
:101450000000B44398000020134801681348006856
:10146000406AA0F51C50103808440F49086042F249
:1014700010700E49096848620B480068002805DAB8
:101480000948006800F500500749086006490868E7
:10149000C11700EBD1414913A0EB4131024A116061
:1014A0001046006870470000980000205C0500208E
:1014B00090F8441007297CD2DFE801F07B04376AFA
:1014C0009FD2FD0090ED0D0ADFED9B0A20EE200A71
:1014D000D0ED100A80EE201A90ED030A21EE000AEA
:1014E00080ED090A90ED0D0ADFED930A20EE200A47
:1014F000D0ED100A80EE201A90ED020A21EE000ACB
:1015000080ED0B0A90ED0D0AD0ED090A30EE600A6D
:10151000D0ED0B0A30EE600AF0EE000A80EE201AE1
:1015200080ED0C1A80ED051A03E190ED0D0ADFED58
:10153000830A20EE200AD0ED100A80EE201A90EDEA
:10154000030A21EE000A80ED070A90ED0D0ADFED97
:101550007B0A20EE200AD0ED100A80EE201A90EDD2
:10156000040A21EE000A80ED0B0A90ED0D0AD0ED81
:10157000070A30EE600AD0ED0B0A30EE600AF0EE9A
:10158000000A80EE201A80ED0C1A80ED051AD0E0DA
:1015900090ED0D0ADFED680A60EE200A90ED101A5A
:1015A00080EE810AD0ED020A20EE200A80ED070AC3
:1015B00000E0BDE090ED0D0ADFED5F0A20EE200AAD
:1015C000D0ED100A80EE201A90ED040A21EE000AF8
:1015D00080ED080A90ED0D0AD0ED070A30EE600AA2
:1015E000D0ED080A30EE600AF0EE000A80EE201A14
:1015F00080ED0C1A80ED051A9BE090ED0D0ADFEDF1
:101600004F0A20EE200A90ED101AC0EE010A90ED6C
:10161000020A20EE800A80ED060A90ED0D0ADFED49
:10162000470A20EE200A90ED101AC0EE010A90ED54
:10163000030A20EE800A80ED080A90ED0D0AD0ED35
:10164000060A30EE600AD0ED080A30EE600AF0EECD
:10165000000A80EE201A80ED0C1A80ED051A68E071
:1016600090ED0D0ADFED340A60EE200A90ED101ABD
:1016700080EE810AD0ED040A20EE200A80ED060AF1
:1016800090ED0D0ADFED2C0A60EE200A90ED101AA5
:1016900080EE810AD0ED030A20EE200A80ED0A0ACE
:1016A00090ED0D0AD0ED060A30EE600AD0ED0A0A80
:1016B00030EE600A00E008E0F0EE000A80EE201A4A
:1016C00080ED0C1A80ED051A33E090ED0D0ADFED88
:1016D0001B0A60EE200A90ED101A80EE810AD0ED10
:1016E000040A20EE200A80ED090A90ED0D0ADFEDD4
:1016F000130A20EE200AD0ED100A80EE201A90ED99
:10170000020A21EE000A80ED0A0A90ED0D0AD0EDE2
:10171000090A30EE600AD0ED0A0A30EE600AF0EEF7
:10172000000A80EE201A80ED0C1A80ED051A00E008
:1017300000BF00BF704700002DB2DD3F2DB2DDBFFE
:1017400038B502460020009000BF92F83C00012806
:1017500001D1022038BD012082F83C0000BF08689A
:10176000092816D91068C0680C780A3C04EB4405B7
:101770000724AC40A0431468E0600C780A3C04EBFA
:1017800044048868A0401468E46820431468E0605A
:1017900013E0106800690C7804EB44050724AC40A2
:1017A000A043146820610C7804EB44048868A040CE
:1017B000146824692043146820614868072817D2F8
:1017C0001068406B0C79641E04EB84051F24AC4048
:1017D000A04314686063088880B20C79641E04EB2F
:1017E0008404A0401468646B20431468606331E093
:1017F00048680D2817D21068006B0C79E41F04EBC1
:1018000084051F24AC40A04314682063088880B27C
:101810000C79E41F04EB8404A0401468246B20437B
:101820001468206316E01068C06A0C790D3C04EB64
:1018300084051F24AC40A0431468E062088880B28D
:101840000C790D3C04EB8404A0401468E46A204346
:101850001468E062194B1A4C1068A04206D108685F
:10186000122803D1586840F480005860144C106866
:10187000A0421CD10868102802D00868112816D18F
:10188000586840F400005860086810280FD10D48CF
:1018900000680D4CB0FBF4F000EB800040000090BD
:1018A00002E00098401E009000980028F9D100BF87
:1018B000002082F83C0000BF00BF4BE7002301403E
:1018C000002001401400002040420F007047704784
:1018D0007047000070B5044600250CB9012070BDAA
:1018E0001549A06A884200D000BF206C30B920465C
:1018F00000F024F80020606484F83C00206C00F0C4
:10190000100088B9206C20F4885040F00200206458
:101910002046FFF7D9F800206064206C20F0020018
:1019200040F00100206400E0012500BF002084F8A1
:101930003C0000BF2846D2E70100000F10B586B07A
:101940000446142101A8FEF71BFD41492068884286
:101950004BD100BF002000903E48006840F48070EA
:101960003C4908600846006800F48070009000BFA1
:1019700000BF00BF0020009036481438006840F0D7
:1019800001003449143908600846006800F001007D
:10199000009000BF00BF7020019003200290002043
:1019A000039001A92C4800F07BFC2C482C490860CE
:1019B0000020486000212A488160C1604FF48061A6
:1019C000016189004161890081618911C161490218
:1019D00001620021416200F06BFB08B1FFF7AAFB36
:1019E00000BF1F48A06384632FE01E49206888421F
:1019F0002BD100BF002000901648006840F4007012
:101A0000144908600846006800F40070009000BFA8
:101A100000BF00BF002000900E481438006840F05E
:101A200004000C49143908600846006800F00400FE
:101A3000009000BF00BF30200190032002900020E2
:101A4000039001A9084800F02BFC06B010BD00006F
:101A5000002001404438024000000240106402406F
:101A6000280300200021014000080240F8B5044688
:101A70000D4616460020009000BF94F83C00012857
:101A800001D10220F8BD012084F83C0000BF20688D
:101A9000806800F00100A0B92068806840F0010073
:101AA00021688860554800685549B0FBF1F000EBAB
:101AB0004000009002E00098401E0090009800282E
:101AC000F9D12068806800F48070B0F5807F05D17E
:101AD0002068806820F480702168886020688068B1
:101AE00000F0010000287ED0206C40F201618843A4
:101AF00040F4807020642068406800F4806028B161
:101B0000206C20F4005040F480502064206C00F4DD
:101B10008050B0F5805F04D1606C20F006006064F6
:101B200001E00020606400BF002084F83C0000BF9A
:101B3000344F3548A16BC8633448A16B08643448FE
:101B4000A16BC8646FF022002168086020684068BB
:101B500040F08060216848602068806840F48070B0
:101B600021688860226802F14C0133462A46A06B46
:101B700000F014FB786800F01F0018BB25492068AE
:101B8000884213D024492068884204D1381D006857
:101B900000F01F0050B12149206888422BD119481C
:101BA000001D006800F01F00102824D22068806803
:101BB00000F04050F8B92068806840F0804021680B
:101BC000886018E013492068884214D12068806832
:101BD00000F0405078B92068806840F0804021686B
:101BE000886008E0FFE7206C40F010002064606C23
:101BF00040F001006064002044E700001400002071
:101C000040420F0000230140210A0008B90A0008E1
:101C10009F0A0008002001400021014000220140ED
:101C200070B504460CB9012070BD94F8200010B9BD
:101C3000204600F0AFF82068006820F0020021681C
:101C4000086000F03DFC05460DE000F039FC401B4B
:101C50000A2808D9606A40F400306062052084F8E0
:101C600020000120E0E72068406800F00200002822
:101C7000EBD12068006840F001002168086000F0A6
:101C80001FFC05460DE000F01BFC401B0A2808D98C
:101C9000606A40F400306062052084F82000012072
:101CA000C2E72068406800F001000028EBD0207EE9
:101CB000012806D12068006840F080002168086093
:101CC00005E02068006820F0800021680860607EE0
:101CD000012806D12068006840F0400021680860B3
:101CE00005E02068006820F0400021680860A07EC0
:101CF000012806D12068006840F0200021680860B3
:101D000005E02068006820F0200021680860E07E7F
:101D1000012806D12068006820F0100021680860C2
:101D200005E02068006840F0100021680860207F0E
:101D3000012806D12068006840F00800216808608A
:101D400005E02068006820F0080021680860607FD6
:101D5000012806D12068006840F00400216808606E
:101D600005E02068006820F0040021680860D4E9DC
:101D70000201084321690843616908436168491EFB
:101D800008432168C86100206062012084F82000B7
:101D9000002049E710B586B00446142101A8FEF7DB
:101DA000EFFA1B492068884230D100BF0020009024
:101DB0001848006840F0007016490860084600683E
:101DC00000F00070009000BF00BF00BF0020009036
:101DD00010481038006840F001000E4910390860C2
:101DE0000846006800F00100009000BF00BF4FF4FB
:101DF000C050019002200290002003900320049024
:101E00000920059001A9044800F04AFA06B010BD67
:101E100000640040403802400000024010B5044613
:101E20000CB9012010BD607920B900202071204636
:101E300000F004F8012060710020F3E708B50A4AB9
:101E4000016891420FD100BF002100910749096844
:101E500041F48051054A11601146096801F480512E
:101E6000009100BF00BF08BD003002403038024082
:101E7000F8B50446002000908C4800684FF41651D5
:101E8000B0FBF1F7A56D2E6894F85C10082088402F
:101E9000304098B12068006800F0040070B12068FC
:101EA000006820F004002168086094F85C100820A5
:101EB0008840A860606D40F00100606594F85C1097
:101EC00001208840304068B12068406900F08000FF
:101ED00040B194F85C1001208840A860606D40F02B
:101EE0000200606594F85C1004208840304068B1BE
:101EF0002068006800F0020040B194F85C100420F3
:101F00008840A860606D40F00400606594F85C1043
:101F100010208840304078B32068006800F0080046
:101F200050B394F85C1010208840A86020680068C6
:101F300000F4802080B12068006800F4002028B9F7
:101F4000206CC8B12046216C884715E0A06C98B180
:101F50002046A16C88470FE02068006800F480707C
:101F600028B92068006820F0080021680860206C0B
:101F700010B12046216C884794F85C1020208840DE
:101F80003040002865D02068006800F0100000286C
:101F90005FD094F85C1020208840A86094F8350049
:101FA000052828D12068006820F016002168086004
:101FB0002068406920F0800021684861206C08B9E1
:101FC000A06C28B12068006820F008002168086033
:101FD00094F85C103F208840A86000BF002084F87F
:101FE000340000BF012084F83500206D10B1204678
:101FF000216D8847F8BD2068006800F4802080B11A
:102000002068006800F4002028B9606C10B12046F8
:10201000616C88471DE0E06BD8B12046E16B8847D2
:1020200017E02068006800F4807068B920680068D4
:1020300020F010002168086000BF002084F8340000
:1020400000BF012084F83500E06B10B12046E16B41
:102050008847606D38B3606D00F00100F0B1052075
:1020600084F835002068006820F0010021680860CD
:1020700000BF0098401C0090B84200D905E02068DD
:10208000006800F001000028F3D100BF00BF00206D
:1020900084F8340000BF012084F83500E06C10B1F2
:1020A0002046E16C884700BFA4E700001400002030
:1020B0002DE9F0410446002500F002FA074614B964
:1020C0000120BDE8F081606A00B100BF00BF0020C0
:1020D00084F8340000BF022084F8350020680068CE
:1020E00020F00100216808600AE000F0E9F9C01B57
:1020F000052805D920206065032084F83500E0E735
:102100002068006800F001000028EED12068056812
:1021100021480540D4E901010843E16808432169E9
:10212000084361690843A1690843E1690843216ADA
:1021300008430543606A042803D1D4E90B0108432E
:102140000543206805602068456925F00705606A39
:102150000543606A04280DD1A06A0543E06A48B1CE
:102160002046FEF775FF28B140206065012084F805
:102170003500A6E7206845612046FEF74FFF06467A
:1021800094F85C103F208840B0600020606501201A
:1021900084F83500002094E73F8010F02DE9F047E7
:1021A00004460D4616461F464FF00008D4F85890D6
:1021B00000BF94F83400012802D10220BDE8F08766
:1021C000012084F8340000BF94F83500012825D19F
:1021D000022084F83500002060653B4632462946DF
:1021E0002046FEF78AFF94F85C103F208840C9F82B
:1021F00008002068006840F0160021680860206C24
:1022000028B12068006840F0080021680860206854
:10221000006840F001002168086006E000BF00206F
:1022200084F8340000BF4FF002084046C6E70000C3
:1022300070B5044600F044F906462546681C10B106
:1022400004480078054400BF00F03AF9801BA8421A
:10225000FAD370BD1000002010B50446B4F5005F3D
:102260000DD10748007930B9FFF7F6F80449086046
:102270000120087103E00249086802F04FFF10BD19
:10228000A000002010B5044604480068204020B19A
:10229000024804602046FFF7DFFF10BD143C0140F8
:1022A000F8B502460B460025002400200021DEE0A0
:1022B000012606FA01F51E6806EA0504AC4275D14E
:1022C0001E7906F00306012E04D01E7906F00306DF
:1022D000022E13D190684F000326BE40B0434F003A
:1022E000DE68BE4030439060506801268E40B043A7
:1022F0001E79C6F300168E40304350601E7906F0FA
:102300000306032E09D0D0684F000326BE40B04319
:102310004F009E68BE403043D0601E7906F0030631
:10232000022E13D1CF0802F1200656F827004E07DF
:10233000F70E0F26BE40B0434F07FF0E1E69BE408A
:102340003043CF0802F1200646F8270010684F00FE
:102350000326BE40B0431E7906F003064F00BE4080
:10236000304310605E6806F08056B6F1805F7DD124
:1023700000BF00260096404E366846F480463E4F29
:102380003E603E46366806F48046009600BF00BFB9
:102390003A4E8F0856F827008E07370F0F26BE409B
:1023A000B043374EB24202D1002624E05EE0354E03
:1023B000B24201D101261EE0334EB24201D10226C3
:1023C00019E0324EB24201D1032614E0304EB2423F
:1023D00001D104260FE02F4EB24201D105260AE0BA
:1023E0002D4EB24201D1062605E02C4EB24201D15B
:1023F000072600E008268F073F0FBE4030431F4EE0
:102400008F0846F82700264E3068A0435E6806F421
:102410008036B6F5803F00D12043214E3060361D16
:102420003068A0435E6806F40036B6F5003F00D180
:1024300020431B4E361D3060361D3068A0435E6859
:1024400006F48016B6F5801F00D12043144E0836DE
:102450003060361D3068A0435E6806F40016B6F59D
:10246000001F00D120430E4E0C363060491C10294D
:10247000FFF41EAFF8BD00004438024008380140A8
:10248000000002400004024000080240000C02402C
:10249000001002400014024000180240001C0240DC
:1024A000003C0140024613690B400BB1012000E0E3
:1024B000002070470AB1816101E00B04836170471D
:1024C00001480068704700000800002070B504460D
:1024D0000CB9012070BD94F83D0028B9002084F8A3
:1024E0003C00204600F0DAF8242084F83D00206803
:1024F000006820F00100216808602068006840F44E
:102500000040216808602068006820F400402168CD
:10251000086000F0CBFA05465C496068884206D83E
:102520005B48854201D2012007E0002005E05948C0
:10253000854201D2012000E00020012800D1C9E736
:102540005548B5FBF0F62068406820F03F00304366
:10255000216848604D496068884201D8701C07E0D6
:102560004FF4967070434FF47A71B0FBF1F0401C59
:102570002168096A21F03F01084321680862434944
:102580006068884214D8681E61684900B0FBF1F0A9
:10259000401CC0F30B00042801D204203DE0681E5B
:1025A00061684900B0FBF1F0401CC0F30B0034E05F
:1025B000A06838B9681E616801EB4101B0FBF1F019
:1025C000401C0AE0681E616801EBC10202EB0111C8
:1025D000B0FBF1F0401C40F48040C0F30B0008B9A0
:1025E00001201AE0A06848B9681E616801EB41014A
:1025F000B0FBF1F0401CC0F30B000CE0681E6168FA
:1026000001EBC10202EB0111B0FBF1F0401CC0F381
:102610000B0040F4804040F400402168C9694CF64A
:10262000FF72914308432168C861D4E90701084358
:102630002168096821F0C001084321680860D4E9D5
:10264000031008432168896848F2FF329143084328
:1026500021688860D4E9050108432168C96821F030
:10266000FF0108432168C8602068006840F001004D
:102670002168086000202064202084F83D000020AC
:10268000206384F83E0000BF24E70000A08601001C
:1026900080841E0000093D0040420F0010B586B046
:1026A0000446142101A8FDF76BFE2C4920688842DE
:1026B00051D100BF002000902948006840F002007E
:1026C000274908600846006800F00200009000BF3B
:1026D00000BF4FF44070019012200290012003903F
:1026E000032004900420059001A91E48FFF7D8FD9F
:1026F00000BF002000901A481030006840F400101D
:102700001749103108600846006800F40010009076
:1027100000BF00BF1448154908604FF000704860C2
:102720004021124881600021C1604FF48061016145
:10273000002141618161C1614FF4003101620021DA
:102740004162FFF7B5FC08B1FEF7F4FC00BF074893
:102750006063846300BF06B010BD000000540040F9
:102760003038024000040240B860024004040020F7
:102770000348006803490978084401490860704724
:10278000080000201000002010B50D48006840F43B
:1027900000700B4908600846006840F480600860DB
:1027A0000846006840F480700860032000F0A2F83A
:1027B000002000F007F800F02BF8002010BD00000A
:1027C000003C024070B504460E4800784FF47A7120
:1027D000B1FBF0F00C490968B1FBF0F5284600F0B8
:1027E000FFFC08B1012070BD102C07D20022214649
:1027F000501E00F041F80548046001E00120F2E7B6
:102800000020F0E710000020140000200C00002041
:1028100008B500BF002000900E48006840F48040DA
:102820000C4908600846006800F48040009000BF32
:1028300000BF00BF00200090081F006840F08050DB
:10284000091F08600846006800F08050009000BF33
:1028500000BF08BD4438024001460846002809DB95
:1028600000F01F0301229A4043099B0003F1E0237B
:10287000C3F8002100BF70472DE9F05F80460D4688
:102880001646002703F014F9074639462A46334610
:1028900001F00700C0F1070ABAF1040F02D94FF0A6
:1028A000040A01E0C0F1070AD14600F1040ABAF1B6
:1028B000070F02D24FF0000A01E0A0F1030AD4464C
:1028C0004FF0010A0AFA09FAAAF1010A0AEA020A11
:1028D0000AFA0CFA4FF0010B0BFA0CFBABF1010BEF
:1028E0000BEA030B4AEA0B042146404603F0E8F8E2
:1028F000BDE8F09F00BF00F00702064B19684FF6D5
:10290000FF031940044B0B4343EA0221014B1960BA
:1029100000BF70470CED00E00000FA0570B50446FA
:102920000D460CB9012070BD5848006800F0070042
:10293000A84209D255490D700846006800F007000A
:10294000A84201D00120EEE7207800F00200022822
:102950001DD1207800F00400042805D14C480068FF
:1029600040F4E0504A490860207800F00800082848
:1029700005D14748006840F4604045490860444834
:10298000006820F0F000A168084341490860207801
:1029900000F00100A8B36068012807D13C4808385E
:1029A0000068C0F34040B8B90120BCE76068022865
:1029B00002D06068032807D1354808380068C0F3A2
:1029C000406048B90120AEE7314808380068C0F3DC
:1029D000400008B90120A6E72D48006820F0030058
:1029E000616808432A490860FFF76AFD064609E066
:1029F000FFF766FD801B41F28831884202D903202F
:102A000091E707E02248006800F00C006168B0EB35
:102A1000810FEDD11D48006800F00700A84209D9D8
:102A20001A490D700846006800F00700A84201D05E
:102A3000012078E7207800F00400042807D114482A
:102A4000006820F4E050E1680843114908602078EC
:102A500000F00800082808D10D48006820F4604004
:102A6000216940EAC1000A49086000F02FF80849CE
:102A70000968C1F30311074A515CC8400649086060
:102A800006480068FFF79EFE00204CE7003C02402D
:102A90000838024008640008140000200C000020E0
:102AA00001480068704700001400002000B5FFF7DF
:102AB000F7FF04490968C1F38221034A515CC84009
:102AC00000BD000008380240186400082DE9F047F6
:102AD000002400250026A1462548006800F00C00CF
:102AE00020B1042805D008283AD105E0DFF8849009
:102AF00039E0DFF8849036E01D48001F006800F0E0
:102B00003F041B48001F006800F4800078B11A4899
:102B10001749091F0968C1F38811A0FB017001461C
:102B2000224600233846FDF7D3FB05460EE0114848
:102B30000F49091F0968C1F38811A0FB0170014604
:102B4000224600233846FDF7C3FB05460848001F10
:102B50000068C0F30140401C4600B5FBF6F902E0F6
:102B6000DFF8109000BF00BF4846BDE8F0870000C6
:102B7000083802400024F40000127A00F8B5044638
:102B80000CB90120F8BD207800F00100002874D0B5
:102B9000F948006800F00C0004280DD0F6480068E1
:102BA00000F00C00082813D1F348001F006800F45F
:102BB0008000B0F5800F0BD1EF4808380068C0F3F3
:102BC0004040002859D06068002856D10120D9E73C
:102BD00000BF6068B0F5803F08D1E748083800685A
:102BE00040F48030E449083908601EE06068B0F5C0
:102BF000A02F0DD1E0480838006840F48020DE495D
:102C0000083908600846006840F4803008600CE02D
:102C1000D9480838006820F48030D749083908605E
:102C20000846006820F48020086000BF606890B10A
:102C3000FFF746FC054606E0FFF742FC401B642810
:102C400001D903209EE7CC4808380068C0F3404013
:102C50000028F1D011E0FFF733FC054606E0FFF74E
:102C60002FFC401B642801D903208BE7C248083899
:102C70000068C0F340400028F1D1207800F0020045
:102C800002285FD1BC48006800F00C0058B1BA4877
:102C9000006800F00C0008281CD1B748001F00682D
:102CA00000F48000B0B9B44808380068C0F34000B0
:102CB00020B1E068012801D0012063E7AE48083860
:102CC000006820F0F800216940EAC100AA490839EB
:102CD000086037E0E06800B30120A8490860FFF70A
:102CE000EFFB054606E0FFF7EBFB401B022801D98E
:102CF000032047E7A04808380068C0F340000028D8
:102D0000F1D09D480838006820F0F800216940EAB9
:102D1000C10099490839086014E00020974908600B
:102D2000FFF7CEFB054606E0FFF7CAFB401B022873
:102D300001D9032026E7904808380068C0F3400016
:102D40000028F1D1207800F0080008282CD1606913
:102D5000A8B101208A490860FFF7B2FB054606E0EA
:102D6000FFF7AEFB401B022801D903200AE7824887
:102D70006C300068C0F340000028F1D014E000205F
:102D80007F490860FFF79CFB054606E0FFF798FBCC
:102D9000401B022801D90320F4E677486C30006814
:102DA000C0F340000028F1D1207800F0040004288E
:102DB00070D1002770483830006800F0805090B91A
:102DC00000BF002000906C483830006840F0805010
:102DD0006949383108600846006800F0805000906A
:102DE00000BF00BF01276748006800F48070B0B9D9
:102DF0006448006840F4807062490860FFF760FB37
:102E0000054606E0FFF75CFB401B022801D90320C2
:102E1000B8E65C48006800F480700028F2D000BF7B
:102E2000A068012808D154486830006840F00100CB
:102E30005149683108601DE0A06805280DD14E4851
:102E40006830006840F004004B496831086008466B
:102E5000006840F0010008600CE0474868300068F6
:102E600020F001004449683108600846006820F0FD
:102E70000400086000BFA068A8B1FFF721FB054669
:102E800009E0FFF71DFB401B41F28831884202D95F
:102E9000032077E626E0384868300068C0F3400039
:102EA0000028EED013E0FFF70BFB054608E0FFF724
:102EB00007FB401B41F28831884201D9032061E6BB
:102EC0002D4868300068C0F340000028EFD1012F82
:102ED00007D129483830006820F080502649383121
:102EE000086000BFA069002845D02348006800F0B2
:102EF0000C0008285DD0A069022845D100201F4998
:102F00000866FFF7DDFA054606E0FFF7D9FA401B31
:102F1000022801D9032035E6174808380068C0F3B5
:102F200040600028F1D1D4E907010843616A40EA12
:102F300081110122A06AC2EB500041EA00412C201D
:102F4000005D41EA00600C49091F086001200B493F
:102F50000866FFF7B5FA054606E0FFF7B1FA401B31
:102F6000022801D903200DE6034808380068C0F3A1
:102F700040600028F1D049E0083802400000474294
:102F8000800E474200700040002021490866FFF78C
:102F900097FA054606E0FFF793FA401B022801D98D
:102FA0000320EFE51B480068C0F340600028F2D121
:102FB0002CE0A069012800D1E4E51648001D066850
:102FC000A069012820D006F48001E06981421BD16C
:102FD00006F03F01206A814216D147F6C0703040AA
:102FE000616AB0EB811F0FD106F440310122A06A63
:102FF000C2EB5000B1EB004F06D106F070612C20FF
:10300000005DB1EB006F01D00120BBE50020B9E508
:10301000000047420038024010B504460CB90120B8
:1030200010BD606A38B96068B0F5827F00D105E0F4
:103030000021E16102E00021216161610021A162C2
:1030400094F8510028B9002084F85000204600F080
:1030500047F8022084F851002068006820F0400002
:1030600021680860A08800F48270218901F404417D
:103070000843A18901F400610843217C01F00201A9
:103080000843217D01F001010843218B01F4007107
:103090000843217F01F0380108432021095D01F038
:1030A00080010843218D01F4005108432168086024
:1030B0000421A06901EA104094F8241001F01001E5
:1030C0000843216848602068C06920F400602168D6
:1030D000C86100206065012084F8510000209FE74E
:1030E00010B586B00446142101A8FDF749F9374907
:1030F0002068884230D100BF00200090344800682A
:1031000040F48050324908600846006800F480505E
:10311000009000BF00BF00BF002000902C48143872
:10312000006840F002002A49143908600846006827
:1031300000F00200009000BF00BF38200190022084
:10314000029000200390032004900520059001A91F
:103150002048FFF7A5F836E01F492068884232D1A1
:1031600000BF002000901A48001F006840F4004093
:103170001749091F08600846006800F400400090E5
:1031800000BF00BF00BF0020009011481438006845
:1031900040F004000E49143908600846006800F049
:1031A0000400009000BF00BF4FF4E05001900220E7
:1031B000029000200390032004900620059001A9AE
:1031C0000648FFF76DF806B010BD00000030014062
:1031D0004438024000040240003C00400008024025
:1031E00070B504462546681EB0F1807F01D30120EA
:1031F0000FE0681E4FF0E02148610F214FF0FF30D3
:1032000002F05EFC00204FF0E02188610720086199
:10321000002070BD7047704710B50346002200BF04
:1032200093F83C00012801D1022010BD012083F851
:103230003C0000BF22F0FF00CC6840EA040222F408
:1032400040708C6840EA040222F480604C6840EAD6
:10325000040222F400600C6840EA040222F4805068
:103260000C6940EA040222F400504C6940EA04026E
:1032700022F48040CC6940EA04021868426400BF2E
:10328000002083F83C0000BF00BFCEE730B5024607
:103290000B4600BF92F83C00012801D1022030BD4E
:1032A000012082F83C0000BF022082F83D00106837
:1032B00044681068816824F070041868044310683A
:1032C0004460184D1068A8421BD01068B0F1804FC0
:1032D00017D0154D1068A84213D0144D1068A8429D
:1032E0000FD0134D1068A8420BD0124D1068A842A1
:1032F00007D0114D1068A84203D0104D1068A842A5
:1033000005D121F0800158680143106881600120D7
:1033100082F83D0000BF002082F83C0000BF00BFE3
:10332000BDE700000000014000040040000800402C
:10333000000C004000040140004001400018004023
:1033400070B504460D4615B994F842000BE0042D03
:1033500002D14320005D06E0082D02D14420005D2B
:1033600001E04520005D012801D0012070BD1DB99C
:10337000022084F842000EE0042D03D102214320F4
:10338000015508E0082D03D102214420015502E037
:1033900002214520015504222946206802F007FA3F
:1033A0002068406C40F40040216848641A49206855
:1033B00088421BD02068B0F1804F17D01749206891
:1033C000884213D01649206888420FD015492068DA
:1033D00088420BD014492068884207D013492068DE
:1033E000884203D01249206888420CD12068806846
:1033F00000F00706062E0CD02068006840F001009F
:103400002168086005E02068006840F0010021683C
:1034100008600020AAE7000000000140000400400E
:1034200000080040000C0040000401400040014042
:103430000018004010B504460CB9012010BD94F8E6
:103440003D0028B9002084F83C00204600F026F812
:10345000022084F83D00211D206802F02BF9012094
:1034600084F8460000BF84F83E0001213F2001554A
:10347000402001554120015500BF00BF012084F8C4
:10348000420043200155442001554520015500BF0D
:10349000012084F83D000020D0E7000038B5044644
:1034A0000E492068884217D100BF002000900C48C8
:1034B000006840F001000A4908600846006800F012
:1034C0000100009000BF00BF002203211B20FFF776
:1034D000D3F91B20FFF7C0F938BD00000000014000
:1034E00044380240014691F83D00012801D00120F6
:1034F0007047022081F83D000868C06840F0010074
:103500000B68D8601A4B086898421BD00868B0F165
:10351000804F17D0174B0868984213D0164B086895
:1035200098420FD0154B086898420BD0144B08688E
:10353000984207D0134B0868984203D0124B086892
:1035400098420CD10868806800F00702062A0CD067
:103550000868006840F001000B68186005E0086822
:10356000006840F001000B6818600020C0E7000010
:10357000000001400004004000080040000C004032
:103580000004014000400140001800400146086866
:10359000C06820F001000A68D06000BF0868006AB7
:1035A00041F21112104050B90868006A92101040A0
:1035B00028B90868006820F001000A68106000BFA0
:1035C000012081F83D00002070472DE9F0410446BC
:1035D0000D4600BF94F83C00012802D10220BDE84E
:1035E000F081012084F83C0000BF022084F83D00F7
:1035F0002068866826F0770626F47F462068866075
:103600002868502833D00CDC202850D004DC002857
:103610004BD0102851D149E0302849D040284CD116
:1036200039E060282DD0702807D0B0F5805F03D036
:10363000B0F5005F41D10DE040E0D5E902136A68C2
:10364000206802F0C5F82068866846F07706206892
:10365000866033E0D5E902136A68206802F0B8F8A2
:103660002068806840F480402168886026E0EA682D
:103670006968206802F09CF95021206802F0B3F8D4
:103680001CE0EA686968206802F0A5F960212068FA
:1036900002F0A9F812E0EA686968206802F088F987
:1036A0004021206802F09FF808E000BF00BF00BF83
:1036B0002968206802F097F800E000BF00BF0120F1
:1036C00084F83D0000BF002084F83C0000BF00BF2C
:1036D00085E72DE9F04104460D4614B90120BDE807
:1036E000F08194F83D0028B9002084F83C00204681
:1036F00000F054F8022084F83D002068806844F20D
:103700000701884321688860211D206801F0D2FFED
:103710002068D0F80880206886692068076A2868D1
:1037200040EA080840F203308643A969A86840EAE5
:103730000120064340F60C4086434FF2F0008643DA
:10374000E969E86840EA0120064328690001296A1E
:1037500040EA0130064327F0220727F0880769690D
:10376000686840EA011007432068C0F808802068B4
:10377000866120680762012084F8460084F83E00D4
:1037800001213F200155012084F8420043200155CA
:10379000012084F83D000020A1E7000010B586B0AC
:1037A0000446142101A8FCF7EBFD1A492068884261
:1037B0002ED100BF002000901748006840F00400A0
:1037C000154908600846006800F00400009000BF3A
:1037D00000BF00BF002000900F481038006840F084
:1037E00002000D49103908600846006800F0020028
:1037F000009000BF00BFC020019002200290002076
:10380000039004900220059001A90448FEF748FDAA
:1038100006B010BD000800404038024000040240DD
:103820002DE9F04304460D4694F83E603F20075DC5
:1038300094F84280432010F804906DB9012E02D113
:10384000B8F1010F02D00120BDE8F083022084F816
:103850003E0084F8420025E0042D0CD1012F02D156
:10386000B9F1010F01D00120EEE702213F200155FF
:103870004320015516E0012E07D1012F05D1B8F1E3
:10388000010F02D1B9F1010F01D00120DCE70220C4
:1038900084F83E0002213F200155022084F84200B6
:1038A0004320015515B1042D0CD105E00122002162
:1038B000206801F06BFF10E001220421206801F074
:1038C00065FF0AE001220021206801F05FFF01226C
:1038D0000421206801F05AFF00BF00BF2068006883
:1038E00040F00100216808600020ADE7704710B586
:1038F000044620680069C0F34000D8B12068C06861
:10390000C0F34000B0B16FF00200216808610120EF
:1039100020772068806900F0030018B12046FFF787
:10392000E5FF05E0204600F0FDF8204600F0ADF987
:103930000020207720680069C0F38000D8B120689B
:10394000C068C0F38000B0B16FF004002168086166
:10395000022020772068806900F4407018B120466A
:10396000FFF7C4FF05E0204600F0DCF8204600F039
:103970008CF90020207720680069C0F3C000D8B11E
:103980002068C068C0F3C000B0B16FF008002168C3
:103990000861042020772068C06900F0030018B196
:1039A0002046FFF7A3FF05E0204600F0BBF82046C5
:1039B00000F06BF90020207720680069C0F3001048
:1039C000D8B12068C068C0F30010B0B16FF010002B
:1039D00021680861082020772068C06900F44070E1
:1039E00018B12046FFF782FF05E0204600F09AF864
:1039F000204600F04AF9002020772068006900F096
:103A0000010058B12068C06800F0010030B16FF0CB
:103A1000010021680861204600F0E4FA206800698E
:103A2000C0F3C01058B12068C068C0F3C01030B1F6
:103A30006FF08000216808612046FFF7EBFB2068EB
:103A40000069C0F3801058B12068C068C0F38010CE
:103A500030B16FF0400021680861204600F0C3FAE1
:103A600020680069C0F3401058B12068C068C0F3F6
:103A7000401030B16FF02000216808612046FFF748
:103A8000CAFB10BD10B586B00446142101A8FCF78E
:103A900077FC20492068884239D100BF002000907F
:103AA0001D48006840F001001B4908600846006896
:103AB00000F00100009000BF00BF00BF0020009098
:103AC0000846006840F0020008600846006800F000
:103AD0000200009000BF00BF4FF4F0600190022090
:103AE00002900020039004900120059001A90B484A
:103AF000FEF7D6FB032001900220029000200390E5
:103B000004900120059001A90548FEF7C9FB06B005
:103B100010BD0000000001403038024000000240AB
:103B200000040240704770B504460D46164600BFBB
:103B300094F83C00012801D1022070BD012084F8D6
:103B40003C0000BF36B1042E1BD0082E31D00C2E05
:103B50005ED145E02946206801F04EFE206880696C
:103B600040F00800216888612068806920F0040026
:103B70002168886120688069296908432168886113
:103B800047E02946206801F06FFE2068806940F414
:103B90000060216888612068806920F48060216865
:103BA000886120688069296940EA0120216888616C
:103BB0002FE02946206801F095FE2068C06940F09A
:103BC00008002168C8612068C06920F004002168ED
:103BD000C8612068C069296908432168C86118E084
:103BE0002946206801F0BAFE2068C06940F40060F0
:103BF0002168C8612068C06920F480602168C861BC
:103C00002068C069296940EA01202168C86100E094
:103C100000BF00BF00BF002084F83C0000BF00BF11
:103C20008BE710B504460CB9012010BD94F83D0097
:103C300028B9002084F83C00204600F025F8022036
:103C400084F83D00211D206801F034FD012084F836
:103C5000460000BF84F83E0001213F20015540206E
:103C600001554120015500BF00BF012084F84200EA
:103C700043200155442001554520015500BF012036
:103C800084F83D000020D0E77047704770B50446C7
:103C90000D4615B994F83E000BE0042D02D13F20EB
:103CA000005D06E0082D02D14020005D01E04120CA
:103CB000005D012801D0012070BD1DB9022084F8EB
:103CC0003E000EE0042D03D102213F20015508E003
:103CD000082D03D102214020015502E0022141209C
:103CE000015501222946206801F050FD2349206832
:103CF000884203D022492068884201D1012000E097
:103D0000002028B12068406C40F4004021684864DD
:103D10001A49206888421BD02068B0F1804F17D024
:103D200018492068884213D01749206888420FD06C
:103D30001649206888420BD011492068884207D074
:103D400013492068884203D01249206888420CD168
:103D50002068806800F00706062E0CD020680068F6
:103D600040F001002168086005E02068006840F02C
:103D700001002168086000209EE70000000001406B
:103D8000000401400004004000080040000C004016
:103D9000004001400018004070B504460D4615B9BA
:103DA00094F83E000BE0042D02D13F20005D06E0B8
:103DB000082D02D14020005D01E04120005D012876
:103DC00001D0012070BD1DB9022084F83E000EE034
:103DD000042D03D102213F20015508E0082D03D115
:103DE00002214020015502E002214120015535B158
:103DF000042D0BD0082D10D00C2D1CD114E0206800
:103E0000C06840F002002168C86015E02068C06802
:103E100040F004002168C8600EE02068C06840F0EF
:103E200008002168C86007E02068C06840F0100002
:103E30002168C86000E000BF00BF01222946206859
:103E400001F0A4FC23492068884203D0224920685D
:103E5000884201D1012000E0002028B12068406C98
:103E600040F40040216848641A49206888421BD009
:103E70002068B0F1804F17D018492068884213D0CD
:103E80001749206888420FD01649206888420BD015
:103E900011492068884207D013492068884203D01E
:103EA0001249206888420CD12068806800F007061B
:103EB000062E0CD02068006840F0010021680860E0
:103EC00005E02068006840F00100216808600020DB
:103ED00078E70000000001400004014000040040B9
:103EE00000080040000C0040004001400018004065
:103EF00030B504460D4635B1042D0BD0082D10D039
:103F00000C2D1CD114E02068C06820F0020021684C
:103F1000C86015E02068C06820F004002168C8600F
:103F20000EE02068C06820F008002168C86007E043
:103F30002068C06820F010002168C86000E000BF61
:103F400000BF00222946206801F020FC2349206898
:103F5000884203D022492068884201D1012000E034
:103F6000002090B100BF2068006A41F211110840A2
:103F700050B92068006A8910084028B92068406C50
:103F800020F400402168486400BF00BF2068006A38
:103F900041F21111084050B92068006A89100840A8
:103FA00028B92068006820F001002168086000BF7F
:103FB0001DB9012084F83E000EE0042D03D101213B
:103FC0003F20015508E0082D03D101214020015573
:103FD00002E0012141200155002030BD00000140D8
:103FE000000401407047704700BFFEE710B52DED9B
:103FF000048B0446194920680968081A00EE100A63
:10400000B8EE400AD4ED060A9FED151A60EE810A5B
:10401000B4EEE00AF1EE10FA01DB012000E000202E
:10402000C0B10E4A21681268501AFCF795FA41ECAB
:10403000190B9FED0C0B53EC102BFCF71EFA41EC07
:10404000180BFCF7D9FAA0600448006820602046ED
:1040500000F01AF8BDEC048B10BD00008C020020AB
:1040600000007A440000000000408F4070470000CC
:1040700010B50348FFF7BAFF0248FFF7B7FF10BDBE
:104080003C0200205C02002070B50446E0698047D5
:104090000546E079A8421BD10120607194ED030A26
:1040A000D4ED020A30EE200A84ED030AA07901283B
:1040B00000D170BD94ED030AD4ED050AB4EEE00A18
:1040C000F1EE10FA23DD052020710120A0711EE021
:1040D0000020607194ED030AD4ED050AB4EEE00A05
:1040E000F1EE10FA02DD042020710AE094ED030ADB
:1040F000D4ED040AB4EEE00AF1EE10FA01DD03207B
:1041000020719FED060A84ED030A0020A071217939
:1041100003A001F0BDFC00BFCBE7000000000000E1
:104120004B65794576656E743A25640D0A0000008A
:1041300010B52DED028B0446B0EE408AB0EE480A71
:104140002146034800F09BFEBDEC028B10BD000031
:10415000B800002010B5B7EE000A0220FFF7E8FF14
:1041600010BD000010B5024800F004F810BD0000BA
:10417000B800002010B50446104920680968081AE4
:1041800000EE100AB8EE400AD4ED020A9FED0C1AB8
:1041900060EE810AB4EEE00AF1EE10FA01DB0120D4
:1041A00000E0002040B10548006820602079022826
:1041B00002D1204600F006F810BD00007C0200206D
:1041C00000007A4410B50446607908B9012000E087
:1041D0000020607160792169884710BD10B501F039
:1041E00037FA01F023FCFCF7F1FF10BD70B507486A
:1041F0000468074800681430844206D3FDF730F89D
:10420000054600F00DFE0248046070BD94000020D9
:10421000900000201FB500200090019002900390B4
:104220002148224908604FF48030486000211F482F
:104230008160012101610021017680F82010C162B6
:104240001B4981620021C1600321C161012180F805
:10425000301000214161FDF73DFB08B1FCF76AFF1A
:1042600004200090012001900020029069460F4830
:10427000FDF766FA08B1FCF75DFF0520009002200B
:10428000019069460948FDF75BFA08B1FCF752FF57
:10429000062000900320019069460448FDF750FA7B
:1042A00008B1FCF747FF1FBD002001409802002025
:1042B0000100000F1FB500200090019002900390B4
:1042C0001548164908604FF48030486000211348B3
:1042D00081600161017680F82010C162104981621D
:1042E0000021C1600121C161002180F8301001214D
:1042F0004161FDF7EFFA08B1FCF71CFF0E200090BA
:10430000012001900020029069460448FDF718FA48
:1043100008B1FCF70FFF1FBD00210140E0020020A3
:104320000100000F10B50B480B49086010204860D1
:10433000002109488160C1600161416101764176D7
:104340008176C17601774177FDF76AFC08B1FCF709
:10435000F1FE10BD006400408803002010B5054840
:10436000054908600846FDF759FD08B1FCF7E2FE73
:1043700010BD0000003002400000002008B500BF62
:10438000002000901248006840F480001049086046
:104390000846006800F48000009000BF00BF00BF26
:1043A000002000900846006840F4001008600846AD
:1043B000006800F40010009000BF00BF002202213E
:1043C0003820FEF759FA3820FEF746FA08BD0000FB
:1043D0003038024000B587B0142102A8FBF7D0FFA7
:1043E00000BF002001907448006840F0040072494A
:1043F00008600846006800F00400019000BF00BF9C
:1044000000BF002001900846006840F0800008606E
:104410000846006800F08000019000BF00BF00BFA8
:10442000002001900846006840F00100086008463E
:10443000006800F00100019000BF00BF00BF002035
:1044400001900846006840F00200086008460068D5
:1044500000F00200019000BF00BF00BF00200190EB
:104460000846006840F0080008600846006800F050
:104470000800019000BF00BF002248F208014F4829
:10448000FEF718F800224FF470414D48FEF712F87D
:1044900000224FF450714B48FEF70CF80022042123
:1044A0004948FEF707F84FF4005002904748039040
:1044B0000020049002A94348FDF7F2FE0320029079
:1044C000002003900120049002A93E48FDF7E8FE79
:1044D0000320029002200390002004900590012008
:1044E000069002A93548FDF7DBFE08200290012066
:1044F000039004900020059002A93048FDF7D0FEFB
:104500004FF44060029002200390002004900320AA
:1045100005900720069002A92948FDF7C1FE4FF437
:10452000704002900120039000200490059002A9A1
:104530002348FDF7B5FE402002900120039004902F
:10454000059002A91F48FDF7ABFE802002900020D5
:104550000390049002A91B48FDF7A2FE4FF440709F
:1045600002900120039004900020059002A91548B4
:10457000FDF796FE4FF400400290012003900020CA
:104580000490059002A90D48FDF78AFE04200290D0
:104590000120039000200490059002A90A48FDF72D
:1045A0007FFE002201212820FEF766F92820FEF771
:1045B00053F907B000BD000030380240000002404F
:1045C0000004024000080240000C024000001110EC
:1045D00010B50B480B4908600B484860002109489A
:1045E0008160C1604FF480410161002141618161BE
:1045F000C1610162FDF76AFF08B1FCF79BFD10BDC8
:1046000000540040B0030020A086010010B50E4801
:104610000E4908604FF48270486000210B488160A9
:10462000C160016141614FF4007181610021C1618C
:104630000162416281620A21C162FEF7EDFC08B1AC
:10464000FCF778FD10BD000000300140640400203C
:1046500010B50E480E4908604FF482704860002182
:104660000B488160C160016141614FF4007181615B
:104670000021C1610162416281620A21C162FEF7CB
:10468000CBFC08B1FCF756FD10BD0000003C00401B
:10469000BC04002000B595B000201190129013903A
:1046A00014900F9010901C2108A8FBF769FE2021A0
:1046B0006846FBF765FE3A483A49086001204860C1
:1046C00040213848816041F26701C16000210161E9
:1046D000416180218161FEF7ADFE08B1FCF72AFD42
:1046E0004FF48050119011A92E48FEF76EFF08B1CB
:1046F000FCF720FD2B48FFF794FA08B1FCF71AFDF0
:1047000070200F90002010900FA92648FEF7BEFDE4
:1047100008B1FCF70FFD60200890002009900A9076
:104720000B900C900D900E90002208A91D48FFF7E9
:10473000FAF908B1FCF7FEFC042208A91948FFF7B2
:10474000F2F908B1FCF7F6FC082208A91548FFF7B2
:10475000EAF908B1FCF7EEFC0C2208A91148FFF7B2
:10476000E2F908B1FCF7E6FC4FF40060009040105D
:1047700001900020029064200390002004904FF4E8
:10478000005005900020079069460648FEF744FD5A
:1047900008B1FCF7CFFC0348FFF774F915B000BD72
:1047A000000001401405002000B58BB0242102A8B0
:1047B000FBF7E6FD002000900190184818490860BA
:1047C0000020486000211648816044F62061C160E5
:1047D00000210161816103200290002003900120EB
:1047E000049000200590069007900120089000207A
:1047F00009900A9002A90A48FEF76BFF08B1FCF77E
:1048000099FC00200090019069460548FEF73EFDA6
:1048100008B1FCF78FFC0BB000BD000000080040A1
:104820005C05002000BFFEE710B5012000F060FB32
:104830009FED180A00F0BEFB9FED170A00F0E2FBA7
:104840009FED150A00F006FC4FF4FA70FDF7F0FC3E
:10485000002406E001F004F93220FDF7E9FC601CB9
:10486000C4B20A2CF6DB9FED0D0A00F0A3FB9FED0E
:104870000B0A00F0C7FB9FED090A00F0EBFB0020DC
:1048800000F036FBFCF7A2FC4FF4FA60FDF7D0FC19
:1048900010BD000000007042000020420000000037
:1048A00010B50248FCF76CFC10BD0000240100208C
:1048B00010B52DED028BB0EE408AF0EE608AF0EE7E
:1048C000680AB0EE480A034800F0CEFCBDEC028B4B
:1048D00010BD0000CC00002000BFFEE710B52DED9C
:1048E000028B0446D4ED040AB0EE600AFBF76AFCC2
:1048F000D4ED160A20EE208AD4ED040AB0EE600A48
:10490000FBF79CFCD4ED1F0A00EEC08A84ED0D8AF3
:10491000D4ED040AB0EE600AFBF790FCD4ED160A61
:1049200020EE208AD4ED040AB0EE600AFBF74AFCC0
:10493000D4ED1F0A00EE808A84ED0E8ABDEC028B56
:1049400010BD10B52DED028B0446D4ED040AB0EE77
:10495000600AFBF737FCD4ED090A20EE208AD4ED7B
:10496000040AB0EE600AFBF769FCD4ED0A0A00EE17
:10497000808A84ED0C8AD4ED040AB0EE600AFBF75D
:104980005DFCD4ED090AF1EE600A20EE208AD4ED38
:10499000040AB0EE600AFBF715FCD4ED0A0A00EE3B
:1049A000808A84ED0B8ABDEC028B10BD704710B578
:1049B000FFF7D0FBFFF75AFBFCF7C0FB00F0B4FB9E
:1049C00000F044F810BD000010B51A4804681A48F9
:1049D00000681430844203D300F05EF81648046087
:1049E000144804681548006800F57A60844217D3BB
:1049F0001348006838B90120114908609FED110A79
:104A000000F08CFA0AE00E480068012806D1002068
:104A10000B4908609FED0C0A00F080FA074804601B
:104A200000F0A0FB00F030F8FFF79CFBFFF720FB45
:104A300010BD000094000020B0000020B400002051
:104A4000A8000020000007430000344210B5B7EE74
:104A5000000A094800F072FA9FED081ADFED080A13
:104A60009FED080A044800F06FFA9FED050A02481E
:104A700000F071FA10BD000000020020295C0F3D1B
:104A8000000000008FC2753D10B5024800F098F894
:104A900010BD00000002002010B5024800F0B4F87C
:104AA00010BD00000002002010B52DED028B044661
:104AB000606B804784ED060A94ED060AD4ED050A82
:104AC00030EE600AB0EE408A9FED390AB4EEC08A3B
:104AD000F1EE10FA06DD9FED370A38EE400AB0EE2F
:104AE000408A0CE09FED340AB4EEC08AF1EE10FA71
:104AF00005D29FED300A38EE000AB0EE408A9FEDF5
:104B00002F0A30EE480A84ED070A94ED020AD4ED2C
:104B1000070A20EE200AD4ED070A94ED081A70EE79
:104B2000C10A94ED031A01EE200AD4ED040A94EDB3
:104B3000091A00EE810A84ED0A0A94ED070A84ED51
:104B4000080A94ED090AD4ED070A30EE200A84ED34
:104B5000090A94ED0A0AD4ED0B0AB4EEE00AF1EE6C
:104B600010FA04DD94ED0B0A84ED0A0A10E094EDCE
:104B70000A0AD4ED0B0AF1EE600AB4EEE00AF1EE97
:104B800010FA05D294ED0B0AB1EE400A84ED0A0A40
:104B9000207818B99FED090A84ED0A0AD4ED0A0AB3
:104BA000B0EE600AA06B8047BDEC028B10BD000028
:104BB000000034430000B443000034C30000000090
:104BC00010B504460E4960680968081A00EE100A1C
:104BD000B8EE400AD4ED0C0A9FED0A1A60EE810A85
:104BE000B4EEE00AF1EE10FA01DB012000E0002053
:104BF00028B10348006860602046FFF755FF10BDEC
:104C00008402002000007A4410B52DED028B04468A
:104C100094ED060A10EE101A0846FBF7AAFC41ECC8
:104C2000180B53EC182B0AA000F032FF94ED050A84
:104C300010EE101A0846FBF79CFC41EC180B53ECE5
:104C4000182B05A000F024FFBDEC028B10BD000066
:104C5000353A25660D0A0000363A25660D0A000031
:104C600010B502210148FDF71DFC10BD00080240EF
:104C700010B501210148FDF715FC10BD00080240E8
:104C80002DE9F04704468946164600F0FFFE04EB86
:104C90004401564800EBC100007D00F003000228EB
:104CA00027D004EB4401514800EBC100D0F810803C
:104CB00004EB44014D4800EBC100C068A8EB0000C4
:104CC000451E002D06DA04EB4401484800EBC10004
:104CD00080680544AE420CDD04EB4401434800EB20
:104CE000C100007D00F0030010B90020BDE8F0878E
:104CF0002E460EB90020F9E7002700BF04EB44015F
:104D00003A4800EBC100D0F8108004EB440137486A
:104D100000EBC100C068A8EB0000451E002D06DABC
:104D200004EB4401314800EBC1008068054404EB0A
:104D300044012E4800EBC10004EB440281682B487B
:104D400000EBC200C068081AA84201DD28460CE04A
:104D500004EB4401254800EBC10004EB44028168E8
:104D6000224800EBC200C068081A0546B54201DAC5
:104D7000284600E03046054604EB44021B4901EB9F
:104D8000C20104EB44034A68184901EBC301C96836
:104D900050182A464946FBF7CCFA2F44A944761B03
:104DA00004EB4401114800EBC100C068411904EB59
:104DB00044020E4800EBC200C16004EB44010B4802
:104DC00000EBC100C16804EB4402084800EBC200DC
:104DD0008068814206D1002104EB4402034800EBC5
:104DE000C200C160002E89D138467FE73000002024
:104DF000704780ED0F0AC0ED100A80ED111AC0ED6A
:104E0000171A80ED180AC0ED190A80ED1A1AC0EDC4
:104E1000201A704780ED020AC0ED010A70470000B9
:104E200010B5044622464FF400710248FDF742FBDC
:104E300010BD00000008024070B504460D46257004
:104E40002078D4F88410884770BD0221017180ED6C
:104E5000020A704710B5044600202071227B0AB96F
:104E6000012200E0002210462169884710BD10B5DC
:104E7000044601202071207B2169884710BD70B550
:104E80002DED028B05460C46B0EE408A24B1012C74
:104E900006D0022C0ED107E02846FFF7DBFF09E021
:104EA0002846FFF7E4FF05E0B0EE480A2846FFF782
:104EB000CCFF00BF00BFBDEC028B70BD10B5044637
:104EC000204600F015F8204600F09AFD10BD0000C5
:104ED00010B52DED028BB0EE408AF0EE480A9FED42
:104EE000030A00F007F9BDEC028B10BD00000000C2
:104EF00010B50446224640210148FDF7DBFA10BDFB
:104F00000008024010B52DED028BB0EE408AB0EEE5
:104F1000480A00F02FF8BDEC028B10BD10B52DED46
:104F2000028BB0EE408AB0EE480A034800F013F856
:104F3000BDEC028B10BD000000020020FCEEC00A98
:104F400010EE901A0170704780ED020AC0ED040A5D
:104F500080ED031A704780ED050A704710B50446CE
:104F600022464FF480710248FDF7A4FA10BD0000FC
:104F70000008024010B52DED028BB0EE408AB0EE75
:104F8000480A034800F013F8BDEC028B10BD000086
:104F9000BC010020FCEEC00A10EE901A01707047B0
:104FA00080ED020AC0ED040A80ED031A704780ED1F
:104FB000050A7047B5EEC00AF1EE10FA03D2DFED34
:104FC0000D0AB0EE600ADFED0C0AB4EEE00AF1EE75
:104FD00010FA03DDDFED080AB0EE600ADFED070A24
:104FE00060EE200AFCEEE00A10EE900A044909681F
:104FF00048637047000000000000C84200002842DB
:1050000014050020B5EEC00AF1EE10FA03D2DFED70
:105010000D0AB0EE600ADFED0C0AB4EEE00AF1EE24
:1050200010FA03DDDFED080AB0EE600ADFED070AD3
:1050300060EE200AFCEEE00A10EE900A04490968CE
:1050400088637047000000000000C842000028424A
:1050500014050020B5EEC00AF1EE10FA03D2DFED20
:105060000D0AB0EE600ADFED0C0AB4EEE00AF1EED4
:1050700010FA03DDDFED080AB0EE600ADFED070A83
:1050800060EE200AFCEEE00A10EE900A044909687E
:10509000C8637047000000000000C84200002842BA
:1050A00014050020B5EEC00AF1EE10FA03D2DFEDD0
:1050B0000D0AB0EE600ADFED0C0AB4EEE00AF1EE84
:1050C00010FA03DDDFED080AB0EE600ADFED070A33
:1050D00060EE200AFCEEE00A10EE900A044909682E
:1050E00008647047000000000000C8420000284229
:1050F0001405002010B52DED028BB0EE408AF0EEC5
:10510000608AF0EE680AB0EE480A0348FFF782FEB4
:10511000BDEC028B10BD0000240100200149086095
:10512000704700009800002010B5B7EE000A09484B
:10513000FFF730FF9FED081ADFED080A9FED080A20
:105140000448FFF72DFF9FED040A0248FFF72FFFE9
:1051500010BD0000BC010020000000008FC2F53C23
:105160009A99994010B5024800F05AF810BD000015
:10517000BC01002010B50446606B804784ED060A30
:1051800094ED050AD4ED060A30EE600A84ED070AB4
:1051900094ED070AD4ED080A30EE600AD4ED020A55
:1051A00020EE200AD4ED040A94ED071A00EE810ADD
:1051B000D4ED0A0A30EE200A84ED0A0A94ED070ABB
:1051C00084ED080A94ED0A0AD4ED0B0AB4EEE00A65
:1051D000F1EE10FA04DD94ED0B0A84ED0A0A10E0FA
:1051E00094ED0A0AD4ED0B0AF1EE600AB4EEE00A7F
:1051F000F1EE10FA05D294ED0B0AB1EE400A84EDFF
:105200000A0A207818B99FED050A84ED0A0AD4ED40
:105210000A0AB0EE600AA06B804710BD00000000D3
:1052200010B504460E4960680968081A00EE100AB5
:10523000B8EE400AD4ED0C0A9FED0A1A60EE810A1E
:10524000B4EEE00AF1EE10FA01DB012000E00020EC
:1052500028B10348006860602046FFF78BFF10BD4F
:105260008002002000007A4410B52DED028B044628
:10527000F0EE408AB0EE608AC4ED008A84ED018AC7
:10528000204600F0D5F82046FCF712F9204600F041
:1052900003F8BDEC028B10BD10B52DED048B044658
:1052A00094F84400072877D2DFE800F07604172A44
:1052B0003D50630094ED090AD4ED0B0A30EE200A4C
:1052C000D4ED0C0A30EE208A94ED0B0AD4ED0C0AD2
:1052D00070EE208A94ED0C9A5EE094ED0B0AD4ED0A
:1052E0000C0A30EE208A94ED070AD4ED0B0A30EE5A
:1052F000200AD4ED0C0A70EE208A94ED0C9A4BE053
:1053000094ED0C8A94ED070AD4ED080A30EE200AD9
:10531000D4ED0C0A70EE208A94ED080AD4ED0C0A44
:1053200030EE209A38E094ED0C8A94ED080AD4ED22
:105330000C0A70EE208A94ED060AD4ED080A30EECD
:10534000200AD4ED0C0A30EE209A25E094ED0A0AEA
:10535000D4ED0C0A30EE208AD4ED0C8A94ED060AC6
:10536000D4ED0A0A30EE200AD4ED0C0A30EE209A71
:1053700012E094ED090AD4ED0A0A30EE200AD4EDC9
:105380000C0A30EE208AD4ED0C8A94ED0A0AD4ED92
:105390000C0A30EE209A00BF00BFF0EE489AF4EEFF
:1053A000E89AF1EE10FA01D2F0EE689AF4EEC99A9A
:1053B000F1EE10FA01D2F0EE499A94ED0E0AB4EE35
:1053C000E90AF1EE10FA1FD228EE290AD4ED0E0AEE
:1053D00080EE201AB0EE418A28EEA90AD4ED0E0A1A
:1053E00080EE201AF0EE418A29EE290AD4ED0E0A49
:1053F00080EE201AB0EE419A94ED0E0AD4ED0F0A19
:1054000030EE200AF0EE409AB0EE480AA06C8047D9
:10541000B0EE680AE06C8047B0EE490A206D804724
:10542000B0EE690A606D8047BDEC048B10BD0000D2
:1054300070B590ED010A80ED020AD0ED010AB0EEE0
:10544000001A80EE810AD0ED000A9FED2E1A10EEB0
:10545000810A80ED030AD0ED010AB0EE001A80EE59
:10546000810AD0ED000AF1EE600A9FED261A10EED7
:10547000810A80ED040A90ED020AB5EEC00AF1EE51
:1054800010FA01DD012100E0002190ED030AB5EEE4
:10549000C00AF1EE10FA01DD012200E0002290EDD9
:1054A000040AB5EEC00AF1EE10FA01DD012300E0B6
:1054B00000239D00022606FB02550D44ECB2072C8A
:1054C0001DD2DFE804F01C081804100C140001259C
:1054D00080F8445013E0022580F844500FE0032583
:1054E00080F844500BE0042580F8445007E005257F
:1054F00080F8445003E0062580F8445000BF00BF08
:1055000070BD00002DB25D3F10B513480068401C0F
:105510001149086011480068401C10490860104893
:105520000068401C0E4908600E480068401C0D4988
:1055300008600D480068401C0B4908600B48006873
:10554000401C0A4908600A480068401C0849086075
:10555000FDF70EF910BD0000940000207C02002031
:105560008C0200208802002090020020800200208F
:105570008402002000B593B0302107A8FAF700FF9D
:10558000142102A8FAF7FCFE00BF00200190244875
:10559000006840F08050224908600846006800F02A
:1055A0008050019000BF00BF00BF002001901D4847
:1055B000006840F480401B4908600846006800F419
:1055C0008040019000BF00BF0120079000040890B8
:1055D00002200D9041050E9104210F91A8211091F8
:1055E000022111910421129107A8FDF7C7FA08B111
:1055F000FBF7A0FD0F2002900220039000200490F2
:105600004FF4A05005904FF480500690052102A859
:10561000FDF784F908B1FBF78DFD13B000BD000064
:1056200040380240007000400348006840F47000B9
:10563000014908607047000088ED00E010B5FBF7F5
:10564000E3F90248FEF753F910BD000014050020ED
:1056500010B500211548FEF719FB04211348FEF789
:1056600015FB08211148FEF711FB00210F48FDF73B
:1056700067FE04210D48FDF763FE08210B48FDF786
:105680005FFE9FED0B0AFFF795FC9FED090AFFF700
:10569000B9FC9FED070AFFF7DDFC9FED050AFFF758
:1056A00001FD002000F0ACF910BD00001405002041
:1056B0000000000010B50268294B98420ED0B0F1EE
:1056C000804F0BD0274B984208D0274B984205D0EB
:1056D000264B984202D0264B984203D122F070020A
:1056E0004B681A431E4B984220D0B0F1804F1DD01A
:1056F0001C4B98421AD01C4B984217D01B4B984217
:1057000014D01B4B984211D01A4B98420ED01A4B12
:1057100098420BD0194B984208D0194B984205D0AB
:10572000184B984202D0184B984203D122F4407291
:10573000CB681A4322F080034C6943EA04020260FA
:105740008B68C3620B688362054B984202D0084B9A
:10575000984201D10B6903630123436110BD00002E
:10576000000001400004004000080040000C004020
:105770000004014000400140004401400048014055
:1057800000180040001C00400020004030B501F02F
:105790001F05012404FA05F3046A9C430462046AA9
:1057A00001F01F0502FA05F52C43046230BD30B547
:1057B00001F01F05042404FA05F3046A9C43046203
:1057C000046A01F01F0502FA05F52C43046230BD9E
:1057D00030B50C46816821F47F4142EA0325254318
:1057E0002943816030BD0A46816821F0700142F092
:1057F000070319438160704730B5056A25F001053C
:105800000562026A4368846924F0700424F003048A
:105810000D682C4322F002028D682A43104DA842E5
:1058200000D103E00F4DA84206D100BF22F00802CC
:10583000CD682A4322F00402094DA84202D0094D46
:10584000A84207D123F4807323F400734D692B43DE
:105850008D692B43436084614D684563026230BDAE
:10586000000001400004014030B5056A25F0100534
:105870000562026A4368846924F4E04424F44074B5
:105880000D6844EA052422F020028D6842EA0512E0
:10589000124DA84200D103E0114DA84207D100BF2C
:1058A00022F08002CD6842EA051222F040020B4D40
:1058B000A84202D00A4DA84209D123F4806323F400
:1058C00000634D6943EA85038D6943EA85034360BC
:1058D00084614D688563026230BD000000000140B4
:1058E0000004014030B5056A25F480750562026A3E
:1058F0004368C46924F0700424F003040D682C4349
:1059000022F400728D6842EA0522124DA84200D1AD
:1059100003E0114DA84207D100BF22F40062CD6818
:1059200042EA052222F480620A4DA84202D00A4DC2
:10593000A84209D123F4805323F400534D6943EA6C
:1059400005138D6943EA05134360C4614D68C5635F
:10595000026230BD000001400004014030B5056A1C
:1059600025F480550562036A4468C26922F4E04266
:1059700022F440720D6842EA052223F400538D6838
:1059800043EA0533084DA84202D0084DA84204D18D
:1059900024F480444D6944EA85144460C2614D6832
:1059A0000564036230BD00000000014000040140B6
:1059B00030B50B461446026A056A25F001050562FA
:1059C000816921F0F00141EA041122F00A021A4330
:1059D0008161026230BD30B50B461446056A25F080
:1059E000100505628169026A21F4704141EA0431BF
:1059F00022F0A00242EA03128161026230BD00007F
:105A000010B50446012C07D10C210748FEF7C4F954
:105A10000548FDF767FD06E00C210348FEF768FA2C
:105A20000148FDF7B3FD10BD1405002010B5042199
:105A30000848FDF7F5FE42F2107006490968486211
:105A40009FED050A054880ED010A00200349086022
:105A500010BD00005C050020000000009800002040
:105A600042F210700549096848629FED050A054831
:105A700080ED010A00200349086070475C050020A2
:105A8000000000009800002000BFFEE77047000003
:105A90000FB4054B10B503A9044A029800F000F9B1
:105AA00010BC5DF814FB0000A763000894020020FE
:105AB00002480068C0F30220704700000CED00E0CF
:105AC00010B5002804DB0A07130E054A135406E03C
:105AD0000A07140E034A00F00F031B1FD45410BD15
:105AE00000E400E018ED00E02DED020B019820F03D
:105AF000004001909DED000B02B0704702E008C825
:105B0000121F08C1002AFAD170477047002001E037
:105B100001C1121F002AFBD1704700002DE9FF5F71
:105B200082B00021DDE90430020DDDF840B003430E
:105B300018D044F61050A2F2FF32424315141198C7
:105B400001281FD0A5EB0B00401C5FEA000A4FF0B4
:105B500000064E4FDFF83891B046504615D5CAF1D1
:105B6000000413E0119801244AA3012801D16FEA2F
:105B70000B010298119AC0E90031C0E9024206B057
:105B8000BDE8F09FCBF10000DFE704460021404A6A
:105B9000491842EB0450CDE9001012E0E00707D0AD
:105BA00032463B4640464946FAF7F5FB8046894671
:105BB00032463B4610461946FAF7EDFB06460F46BD
:105BC0006410002CEAD1DDE90401DDE90023BAF11B
:105BD000000F06DAFAF7DFFB42464B46FAF7DBFB2B
:105BE00005E0FAF74AFC42464B46FAF746FC044603
:105BF0000E460022284BFAF7E7FC03D84FF0FF309F
:105C0000014607E00022254B20463146FAF7D9FD30
:105C1000FAF77EFE102409E0002C0ADB0A2200239A
:105C2000FAF756FB039B30321A55641E50EA010204
:105C3000F2D1641C039AC4F111031444119A012A8D
:105C400003D0012208430DD10AE0084304D000200C
:105C50004FF0110B119072E7A3EB0B056D1E0DE0D9
:105C60005B4504DD4FF0000205F1010504E003DAB5
:105C70004FF00002A5F10105002AECD0029811991D
:105C8000C0E90231C0E9004579E700000000144096
:105C90000000F03F300000000000F0430000E03F53
:105CA0002DE9FF4F95B09A46884606460025EEE15D
:105CB000252877D100242746F94A0121039400E0E2
:105CC000044316F8013F203B01FA03F01042F7D1DC
:105CD00030782A2811D06FF02F033078A0F13002ED
:105CE000092A16D8039A44F0020402EB820203EB5D
:105CF00042021044761C0390EFE758F8042B0392FD
:105D0000002A03DA504244F40054039044F00204A1
:105D1000761C30782E2816D116F8010F44F00404B2
:105D20002A280DD06FF02F023078A0F13003092B14
:105D300009D807EB870302EB4303C718761CF3E788
:105D400058F8047B761C30786C280FD006DC4C2881
:105D500017D068280DD06A2814D104E0742810D018
:105D60007A280FD10DE044F400140AE044F48014C2
:105D700001E044F440147278824202D104F58014A8
:105D8000761C761C307866280BD013DC582877D028
:105D900009DC002875D04528F6D04628F4D04728DD
:105DA0001AD193E118E0632835D0642879D06528AA
:105DB00012D18BE1702873D008DC6728F1D06928F4
:105DC0006FD06E280DD06F2806D1ACE073282CD090
:105DD000752874D0782853D05246179990476D1C77
:105DE00054E1C4F30250022809D003280DD0D8F89A
:105DF000001004280DD00D6008F1040846E1D8F821
:105E00000010EA17C1E90052F6E7D8F800100D803B
:105E1000F2E70D70F0E718F8041B8DF80010002071
:105E20008DF80100EB46012003E058F804BB4FF069
:105E3000FF3061074FF0000102D40DE009F10101CC
:105E40008946B9420FDA8145F8DB1BF809100029B1
:105E5000F4D108E009F1010189468142FADB1BF81F
:105E600009100029F6D103985346A0EB09072146F3
:105E70003846179A00F080FA284400EB090507E03D
:105E800044E008E10DE01BF8010B524617999047DA
:105E9000B9F10109F7D2534621463846179AF2E084
:105EA00039E00A21C4F302524FF0000B0091022A9C
:105EB00006D058F8040BC117032A09D00AE023E0E2
:105EC00008F1070020F00702F2E80201904605E021
:105ED00000B2C117042A01D140B2C117002906DA65
:105EE0000A460021404261EB02012D2202E0220518
:105EF00004D52B228DF80420012203E0E20701D013
:105F00002022F7E7914657E00A2100E010214FF0E8
:105F1000000B00910BE010214FF0000B44F0040443
:105F20000827009103E008204FF0000B0090C4F315
:105F30000252022A05D058F8040B0021032A08D087
:105F400008E008F1070020F00702F2E8020190469D
:105F500003E080B2042A00D1C0B24FF0000922074A
:105F60002AD53278702A07D0DDF800C08CF0100CEA
:105F70005CEA0B0C05D00EE040228DF804200122D3
:105F800008E050EA010306D030238DF804308DF884
:105F9000052002229146009B83F0080353EA0B037D
:105FA0000AD150EA010201D1620705D530228DF8ED
:105FB00004204FF001097F1E3278582A04D039A2FC
:105FC0000C920CAA02920BE03BA2F9E75B46009A06
:105FD000FAF77EF90C9B9B5C029A521E0292137098
:105FE00050EA0102F2D1029804A9081A00F1200B2C
:105FF000600702D524F4803400E001275F4502DD0C
:10600000A7EB0B0000E0002000EB0B0100900398D1
:106010004944401A0390E00306D453462146179A98
:10602000039800F0A9F90544002706E001A85246AC
:10603000C05D179990476D1C7F1C4F45F6DBE00350
:106040000CD553462146179A039800F095F905445C
:1060500004E030205246179990476D1C0099481E65
:1060600000900029F5DC08E0029802995246007879
:10607000491C0291179990476D1CBBF10001ABF1CF
:10608000010BF1DC5BE100F065F90544761C30782A
:1060900000287FF40DAE19B02846BDE8F08F00004F
:1060A00009280100303132333435363738396162EE
:1060B00063646566000000003031323334353637B2
:1060C000383941424344454600000000600700D48F
:1060D000062708F1070020F00700F0E802238046B9
:1060E00003F0004C5FEA0C0001D097A009E0200506
:1060F00001D596A005E0E00701D095A001E0AFF240
:106100004C001390307823F0004365280CD006DC57
:10611000452809D046281DD047287FD13BE0662876
:1061200018D067287AD136E00021112F01DB112029
:1061300000E0781CCDE9000104A90CA8FFF7EEFCF3
:10614000DDE90D010C9A4FF0000B07F101091092E7
:1061500000914EE04FF000400097CDE9011004A9F6
:106160000CA8FFF7DBFCDDE90D020C9B0F994FF04B
:10617000000B91461093009211B9791C00EB0109B4
:10618000B7EB090003D4C0F1FF3B07F10109A9EB0C
:106190000700019042E0012F00DA01270021112FB2
:1061A00001DD112000E03846CDE9000104A90CA86A
:1061B000FFF7B4FCDDE90D010C9A00914FF0000BE4
:1061C000B946109221070FD4009A4A4503DA914646
:1061D00001E0A9F10109B9F1010F05DD109AA9F15A
:1061E0000101515C3029F4D0B84202DA10F1040FF9
:1061F00003DA0121CDE9011010E0002803DC83441B
:10620000A9EB000102E0411C494500DD8946A0EBF5
:106210000B00401C01904FF000400290200705D475
:106220000198484502DB4FF0FF30019000208DF8C7
:106230004B0002980DF14B07B0F1004F25D0022022
:106240000C902B200D90029800280CDA404202900E
:106250002D200D9007E00A210298FAF7E9F9303174
:10626000029007F8011D0C99481E0C900029F2DCE1
:1062700002980028EFD1791E0D980870307800F050
:10628000200040F0450007F8020D11A8C01BC01DFA
:1062900002901398007800B1012000EB09010198E9
:1062A00001EBE071029801440398401A401E0390EC
:1062B000E00306D453462146179A039800F05CF891
:1062C00005441398007818B15246179990476D1CF1
:1062D000E00323D553462146179A039800F04CF863
:1062E00005441BE0BBF1000F07DB0098584504DDB7
:1062F0001098179910F80B0001E0179930205246BA
:10630000904701980BF1010B401E05F1010501902A
:1063100004D12E205246179990476D1CB9F1000107
:10632000A9F10109DEDC05E017F8010B52461799C7
:1063300090476D1C0299481E02900029F4DC5346D8
:106340002146179A03989EE62D0000002B000000BE
:10635000200000002DE9F041044600251E461746A6
:10636000880404D405E039462020B0476D1C641E23
:10637000F9D52846BDE8F0812DE9F0410446002515
:106380001E469046C80301D5302700E02027880428
:1063900004D505E041463846B0476D1C641EF9D56A
:1063A0002846BDE8F08138B504460D46E0B20090BD
:1063B000012269460020FEF763FC9DF8000038BD0D
:1063C000FCF7E2F9FFF7D6F8FEF704F8FDF7D6FF81
:1063D000FDF720FFFDF76EFFFDF7A4FFFEF7F8F8CD
:1063E000FEF714F9FEF734F9FEF754F9FEF7DCF97D
:1063F000FDF7B4FFFAF718FC01E0FAF71DFCFCE723
:106400000006101600061016000000000000000034
:10641000010203040607080900000000010203044A
:1064200000000000920E493CB10AC93C2BC3163D46
:106430002EFB483D752B7B3D04A9963D80B6AF3DB4
:1064400036BDC83D2FBCE13D73B2FA3D87CF093E52
:106450008340163EB5AB223EA2102F3ECF6E3B3E90
:10646000C2C5473E0115543E135C603E7F9A6C3EA8
:10647000CCCF783EC07D823E938E883E229A8E3E5F
:1064800032A0943E86A09A3EE59AA03E128FA63E88
:10649000D47CAC3EEF63B23E2A44B83E491DBE3EBA
:1064A00015EFC33E53B9C93ECA7BCF3E4136D53EF8
:1064B00080E8DA3E4F92E03E7533E63EBBCBEB3EE2
:1064C000EA5AF13ECBE0F63E275DFC3EE4E7003FB2
:1064D0003D9C033F824B063F9BF5083F6B9A0B3F69
:1064E000DA390E3FCDD3103F2A68133FD9F6153F56
:1064F000C07F183FC6021B3FD17F1D3FCBF61F3F19
:106500009967223F25D2243F5636273F1594293FCD
:106510004AEB2B3FDE3B2E3FBB85303FC9C8323FA5
:10652000F304353F233A373F4268393F3B8F3B3FC7
:10653000F9AE3D3F67C73F3F70D8413F01E2433F5F
:1065400003E4453F65DE473F12D1493FF8BB4B3F6F
:10655000029F4D3F207A4F3F3D4D513F4918533FD9
:1065600031DB543FE595563F5348583F6AF2593F57
:106570001A945B3F532D5D3F05BE5E3F2146603F51
:1065800097C5613F5A3C633F59AA643F880F663FF5
:10659000D86B673F3CBF683FA7096A3F0C4B6B3F16
:1065A0005E836C3F93B26D3F9ED86E3F73F56F3F35
:1065B0000809713F5213723F4714733FDD0B743F5C
:1065C0000BFA743FC6DE753F07BA763FC58B773F3F
:1065D000F853783F9812793F9DC7793F02737A3F0D
:1065E000BE147B3FCDAC7B3F283B7C3FC9BF7C3F8B
:1065F000AC3A7D3FCCAB7D3F23137E3FB0707E3FF6
:106600006DC47E3F580E7F3F6D4E7F3FAB847F3F12
:106610000FB17F3F97D37F3F43EC7F3F11FB7F3F1D
:106620000000803F11FB7F3F43EC7F3F97D37F3FCC
:106630000FB17F3FAB847F3F6D4E7F3F580E7F3F52
:106640006DC47E3FB0707E3F23137E3FCCAB7D3F59
:10665000AC3A7D3FC9BF7C3F283B7C3FCDAC7B3F04
:10666000BE147B3F02737A3F9DC7793F9812793FF2
:10667000F853783FC58B773F07BA763FC6DE753F44
:106680000BFA743FDD0B743F4714733F5213723F94
:106690000809713F73F56F3F9ED86E3F93B26D3F0F
:1066A0005E836C3F0C4B6B3FA7096A3F3CBF683F62
:1066B000D86B673F880F663F59AA643F5A3C633FD7
:1066C00097C5613F2146603F05BE5E3F532D5D3F4C
:1066D0001A945B3F6AF2593F5348583FE595563F3D
:1066E00031DB543F4918533F3D4D513F207A4F3FD6
:1066F000029F4D3FF8BB4B3F12D1493F65DE473FFC
:1067000003E4453F01E2433F70D8413F67C73F3F45
:10671000F9AE3D3F3B8F3B3F4268393F233A373F1D
:10672000F304353FC9C8323FBB85303FDE3B2E3FC7
:106730004AEB2B3F1594293F5636273F25D2243F5D
:106740009967223FCBF61F3FD17F1D3FC6021B3FFB
:10675000C07F183FD9F6153F2A68133FCDD3103FAD
:10676000DA390E3F6B9A0B3F9BF5083F824B063F91
:106770003D9C033FE4E7003F275DFC3ECBE0F63E57
:10678000EA5AF13EBBCBEB3E7533E63E4F92E03E1C
:1067900080E8DA3E4136D53ECA7BCF3E53B9C93E8A
:1067A00015EFC33E491DBE3E2A44B83EEF63B23EDC
:1067B000D47CAC3E128FA63EE59AA03E86A09A3EBF
:1067C00032A0943E229A8E3E938E883EC07D823EB9
:1067D000CCCF783E7F9A6C3E135C603E0115543EF0
:1067E000C2C5473ECF6E3B3EA2102F3EB5AB223E08
:1067F0008340163E87CF093E73B2FA3D2FBCE13D80
:1068000036BDC83D80B6AF3D04A9963D752B7B3D96
:106810002EFB483D2BC3163DB10AC93C920E493CA4
:1068200000000000920E49BCB10AC9BC2BC316BDC2
:106830002EFB48BD752B7BBD04A996BD80B6AFBDB0
:1068400036BDC8BD2FBCE1BD73B2FABD87CF09BE4E
:10685000834016BEB5AB22BEA2102FBECF6E3BBE8C
:10686000C2C547BE011554BE135C60BE7F9A6CBEA4
:10687000CCCF78BEC07D82BE938E88BE229A8EBE5B
:1068800032A094BE86A09ABEE59AA0BE128FA6BE84
:10689000D47CACBEEF63B2BE2A44B8BE491DBEBEB6
:1068A00015EFC3BE53B9C9BECA7BCFBE4136D5BEF4
:1068B00080E8DABE4F92E0BE7533E6BEBBCBEBBEDE
:1068C000EA5AF1BECBE0F6BE275DFCBEE4E700BFAE
:1068D0003D9C03BF824B06BF9BF508BF6B9A0BBF65
:1068E000DA390EBFCDD310BF2A6813BFD9F615BF52
:1068F000C07F18BFC6021BBFD17F1DBFCBF61FBF15
:10690000996722BF25D224BF563627BF159429BFC9
:106910004AEB2BBFDE3B2EBFBB8530BFC9C832BFA1
:10692000F30435BF233A37BF426839BF3B8F3BBFC3
:10693000F9AE3DBF67C73FBF70D841BF01E243BF5B
:1069400003E445BF65DE47BF12D149BFF8BB4BBF6B
:10695000029F4DBF207A4FBF3D4D51BF491853BFD5
:1069600031DB54BFE59556BF534858BF6AF259BF53
:106970001A945BBF532D5DBF05BE5EBF214660BF4D
:1069800097C561BF5A3C63BF59AA64BF880F66BFF1
:10699000D86B67BF3CBF68BFA7096ABF0C4B6BBF12
:1069A0005E836CBF93B26DBF9ED86EBF73F56FBF31
:1069B000080971BF521372BF471473BFDD0B74BF58
:1069C0000BFA74BFC6DE75BF07BA76BFC58B77BF3B
:1069D000F85378BF981279BF9DC779BF02737ABF09
:1069E000BE147BBFCDAC7BBF283B7CBFC9BF7CBF87
:1069F000AC3A7DBFCCAB7DBF23137EBFB0707EBFF2
:106A00006DC47EBF580E7FBF6D4E7FBFAB847FBF0E
:106A10000FB17FBF97D37FBF43EC7FBF11FB7FBF19
:106A2000000080BF11FB7FBF43EC7FBF97D37FBFC8
:106A30000FB17FBFAB847FBF6D4E7FBF580E7FBF4E
:106A40006DC47EBFB0707EBF23137EBFCCAB7DBF55
:106A5000AC3A7DBFC9BF7CBF283B7CBFCDAC7BBF00
:106A6000BE147BBF02737ABF9DC779BF981279BFEE
:106A7000F85378BFC58B77BF07BA76BFC6DE75BF40
:106A80000BFA74BFDD0B74BF471473BF521372BF90
:106A9000080971BF73F56FBF9ED86EBF93B26DBF0B
:106AA0005E836CBF0C4B6BBFA7096ABF3CBF68BF5E
:106AB000D86B67BF880F66BF59AA64BF5A3C63BFD3
:106AC00097C561BF214660BF05BE5EBF532D5DBF48
:106AD0001A945BBF6AF259BF534858BFE59556BF39
:106AE00031DB54BF491853BF3D4D51BF207A4FBFD2
:106AF000029F4DBFF8BB4BBF12D149BF65DE47BFF8
:106B000003E445BF01E243BF70D841BF67C73FBF41
:106B1000F9AE3DBF3B8F3BBF426839BF233A37BF19
:106B2000F30435BFC9C832BFBB8530BFDE3B2EBFC3
:106B30004AEB2BBF159429BF563627BF25D224BF59
:106B4000996722BFCBF61FBFD17F1DBFC6021BBFF7
:106B5000C07F18BFD9F615BF2A6813BFCDD310BFA9
:106B6000DA390EBF6B9A0BBF9BF508BF824B06BF8D
:106B70003D9C03BFE4E700BF275DFCBECBE0F6BE53
:106B8000EA5AF1BEBBCBEBBE7533E6BE4F92E0BE18
:106B900080E8DABE4136D5BECA7BCFBE53B9C9BE86
:106BA00015EFC3BE491DBEBE2A44B8BEEF63B2BED8
:106BB000D47CACBE128FA6BEE59AA0BE86A09ABEBB
:106BC00032A094BE229A8EBE938E88BEC07D82BEB5
:106BD000CCCF78BE7F9A6CBE135C60BE011554BEEC
:106BE000C2C547BECF6E3BBEA2102FBEB5AB22BE04
:106BF000834016BE87CF09BE73B2FABD2FBCE1BD7C
:106C000036BDC8BD80B6AFBD04A996BD752B7BBD92
:106C10002EFB48BD2BC316BDB10AC9BC920E49BCA0
:106C2000000000805465726D696E616C00000000A8
:106C3000506C00080000002098020000880900083D
:106C4000E86C000898020020400F00000C5B000870
:106C5000C1321042011324F4600B5345474745529B
:106C6000205254545A020413246C1408A405122010
:106C7000022604393012092A205C015829B4135D18
:106C80004F0236084BC8420423803F4340411AB5A7
:106C90004C1305501B0855041AA5040912EC026F89
:106CA0000313BD4E140801141408E91314089112BB
:106CB0000C2E08B148F01808A0416F12033B694040
:106CC0001AD14C01361808C8420AD7A33B7D800B65
:106CD00010054F44250AD7233C2B4040240B1C7140
:086CE0004C200A116120C100E3
:040000050800018965
:00000001FF
