Component: ARM Compiler 5.06 update 7 (build 960) Tool: armlink [4d3601]

==============================================================================

Section Cross References

    startup_stm32f405xx.o(RESET) refers to startup_stm32f405xx.o(STACK) for __initial_sp
    startup_stm32f405xx.o(RESET) refers to startup_stm32f405xx.o(.text) for Reset_Handler
    startup_stm32f405xx.o(RESET) refers to stm32f4xx_it.o(i.NMI_Handler) for NMI_Handler
    startup_stm32f405xx.o(RESET) refers to stm32f4xx_it.o(i.HardFault_Handler) for HardFault_Handler
    startup_stm32f405xx.o(RESET) refers to stm32f4xx_it.o(i.MemManage_Handler) for MemManage_Handler
    startup_stm32f405xx.o(RESET) refers to stm32f4xx_it.o(i.BusFault_Handler) for BusFault_Handler
    startup_stm32f405xx.o(RESET) refers to stm32f4xx_it.o(i.UsageFault_Handler) for UsageFault_Handler
    startup_stm32f405xx.o(RESET) refers to stm32f4xx_it.o(i.SVC_Handler) for SVC_Handler
    startup_stm32f405xx.o(RESET) refers to stm32f4xx_it.o(i.DebugMon_Handler) for DebugMon_Handler
    startup_stm32f405xx.o(RESET) refers to stm32f4xx_it.o(i.PendSV_Handler) for PendSV_Handler
    startup_stm32f405xx.o(RESET) refers to stm32f4xx_it.o(i.SysTick_Handler) for SysTick_Handler
    startup_stm32f405xx.o(RESET) refers to stm32f4xx_it.o(i.EXTI9_5_IRQHandler) for EXTI9_5_IRQHandler
    startup_stm32f405xx.o(RESET) refers to stm32f4xx_it.o(i.TIM1_CC_IRQHandler) for TIM1_CC_IRQHandler
    startup_stm32f405xx.o(RESET) refers to stm32f4xx_it.o(i.DMA2_Stream0_IRQHandler) for DMA2_Stream0_IRQHandler
    startup_stm32f405xx.o(.text) refers to system_stm32f4xx.o(i.SystemInit) for SystemInit
    startup_stm32f405xx.o(.text) refers to entry.o(.ARM.Collect$$$$00000000) for __main
    main.o(i.SystemClock_Config) refers to memseta.o(.text) for __aeabi_memclr4
    main.o(i.SystemClock_Config) refers to stm32f4xx_hal_rcc.o(i.HAL_RCC_OscConfig) for HAL_RCC_OscConfig
==============================================================================

Removing Unused input sections from the image.

    Removing startup_stm32f405xx.o(HEAP), (512 bytes).
    Removing main.o(.rev16_text), (4 bytes).
    Removing main.o(.revsh_text), (4 bytes).
    Removing main.o(.rrx_text), (6 bytes).
    Removing gpio.o(.rev16_text), (4 bytes).
    Removing gpio.o(.revsh_text), (4 bytes).
    Removing gpio.o(.rrx_text), (6 bytes).
    Removing adc.o(.rev16_text), (4 bytes).
    Removing adc.o(.revsh_text), (4 bytes).
    Removing adc.o(.rrx_text), (6 bytes).
    Removing adc.o(i.HAL_ADC_MspDeInit), (56 bytes).
    Removing dma.o(.rev16_text), (4 bytes).
    Removing dma.o(.revsh_text), (4 bytes).
    Removing dma.o(.rrx_text), (6 bytes).
    Removing spi.o(.rev16_text), (4 bytes).
    Removing spi.o(.revsh_text), (4 bytes).
    Removing spi.o(.rrx_text), (6 bytes).
    Removing spi.o(i.HAL_SPI_MspDeInit), (44 bytes).
==============================================================================

Image Symbol Table

    Local Symbols

    Symbol Name                              Value     Ov Type        Size  Object(Section)

    ../Core/Src/adc.c                        0x00000000   Number         0  adc.o ABSOLUTE
    ../Core/Src/dma.c                        0x00000000   Number         0  dma.o ABSOLUTE
    ../Core/Src/gpio.c                       0x00000000   Number         0  gpio.o ABSOLUTE
    ../Core/Src/main.c                       0x00000000   Number         0  main.o ABSOLUTE
    ../Core/Src/spi.c                        0x00000000   Number         0  spi.o ABSOLUTE
    ../Core/Src/stm32f4xx_hal_msp.c          0x00000000   Number         0  stm32f4xx_hal_msp.o ABSOLUTE
    ../Core/Src/stm32f4xx_it.c               0x00000000   Number         0  stm32f4xx_it.o ABSOLUTE
    ../Core/Src/system_stm32f4xx.c           0x00000000   Number         0  system_stm32f4xx.o ABSOLUTE
    ../Core/Src/tim.c                        0x00000000   Number         0  tim.o ABSOLUTE
    ../Drivers/STM32F4xx_HAL_Driver/Src/stm32f4xx_hal.c 0x00000000   Number         0  stm32f4xx_hal.o ABSOLUTE
    ../Drivers/STM32F4xx_HAL_Driver/Src/stm32f4xx_hal_adc.c 0x00000000   Number         0  stm32f4xx_hal_adc.o ABSOLUTE
    ../Drivers/STM32F4xx_HAL_Driver/Src/stm32f4xx_hal_adc_ex.c 0x00000000   Number         0  stm32f4xx_hal_adc_ex.o ABSOLUTE
    ../Drivers/STM32F4xx_HAL_Driver/Src/stm32f4xx_hal_cortex.c 0x00000000   Number         0  stm32f4xx_hal_cortex.o ABSOLUTE
    ../Drivers/STM32F4xx_HAL_Driver/Src/stm32f4xx_hal_dma.c 0x00000000   Number         0  stm32f4xx_hal_dma.o ABSOLUTE
    ../Drivers/STM32F4xx_HAL_Driver/Src/stm32f4xx_hal_dma_ex.c 0x00000000   Number         0  stm32f4xx_hal_dma_ex.o ABSOLUTE
    ../Drivers/STM32F4xx_HAL_Driver/Src/stm32f4xx_hal_exti.c 0x00000000   Number         0  stm32f4xx_hal_exti.o ABSOLUTE
    ../Drivers/STM32F4xx_HAL_Driver/Src/stm32f4xx_hal_flash.c 0x00000000   Number         0  stm32f4xx_hal_flash.o ABSOLUTE
    ../Drivers/STM32F4xx_HAL_Driver/Src/stm32f4xx_hal_flash_ex.c 0x00000000   Number         0  stm32f4xx_hal_flash_ex.o ABSOLUTE
    ../Drivers/STM32F4xx_HAL_Driver/Src/stm32f4xx_hal_flash_ramfunc.c 0x00000000   Number         0  stm32f4xx_hal_flash_ramfunc.o ABSOLUTE
    ../Drivers/STM32F4xx_HAL_Driver/Src/stm32f4xx_hal_gpio.c 0x00000000   Number         0  stm32f4xx_hal_gpio.o ABSOLUTE
    ../Drivers/STM32F4xx_HAL_Driver/Src/stm32f4xx_hal_pwr.c 0x00000000   Number         0  stm32f4xx_hal_pwr.o ABSOLUTE
    ../Drivers/STM32F4xx_HAL_Driver/Src/stm32f4xx_hal_pwr_ex.c 0x00000000   Number         0  stm32f4xx_hal_pwr_ex.o ABSOLUTE
    ../Drivers/STM32F4xx_HAL_Driver/Src/stm32f4xx_hal_rcc.c 0x00000000   Number         0  stm32f4xx_hal_rcc.o ABSOLUTE
    ../Drivers/STM32F4xx_HAL_Driver/Src/stm32f4xx_hal_rcc_ex.c 0x00000000   Number         0  stm32f4xx_hal_rcc_ex.o ABSOLUTE
    ../Drivers/STM32F4xx_HAL_Driver/Src/stm32f4xx_hal_spi.c 0x00000000   Number         0  stm32f4xx_hal_spi.o ABSOLUTE
    ../Drivers/STM32F4xx_HAL_Driver/Src/stm32f4xx_hal_tim.c 0x00000000   Number         0  stm32f4xx_hal_tim.o ABSOLUTE
    ../Drivers/STM32F4xx_HAL_Driver/Src/stm32f4xx_hal_tim_ex.c 0x00000000   Number         0  stm32f4xx_hal_tim_ex.o ABSOLUTE
    ../clib/../cmprslib/zerorunl2.c          0x00000000   Number         0  __dczerorl2.o ABSOLUTE
    ../clib/microlib/division.c              0x00000000   Number         0  uidiv.o ABSOLUTE
    ../clib/microlib/division.c              0x00000000   Number         0  uldiv.o ABSOLUTE
    ../clib/microlib/init/entry.s            0x00000000   Number         0  entry11b.o ABSOLUTE
    ../clib/microlib/init/entry.s            0x00000000   Number         0  entry7a.o ABSOLUTE
    ../clib/microlib/init/entry.s            0x00000000   Number         0  entry12a.o ABSOLUTE
    ../clib/microlib/init/entry.s            0x00000000   Number         0  entry9a.o ABSOLUTE
    ../clib/microlib/init/entry.s            0x00000000   Number         0  entry5.o ABSOLUTE
    ../clib/microlib/init/entry.s            0x00000000   Number         0  entry8b.o ABSOLUTE
    ../clib/microlib/init/entry.s            0x00000000   Number         0  entry12b.o ABSOLUTE
    ../clib/microlib/init/entry.s            0x00000000   Number         0  entry8a.o ABSOLUTE
    ../clib/microlib/init/entry.s            0x00000000   Number         0  entry10a.o ABSOLUTE
    ../clib/microlib/init/entry.s            0x00000000   Number         0  entry7b.o ABSOLUTE
    ../clib/microlib/init/entry.s            0x00000000   Number         0  entry.o ABSOLUTE
    ../clib/microlib/init/entry.s            0x00000000   Number         0  entry2.o ABSOLUTE
    ../clib/microlib/init/entry.s            0x00000000   Number         0  entry9b.o ABSOLUTE
    ../clib/microlib/init/entry.s            0x00000000   Number         0  entry11a.o ABSOLUTE
    ../clib/microlib/init/entry.s            0x00000000   Number         0  entry10b.o ABSOLUTE
    ../clib/microlib/longlong.c              0x00000000   Number         0  llsshr.o ABSOLUTE
    ../clib/microlib/longlong.c              0x00000000   Number         0  llushr.o ABSOLUTE
    ../clib/microlib/longlong.c              0x00000000   Number         0  llshl.o ABSOLUTE
    ../clib/microlib/printf/printf.c         0x00000000   Number         0  printfb.o ABSOLUTE
    ../clib/microlib/printf/printf.c         0x00000000   Number         0  printf5.o ABSOLUTE
    ../clib/microlib/printf/printf.c         0x00000000   Number         0  printfa.o ABSOLUTE
    ../clib/microlib/printf/printf.c         0x00000000   Number         0  printf8.o ABSOLUTE
    ../clib/microlib/printf/printf.c         0x00000000   Number         0  printf7.o ABSOLUTE
    ../clib/microlib/printf/printf.c         0x00000000   Number         0  printf0.o ABSOLUTE
    ../clib/microlib/printf/printf.c         0x00000000   Number         0  printf1.o ABSOLUTE
    ../clib/microlib/printf/printf.c         0x00000000   Number         0  printf2.o ABSOLUTE
    ../clib/microlib/printf/printf.c         0x00000000   Number         0  printf3.o ABSOLUTE
    ../clib/microlib/printf/printf.c         0x00000000   Number         0  printf6.o ABSOLUTE
    ../clib/microlib/printf/printf.c         0x00000000   Number         0  printf4.o ABSOLUTE
    ../clib/microlib/printf/stubs.s          0x00000000   Number         0  stubs.o ABSOLUTE
    ../clib/microlib/stdio/streams.c         0x00000000   Number         0  stdout.o ABSOLUTE
    ../clib/microlib/string/memcpy.c         0x00000000   Number         0  memcpya.o ABSOLUTE
    ../clib/microlib/string/memcpy.c         0x00000000   Number         0  memcpyb.o ABSOLUTE
    ../clib/microlib/string/memset.c         0x00000000   Number         0  memseta.o ABSOLUTE
    ../clib/microlib/stubs.s                 0x00000000   Number         0  iusefp.o ABSOLUTE
    ../fplib/microlib/f2d.c                  0x00000000   Number         0  f2d.o ABSOLUTE
    ../fplib/microlib/fpadd.c                0x00000000   Number         0  dadd.o ABSOLUTE
    ../fplib/microlib/fpdiv.c                0x00000000   Number         0  ddiv.o ABSOLUTE
    ../fplib/microlib/fpepilogue.c           0x00000000   Number         0  depilogue.o ABSOLUTE
    ../fplib/microlib/fpfix.c                0x00000000   Number         0  dfixul.o ABSOLUTE
    ../fplib/microlib/fpmul.c                0x00000000   Number         0  dmul.o ABSOLUTE
    ../fplib/microlib/fpneg.c                0x00000000   Number         0  dneg.o ABSOLUTE
    ..\..\Source\CommonTables\arm_common_tables.c 0x00000000   Number         0  arm_common_tables.o ABSOLUTE
    ..\..\Source\FastMathFunctions\arm_cos_f32.c 0x00000000   Number         0  arm_cos_f32.o ABSOLUTE
    ..\..\Source\FastMathFunctions\arm_sin_f32.c 0x00000000   Number         0  arm_sin_f32.o ABSOLUTE
    ..\Core\Src\adc.c                        0x00000000   Number         0  adc.o ABSOLUTE
    ..\Core\Src\dma.c                        0x00000000   Number         0  dma.o ABSOLUTE
    ..\Core\Src\gpio.c                       0x00000000   Number         0  gpio.o ABSOLUTE
    ..\Core\Src\main.c                       0x00000000   Number         0  main.o ABSOLUTE
    ..\Core\Src\spi.c                        0x00000000   Number         0  spi.o ABSOLUTE
    ..\Core\Src\stm32f4xx_hal_msp.c          0x00000000   Number         0  stm32f4xx_hal_msp.o ABSOLUTE
    ..\Core\Src\stm32f4xx_it.c               0x00000000   Number         0  stm32f4xx_it.o ABSOLUTE
    ..\Core\Src\system_stm32f4xx.c           0x00000000   Number         0  system_stm32f4xx.o ABSOLUTE
    ..\Core\Src\tim.c                        0x00000000   Number         0  tim.o ABSOLUTE
    ..\Drivers\STM32F4xx_HAL_Driver\Src\stm32f4xx_hal.c 0x00000000   Number         0  stm32f4xx_hal.o ABSOLUTE
    ..\Drivers\STM32F4xx_HAL_Driver\Src\stm32f4xx_hal_adc.c 0x00000000   Number         0  stm32f4xx_hal_adc.o ABSOLUTE
    ..\Drivers\STM32F4xx_HAL_Driver\Src\stm32f4xx_hal_adc_ex.c 0x00000000   Number         0  stm32f4xx_hal_adc_ex.o ABSOLUTE
    ..\Drivers\STM32F4xx_HAL_Driver\Src\stm32f4xx_hal_cortex.c 0x00000000   Number         0  stm32f4xx_hal_cortex.o ABSOLUTE
    ..\Drivers\STM32F4xx_HAL_Driver\Src\stm32f4xx_hal_dma.c 0x00000000   Number         0  stm32f4xx_hal_dma.o ABSOLUTE
    ..\Drivers\STM32F4xx_HAL_Driver\Src\stm32f4xx_hal_dma_ex.c 0x00000000   Number         0  stm32f4xx_hal_dma_ex.o ABSOLUTE
    ..\Drivers\STM32F4xx_HAL_Driver\Src\stm32f4xx_hal_exti.c 0x00000000   Number         0  stm32f4xx_hal_exti.o ABSOLUTE
    ..\Drivers\STM32F4xx_HAL_Driver\Src\stm32f4xx_hal_flash.c 0x00000000   Number         0  stm32f4xx_hal_flash.o ABSOLUTE
    ..\Drivers\STM32F4xx_HAL_Driver\Src\stm32f4xx_hal_flash_ex.c 0x00000000   Number         0  stm32f4xx_hal_flash_ex.o ABSOLUTE
    ..\Drivers\STM32F4xx_HAL_Driver\Src\stm32f4xx_hal_flash_ramfunc.c 0x00000000   Number         0  stm32f4xx_hal_flash_ramfunc.o ABSOLUTE
    ..\Drivers\STM32F4xx_HAL_Driver\Src\stm32f4xx_hal_gpio.c 0x00000000   Number         0  stm32f4xx_hal_gpio.o ABSOLUTE
    ..\Drivers\STM32F4xx_HAL_Driver\Src\stm32f4xx_hal_pwr.c 0x00000000   Number         0  stm32f4xx_hal_pwr.o ABSOLUTE
    ..\Drivers\STM32F4xx_HAL_Driver\Src\stm32f4xx_hal_pwr_ex.c 0x00000000   Number         0  stm32f4xx_hal_pwr_ex.o ABSOLUTE
    ..\Drivers\STM32F4xx_HAL_Driver\Src\stm32f4xx_hal_rcc.c 0x00000000   Number         0  stm32f4xx_hal_rcc.o ABSOLUTE
    ..\Drivers\STM32F4xx_HAL_Driver\Src\stm32f4xx_hal_rcc_ex.c 0x00000000   Number         0  stm32f4xx_hal_rcc_ex.o ABSOLUTE
    ..\Drivers\STM32F4xx_HAL_Driver\Src\stm32f4xx_hal_spi.c 0x00000000   Number         0  stm32f4xx_hal_spi.o ABSOLUTE
    ..\Drivers\STM32F4xx_HAL_Driver\Src\stm32f4xx_hal_tim.c 0x00000000   Number         0  stm32f4xx_hal_tim.o ABSOLUTE
    ..\Drivers\STM32F4xx_HAL_Driver\Src\stm32f4xx_hal_tim_ex.c 0x00000000   Number         0  stm32f4xx_hal_tim_ex.o ABSOLUTE
    ..\User\APP\APPMain.c                    0x00000000   Number         0  appmain.o ABSOLUTE
    ..\User\Framework\DRV8301.c              0x00000000   Number         0  drv8301.o ABSOLUTE
    ..\User\Framework\FOC.c                  0x00000000   Number         0  foc.o ABSOLUTE
    ..\User\Framework\PositionPID.c          0x00000000   Number         0  positionpid.o ABSOLUTE
    ..\User\Framework\SpeedPID.c             0x00000000   Number         0  speedpid.o ABSOLUTE
    ..\User\Framework\Svpwm.c                0x00000000   Number         0  svpwm.o ABSOLUTE
    ..\User\Function\FunctionMain.c          0x00000000   Number         0  functionmain.o ABSOLUTE
    ..\User\MCUDriver\ADC1.c                 0x00000000   Number         0  adc1.o ABSOLUTE
    ..\User\MCUDriver\GPIONVIC.c             0x00000000   Number         0  gpionvic.o ABSOLUTE
    ..\User\MCUDriver\MCUDriverMain.c        0x00000000   Number         0  mcudrivermain.o ABSOLUTE
    ..\User\MCUDriver\MotorGPIO.c            0x00000000   Number         0  motorgpio.o ABSOLUTE
    ..\User\MCUDriver\SPI3.c                 0x00000000   Number         0  spi3.o ABSOLUTE
    ..\User\MCUDriver\TIM1PWM.c              0x00000000   Number         0  tim1pwm.o ABSOLUTE
    ..\User\MCUDriver\TIM3Encoder.c          0x00000000   Number         0  tim3encoder.o ABSOLUTE
    ..\User\MCUDriver\Timer.c                0x00000000   Number         0  timer.o ABSOLUTE
    ..\User\PeripheralsDriver\DRV8301Config.c 0x00000000   Number         0  drv8301config.o ABSOLUTE
    ..\User\PeripheralsDriver\FOCConfig.c    0x00000000   Number         0  focconfig.o ABSOLUTE
    ..\User\PeripheralsDriver\PerDriverMain.c 0x00000000   Number         0  perdrivermain.o ABSOLUTE
    ..\User\PeripheralsDriver\PositionPIDConfig.c 0x00000000   Number         0  positionpidconfig.o ABSOLUTE
    ..\User\PeripheralsDriver\SpeedPIDConfig.c 0x00000000   Number         0  speedpidconfig.o ABSOLUTE
    ..\User\PeripheralsDriver\SvpwmConfig.c  0x00000000   Number         0  svpwmconfig.o ABSOLUTE
    ..\User\RTT\SEGGER_RTT.c                 0x00000000   Number         0  segger_rtt.o ABSOLUTE
    ..\User\RTT\SEGGER_RTT_printf.c          0x00000000   Number         0  segger_rtt_printf.o ABSOLUTE
    ..\\..\\Source\\CommonTables\\arm_common_tables.c 0x00000000   Number         0  arm_common_tables.o ABSOLUTE
    ..\\..\\Source\\FastMathFunctions\\arm_cos_f32.c 0x00000000   Number         0  arm_cos_f32.o ABSOLUTE
    ..\\..\\Source\\FastMathFunctions\\arm_sin_f32.c 0x00000000   Number         0  arm_sin_f32.o ABSOLUTE
    ..\\User\\Framework\\DRV8301.c           0x00000000   Number         0  drv8301.o ABSOLUTE
    ..\\User\\Framework\\FOC.c               0x00000000   Number         0  foc.o ABSOLUTE
    ..\\User\\MCUDriver\\ADC1.c              0x00000000   Number         0  adc1.o ABSOLUTE
    ..\\User\\MCUDriver\\GPIONVIC.c          0x00000000   Number         0  gpionvic.o ABSOLUTE
    ..\\User\\MCUDriver\\MCUDriverMain.c     0x00000000   Number         0  mcudrivermain.o ABSOLUTE
    ..\\User\\MCUDriver\\MotorGPIO.c         0x00000000   Number         0  motorgpio.o ABSOLUTE
    ..\\User\\MCUDriver\\SPI3.c              0x00000000   Number         0  spi3.o ABSOLUTE
    ..\\User\\MCUDriver\\TIM1PWM.c           0x00000000   Number         0  tim1pwm.o ABSOLUTE
    ..\\User\\MCUDriver\\TIM3Encoder.c       0x00000000   Number         0  tim3encoder.o ABSOLUTE
    ..\\User\\MCUDriver\\Timer.c             0x00000000   Number         0  timer.o ABSOLUTE
    ..\\User\\PeripheralsDriver\\DRV8301Config.c 0x00000000   Number         0  drv8301config.o ABSOLUTE
    ..\\User\\PeripheralsDriver\\FOCConfig.c 0x00000000   Number         0  focconfig.o ABSOLUTE
    ..\\User\\PeripheralsDriver\\PerDriverMain.c 0x00000000   Number         0  perdrivermain.o ABSOLUTE
    cdcmple.s                                0x00000000   Number         0  cdcmple.o ABSOLUTE
    cdrcmple.s                               0x00000000   Number         0  cdrcmple.o ABSOLUTE
    dc.s                                     0x00000000   Number         0  dc.o ABSOLUTE
    handlers.s                               0x00000000   Number         0  handlers.o ABSOLUTE
    init.s                                   0x00000000   Number         0  init.o ABSOLUTE
    startup_stm32f405xx.s                    0x00000000   Number         0  startup_stm32f405xx.o ABSOLUTE
    RESET                                    0x08000000   Section      392  startup_stm32f405xx.o(RESET)
    .ARM.Collect$$$$00000000                 0x08000188   Section        0  entry.o(.ARM.Collect$$$$00000000)
    .ARM.Collect$$$$00000001                 0x08000188   Section        4  entry2.o(.ARM.Collect$$$$00000001)
    .ARM.Collect$$$$00000004                 0x0800018c   Section        4  entry5.o(.ARM.Collect$$$$00000004)
    .ARM.Collect$$$$00000008                 0x08000190   Section        0  entry7b.o(.ARM.Collect$$$$00000008)
    .ARM.Collect$$$$0000000A                 0x08000190   Section        0  entry8b.o(.ARM.Collect$$$$0000000A)
    .ARM.Collect$$$$0000000B                 0x08000190   Section        8  entry9a.o(.ARM.Collect$$$$0000000B)
    .ARM.Collect$$$$0000000E                 0x08000198   Section        4  entry12b.o(.ARM.Collect$$$$0000000E)
    .ARM.Collect$$$$0000000F                 0x0800019c   Section        0  entry10a.o(.ARM.Collect$$$$0000000F)
    .ARM.Collect$$$$00000011                 0x0800019c   Section        0  entry11a.o(.ARM.Collect$$$$00000011)
    .ARM.Collect$$$$00002712                 0x0800019c   Section        4  entry2.o(.ARM.Collect$$$$00002712)
    __lit__00000000                          0x0800019c   Data           4  entry2.o(.ARM.Collect$$$$00002712)
    .text                                    0x080001a0   Section       36  startup_stm32f405xx.o(.text)
    $v0                                      0x080001a0   Number         0  startup_stm32f405xx.o(.text)
    .text                                    0x080001c4   Section        0  arm_cos_f32.o(.text)
    .text                                    0x0800023c   Section        0  arm_sin_f32.o(.text)
    .text                                    0x080002d0   Section        0  uldiv.o(.text)
    .text                                    0x08000332   Section        0  memcpya.o(.text)
    .text                                    0x08000356   Section        0  memseta.o(.text)
    .text                                    0x0800037a   Section        0  f2d.o(.text)
    .text                                    0x080003a0   Section       48  cdcmple.o(.text)
    .text                                    0x080003d0   Section        0  uidiv.o(.text)
    .text                                    0x080003fc   Section        0  llshl.o(.text)
    .text                                    0x0800041a   Section        0  llushr.o(.text)
    .text                                    0x0800043a   Section        0  iusefp.o(.text)
    .text                                    0x0800043a   Section        0  dadd.o(.text)
    .text                                    0x08000588   Section        0  dmul.o(.text)
    .text                                    0x0800066c   Section        0  ddiv.o(.text)
    .text                                    0x0800074a   Section        0  dfixul.o(.text)
    .text                                    0x0800077c   Section       48  cdrcmple.o(.text)
    .text                                    0x080007ac   Section       36  init.o(.text)
    .text                                    0x080007d0   Section        0  llsshr.o(.text)
    .text                                    0x080007f4   Section        0  depilogue.o(.text)
    .text                                    0x080008ae   Section        0  __dczerorl2.o(.text)
    i.ADCDMAIRQHandler                       0x08000904   Section        0  adc1.o(i.ADCDMAIRQHandler)
    i.ADCDMAStart                            0x0800091c   Section        0  adc1.o(i.ADCDMAStart)
    i.ADC_DMAConvCplt                        0x08000930   Section        0  stm32f4xx_hal_adc.o(i.ADC_DMAConvCplt)
    ADC_DMAConvCplt                          0x08000931   Thumb Code   110  stm32f4xx_hal_adc.o(i.ADC_DMAConvCplt)
    i.ADC_DMAError                           0x0800099e   Section        0  stm32f4xx_hal_adc.o(i.ADC_DMAError)
    ADC_DMAError                             0x0800099f   Thumb Code    22  stm32f4xx_hal_adc.o(i.ADC_DMAError)
    i.ADC_DMAHalfConvCplt                    0x080009b4   Section        0  stm32f4xx_hal_adc.o(i.ADC_DMAHalfConvCplt)
    ADC_DMAHalfConvCplt                      0x080009b5   Thumb Code    10  stm32f4xx_hal_adc.o(i.ADC_DMAHalfConvCplt)
    i.ADC_Init                               0x080009c0   Section        0  stm32f4xx_hal_adc.o(i.ADC_Init)
    ADC_Init                                 0x080009c1   Thumb Code   284  stm32f4xx_hal_adc.o(i.ADC_Init)
    i.APPMain_Init                           0x08000ae8   Section        0  appmain.o(i.APPMain_Init)
    i.APPMain_Loop                           0x08000afa   Section        0  appmain.o(i.APPMain_Loop)
    i.BusFault_Handler                       0x08000b0c   Section        0  stm32f4xx_it.o(i.BusFault_Handler)
    i.CurrentPIControlID                     0x08000b0e   Section        0  foc.o(i.CurrentPIControlID)
    CurrentPIControlID                       0x08000b0f   Thumb Code   148  foc.o(i.CurrentPIControlID)
    i.CurrentPIControlIQ                     0x08000ba2   Section        0  foc.o(i.CurrentPIControlIQ)
    CurrentPIControlIQ                       0x08000ba3   Thumb Code   148  foc.o(i.CurrentPIControlIQ)
    i.CurrentReconstruction                  0x08000c36   Section        0  foc.o(i.CurrentReconstruction)
    CurrentReconstruction                    0x08000c37   Thumb Code   112  foc.o(i.CurrentReconstruction)
    i.DMA2_Stream0_IRQHandler                0x08000ca8   Section        0  stm32f4xx_it.o(i.DMA2_Stream0_IRQHandler)
    i.DMA_CalcBaseAndBitshift                0x08000cc0   Section        0  stm32f4xx_hal_dma.o(i.DMA_CalcBaseAndBitshift)
    DMA_CalcBaseAndBitshift                  0x08000cc1   Thumb Code    34  stm32f4xx_hal_dma.o(i.DMA_CalcBaseAndBitshift)
    i.DMA_CheckFifoParam                     0x08000ce8   Section        0  stm32f4xx_hal_dma.o(i.DMA_CheckFifoParam)
    DMA_CheckFifoParam                       0x08000ce9   Thumb Code    84  stm32f4xx_hal_dma.o(i.DMA_CheckFifoParam)
    i.DMA_SetConfig                          0x08000d3c   Section        0  stm32f4xx_hal_dma.o(i.DMA_SetConfig)
    DMA_SetConfig                            0x08000d3d   Thumb Code    40  stm32f4xx_hal_dma.o(i.DMA_SetConfig)
    i.DebugMon_Handler                       0x08000d64   Section        0  stm32f4xx_it.o(i.DebugMon_Handler)
    i.EXTI9_5_IRQHandler                     0x08000d66   Section        0  stm32f4xx_it.o(i.EXTI9_5_IRQHandler)
    i.Error_Handler                          0x08000d6e   Section        0  main.o(i.Error_Handler)
    i.FOCConfig_Init                         0x08000d70   Section        0  focconfig.o(i.FOCConfig_Init)
    i.FocContorl                             0x08000e34   Section        0  foc.o(i.FocContorl)
    i.FunctionMain_Init                      0x08000f40   Section        0  functionmain.o(i.FunctionMain_Init)
    i.FunctionMain_Loop                      0x08000f42   Section        0  functionmain.o(i.FunctionMain_Loop)
    i.GPIONVIC_Init                          0x08000f44   Section        0  gpionvic.o(i.GPIONVIC_Init)
    i.GetADC1ChannelXValue                   0x08000f54   Section        0  adc1.o(i.GetADC1ChannelXValue)
    i.GetMotorPosition                       0x08000f94   Section        0  positionpidconfig.o(i.GetMotorPosition)
    i.GetMotorPreCurrent                     0x08000f98   Section        0  focconfig.o(i.GetMotorPreCurrent)
    GetMotorPreCurrent                       0x08000f99   Thumb Code   110  focconfig.o(i.GetMotorPreCurrent)
    i.GetMotorPreSpeed                       0x0800100c   Section        0  speedpidconfig.o(i.GetMotorPreSpeed)
    i.GetMotorSVPWMSector                    0x0800105c   Section        0  svpwmconfig.o(i.GetMotorSVPWMSector)
    i.GetSVPWMSector                         0x08001068   Section        0  svpwm.o(i.GetSVPWMSector)
    i.GetTimer3EncoderAngle                  0x08001070   Section        0  tim3encoder.o(i.GetTimer3EncoderAngle)
    i.GetTimer3EncoderCnt                    0x080010b4   Section        0  tim3encoder.o(i.GetTimer3EncoderCnt)
    i.GetVectorDuration                      0x080010f4   Section        0  svpwm.o(i.GetVectorDuration)
    i.HAL_ADC_ConfigChannel                  0x08001248   Section        0  stm32f4xx_hal_adc.o(i.HAL_ADC_ConfigChannel)
    i.HAL_ADC_ConvCpltCallback               0x08001394   Section        0  stm32f4xx_hal_adc.o(i.HAL_ADC_ConvCpltCallback)
    i.HAL_ADC_ConvHalfCpltCallback           0x08001396   Section        0  stm32f4xx_hal_adc.o(i.HAL_ADC_ConvHalfCpltCallback)
    i.HAL_ADC_ErrorCallback                  0x08001398   Section        0  stm32f4xx_hal_adc.o(i.HAL_ADC_ErrorCallback)
    i.HAL_ADC_Init                           0x0800139a   Section        0  stm32f4xx_hal_adc.o(i.HAL_ADC_Init)
    i.HAL_ADC_MspInit                        0x080013f0   Section        0  adc.o(i.HAL_ADC_MspInit)
    i.HAL_ADC_Start_DMA                      0x08001488   Section        0  stm32f4xx_hal_adc.o(i.HAL_ADC_Start_DMA)
    i.HAL_DMA_IRQHandler                     0x080015b8   Section        0  stm32f4xx_hal_dma.o(i.HAL_DMA_IRQHandler)
    i.HAL_DMA_Init                           0x08001758   Section        0  stm32f4xx_hal_dma.o(i.HAL_DMA_Init)
    i.HAL_DMA_Start_IT                       0x0800182c   Section        0  stm32f4xx_hal_dma.o(i.HAL_DMA_Start_IT)
    i.HAL_Delay                              0x0800189c   Section        0  stm32f4xx_hal.o(i.HAL_Delay)
    i.HAL_GPIO_EXTI_Callback                 0x080018c0   Section        0  gpionvic.o(i.HAL_GPIO_EXTI_Callback)
    i.HAL_GPIO_EXTI_IRQHandler               0x080018e8   Section        0  stm32f4xx_hal_gpio.o(i.HAL_GPIO_EXTI_IRQHandler)
    i.HAL_GPIO_Init                          0x08001900   Section        0  stm32f4xx_hal_gpio.o(i.HAL_GPIO_Init)
    i.HAL_GPIO_WritePin                      0x08001ab8   Section        0  stm32f4xx_hal_gpio.o(i.HAL_GPIO_WritePin)
    i.HAL_GetTick                            0x08001ac4   Section        0  stm32f4xx_hal.o(i.HAL_GetTick)
    i.HAL_IncTick                            0x08001ad0   Section        0  stm32f4xx_hal.o(i.HAL_IncTick)
    i.HAL_Init                               0x08001ae0   Section        0  stm32f4xx_hal.o(i.HAL_Init)
    i.HAL_InitTick                           0x08001b14   Section        0  stm32f4xx_hal.o(i.HAL_InitTick)
    i.HAL_MspInit                            0x08001b54   Section        0  stm32f4xx_hal_msp.o(i.HAL_MspInit)
    i.HAL_NVIC_EnableIRQ                     0x08001b84   Section        0  stm32f4xx_hal_cortex.o(i.HAL_NVIC_EnableIRQ)
    i.HAL_NVIC_SetPriority                   0x08001ba0   Section        0  stm32f4xx_hal_cortex.o(i.HAL_NVIC_SetPriority)
    i.HAL_NVIC_SetPriorityGrouping           0x08001be0   Section        0  stm32f4xx_hal_cortex.o(i.HAL_NVIC_SetPriorityGrouping)
    i.HAL_RCC_ClockConfig                    0x08001c04   Section        0  stm32f4xx_hal_rcc.o(i.HAL_RCC_ClockConfig)
    i.HAL_RCC_GetSysClockFreq                0x08001d38   Section        0  stm32f4xx_hal_rcc.o(i.HAL_RCC_GetSysClockFreq)
    i.HAL_RCC_OscConfig                      0x08001d98   Section        0  stm32f4xx_hal_rcc.o(i.HAL_RCC_OscConfig)
    i.HAL_SPI_Init                           0x080020f4   Section        0  stm32f4xx_hal_spi.o(i.HAL_SPI_Init)
    i.HAL_SPI_MspInit                        0x08002174   Section        0  spi.o(i.HAL_SPI_MspInit)
    i.HAL_SYSTICK_Config                     0x080021e0   Section        0  stm32f4xx_hal_cortex.o(i.HAL_SYSTICK_Config)
    i.HAL_TIMEx_BreakCallback                0x08002208   Section        0  stm32f4xx_hal_tim_ex.o(i.HAL_TIMEx_BreakCallback)
    i.HAL_TIMEx_CommutCallback               0x0800220a   Section        0  stm32f4xx_hal_tim_ex.o(i.HAL_TIMEx_CommutCallback)
    i.HAL_TIMEx_ConfigBreakDeadTime          0x0800220c   Section        0  stm32f4xx_hal_tim_ex.o(i.HAL_TIMEx_ConfigBreakDeadTime)
    i.HAL_TIMEx_MasterConfigSynchronization  0x08002260   Section        0  stm32f4xx_hal_tim_ex.o(i.HAL_TIMEx_MasterConfigSynchronization)
    i.HAL_TIMEx_PWMN_Start                   0x080022f0   Section        0  stm32f4xx_hal_tim_ex.o(i.HAL_TIMEx_PWMN_Start)
    i.HAL_TIM_Base_Init                      0x0800231e   Section        0  stm32f4xx_hal_tim.o(i.HAL_TIM_Base_Init)
    i.HAL_TIM_Base_MspInit                   0x08002354   Section        0  tim.o(i.HAL_TIM_Base_MspInit)
    i.HAL_TIM_Base_Start_IT                  0x08002390   Section        0  stm32f4xx_hal_tim.o(i.HAL_TIM_Base_Start_IT)
    i.HAL_TIM_Base_Stop_IT                   0x080023b2   Section        0  stm32f4xx_hal_tim.o(i.HAL_TIM_Base_Stop_IT)
    i.HAL_TIM_ConfigClockSource              0x080023dc   Section        0  stm32f4xx_hal_tim.o(i.HAL_TIM_ConfigClockSource)
    i.HAL_TIM_Encoder_Init                   0x080024b2   Section        0  stm32f4xx_hal_tim.o(i.HAL_TIM_Encoder_Init)
    i.HAL_TIM_Encoder_MspInit                0x0800254c   Section        0  tim.o(i.HAL_TIM_Encoder_MspInit)
    i.HAL_TIM_Encoder_Start                  0x080025b0   Section        0  stm32f4xx_hal_tim.o(i.HAL_TIM_Encoder_Start)
    i.HAL_TIM_IC_CaptureCallback             0x080025e4   Section        0  stm32f4xx_hal_tim.o(i.HAL_TIM_IC_CaptureCallback)
    i.HAL_TIM_IRQHandler                     0x080025e6   Section        0  stm32f4xx_hal_tim.o(i.HAL_TIM_IRQHandler)
    i.HAL_TIM_MspPostInit                    0x0800274c   Section        0  tim.o(i.HAL_TIM_MspPostInit)
    i.HAL_TIM_OC_DelayElapsedCallback        0x080027cc   Section        0  stm32f4xx_hal_tim.o(i.HAL_TIM_OC_DelayElapsedCallback)
    i.HAL_TIM_PWM_ConfigChannel              0x080027ce   Section        0  stm32f4xx_hal_tim.o(i.HAL_TIM_PWM_ConfigChannel)
    i.HAL_TIM_PWM_Init                       0x0800289e   Section        0  stm32f4xx_hal_tim.o(i.HAL_TIM_PWM_Init)
    i.HAL_TIM_PWM_MspInit                    0x080028d4   Section        0  stm32f4xx_hal_tim.o(i.HAL_TIM_PWM_MspInit)
    i.HAL_TIM_PWM_PulseFinishedCallback      0x080028d6   Section        0  stm32f4xx_hal_tim.o(i.HAL_TIM_PWM_PulseFinishedCallback)
    i.HAL_TIM_PWM_Start                      0x080028d8   Section        0  stm32f4xx_hal_tim.o(i.HAL_TIM_PWM_Start)
    i.HAL_TIM_PWM_Start_IT                   0x0800291c   Section        0  stm32f4xx_hal_tim.o(i.HAL_TIM_PWM_Start_IT)
    i.HAL_TIM_PWM_Stop_IT                    0x08002990   Section        0  stm32f4xx_hal_tim.o(i.HAL_TIM_PWM_Stop_IT)
    i.HAL_TIM_PeriodElapsedCallback          0x08002a18   Section        0  stm32f4xx_hal_tim.o(i.HAL_TIM_PeriodElapsedCallback)
    i.HAL_TIM_TriggerCallback                0x08002a1a   Section        0  stm32f4xx_hal_tim.o(i.HAL_TIM_TriggerCallback)
    i.HardFault_Handler                      0x08002a1c   Section        0  stm32f4xx_it.o(i.HardFault_Handler)
    i.MCUDriverMain_Init                     0x08002a1e   Section        0  mcudrivermain.o(i.MCUDriverMain_Init)
    i.MCUDriverMain_Loop                     0x08002a2c   Section        0  mcudrivermain.o(i.MCUDriverMain_Loop)
    i.MX_ADC1_Init                           0x08002a30   Section        0  adc.o(i.MX_ADC1_Init)
    i.MX_DMA_Init                            0x08002aac   Section        0  dma.o(i.MX_DMA_Init)
    i.MX_GPIO_Init                           0x08002ad8   Section        0  gpio.o(i.MX_GPIO_Init)
    i.MX_SPI3_Init                           0x08002bc4   Section        0  spi.o(i.MX_SPI3_Init)
    i.MX_TIM1_Init                           0x08002c10   Section        0  tim.o(i.MX_TIM1_Init)
    i.MX_TIM3_Init                           0x08002d18   Section        0  tim.o(i.MX_TIM3_Init)
    i.MemManage_Handler                      0x08002d84   Section        0  stm32f4xx_it.o(i.MemManage_Handler)
    i.MotorFocControl                        0x08002d88   Section        0  focconfig.o(i.MotorFocControl)
    i.MotorSvpwmGenerate                     0x08002d94   Section        0  svpwmconfig.o(i.MotorSvpwmGenerate)
    i.NMI_Handler                            0x08002da0   Section        0  stm32f4xx_it.o(i.NMI_Handler)
    i.PendSV_Handler                         0x08002da2   Section        0  stm32f4xx_it.o(i.PendSV_Handler)
    i.PerDriverMain_Init                     0x08002da4   Section        0  perdrivermain.o(i.PerDriverMain_Init)
    i.PerDriverMain_Loop                     0x08002dc0   Section        0  perdrivermain.o(i.PerDriverMain_Loop)
    i.PositionPIDConfig_Init                 0x08002e24   Section        0  positionpidconfig.o(i.PositionPIDConfig_Init)
    i.PositionPIDConfig_Loop                 0x08002e6c   Section        0  positionpidconfig.o(i.PositionPIDConfig_Loop)
    i.PositionPIDConfig_Printf               0x08002e78   Section        0  positionpidconfig.o(i.PositionPIDConfig_Printf)
    i.PositionPIDControl                     0x08002e84   Section        0  positionpid.o(i.PositionPIDControl)
    PositionPIDControl                       0x08002e85   Thumb Code   134  positionpid.o(i.PositionPIDControl)
    i.PositionPIDCycle                       0x08002f10   Section        0  positionpid.o(i.PositionPIDCycle)
    i.PositionPIDPrintf                      0x08002f48   Section        0  positionpid.o(i.PositionPIDPrintf)
    i.SEGGER_RTT_Write                       0x08002f88   Section        0  segger_rtt.o(i.SEGGER_RTT_Write)
    i.SVC_Handler                            0x0800301c   Section        0  stm32f4xx_it.o(i.SVC_Handler)
    i.SetCurrentPIDParams                    0x0800301e   Section        0  foc.o(i.SetCurrentPIDParams)
    i.SetCurrentPIDTar                       0x08003036   Section        0  foc.o(i.SetCurrentPIDTar)
    i.SetFocEnable                           0x08003040   Section        0  foc.o(i.SetFocEnable)
    i.SetMotorAndTimITEnable                 0x0800304c   Section        0  focconfig.o(i.SetMotorAndTimITEnable)
    SetMotorAndTimITEnable                   0x0800304d   Thumb Code    18  focconfig.o(i.SetMotorAndTimITEnable)
    i.SetMotorCurrent                        0x08003060   Section        0  speedpidconfig.o(i.SetMotorCurrent)
    i.SetMotorEnable                         0x08003070   Section        0  motorgpio.o(i.SetMotorEnable)
    i.SetMotorPosition                       0x08003080   Section        0  positionpidconfig.o(i.SetMotorPosition)
    i.SetPositionPIDConfigTarPosition        0x08003084   Section        0  positionpidconfig.o(i.SetPositionPIDConfigTarPosition)
    i.SetPositionPIDEnable                   0x08003090   Section        0  positionpid.o(i.SetPositionPIDEnable)
    i.SetPositionPIDParams                   0x0800309c   Section        0  positionpid.o(i.SetPositionPIDParams)
    i.SetPositionPIDTar                      0x080030aa   Section        0  positionpid.o(i.SetPositionPIDTar)
    i.SetSpeedPIDConfigTarSpeed              0x080030b0   Section        0  speedpidconfig.o(i.SetSpeedPIDConfigTarSpeed)
    i.SetSpeedPIDEnable                      0x080030bc   Section        0  speedpid.o(i.SetSpeedPIDEnable)
    i.SetSpeedPIDParams                      0x080030c8   Section        0  speedpid.o(i.SetSpeedPIDParams)
    i.SetSpeedPIDTar                         0x080030d6   Section        0  speedpid.o(i.SetSpeedPIDTar)
    i.SetTIM1Channel1HighLeaveTime_us        0x080030dc   Section        0  tim1pwm.o(i.SetTIM1Channel1HighLeaveTime_us)
    i.SetTIM1Channel2HighLeaveTime_us        0x08003128   Section        0  tim1pwm.o(i.SetTIM1Channel2HighLeaveTime_us)
    i.SetTIM1Channel3HighLeaveTime_us        0x08003174   Section        0  tim1pwm.o(i.SetTIM1Channel3HighLeaveTime_us)
    i.SetTIM1Channel4HighLeaveTime_us        0x080031c0   Section        0  tim1pwm.o(i.SetTIM1Channel4HighLeaveTime_us)
    i.SetTarIDIQ                             0x0800320c   Section        0  focconfig.o(i.SetTarIDIQ)
    i.SetTimer3EncoderCnt                    0x08003218   Section        0  tim3encoder.o(i.SetTimer3EncoderCnt)
    i.SpeedPIDConfig_Init                    0x08003224   Section        0  speedpidconfig.o(i.SpeedPIDConfig_Init)
    i.SpeedPIDConfig_Loop                    0x0800326c   Section        0  speedpidconfig.o(i.SpeedPIDConfig_Loop)
    i.SpeedPIDConfig_Printf                  0x08003278   Section        0  speedpidconfig.o(i.SpeedPIDConfig_Printf)
    i.SpeedPIDControl                        0x08003284   Section        0  speedpid.o(i.SpeedPIDControl)
    SpeedPIDControl                          0x08003285   Thumb Code   122  speedpid.o(i.SpeedPIDControl)
    i.SpeedPIDCycle                          0x08003304   Section        0  speedpid.o(i.SpeedPIDCycle)
    i.SpeedPIDPrintf                         0x0800333c   Section        0  speedpid.o(i.SpeedPIDPrintf)
    i.SvpwmContorol                          0x0800337c   Section        0  svpwm.o(i.SvpwmContorol)
    i.SvpwmGenerate                          0x08003398   Section        0  svpwm.o(i.SvpwmGenerate)
    i.SvpwmSectorJudgment                    0x080034b4   Section        0  svpwm.o(i.SvpwmSectorJudgment)
    i.SysTick_Handler                        0x08003550   Section        0  stm32f4xx_it.o(i.SysTick_Handler)
    i.SystemClock_Config                     0x08003578   Section        0  main.o(i.SystemClock_Config)
    i.SystemInit                             0x080035fc   Section        0  system_stm32f4xx.o(i.SystemInit)
    i.TIM1_CC_IRQHandler                     0x08003618   Section        0  stm32f4xx_it.o(i.TIM1_CC_IRQHandler)
    i.TIM1_Init                              0x0800362c   Section        0  tim1pwm.o(i.TIM1_Init)
    i.TIM_Base_SetConfig                     0x08003694   Section        0  stm32f4xx_hal_tim.o(i.TIM_Base_SetConfig)
    i.TIM_CCxChannelCmd                      0x0800375c   Section        0  stm32f4xx_hal_tim.o(i.TIM_CCxChannelCmd)
    i.TIM_CCxNChannelCmd                     0x08003776   Section        0  stm32f4xx_hal_tim_ex.o(i.TIM_CCxNChannelCmd)
    TIM_CCxNChannelCmd                       0x08003777   Thumb Code    26  stm32f4xx_hal_tim_ex.o(i.TIM_CCxNChannelCmd)
    i.TIM_ETR_SetConfig                      0x08003790   Section        0  stm32f4xx_hal_tim.o(i.TIM_ETR_SetConfig)
    i.TIM_ITRx_SetConfig                     0x080037a4   Section        0  stm32f4xx_hal_tim.o(i.TIM_ITRx_SetConfig)
    TIM_ITRx_SetConfig                       0x080037a5   Thumb Code    16  stm32f4xx_hal_tim.o(i.TIM_ITRx_SetConfig)
    i.TIM_OC1_SetConfig                      0x080037b4   Section        0  stm32f4xx_hal_tim.o(i.TIM_OC1_SetConfig)
    TIM_OC1_SetConfig                        0x080037b5   Thumb Code    88  stm32f4xx_hal_tim.o(i.TIM_OC1_SetConfig)
    i.TIM_OC2_SetConfig                      0x08003814   Section        0  stm32f4xx_hal_tim.o(i.TIM_OC2_SetConfig)
    i.TIM_OC3_SetConfig                      0x08003880   Section        0  stm32f4xx_hal_tim.o(i.TIM_OC3_SetConfig)
    TIM_OC3_SetConfig                        0x08003881   Thumb Code    96  stm32f4xx_hal_tim.o(i.TIM_OC3_SetConfig)
    i.TIM_OC4_SetConfig                      0x080038e8   Section        0  stm32f4xx_hal_tim.o(i.TIM_OC4_SetConfig)
    TIM_OC4_SetConfig                        0x080038e9   Thumb Code    70  stm32f4xx_hal_tim.o(i.TIM_OC4_SetConfig)
    i.TIM_TI1_ConfigInputStage               0x08003938   Section        0  stm32f4xx_hal_tim.o(i.TIM_TI1_ConfigInputStage)
    TIM_TI1_ConfigInputStage                 0x08003939   Thumb Code    34  stm32f4xx_hal_tim.o(i.TIM_TI1_ConfigInputStage)
    i.TIM_TI2_ConfigInputStage               0x0800395a   Section        0  stm32f4xx_hal_tim.o(i.TIM_TI2_ConfigInputStage)
    TIM_TI2_ConfigInputStage                 0x0800395b   Thumb Code    36  stm32f4xx_hal_tim.o(i.TIM_TI2_ConfigInputStage)
    i.Timer1Channel4ITEnable                 0x08003980   Section        0  tim1pwm.o(i.Timer1Channel4ITEnable)
    i.TimerEncoderInit                       0x080039ac   Section        0  tim3encoder.o(i.TimerEncoderInit)
    i.TimerEncoderReset                      0x080039dc   Section        0  tim3encoder.o(i.TimerEncoderReset)
    i.UsageFault_Handler                     0x08003a04   Section        0  stm32f4xx_it.o(i.UsageFault_Handler)
    i.__0printf                              0x08003a08   Section        0  printfa.o(i.__0printf)
    i.__NVIC_SetPriority                     0x08003a28   Section        0  stm32f4xx_hal_cortex.o(i.__NVIC_SetPriority)
    __NVIC_SetPriority                       0x08003a29   Thumb Code    32  stm32f4xx_hal_cortex.o(i.__NVIC_SetPriority)
    i.__scatterload_copy                     0x08003a48   Section       14  handlers.o(i.__scatterload_copy)
    i.__scatterload_null                     0x08003a56   Section        2  handlers.o(i.__scatterload_null)
    i.__scatterload_zeroinit                 0x08003a58   Section       14  handlers.o(i.__scatterload_zeroinit)
    i._fp_digits                             0x08003a68   Section        0  printfa.o(i._fp_digits)
    _fp_digits                               0x08003a69   Thumb Code   366  printfa.o(i._fp_digits)
    i._printf_core                           0x08003bec   Section        0  printfa.o(i._printf_core)
    _printf_core                             0x08003bed   Thumb Code  1704  printfa.o(i._printf_core)
    i._printf_post_padding                   0x080042a0   Section        0  printfa.o(i._printf_post_padding)
    _printf_post_padding                     0x080042a1   Thumb Code    36  printfa.o(i._printf_post_padding)
    i._printf_pre_padding                    0x080042c4   Section        0  printfa.o(i._printf_pre_padding)
    _printf_pre_padding                      0x080042c5   Thumb Code    46  printfa.o(i._printf_pre_padding)
    i.fputc                                  0x080042f2   Section        0  segger_rtt.o(i.fputc)
    i.main                                   0x08004308   Section        0  main.o(i.main)
    .constdata                               0x08004332   Section        8  stm32f4xx_hal_dma.o(.constdata)
    flagBitshiftOffset                       0x08004332   Data           8  stm32f4xx_hal_dma.o(.constdata)
    .constdata                               0x0800433a   Section       16  system_stm32f4xx.o(.constdata)
    .constdata                               0x0800434c   Section     2052  arm_common_tables.o(.constdata)
    .conststring                             0x08004b50   Section        9  segger_rtt.o(.conststring)
    .data                                    0x20000000   Section       12  stm32f4xx_hal.o(.data)
    .data                                    0x2000000c   Section        4  system_stm32f4xx.o(.data)
    .data                                    0x20000010   Section        8  tim3encoder.o(.data)
    .data                                    0x20000018   Section        4  timer.o(.data)
    .data                                    0x2000001c   Section        8  gpionvic.o(.data)
    .data                                    0x20000024   Section       12  perdrivermain.o(.data)
    last_exec_ms                             0x20000028   Data           4  perdrivermain.o(.data)
    last_exec_ms                             0x2000002c   Data           4  perdrivermain.o(.data)
    .data                                    0x20000030   Section       88  svpwmconfig.o(.data)
    .data                                    0x20000088   Section      152  focconfig.o(.data)
    .data                                    0x20000120   Section       68  speedpidconfig.o(.data)
    angle                                    0x20000120   Data           4  speedpidconfig.o(.data)
    lastAngle                                0x20000124   Data           4  speedpidconfig.o(.data)
    .data                                    0x20000164   Section       60  positionpidconfig.o(.data)
    .data                                    0x200001a0   Section        4  speedpid.o(.data)
    .data                                    0x200001a4   Section        4  positionpid.o(.data)
    .data                                    0x200001a8   Section      120  segger_rtt.o(.data)
    _SEGGER_RTT                              0x200001a8   Data         120  segger_rtt.o(.data)
    .data                                    0x20000220   Section        4  stdout.o(.data)
    .bss                                     0x20000224   Section      168  adc.o(.bss)
    .bss                                     0x200002cc   Section       88  spi.o(.bss)
    .bss                                     0x20000324   Section      128  tim.o(.bss)
    .bss                                     0x200003a4   Section       24  adc1.o(.bss)
    .bss                                     0x200003bc   Section     1024  segger_rtt.o(.bss)
    _acUpBuffer                              0x200003bc   Data        1024  segger_rtt.o(.bss)
    .bss                                     0x200007bc   Section       16  segger_rtt.o(.bss)
    _acDownBuffer                            0x200007bc   Data          16  segger_rtt.o(.bss)
    STACK                                    0x200007d0   Section     1024  startup_stm32f405xx.o(STACK)

    Global Symbols

    Symbol Name                              Value     Ov Type        Size  Object(Section)

    BuildAttributes$$THM_ISAv4$E$P$D$K$B$S$7EM$VFPi3$EXTD16$VFPS$VFMA$PE$A:L22UL41UL21$X:L11$S22US41US21$IEEE1$IW$USESV6$~STKCKD$USESV7$~SHL$OTIME$ROPI$IEEEX$EBA8$MICROLIB$REQ8$PRES8$EABIv2 0x00000000   Number         0  anon$$obj.o ABSOLUTE
    __ARM_use_no_argv                        0x00000000   Number         0  main.o ABSOLUTE
    _printf_a                                0x00000000   Number         0  stubs.o ABSOLUTE
    _printf_c                                0x00000000   Number         0  stubs.o ABSOLUTE
    _printf_charcount                        0x00000000   Number         0  stubs.o ABSOLUTE
    _printf_d                                0x00000000   Number         0  stubs.o ABSOLUTE
    _printf_e                                0x00000000   Number         0  stubs.o ABSOLUTE
    _printf_f                                0x00000000   Number         0  stubs.o ABSOLUTE
    _printf_flags                            0x00000000   Number         0  stubs.o ABSOLUTE
    _printf_fp_dec                           0x00000000   Number         0  stubs.o ABSOLUTE
    _printf_fp_hex                           0x00000000   Number         0  stubs.o ABSOLUTE
    _printf_g                                0x00000000   Number         0  stubs.o ABSOLUTE
    _printf_i                                0x00000000   Number         0  stubs.o ABSOLUTE
    _printf_int_dec                          0x00000000   Number         0  stubs.o ABSOLUTE
    _printf_l                                0x00000000   Number         0  stubs.o ABSOLUTE
    _printf_lc                               0x00000000   Number         0  stubs.o ABSOLUTE
    _printf_ll                               0x00000000   Number         0  stubs.o ABSOLUTE
    _printf_lld                              0x00000000   Number         0  stubs.o ABSOLUTE
    _printf_lli                              0x00000000   Number         0  stubs.o ABSOLUTE
    _printf_llo                              0x00000000   Number         0  stubs.o ABSOLUTE
    _printf_llu                              0x00000000   Number         0  stubs.o ABSOLUTE
    _printf_llx                              0x00000000   Number         0  stubs.o ABSOLUTE
    _printf_longlong_dec                     0x00000000   Number         0  stubs.o ABSOLUTE
    _printf_longlong_hex                     0x00000000   Number         0  stubs.o ABSOLUTE
    _printf_longlong_oct                     0x00000000   Number         0  stubs.o ABSOLUTE
    _printf_ls                               0x00000000   Number         0  stubs.o ABSOLUTE
    _printf_mbtowc                           0x00000000   Number         0  stubs.o ABSOLUTE
    _printf_n                                0x00000000   Number         0  stubs.o ABSOLUTE
    _printf_o                                0x00000000   Number         0  stubs.o ABSOLUTE
    _printf_p                                0x00000000   Number         0  stubs.o ABSOLUTE
    _printf_percent                          0x00000000   Number         0  stubs.o ABSOLUTE
    _printf_pre_padding                      0x00000000   Number         0  stubs.o ABSOLUTE
    _printf_return_value                     0x00000000   Number         0  stubs.o ABSOLUTE
    _printf_s                                0x00000000   Number         0  stubs.o ABSOLUTE
    _printf_sizespec                         0x00000000   Number         0  stubs.o ABSOLUTE
    _printf_str                              0x00000000   Number         0  stubs.o ABSOLUTE
    _printf_truncate_signed                  0x00000000   Number         0  stubs.o ABSOLUTE
    _printf_truncate_unsigned                0x00000000   Number         0  stubs.o ABSOLUTE
    _printf_u                                0x00000000   Number         0  stubs.o ABSOLUTE
    _printf_wc                               0x00000000   Number         0  stubs.o ABSOLUTE
    _printf_wctomb                           0x00000000   Number         0  stubs.o ABSOLUTE
    _printf_widthprec                        0x00000000   Number         0  stubs.o ABSOLUTE
    _printf_x                                0x00000000   Number         0  stubs.o ABSOLUTE
    __arm_fini_                               - Undefined Weak Reference
    __cpp_initialize__aeabi_                  - Undefined Weak Reference
    __cxa_finalize                            - Undefined Weak Reference
    _clock_init                               - Undefined Weak Reference
    _microlib_exit                            - Undefined Weak Reference
    __Vectors_Size                           0x00000188   Number         0  startup_stm32f405xx.o ABSOLUTE
    __Vectors                                0x08000000   Data           4  startup_stm32f405xx.o(RESET)
    __Vectors_End                            0x08000188   Data           0  startup_stm32f405xx.o(RESET)
    __main                                   0x08000189   Thumb Code     0  entry.o(.ARM.Collect$$$$00000000)
    _main_stk                                0x08000189   Thumb Code     0  entry2.o(.ARM.Collect$$$$00000001)
    _main_scatterload                        0x0800018d   Thumb Code     0  entry5.o(.ARM.Collect$$$$00000004)
    __main_after_scatterload                 0x08000191   Thumb Code     0  entry5.o(.ARM.Collect$$$$00000004)
    _main_clock                              0x08000191   Thumb Code     0  entry7b.o(.ARM.Collect$$$$00000008)
    _main_cpp_init                           0x08000191   Thumb Code     0  entry8b.o(.ARM.Collect$$$$0000000A)
    _main_init                               0x08000191   Thumb Code     0  entry9a.o(.ARM.Collect$$$$0000000B)
    __rt_lib_shutdown_fini                   0x08000199   Thumb Code     0  entry12b.o(.ARM.Collect$$$$0000000E)
    __rt_final_cpp                           0x0800019d   Thumb Code     0  entry10a.o(.ARM.Collect$$$$0000000F)
    __rt_final_exit                          0x0800019d   Thumb Code     0  entry11a.o(.ARM.Collect$$$$00000011)
    Reset_Handler                            0x080001a1   Thumb Code     8  startup_stm32f405xx.o(.text)
    ADC_IRQHandler                           0x080001bb   Thumb Code     0  startup_stm32f405xx.o(.text)
    CAN1_RX0_IRQHandler                      0x080001bb   Thumb Code     0  startup_stm32f405xx.o(.text)
    CAN1_RX1_IRQHandler                      0x080001bb   Thumb Code     0  startup_stm32f405xx.o(.text)
    CAN1_SCE_IRQHandler                      0x080001bb   Thumb Code     0  startup_stm32f405xx.o(.text)
    CAN1_TX_IRQHandler                       0x080001bb   Thumb Code     0  startup_stm32f405xx.o(.text)
    CAN2_RX0_IRQHandler                      0x080001bb   Thumb Code     0  startup_stm32f405xx.o(.text)
    CAN2_RX1_IRQHandler                      0x080001bb   Thumb Code     0  startup_stm32f405xx.o(.text)
    CAN2_SCE_IRQHandler                      0x080001bb   Thumb Code     0  startup_stm32f405xx.o(.text)
    CAN2_TX_IRQHandler                       0x080001bb   Thumb Code     0  startup_stm32f405xx.o(.text)
    DMA1_Stream0_IRQHandler                  0x080001bb   Thumb Code     0  startup_stm32f405xx.o(.text)
    DMA1_Stream1_IRQHandler                  0x080001bb   Thumb Code     0  startup_stm32f405xx.o(.text)
    DMA1_Stream2_IRQHandler                  0x080001bb   Thumb Code     0  startup_stm32f405xx.o(.text)
    DMA1_Stream3_IRQHandler                  0x080001bb   Thumb Code     0  startup_stm32f405xx.o(.text)
    DMA1_Stream4_IRQHandler                  0x080001bb   Thumb Code     0  startup_stm32f405xx.o(.text)
    DMA1_Stream5_IRQHandler                  0x080001bb   Thumb Code     0  startup_stm32f405xx.o(.text)
    DMA1_Stream6_IRQHandler                  0x080001bb   Thumb Code     0  startup_stm32f405xx.o(.text)
    DMA1_Stream7_IRQHandler                  0x080001bb   Thumb Code     0  startup_stm32f405xx.o(.text)
    DMA2_Stream1_IRQHandler                  0x080001bb   Thumb Code     0  startup_stm32f405xx.o(.text)
    DMA2_Stream2_IRQHandler                  0x080001bb   Thumb Code     0  startup_stm32f405xx.o(.text)
    DMA2_Stream3_IRQHandler                  0x080001bb   Thumb Code     0  startup_stm32f405xx.o(.text)
    DMA2_Stream4_IRQHandler                  0x080001bb   Thumb Code     0  startup_stm32f405xx.o(.text)
    DMA2_Stream5_IRQHandler                  0x080001bb   Thumb Code     0  startup_stm32f405xx.o(.text)
    DMA2_Stream6_IRQHandler                  0x080001bb   Thumb Code     0  startup_stm32f405xx.o(.text)
    DMA2_Stream7_IRQHandler                  0x080001bb   Thumb Code     0  startup_stm32f405xx.o(.text)
    EXTI0_IRQHandler                         0x080001bb   Thumb Code     0  startup_stm32f405xx.o(.text)
    EXTI15_10_IRQHandler                     0x080001bb   Thumb Code     0  startup_stm32f405xx.o(.text)
    EXTI1_IRQHandler                         0x080001bb   Thumb Code     0  startup_stm32f405xx.o(.text)
    EXTI2_IRQHandler                         0x080001bb   Thumb Code     0  startup_stm32f405xx.o(.text)
    EXTI3_IRQHandler                         0x080001bb   Thumb Code     0  startup_stm32f405xx.o(.text)
    EXTI4_IRQHandler                         0x080001bb   Thumb Code     0  startup_stm32f405xx.o(.text)
    FLASH_IRQHandler                         0x080001bb   Thumb Code     0  startup_stm32f405xx.o(.text)
    FMC_IRQHandler                           0x080001bb   Thumb Code     0  startup_stm32f405xx.o(.text)
    FPU_IRQHandler                           0x080001bb   Thumb Code     0  startup_stm32f405xx.o(.text)
    HASH_RNG_IRQHandler                      0x080001bb   Thumb Code     0  startup_stm32f405xx.o(.text)
    I2C1_ER_IRQHandler                       0x080001bb   Thumb Code     0  startup_stm32f405xx.o(.text)
    I2C1_EV_IRQHandler                       0x080001bb   Thumb Code     0  startup_stm32f405xx.o(.text)
    I2C2_ER_IRQHandler                       0x080001bb   Thumb Code     0  startup_stm32f405xx.o(.text)
    I2C2_EV_IRQHandler                       0x080001bb   Thumb Code     0  startup_stm32f405xx.o(.text)
    I2C3_ER_IRQHandler                       0x080001bb   Thumb Code     0  startup_stm32f405xx.o(.text)
    I2C3_EV_IRQHandler                       0x080001bb   Thumb Code     0  startup_stm32f405xx.o(.text)
    OTG_FS_IRQHandler                        0x080001bb   Thumb Code     0  startup_stm32f405xx.o(.text)
    OTG_FS_WKUP_IRQHandler                   0x080001bb   Thumb Code     0  startup_stm32f405xx.o(.text)
    OTG_HS_EP1_IN_IRQHandler                 0x080001bb   Thumb Code     0  startup_stm32f405xx.o(.text)
    OTG_HS_EP1_OUT_IRQHandler                0x080001bb   Thumb Code     0  startup_stm32f405xx.o(.text)
    OTG_HS_IRQHandler                        0x080001bb   Thumb Code     0  startup_stm32f405xx.o(.text)
    OTG_HS_WKUP_IRQHandler                   0x080001bb   Thumb Code     0  startup_stm32f405xx.o(.text)
    PVD_IRQHandler                           0x080001bb   Thumb Code     0  startup_stm32f405xx.o(.text)
    RCC_IRQHandler                           0x080001bb   Thumb Code     0  startup_stm32f405xx.o(.text)
    RTC_Alarm_IRQHandler                     0x080001bb   Thumb Code     0  startup_stm32f405xx.o(.text)
    RTC_WKUP_IRQHandler                      0x080001bb   Thumb Code     0  startup_stm32f405xx.o(.text)
    SDIO_IRQHandler                          0x080001bb   Thumb Code     0  startup_stm32f405xx.o(.text)
    SPI1_IRQHandler                          0x080001bb   Thumb Code     0  startup_stm32f405xx.o(.text)
    SPI2_IRQHandler                          0x080001bb   Thumb Code     0  startup_stm32f405xx.o(.text)
    SPI3_IRQHandler                          0x080001bb   Thumb Code     0  startup_stm32f405xx.o(.text)
    TAMP_STAMP_IRQHandler                    0x080001bb   Thumb Code     0  startup_stm32f405xx.o(.text)
    TIM1_BRK_TIM9_IRQHandler                 0x080001bb   Thumb Code     0  startup_stm32f405xx.o(.text)
    TIM1_TRG_COM_TIM11_IRQHandler            0x080001bb   Thumb Code     0  startup_stm32f405xx.o(.text)
    TIM1_UP_TIM10_IRQHandler                 0x080001bb   Thumb Code     0  startup_stm32f405xx.o(.text)
    TIM2_IRQHandler                          0x080001bb   Thumb Code     0  startup_stm32f405xx.o(.text)
    TIM3_IRQHandler                          0x080001bb   Thumb Code     0  startup_stm32f405xx.o(.text)
    TIM4_IRQHandler                          0x080001bb   Thumb Code     0  startup_stm32f405xx.o(.text)
    TIM5_IRQHandler                          0x080001bb   Thumb Code     0  startup_stm32f405xx.o(.text)
    TIM6_DAC_IRQHandler                      0x080001bb   Thumb Code     0  startup_stm32f405xx.o(.text)
    TIM7_IRQHandler                          0x080001bb   Thumb Code     0  startup_stm32f405xx.o(.text)
    TIM8_BRK_TIM12_IRQHandler                0x080001bb   Thumb Code     0  startup_stm32f405xx.o(.text)
    TIM8_CC_IRQHandler                       0x080001bb   Thumb Code     0  startup_stm32f405xx.o(.text)
    TIM8_TRG_COM_TIM14_IRQHandler            0x080001bb   Thumb Code     0  startup_stm32f405xx.o(.text)
    TIM8_UP_TIM13_IRQHandler                 0x080001bb   Thumb Code     0  startup_stm32f405xx.o(.text)
    UART4_IRQHandler                         0x080001bb   Thumb Code     0  startup_stm32f405xx.o(.text)
    UART5_IRQHandler                         0x080001bb   Thumb Code     0  startup_stm32f405xx.o(.text)
    USART1_IRQHandler                        0x080001bb   Thumb Code     0  startup_stm32f405xx.o(.text)
    USART2_IRQHandler                        0x080001bb   Thumb Code     0  startup_stm32f405xx.o(.text)
    USART3_IRQHandler                        0x080001bb   Thumb Code     0  startup_stm32f405xx.o(.text)
    USART6_IRQHandler                        0x080001bb   Thumb Code     0  startup_stm32f405xx.o(.text)
    WWDG_IRQHandler                          0x080001bb   Thumb Code     0  startup_stm32f405xx.o(.text)
    arm_cos_f32                              0x080001c5   Thumb Code   108  arm_cos_f32.o(.text)
    arm_sin_f32                              0x0800023d   Thumb Code   130  arm_sin_f32.o(.text)
    __aeabi_uldivmod                         0x080002d1   Thumb Code    98  uldiv.o(.text)
    __aeabi_memcpy                           0x08000333   Thumb Code    36  memcpya.o(.text)
    __aeabi_memcpy4                          0x08000333   Thumb Code     0  memcpya.o(.text)
    __aeabi_memcpy8                          0x08000333   Thumb Code     0  memcpya.o(.text)
    __aeabi_memset                           0x08000357   Thumb Code    14  memseta.o(.text)
    __aeabi_memset4                          0x08000357   Thumb Code     0  memseta.o(.text)
    __aeabi_memset8                          0x08000357   Thumb Code     0  memseta.o(.text)
    __aeabi_memclr                           0x08000365   Thumb Code     4  memseta.o(.text)
    __aeabi_memclr4                          0x08000365   Thumb Code     0  memseta.o(.text)
    __aeabi_memclr8                          0x08000365   Thumb Code     0  memseta.o(.text)
    _memset$wrapper                          0x08000369   Thumb Code    18  memseta.o(.text)
    __aeabi_f2d                              0x0800037b   Thumb Code    38  f2d.o(.text)
    __aeabi_cdcmpeq                          0x080003a1   Thumb Code     0  cdcmple.o(.text)
    __aeabi_cdcmple                          0x080003a1   Thumb Code    48  cdcmple.o(.text)
    __aeabi_uidiv                            0x080003d1   Thumb Code     0  uidiv.o(.text)
    __aeabi_uidivmod                         0x080003d1   Thumb Code    44  uidiv.o(.text)
    __aeabi_llsl                             0x080003fd   Thumb Code    30  llshl.o(.text)
    _ll_shift_l                              0x080003fd   Thumb Code     0  llshl.o(.text)
    __aeabi_llsr                             0x0800041b   Thumb Code    32  llushr.o(.text)
    _ll_ushift_r                             0x0800041b   Thumb Code     0  llushr.o(.text)
    __I$use$fp                               0x0800043b   Thumb Code     0  iusefp.o(.text)
    __aeabi_dadd                             0x0800043b   Thumb Code   322  dadd.o(.text)
    __aeabi_dsub                             0x0800057d   Thumb Code     6  dadd.o(.text)
    __aeabi_drsub                            0x08000583   Thumb Code     6  dadd.o(.text)
    __aeabi_dmul                             0x08000589   Thumb Code   228  dmul.o(.text)
    __aeabi_ddiv                             0x0800066d   Thumb Code   222  ddiv.o(.text)
    __aeabi_d2ulz                            0x0800074b   Thumb Code    48  dfixul.o(.text)
    __aeabi_cdrcmple                         0x0800077d   Thumb Code    48  cdrcmple.o(.text)
    __scatterload                            0x080007ad   Thumb Code    28  init.o(.text)
    __scatterload_rt2                        0x080007ad   Thumb Code     0  init.o(.text)
    __aeabi_lasr                             0x080007d1   Thumb Code    36  llsshr.o(.text)
    _ll_sshift_r                             0x080007d1   Thumb Code     0  llsshr.o(.text)
    _double_round                            0x080007f5   Thumb Code    30  depilogue.o(.text)
    _double_epilogue                         0x08000813   Thumb Code   156  depilogue.o(.text)
    __decompress                             0x080008af   Thumb Code     0  __dczerorl2.o(.text)
    __decompress1                            0x080008af   Thumb Code    86  __dczerorl2.o(.text)
    ADCDMAIRQHandler                         0x08000905   Thumb Code    20  adc1.o(i.ADCDMAIRQHandler)
    ADCDMAStart                              0x0800091d   Thumb Code    10  adc1.o(i.ADCDMAStart)
    APPMain_Init                             0x08000ae9   Thumb Code    18  appmain.o(i.APPMain_Init)
    APPMain_Loop                             0x08000afb   Thumb Code    18  appmain.o(i.APPMain_Loop)
    BusFault_Handler                         0x08000b0d   Thumb Code     2  stm32f4xx_it.o(i.BusFault_Handler)
    DMA2_Stream0_IRQHandler                  0x08000ca9   Thumb Code    20  stm32f4xx_it.o(i.DMA2_Stream0_IRQHandler)
    DebugMon_Handler                         0x08000d65   Thumb Code     2  stm32f4xx_it.o(i.DebugMon_Handler)
    EXTI9_5_IRQHandler                       0x08000d67   Thumb Code     8  stm32f4xx_it.o(i.EXTI9_5_IRQHandler)
    Error_Handler                            0x08000d6f   Thumb Code     2  main.o(i.Error_Handler)
    FOCConfig_Init                           0x08000d71   Thumb Code   166  focconfig.o(i.FOCConfig_Init)
    FocContorl                               0x08000e35   Thumb Code   260  foc.o(i.FocContorl)
    FunctionMain_Init                        0x08000f41   Thumb Code     2  functionmain.o(i.FunctionMain_Init)
    FunctionMain_Loop                        0x08000f43   Thumb Code     2  functionmain.o(i.FunctionMain_Loop)
    GPIONVIC_Init                            0x08000f45   Thumb Code    10  gpionvic.o(i.GPIONVIC_Init)
    GetADC1ChannelXValue                     0x08000f55   Thumb Code    50  adc1.o(i.GetADC1ChannelXValue)
    GetMotorPosition                         0x08000f95   Thumb Code     4  positionpidconfig.o(i.GetMotorPosition)
    GetMotorPreSpeed                         0x0800100d   Thumb Code    62  speedpidconfig.o(i.GetMotorPreSpeed)
    GetMotorSVPWMSector                      0x0800105d   Thumb Code     6  svpwmconfig.o(i.GetMotorSVPWMSector)
    GetSVPWMSector                           0x08001069   Thumb Code     6  svpwm.o(i.GetSVPWMSector)
    GetTimer3EncoderAngle                    0x08001071   Thumb Code    56  tim3encoder.o(i.GetTimer3EncoderAngle)
    GetTimer3EncoderCnt                      0x080010b5   Thumb Code    56  tim3encoder.o(i.GetTimer3EncoderCnt)
    GetVectorDuration                        0x080010f5   Thumb Code   332  svpwm.o(i.GetVectorDuration)
    HAL_ADC_ConfigChannel                    0x08001249   Thumb Code   316  stm32f4xx_hal_adc.o(i.HAL_ADC_ConfigChannel)
    HAL_ADC_ConvCpltCallback                 0x08001395   Thumb Code     2  stm32f4xx_hal_adc.o(i.HAL_ADC_ConvCpltCallback)
    HAL_ADC_ConvHalfCpltCallback             0x08001397   Thumb Code     2  stm32f4xx_hal_adc.o(i.HAL_ADC_ConvHalfCpltCallback)
    HAL_ADC_ErrorCallback                    0x08001399   Thumb Code     2  stm32f4xx_hal_adc.o(i.HAL_ADC_ErrorCallback)
    HAL_ADC_Init                             0x0800139b   Thumb Code    84  stm32f4xx_hal_adc.o(i.HAL_ADC_Init)
    HAL_ADC_MspInit                          0x080013f1   Thumb Code   132  adc.o(i.HAL_ADC_MspInit)
    HAL_ADC_Start_DMA                        0x08001489   Thumb Code   268  stm32f4xx_hal_adc.o(i.HAL_ADC_Start_DMA)
    HAL_DMA_IRQHandler                       0x080015b9   Thumb Code   412  stm32f4xx_hal_dma.o(i.HAL_DMA_IRQHandler)
    HAL_DMA_Init                             0x08001759   Thumb Code   206  stm32f4xx_hal_dma.o(i.HAL_DMA_Init)
    HAL_DMA_Start_IT                         0x0800182d   Thumb Code   110  stm32f4xx_hal_dma.o(i.HAL_DMA_Start_IT)
    HAL_Delay                                0x0800189d   Thumb Code    32  stm32f4xx_hal.o(i.HAL_Delay)
    HAL_GPIO_EXTI_Callback                   0x080018c1   Thumb Code    36  gpionvic.o(i.HAL_GPIO_EXTI_Callback)
    HAL_GPIO_EXTI_IRQHandler                 0x080018e9   Thumb Code    18  stm32f4xx_hal_gpio.o(i.HAL_GPIO_EXTI_IRQHandler)
    HAL_GPIO_Init                            0x08001901   Thumb Code   394  stm32f4xx_hal_gpio.o(i.HAL_GPIO_Init)
    HAL_GPIO_WritePin                        0x08001ab9   Thumb Code    10  stm32f4xx_hal_gpio.o(i.HAL_GPIO_WritePin)
    HAL_GetTick                              0x08001ac5   Thumb Code     6  stm32f4xx_hal.o(i.HAL_GetTick)
    HAL_IncTick                              0x08001ad1   Thumb Code    12  stm32f4xx_hal.o(i.HAL_IncTick)
    HAL_Init                                 0x08001ae1   Thumb Code    48  stm32f4xx_hal.o(i.HAL_Init)
    HAL_InitTick                             0x08001b15   Thumb Code    54  stm32f4xx_hal.o(i.HAL_InitTick)
    HAL_MspInit                              0x08001b55   Thumb Code    42  stm32f4xx_hal_msp.o(i.HAL_MspInit)
    HAL_NVIC_EnableIRQ                       0x08001b85   Thumb Code    26  stm32f4xx_hal_cortex.o(i.HAL_NVIC_EnableIRQ)
    HAL_NVIC_SetPriority                     0x08001ba1   Thumb Code    60  stm32f4xx_hal_cortex.o(i.HAL_NVIC_SetPriority)
    HAL_NVIC_SetPriorityGrouping             0x08001be1   Thumb Code    26  stm32f4xx_hal_cortex.o(i.HAL_NVIC_SetPriorityGrouping)
    HAL_RCC_ClockConfig                      0x08001c05   Thumb Code   288  stm32f4xx_hal_rcc.o(i.HAL_RCC_ClockConfig)
    HAL_RCC_GetSysClockFreq                  0x08001d39   Thumb Code    88  stm32f4xx_hal_rcc.o(i.HAL_RCC_GetSysClockFreq)
    HAL_RCC_OscConfig                        0x08001d99   Thumb Code   840  stm32f4xx_hal_rcc.o(i.HAL_RCC_OscConfig)
    HAL_SPI_Init                             0x080020f5   Thumb Code   128  stm32f4xx_hal_spi.o(i.HAL_SPI_Init)
    HAL_SPI_MspInit                          0x08002175   Thumb Code    94  spi.o(i.HAL_SPI_MspInit)
    HAL_SYSTICK_Config                       0x080021e1   Thumb Code    40  stm32f4xx_hal_cortex.o(i.HAL_SYSTICK_Config)
    HAL_TIMEx_BreakCallback                  0x08002209   Thumb Code     2  stm32f4xx_hal_tim_ex.o(i.HAL_TIMEx_BreakCallback)
    HAL_TIMEx_CommutCallback                 0x0800220b   Thumb Code     2  stm32f4xx_hal_tim_ex.o(i.HAL_TIMEx_CommutCallback)
    HAL_TIMEx_ConfigBreakDeadTime            0x0800220d   Thumb Code    84  stm32f4xx_hal_tim_ex.o(i.HAL_TIMEx_ConfigBreakDeadTime)
    HAL_TIMEx_MasterConfigSynchronization    0x08002261   Thumb Code   116  stm32f4xx_hal_tim_ex.o(i.HAL_TIMEx_MasterConfigSynchronization)
    HAL_TIMEx_PWMN_Start                     0x080022f1   Thumb Code    46  stm32f4xx_hal_tim_ex.o(i.HAL_TIMEx_PWMN_Start)
    HAL_TIM_Base_Init                        0x0800231f   Thumb Code    54  stm32f4xx_hal_tim.o(i.HAL_TIM_Base_Init)
    HAL_TIM_Base_MspInit                     0x08002355   Thumb Code    50  tim.o(i.HAL_TIM_Base_MspInit)
    HAL_TIM_Base_Start_IT                    0x08002391   Thumb Code    34  stm32f4xx_hal_tim.o(i.HAL_TIM_Base_Start_IT)
    HAL_TIM_Base_Stop_IT                     0x080023b3   Thumb Code    42  stm32f4xx_hal_tim.o(i.HAL_TIM_Base_Stop_IT)
    HAL_TIM_ConfigClockSource                0x080023dd   Thumb Code   214  stm32f4xx_hal_tim.o(i.HAL_TIM_ConfigClockSource)
    HAL_TIM_Encoder_Init                     0x080024b3   Thumb Code   152  stm32f4xx_hal_tim.o(i.HAL_TIM_Encoder_Init)
    HAL_TIM_Encoder_MspInit                  0x0800254d   Thumb Code    88  tim.o(i.HAL_TIM_Encoder_MspInit)
    HAL_TIM_Encoder_Start                    0x080025b1   Thumb Code    52  stm32f4xx_hal_tim.o(i.HAL_TIM_Encoder_Start)
    HAL_TIM_IC_CaptureCallback               0x080025e5   Thumb Code     2  stm32f4xx_hal_tim.o(i.HAL_TIM_IC_CaptureCallback)
    HAL_TIM_IRQHandler                       0x080025e7   Thumb Code   358  stm32f4xx_hal_tim.o(i.HAL_TIM_IRQHandler)
    HAL_TIM_MspPostInit                      0x0800274d   Thumb Code   110  tim.o(i.HAL_TIM_MspPostInit)
    HAL_TIM_OC_DelayElapsedCallback          0x080027cd   Thumb Code     2  stm32f4xx_hal_tim.o(i.HAL_TIM_OC_DelayElapsedCallback)
    HAL_TIM_PWM_ConfigChannel                0x080027cf   Thumb Code   208  stm32f4xx_hal_tim.o(i.HAL_TIM_PWM_ConfigChannel)
    HAL_TIM_PWM_Init                         0x0800289f   Thumb Code    54  stm32f4xx_hal_tim.o(i.HAL_TIM_PWM_Init)
    HAL_TIM_PWM_MspInit                      0x080028d5   Thumb Code     2  stm32f4xx_hal_tim.o(i.HAL_TIM_PWM_MspInit)
    HAL_TIM_PWM_PulseFinishedCallback        0x080028d7   Thumb Code     2  stm32f4xx_hal_tim.o(i.HAL_TIM_PWM_PulseFinishedCallback)
    HAL_TIM_PWM_Start                        0x080028d9   Thumb Code    58  stm32f4xx_hal_tim.o(i.HAL_TIM_PWM_Start)
    HAL_TIM_PWM_Start_IT                     0x0800291d   Thumb Code   108  stm32f4xx_hal_tim.o(i.HAL_TIM_PWM_Start_IT)
    HAL_TIM_PWM_Stop_IT                      0x08002991   Thumb Code   128  stm32f4xx_hal_tim.o(i.HAL_TIM_PWM_Stop_IT)
    HAL_TIM_PeriodElapsedCallback            0x08002a19   Thumb Code     2  stm32f4xx_hal_tim.o(i.HAL_TIM_PeriodElapsedCallback)
    HAL_TIM_TriggerCallback                  0x08002a1b   Thumb Code     2  stm32f4xx_hal_tim.o(i.HAL_TIM_TriggerCallback)
    HardFault_Handler                        0x08002a1d   Thumb Code     2  stm32f4xx_it.o(i.HardFault_Handler)
    MCUDriverMain_Init                       0x08002a1f   Thumb Code    14  mcudrivermain.o(i.MCUDriverMain_Init)
    MCUDriverMain_Loop                       0x08002a2d   Thumb Code     2  mcudrivermain.o(i.MCUDriverMain_Loop)
    MX_ADC1_Init                             0x08002a31   Thumb Code   110  adc.o(i.MX_ADC1_Init)
    MX_DMA_Init                              0x08002aad   Thumb Code    40  dma.o(i.MX_DMA_Init)
    MX_GPIO_Init                             0x08002ad9   Thumb Code   216  gpio.o(i.MX_GPIO_Init)
    MX_SPI3_Init                             0x08002bc5   Thumb Code    66  spi.o(i.MX_SPI3_Init)
    MX_TIM1_Init                             0x08002c11   Thumb Code   254  tim.o(i.MX_TIM1_Init)
    MX_TIM3_Init                             0x08002d19   Thumb Code   100  tim.o(i.MX_TIM3_Init)
    MemManage_Handler                        0x08002d85   Thumb Code     2  stm32f4xx_it.o(i.MemManage_Handler)
    MotorFocControl                          0x08002d89   Thumb Code     6  focconfig.o(i.MotorFocControl)
    MotorSvpwmGenerate                       0x08002d95   Thumb Code     6  svpwmconfig.o(i.MotorSvpwmGenerate)
    NMI_Handler                              0x08002da1   Thumb Code     2  stm32f4xx_it.o(i.NMI_Handler)
    PendSV_Handler                           0x08002da3   Thumb Code     2  stm32f4xx_it.o(i.PendSV_Handler)
    PerDriverMain_Init                       0x08002da5   Thumb Code    26  perdrivermain.o(i.PerDriverMain_Init)
    PerDriverMain_Loop                       0x08002dc1   Thumb Code    84  perdrivermain.o(i.PerDriverMain_Loop)
    PositionPIDConfig_Init                   0x08002e25   Thumb Code    56  positionpidconfig.o(i.PositionPIDConfig_Init)
    PositionPIDConfig_Loop                   0x08002e6d   Thumb Code     6  positionpidconfig.o(i.PositionPIDConfig_Loop)
    PositionPIDConfig_Printf                 0x08002e79   Thumb Code     6  positionpidconfig.o(i.PositionPIDConfig_Printf)
    PositionPIDCycle                         0x08002f11   Thumb Code    48  positionpid.o(i.PositionPIDCycle)
    PositionPIDPrintf                        0x08002f49   Thumb Code    48  positionpid.o(i.PositionPIDPrintf)
    SEGGER_RTT_Write                         0x08002f89   Thumb Code   142  segger_rtt.o(i.SEGGER_RTT_Write)
    SVC_Handler                              0x0800301d   Thumb Code     2  stm32f4xx_it.o(i.SVC_Handler)
    SetCurrentPIDParams                      0x0800301f   Thumb Code    24  foc.o(i.SetCurrentPIDParams)
    SetCurrentPIDTar                         0x08003037   Thumb Code    10  foc.o(i.SetCurrentPIDTar)
    SetFocEnable                             0x08003041   Thumb Code    12  foc.o(i.SetFocEnable)
    SetMotorCurrent                          0x08003061   Thumb Code    12  speedpidconfig.o(i.SetMotorCurrent)
    SetMotorEnable                           0x08003071   Thumb Code    12  motorgpio.o(i.SetMotorEnable)
    SetMotorPosition                         0x08003081   Thumb Code     4  positionpidconfig.o(i.SetMotorPosition)
    SetPositionPIDConfigTarPosition          0x08003085   Thumb Code     6  positionpidconfig.o(i.SetPositionPIDConfigTarPosition)
    SetPositionPIDEnable                     0x08003091   Thumb Code    12  positionpid.o(i.SetPositionPIDEnable)
    SetPositionPIDParams                     0x0800309d   Thumb Code    14  positionpid.o(i.SetPositionPIDParams)
    SetPositionPIDTar                        0x080030ab   Thumb Code     6  positionpid.o(i.SetPositionPIDTar)
    SetSpeedPIDConfigTarSpeed                0x080030b1   Thumb Code     6  speedpidconfig.o(i.SetSpeedPIDConfigTarSpeed)
    SetSpeedPIDEnable                        0x080030bd   Thumb Code    12  speedpid.o(i.SetSpeedPIDEnable)
    SetSpeedPIDParams                        0x080030c9   Thumb Code    14  speedpid.o(i.SetSpeedPIDParams)
    SetSpeedPIDTar                           0x080030d7   Thumb Code     6  speedpid.o(i.SetSpeedPIDTar)
    SetTIM1Channel1HighLeaveTime_us          0x080030dd   Thumb Code    54  tim1pwm.o(i.SetTIM1Channel1HighLeaveTime_us)
    SetTIM1Channel2HighLeaveTime_us          0x08003129   Thumb Code    54  tim1pwm.o(i.SetTIM1Channel2HighLeaveTime_us)
    SetTIM1Channel3HighLeaveTime_us          0x08003175   Thumb Code    54  tim1pwm.o(i.SetTIM1Channel3HighLeaveTime_us)
    SetTIM1Channel4HighLeaveTime_us          0x080031c1   Thumb Code    54  tim1pwm.o(i.SetTIM1Channel4HighLeaveTime_us)
    SetTarIDIQ                               0x0800320d   Thumb Code     6  focconfig.o(i.SetTarIDIQ)
    SetTimer3EncoderCnt                      0x08003219   Thumb Code     6  tim3encoder.o(i.SetTimer3EncoderCnt)
    SpeedPIDConfig_Init                      0x08003225   Thumb Code    56  speedpidconfig.o(i.SpeedPIDConfig_Init)
    SpeedPIDConfig_Loop                      0x0800326d   Thumb Code     6  speedpidconfig.o(i.SpeedPIDConfig_Loop)
    SpeedPIDConfig_Printf                    0x08003279   Thumb Code     6  speedpidconfig.o(i.SpeedPIDConfig_Printf)
    SpeedPIDCycle                            0x08003305   Thumb Code    48  speedpid.o(i.SpeedPIDCycle)
    SpeedPIDPrintf                           0x0800333d   Thumb Code    48  speedpid.o(i.SpeedPIDPrintf)
    SvpwmContorol                            0x0800337d   Thumb Code    28  svpwm.o(i.SvpwmContorol)
    SvpwmGenerate                            0x08003399   Thumb Code   284  svpwm.o(i.SvpwmGenerate)
    SvpwmSectorJudgment                      0x080034b5   Thumb Code   148  svpwm.o(i.SvpwmSectorJudgment)
    SysTick_Handler                          0x08003551   Thumb Code    28  stm32f4xx_it.o(i.SysTick_Handler)
    SystemClock_Config                       0x08003579   Thumb Code   124  main.o(i.SystemClock_Config)
    SystemInit                               0x080035fd   Thumb Code    22  system_stm32f4xx.o(i.SystemInit)
    TIM1_CC_IRQHandler                       0x08003619   Thumb Code    16  stm32f4xx_it.o(i.TIM1_CC_IRQHandler)
    TIM1_Init                                0x0800362d   Thumb Code    96  tim1pwm.o(i.TIM1_Init)
    TIM_Base_SetConfig                       0x08003695   Thumb Code   156  stm32f4xx_hal_tim.o(i.TIM_Base_SetConfig)
    TIM_CCxChannelCmd                        0x0800375d   Thumb Code    26  stm32f4xx_hal_tim.o(i.TIM_CCxChannelCmd)
    TIM_ETR_SetConfig                        0x08003791   Thumb Code    20  stm32f4xx_hal_tim.o(i.TIM_ETR_SetConfig)
    TIM_OC2_SetConfig                        0x08003815   Thumb Code    98  stm32f4xx_hal_tim.o(i.TIM_OC2_SetConfig)
    Timer1Channel4ITEnable                   0x08003981   Thumb Code    40  tim1pwm.o(i.Timer1Channel4ITEnable)
    TimerEncoderInit                         0x080039ad   Thumb Code    36  tim3encoder.o(i.TimerEncoderInit)
    TimerEncoderReset                        0x080039dd   Thumb Code    26  tim3encoder.o(i.TimerEncoderReset)
    UsageFault_Handler                       0x08003a05   Thumb Code     2  stm32f4xx_it.o(i.UsageFault_Handler)
    __0printf                                0x08003a09   Thumb Code    22  printfa.o(i.__0printf)
    __1printf                                0x08003a09   Thumb Code     0  printfa.o(i.__0printf)
    __2printf                                0x08003a09   Thumb Code     0  printfa.o(i.__0printf)
    __c89printf                              0x08003a09   Thumb Code     0  printfa.o(i.__0printf)
    printf                                   0x08003a09   Thumb Code     0  printfa.o(i.__0printf)
    __scatterload_copy                       0x08003a49   Thumb Code    14  handlers.o(i.__scatterload_copy)
    __scatterload_null                       0x08003a57   Thumb Code     2  handlers.o(i.__scatterload_null)
    __scatterload_zeroinit                   0x08003a59   Thumb Code    14  handlers.o(i.__scatterload_zeroinit)
    fputc                                    0x080042f3   Thumb Code    22  segger_rtt.o(i.fputc)
    main                                     0x08004309   Thumb Code    42  main.o(i.main)
    AHBPrescTable                            0x0800433a   Data          16  system_stm32f4xx.o(.constdata)
    sinTable_f32                             0x0800434c   Data        2052  arm_common_tables.o(.constdata)
    Region$$Table$$Base                      0x08004b5c   Number         0  anon$$obj.o(Region$$Table)
    Region$$Table$$Limit                     0x08004b7c   Number         0  anon$$obj.o(Region$$Table)
    uwTickFreq                               0x20000000   Data           1  stm32f4xx_hal.o(.data)
    uwTickPrio                               0x20000004   Data           4  stm32f4xx_hal.o(.data)
    uwTick                                   0x20000008   Data           4  stm32f4xx_hal.o(.data)
    SystemCoreClock                          0x2000000c   Data           4  system_stm32f4xx.o(.data)
    gSTTimerEncoder                          0x20000010   Data           8  tim3encoder.o(.data)
    gMS_TimeCNT                              0x20000018   Data           4  timer.o(.data)
    gEncoderCal                              0x2000001c   Data           8  gpionvic.o(.data)
    debugFlag                                0x20000024   Data           4  perdrivermain.o(.data)
    gMotor                                   0x20000030   Data          88  svpwmconfig.o(.data)
    gMotorFOC                                0x20000088   Data         152  focconfig.o(.data)
    gSpeedPID                                0x20000128   Data          60  speedpidconfig.o(.data)
    gPositionPID                             0x20000164   Data          60  positionpidconfig.o(.data)
    gSpeedPID_TimeCNT                        0x200001a0   Data           4  speedpid.o(.data)
    gPositionPID_TimeCNT                     0x200001a4   Data           4  positionpid.o(.data)
    __stdout                                 0x20000220   Data           4  stdout.o(.data)
    hadc1                                    0x20000224   Data          72  adc.o(.bss)
    hdma_adc1                                0x2000026c   Data          96  adc.o(.bss)
    hspi3                                    0x200002cc   Data          88  spi.o(.bss)
    htim1                                    0x20000324   Data          64  tim.o(.bss)
    htim3                                    0x20000364   Data          64  tim.o(.bss)
    gADC1                                    0x200003a4   Data          24  adc1.o(.bss)
    __initial_sp                             0x20000bd0   Data           0  startup_stm32f405xx.o(STACK)



==============================================================================

Memory Map of the image

  Image Entry point : 0x08000189

  Load Region LR_IROM1 (Base: 0x08000000, Size: 0x00004da0, Max: 0x00100000, ABSOLUTE, COMPRESSED[0x00004bf8])

    Execution Region ER_IROM1 (Exec base: 0x08000000, Load base: 0x08000000, Size: 0x00004b7c, Max: 0x00100000, ABSOLUTE)

    Exec Addr    Load Addr    Size         Type   Attr      Idx    E Section Name        Object

    0x08000000   0x08000000   0x00000188   Data   RO            3    RESET               startup_stm32f405xx.o
    0x08000188   0x08000188   0x00000000   Code   RO         4357  * .ARM.Collect$$$$00000000  mc_w.l(entry.o)
    0x08000188   0x08000188   0x00000004   Code   RO         4635    .ARM.Collect$$$$00000001  mc_w.l(entry2.o)
    0x0800018c   0x0800018c   0x00000004   Code   RO         4638    .ARM.Collect$$$$00000004  mc_w.l(entry5.o)
    0x08000190   0x08000190   0x00000000   Code   RO         4640    .ARM.Collect$$$$00000008  mc_w.l(entry7b.o)
    0x08000190   0x08000190   0x00000000   Code   RO         4642    .ARM.Collect$$$$0000000A  mc_w.l(entry8b.o)
    0x08000190   0x08000190   0x00000008   Code   RO         4643    .ARM.Collect$$$$0000000B  mc_w.l(entry9a.o)
    0x08000198   0x08000198   0x00000004   Code   RO         4650    .ARM.Collect$$$$0000000E  mc_w.l(entry12b.o)
    0x0800019c   0x0800019c   0x00000000   Code   RO         4645    .ARM.Collect$$$$0000000F  mc_w.l(entry10a.o)
    0x0800019c   0x0800019c   0x00000000   Code   RO         4647    .ARM.Collect$$$$00000011  mc_w.l(entry11a.o)
    0x0800019c   0x0800019c   0x00000004   Code   RO         4636    .ARM.Collect$$$$00002712  mc_w.l(entry2.o)
    0x080001a0   0x080001a0   0x00000024   Code   RO            4    .text               startup_stm32f405xx.o
    0x080001c4   0x080001c4   0x00000078   Code   RO         4204    .text               arm_cortexM4lf_math.lib(arm_cos_f32.o)
    0x0800023c   0x0800023c   0x00000094   Code   RO         4254    .text               arm_cortexM4lf_math.lib(arm_sin_f32.o)
    0x080002d0   0x080002d0   0x00000062   Code   RO         4360    .text               mc_w.l(uldiv.o)
    0x08000332   0x08000332   0x00000024   Code   RO         4362    .text               mc_w.l(memcpya.o)
    0x08000356   0x08000356   0x00000024   Code   RO         4364    .text               mc_w.l(memseta.o)
    0x0800037a   0x0800037a   0x00000026   Code   RO         4631    .text               mf_w.l(f2d.o)
    0x080003a0   0x080003a0   0x00000030   Code   RO         4633    .text               mf_w.l(cdcmple.o)
    0x080003d0   0x080003d0   0x0000002c   Code   RO         4652    .text               mc_w.l(uidiv.o)
    0x080003fc   0x080003fc   0x0000001e   Code   RO         4654    .text               mc_w.l(llshl.o)
    0x0800041a   0x0800041a   0x00000020   Code   RO         4656    .text               mc_w.l(llushr.o)
    0x0800043a   0x0800043a   0x00000000   Code   RO         4658    .text               mc_w.l(iusefp.o)
    0x0800043a   0x0800043a   0x0000014e   Code   RO         4659    .text               mf_w.l(dadd.o)
    0x08000588   0x08000588   0x000000e4   Code   RO         4661    .text               mf_w.l(dmul.o)
    0x0800066c   0x0800066c   0x000000de   Code   RO         4663    .text               mf_w.l(ddiv.o)
    0x0800074a   0x0800074a   0x00000030   Code   RO         4665    .text               mf_w.l(dfixul.o)
    0x0800077a   0x0800077a   0x00000002   PAD
    0x0800077c   0x0800077c   0x00000030   Code   RO         4667    .text               mf_w.l(cdrcmple.o)
    0x080007ac   0x080007ac   0x00000024   Code   RO         4669    .text               mc_w.l(init.o)
    0x080007d0   0x080007d0   0x00000024   Code   RO         4671    .text               mc_w.l(llsshr.o)
    0x080007f4   0x080007f4   0x000000ba   Code   RO         4673    .text               mf_w.l(depilogue.o)
    0x080008ae   0x080008ae   0x00000056   Code   RO         4683    .text               mc_w.l(__dczerorl2.o)
    0x08000904   0x08000904   0x00000018   Code   RO         3514    i.ADCDMAIRQHandler  adc1.o
    0x0800091c   0x0800091c   0x00000014   Code   RO         3515    i.ADCDMAStart       adc1.o
    0x08000930   0x08000930   0x0000006e   Code   RO          510    i.ADC_DMAConvCplt   stm32f4xx_hal_adc.o
    0x0800099e   0x0800099e   0x00000016   Code   RO          511    i.ADC_DMAError      stm32f4xx_hal_adc.o
    0x080009b4   0x080009b4   0x0000000a   Code   RO          512    i.ADC_DMAHalfConvCplt  stm32f4xx_hal_adc.o
    0x080009be   0x080009be   0x00000002   PAD
    0x080009c0   0x080009c0   0x00000128   Code   RO          513    i.ADC_Init          stm32f4xx_hal_adc.o
    0x08000ae8   0x08000ae8   0x00000012   Code   RO         3202    i.APPMain_Init      appmain.o
    0x08000afa   0x08000afa   0x00000012   Code   RO         3203    i.APPMain_Loop      appmain.o
    0x08000b0c   0x08000b0c   0x00000002   Code   RO          371    i.BusFault_Handler  stm32f4xx_it.o
    0x08000b0e   0x08000b0e   0x00000094   Code   RO         3853    i.CurrentPIControlID  foc.o
    0x08000ba2   0x08000ba2   0x00000094   Code   RO         3854    i.CurrentPIControlIQ  foc.o
    0x08000c36   0x08000c36   0x00000070   Code   RO         3855    i.CurrentReconstruction  foc.o
    0x08000ca6   0x08000ca6   0x00000002   PAD
    0x08000ca8   0x08000ca8   0x00000018   Code   RO          372    i.DMA2_Stream0_IRQHandler  stm32f4xx_it.o
    0x08000cc0   0x08000cc0   0x00000028   Code   RO         1244    i.DMA_CalcBaseAndBitshift  stm32f4xx_hal_dma.o
    0x08000ce8   0x08000ce8   0x00000054   Code   RO         1245    i.DMA_CheckFifoParam  stm32f4xx_hal_dma.o
    0x08000d3c   0x08000d3c   0x00000028   Code   RO         1246    i.DMA_SetConfig     stm32f4xx_hal_dma.o
    0x08000d64   0x08000d64   0x00000002   Code   RO          373    i.DebugMon_Handler  stm32f4xx_it.o
    0x08000d66   0x08000d66   0x00000008   Code   RO          374    i.EXTI9_5_IRQHandler  stm32f4xx_it.o
    0x08000d6e   0x08000d6e   0x00000002   Code   RO           13    i.Error_Handler     main.o
    0x08000d70   0x08000d70   0x000000c4   Code   RO         3674    i.FOCConfig_Init    focconfig.o
    0x08000e34   0x08000e34   0x0000010c   Code   RO         3857    i.FocContorl        foc.o
    0x08000f40   0x08000f40   0x00000002   Code   RO         3229    i.FunctionMain_Init  functionmain.o
    0x08000f42   0x08000f42   0x00000002   Code   RO         3230    i.FunctionMain_Loop  functionmain.o
    0x08000f44   0x08000f44   0x00000010   Code   RO         3475    i.GPIONVIC_Init     gpionvic.o
    0x08000f54   0x08000f54   0x00000040   Code   RO         3516    i.GetADC1ChannelXValue  adc1.o
    0x08000f94   0x08000f94   0x00000004   Code   RO         3805    i.GetMotorPosition  positionpidconfig.o
    0x08000f98   0x08000f98   0x00000074   Code   RO         3676    i.GetMotorPreCurrent  focconfig.o
    0x0800100c   0x0800100c   0x00000050   Code   RO         3760    i.GetMotorPreSpeed  speedpidconfig.o
    0x0800105c   0x0800105c   0x0000000c   Code   RO         3647    i.GetMotorSVPWMSector  svpwmconfig.o
    0x08001068   0x08001068   0x00000006   Code   RO         3936    i.GetSVPWMSector    svpwm.o
    0x0800106e   0x0800106e   0x00000002   PAD
    0x08001070   0x08001070   0x00000044   Code   RO         3355    i.GetTimer3EncoderAngle  tim3encoder.o
    0x080010b4   0x080010b4   0x00000040   Code   RO         3356    i.GetTimer3EncoderCnt  tim3encoder.o
    0x080010f4   0x080010f4   0x00000154   Code   RO         3937    i.GetVectorDuration  svpwm.o
    0x08001248   0x08001248   0x0000014c   Code   RO          515    i.HAL_ADC_ConfigChannel  stm32f4xx_hal_adc.o
    0x08001394   0x08001394   0x00000002   Code   RO          516    i.HAL_ADC_ConvCpltCallback  stm32f4xx_hal_adc.o
    0x08001396   0x08001396   0x00000002   Code   RO          517    i.HAL_ADC_ConvHalfCpltCallback  stm32f4xx_hal_adc.o
    0x08001398   0x08001398   0x00000002   Code   RO          519    i.HAL_ADC_ErrorCallback  stm32f4xx_hal_adc.o
    0x0800139a   0x0800139a   0x00000054   Code   RO          524    i.HAL_ADC_Init      stm32f4xx_hal_adc.o
    0x080013ee   0x080013ee   0x00000002   PAD
    0x080013f0   0x080013f0   0x00000098   Code   RO          198    i.HAL_ADC_MspInit   adc.o
    0x08001488   0x08001488   0x00000130   Code   RO          531    i.HAL_ADC_Start_DMA  stm32f4xx_hal_adc.o
    0x080015b8   0x080015b8   0x000001a0   Code   RO         1252    i.HAL_DMA_IRQHandler  stm32f4xx_hal_dma.o
    0x08001758   0x08001758   0x000000d4   Code   RO         1253    i.HAL_DMA_Init      stm32f4xx_hal_dma.o
    0x0800182c   0x0800182c   0x0000006e   Code   RO         1257    i.HAL_DMA_Start_IT  stm32f4xx_hal_dma.o
    0x0800189a   0x0800189a   0x00000002   PAD
    0x0800189c   0x0800189c   0x00000024   Code   RO         1666    i.HAL_Delay         stm32f4xx_hal.o
    0x080018c0   0x080018c0   0x00000028   Code   RO         3476    i.HAL_GPIO_EXTI_Callback  gpionvic.o
    0x080018e8   0x080018e8   0x00000018   Code   RO         1139    i.HAL_GPIO_EXTI_IRQHandler  stm32f4xx_hal_gpio.o
    0x08001900   0x08001900   0x000001b8   Code   RO         1140    i.HAL_GPIO_Init     stm32f4xx_hal_gpio.o
    0x08001ab8   0x08001ab8   0x0000000a   Code   RO         1144    i.HAL_GPIO_WritePin  stm32f4xx_hal_gpio.o
    0x08001ac2   0x08001ac2   0x00000002   PAD
    0x08001ac4   0x08001ac4   0x0000000c   Code   RO         1672    i.HAL_GetTick       stm32f4xx_hal.o
    0x08001ad0   0x08001ad0   0x00000010   Code   RO         1678    i.HAL_IncTick       stm32f4xx_hal.o
    0x08001ae0   0x08001ae0   0x00000034   Code   RO         1679    i.HAL_Init          stm32f4xx_hal.o
    0x08001b14   0x08001b14   0x00000040   Code   RO         1680    i.HAL_InitTick      stm32f4xx_hal.o
    0x08001b54   0x08001b54   0x00000030   Code   RO          486    i.HAL_MspInit       stm32f4xx_hal_msp.o
    0x08001b84   0x08001b84   0x0000001a   Code   RO         1529    i.HAL_NVIC_EnableIRQ  stm32f4xx_hal_cortex.o
    0x08001b9e   0x08001b9e   0x00000002   PAD
    0x08001ba0   0x08001ba0   0x00000040   Code   RO         1535    i.HAL_NVIC_SetPriority  stm32f4xx_hal_cortex.o
    0x08001be0   0x08001be0   0x00000024   Code   RO         1536    i.HAL_NVIC_SetPriorityGrouping  stm32f4xx_hal_cortex.o
    0x08001c04   0x08001c04   0x00000134   Code   RO          786    i.HAL_RCC_ClockConfig  stm32f4xx_hal_rcc.o
    0x08001d38   0x08001d38   0x00000060   Code   RO          795    i.HAL_RCC_GetSysClockFreq  stm32f4xx_hal_rcc.o
    0x08001d98   0x08001d98   0x0000035c   Code   RO          798    i.HAL_RCC_OscConfig  stm32f4xx_hal_rcc.o
    0x080020f4   0x080020f4   0x00000080   Code   RO         1928    i.HAL_SPI_Init      stm32f4xx_hal_spi.o
    0x08002174   0x08002174   0x0000006c   Code   RO          264    i.HAL_SPI_MspInit   spi.o
    0x080021e0   0x080021e0   0x00000028   Code   RO         1540    i.HAL_SYSTICK_Config  stm32f4xx_hal_cortex.o
    0x08002208   0x08002208   0x00000002   Code   RO         2916    i.HAL_TIMEx_BreakCallback  stm32f4xx_hal_tim_ex.o
    0x0800220a   0x0800220a   0x00000002   Code   RO         2917    i.HAL_TIMEx_CommutCallback  stm32f4xx_hal_tim_ex.o
    0x0800220c   0x0800220c   0x00000054   Code   RO         2919    i.HAL_TIMEx_ConfigBreakDeadTime  stm32f4xx_hal_tim_ex.o
    0x08002260   0x08002260   0x00000090   Code   RO         2934    i.HAL_TIMEx_MasterConfigSynchronization  stm32f4xx_hal_tim_ex.o
    0x080022f0   0x080022f0   0x0000002e   Code   RO         2945    i.HAL_TIMEx_PWMN_Start  stm32f4xx_hal_tim_ex.o
    0x0800231e   0x0800231e   0x00000036   Code   RO         2241    i.HAL_TIM_Base_Init  stm32f4xx_hal_tim.o
    0x08002354   0x08002354   0x0000003c   Code   RO          306    i.HAL_TIM_Base_MspInit  tim.o
    0x08002390   0x08002390   0x00000022   Code   RO         2246    i.HAL_TIM_Base_Start_IT  stm32f4xx_hal_tim.o
    0x080023b2   0x080023b2   0x0000002a   Code   RO         2249    i.HAL_TIM_Base_Stop_IT  stm32f4xx_hal_tim.o
    0x080023dc   0x080023dc   0x000000d6   Code   RO         2250    i.HAL_TIM_ConfigClockSource  stm32f4xx_hal_tim.o
    0x080024b2   0x080024b2   0x00000098   Code   RO         2259    i.HAL_TIM_Encoder_Init  stm32f4xx_hal_tim.o
    0x0800254a   0x0800254a   0x00000002   PAD
    0x0800254c   0x0800254c   0x00000064   Code   RO          308    i.HAL_TIM_Encoder_MspInit  tim.o
    0x080025b0   0x080025b0   0x00000034   Code   RO         2262    i.HAL_TIM_Encoder_Start  stm32f4xx_hal_tim.o
    0x080025e4   0x080025e4   0x00000002   Code   RO         2270    i.HAL_TIM_IC_CaptureCallback  stm32f4xx_hal_tim.o
    0x080025e6   0x080025e6   0x00000166   Code   RO         2284    i.HAL_TIM_IRQHandler  stm32f4xx_hal_tim.o
    0x0800274c   0x0800274c   0x00000080   Code   RO          309    i.HAL_TIM_MspPostInit  tim.o
    0x080027cc   0x080027cc   0x00000002   Code   RO         2287    i.HAL_TIM_OC_DelayElapsedCallback  stm32f4xx_hal_tim.o
    0x080027ce   0x080027ce   0x000000d0   Code   RO         2308    i.HAL_TIM_PWM_ConfigChannel  stm32f4xx_hal_tim.o
    0x0800289e   0x0800289e   0x00000036   Code   RO         2311    i.HAL_TIM_PWM_Init  stm32f4xx_hal_tim.o
    0x080028d4   0x080028d4   0x00000002   Code   RO         2313    i.HAL_TIM_PWM_MspInit  stm32f4xx_hal_tim.o
    0x080028d6   0x080028d6   0x00000002   Code   RO         2314    i.HAL_TIM_PWM_PulseFinishedCallback  stm32f4xx_hal_tim.o
    0x080028d8   0x080028d8   0x00000044   Code   RO         2316    i.HAL_TIM_PWM_Start  stm32f4xx_hal_tim.o
    0x0800291c   0x0800291c   0x00000074   Code   RO         2318    i.HAL_TIM_PWM_Start_IT  stm32f4xx_hal_tim.o
    0x08002990   0x08002990   0x00000088   Code   RO         2321    i.HAL_TIM_PWM_Stop_IT  stm32f4xx_hal_tim.o
    0x08002a18   0x08002a18   0x00000002   Code   RO         2322    i.HAL_TIM_PeriodElapsedCallback  stm32f4xx_hal_tim.o
    0x08002a1a   0x08002a1a   0x00000002   Code   RO         2327    i.HAL_TIM_TriggerCallback  stm32f4xx_hal_tim.o
    0x08002a1c   0x08002a1c   0x00000002   Code   RO          375    i.HardFault_Handler  stm32f4xx_it.o
    0x08002a1e   0x08002a1e   0x0000000e   Code   RO         3250    i.MCUDriverMain_Init  mcudrivermain.o
    0x08002a2c   0x08002a2c   0x00000002   Code   RO         3251    i.MCUDriverMain_Loop  mcudrivermain.o
    0x08002a2e   0x08002a2e   0x00000002   PAD
    0x08002a30   0x08002a30   0x0000007c   Code   RO          199    i.MX_ADC1_Init      adc.o
    0x08002aac   0x08002aac   0x0000002c   Code   RO          239    i.MX_DMA_Init       dma.o
    0x08002ad8   0x08002ad8   0x000000ec   Code   RO          173    i.MX_GPIO_Init      gpio.o
    0x08002bc4   0x08002bc4   0x0000004c   Code   RO          265    i.MX_SPI3_Init      spi.o
    0x08002c10   0x08002c10   0x00000108   Code   RO          310    i.MX_TIM1_Init      tim.o
    0x08002d18   0x08002d18   0x0000006c   Code   RO          311    i.MX_TIM3_Init      tim.o
    0x08002d84   0x08002d84   0x00000002   Code   RO          376    i.MemManage_Handler  stm32f4xx_it.o
    0x08002d86   0x08002d86   0x00000002   PAD
    0x08002d88   0x08002d88   0x0000000c   Code   RO         3677    i.MotorFocControl   focconfig.o
    0x08002d94   0x08002d94   0x0000000c   Code   RO         3648    i.MotorSvpwmGenerate  svpwmconfig.o
    0x08002da0   0x08002da0   0x00000002   Code   RO          377    i.NMI_Handler       stm32f4xx_it.o
    0x08002da2   0x08002da2   0x00000002   Code   RO          378    i.PendSV_Handler    stm32f4xx_it.o
    0x08002da4   0x08002da4   0x0000001a   Code   RO         3605    i.PerDriverMain_Init  perdrivermain.o
    0x08002dbe   0x08002dbe   0x00000002   PAD
    0x08002dc0   0x08002dc0   0x00000064   Code   RO         3606    i.PerDriverMain_Loop  perdrivermain.o
    0x08002e24   0x08002e24   0x00000048   Code   RO         3806    i.PositionPIDConfig_Init  positionpidconfig.o
    0x08002e6c   0x08002e6c   0x0000000c   Code   RO         3807    i.PositionPIDConfig_Loop  positionpidconfig.o
    0x08002e78   0x08002e78   0x0000000c   Code   RO         3808    i.PositionPIDConfig_Printf  positionpidconfig.o
    0x08002e84   0x08002e84   0x0000008c   Code   RO         4043    i.PositionPIDControl  positionpid.o
    0x08002f10   0x08002f10   0x00000038   Code   RO         4044    i.PositionPIDCycle  positionpid.o
    0x08002f48   0x08002f48   0x00000040   Code   RO         4045    i.PositionPIDPrintf  positionpid.o
    0x08002f88   0x08002f88   0x00000094   Code   RO         4097    i.SEGGER_RTT_Write  segger_rtt.o
    0x0800301c   0x0800301c   0x00000002   Code   RO          379    i.SVC_Handler       stm32f4xx_it.o
    0x0800301e   0x0800301e   0x00000018   Code   RO         3858    i.SetCurrentPIDParams  foc.o
    0x08003036   0x08003036   0x0000000a   Code   RO         3859    i.SetCurrentPIDTar  foc.o
    0x08003040   0x08003040   0x0000000c   Code   RO         3860    i.SetFocEnable      foc.o
    0x0800304c   0x0800304c   0x00000012   Code   RO         3678    i.SetMotorAndTimITEnable  focconfig.o
    0x0800305e   0x0800305e   0x00000002   PAD
    0x08003060   0x08003060   0x00000010   Code   RO         3761    i.SetMotorCurrent   speedpidconfig.o
    0x08003070   0x08003070   0x00000010   Code   RO         3450    i.SetMotorEnable    motorgpio.o
    0x08003080   0x08003080   0x00000004   Code   RO         3809    i.SetMotorPosition  positionpidconfig.o
    0x08003084   0x08003084   0x0000000c   Code   RO         3810    i.SetPositionPIDConfigTarPosition  positionpidconfig.o
    0x08003090   0x08003090   0x0000000c   Code   RO         4046    i.SetPositionPIDEnable  positionpid.o
    0x0800309c   0x0800309c   0x0000000e   Code   RO         4047    i.SetPositionPIDParams  positionpid.o
    0x080030aa   0x080030aa   0x00000006   Code   RO         4048    i.SetPositionPIDTar  positionpid.o
    0x080030b0   0x080030b0   0x0000000c   Code   RO         3762    i.SetSpeedPIDConfigTarSpeed  speedpidconfig.o
    0x080030bc   0x080030bc   0x0000000c   Code   RO         3996    i.SetSpeedPIDEnable  speedpid.o
    0x080030c8   0x080030c8   0x0000000e   Code   RO         3997    i.SetSpeedPIDParams  speedpid.o
    0x080030d6   0x080030d6   0x00000006   Code   RO         3998    i.SetSpeedPIDTar    speedpid.o
    0x080030dc   0x080030dc   0x0000004c   Code   RO         3300    i.SetTIM1Channel1HighLeaveTime_us  tim1pwm.o
    0x08003128   0x08003128   0x0000004c   Code   RO         3301    i.SetTIM1Channel2HighLeaveTime_us  tim1pwm.o
    0x08003174   0x08003174   0x0000004c   Code   RO         3302    i.SetTIM1Channel3HighLeaveTime_us  tim1pwm.o
    0x080031c0   0x080031c0   0x0000004c   Code   RO         3303    i.SetTIM1Channel4HighLeaveTime_us  tim1pwm.o
    0x0800320c   0x0800320c   0x0000000c   Code   RO         3679    i.SetTarIDIQ        focconfig.o
    0x08003218   0x08003218   0x0000000c   Code   RO         3357    i.SetTimer3EncoderCnt  tim3encoder.o
    0x08003224   0x08003224   0x00000048   Code   RO         3763    i.SpeedPIDConfig_Init  speedpidconfig.o
    0x0800326c   0x0800326c   0x0000000c   Code   RO         3764    i.SpeedPIDConfig_Loop  speedpidconfig.o
    0x08003278   0x08003278   0x0000000c   Code   RO         3765    i.SpeedPIDConfig_Printf  speedpidconfig.o
    0x08003284   0x08003284   0x00000080   Code   RO         3999    i.SpeedPIDControl   speedpid.o
    0x08003304   0x08003304   0x00000038   Code   RO         4000    i.SpeedPIDCycle     speedpid.o
    0x0800333c   0x0800333c   0x00000040   Code   RO         4001    i.SpeedPIDPrintf    speedpid.o
    0x0800337c   0x0800337c   0x0000001c   Code   RO         3938    i.SvpwmContorol     svpwm.o
    0x08003398   0x08003398   0x0000011c   Code   RO         3939    i.SvpwmGenerate     svpwm.o
    0x080034b4   0x080034b4   0x0000009c   Code   RO         3940    i.SvpwmSectorJudgment  svpwm.o
    0x08003550   0x08003550   0x00000028   Code   RO          380    i.SysTick_Handler   stm32f4xx_it.o
    0x08003578   0x08003578   0x00000084   Code   RO           14    i.SystemClock_Config  main.o
    0x080035fc   0x080035fc   0x0000001c   Code   RO         3168    i.SystemInit        system_stm32f4xx.o
    0x08003618   0x08003618   0x00000014   Code   RO          381    i.TIM1_CC_IRQHandler  stm32f4xx_it.o
    0x0800362c   0x0800362c   0x00000068   Code   RO         3304    i.TIM1_Init         tim1pwm.o
    0x08003694   0x08003694   0x000000c8   Code   RO         2329    i.TIM_Base_SetConfig  stm32f4xx_hal_tim.o
    0x0800375c   0x0800375c   0x0000001a   Code   RO         2330    i.TIM_CCxChannelCmd  stm32f4xx_hal_tim.o
    0x08003776   0x08003776   0x0000001a   Code   RO         2954    i.TIM_CCxNChannelCmd  stm32f4xx_hal_tim_ex.o
    0x08003790   0x08003790   0x00000014   Code   RO         2340    i.TIM_ETR_SetConfig  stm32f4xx_hal_tim.o
    0x080037a4   0x080037a4   0x00000010   Code   RO         2341    i.TIM_ITRx_SetConfig  stm32f4xx_hal_tim.o
    0x080037b4   0x080037b4   0x00000060   Code   RO         2342    i.TIM_OC1_SetConfig  stm32f4xx_hal_tim.o
    0x08003814   0x08003814   0x0000006c   Code   RO         2343    i.TIM_OC2_SetConfig  stm32f4xx_hal_tim.o
    0x08003880   0x08003880   0x00000068   Code   RO         2344    i.TIM_OC3_SetConfig  stm32f4xx_hal_tim.o
    0x080038e8   0x080038e8   0x00000050   Code   RO         2345    i.TIM_OC4_SetConfig  stm32f4xx_hal_tim.o
    0x08003938   0x08003938   0x00000022   Code   RO         2347    i.TIM_TI1_ConfigInputStage  stm32f4xx_hal_tim.o
    0x0800395a   0x0800395a   0x00000024   Code   RO         2349    i.TIM_TI2_ConfigInputStage  stm32f4xx_hal_tim.o
    0x0800397e   0x0800397e   0x00000002   PAD
    0x08003980   0x08003980   0x0000002c   Code   RO         3305    i.Timer1Channel4ITEnable  tim1pwm.o
    0x080039ac   0x080039ac   0x00000030   Code   RO         3358    i.TimerEncoderInit  tim3encoder.o
    0x080039dc   0x080039dc   0x00000028   Code   RO         3359    i.TimerEncoderReset  tim3encoder.o
    0x08003a04   0x08003a04   0x00000002   Code   RO          382    i.UsageFault_Handler  stm32f4xx_it.o
    0x08003a06   0x08003a06   0x00000002   PAD
    0x08003a08   0x08003a08   0x00000020   Code   RO         4601    i.__0printf         mc_w.l(printfa.o)
    0x08003a28   0x08003a28   0x00000020   Code   RO         1542    i.__NVIC_SetPriority  stm32f4xx_hal_cortex.o
    0x08003a48   0x08003a48   0x0000000e   Code   RO         4677    i.__scatterload_copy  mc_w.l(handlers.o)
    0x08003a56   0x08003a56   0x00000002   Code   RO         4678    i.__scatterload_null  mc_w.l(handlers.o)
    0x08003a58   0x08003a58   0x0000000e   Code   RO         4679    i.__scatterload_zeroinit  mc_w.l(handlers.o)
    0x08003a66   0x08003a66   0x00000002   PAD
    0x08003a68   0x08003a68   0x00000184   Code   RO         4608    i._fp_digits        mc_w.l(printfa.o)
    0x08003bec   0x08003bec   0x000006b4   Code   RO         4609    i._printf_core      mc_w.l(printfa.o)
    0x080042a0   0x080042a0   0x00000024   Code   RO         4610    i._printf_post_padding  mc_w.l(printfa.o)
    0x080042c4   0x080042c4   0x0000002e   Code   RO         4611    i._printf_pre_padding  mc_w.l(printfa.o)
    0x080042f2   0x080042f2   0x00000016   Code   RO         4099    i.fputc             segger_rtt.o
    0x08004308   0x08004308   0x0000002a   Code   RO           15    i.main              main.o
    0x08004332   0x08004332   0x00000008   Data   RO         1259    .constdata          stm32f4xx_hal_dma.o
    0x0800433a   0x0800433a   0x00000010   Data   RO         3169    .constdata          system_stm32f4xx.o
    0x0800434a   0x0800434a   0x00000002   PAD
    0x0800434c   0x0800434c   0x00000804   Data   RO         4334    .constdata          arm_cortexM4lf_math.lib(arm_common_tables.o)
    0x08004b50   0x08004b50   0x00000009   Data   RO         4102    .conststring        segger_rtt.o
    0x08004b59   0x08004b59   0x00000003   PAD
    0x08004b5c   0x08004b5c   0x00000020   Data   RO         4675    Region$$Table       anon$$obj.o


    Execution Region RW_IRAM2 (Exec base: 0x10000000, Load base: 0x08004bf8, Size: 0x00000000, Max: 0x00010000, ABSOLUTE)

    **** No section assigned to this execution region ****


    Execution Region RW_IRAM1 (Exec base: 0x20000000, Load base: 0x08004b7c, Size: 0x00000bd0, Max: 0x00020000, ABSOLUTE, COMPRESSED[0x0000007c])

    Exec Addr    Load Addr    Size         Type   Attr      Idx    E Section Name        Object

    0x20000000   COMPRESSED   0x0000000c   Data   RW         1686    .data               stm32f4xx_hal.o
    0x2000000c   COMPRESSED   0x00000004   Data   RW         3171    .data               system_stm32f4xx.o
    0x20000010   COMPRESSED   0x00000008   Data   RW         3360    .data               tim3encoder.o
    0x20000018   COMPRESSED   0x00000004   Data   RW         3421    .data               timer.o
    0x2000001c   COMPRESSED   0x00000008   Data   RW         3477    .data               gpionvic.o
    0x20000024   COMPRESSED   0x0000000c   Data   RW         3607    .data               perdrivermain.o
    0x20000030   COMPRESSED   0x00000058   Data   RW         3649    .data               svpwmconfig.o
    0x20000088   COMPRESSED   0x00000098   Data   RW         3680    .data               focconfig.o
    0x20000120   COMPRESSED   0x00000044   Data   RW         3766    .data               speedpidconfig.o
    0x20000164   COMPRESSED   0x0000003c   Data   RW         3811    .data               positionpidconfig.o
    0x200001a0   COMPRESSED   0x00000004   Data   RW         4002    .data               speedpid.o
    0x200001a4   COMPRESSED   0x00000004   Data   RW         4049    .data               positionpid.o
    0x200001a8   COMPRESSED   0x00000078   Data   RW         4103    .data               segger_rtt.o
    0x20000220   COMPRESSED   0x00000004   Data   RW         4651    .data               mc_w.l(stdout.o)
    0x20000224        -       0x000000a8   Zero   RW          200    .bss                adc.o
    0x200002cc        -       0x00000058   Zero   RW          266    .bss                spi.o
    0x20000324        -       0x00000080   Zero   RW          312    .bss                tim.o
    0x200003a4        -       0x00000018   Zero   RW         3517    .bss                adc1.o
    0x200003bc        -       0x00000400   Zero   RW         4100    .bss                segger_rtt.o
    0x200007bc        -       0x00000010   Zero   RW         4101    .bss                segger_rtt.o
    0x200007cc   COMPRESSED   0x00000004   PAD
    0x200007d0        -       0x00000400   Zero   RW            1    STACK               startup_stm32f405xx.o


==============================================================================

Image component sizes


      Code (inc. data)   RO Data    RW Data    ZI Data      Debug   Object Name

       276         34          0          0        168       1899   adc.o
       108         28          0          0         24       2284   adc1.o
        36          0          0          0          0       1046   appmain.o
        44          4          0          0          0        830   dma.o
       722         16          0          0          0       8005   foc.o
       354         48          0        152          0       5611   focconfig.o
         4          0          0          0          0       1008   functionmain.o
       236         20          0          0          0       1087   gpio.o
        56         10          0          8          0       1831   gpionvic.o
       176          8          0          0          0     650856   main.o
        16          0          0          0          0       1070   mcudrivermain.o
        16          4          0          0          0        533   motorgpio.o
       126         16          0         12          0       1626   perdrivermain.o
       292         30          0          4          0       5808   positionpid.o
       116         34          0         60          0       3760   positionpidconfig.o
       170          6          9        120       1040       2851   segger_rtt.o
       280         30          0          4          0       5626   speedpid.o
       204         56          0         68          0       3809   speedpidconfig.o
       184         24          0          0         88       1801   spi.o
        36          8        392          0       1024        860   startup_stm32f405xx.o
       180         28          0         12          0       9633   stm32f4xx_hal.o
      1164         64          0          0          0       7705   stm32f4xx_hal_adc.o
       198         14          0          0          0      34123   stm32f4xx_hal_cortex.o
       902         16          8          0          0       5999   stm32f4xx_hal_dma.o
       474         52          0          0          0       3135   stm32f4xx_hal_gpio.o
        48          6          0          0          0        910   stm32f4xx_hal_msp.o
      1264         48          0          0          0       4150   stm32f4xx_hal_rcc.o
       128          0          0          0          0       1219   stm32f4xx_hal_spi.o
      2220        106          0          0          0      21693   stm32f4xx_hal_tim.o
       304         28          0          0          0       4800   stm32f4xx_hal_tim_ex.o
       108         20          0          0          0       8873   stm32f4xx_it.o
       814         40          0          0          0       3643   svpwm.o
        24         12          0         88          0       2828   svpwmconfig.o
        28          6         16          4          0       1239   system_stm32f4xx.o
       660         58          0          0        128       4111   tim.o
       452        100          0          0          0       3769   tim1pwm.o
       232         52          0          8          0       3633   tim3encoder.o
         0          0          0          4          0        246   timer.o

    ----------------------------------------------------------------------
     12680       1026        462        544       2476     823910   Object Totals
         0          0         32          0          0          0   (incl. Generated)
        28          0          5          0          4          0   (incl. Padding)

    ----------------------------------------------------------------------

      Code (inc. data)   RO Data    RW Data    ZI Data      Debug   Library Member Name

         0          0       2052          0          0       4704   arm_common_tables.o
       120         12          0          0          0      17170   arm_cos_f32.o
       148         18          0          0          0        814   arm_sin_f32.o
        86          0          0          0          0          0   __dczerorl2.o
         0          0          0          0          0          0   entry.o
         0          0          0          0          0          0   entry10a.o
         0          0          0          0          0          0   entry11a.o
         4          0          0          0          0          0   entry12b.o
         8          4          0          0          0          0   entry2.o
         4          0          0          0          0          0   entry5.o
         0          0          0          0          0          0   entry7b.o
         0          0          0          0          0          0   entry8b.o
         8          4          0          0          0          0   entry9a.o
        30          0          0          0          0          0   handlers.o
        36          8          0          0          0         68   init.o
         0          0          0          0          0          0   iusefp.o
        30          0          0          0          0         68   llshl.o
        36          0          0          0          0         68   llsshr.o
        32          0          0          0          0         68   llushr.o
        36          0          0          0          0         68   memcpya.o
        36          0          0          0          0        108   memseta.o
      2218         90          0          0          0        464   printfa.o
         0          0          0          4          0          0   stdout.o
        44          0          0          0          0         80   uidiv.o
        98          0          0          0          0         92   uldiv.o
        48          0          0          0          0         68   cdcmple.o
        48          0          0          0          0         68   cdrcmple.o
       334          0          0          0          0        148   dadd.o
       222          0          0          0          0        100   ddiv.o
       186          0          0          0          0        176   depilogue.o
        48          0          0          0          0         68   dfixul.o
       228          0          0          0          0         96   dmul.o
        38          0          0          0          0         68   f2d.o

    ----------------------------------------------------------------------
      4130        136       2052          4          0      24564   Library Totals
         4          0          0          0          0          0   (incl. Padding)

    ----------------------------------------------------------------------

      Code (inc. data)   RO Data    RW Data    ZI Data      Debug   Library Name

       268         30       2052          0          0      22688   arm_cortexM4lf_math.lib
      2706        106          0          4          0       1084   mc_w.l
      1152          0          0          0          0        792   mf_w.l

    ----------------------------------------------------------------------
      4130        136       2052          4          0      24564   Library Totals

    ----------------------------------------------------------------------

==============================================================================


      Code (inc. data)   RO Data    RW Data    ZI Data      Debug   

     16810       1162       2514        548       2476     832622   Grand Totals
     16810       1162       2514        124       2476     832622   ELF Image Totals (compressed)
     16810       1162       2514        124          0          0   ROM Totals

==============================================================================

    Total RO  Size (Code + RO Data)                19324 (  18.87kB)
    Total RW  Size (RW Data + ZI Data)              3024 (   2.95kB)
    Total ROM Size (Code + RO Data + RW Data)      19448 (  18.99kB)

==============================================================================

