Component: ARM Compiler 5.06 update 7 (build 960) Tool: armlink [4d3601]

==============================================================================

Section Cross References

    startup_stm32f405xx.o(RESET) refers to startup_stm32f405xx.o(STACK) for __initial_sp
    startup_stm32f405xx.o(RESET) refers to startup_stm32f405xx.o(.text) for Reset_Handler
    startup_stm32f405xx.o(RESET) refers to stm32f4xx_it.o(i.NMI_Handler) for NMI_Handler
    startup_stm32f405xx.o(RESET) refers to stm32f4xx_it.o(i.HardFault_Handler) for HardFault_Handler
    startup_stm32f405xx.o(RESET) refers to stm32f4xx_it.o(i.MemManage_Handler) for MemManage_Handler
    startup_stm32f405xx.o(RESET) refers to stm32f4xx_it.o(i.BusFault_Handler) for BusFault_Handler
    startup_stm32f405xx.o(RESET) refers to stm32f4xx_it.o(i.UsageFault_Handler) for UsageFault_Handler
    startup_stm32f405xx.o(RESET) refers to stm32f4xx_it.o(i.SVC_Handler) for SVC_Handler
    startup_stm32f405xx.o(RESET) refers to stm32f4xx_it.o(i.DebugMon_Handler) for DebugMon_Handler
    startup_stm32f405xx.o(RESET) refers to stm32f4xx_it.o(i.PendSV_Handler) for PendSV_Handler
    startup_stm32f405xx.o(RESET) refers to stm32f4xx_it.o(i.SysTick_Handler) for SysTick_Handler
    startup_stm32f405xx.o(RESET) refers to stm32f4xx_it.o(i.EXTI3_IRQHandler) for EXTI3_IRQHandler
    startup_stm32f405xx.o(RESET) refers to stm32f4xx_it.o(i.CAN1_RX0_IRQHandler) for CAN1_RX0_IRQHandler
    startup_stm32f405xx.o(RESET) refers to stm32f4xx_it.o(i.TIM1_CC_IRQHandler) for TIM1_CC_IRQHandler
    startup_stm32f405xx.o(RESET) refers to stm32f4xx_it.o(i.DMA2_Stream0_IRQHandler) for DMA2_Stream0_IRQHandler
    startup_stm32f405xx.o(.text) refers to system_stm32f4xx.o(i.SystemInit) for SystemInit
    startup_stm32f405xx.o(.text) refers to entry.o(.ARM.Collect$$$$00000000) for __main
    main.o(i.SystemClock_Config) refers to memseta.o(.text) for __aeabi_memclr4
==============================================================================

Removing Unused input sections from the image.

    Removing startup_stm32f405xx.o(HEAP), (512 bytes).
    Removing main.o(.rev16_text), (4 bytes).
    Removing main.o(.revsh_text), (4 bytes).
    Removing main.o(.rrx_text), (6 bytes).
    Removing gpio.o(.rev16_text), (4 bytes).
    Removing gpio.o(.revsh_text), (4 bytes).
    Removing gpio.o(.rrx_text), (6 bytes).
    Removing adc.o(.rev16_text), (4 bytes).
    Removing adc.o(.revsh_text), (4 bytes).
    Removing adc.o(.rrx_text), (6 bytes).
    Removing adc.o(i.HAL_ADC_MspDeInit), (96 bytes).
    Removing can.o(.rev16_text), (4 bytes).
    Removing can.o(.revsh_text), (4 bytes).
    Removing can.o(.rrx_text), (6 bytes).
    Removing can.o(i.HAL_CAN_MspDeInit), (56 bytes).
    Removing dma.o(.rev16_text), (4 bytes).
    Removing dma.o(.revsh_text), (4 bytes).
    Removing dma.o(.rrx_text), (6 bytes).
==============================================================================

Image Symbol Table

    Local Symbols

    Symbol Name                              Value     Ov Type        Size  Object(Section)

    ../Core/Src/adc.c                        0x00000000   Number         0  adc.o ABSOLUTE
    ../Core/Src/can.c                        0x00000000   Number         0  can.o ABSOLUTE
    ../Core/Src/dma.c                        0x00000000   Number         0  dma.o ABSOLUTE
    ../Core/Src/gpio.c                       0x00000000   Number         0  gpio.o ABSOLUTE
    ../Core/Src/main.c                       0x00000000   Number         0  main.o ABSOLUTE
    ../Core/Src/stm32f4xx_hal_msp.c          0x00000000   Number         0  stm32f4xx_hal_msp.o ABSOLUTE
    ../Core/Src/stm32f4xx_it.c               0x00000000   Number         0  stm32f4xx_it.o ABSOLUTE
    ../Core/Src/system_stm32f4xx.c           0x00000000   Number         0  system_stm32f4xx.o ABSOLUTE
    ../Core/Src/tim.c                        0x00000000   Number         0  tim.o ABSOLUTE
    ../Drivers/STM32F4xx_HAL_Driver/Src/stm32f4xx_hal.c 0x00000000   Number         0  stm32f4xx_hal.o ABSOLUTE
    ../Drivers/STM32F4xx_HAL_Driver/Src/stm32f4xx_hal_adc.c 0x00000000   Number         0  stm32f4xx_hal_adc.o ABSOLUTE
    ../Drivers/STM32F4xx_HAL_Driver/Src/stm32f4xx_hal_adc_ex.c 0x00000000   Number         0  stm32f4xx_hal_adc_ex.o ABSOLUTE
    ../Drivers/STM32F4xx_HAL_Driver/Src/stm32f4xx_hal_can.c 0x00000000   Number         0  stm32f4xx_hal_can.o ABSOLUTE
    ../Drivers/STM32F4xx_HAL_Driver/Src/stm32f4xx_hal_cortex.c 0x00000000   Number         0  stm32f4xx_hal_cortex.o ABSOLUTE
    ../Drivers/STM32F4xx_HAL_Driver/Src/stm32f4xx_hal_dma.c 0x00000000   Number         0  stm32f4xx_hal_dma.o ABSOLUTE
    ../Drivers/STM32F4xx_HAL_Driver/Src/stm32f4xx_hal_dma_ex.c 0x00000000   Number         0  stm32f4xx_hal_dma_ex.o ABSOLUTE
    ../Drivers/STM32F4xx_HAL_Driver/Src/stm32f4xx_hal_exti.c 0x00000000   Number         0  stm32f4xx_hal_exti.o ABSOLUTE
    ../Drivers/STM32F4xx_HAL_Driver/Src/stm32f4xx_hal_flash.c 0x00000000   Number         0  stm32f4xx_hal_flash.o ABSOLUTE
    ../Drivers/STM32F4xx_HAL_Driver/Src/stm32f4xx_hal_flash_ex.c 0x00000000   Number         0  stm32f4xx_hal_flash_ex.o ABSOLUTE
    ../Drivers/STM32F4xx_HAL_Driver/Src/stm32f4xx_hal_flash_ramfunc.c 0x00000000   Number         0  stm32f4xx_hal_flash_ramfunc.o ABSOLUTE
    ../Drivers/STM32F4xx_HAL_Driver/Src/stm32f4xx_hal_gpio.c 0x00000000   Number         0  stm32f4xx_hal_gpio.o ABSOLUTE
    ../Drivers/STM32F4xx_HAL_Driver/Src/stm32f4xx_hal_pwr.c 0x00000000   Number         0  stm32f4xx_hal_pwr.o ABSOLUTE
    ../Drivers/STM32F4xx_HAL_Driver/Src/stm32f4xx_hal_pwr_ex.c 0x00000000   Number         0  stm32f4xx_hal_pwr_ex.o ABSOLUTE
    ../Drivers/STM32F4xx_HAL_Driver/Src/stm32f4xx_hal_rcc.c 0x00000000   Number         0  stm32f4xx_hal_rcc.o ABSOLUTE
    ../Drivers/STM32F4xx_HAL_Driver/Src/stm32f4xx_hal_rcc_ex.c 0x00000000   Number         0  stm32f4xx_hal_rcc_ex.o ABSOLUTE
    ../Drivers/STM32F4xx_HAL_Driver/Src/stm32f4xx_hal_tim.c 0x00000000   Number         0  stm32f4xx_hal_tim.o ABSOLUTE
    ../Drivers/STM32F4xx_HAL_Driver/Src/stm32f4xx_hal_tim_ex.c 0x00000000   Number         0  stm32f4xx_hal_tim_ex.o ABSOLUTE
    ../clib/../cmprslib/zerorunl2.c          0x00000000   Number         0  __dczerorl2.o ABSOLUTE
    ../clib/microlib/division.c              0x00000000   Number         0  uldiv.o ABSOLUTE
    ../clib/microlib/division.c              0x00000000   Number         0  uidiv.o ABSOLUTE
    ../clib/microlib/init/entry.s            0x00000000   Number         0  entry12b.o ABSOLUTE
    ../clib/microlib/init/entry.s            0x00000000   Number         0  entry12a.o ABSOLUTE
    ../clib/microlib/init/entry.s            0x00000000   Number         0  entry11b.o ABSOLUTE
    ../clib/microlib/init/entry.s            0x00000000   Number         0  entry11a.o ABSOLUTE
    ../clib/microlib/init/entry.s            0x00000000   Number         0  entry10b.o ABSOLUTE
    ../clib/microlib/init/entry.s            0x00000000   Number         0  entry10a.o ABSOLUTE
    ../clib/microlib/init/entry.s            0x00000000   Number         0  entry9b.o ABSOLUTE
    ../clib/microlib/init/entry.s            0x00000000   Number         0  entry.o ABSOLUTE
    ../clib/microlib/init/entry.s            0x00000000   Number         0  entry9a.o ABSOLUTE
    ../clib/microlib/init/entry.s            0x00000000   Number         0  entry8b.o ABSOLUTE
    ../clib/microlib/init/entry.s            0x00000000   Number         0  entry8a.o ABSOLUTE
    ../clib/microlib/init/entry.s            0x00000000   Number         0  entry7b.o ABSOLUTE
    ../clib/microlib/init/entry.s            0x00000000   Number         0  entry7a.o ABSOLUTE
    ../clib/microlib/init/entry.s            0x00000000   Number         0  entry5.o ABSOLUTE
    ../clib/microlib/init/entry.s            0x00000000   Number         0  entry2.o ABSOLUTE
    ../clib/microlib/longlong.c              0x00000000   Number         0  llsshr.o ABSOLUTE
    ../clib/microlib/longlong.c              0x00000000   Number         0  llshl.o ABSOLUTE
    ../clib/microlib/longlong.c              0x00000000   Number         0  llushr.o ABSOLUTE
    ../clib/microlib/printf/printf.c         0x00000000   Number         0  printf3.o ABSOLUTE
    ../clib/microlib/printf/printf.c         0x00000000   Number         0  printfa.o ABSOLUTE
    ../clib/microlib/printf/printf.c         0x00000000   Number         0  printf5.o ABSOLUTE
    ../clib/microlib/printf/printf.c         0x00000000   Number         0  printfb.o ABSOLUTE
    ../clib/microlib/printf/printf.c         0x00000000   Number         0  printf0.o ABSOLUTE
    ../clib/microlib/printf/printf.c         0x00000000   Number         0  printf1.o ABSOLUTE
    ../clib/microlib/printf/printf.c         0x00000000   Number         0  printf2.o ABSOLUTE
    ../clib/microlib/printf/printf.c         0x00000000   Number         0  printf4.o ABSOLUTE
    ../clib/microlib/printf/printf.c         0x00000000   Number         0  printf6.o ABSOLUTE
    ../clib/microlib/printf/printf.c         0x00000000   Number         0  printf7.o ABSOLUTE
    ../clib/microlib/printf/printf.c         0x00000000   Number         0  printf8.o ABSOLUTE
    ../clib/microlib/printf/stubs.s          0x00000000   Number         0  stubs.o ABSOLUTE
    ../clib/microlib/stdio/streams.c         0x00000000   Number         0  stdout.o ABSOLUTE
    ../clib/microlib/string/memcpy.c         0x00000000   Number         0  memcpyb.o ABSOLUTE
    ../clib/microlib/string/memcpy.c         0x00000000   Number         0  memcpya.o ABSOLUTE
    ../clib/microlib/string/memset.c         0x00000000   Number         0  memseta.o ABSOLUTE
    ../clib/microlib/stubs.s                 0x00000000   Number         0  iusefp.o ABSOLUTE
    ../fplib/microlib/d2f.c                  0x00000000   Number         0  d2f.o ABSOLUTE
    ../fplib/microlib/f2d.c                  0x00000000   Number         0  f2d.o ABSOLUTE
    ../fplib/microlib/fpadd.c                0x00000000   Number         0  dadd.o ABSOLUTE
    ../fplib/microlib/fpdiv.c                0x00000000   Number         0  ddiv.o ABSOLUTE
    ../fplib/microlib/fpepilogue.c           0x00000000   Number         0  depilogue.o ABSOLUTE
    ../fplib/microlib/fpepilogue.c           0x00000000   Number         0  fepilogue.o ABSOLUTE
    ../fplib/microlib/fpfix.c                0x00000000   Number         0  dfixul.o ABSOLUTE
    ../fplib/microlib/fpmul.c                0x00000000   Number         0  dmul.o ABSOLUTE
    ../fplib/microlib/fpneg.c                0x00000000   Number         0  dneg.o ABSOLUTE
    ../mathlib/fabs.c                        0x00000000   Number         0  fabs.o ABSOLUTE
    ..\..\Source\CommonTables\arm_common_tables.c 0x00000000   Number         0  arm_common_tables.o ABSOLUTE
    ..\..\Source\FastMathFunctions\arm_cos_f32.c 0x00000000   Number         0  arm_cos_f32.o ABSOLUTE
    ..\..\Source\FastMathFunctions\arm_sin_f32.c 0x00000000   Number         0  arm_sin_f32.o ABSOLUTE
    ..\Core\Src\adc.c                        0x00000000   Number         0  adc.o ABSOLUTE
    ..\Core\Src\can.c                        0x00000000   Number         0  can.o ABSOLUTE
    ..\Core\Src\dma.c                        0x00000000   Number         0  dma.o ABSOLUTE
    ..\Core\Src\gpio.c                       0x00000000   Number         0  gpio.o ABSOLUTE
    ..\Core\Src\main.c                       0x00000000   Number         0  main.o ABSOLUTE
    ..\Core\Src\stm32f4xx_hal_msp.c          0x00000000   Number         0  stm32f4xx_hal_msp.o ABSOLUTE
    ..\Core\Src\stm32f4xx_it.c               0x00000000   Number         0  stm32f4xx_it.o ABSOLUTE
    ..\Core\Src\system_stm32f4xx.c           0x00000000   Number         0  system_stm32f4xx.o ABSOLUTE
    ..\Core\Src\tim.c                        0x00000000   Number         0  tim.o ABSOLUTE
    ..\Drivers\STM32F4xx_HAL_Driver\Src\stm32f4xx_hal.c 0x00000000   Number         0  stm32f4xx_hal.o ABSOLUTE
    ..\Drivers\STM32F4xx_HAL_Driver\Src\stm32f4xx_hal_adc.c 0x00000000   Number         0  stm32f4xx_hal_adc.o ABSOLUTE
    ..\Drivers\STM32F4xx_HAL_Driver\Src\stm32f4xx_hal_adc_ex.c 0x00000000   Number         0  stm32f4xx_hal_adc_ex.o ABSOLUTE
    ..\Drivers\STM32F4xx_HAL_Driver\Src\stm32f4xx_hal_can.c 0x00000000   Number         0  stm32f4xx_hal_can.o ABSOLUTE
    ..\Drivers\STM32F4xx_HAL_Driver\Src\stm32f4xx_hal_cortex.c 0x00000000   Number         0  stm32f4xx_hal_cortex.o ABSOLUTE
    ..\Drivers\STM32F4xx_HAL_Driver\Src\stm32f4xx_hal_dma.c 0x00000000   Number         0  stm32f4xx_hal_dma.o ABSOLUTE
    ..\Drivers\STM32F4xx_HAL_Driver\Src\stm32f4xx_hal_dma_ex.c 0x00000000   Number         0  stm32f4xx_hal_dma_ex.o ABSOLUTE
    ..\Drivers\STM32F4xx_HAL_Driver\Src\stm32f4xx_hal_exti.c 0x00000000   Number         0  stm32f4xx_hal_exti.o ABSOLUTE
    ..\Drivers\STM32F4xx_HAL_Driver\Src\stm32f4xx_hal_flash.c 0x00000000   Number         0  stm32f4xx_hal_flash.o ABSOLUTE
    ..\Drivers\STM32F4xx_HAL_Driver\Src\stm32f4xx_hal_flash_ex.c 0x00000000   Number         0  stm32f4xx_hal_flash_ex.o ABSOLUTE
    ..\Drivers\STM32F4xx_HAL_Driver\Src\stm32f4xx_hal_flash_ramfunc.c 0x00000000   Number         0  stm32f4xx_hal_flash_ramfunc.o ABSOLUTE
    ..\Drivers\STM32F4xx_HAL_Driver\Src\stm32f4xx_hal_gpio.c 0x00000000   Number         0  stm32f4xx_hal_gpio.o ABSOLUTE
    ..\Drivers\STM32F4xx_HAL_Driver\Src\stm32f4xx_hal_pwr.c 0x00000000   Number         0  stm32f4xx_hal_pwr.o ABSOLUTE
    ..\Drivers\STM32F4xx_HAL_Driver\Src\stm32f4xx_hal_pwr_ex.c 0x00000000   Number         0  stm32f4xx_hal_pwr_ex.o ABSOLUTE
    ..\Drivers\STM32F4xx_HAL_Driver\Src\stm32f4xx_hal_rcc.c 0x00000000   Number         0  stm32f4xx_hal_rcc.o ABSOLUTE
    ..\Drivers\STM32F4xx_HAL_Driver\Src\stm32f4xx_hal_rcc_ex.c 0x00000000   Number         0  stm32f4xx_hal_rcc_ex.o ABSOLUTE
    ..\Drivers\STM32F4xx_HAL_Driver\Src\stm32f4xx_hal_tim.c 0x00000000   Number         0  stm32f4xx_hal_tim.o ABSOLUTE
    ..\Drivers\STM32F4xx_HAL_Driver\Src\stm32f4xx_hal_tim_ex.c 0x00000000   Number         0  stm32f4xx_hal_tim_ex.o ABSOLUTE
    ..\User\APP\APPMain.c                    0x00000000   Number         0  appmain.o ABSOLUTE
    ..\User\Framework\FOC.c                  0x00000000   Number         0  foc.o ABSOLUTE
    ..\User\Framework\LEDControl.c           0x00000000   Number         0  ledcontrol.o ABSOLUTE
    ..\User\Framework\PositionPID.c          0x00000000   Number         0  positionpid.o ABSOLUTE
    ..\User\Framework\SpeedPID.c             0x00000000   Number         0  speedpid.o ABSOLUTE
    ..\User\Framework\Svpwm.c                0x00000000   Number         0  svpwm.o ABSOLUTE
    ..\User\Function\FunctionMain.c          0x00000000   Number         0  functionmain.o ABSOLUTE
    ..\User\MCUDriver\ADC1.c                 0x00000000   Number         0  adc1.o ABSOLUTE
    ..\User\MCUDriver\ADC2.c                 0x00000000   Number         0  adc2.o ABSOLUTE
    ..\User\MCUDriver\CAN1.c                 0x00000000   Number         0  can1.o ABSOLUTE
    ..\User\MCUDriver\GPIONVIC.c             0x00000000   Number         0  gpionvic.o ABSOLUTE
    ..\User\MCUDriver\LEDGPIO.c              0x00000000   Number         0  ledgpio.o ABSOLUTE
    ..\User\MCUDriver\MCUDriverMain.c        0x00000000   Number         0  mcudrivermain.o ABSOLUTE
    ..\User\MCUDriver\MotorGPIO.c            0x00000000   Number         0  motorgpio.o ABSOLUTE
    ..\User\MCUDriver\TIM1PWM.c              0x00000000   Number         0  tim1pwm.o ABSOLUTE
    ..\User\MCUDriver\TIM3Encoder.c          0x00000000   Number         0  tim3encoder.o ABSOLUTE
    ..\User\MCUDriver\Timer.c                0x00000000   Number         0  timer.o ABSOLUTE
    ..\User\PeripheralsDriver\FOCConfig.c    0x00000000   Number         0  focconfig.o ABSOLUTE
    ..\User\PeripheralsDriver\LEDConfig.c    0x00000000   Number         0  ledconfig.o ABSOLUTE
    ..\User\PeripheralsDriver\PerDriverMain.c 0x00000000   Number         0  perdrivermain.o ABSOLUTE
    ..\User\PeripheralsDriver\PositionPIDConfig.c 0x00000000   Number         0  positionpidconfig.o ABSOLUTE
    ..\User\PeripheralsDriver\SpeedPIDConfig.c 0x00000000   Number         0  speedpidconfig.o ABSOLUTE
    ..\User\PeripheralsDriver\SvpwmConfig.c  0x00000000   Number         0  svpwmconfig.o ABSOLUTE
    ..\User\RTT\SEGGER_RTT.c                 0x00000000   Number         0  segger_rtt.o ABSOLUTE
    ..\User\RTT\SEGGER_RTT_printf.c          0x00000000   Number         0  segger_rtt_printf.o ABSOLUTE
    ..\\..\\Source\\CommonTables\\arm_common_tables.c 0x00000000   Number         0  arm_common_tables.o ABSOLUTE
    ..\\..\\Source\\FastMathFunctions\\arm_cos_f32.c 0x00000000   Number         0  arm_cos_f32.o ABSOLUTE
    ..\\..\\Source\\FastMathFunctions\\arm_sin_f32.c 0x00000000   Number         0  arm_sin_f32.o ABSOLUTE
    ..\\User\\Framework\\FOC.c               0x00000000   Number         0  foc.o ABSOLUTE
    ..\\User\\MCUDriver\\ADC1.c              0x00000000   Number         0  adc1.o ABSOLUTE
    ..\\User\\MCUDriver\\ADC2.c              0x00000000   Number         0  adc2.o ABSOLUTE
    ..\\User\\MCUDriver\\CAN1.c              0x00000000   Number         0  can1.o ABSOLUTE
    ..\\User\\MCUDriver\\GPIONVIC.c          0x00000000   Number         0  gpionvic.o ABSOLUTE
    ..\\User\\MCUDriver\\LEDGPIO.c           0x00000000   Number         0  ledgpio.o ABSOLUTE
    ..\\User\\MCUDriver\\MCUDriverMain.c     0x00000000   Number         0  mcudrivermain.o ABSOLUTE
    ..\\User\\MCUDriver\\MotorGPIO.c         0x00000000   Number         0  motorgpio.o ABSOLUTE
    ..\\User\\MCUDriver\\TIM1PWM.c           0x00000000   Number         0  tim1pwm.o ABSOLUTE
    ..\\User\\MCUDriver\\TIM3Encoder.c       0x00000000   Number         0  tim3encoder.o ABSOLUTE
    ..\\User\\MCUDriver\\Timer.c             0x00000000   Number         0  timer.o ABSOLUTE
    ..\\User\\PeripheralsDriver\\FOCConfig.c 0x00000000   Number         0  focconfig.o ABSOLUTE
    ..\\User\\PeripheralsDriver\\PerDriverMain.c 0x00000000   Number         0  perdrivermain.o ABSOLUTE
    cdcmple.s                                0x00000000   Number         0  cdcmple.o ABSOLUTE
    cdrcmple.s                               0x00000000   Number         0  cdrcmple.o ABSOLUTE
    dc.s                                     0x00000000   Number         0  dc.o ABSOLUTE
    handlers.s                               0x00000000   Number         0  handlers.o ABSOLUTE
    init.s                                   0x00000000   Number         0  init.o ABSOLUTE
    startup_stm32f405xx.s                    0x00000000   Number         0  startup_stm32f405xx.o ABSOLUTE
    RESET                                    0x08000000   Section      392  startup_stm32f405xx.o(RESET)
    .ARM.Collect$$$$00000000                 0x08000188   Section        0  entry.o(.ARM.Collect$$$$00000000)
    .ARM.Collect$$$$00000001                 0x08000188   Section        4  entry2.o(.ARM.Collect$$$$00000001)
    .ARM.Collect$$$$00000004                 0x0800018c   Section        4  entry5.o(.ARM.Collect$$$$00000004)
    .ARM.Collect$$$$00000008                 0x08000190   Section        0  entry7b.o(.ARM.Collect$$$$00000008)
    .ARM.Collect$$$$0000000A                 0x08000190   Section        0  entry8b.o(.ARM.Collect$$$$0000000A)
    .ARM.Collect$$$$0000000B                 0x08000190   Section        8  entry9a.o(.ARM.Collect$$$$0000000B)
    .ARM.Collect$$$$0000000E                 0x08000198   Section        4  entry12b.o(.ARM.Collect$$$$0000000E)
    .ARM.Collect$$$$0000000F                 0x0800019c   Section        0  entry10a.o(.ARM.Collect$$$$0000000F)
    .ARM.Collect$$$$00000011                 0x0800019c   Section        0  entry11a.o(.ARM.Collect$$$$00000011)
    .ARM.Collect$$$$00002712                 0x0800019c   Section        4  entry2.o(.ARM.Collect$$$$00002712)
    __lit__00000000                          0x0800019c   Data           4  entry2.o(.ARM.Collect$$$$00002712)
    .text                                    0x080001a0   Section       36  startup_stm32f405xx.o(.text)
    $v0                                      0x080001a0   Number         0  startup_stm32f405xx.o(.text)
    .text                                    0x080001c4   Section        0  arm_cos_f32.o(.text)
    .text                                    0x0800023c   Section        0  arm_sin_f32.o(.text)
    .text                                    0x080002d0   Section        0  uldiv.o(.text)
    .text                                    0x08000332   Section        0  memcpya.o(.text)
    .text                                    0x08000356   Section        0  memseta.o(.text)
    .text                                    0x0800037a   Section        0  dmul.o(.text)
    .text                                    0x0800045e   Section        0  f2d.o(.text)
    .text                                    0x08000484   Section       48  cdcmple.o(.text)
    .text                                    0x080004b4   Section       48  cdrcmple.o(.text)
    .text                                    0x080004e4   Section        0  d2f.o(.text)
    .text                                    0x0800051c   Section        0  uidiv.o(.text)
    .text                                    0x08000548   Section        0  llshl.o(.text)
    .text                                    0x08000566   Section        0  llushr.o(.text)
    .text                                    0x08000586   Section        0  iusefp.o(.text)
    .text                                    0x08000586   Section        0  fepilogue.o(.text)
    .text                                    0x080005f4   Section        0  depilogue.o(.text)
    .text                                    0x080006ae   Section        0  dadd.o(.text)
    .text                                    0x080007fc   Section        0  ddiv.o(.text)
    .text                                    0x080008da   Section        0  dfixul.o(.text)
    .text                                    0x0800090c   Section       36  init.o(.text)
    .text                                    0x08000930   Section        0  llsshr.o(.text)
    .text                                    0x08000954   Section        0  __dczerorl2.o(.text)
    i.ADC2_Init                              0x080009ac   Section        0  adc2.o(i.ADC2_Init)
    i.ADCDMAIRQHandler                       0x080009c4   Section        0  adc1.o(i.ADCDMAIRQHandler)
    i.ADCDMAStart                            0x080009ec   Section        0  adc1.o(i.ADCDMAStart)
    i.ADC_DMAConvCplt                        0x08000a04   Section        0  stm32f4xx_hal_adc.o(i.ADC_DMAConvCplt)
    ADC_DMAConvCplt                          0x08000a05   Thumb Code   126  stm32f4xx_hal_adc.o(i.ADC_DMAConvCplt)
    i.ADC_DMAError                           0x08000a82   Section        0  stm32f4xx_hal_adc.o(i.ADC_DMAError)
    ADC_DMAError                             0x08000a83   Thumb Code    26  stm32f4xx_hal_adc.o(i.ADC_DMAError)
    i.ADC_DMAHalfConvCplt                    0x08000a9c   Section        0  stm32f4xx_hal_adc.o(i.ADC_DMAHalfConvCplt)
    ADC_DMAHalfConvCplt                      0x08000a9d   Thumb Code    14  stm32f4xx_hal_adc.o(i.ADC_DMAHalfConvCplt)
    i.ADC_Init                               0x08000aac   Section        0  stm32f4xx_hal_adc.o(i.ADC_Init)
    ADC_Init                                 0x08000aad   Thumb Code   344  stm32f4xx_hal_adc.o(i.ADC_Init)
    i.APPMain_Init                           0x08000c0c   Section        0  appmain.o(i.APPMain_Init)
    i.APPMain_Loop                           0x08000c1c   Section        0  appmain.o(i.APPMain_Loop)
    i.BusFault_Handler                       0x08000c2c   Section        0  stm32f4xx_it.o(i.BusFault_Handler)
    i.CAN1_RX0_IRQHandler                    0x08000c30   Section        0  stm32f4xx_it.o(i.CAN1_RX0_IRQHandler)
    i.CANFilterSet                           0x08000c40   Section        0  can1.o(i.CANFilterSet)
    CANFilterSet                             0x08000c41   Thumb Code    52  can1.o(i.CANFilterSet)
    i.CANSendData                            0x08000c74   Section        0  can1.o(i.CANSendData)
    i.CAN_Init                               0x08000cbc   Section        0  can1.o(i.CAN_Init)
    i.CAN_Test                               0x08000cdc   Section        0  can1.o(i.CAN_Test)
    i.ClarkeTransform                        0x08000d18   Section        0  foc.o(i.ClarkeTransform)
    ClarkeTransform                          0x08000d19   Thumb Code    38  foc.o(i.ClarkeTransform)
    i.CurrentPIControlID                     0x08000d44   Section        0  foc.o(i.CurrentPIControlID)
    CurrentPIControlID                       0x08000d45   Thumb Code   346  foc.o(i.CurrentPIControlID)
    i.CurrentPIControlIQ                     0x08000e9e   Section        0  foc.o(i.CurrentPIControlIQ)
    CurrentPIControlIQ                       0x08000e9f   Thumb Code   346  foc.o(i.CurrentPIControlIQ)
    i.CurrentReconstruction                  0x08000ff8   Section        0  foc.o(i.CurrentReconstruction)
    CurrentReconstruction                    0x08000ff9   Thumb Code   212  foc.o(i.CurrentReconstruction)
    i.DMA2_Stream0_IRQHandler                0x080010d0   Section        0  stm32f4xx_it.o(i.DMA2_Stream0_IRQHandler)
    i.DMA_CalcBaseAndBitshift                0x080010e8   Section        0  stm32f4xx_hal_dma.o(i.DMA_CalcBaseAndBitshift)
    DMA_CalcBaseAndBitshift                  0x080010e9   Thumb Code    46  stm32f4xx_hal_dma.o(i.DMA_CalcBaseAndBitshift)
    i.DMA_CheckFifoParam                     0x0800111c   Section        0  stm32f4xx_hal_dma.o(i.DMA_CheckFifoParam)
    DMA_CheckFifoParam                       0x0800111d   Thumb Code   170  stm32f4xx_hal_dma.o(i.DMA_CheckFifoParam)
    i.DMA_SetConfig                          0x080011c6   Section        0  stm32f4xx_hal_dma.o(i.DMA_SetConfig)
    DMA_SetConfig                            0x080011c7   Thumb Code    44  stm32f4xx_hal_dma.o(i.DMA_SetConfig)
    i.DebugMon_Handler                       0x080011f2   Section        0  stm32f4xx_it.o(i.DebugMon_Handler)
    i.EXTI3_IRQHandler                       0x080011f4   Section        0  stm32f4xx_it.o(i.EXTI3_IRQHandler)
    i.Error_Handler                          0x080011fe   Section        0  main.o(i.Error_Handler)
    i.FOCConfig_Init                         0x08001200   Section        0  focconfig.o(i.FOCConfig_Init)
    i.FocContorl                             0x08001248   Section        0  foc.o(i.FocContorl)
    i.FunctionMain_Init                      0x0800128e   Section        0  functionmain.o(i.FunctionMain_Init)
    i.FunctionMain_Loop                      0x08001290   Section        0  functionmain.o(i.FunctionMain_Loop)
    i.GPIONVIC_Init                          0x08001294   Section        0  gpionvic.o(i.GPIONVIC_Init)
    i.GetADC1ChannelXValue                   0x080012a4   Section        0  adc1.o(i.GetADC1ChannelXValue)
    i.GetElectricalAngle                     0x080012f4   Section        0  foc.o(i.GetElectricalAngle)
    GetElectricalAngle                       0x080012f5   Thumb Code    46  foc.o(i.GetElectricalAngle)
    i.GetMotorPosition                       0x08001328   Section        0  positionpidconfig.o(i.GetMotorPosition)
    i.GetMotorPreCurrent                     0x0800133c   Section        0  focconfig.o(i.GetMotorPreCurrent)
    GetMotorPreCurrent                       0x0800133d   Thumb Code   196  focconfig.o(i.GetMotorPreCurrent)
    i.GetMotorPreSpeed                       0x0800140c   Section        0  speedpidconfig.o(i.GetMotorPreSpeed)
    i.GetMotorSVPWMSector                    0x0800148c   Section        0  svpwmconfig.o(i.GetMotorSVPWMSector)
    i.GetSVPWMSector                         0x0800149c   Section        0  svpwm.o(i.GetSVPWMSector)
    i.GetTimer3EncoderAngle                  0x080014a4   Section        0  tim3encoder.o(i.GetTimer3EncoderAngle)
    i.GetTimer3EncoderCnt                    0x080014fc   Section        0  tim3encoder.o(i.GetTimer3EncoderCnt)
    i.GetVectorDuration                      0x08001554   Section        0  svpwm.o(i.GetVectorDuration)
    i.HAL_ADC_ConfigChannel                  0x080017e4   Section        0  stm32f4xx_hal_adc.o(i.HAL_ADC_ConfigChannel)
    i.HAL_ADC_ConvCpltCallback               0x08001970   Section        0  stm32f4xx_hal_adc.o(i.HAL_ADC_ConvCpltCallback)
    i.HAL_ADC_ConvHalfCpltCallback           0x08001972   Section        0  stm32f4xx_hal_adc.o(i.HAL_ADC_ConvHalfCpltCallback)
    i.HAL_ADC_ErrorCallback                  0x08001974   Section        0  stm32f4xx_hal_adc.o(i.HAL_ADC_ErrorCallback)
    i.HAL_ADC_Init                           0x08001978   Section        0  stm32f4xx_hal_adc.o(i.HAL_ADC_Init)
    i.HAL_ADC_MspInit                        0x080019e0   Section        0  adc.o(i.HAL_ADC_MspInit)
    i.HAL_ADC_Start_DMA                      0x08001b54   Section        0  stm32f4xx_hal_adc.o(i.HAL_ADC_Start_DMA)
    i.HAL_CAN_ActivateNotification           0x08001cd8   Section        0  stm32f4xx_hal_can.o(i.HAL_CAN_ActivateNotification)
    i.HAL_CAN_AddTxMessage                   0x08001d02   Section        0  stm32f4xx_hal_can.o(i.HAL_CAN_AddTxMessage)
    i.HAL_CAN_ConfigFilter                   0x08001e58   Section        0  stm32f4xx_hal_can.o(i.HAL_CAN_ConfigFilter)
    i.HAL_CAN_ErrorCallback                  0x08001f7c   Section        0  stm32f4xx_hal_can.o(i.HAL_CAN_ErrorCallback)
    i.HAL_CAN_GetRxMessage                   0x08001f7e   Section        0  stm32f4xx_hal_can.o(i.HAL_CAN_GetRxMessage)
    i.HAL_CAN_GetTxMailboxesFreeLevel        0x080020f8   Section        0  stm32f4xx_hal_can.o(i.HAL_CAN_GetTxMailboxesFreeLevel)
    i.HAL_CAN_IRQHandler                     0x0800212e   Section        0  stm32f4xx_hal_can.o(i.HAL_CAN_IRQHandler)
    i.HAL_CAN_Init                           0x0800237c   Section        0  stm32f4xx_hal_can.o(i.HAL_CAN_Init)
    i.HAL_CAN_MspInit                        0x080024f0   Section        0  can.o(i.HAL_CAN_MspInit)
    i.HAL_CAN_RxFifo0FullCallback            0x08002588   Section        0  stm32f4xx_hal_can.o(i.HAL_CAN_RxFifo0FullCallback)
    i.HAL_CAN_RxFifo0MsgPendingCallback      0x0800258c   Section        0  can1.o(i.HAL_CAN_RxFifo0MsgPendingCallback)
    i.HAL_CAN_RxFifo1FullCallback            0x080025f4   Section        0  stm32f4xx_hal_can.o(i.HAL_CAN_RxFifo1FullCallback)
    i.HAL_CAN_RxFifo1MsgPendingCallback      0x080025f6   Section        0  stm32f4xx_hal_can.o(i.HAL_CAN_RxFifo1MsgPendingCallback)
    i.HAL_CAN_SleepCallback                  0x080025f8   Section        0  stm32f4xx_hal_can.o(i.HAL_CAN_SleepCallback)
    i.HAL_CAN_Start                          0x080025fa   Section        0  stm32f4xx_hal_can.o(i.HAL_CAN_Start)
    i.HAL_CAN_TxMailbox0AbortCallback        0x08002658   Section        0  stm32f4xx_hal_can.o(i.HAL_CAN_TxMailbox0AbortCallback)
    i.HAL_CAN_TxMailbox0CompleteCallback     0x0800265a   Section        0  stm32f4xx_hal_can.o(i.HAL_CAN_TxMailbox0CompleteCallback)
    i.HAL_CAN_TxMailbox1AbortCallback        0x0800265c   Section        0  stm32f4xx_hal_can.o(i.HAL_CAN_TxMailbox1AbortCallback)
    i.HAL_CAN_TxMailbox1CompleteCallback     0x0800265e   Section        0  stm32f4xx_hal_can.o(i.HAL_CAN_TxMailbox1CompleteCallback)
    i.HAL_CAN_TxMailbox2AbortCallback        0x08002660   Section        0  stm32f4xx_hal_can.o(i.HAL_CAN_TxMailbox2AbortCallback)
    i.HAL_CAN_TxMailbox2CompleteCallback     0x08002662   Section        0  stm32f4xx_hal_can.o(i.HAL_CAN_TxMailbox2CompleteCallback)
    i.HAL_CAN_WakeUpFromRxMsgCallback        0x08002664   Section        0  stm32f4xx_hal_can.o(i.HAL_CAN_WakeUpFromRxMsgCallback)
    i.HAL_DMA_IRQHandler                     0x08002668   Section        0  stm32f4xx_hal_dma.o(i.HAL_DMA_IRQHandler)
    i.HAL_DMA_Init                           0x080028a8   Section        0  stm32f4xx_hal_dma.o(i.HAL_DMA_Init)
    i.HAL_DMA_Start_IT                       0x08002994   Section        0  stm32f4xx_hal_dma.o(i.HAL_DMA_Start_IT)
    i.HAL_Delay                              0x08002a28   Section        0  stm32f4xx_hal.o(i.HAL_Delay)
    i.HAL_GPIO_EXTI_Callback                 0x08002a50   Section        0  gpionvic.o(i.HAL_GPIO_EXTI_Callback)
    i.HAL_GPIO_EXTI_IRQHandler               0x08002a7c   Section        0  stm32f4xx_hal_gpio.o(i.HAL_GPIO_EXTI_IRQHandler)
    i.HAL_GPIO_Init                          0x08002a98   Section        0  stm32f4xx_hal_gpio.o(i.HAL_GPIO_Init)
    i.HAL_GPIO_WritePin                      0x08002c98   Section        0  stm32f4xx_hal_gpio.o(i.HAL_GPIO_WritePin)
    i.HAL_GetTick                            0x08002ca4   Section        0  stm32f4xx_hal.o(i.HAL_GetTick)
    i.HAL_IncTick                            0x08002cb0   Section        0  stm32f4xx_hal.o(i.HAL_IncTick)
    i.HAL_Init                               0x08002cc8   Section        0  stm32f4xx_hal.o(i.HAL_Init)
    i.HAL_InitTick                           0x08002d04   Section        0  stm32f4xx_hal.o(i.HAL_InitTick)
    i.HAL_MspInit                            0x08002d50   Section        0  stm32f4xx_hal_msp.o(i.HAL_MspInit)
    i.HAL_NVIC_EnableIRQ                     0x08002d98   Section        0  stm32f4xx_hal_cortex.o(i.HAL_NVIC_EnableIRQ)
    i.HAL_NVIC_SetPriority                   0x08002db8   Section        0  stm32f4xx_hal_cortex.o(i.HAL_NVIC_SetPriority)
    i.HAL_NVIC_SetPriorityGrouping           0x08002e34   Section        0  stm32f4xx_hal_cortex.o(i.HAL_NVIC_SetPriorityGrouping)
    i.HAL_RCC_ClockConfig                    0x08002e5c   Section        0  stm32f4xx_hal_rcc.o(i.HAL_RCC_ClockConfig)
    i.HAL_RCC_GetSysClockFreq                0x08002fe0   Section        0  stm32f4xx_hal_rcc.o(i.HAL_RCC_GetSysClockFreq)
    i.HAL_RCC_OscConfig                      0x08003090   Section        0  stm32f4xx_hal_rcc.o(i.HAL_RCC_OscConfig)
    i.HAL_SYSTICK_Config                     0x08003518   Section        0  stm32f4xx_hal_cortex.o(i.HAL_SYSTICK_Config)
    i.HAL_TIMEx_BreakCallback                0x0800354c   Section        0  stm32f4xx_hal_tim_ex.o(i.HAL_TIMEx_BreakCallback)
    i.HAL_TIMEx_CommutCallback               0x0800354e   Section        0  stm32f4xx_hal_tim_ex.o(i.HAL_TIMEx_CommutCallback)
    i.HAL_TIMEx_ConfigBreakDeadTime          0x08003550   Section        0  stm32f4xx_hal_tim_ex.o(i.HAL_TIMEx_ConfigBreakDeadTime)
    i.HAL_TIMEx_MasterConfigSynchronization  0x080035c4   Section        0  stm32f4xx_hal_tim_ex.o(i.HAL_TIMEx_MasterConfigSynchronization)
    i.HAL_TIMEx_PWMN_Start                   0x08003678   Section        0  stm32f4xx_hal_tim_ex.o(i.HAL_TIMEx_PWMN_Start)
    i.HAL_TIM_Base_Init                      0x080036b0   Section        0  stm32f4xx_hal_tim.o(i.HAL_TIM_Base_Init)
    i.HAL_TIM_Base_MspInit                   0x080036e4   Section        0  tim.o(i.HAL_TIM_Base_MspInit)
    i.HAL_TIM_Base_Start_IT                  0x0800372c   Section        0  stm32f4xx_hal_tim.o(i.HAL_TIM_Base_Start_IT)
    i.HAL_TIM_Base_Stop_IT                   0x08003756   Section        0  stm32f4xx_hal_tim.o(i.HAL_TIM_Base_Stop_IT)
    i.HAL_TIM_ConfigClockSource              0x0800378e   Section        0  stm32f4xx_hal_tim.o(i.HAL_TIM_ConfigClockSource)
    i.HAL_TIM_Encoder_Init                   0x08003896   Section        0  stm32f4xx_hal_tim.o(i.HAL_TIM_Encoder_Init)
    i.HAL_TIM_Encoder_MspInit                0x08003944   Section        0  tim.o(i.HAL_TIM_Encoder_MspInit)
    i.HAL_TIM_Encoder_Start                  0x080039c8   Section        0  stm32f4xx_hal_tim.o(i.HAL_TIM_Encoder_Start)
    i.HAL_TIM_IC_CaptureCallback             0x08003a16   Section        0  stm32f4xx_hal_tim.o(i.HAL_TIM_IC_CaptureCallback)
    i.HAL_TIM_IRQHandler                     0x08003a18   Section        0  stm32f4xx_hal_tim.o(i.HAL_TIM_IRQHandler)
    i.HAL_TIM_MspPostInit                    0x08003bb0   Section        0  tim.o(i.HAL_TIM_MspPostInit)
    i.HAL_TIM_OC_DelayElapsedCallback        0x08003c50   Section        0  stm32f4xx_hal_tim.o(i.HAL_TIM_OC_DelayElapsedCallback)
    i.HAL_TIM_PWM_ConfigChannel              0x08003c52   Section        0  stm32f4xx_hal_tim.o(i.HAL_TIM_PWM_ConfigChannel)
    i.HAL_TIM_PWM_Init                       0x08003d5a   Section        0  stm32f4xx_hal_tim.o(i.HAL_TIM_PWM_Init)
    i.HAL_TIM_PWM_MspInit                    0x08003d8e   Section        0  stm32f4xx_hal_tim.o(i.HAL_TIM_PWM_MspInit)
    i.HAL_TIM_PWM_PulseFinishedCallback      0x08003d90   Section        0  stm32f4xx_hal_tim.o(i.HAL_TIM_PWM_PulseFinishedCallback)
    i.HAL_TIM_PWM_Start                      0x08003d94   Section        0  stm32f4xx_hal_tim.o(i.HAL_TIM_PWM_Start)
    i.HAL_TIM_PWM_Start_IT                   0x08003dec   Section        0  stm32f4xx_hal_tim.o(i.HAL_TIM_PWM_Start_IT)
    i.HAL_TIM_PWM_Stop_IT                    0x08003e90   Section        0  stm32f4xx_hal_tim.o(i.HAL_TIM_PWM_Stop_IT)
    i.HAL_TIM_PeriodElapsedCallback          0x08003f5c   Section        0  stm32f4xx_hal_tim.o(i.HAL_TIM_PeriodElapsedCallback)
    i.HAL_TIM_TriggerCallback                0x08003f5e   Section        0  stm32f4xx_hal_tim.o(i.HAL_TIM_TriggerCallback)
    i.HardFault_Handler                      0x08003f60   Section        0  stm32f4xx_it.o(i.HardFault_Handler)
    i.LEDConfigSetSysLedStatus               0x08003f64   Section        0  ledconfig.o(i.LEDConfigSetSysLedStatus)
    i.LEDConfig_Init                         0x08003f88   Section        0  ledconfig.o(i.LEDConfig_Init)
    i.LEDConfig_Loop                         0x08003f98   Section        0  ledconfig.o(i.LEDConfig_Loop)
    i.LEDRunCycle                            0x08003fa8   Section        0  ledcontrol.o(i.LEDRunCycle)
    i.LEDToggle                              0x08003ff8   Section        0  ledcontrol.o(i.LEDToggle)
    i.MCUDriverMain_Init                     0x08004010   Section        0  mcudrivermain.o(i.MCUDriverMain_Init)
    i.MCUDriverMain_Loop                     0x08004024   Section        0  mcudrivermain.o(i.MCUDriverMain_Loop)
    i.MX_ADC1_Init                           0x08004060   Section        0  adc.o(i.MX_ADC1_Init)
    i.MX_ADC2_Init                           0x08004100   Section        0  adc.o(i.MX_ADC2_Init)
    i.MX_CAN1_Init                           0x08004174   Section        0  can.o(i.MX_CAN1_Init)
    i.MX_DMA_Init                            0x080041b8   Section        0  dma.o(i.MX_DMA_Init)
    i.MX_GPIO_Init                           0x080041f0   Section        0  gpio.o(i.MX_GPIO_Init)
    i.MX_TIM1_Init                           0x080042d8   Section        0  tim.o(i.MX_TIM1_Init)
    i.MX_TIM3_Init                           0x080043ec   Section        0  tim.o(i.MX_TIM3_Init)
    i.MemManage_Handler                      0x0800446c   Section        0  stm32f4xx_it.o(i.MemManage_Handler)
    i.MotorAngleCalibration                  0x08004470   Section        0  focconfig.o(i.MotorAngleCalibration)
    MotorAngleCalibration                    0x08004471   Thumb Code   106  focconfig.o(i.MotorAngleCalibration)
    i.MotorFocControl                        0x080044e8   Section        0  focconfig.o(i.MotorFocControl)
    i.MotorSvpwmGenerate                     0x080044f8   Section        0  svpwmconfig.o(i.MotorSvpwmGenerate)
    i.NMI_Handler                            0x08004520   Section        0  stm32f4xx_it.o(i.NMI_Handler)
    i.ParkAntiTransform                      0x08004522   Section        0  foc.o(i.ParkAntiTransform)
    ParkAntiTransform                        0x08004523   Thumb Code   102  foc.o(i.ParkAntiTransform)
    i.ParkTransform                          0x08004588   Section        0  foc.o(i.ParkTransform)
    ParkTransform                            0x08004589   Thumb Code   106  foc.o(i.ParkTransform)
    i.PendSV_Handler                         0x080045f2   Section        0  stm32f4xx_it.o(i.PendSV_Handler)
    i.PerDriverMain_Init                     0x080045f4   Section        0  perdrivermain.o(i.PerDriverMain_Init)
    i.PerDriverMain_Loop                     0x08004610   Section        0  perdrivermain.o(i.PerDriverMain_Loop)
    i.PositionPIDConfig_Init                 0x08004690   Section        0  positionpidconfig.o(i.PositionPIDConfig_Init)
    i.PositionPIDConfig_Loop                 0x080046cc   Section        0  positionpidconfig.o(i.PositionPIDConfig_Loop)
    i.PositionPIDConfig_Printf               0x080046dc   Section        0  positionpidconfig.o(i.PositionPIDConfig_Printf)
    i.PositionPIDControl                     0x080046ec   Section        0  positionpid.o(i.PositionPIDControl)
    PositionPIDControl                       0x080046ed   Thumb Code   262  positionpid.o(i.PositionPIDControl)
    i.PositionPIDCycle                       0x08004804   Section        0  positionpid.o(i.PositionPIDCycle)
    i.PositionPIDPrintf                      0x0800484c   Section        0  positionpid.o(i.PositionPIDPrintf)
    i.SEGGER_RTT_Write                       0x080048a4   Section        0  segger_rtt.o(i.SEGGER_RTT_Write)
    i.SVC_Handler                            0x08004a14   Section        0  stm32f4xx_it.o(i.SVC_Handler)
    i.SetCurrentPIDParams                    0x08004a16   Section        0  foc.o(i.SetCurrentPIDParams)
    i.SetCurrentPIDTar                       0x08004a38   Section        0  foc.o(i.SetCurrentPIDTar)
    i.SetFocEnable                           0x08004a42   Section        0  foc.o(i.SetFocEnable)
    i.SetLEDFlashing                         0x08004a54   Section        0  ledcontrol.o(i.SetLEDFlashing)
    i.SetLEDOFF                              0x08004a5e   Section        0  ledcontrol.o(i.SetLEDOFF)
    i.SetLEDON                               0x08004a78   Section        0  ledcontrol.o(i.SetLEDON)
    i.SetLedLeave                            0x08004a88   Section        0  ledgpio.o(i.SetLedLeave)
    i.SetLedStatus                           0x08004a9c   Section        0  ledcontrol.o(i.SetLedStatus)
    i.SetMotorAndTimITEnable                 0x08004ada   Section        0  focconfig.o(i.SetMotorAndTimITEnable)
    SetMotorAndTimITEnable                   0x08004adb   Thumb Code    18  focconfig.o(i.SetMotorAndTimITEnable)
    i.SetMotorCurrent                        0x08004aec   Section        0  speedpidconfig.o(i.SetMotorCurrent)
    i.SetMotorEnable                         0x08004b0c   Section        0  motorgpio.o(i.SetMotorEnable)
    i.SetMotorPosition                       0x08004b20   Section        0  positionpidconfig.o(i.SetMotorPosition)
    i.SetPositionPIDConfigTarPosition        0x08004b38   Section        0  positionpidconfig.o(i.SetPositionPIDConfigTarPosition)
    i.SetPositionPIDEnable                   0x08004b58   Section        0  positionpid.o(i.SetPositionPIDEnable)
    i.SetPositionPIDParams                   0x08004b64   Section        0  positionpid.o(i.SetPositionPIDParams)
    i.SetPositionPIDTar                      0x08004b72   Section        0  positionpid.o(i.SetPositionPIDTar)
    i.SetSpeedPIDConfigTarSpeed              0x08004b78   Section        0  speedpidconfig.o(i.SetSpeedPIDConfigTarSpeed)
    i.SetSpeedPIDEnable                      0x08004b98   Section        0  speedpid.o(i.SetSpeedPIDEnable)
    i.SetSpeedPIDParams                      0x08004ba4   Section        0  speedpid.o(i.SetSpeedPIDParams)
    i.SetSpeedPIDTar                         0x08004bb2   Section        0  speedpid.o(i.SetSpeedPIDTar)
    i.SetTIM1Channel1HighLeaveTime_us        0x08004bb8   Section        0  tim1pwm.o(i.SetTIM1Channel1HighLeaveTime_us)
    i.SetTIM1Channel2HighLeaveTime_us        0x08004c08   Section        0  tim1pwm.o(i.SetTIM1Channel2HighLeaveTime_us)
    i.SetTIM1Channel3HighLeaveTime_us        0x08004c58   Section        0  tim1pwm.o(i.SetTIM1Channel3HighLeaveTime_us)
    i.SetTIM1Channel4HighLeaveTime_us        0x08004ca8   Section        0  tim1pwm.o(i.SetTIM1Channel4HighLeaveTime_us)
    i.SetTarIDIQ                             0x08004cf8   Section        0  focconfig.o(i.SetTarIDIQ)
    i.SetTimer3EncoderCnt                    0x08004d20   Section        0  tim3encoder.o(i.SetTimer3EncoderCnt)
    i.SpeedPIDConfig_Init                    0x08004d2c   Section        0  speedpidconfig.o(i.SpeedPIDConfig_Init)
    i.SpeedPIDConfig_Loop                    0x08004d64   Section        0  speedpidconfig.o(i.SpeedPIDConfig_Loop)
    i.SpeedPIDControl                        0x08004d74   Section        0  speedpid.o(i.SpeedPIDControl)
    SpeedPIDControl                          0x08004d75   Thumb Code   168  speedpid.o(i.SpeedPIDControl)
    i.SpeedPIDCycle                          0x08004e20   Section        0  speedpid.o(i.SpeedPIDCycle)
    i.SvpwmContorol                          0x08004e68   Section        0  svpwm.o(i.SvpwmContorol)
    i.SvpwmGenerate                          0x08004e98   Section        0  svpwm.o(i.SvpwmGenerate)
    i.SvpwmSectorJudgment                    0x08005030   Section        0  svpwm.o(i.SvpwmSectorJudgment)
    i.SysTick_Handler                        0x08005108   Section        0  stm32f4xx_it.o(i.SysTick_Handler)
    i.SystemClock_Config                     0x08005148   Section        0  main.o(i.SystemClock_Config)
    i.SystemInit                             0x08005200   Section        0  system_stm32f4xx.o(i.SystemInit)
    i.TIM1_CC_IRQHandler                     0x0800521c   Section        0  stm32f4xx_it.o(i.TIM1_CC_IRQHandler)
    i.TIM1_Init                              0x08005230   Section        0  tim1pwm.o(i.TIM1_Init)
    i.TIM_Base_SetConfig                     0x08005294   Section        0  stm32f4xx_hal_tim.o(i.TIM_Base_SetConfig)
    i.TIM_CCxChannelCmd                      0x0800536c   Section        0  stm32f4xx_hal_tim.o(i.TIM_CCxChannelCmd)
    i.TIM_CCxNChannelCmd                     0x0800538e   Section        0  stm32f4xx_hal_tim_ex.o(i.TIM_CCxNChannelCmd)
    TIM_CCxNChannelCmd                       0x0800538f   Thumb Code    34  stm32f4xx_hal_tim_ex.o(i.TIM_CCxNChannelCmd)
    i.TIM_ETR_SetConfig                      0x080053b0   Section        0  stm32f4xx_hal_tim.o(i.TIM_ETR_SetConfig)
    i.TIM_ITRx_SetConfig                     0x080053c6   Section        0  stm32f4xx_hal_tim.o(i.TIM_ITRx_SetConfig)
    TIM_ITRx_SetConfig                       0x080053c7   Thumb Code    18  stm32f4xx_hal_tim.o(i.TIM_ITRx_SetConfig)
    i.TIM_OC1_SetConfig                      0x080053d8   Section        0  stm32f4xx_hal_tim.o(i.TIM_OC1_SetConfig)
    TIM_OC1_SetConfig                        0x080053d9   Thumb Code   104  stm32f4xx_hal_tim.o(i.TIM_OC1_SetConfig)
    i.TIM_OC2_SetConfig                      0x08005448   Section        0  stm32f4xx_hal_tim.o(i.TIM_OC2_SetConfig)
    i.TIM_OC3_SetConfig                      0x080054c4   Section        0  stm32f4xx_hal_tim.o(i.TIM_OC3_SetConfig)
    TIM_OC3_SetConfig                        0x080054c5   Thumb Code   112  stm32f4xx_hal_tim.o(i.TIM_OC3_SetConfig)
    i.TIM_OC4_SetConfig                      0x0800553c   Section        0  stm32f4xx_hal_tim.o(i.TIM_OC4_SetConfig)
    TIM_OC4_SetConfig                        0x0800553d   Thumb Code    74  stm32f4xx_hal_tim.o(i.TIM_OC4_SetConfig)
    i.TIM_TI1_ConfigInputStage               0x08005590   Section        0  stm32f4xx_hal_tim.o(i.TIM_TI1_ConfigInputStage)
    TIM_TI1_ConfigInputStage                 0x08005591   Thumb Code    38  stm32f4xx_hal_tim.o(i.TIM_TI1_ConfigInputStage)
    i.TIM_TI2_ConfigInputStage               0x080055b6   Section        0  stm32f4xx_hal_tim.o(i.TIM_TI2_ConfigInputStage)
    TIM_TI2_ConfigInputStage                 0x080055b7   Thumb Code    40  stm32f4xx_hal_tim.o(i.TIM_TI2_ConfigInputStage)
    i.Timer1Channel4ITEnable                 0x080055e0   Section        0  tim1pwm.o(i.Timer1Channel4ITEnable)
    i.TimerEncoderInit                       0x0800560c   Section        0  tim3encoder.o(i.TimerEncoderInit)
    i.TimerEncoderReset                      0x08005640   Section        0  tim3encoder.o(i.TimerEncoderReset)
    i.UsageFault_Handler                     0x08005668   Section        0  stm32f4xx_it.o(i.UsageFault_Handler)
    i._Init                                  0x0800566c   Section        0  segger_rtt.o(i._Init)
    _Init                                    0x0800566d   Thumb Code     2  segger_rtt.o(i._Init)
    i.__0printf                              0x08005670   Section        0  printfa.o(i.__0printf)
    i.__NVIC_GetPriorityGrouping             0x08005690   Section        0  stm32f4xx_hal_cortex.o(i.__NVIC_GetPriorityGrouping)
    __NVIC_GetPriorityGrouping               0x08005691   Thumb Code    10  stm32f4xx_hal_cortex.o(i.__NVIC_GetPriorityGrouping)
    i.__NVIC_SetPriority                     0x080056a0   Section        0  stm32f4xx_hal_cortex.o(i.__NVIC_SetPriority)
    __NVIC_SetPriority                       0x080056a1   Thumb Code    32  stm32f4xx_hal_cortex.o(i.__NVIC_SetPriority)
    i.__hardfp_fabs                          0x080056c8   Section        0  fabs.o(i.__hardfp_fabs)
    i.__scatterload_copy                     0x080056dc   Section       14  handlers.o(i.__scatterload_copy)
    i.__scatterload_null                     0x080056ea   Section        2  handlers.o(i.__scatterload_null)
    i.__scatterload_zeroinit                 0x080056ec   Section       14  handlers.o(i.__scatterload_zeroinit)
    i._fp_digits                             0x080056fc   Section        0  printfa.o(i._fp_digits)
    _fp_digits                               0x080056fd   Thumb Code   366  printfa.o(i._fp_digits)
    i._printf_core                           0x08005880   Section        0  printfa.o(i._printf_core)
    _printf_core                             0x08005881   Thumb Code  1704  printfa.o(i._printf_core)
    i._printf_post_padding                   0x08005f34   Section        0  printfa.o(i._printf_post_padding)
    _printf_post_padding                     0x08005f35   Thumb Code    36  printfa.o(i._printf_post_padding)
    i._printf_pre_padding                    0x08005f58   Section        0  printfa.o(i._printf_pre_padding)
    _printf_pre_padding                      0x08005f59   Thumb Code    46  printfa.o(i._printf_pre_padding)
    i.fputc                                  0x08005f86   Section        0  segger_rtt.o(i.fputc)
    i.main                                   0x08005fa0   Section        0  main.o(i.main)
    .constdata                               0x08005fd0   Section        8  stm32f4xx_hal_dma.o(.constdata)
    flagBitshiftOffset                       0x08005fd0   Data           8  stm32f4xx_hal_dma.o(.constdata)
    .constdata                               0x08005fd8   Section       24  system_stm32f4xx.o(.constdata)
    .constdata                               0x08005ff0   Section     2052  arm_common_tables.o(.constdata)
    .conststring                             0x080067f4   Section        9  segger_rtt.o(.conststring)
    .data                                    0x20000000   Section        9  stm32f4xx_hal.o(.data)
    .data                                    0x2000000c   Section        4  system_stm32f4xx.o(.data)
    .data                                    0x20000010   Section        8  mcudrivermain.o(.data)
    last_exec_ms                             0x20000010   Data           4  mcudrivermain.o(.data)
    last_exec_ms                             0x20000014   Data           4  mcudrivermain.o(.data)
    .data                                    0x20000018   Section        8  tim3encoder.o(.data)
    .data                                    0x20000020   Section        4  timer.o(.data)
    .data                                    0x20000024   Section        8  gpionvic.o(.data)
    .data                                    0x2000002c   Section        8  adc2.o(.data)
    .data                                    0x20000034   Section       16  perdrivermain.o(.data)
    last_exec_ms                             0x2000003c   Data           4  perdrivermain.o(.data)
    last_exec_ms                             0x20000040   Data           4  perdrivermain.o(.data)
    .data                                    0x20000044   Section       88  svpwmconfig.o(.data)
    .data                                    0x2000009c   Section      152  focconfig.o(.data)
    .data                                    0x20000134   Section       68  speedpidconfig.o(.data)
    angle                                    0x20000170   Data           4  speedpidconfig.o(.data)
    lastAngle                                0x20000174   Data           4  speedpidconfig.o(.data)
    .data                                    0x20000178   Section       60  positionpidconfig.o(.data)
    .data                                    0x200001b4   Section       20  ledconfig.o(.data)
    .data                                    0x200001c8   Section        4  speedpid.o(.data)
    .data                                    0x200001cc   Section        4  positionpid.o(.data)
    .data                                    0x200001d0   Section        4  ledcontrol.o(.data)
    .data                                    0x200001d4   Section      120  segger_rtt.o(.data)
    _SEGGER_RTT                              0x200001d4   Data         120  segger_rtt.o(.data)
    .data                                    0x2000024c   Section        4  stdout.o(.data)
    .bss                                     0x20000250   Section      336  adc.o(.bss)
    .bss                                     0x200003a0   Section       40  can.o(.bss)
    .bss                                     0x200003c8   Section      128  tim.o(.bss)
    .bss                                     0x20000448   Section       36  adc1.o(.bss)
    .bss                                     0x2000046c   Section       52  can1.o(.bss)
    .bss                                     0x200004a0   Section     1040  segger_rtt.o(.bss)
    _acUpBuffer                              0x200004a0   Data        1024  segger_rtt.o(.bss)
    _acDownBuffer                            0x200008a0   Data          16  segger_rtt.o(.bss)
    STACK                                    0x200008b0   Section     1024  startup_stm32f405xx.o(STACK)

    Global Symbols

    Symbol Name                              Value     Ov Type        Size  Object(Section)

    BuildAttributes$$THM_ISAv4$E$P$D$K$B$S$7EM$VFPi3$EXTD16$VFPS$VFMA$PE$A:L22UL41UL21$X:L11$S22US41US21$IEEE1$IW$USESV6$~STKCKD$USESV7$~SHL$OTIME$ROPI$IEEEX$EBA8$MICROLIB$REQ8$PRES8$EABIv2 0x00000000   Number         0  anon$$obj.o ABSOLUTE
    __ARM_use_no_argv                        0x00000000   Number         0  main.o ABSOLUTE
    _printf_a                                0x00000000   Number         0  stubs.o ABSOLUTE
    _printf_c                                0x00000000   Number         0  stubs.o ABSOLUTE
    _printf_charcount                        0x00000000   Number         0  stubs.o ABSOLUTE
    _printf_d                                0x00000000   Number         0  stubs.o ABSOLUTE
    _printf_e                                0x00000000   Number         0  stubs.o ABSOLUTE
    _printf_f                                0x00000000   Number         0  stubs.o ABSOLUTE
    _printf_flags                            0x00000000   Number         0  stubs.o ABSOLUTE
    _printf_fp_dec                           0x00000000   Number         0  stubs.o ABSOLUTE
    _printf_fp_hex                           0x00000000   Number         0  stubs.o ABSOLUTE
    _printf_g                                0x00000000   Number         0  stubs.o ABSOLUTE
    _printf_i                                0x00000000   Number         0  stubs.o ABSOLUTE
    _printf_int_dec                          0x00000000   Number         0  stubs.o ABSOLUTE
    _printf_l                                0x00000000   Number         0  stubs.o ABSOLUTE
    _printf_lc                               0x00000000   Number         0  stubs.o ABSOLUTE
    _printf_ll                               0x00000000   Number         0  stubs.o ABSOLUTE
    _printf_lld                              0x00000000   Number         0  stubs.o ABSOLUTE
    _printf_lli                              0x00000000   Number         0  stubs.o ABSOLUTE
    _printf_llo                              0x00000000   Number         0  stubs.o ABSOLUTE
    _printf_llu                              0x00000000   Number         0  stubs.o ABSOLUTE
    _printf_llx                              0x00000000   Number         0  stubs.o ABSOLUTE
    _printf_longlong_dec                     0x00000000   Number         0  stubs.o ABSOLUTE
    _printf_longlong_hex                     0x00000000   Number         0  stubs.o ABSOLUTE
    _printf_longlong_oct                     0x00000000   Number         0  stubs.o ABSOLUTE
    _printf_ls                               0x00000000   Number         0  stubs.o ABSOLUTE
    _printf_mbtowc                           0x00000000   Number         0  stubs.o ABSOLUTE
    _printf_n                                0x00000000   Number         0  stubs.o ABSOLUTE
    _printf_o                                0x00000000   Number         0  stubs.o ABSOLUTE
    _printf_p                                0x00000000   Number         0  stubs.o ABSOLUTE
    _printf_percent                          0x00000000   Number         0  stubs.o ABSOLUTE
    _printf_pre_padding                      0x00000000   Number         0  stubs.o ABSOLUTE
    _printf_return_value                     0x00000000   Number         0  stubs.o ABSOLUTE
    _printf_s                                0x00000000   Number         0  stubs.o ABSOLUTE
    _printf_sizespec                         0x00000000   Number         0  stubs.o ABSOLUTE
    _printf_str                              0x00000000   Number         0  stubs.o ABSOLUTE
    _printf_truncate_signed                  0x00000000   Number         0  stubs.o ABSOLUTE
    _printf_truncate_unsigned                0x00000000   Number         0  stubs.o ABSOLUTE
    _printf_u                                0x00000000   Number         0  stubs.o ABSOLUTE
    _printf_wc                               0x00000000   Number         0  stubs.o ABSOLUTE
    _printf_wctomb                           0x00000000   Number         0  stubs.o ABSOLUTE
    _printf_widthprec                        0x00000000   Number         0  stubs.o ABSOLUTE
    _printf_x                                0x00000000   Number         0  stubs.o ABSOLUTE
    __arm_fini_                               - Undefined Weak Reference
    __cpp_initialize__aeabi_                  - Undefined Weak Reference
    __cxa_finalize                            - Undefined Weak Reference
    _clock_init                               - Undefined Weak Reference
    _microlib_exit                            - Undefined Weak Reference
    __Vectors_Size                           0x00000188   Number         0  startup_stm32f405xx.o ABSOLUTE
    __Vectors                                0x08000000   Data           4  startup_stm32f405xx.o(RESET)
    __Vectors_End                            0x08000188   Data           0  startup_stm32f405xx.o(RESET)
    __main                                   0x08000189   Thumb Code     0  entry.o(.ARM.Collect$$$$00000000)
    _main_stk                                0x08000189   Thumb Code     0  entry2.o(.ARM.Collect$$$$00000001)
    _main_scatterload                        0x0800018d   Thumb Code     0  entry5.o(.ARM.Collect$$$$00000004)
    __main_after_scatterload                 0x08000191   Thumb Code     0  entry5.o(.ARM.Collect$$$$00000004)
    _main_clock                              0x08000191   Thumb Code     0  entry7b.o(.ARM.Collect$$$$00000008)
    _main_cpp_init                           0x08000191   Thumb Code     0  entry8b.o(.ARM.Collect$$$$0000000A)
    _main_init                               0x08000191   Thumb Code     0  entry9a.o(.ARM.Collect$$$$0000000B)
    __rt_lib_shutdown_fini                   0x08000199   Thumb Code     0  entry12b.o(.ARM.Collect$$$$0000000E)
    __rt_final_cpp                           0x0800019d   Thumb Code     0  entry10a.o(.ARM.Collect$$$$0000000F)
    __rt_final_exit                          0x0800019d   Thumb Code     0  entry11a.o(.ARM.Collect$$$$00000011)
    Reset_Handler                            0x080001a1   Thumb Code     8  startup_stm32f405xx.o(.text)
    ADC_IRQHandler                           0x080001bb   Thumb Code     0  startup_stm32f405xx.o(.text)
    CAN1_RX1_IRQHandler                      0x080001bb   Thumb Code     0  startup_stm32f405xx.o(.text)
    CAN1_SCE_IRQHandler                      0x080001bb   Thumb Code     0  startup_stm32f405xx.o(.text)
    CAN1_TX_IRQHandler                       0x080001bb   Thumb Code     0  startup_stm32f405xx.o(.text)
    CAN2_RX0_IRQHandler                      0x080001bb   Thumb Code     0  startup_stm32f405xx.o(.text)
    CAN2_RX1_IRQHandler                      0x080001bb   Thumb Code     0  startup_stm32f405xx.o(.text)
    CAN2_SCE_IRQHandler                      0x080001bb   Thumb Code     0  startup_stm32f405xx.o(.text)
    CAN2_TX_IRQHandler                       0x080001bb   Thumb Code     0  startup_stm32f405xx.o(.text)
    DMA1_Stream0_IRQHandler                  0x080001bb   Thumb Code     0  startup_stm32f405xx.o(.text)
    DMA1_Stream1_IRQHandler                  0x080001bb   Thumb Code     0  startup_stm32f405xx.o(.text)
    DMA1_Stream2_IRQHandler                  0x080001bb   Thumb Code     0  startup_stm32f405xx.o(.text)
    DMA1_Stream3_IRQHandler                  0x080001bb   Thumb Code     0  startup_stm32f405xx.o(.text)
    DMA1_Stream4_IRQHandler                  0x080001bb   Thumb Code     0  startup_stm32f405xx.o(.text)
    DMA1_Stream5_IRQHandler                  0x080001bb   Thumb Code     0  startup_stm32f405xx.o(.text)
    DMA1_Stream6_IRQHandler                  0x080001bb   Thumb Code     0  startup_stm32f405xx.o(.text)
    DMA1_Stream7_IRQHandler                  0x080001bb   Thumb Code     0  startup_stm32f405xx.o(.text)
    DMA2_Stream1_IRQHandler                  0x080001bb   Thumb Code     0  startup_stm32f405xx.o(.text)
    DMA2_Stream2_IRQHandler                  0x080001bb   Thumb Code     0  startup_stm32f405xx.o(.text)
    DMA2_Stream3_IRQHandler                  0x080001bb   Thumb Code     0  startup_stm32f405xx.o(.text)
    DMA2_Stream4_IRQHandler                  0x080001bb   Thumb Code     0  startup_stm32f405xx.o(.text)
    DMA2_Stream5_IRQHandler                  0x080001bb   Thumb Code     0  startup_stm32f405xx.o(.text)
    DMA2_Stream6_IRQHandler                  0x080001bb   Thumb Code     0  startup_stm32f405xx.o(.text)
    DMA2_Stream7_IRQHandler                  0x080001bb   Thumb Code     0  startup_stm32f405xx.o(.text)
    EXTI0_IRQHandler                         0x080001bb   Thumb Code     0  startup_stm32f405xx.o(.text)
    EXTI15_10_IRQHandler                     0x080001bb   Thumb Code     0  startup_stm32f405xx.o(.text)
    EXTI1_IRQHandler                         0x080001bb   Thumb Code     0  startup_stm32f405xx.o(.text)
    EXTI2_IRQHandler                         0x080001bb   Thumb Code     0  startup_stm32f405xx.o(.text)
    EXTI4_IRQHandler                         0x080001bb   Thumb Code     0  startup_stm32f405xx.o(.text)
    EXTI9_5_IRQHandler                       0x080001bb   Thumb Code     0  startup_stm32f405xx.o(.text)
    FLASH_IRQHandler                         0x080001bb   Thumb Code     0  startup_stm32f405xx.o(.text)
    FMC_IRQHandler                           0x080001bb   Thumb Code     0  startup_stm32f405xx.o(.text)
    FPU_IRQHandler                           0x080001bb   Thumb Code     0  startup_stm32f405xx.o(.text)
    HASH_RNG_IRQHandler                      0x080001bb   Thumb Code     0  startup_stm32f405xx.o(.text)
    I2C1_ER_IRQHandler                       0x080001bb   Thumb Code     0  startup_stm32f405xx.o(.text)
    I2C1_EV_IRQHandler                       0x080001bb   Thumb Code     0  startup_stm32f405xx.o(.text)
    I2C2_ER_IRQHandler                       0x080001bb   Thumb Code     0  startup_stm32f405xx.o(.text)
    I2C2_EV_IRQHandler                       0x080001bb   Thumb Code     0  startup_stm32f405xx.o(.text)
    I2C3_ER_IRQHandler                       0x080001bb   Thumb Code     0  startup_stm32f405xx.o(.text)
    I2C3_EV_IRQHandler                       0x080001bb   Thumb Code     0  startup_stm32f405xx.o(.text)
    OTG_FS_IRQHandler                        0x080001bb   Thumb Code     0  startup_stm32f405xx.o(.text)
    OTG_FS_WKUP_IRQHandler                   0x080001bb   Thumb Code     0  startup_stm32f405xx.o(.text)
    OTG_HS_EP1_IN_IRQHandler                 0x080001bb   Thumb Code     0  startup_stm32f405xx.o(.text)
    OTG_HS_EP1_OUT_IRQHandler                0x080001bb   Thumb Code     0  startup_stm32f405xx.o(.text)
    OTG_HS_IRQHandler                        0x080001bb   Thumb Code     0  startup_stm32f405xx.o(.text)
    OTG_HS_WKUP_IRQHandler                   0x080001bb   Thumb Code     0  startup_stm32f405xx.o(.text)
    PVD_IRQHandler                           0x080001bb   Thumb Code     0  startup_stm32f405xx.o(.text)
    RCC_IRQHandler                           0x080001bb   Thumb Code     0  startup_stm32f405xx.o(.text)
    RTC_Alarm_IRQHandler                     0x080001bb   Thumb Code     0  startup_stm32f405xx.o(.text)
    RTC_WKUP_IRQHandler                      0x080001bb   Thumb Code     0  startup_stm32f405xx.o(.text)
    SDIO_IRQHandler                          0x080001bb   Thumb Code     0  startup_stm32f405xx.o(.text)
    SPI1_IRQHandler                          0x080001bb   Thumb Code     0  startup_stm32f405xx.o(.text)
    SPI2_IRQHandler                          0x080001bb   Thumb Code     0  startup_stm32f405xx.o(.text)
    SPI3_IRQHandler                          0x080001bb   Thumb Code     0  startup_stm32f405xx.o(.text)
    TAMP_STAMP_IRQHandler                    0x080001bb   Thumb Code     0  startup_stm32f405xx.o(.text)
    TIM1_BRK_TIM9_IRQHandler                 0x080001bb   Thumb Code     0  startup_stm32f405xx.o(.text)
    TIM1_TRG_COM_TIM11_IRQHandler            0x080001bb   Thumb Code     0  startup_stm32f405xx.o(.text)
    TIM1_UP_TIM10_IRQHandler                 0x080001bb   Thumb Code     0  startup_stm32f405xx.o(.text)
    TIM2_IRQHandler                          0x080001bb   Thumb Code     0  startup_stm32f405xx.o(.text)
    TIM3_IRQHandler                          0x080001bb   Thumb Code     0  startup_stm32f405xx.o(.text)
    TIM4_IRQHandler                          0x080001bb   Thumb Code     0  startup_stm32f405xx.o(.text)
    TIM5_IRQHandler                          0x080001bb   Thumb Code     0  startup_stm32f405xx.o(.text)
    TIM6_DAC_IRQHandler                      0x080001bb   Thumb Code     0  startup_stm32f405xx.o(.text)
    TIM7_IRQHandler                          0x080001bb   Thumb Code     0  startup_stm32f405xx.o(.text)
    TIM8_BRK_TIM12_IRQHandler                0x080001bb   Thumb Code     0  startup_stm32f405xx.o(.text)
    TIM8_CC_IRQHandler                       0x080001bb   Thumb Code     0  startup_stm32f405xx.o(.text)
    TIM8_TRG_COM_TIM14_IRQHandler            0x080001bb   Thumb Code     0  startup_stm32f405xx.o(.text)
    TIM8_UP_TIM13_IRQHandler                 0x080001bb   Thumb Code     0  startup_stm32f405xx.o(.text)
    UART4_IRQHandler                         0x080001bb   Thumb Code     0  startup_stm32f405xx.o(.text)
    UART5_IRQHandler                         0x080001bb   Thumb Code     0  startup_stm32f405xx.o(.text)
    USART1_IRQHandler                        0x080001bb   Thumb Code     0  startup_stm32f405xx.o(.text)
    USART2_IRQHandler                        0x080001bb   Thumb Code     0  startup_stm32f405xx.o(.text)
    USART3_IRQHandler                        0x080001bb   Thumb Code     0  startup_stm32f405xx.o(.text)
    USART6_IRQHandler                        0x080001bb   Thumb Code     0  startup_stm32f405xx.o(.text)
    WWDG_IRQHandler                          0x080001bb   Thumb Code     0  startup_stm32f405xx.o(.text)
    arm_cos_f32                              0x080001c5   Thumb Code   108  arm_cos_f32.o(.text)
    arm_sin_f32                              0x0800023d   Thumb Code   130  arm_sin_f32.o(.text)
    __aeabi_uldivmod                         0x080002d1   Thumb Code    98  uldiv.o(.text)
    __aeabi_memcpy                           0x08000333   Thumb Code    36  memcpya.o(.text)
    __aeabi_memcpy4                          0x08000333   Thumb Code     0  memcpya.o(.text)
    __aeabi_memcpy8                          0x08000333   Thumb Code     0  memcpya.o(.text)
    __aeabi_memset                           0x08000357   Thumb Code    14  memseta.o(.text)
    __aeabi_memset4                          0x08000357   Thumb Code     0  memseta.o(.text)
    __aeabi_memset8                          0x08000357   Thumb Code     0  memseta.o(.text)
    __aeabi_memclr                           0x08000365   Thumb Code     4  memseta.o(.text)
    __aeabi_memclr4                          0x08000365   Thumb Code     0  memseta.o(.text)
    __aeabi_memclr8                          0x08000365   Thumb Code     0  memseta.o(.text)
    _memset$wrapper                          0x08000369   Thumb Code    18  memseta.o(.text)
    __aeabi_dmul                             0x0800037b   Thumb Code   228  dmul.o(.text)
    __aeabi_f2d                              0x0800045f   Thumb Code    38  f2d.o(.text)
    __aeabi_cdcmpeq                          0x08000485   Thumb Code     0  cdcmple.o(.text)
    __aeabi_cdcmple                          0x08000485   Thumb Code    48  cdcmple.o(.text)
    __aeabi_cdrcmple                         0x080004b5   Thumb Code    48  cdrcmple.o(.text)
    __aeabi_d2f                              0x080004e5   Thumb Code    56  d2f.o(.text)
    __aeabi_uidiv                            0x0800051d   Thumb Code     0  uidiv.o(.text)
    __aeabi_uidivmod                         0x0800051d   Thumb Code    44  uidiv.o(.text)
    __aeabi_llsl                             0x08000549   Thumb Code    30  llshl.o(.text)
    _ll_shift_l                              0x08000549   Thumb Code     0  llshl.o(.text)
    __aeabi_llsr                             0x08000567   Thumb Code    32  llushr.o(.text)
    _ll_ushift_r                             0x08000567   Thumb Code     0  llushr.o(.text)
    __I$use$fp                               0x08000587   Thumb Code     0  iusefp.o(.text)
    _float_round                             0x08000587   Thumb Code    18  fepilogue.o(.text)
    _float_epilogue                          0x08000599   Thumb Code    92  fepilogue.o(.text)
    _double_round                            0x080005f5   Thumb Code    30  depilogue.o(.text)
    _double_epilogue                         0x08000613   Thumb Code   156  depilogue.o(.text)
    __aeabi_dadd                             0x080006af   Thumb Code   322  dadd.o(.text)
    __aeabi_dsub                             0x080007f1   Thumb Code     6  dadd.o(.text)
    __aeabi_drsub                            0x080007f7   Thumb Code     6  dadd.o(.text)
    __aeabi_ddiv                             0x080007fd   Thumb Code   222  ddiv.o(.text)
    __aeabi_d2ulz                            0x080008db   Thumb Code    48  dfixul.o(.text)
    __scatterload                            0x0800090d   Thumb Code    28  init.o(.text)
    __scatterload_rt2                        0x0800090d   Thumb Code     0  init.o(.text)
    __aeabi_lasr                             0x08000931   Thumb Code    36  llsshr.o(.text)
    _ll_sshift_r                             0x08000931   Thumb Code     0  llsshr.o(.text)
    __decompress                             0x08000955   Thumb Code     0  __dczerorl2.o(.text)
    __decompress1                            0x08000955   Thumb Code    86  __dczerorl2.o(.text)
    ADC2_Init                                0x080009ad   Thumb Code    16  adc2.o(i.ADC2_Init)
    ADCDMAIRQHandler                         0x080009c5   Thumb Code    34  adc1.o(i.ADCDMAIRQHandler)
    ADCDMAStart                              0x080009ed   Thumb Code    14  adc1.o(i.ADCDMAStart)
    APPMain_Init                             0x08000c0d   Thumb Code    16  appmain.o(i.APPMain_Init)
    APPMain_Loop                             0x08000c1d   Thumb Code    16  appmain.o(i.APPMain_Loop)
    BusFault_Handler                         0x08000c2d   Thumb Code     4  stm32f4xx_it.o(i.BusFault_Handler)
    CAN1_RX0_IRQHandler                      0x08000c31   Thumb Code    10  stm32f4xx_it.o(i.CAN1_RX0_IRQHandler)
    CANSendData                              0x08000c75   Thumb Code    62  can1.o(i.CANSendData)
    CAN_Init                                 0x08000cbd   Thumb Code    26  can1.o(i.CAN_Init)
    CAN_Test                                 0x08000cdd   Thumb Code    60  can1.o(i.CAN_Test)
    DMA2_Stream0_IRQHandler                  0x080010d1   Thumb Code    18  stm32f4xx_it.o(i.DMA2_Stream0_IRQHandler)
    DebugMon_Handler                         0x080011f3   Thumb Code     2  stm32f4xx_it.o(i.DebugMon_Handler)
    EXTI3_IRQHandler                         0x080011f5   Thumb Code    10  stm32f4xx_it.o(i.EXTI3_IRQHandler)
    Error_Handler                            0x080011ff   Thumb Code     2  main.o(i.Error_Handler)
    FOCConfig_Init                           0x08001201   Thumb Code    50  focconfig.o(i.FOCConfig_Init)
    FocContorl                               0x08001249   Thumb Code    70  foc.o(i.FocContorl)
    FunctionMain_Init                        0x0800128f   Thumb Code     2  functionmain.o(i.FunctionMain_Init)
    FunctionMain_Loop                        0x08001291   Thumb Code     2  functionmain.o(i.FunctionMain_Loop)
    GPIONVIC_Init                            0x08001295   Thumb Code    10  gpionvic.o(i.GPIONVIC_Init)
    GetADC1ChannelXValue                     0x080012a5   Thumb Code    66  adc1.o(i.GetADC1ChannelXValue)
    GetMotorPosition                         0x08001329   Thumb Code    16  positionpidconfig.o(i.GetMotorPosition)
    GetMotorPreSpeed                         0x0800140d   Thumb Code   108  speedpidconfig.o(i.GetMotorPreSpeed)
    GetMotorSVPWMSector                      0x0800148d   Thumb Code    10  svpwmconfig.o(i.GetMotorSVPWMSector)
    GetSVPWMSector                           0x0800149d   Thumb Code     8  svpwm.o(i.GetSVPWMSector)
    GetTimer3EncoderAngle                    0x080014a5   Thumb Code    74  tim3encoder.o(i.GetTimer3EncoderAngle)
    GetTimer3EncoderCnt                      0x080014fd   Thumb Code    78  tim3encoder.o(i.GetTimer3EncoderCnt)
    GetVectorDuration                        0x08001555   Thumb Code   646  svpwm.o(i.GetVectorDuration)
    HAL_ADC_ConfigChannel                    0x080017e5   Thumb Code   380  stm32f4xx_hal_adc.o(i.HAL_ADC_ConfigChannel)
    HAL_ADC_ConvCpltCallback                 0x08001971   Thumb Code     2  stm32f4xx_hal_adc.o(i.HAL_ADC_ConvCpltCallback)
    HAL_ADC_ConvHalfCpltCallback             0x08001973   Thumb Code     2  stm32f4xx_hal_adc.o(i.HAL_ADC_ConvHalfCpltCallback)
    HAL_ADC_ErrorCallback                    0x08001975   Thumb Code     2  stm32f4xx_hal_adc.o(i.HAL_ADC_ErrorCallback)
    HAL_ADC_Init                             0x08001979   Thumb Code   100  stm32f4xx_hal_adc.o(i.HAL_ADC_Init)
    HAL_ADC_MspInit                          0x080019e1   Thumb Code   340  adc.o(i.HAL_ADC_MspInit)
    HAL_ADC_Start_DMA                        0x08001b55   Thumb Code   352  stm32f4xx_hal_adc.o(i.HAL_ADC_Start_DMA)
    HAL_CAN_ActivateNotification             0x08001cd9   Thumb Code    42  stm32f4xx_hal_can.o(i.HAL_CAN_ActivateNotification)
    HAL_CAN_AddTxMessage                     0x08001d03   Thumb Code   342  stm32f4xx_hal_can.o(i.HAL_CAN_AddTxMessage)
    HAL_CAN_ConfigFilter                     0x08001e59   Thumb Code   286  stm32f4xx_hal_can.o(i.HAL_CAN_ConfigFilter)
    HAL_CAN_ErrorCallback                    0x08001f7d   Thumb Code     2  stm32f4xx_hal_can.o(i.HAL_CAN_ErrorCallback)
    HAL_CAN_GetRxMessage                     0x08001f7f   Thumb Code   378  stm32f4xx_hal_can.o(i.HAL_CAN_GetRxMessage)
    HAL_CAN_GetTxMailboxesFreeLevel          0x080020f9   Thumb Code    54  stm32f4xx_hal_can.o(i.HAL_CAN_GetTxMailboxesFreeLevel)
    HAL_CAN_IRQHandler                       0x0800212f   Thumb Code   590  stm32f4xx_hal_can.o(i.HAL_CAN_IRQHandler)
    HAL_CAN_Init                             0x0800237d   Thumb Code   372  stm32f4xx_hal_can.o(i.HAL_CAN_Init)
    HAL_CAN_MspInit                          0x080024f1   Thumb Code   140  can.o(i.HAL_CAN_MspInit)
    HAL_CAN_RxFifo0FullCallback              0x08002589   Thumb Code     2  stm32f4xx_hal_can.o(i.HAL_CAN_RxFifo0FullCallback)
    HAL_CAN_RxFifo0MsgPendingCallback        0x0800258d   Thumb Code    64  can1.o(i.HAL_CAN_RxFifo0MsgPendingCallback)
    HAL_CAN_RxFifo1FullCallback              0x080025f5   Thumb Code     2  stm32f4xx_hal_can.o(i.HAL_CAN_RxFifo1FullCallback)
    HAL_CAN_RxFifo1MsgPendingCallback        0x080025f7   Thumb Code     2  stm32f4xx_hal_can.o(i.HAL_CAN_RxFifo1MsgPendingCallback)
    HAL_CAN_SleepCallback                    0x080025f9   Thumb Code     2  stm32f4xx_hal_can.o(i.HAL_CAN_SleepCallback)
    HAL_CAN_Start                            0x080025fb   Thumb Code    94  stm32f4xx_hal_can.o(i.HAL_CAN_Start)
    HAL_CAN_TxMailbox0AbortCallback          0x08002659   Thumb Code     2  stm32f4xx_hal_can.o(i.HAL_CAN_TxMailbox0AbortCallback)
    HAL_CAN_TxMailbox0CompleteCallback       0x0800265b   Thumb Code     2  stm32f4xx_hal_can.o(i.HAL_CAN_TxMailbox0CompleteCallback)
    HAL_CAN_TxMailbox1AbortCallback          0x0800265d   Thumb Code     2  stm32f4xx_hal_can.o(i.HAL_CAN_TxMailbox1AbortCallback)
    HAL_CAN_TxMailbox1CompleteCallback       0x0800265f   Thumb Code     2  stm32f4xx_hal_can.o(i.HAL_CAN_TxMailbox1CompleteCallback)
    HAL_CAN_TxMailbox2AbortCallback          0x08002661   Thumb Code     2  stm32f4xx_hal_can.o(i.HAL_CAN_TxMailbox2AbortCallback)
    HAL_CAN_TxMailbox2CompleteCallback       0x08002663   Thumb Code     2  stm32f4xx_hal_can.o(i.HAL_CAN_TxMailbox2CompleteCallback)
    HAL_CAN_WakeUpFromRxMsgCallback          0x08002665   Thumb Code     2  stm32f4xx_hal_can.o(i.HAL_CAN_WakeUpFromRxMsgCallback)
    HAL_DMA_IRQHandler                       0x08002669   Thumb Code   570  stm32f4xx_hal_dma.o(i.HAL_DMA_IRQHandler)
    HAL_DMA_Init                             0x080028a9   Thumb Code   232  stm32f4xx_hal_dma.o(i.HAL_DMA_Init)
    HAL_DMA_Start_IT                         0x08002995   Thumb Code   146  stm32f4xx_hal_dma.o(i.HAL_DMA_Start_IT)
    HAL_Delay                                0x08002a29   Thumb Code    36  stm32f4xx_hal.o(i.HAL_Delay)
    HAL_GPIO_EXTI_Callback                   0x08002a51   Thumb Code    38  gpionvic.o(i.HAL_GPIO_EXTI_Callback)
    HAL_GPIO_EXTI_IRQHandler                 0x08002a7d   Thumb Code    24  stm32f4xx_hal_gpio.o(i.HAL_GPIO_EXTI_IRQHandler)
    HAL_GPIO_Init                            0x08002a99   Thumb Code   466  stm32f4xx_hal_gpio.o(i.HAL_GPIO_Init)
    HAL_GPIO_WritePin                        0x08002c99   Thumb Code    12  stm32f4xx_hal_gpio.o(i.HAL_GPIO_WritePin)
    HAL_GetTick                              0x08002ca5   Thumb Code     6  stm32f4xx_hal.o(i.HAL_GetTick)
    HAL_IncTick                              0x08002cb1   Thumb Code    16  stm32f4xx_hal.o(i.HAL_IncTick)
    HAL_Init                                 0x08002cc9   Thumb Code    54  stm32f4xx_hal.o(i.HAL_Init)
    HAL_InitTick                             0x08002d05   Thumb Code    64  stm32f4xx_hal.o(i.HAL_InitTick)
    HAL_MspInit                              0x08002d51   Thumb Code    68  stm32f4xx_hal_msp.o(i.HAL_MspInit)
    HAL_NVIC_EnableIRQ                       0x08002d99   Thumb Code    32  stm32f4xx_hal_cortex.o(i.HAL_NVIC_EnableIRQ)
    HAL_NVIC_SetPriority                     0x08002db9   Thumb Code   124  stm32f4xx_hal_cortex.o(i.HAL_NVIC_SetPriority)
    HAL_NVIC_SetPriorityGrouping             0x08002e35   Thumb Code    32  stm32f4xx_hal_cortex.o(i.HAL_NVIC_SetPriorityGrouping)
    HAL_RCC_ClockConfig                      0x08002e5d   Thumb Code   368  stm32f4xx_hal_rcc.o(i.HAL_RCC_ClockConfig)
    HAL_RCC_GetSysClockFreq                  0x08002fe1   Thumb Code   162  stm32f4xx_hal_rcc.o(i.HAL_RCC_GetSysClockFreq)
    HAL_RCC_OscConfig                        0x08003091   Thumb Code  1152  stm32f4xx_hal_rcc.o(i.HAL_RCC_OscConfig)
    HAL_SYSTICK_Config                       0x08003519   Thumb Code    52  stm32f4xx_hal_cortex.o(i.HAL_SYSTICK_Config)
    HAL_TIMEx_BreakCallback                  0x0800354d   Thumb Code     2  stm32f4xx_hal_tim_ex.o(i.HAL_TIMEx_BreakCallback)
    HAL_TIMEx_CommutCallback                 0x0800354f   Thumb Code     2  stm32f4xx_hal_tim_ex.o(i.HAL_TIMEx_CommutCallback)
    HAL_TIMEx_ConfigBreakDeadTime            0x08003551   Thumb Code   116  stm32f4xx_hal_tim_ex.o(i.HAL_TIMEx_ConfigBreakDeadTime)
    HAL_TIMEx_MasterConfigSynchronization    0x080035c5   Thumb Code   150  stm32f4xx_hal_tim_ex.o(i.HAL_TIMEx_MasterConfigSynchronization)
    HAL_TIMEx_PWMN_Start                     0x08003679   Thumb Code    56  stm32f4xx_hal_tim_ex.o(i.HAL_TIMEx_PWMN_Start)
    HAL_TIM_Base_Init                        0x080036b1   Thumb Code    52  stm32f4xx_hal_tim.o(i.HAL_TIM_Base_Init)
    HAL_TIM_Base_MspInit                     0x080036e5   Thumb Code    62  tim.o(i.HAL_TIM_Base_MspInit)
    HAL_TIM_Base_Start_IT                    0x0800372d   Thumb Code    42  stm32f4xx_hal_tim.o(i.HAL_TIM_Base_Start_IT)
    HAL_TIM_Base_Stop_IT                     0x08003757   Thumb Code    56  stm32f4xx_hal_tim.o(i.HAL_TIM_Base_Stop_IT)
    HAL_TIM_ConfigClockSource                0x0800378f   Thumb Code   264  stm32f4xx_hal_tim.o(i.HAL_TIM_ConfigClockSource)
    HAL_TIM_Encoder_Init                     0x08003897   Thumb Code   174  stm32f4xx_hal_tim.o(i.HAL_TIM_Encoder_Init)
    HAL_TIM_Encoder_MspInit                  0x08003945   Thumb Code   120  tim.o(i.HAL_TIM_Encoder_MspInit)
    HAL_TIM_Encoder_Start                    0x080039c9   Thumb Code    78  stm32f4xx_hal_tim.o(i.HAL_TIM_Encoder_Start)
    HAL_TIM_IC_CaptureCallback               0x08003a17   Thumb Code     2  stm32f4xx_hal_tim.o(i.HAL_TIM_IC_CaptureCallback)
    HAL_TIM_IRQHandler                       0x08003a19   Thumb Code   406  stm32f4xx_hal_tim.o(i.HAL_TIM_IRQHandler)
    HAL_TIM_MspPostInit                      0x08003bb1   Thumb Code   144  tim.o(i.HAL_TIM_MspPostInit)
    HAL_TIM_OC_DelayElapsedCallback          0x08003c51   Thumb Code     2  stm32f4xx_hal_tim.o(i.HAL_TIM_OC_DelayElapsedCallback)
    HAL_TIM_PWM_ConfigChannel                0x08003c53   Thumb Code   264  stm32f4xx_hal_tim.o(i.HAL_TIM_PWM_ConfigChannel)
    HAL_TIM_PWM_Init                         0x08003d5b   Thumb Code    52  stm32f4xx_hal_tim.o(i.HAL_TIM_PWM_Init)
    HAL_TIM_PWM_MspInit                      0x08003d8f   Thumb Code     2  stm32f4xx_hal_tim.o(i.HAL_TIM_PWM_MspInit)
    HAL_TIM_PWM_PulseFinishedCallback        0x08003d91   Thumb Code     2  stm32f4xx_hal_tim.o(i.HAL_TIM_PWM_PulseFinishedCallback)
    HAL_TIM_PWM_Start                        0x08003d95   Thumb Code    80  stm32f4xx_hal_tim.o(i.HAL_TIM_PWM_Start)
    HAL_TIM_PWM_Start_IT                     0x08003ded   Thumb Code   156  stm32f4xx_hal_tim.o(i.HAL_TIM_PWM_Start_IT)
    HAL_TIM_PWM_Stop_IT                      0x08003e91   Thumb Code   196  stm32f4xx_hal_tim.o(i.HAL_TIM_PWM_Stop_IT)
    HAL_TIM_PeriodElapsedCallback            0x08003f5d   Thumb Code     2  stm32f4xx_hal_tim.o(i.HAL_TIM_PeriodElapsedCallback)
    HAL_TIM_TriggerCallback                  0x08003f5f   Thumb Code     2  stm32f4xx_hal_tim.o(i.HAL_TIM_TriggerCallback)
    HardFault_Handler                        0x08003f61   Thumb Code     4  stm32f4xx_it.o(i.HardFault_Handler)
    LEDConfigSetSysLedStatus                 0x08003f65   Thumb Code    30  ledconfig.o(i.LEDConfigSetSysLedStatus)
    LEDConfig_Init                           0x08003f89   Thumb Code    14  ledconfig.o(i.LEDConfig_Init)
    LEDConfig_Loop                           0x08003f99   Thumb Code    10  ledconfig.o(i.LEDConfig_Loop)
    LEDRunCycle                              0x08003fa9   Thumb Code    70  ledcontrol.o(i.LEDRunCycle)
    LEDToggle                                0x08003ff9   Thumb Code    24  ledcontrol.o(i.LEDToggle)
    MCUDriverMain_Init                       0x08004011   Thumb Code    20  mcudrivermain.o(i.MCUDriverMain_Init)
    MCUDriverMain_Loop                       0x08004025   Thumb Code    46  mcudrivermain.o(i.MCUDriverMain_Loop)
    MX_ADC1_Init                             0x08004061   Thumb Code   148  adc.o(i.MX_ADC1_Init)
    MX_ADC2_Init                             0x08004101   Thumb Code   102  adc.o(i.MX_ADC2_Init)
    MX_CAN1_Init                             0x08004175   Thumb Code    58  can.o(i.MX_CAN1_Init)
    MX_DMA_Init                              0x080041b9   Thumb Code    52  dma.o(i.MX_DMA_Init)
    MX_GPIO_Init                             0x080041f1   Thumb Code   216  gpio.o(i.MX_GPIO_Init)
    MX_TIM1_Init                             0x080042d9   Thumb Code   268  tim.o(i.MX_TIM1_Init)
    MX_TIM3_Init                             0x080043ed   Thumb Code   120  tim.o(i.MX_TIM3_Init)
    MemManage_Handler                        0x0800446d   Thumb Code     4  stm32f4xx_it.o(i.MemManage_Handler)
    MotorFocControl                          0x080044e9   Thumb Code    10  focconfig.o(i.MotorFocControl)
    MotorSvpwmGenerate                       0x080044f9   Thumb Code    34  svpwmconfig.o(i.MotorSvpwmGenerate)
    NMI_Handler                              0x08004521   Thumb Code     2  stm32f4xx_it.o(i.NMI_Handler)
    PendSV_Handler                           0x080045f3   Thumb Code     2  stm32f4xx_it.o(i.PendSV_Handler)
    PerDriverMain_Init                       0x080045f5   Thumb Code    28  perdrivermain.o(i.PerDriverMain_Init)
    PerDriverMain_Loop                       0x08004611   Thumb Code   102  perdrivermain.o(i.PerDriverMain_Loop)
    PositionPIDConfig_Init                   0x08004691   Thumb Code    42  positionpidconfig.o(i.PositionPIDConfig_Init)
    PositionPIDConfig_Loop                   0x080046cd   Thumb Code    10  positionpidconfig.o(i.PositionPIDConfig_Loop)
    PositionPIDConfig_Printf                 0x080046dd   Thumb Code    10  positionpidconfig.o(i.PositionPIDConfig_Printf)
    PositionPIDCycle                         0x08004805   Thumb Code    64  positionpid.o(i.PositionPIDCycle)
    PositionPIDPrintf                        0x0800484d   Thumb Code    70  positionpid.o(i.PositionPIDPrintf)
    SEGGER_RTT_Write                         0x080048a5   Thumb Code   364  segger_rtt.o(i.SEGGER_RTT_Write)
    SVC_Handler                              0x08004a15   Thumb Code     2  stm32f4xx_it.o(i.SVC_Handler)
    SetCurrentPIDParams                      0x08004a17   Thumb Code    34  foc.o(i.SetCurrentPIDParams)
    SetCurrentPIDTar                         0x08004a39   Thumb Code    10  foc.o(i.SetCurrentPIDTar)
    SetFocEnable                             0x08004a43   Thumb Code    18  foc.o(i.SetFocEnable)
    SetLEDFlashing                           0x08004a55   Thumb Code    10  ledcontrol.o(i.SetLEDFlashing)
    SetLEDOFF                                0x08004a5f   Thumb Code    26  ledcontrol.o(i.SetLEDOFF)
    SetLEDON                                 0x08004a79   Thumb Code    16  ledcontrol.o(i.SetLEDON)
    SetLedLeave                              0x08004a89   Thumb Code    16  ledgpio.o(i.SetLedLeave)
    SetLedStatus                             0x08004a9d   Thumb Code    62  ledcontrol.o(i.SetLedStatus)
    SetMotorCurrent                          0x08004aed   Thumb Code    28  speedpidconfig.o(i.SetMotorCurrent)
    SetMotorEnable                           0x08004b0d   Thumb Code    16  motorgpio.o(i.SetMotorEnable)
    SetMotorPosition                         0x08004b21   Thumb Code    24  positionpidconfig.o(i.SetMotorPosition)
    SetPositionPIDConfigTarPosition          0x08004b39   Thumb Code    26  positionpidconfig.o(i.SetPositionPIDConfigTarPosition)
    SetPositionPIDEnable                     0x08004b59   Thumb Code    12  positionpid.o(i.SetPositionPIDEnable)
    SetPositionPIDParams                     0x08004b65   Thumb Code    14  positionpid.o(i.SetPositionPIDParams)
    SetPositionPIDTar                        0x08004b73   Thumb Code     6  positionpid.o(i.SetPositionPIDTar)
    SetSpeedPIDConfigTarSpeed                0x08004b79   Thumb Code    26  speedpidconfig.o(i.SetSpeedPIDConfigTarSpeed)
    SetSpeedPIDEnable                        0x08004b99   Thumb Code    12  speedpid.o(i.SetSpeedPIDEnable)
    SetSpeedPIDParams                        0x08004ba5   Thumb Code    14  speedpid.o(i.SetSpeedPIDParams)
    SetSpeedPIDTar                           0x08004bb3   Thumb Code     6  speedpid.o(i.SetSpeedPIDTar)
    SetTIM1Channel1HighLeaveTime_us          0x08004bb9   Thumb Code    64  tim1pwm.o(i.SetTIM1Channel1HighLeaveTime_us)
    SetTIM1Channel2HighLeaveTime_us          0x08004c09   Thumb Code    64  tim1pwm.o(i.SetTIM1Channel2HighLeaveTime_us)
    SetTIM1Channel3HighLeaveTime_us          0x08004c59   Thumb Code    64  tim1pwm.o(i.SetTIM1Channel3HighLeaveTime_us)
    SetTIM1Channel4HighLeaveTime_us          0x08004ca9   Thumb Code    64  tim1pwm.o(i.SetTIM1Channel4HighLeaveTime_us)
    SetTarIDIQ                               0x08004cf9   Thumb Code    34  focconfig.o(i.SetTarIDIQ)
    SetTimer3EncoderCnt                      0x08004d21   Thumb Code     6  tim3encoder.o(i.SetTimer3EncoderCnt)
    SpeedPIDConfig_Init                      0x08004d2d   Thumb Code    42  speedpidconfig.o(i.SpeedPIDConfig_Init)
    SpeedPIDConfig_Loop                      0x08004d65   Thumb Code    10  speedpidconfig.o(i.SpeedPIDConfig_Loop)
    SpeedPIDCycle                            0x08004e21   Thumb Code    64  speedpid.o(i.SpeedPIDCycle)
    SvpwmContorol                            0x08004e69   Thumb Code    48  svpwm.o(i.SvpwmContorol)
    SvpwmGenerate                            0x08004e99   Thumb Code   406  svpwm.o(i.SvpwmGenerate)
    SvpwmSectorJudgment                      0x08005031   Thumb Code   210  svpwm.o(i.SvpwmSectorJudgment)
    SysTick_Handler                          0x08005109   Thumb Code    48  stm32f4xx_it.o(i.SysTick_Handler)
    SystemClock_Config                       0x08005149   Thumb Code   174  main.o(i.SystemClock_Config)
    SystemInit                               0x08005201   Thumb Code    24  system_stm32f4xx.o(i.SystemInit)
    TIM1_CC_IRQHandler                       0x0800521d   Thumb Code    14  stm32f4xx_it.o(i.TIM1_CC_IRQHandler)
    TIM1_Init                                0x08005231   Thumb Code    90  tim1pwm.o(i.TIM1_Init)
    TIM_Base_SetConfig                       0x08005295   Thumb Code   170  stm32f4xx_hal_tim.o(i.TIM_Base_SetConfig)
    TIM_CCxChannelCmd                        0x0800536d   Thumb Code    34  stm32f4xx_hal_tim.o(i.TIM_CCxChannelCmd)
    TIM_ETR_SetConfig                        0x080053b1   Thumb Code    22  stm32f4xx_hal_tim.o(i.TIM_ETR_SetConfig)
    TIM_OC2_SetConfig                        0x08005449   Thumb Code   114  stm32f4xx_hal_tim.o(i.TIM_OC2_SetConfig)
    Timer1Channel4ITEnable                   0x080055e1   Thumb Code    40  tim1pwm.o(i.Timer1Channel4ITEnable)
    TimerEncoderInit                         0x0800560d   Thumb Code    38  tim3encoder.o(i.TimerEncoderInit)
    TimerEncoderReset                        0x08005641   Thumb Code    28  tim3encoder.o(i.TimerEncoderReset)
    UsageFault_Handler                       0x08005669   Thumb Code     4  stm32f4xx_it.o(i.UsageFault_Handler)
    __0printf                                0x08005671   Thumb Code    22  printfa.o(i.__0printf)
    __1printf                                0x08005671   Thumb Code     0  printfa.o(i.__0printf)
    __2printf                                0x08005671   Thumb Code     0  printfa.o(i.__0printf)
    __c89printf                              0x08005671   Thumb Code     0  printfa.o(i.__0printf)
    printf                                   0x08005671   Thumb Code     0  printfa.o(i.__0printf)
    __hardfp_fabs                            0x080056c9   Thumb Code    20  fabs.o(i.__hardfp_fabs)
    __scatterload_copy                       0x080056dd   Thumb Code    14  handlers.o(i.__scatterload_copy)
    __scatterload_null                       0x080056eb   Thumb Code     2  handlers.o(i.__scatterload_null)
    __scatterload_zeroinit                   0x080056ed   Thumb Code    14  handlers.o(i.__scatterload_zeroinit)
    fputc                                    0x08005f87   Thumb Code    26  segger_rtt.o(i.fputc)
    main                                     0x08005fa1   Thumb Code    48  main.o(i.main)
    AHBPrescTable                            0x08005fd8   Data          16  system_stm32f4xx.o(.constdata)
    APBPrescTable                            0x08005fe8   Data           8  system_stm32f4xx.o(.constdata)
    sinTable_f32                             0x08005ff0   Data        2052  arm_common_tables.o(.constdata)
    Region$$Table$$Base                      0x08006800   Number         0  anon$$obj.o(Region$$Table)
    Region$$Table$$Limit                     0x08006820   Number         0  anon$$obj.o(Region$$Table)
    uwTick                                   0x20000000   Data           4  stm32f4xx_hal.o(.data)
    uwTickPrio                               0x20000004   Data           4  stm32f4xx_hal.o(.data)
    uwTickFreq                               0x20000008   Data           1  stm32f4xx_hal.o(.data)
    SystemCoreClock                          0x2000000c   Data           4  system_stm32f4xx.o(.data)
    gSTTimerEncoder                          0x20000018   Data           8  tim3encoder.o(.data)
    gMS_TimeCNT                              0x20000020   Data           4  timer.o(.data)
    gEncoderCal                              0x20000024   Data           8  gpionvic.o(.data)
    gADC2                                    0x2000002c   Data           8  adc2.o(.data)
    debugFlag                                0x20000034   Data           4  perdrivermain.o(.data)
    angle                                    0x20000038   Data           4  perdrivermain.o(.data)
    gMotor                                   0x20000044   Data          88  svpwmconfig.o(.data)
    gMotorFOC                                0x2000009c   Data         152  focconfig.o(.data)
    gSpeedPID                                0x20000134   Data          60  speedpidconfig.o(.data)
    gPositionPID                             0x20000178   Data          60  positionpidconfig.o(.data)
    gSysLed                                  0x200001b4   Data          20  ledconfig.o(.data)
    gSpeedPID_TimeCNT                        0x200001c8   Data           4  speedpid.o(.data)
    gPositionPID_TimeCNT                     0x200001cc   Data           4  positionpid.o(.data)
    gLED_TimeCNT                             0x200001d0   Data           4  ledcontrol.o(.data)
    __stdout                                 0x2000024c   Data           4  stdout.o(.data)
    hadc1                                    0x20000250   Data          72  adc.o(.bss)
    hadc2                                    0x20000298   Data          72  adc.o(.bss)
    hdma_adc1                                0x200002e0   Data          96  adc.o(.bss)
    hdma_adc2                                0x20000340   Data          96  adc.o(.bss)
    hcan1                                    0x200003a0   Data          40  can.o(.bss)
    htim1                                    0x200003c8   Data          64  tim.o(.bss)
    htim3                                    0x20000408   Data          64  tim.o(.bss)
    gADC1                                    0x20000448   Data          36  adc1.o(.bss)
    gTxData                                  0x2000046c   Data          24  can1.o(.bss)
    gRxData                                  0x20000484   Data          28  can1.o(.bss)
    __initial_sp                             0x20000cb0   Data           0  startup_stm32f405xx.o(STACK)



==============================================================================

Memory Map of the image

  Image Entry point : 0x08000189

  Load Region LR_IROM1 (Base: 0x08000000, Size: 0x00006a70, Max: 0x00100000, ABSOLUTE, COMPRESSED[0x000068a4])

    Execution Region ER_IROM1 (Exec base: 0x08000000, Load base: 0x08000000, Size: 0x00006820, Max: 0x00100000, ABSOLUTE)

    Exec Addr    Load Addr    Size         Type   Attr      Idx    E Section Name        Object

    0x08000000   0x08000000   0x00000188   Data   RO            3    RESET               startup_stm32f405xx.o
    0x08000188   0x08000188   0x00000000   Code   RO         4497  * .ARM.Collect$$$$00000000  mc_w.l(entry.o)
    0x08000188   0x08000188   0x00000004   Code   RO         4781    .ARM.Collect$$$$00000001  mc_w.l(entry2.o)
    0x0800018c   0x0800018c   0x00000004   Code   RO         4784    .ARM.Collect$$$$00000004  mc_w.l(entry5.o)
    0x08000190   0x08000190   0x00000000   Code   RO         4786    .ARM.Collect$$$$00000008  mc_w.l(entry7b.o)
    0x08000190   0x08000190   0x00000000   Code   RO         4788    .ARM.Collect$$$$0000000A  mc_w.l(entry8b.o)
    0x08000190   0x08000190   0x00000008   Code   RO         4789    .ARM.Collect$$$$0000000B  mc_w.l(entry9a.o)
    0x08000198   0x08000198   0x00000004   Code   RO         4796    .ARM.Collect$$$$0000000E  mc_w.l(entry12b.o)
    0x0800019c   0x0800019c   0x00000000   Code   RO         4791    .ARM.Collect$$$$0000000F  mc_w.l(entry10a.o)
    0x0800019c   0x0800019c   0x00000000   Code   RO         4793    .ARM.Collect$$$$00000011  mc_w.l(entry11a.o)
    0x0800019c   0x0800019c   0x00000004   Code   RO         4782    .ARM.Collect$$$$00002712  mc_w.l(entry2.o)
    0x080001a0   0x080001a0   0x00000024   Code   RO            4    .text               startup_stm32f405xx.o
    0x080001c4   0x080001c4   0x00000078   Code   RO         4338    .text               arm_cortexM4lf_math.lib(arm_cos_f32.o)
    0x0800023c   0x0800023c   0x00000094   Code   RO         4388    .text               arm_cortexM4lf_math.lib(arm_sin_f32.o)
    0x080002d0   0x080002d0   0x00000062   Code   RO         4500    .text               mc_w.l(uldiv.o)
    0x08000332   0x08000332   0x00000024   Code   RO         4502    .text               mc_w.l(memcpya.o)
    0x08000356   0x08000356   0x00000024   Code   RO         4504    .text               mc_w.l(memseta.o)
    0x0800037a   0x0800037a   0x000000e4   Code   RO         4769    .text               mf_w.l(dmul.o)
    0x0800045e   0x0800045e   0x00000026   Code   RO         4773    .text               mf_w.l(f2d.o)
    0x08000484   0x08000484   0x00000030   Code   RO         4775    .text               mf_w.l(cdcmple.o)
    0x080004b4   0x080004b4   0x00000030   Code   RO         4777    .text               mf_w.l(cdrcmple.o)
    0x080004e4   0x080004e4   0x00000038   Code   RO         4779    .text               mf_w.l(d2f.o)
    0x0800051c   0x0800051c   0x0000002c   Code   RO         4798    .text               mc_w.l(uidiv.o)
    0x08000548   0x08000548   0x0000001e   Code   RO         4800    .text               mc_w.l(llshl.o)
    0x08000566   0x08000566   0x00000020   Code   RO         4802    .text               mc_w.l(llushr.o)
    0x08000586   0x08000586   0x00000000   Code   RO         4804    .text               mc_w.l(iusefp.o)
    0x08000586   0x08000586   0x0000006e   Code   RO         4805    .text               mf_w.l(fepilogue.o)
    0x080005f4   0x080005f4   0x000000ba   Code   RO         4807    .text               mf_w.l(depilogue.o)
    0x080006ae   0x080006ae   0x0000014e   Code   RO         4809    .text               mf_w.l(dadd.o)
    0x080007fc   0x080007fc   0x000000de   Code   RO         4811    .text               mf_w.l(ddiv.o)
    0x080008da   0x080008da   0x00000030   Code   RO         4813    .text               mf_w.l(dfixul.o)
    0x0800090a   0x0800090a   0x00000002   PAD
    0x0800090c   0x0800090c   0x00000024   Code   RO         4815    .text               mc_w.l(init.o)
    0x08000930   0x08000930   0x00000024   Code   RO         4817    .text               mc_w.l(llsshr.o)
    0x08000954   0x08000954   0x00000056   Code   RO         4827    .text               mc_w.l(__dczerorl2.o)
    0x080009aa   0x080009aa   0x00000002   PAD
    0x080009ac   0x080009ac   0x00000018   Code   RO         3647    i.ADC2_Init         adc2.o
    0x080009c4   0x080009c4   0x00000028   Code   RO         3509    i.ADCDMAIRQHandler  adc1.o
    0x080009ec   0x080009ec   0x00000018   Code   RO         3510    i.ADCDMAStart       adc1.o
    0x08000a04   0x08000a04   0x0000007e   Code   RO          526    i.ADC_DMAConvCplt   stm32f4xx_hal_adc.o
    0x08000a82   0x08000a82   0x0000001a   Code   RO          527    i.ADC_DMAError      stm32f4xx_hal_adc.o
    0x08000a9c   0x08000a9c   0x0000000e   Code   RO          528    i.ADC_DMAHalfConvCplt  stm32f4xx_hal_adc.o
    0x08000aaa   0x08000aaa   0x00000002   PAD
    0x08000aac   0x08000aac   0x00000160   Code   RO          529    i.ADC_Init          stm32f4xx_hal_adc.o
    0x08000c0c   0x08000c0c   0x00000010   Code   RO         3190    i.APPMain_Init      appmain.o
    0x08000c1c   0x08000c1c   0x00000010   Code   RO         3191    i.APPMain_Loop      appmain.o
    0x08000c2c   0x08000c2c   0x00000004   Code   RO          377    i.BusFault_Handler  stm32f4xx_it.o
    0x08000c30   0x08000c30   0x00000010   Code   RO          378    i.CAN1_RX0_IRQHandler  stm32f4xx_it.o
    0x08000c40   0x08000c40   0x00000034   Code   RO         3587    i.CANFilterSet      can1.o
    0x08000c74   0x08000c74   0x00000048   Code   RO         3589    i.CANSendData       can1.o
    0x08000cbc   0x08000cbc   0x00000020   Code   RO         3590    i.CAN_Init          can1.o
    0x08000cdc   0x08000cdc   0x0000003c   Code   RO         3591    i.CAN_Test          can1.o
    0x08000d18   0x08000d18   0x0000002c   Code   RO         3934    i.ClarkeTransform   foc.o
    0x08000d44   0x08000d44   0x0000015a   Code   RO         3935    i.CurrentPIControlID  foc.o
    0x08000e9e   0x08000e9e   0x0000015a   Code   RO         3936    i.CurrentPIControlIQ  foc.o
    0x08000ff8   0x08000ff8   0x000000d8   Code   RO         3937    i.CurrentReconstruction  foc.o
    0x080010d0   0x080010d0   0x00000018   Code   RO          379    i.DMA2_Stream0_IRQHandler  stm32f4xx_it.o
    0x080010e8   0x080010e8   0x00000034   Code   RO         1305    i.DMA_CalcBaseAndBitshift  stm32f4xx_hal_dma.o
    0x0800111c   0x0800111c   0x000000aa   Code   RO         1306    i.DMA_CheckFifoParam  stm32f4xx_hal_dma.o
    0x080011c6   0x080011c6   0x0000002c   Code   RO         1307    i.DMA_SetConfig     stm32f4xx_hal_dma.o
    0x080011f2   0x080011f2   0x00000002   Code   RO          380    i.DebugMon_Handler  stm32f4xx_it.o
    0x080011f4   0x080011f4   0x0000000a   Code   RO          381    i.EXTI3_IRQHandler  stm32f4xx_it.o
    0x080011fe   0x080011fe   0x00000002   Code   RO           13    i.Error_Handler     main.o
    0x08001200   0x08001200   0x00000048   Code   RO         3753    i.FOCConfig_Init    focconfig.o
    0x08001248   0x08001248   0x00000046   Code   RO         3939    i.FocContorl        foc.o
    0x0800128e   0x0800128e   0x00000002   Code   RO         3217    i.FunctionMain_Init  functionmain.o
    0x08001290   0x08001290   0x00000002   Code   RO         3218    i.FunctionMain_Loop  functionmain.o
    0x08001292   0x08001292   0x00000002   PAD
    0x08001294   0x08001294   0x00000010   Code   RO         3470    i.GPIONVIC_Init     gpionvic.o
    0x080012a4   0x080012a4   0x00000050   Code   RO         3511    i.GetADC1ChannelXValue  adc1.o
    0x080012f4   0x080012f4   0x00000034   Code   RO         3940    i.GetElectricalAngle  foc.o
    0x08001328   0x08001328   0x00000014   Code   RO         3859    i.GetMotorPosition  positionpidconfig.o
    0x0800133c   0x0800133c   0x000000d0   Code   RO         3755    i.GetMotorPreCurrent  focconfig.o
    0x0800140c   0x0800140c   0x00000080   Code   RO         3814    i.GetMotorPreSpeed  speedpidconfig.o
    0x0800148c   0x0800148c   0x00000010   Code   RO         3726    i.GetMotorSVPWMSector  svpwmconfig.o
    0x0800149c   0x0800149c   0x00000008   Code   RO         4037    i.GetSVPWMSector    svpwm.o
    0x080014a4   0x080014a4   0x00000058   Code   RO         3350    i.GetTimer3EncoderAngle  tim3encoder.o
    0x080014fc   0x080014fc   0x00000058   Code   RO         3351    i.GetTimer3EncoderCnt  tim3encoder.o
    0x08001554   0x08001554   0x00000290   Code   RO         4038    i.GetVectorDuration  svpwm.o
    0x080017e4   0x080017e4   0x0000018c   Code   RO          531    i.HAL_ADC_ConfigChannel  stm32f4xx_hal_adc.o
    0x08001970   0x08001970   0x00000002   Code   RO          532    i.HAL_ADC_ConvCpltCallback  stm32f4xx_hal_adc.o
    0x08001972   0x08001972   0x00000002   Code   RO          533    i.HAL_ADC_ConvHalfCpltCallback  stm32f4xx_hal_adc.o
    0x08001974   0x08001974   0x00000002   Code   RO          535    i.HAL_ADC_ErrorCallback  stm32f4xx_hal_adc.o
    0x08001976   0x08001976   0x00000002   PAD
    0x08001978   0x08001978   0x00000068   Code   RO          540    i.HAL_ADC_Init      stm32f4xx_hal_adc.o
    0x080019e0   0x080019e0   0x00000174   Code   RO          198    i.HAL_ADC_MspInit   adc.o
    0x08001b54   0x08001b54   0x00000184   Code   RO          547    i.HAL_ADC_Start_DMA  stm32f4xx_hal_adc.o
    0x08001cd8   0x08001cd8   0x0000002a   Code   RO         1984    i.HAL_CAN_ActivateNotification  stm32f4xx_hal_can.o
    0x08001d02   0x08001d02   0x00000156   Code   RO         1985    i.HAL_CAN_AddTxMessage  stm32f4xx_hal_can.o
    0x08001e58   0x08001e58   0x00000124   Code   RO         1986    i.HAL_CAN_ConfigFilter  stm32f4xx_hal_can.o
    0x08001f7c   0x08001f7c   0x00000002   Code   RO         1989    i.HAL_CAN_ErrorCallback  stm32f4xx_hal_can.o
    0x08001f7e   0x08001f7e   0x0000017a   Code   RO         1992    i.HAL_CAN_GetRxMessage  stm32f4xx_hal_can.o
    0x080020f8   0x080020f8   0x00000036   Code   RO         1994    i.HAL_CAN_GetTxMailboxesFreeLevel  stm32f4xx_hal_can.o
    0x0800212e   0x0800212e   0x0000024e   Code   RO         1996    i.HAL_CAN_IRQHandler  stm32f4xx_hal_can.o
    0x0800237c   0x0800237c   0x00000174   Code   RO         1997    i.HAL_CAN_Init      stm32f4xx_hal_can.o
    0x080024f0   0x080024f0   0x00000098   Code   RO          246    i.HAL_CAN_MspInit   can.o
    0x08002588   0x08002588   0x00000002   Code   RO         2004    i.HAL_CAN_RxFifo0FullCallback  stm32f4xx_hal_can.o
    0x0800258a   0x0800258a   0x00000002   PAD
    0x0800258c   0x0800258c   0x00000068   Code   RO         3592    i.HAL_CAN_RxFifo0MsgPendingCallback  can1.o
    0x080025f4   0x080025f4   0x00000002   Code   RO         2006    i.HAL_CAN_RxFifo1FullCallback  stm32f4xx_hal_can.o
    0x080025f6   0x080025f6   0x00000002   Code   RO         2007    i.HAL_CAN_RxFifo1MsgPendingCallback  stm32f4xx_hal_can.o
    0x080025f8   0x080025f8   0x00000002   Code   RO         2008    i.HAL_CAN_SleepCallback  stm32f4xx_hal_can.o
    0x080025fa   0x080025fa   0x0000005e   Code   RO         2009    i.HAL_CAN_Start     stm32f4xx_hal_can.o
    0x08002658   0x08002658   0x00000002   Code   RO         2011    i.HAL_CAN_TxMailbox0AbortCallback  stm32f4xx_hal_can.o
    0x0800265a   0x0800265a   0x00000002   Code   RO         2012    i.HAL_CAN_TxMailbox0CompleteCallback  stm32f4xx_hal_can.o
    0x0800265c   0x0800265c   0x00000002   Code   RO         2013    i.HAL_CAN_TxMailbox1AbortCallback  stm32f4xx_hal_can.o
    0x0800265e   0x0800265e   0x00000002   Code   RO         2014    i.HAL_CAN_TxMailbox1CompleteCallback  stm32f4xx_hal_can.o
    0x08002660   0x08002660   0x00000002   Code   RO         2015    i.HAL_CAN_TxMailbox2AbortCallback  stm32f4xx_hal_can.o
    0x08002662   0x08002662   0x00000002   Code   RO         2016    i.HAL_CAN_TxMailbox2CompleteCallback  stm32f4xx_hal_can.o
    0x08002664   0x08002664   0x00000002   Code   RO         2018    i.HAL_CAN_WakeUpFromRxMsgCallback  stm32f4xx_hal_can.o
    0x08002666   0x08002666   0x00000002   PAD
    0x08002668   0x08002668   0x00000240   Code   RO         1313    i.HAL_DMA_IRQHandler  stm32f4xx_hal_dma.o
    0x080028a8   0x080028a8   0x000000ec   Code   RO         1314    i.HAL_DMA_Init      stm32f4xx_hal_dma.o
    0x08002994   0x08002994   0x00000092   Code   RO         1318    i.HAL_DMA_Start_IT  stm32f4xx_hal_dma.o
    0x08002a26   0x08002a26   0x00000002   PAD
    0x08002a28   0x08002a28   0x00000028   Code   RO         1732    i.HAL_Delay         stm32f4xx_hal.o
    0x08002a50   0x08002a50   0x0000002c   Code   RO         3471    i.HAL_GPIO_EXTI_Callback  gpionvic.o
    0x08002a7c   0x08002a7c   0x0000001c   Code   RO         1200    i.HAL_GPIO_EXTI_IRQHandler  stm32f4xx_hal_gpio.o
    0x08002a98   0x08002a98   0x00000200   Code   RO         1201    i.HAL_GPIO_Init     stm32f4xx_hal_gpio.o
    0x08002c98   0x08002c98   0x0000000c   Code   RO         1205    i.HAL_GPIO_WritePin  stm32f4xx_hal_gpio.o
    0x08002ca4   0x08002ca4   0x0000000c   Code   RO         1738    i.HAL_GetTick       stm32f4xx_hal.o
    0x08002cb0   0x08002cb0   0x00000018   Code   RO         1744    i.HAL_IncTick       stm32f4xx_hal.o
    0x08002cc8   0x08002cc8   0x0000003c   Code   RO         1745    i.HAL_Init          stm32f4xx_hal.o
    0x08002d04   0x08002d04   0x0000004c   Code   RO         1746    i.HAL_InitTick      stm32f4xx_hal.o
    0x08002d50   0x08002d50   0x00000048   Code   RO          502    i.HAL_MspInit       stm32f4xx_hal_msp.o
    0x08002d98   0x08002d98   0x00000020   Code   RO         1590    i.HAL_NVIC_EnableIRQ  stm32f4xx_hal_cortex.o
    0x08002db8   0x08002db8   0x0000007c   Code   RO         1596    i.HAL_NVIC_SetPriority  stm32f4xx_hal_cortex.o
    0x08002e34   0x08002e34   0x00000028   Code   RO         1597    i.HAL_NVIC_SetPriorityGrouping  stm32f4xx_hal_cortex.o
    0x08002e5c   0x08002e5c   0x00000184   Code   RO          802    i.HAL_RCC_ClockConfig  stm32f4xx_hal_rcc.o
    0x08002fe0   0x08002fe0   0x000000b0   Code   RO          811    i.HAL_RCC_GetSysClockFreq  stm32f4xx_hal_rcc.o
    0x08003090   0x08003090   0x00000488   Code   RO          814    i.HAL_RCC_OscConfig  stm32f4xx_hal_rcc.o
    0x08003518   0x08003518   0x00000034   Code   RO         1601    i.HAL_SYSTICK_Config  stm32f4xx_hal_cortex.o
    0x0800354c   0x0800354c   0x00000002   Code   RO         2905    i.HAL_TIMEx_BreakCallback  stm32f4xx_hal_tim_ex.o
    0x0800354e   0x0800354e   0x00000002   Code   RO         2906    i.HAL_TIMEx_CommutCallback  stm32f4xx_hal_tim_ex.o
    0x08003550   0x08003550   0x00000074   Code   RO         2908    i.HAL_TIMEx_ConfigBreakDeadTime  stm32f4xx_hal_tim_ex.o
    0x080035c4   0x080035c4   0x000000b4   Code   RO         2923    i.HAL_TIMEx_MasterConfigSynchronization  stm32f4xx_hal_tim_ex.o
    0x08003678   0x08003678   0x00000038   Code   RO         2934    i.HAL_TIMEx_PWMN_Start  stm32f4xx_hal_tim_ex.o
    0x080036b0   0x080036b0   0x00000034   Code   RO         2219    i.HAL_TIM_Base_Init  stm32f4xx_hal_tim.o
    0x080036e4   0x080036e4   0x00000048   Code   RO          312    i.HAL_TIM_Base_MspInit  tim.o
    0x0800372c   0x0800372c   0x0000002a   Code   RO         2224    i.HAL_TIM_Base_Start_IT  stm32f4xx_hal_tim.o
    0x08003756   0x08003756   0x00000038   Code   RO         2227    i.HAL_TIM_Base_Stop_IT  stm32f4xx_hal_tim.o
    0x0800378e   0x0800378e   0x00000108   Code   RO         2228    i.HAL_TIM_ConfigClockSource  stm32f4xx_hal_tim.o
    0x08003896   0x08003896   0x000000ae   Code   RO         2237    i.HAL_TIM_Encoder_Init  stm32f4xx_hal_tim.o
    0x08003944   0x08003944   0x00000084   Code   RO          314    i.HAL_TIM_Encoder_MspInit  tim.o
    0x080039c8   0x080039c8   0x0000004e   Code   RO         2240    i.HAL_TIM_Encoder_Start  stm32f4xx_hal_tim.o
    0x08003a16   0x08003a16   0x00000002   Code   RO         2248    i.HAL_TIM_IC_CaptureCallback  stm32f4xx_hal_tim.o
    0x08003a18   0x08003a18   0x00000196   Code   RO         2262    i.HAL_TIM_IRQHandler  stm32f4xx_hal_tim.o
    0x08003bae   0x08003bae   0x00000002   PAD
    0x08003bb0   0x08003bb0   0x000000a0   Code   RO          315    i.HAL_TIM_MspPostInit  tim.o
    0x08003c50   0x08003c50   0x00000002   Code   RO         2265    i.HAL_TIM_OC_DelayElapsedCallback  stm32f4xx_hal_tim.o
    0x08003c52   0x08003c52   0x00000108   Code   RO         2286    i.HAL_TIM_PWM_ConfigChannel  stm32f4xx_hal_tim.o
    0x08003d5a   0x08003d5a   0x00000034   Code   RO         2289    i.HAL_TIM_PWM_Init  stm32f4xx_hal_tim.o
    0x08003d8e   0x08003d8e   0x00000002   Code   RO         2291    i.HAL_TIM_PWM_MspInit  stm32f4xx_hal_tim.o
    0x08003d90   0x08003d90   0x00000002   Code   RO         2292    i.HAL_TIM_PWM_PulseFinishedCallback  stm32f4xx_hal_tim.o
    0x08003d92   0x08003d92   0x00000002   PAD
    0x08003d94   0x08003d94   0x00000058   Code   RO         2294    i.HAL_TIM_PWM_Start  stm32f4xx_hal_tim.o
    0x08003dec   0x08003dec   0x000000a4   Code   RO         2296    i.HAL_TIM_PWM_Start_IT  stm32f4xx_hal_tim.o
    0x08003e90   0x08003e90   0x000000cc   Code   RO         2299    i.HAL_TIM_PWM_Stop_IT  stm32f4xx_hal_tim.o
    0x08003f5c   0x08003f5c   0x00000002   Code   RO         2300    i.HAL_TIM_PeriodElapsedCallback  stm32f4xx_hal_tim.o
    0x08003f5e   0x08003f5e   0x00000002   Code   RO         2305    i.HAL_TIM_TriggerCallback  stm32f4xx_hal_tim.o
    0x08003f60   0x08003f60   0x00000004   Code   RO          382    i.HardFault_Handler  stm32f4xx_it.o
    0x08003f64   0x08003f64   0x00000024   Code   RO         3904    i.LEDConfigSetSysLedStatus  ledconfig.o
    0x08003f88   0x08003f88   0x0000000e   Code   RO         3905    i.LEDConfig_Init    ledconfig.o
    0x08003f96   0x08003f96   0x00000002   PAD
    0x08003f98   0x08003f98   0x00000010   Code   RO         3906    i.LEDConfig_Loop    ledconfig.o
    0x08003fa8   0x08003fa8   0x00000050   Code   RO         4167    i.LEDRunCycle       ledcontrol.o
    0x08003ff8   0x08003ff8   0x00000018   Code   RO         4168    i.LEDToggle         ledcontrol.o
    0x08004010   0x08004010   0x00000014   Code   RO         3238    i.MCUDriverMain_Init  mcudrivermain.o
    0x08004024   0x08004024   0x0000003c   Code   RO         3239    i.MCUDriverMain_Loop  mcudrivermain.o
    0x08004060   0x08004060   0x000000a0   Code   RO          199    i.MX_ADC1_Init      adc.o
    0x08004100   0x08004100   0x00000074   Code   RO          200    i.MX_ADC2_Init      adc.o
    0x08004174   0x08004174   0x00000044   Code   RO          247    i.MX_CAN1_Init      can.o
    0x080041b8   0x080041b8   0x00000038   Code   RO          287    i.MX_DMA_Init       dma.o
    0x080041f0   0x080041f0   0x000000e8   Code   RO          173    i.MX_GPIO_Init      gpio.o
    0x080042d8   0x080042d8   0x00000114   Code   RO          316    i.MX_TIM1_Init      tim.o
    0x080043ec   0x080043ec   0x00000080   Code   RO          317    i.MX_TIM3_Init      tim.o
    0x0800446c   0x0800446c   0x00000004   Code   RO          383    i.MemManage_Handler  stm32f4xx_it.o
    0x08004470   0x08004470   0x00000078   Code   RO         3756    i.MotorAngleCalibration  focconfig.o
    0x080044e8   0x080044e8   0x00000010   Code   RO         3757    i.MotorFocControl   focconfig.o
    0x080044f8   0x080044f8   0x00000028   Code   RO         3727    i.MotorSvpwmGenerate  svpwmconfig.o
    0x08004520   0x08004520   0x00000002   Code   RO          384    i.NMI_Handler       stm32f4xx_it.o
    0x08004522   0x08004522   0x00000066   Code   RO         3941    i.ParkAntiTransform  foc.o
    0x08004588   0x08004588   0x0000006a   Code   RO         3942    i.ParkTransform     foc.o
    0x080045f2   0x080045f2   0x00000002   Code   RO          385    i.PendSV_Handler    stm32f4xx_it.o
    0x080045f4   0x080045f4   0x0000001c   Code   RO         3681    i.PerDriverMain_Init  perdrivermain.o
    0x08004610   0x08004610   0x00000080   Code   RO         3682    i.PerDriverMain_Loop  perdrivermain.o
    0x08004690   0x08004690   0x0000003c   Code   RO         3860    i.PositionPIDConfig_Init  positionpidconfig.o
    0x080046cc   0x080046cc   0x00000010   Code   RO         3861    i.PositionPIDConfig_Loop  positionpidconfig.o
    0x080046dc   0x080046dc   0x00000010   Code   RO         3862    i.PositionPIDConfig_Printf  positionpidconfig.o
    0x080046ec   0x080046ec   0x00000118   Code   RO         4120    i.PositionPIDControl  positionpid.o
    0x08004804   0x08004804   0x00000048   Code   RO         4121    i.PositionPIDCycle  positionpid.o
    0x0800484c   0x0800484c   0x00000058   Code   RO         4122    i.PositionPIDPrintf  positionpid.o
    0x080048a4   0x080048a4   0x00000170   Code   RO         4222    i.SEGGER_RTT_Write  segger_rtt.o
    0x08004a14   0x08004a14   0x00000002   Code   RO          386    i.SVC_Handler       stm32f4xx_it.o
    0x08004a16   0x08004a16   0x00000022   Code   RO         3943    i.SetCurrentPIDParams  foc.o
    0x08004a38   0x08004a38   0x0000000a   Code   RO         3944    i.SetCurrentPIDTar  foc.o
    0x08004a42   0x08004a42   0x00000012   Code   RO         3945    i.SetFocEnable      foc.o
    0x08004a54   0x08004a54   0x0000000a   Code   RO         4169    i.SetLEDFlashing    ledcontrol.o
    0x08004a5e   0x08004a5e   0x0000001a   Code   RO         4170    i.SetLEDOFF         ledcontrol.o
    0x08004a78   0x08004a78   0x00000010   Code   RO         4171    i.SetLEDON          ledcontrol.o
    0x08004a88   0x08004a88   0x00000014   Code   RO         3555    i.SetLedLeave       ledgpio.o
    0x08004a9c   0x08004a9c   0x0000003e   Code   RO         4172    i.SetLedStatus      ledcontrol.o
    0x08004ada   0x08004ada   0x00000012   Code   RO         3758    i.SetMotorAndTimITEnable  focconfig.o
    0x08004aec   0x08004aec   0x00000020   Code   RO         3815    i.SetMotorCurrent   speedpidconfig.o
    0x08004b0c   0x08004b0c   0x00000014   Code   RO         3445    i.SetMotorEnable    motorgpio.o
    0x08004b20   0x08004b20   0x00000018   Code   RO         3863    i.SetMotorPosition  positionpidconfig.o
    0x08004b38   0x08004b38   0x00000020   Code   RO         3864    i.SetPositionPIDConfigTarPosition  positionpidconfig.o
    0x08004b58   0x08004b58   0x0000000c   Code   RO         4123    i.SetPositionPIDEnable  positionpid.o
    0x08004b64   0x08004b64   0x0000000e   Code   RO         4124    i.SetPositionPIDParams  positionpid.o
    0x08004b72   0x08004b72   0x00000006   Code   RO         4125    i.SetPositionPIDTar  positionpid.o
    0x08004b78   0x08004b78   0x00000020   Code   RO         3816    i.SetSpeedPIDConfigTarSpeed  speedpidconfig.o
    0x08004b98   0x08004b98   0x0000000c   Code   RO         4073    i.SetSpeedPIDEnable  speedpid.o
    0x08004ba4   0x08004ba4   0x0000000e   Code   RO         4074    i.SetSpeedPIDParams  speedpid.o
    0x08004bb2   0x08004bb2   0x00000006   Code   RO         4075    i.SetSpeedPIDTar    speedpid.o
    0x08004bb8   0x08004bb8   0x00000050   Code   RO         3295    i.SetTIM1Channel1HighLeaveTime_us  tim1pwm.o
    0x08004c08   0x08004c08   0x00000050   Code   RO         3296    i.SetTIM1Channel2HighLeaveTime_us  tim1pwm.o
    0x08004c58   0x08004c58   0x00000050   Code   RO         3297    i.SetTIM1Channel3HighLeaveTime_us  tim1pwm.o
    0x08004ca8   0x08004ca8   0x00000050   Code   RO         3298    i.SetTIM1Channel4HighLeaveTime_us  tim1pwm.o
    0x08004cf8   0x08004cf8   0x00000028   Code   RO         3759    i.SetTarIDIQ        focconfig.o
    0x08004d20   0x08004d20   0x0000000c   Code   RO         3352    i.SetTimer3EncoderCnt  tim3encoder.o
    0x08004d2c   0x08004d2c   0x00000038   Code   RO         3817    i.SpeedPIDConfig_Init  speedpidconfig.o
    0x08004d64   0x08004d64   0x00000010   Code   RO         3818    i.SpeedPIDConfig_Loop  speedpidconfig.o
    0x08004d74   0x08004d74   0x000000ac   Code   RO         4076    i.SpeedPIDControl   speedpid.o
    0x08004e20   0x08004e20   0x00000048   Code   RO         4077    i.SpeedPIDCycle     speedpid.o
    0x08004e68   0x08004e68   0x00000030   Code   RO         4039    i.SvpwmContorol     svpwm.o
    0x08004e98   0x08004e98   0x00000196   Code   RO         4040    i.SvpwmGenerate     svpwm.o
    0x0800502e   0x0800502e   0x00000002   PAD
    0x08005030   0x08005030   0x000000d8   Code   RO         4041    i.SvpwmSectorJudgment  svpwm.o
    0x08005108   0x08005108   0x00000040   Code   RO          387    i.SysTick_Handler   stm32f4xx_it.o
    0x08005148   0x08005148   0x000000b8   Code   RO           14    i.SystemClock_Config  main.o
    0x08005200   0x08005200   0x0000001c   Code   RO         3157    i.SystemInit        system_stm32f4xx.o
    0x0800521c   0x0800521c   0x00000014   Code   RO          388    i.TIM1_CC_IRQHandler  stm32f4xx_it.o
    0x08005230   0x08005230   0x00000064   Code   RO         3299    i.TIM1_Init         tim1pwm.o
    0x08005294   0x08005294   0x000000d8   Code   RO         2307    i.TIM_Base_SetConfig  stm32f4xx_hal_tim.o
    0x0800536c   0x0800536c   0x00000022   Code   RO         2308    i.TIM_CCxChannelCmd  stm32f4xx_hal_tim.o
    0x0800538e   0x0800538e   0x00000022   Code   RO         2943    i.TIM_CCxNChannelCmd  stm32f4xx_hal_tim_ex.o
    0x080053b0   0x080053b0   0x00000016   Code   RO         2318    i.TIM_ETR_SetConfig  stm32f4xx_hal_tim.o
    0x080053c6   0x080053c6   0x00000012   Code   RO         2319    i.TIM_ITRx_SetConfig  stm32f4xx_hal_tim.o
    0x080053d8   0x080053d8   0x00000070   Code   RO         2320    i.TIM_OC1_SetConfig  stm32f4xx_hal_tim.o
    0x08005448   0x08005448   0x0000007c   Code   RO         2321    i.TIM_OC2_SetConfig  stm32f4xx_hal_tim.o
    0x080054c4   0x080054c4   0x00000078   Code   RO         2322    i.TIM_OC3_SetConfig  stm32f4xx_hal_tim.o
    0x0800553c   0x0800553c   0x00000054   Code   RO         2323    i.TIM_OC4_SetConfig  stm32f4xx_hal_tim.o
    0x08005590   0x08005590   0x00000026   Code   RO         2325    i.TIM_TI1_ConfigInputStage  stm32f4xx_hal_tim.o
    0x080055b6   0x080055b6   0x00000028   Code   RO         2327    i.TIM_TI2_ConfigInputStage  stm32f4xx_hal_tim.o
    0x080055de   0x080055de   0x00000002   PAD
    0x080055e0   0x080055e0   0x0000002c   Code   RO         3300    i.Timer1Channel4ITEnable  tim1pwm.o
    0x0800560c   0x0800560c   0x00000034   Code   RO         3353    i.TimerEncoderInit  tim3encoder.o
    0x08005640   0x08005640   0x00000028   Code   RO         3354    i.TimerEncoderReset  tim3encoder.o
    0x08005668   0x08005668   0x00000004   Code   RO          389    i.UsageFault_Handler  stm32f4xx_it.o
    0x0800566c   0x0800566c   0x00000002   Code   RO         4224    i._Init             segger_rtt.o
    0x0800566e   0x0800566e   0x00000002   PAD
    0x08005670   0x08005670   0x00000020   Code   RO         4741    i.__0printf         mc_w.l(printfa.o)
    0x08005690   0x08005690   0x00000010   Code   RO         1603    i.__NVIC_GetPriorityGrouping  stm32f4xx_hal_cortex.o
    0x080056a0   0x080056a0   0x00000028   Code   RO         1604    i.__NVIC_SetPriority  stm32f4xx_hal_cortex.o
    0x080056c8   0x080056c8   0x00000014   Code   RO         4491    i.__hardfp_fabs     m_wm.l(fabs.o)
    0x080056dc   0x080056dc   0x0000000e   Code   RO         4821    i.__scatterload_copy  mc_w.l(handlers.o)
    0x080056ea   0x080056ea   0x00000002   Code   RO         4822    i.__scatterload_null  mc_w.l(handlers.o)
    0x080056ec   0x080056ec   0x0000000e   Code   RO         4823    i.__scatterload_zeroinit  mc_w.l(handlers.o)
    0x080056fa   0x080056fa   0x00000002   PAD
    0x080056fc   0x080056fc   0x00000184   Code   RO         4748    i._fp_digits        mc_w.l(printfa.o)
    0x08005880   0x08005880   0x000006b4   Code   RO         4749    i._printf_core      mc_w.l(printfa.o)
    0x08005f34   0x08005f34   0x00000024   Code   RO         4750    i._printf_post_padding  mc_w.l(printfa.o)
    0x08005f58   0x08005f58   0x0000002e   Code   RO         4751    i._printf_pre_padding  mc_w.l(printfa.o)
    0x08005f86   0x08005f86   0x0000001a   Code   RO         4226    i.fputc             segger_rtt.o
    0x08005fa0   0x08005fa0   0x00000030   Code   RO           15    i.main              main.o
    0x08005fd0   0x08005fd0   0x00000008   Data   RO         1320    .constdata          stm32f4xx_hal_dma.o
    0x08005fd8   0x08005fd8   0x00000018   Data   RO         3158    .constdata          system_stm32f4xx.o
    0x08005ff0   0x08005ff0   0x00000804   Data   RO         4468    .constdata          arm_cortexM4lf_math.lib(arm_common_tables.o)
    0x080067f4   0x080067f4   0x00000009   Data   RO         4228    .conststring        segger_rtt.o
    0x080067fd   0x080067fd   0x00000003   PAD
    0x08006800   0x08006800   0x00000020   Data   RO         4819    Region$$Table       anon$$obj.o


    Execution Region RW_IRAM2 (Exec base: 0x10000000, Load base: 0x080068a4, Size: 0x00000000, Max: 0x00010000, ABSOLUTE)

    **** No section assigned to this execution region ****


    Execution Region RW_IRAM1 (Exec base: 0x20000000, Load base: 0x08006820, Size: 0x00000cb0, Max: 0x00020000, ABSOLUTE, COMPRESSED[0x00000084])

    Exec Addr    Load Addr    Size         Type   Attr      Idx    E Section Name        Object

    0x20000000   COMPRESSED   0x00000009   Data   RW         1752    .data               stm32f4xx_hal.o
    0x20000009   COMPRESSED   0x00000003   PAD
    0x2000000c   COMPRESSED   0x00000004   Data   RW         3159    .data               system_stm32f4xx.o
    0x20000010   COMPRESSED   0x00000008   Data   RW         3240    .data               mcudrivermain.o
    0x20000018   COMPRESSED   0x00000008   Data   RW         3355    .data               tim3encoder.o
    0x20000020   COMPRESSED   0x00000004   Data   RW         3416    .data               timer.o
    0x20000024   COMPRESSED   0x00000008   Data   RW         3472    .data               gpionvic.o
    0x2000002c   COMPRESSED   0x00000008   Data   RW         3649    .data               adc2.o
    0x20000034   COMPRESSED   0x00000010   Data   RW         3683    .data               perdrivermain.o
    0x20000044   COMPRESSED   0x00000058   Data   RW         3728    .data               svpwmconfig.o
    0x2000009c   COMPRESSED   0x00000098   Data   RW         3760    .data               focconfig.o
    0x20000134   COMPRESSED   0x00000044   Data   RW         3820    .data               speedpidconfig.o
    0x20000178   COMPRESSED   0x0000003c   Data   RW         3865    .data               positionpidconfig.o
    0x200001b4   COMPRESSED   0x00000014   Data   RW         3907    .data               ledconfig.o
    0x200001c8   COMPRESSED   0x00000004   Data   RW         4079    .data               speedpid.o
    0x200001cc   COMPRESSED   0x00000004   Data   RW         4126    .data               positionpid.o
    0x200001d0   COMPRESSED   0x00000004   Data   RW         4173    .data               ledcontrol.o
    0x200001d4   COMPRESSED   0x00000078   Data   RW         4229    .data               segger_rtt.o
    0x2000024c   COMPRESSED   0x00000004   Data   RW         4797    .data               mc_w.l(stdout.o)
    0x20000250        -       0x00000150   Zero   RW          201    .bss                adc.o
    0x200003a0        -       0x00000028   Zero   RW          248    .bss                can.o
    0x200003c8        -       0x00000080   Zero   RW          318    .bss                tim.o
    0x20000448        -       0x00000024   Zero   RW         3512    .bss                adc1.o
    0x2000046c        -       0x00000034   Zero   RW         3593    .bss                can1.o
    0x200004a0        -       0x00000410   Zero   RW         4227    .bss                segger_rtt.o
    0x200008b0        -       0x00000400   Zero   RW            1    STACK               startup_stm32f405xx.o


==============================================================================

Image component sizes


      Code (inc. data)   RO Data    RW Data    ZI Data      Debug   Object Name

       648         58          0          0        336       2806   adc.o
       144         30          0          0         36       2360   adc1.o
        24          8          0          8          0       1196   adc2.o
        32          0          0          0          0       1038   appmain.o
       220         22          0          0         40       1805   can.o
       320         56          0          0         52       4006   can1.o
        56          4          0          0          0        830   dma.o
      1344         24          0          0          0       9357   foc.o
       474         60          0        152          0       5543   focconfig.o
         4          0          0          0          0       1016   functionmain.o
       232         16          0          0          0       1063   gpio.o
        60         12          0          8          0       1827   gpionvic.o
        66         12          0         20          0       2067   ledconfig.o
       218         10          0          4          0       5208   ledcontrol.o
        20          4          0          0          0        570   ledgpio.o
       234         10          0          0          0     654720   main.o
        80         14          0          8          0       1286   mcudrivermain.o
        20          4          0          0          0        585   motorgpio.o
       156         26          0         16          0       1668   perdrivermain.o
       472         44          0          4          0       5984   positionpid.o
       168         40          0         60          0       3996   positionpidconfig.o
       396          4          9        120       1040       3235   segger_rtt.o
       276         12          0          4          0       5097   speedpid.o
       264         50          0         68          0       3473   speedpidconfig.o
        36          8        392          0       1024        868   startup_stm32f405xx.o
       212         36          0          9          0       9661   stm32f4xx_hal.o
      1412         64          0          0          0       7717   stm32f4xx_hal_adc.o
      2188          6          0          0          0      15725   stm32f4xx_hal_can.o
       304         22          0          0          0      34695   stm32f4xx_hal_cortex.o
      1224         16          8          0          0       5783   stm32f4xx_hal_dma.o
       552         50          0          0          0       3079   stm32f4xx_hal_gpio.o
        72          4          0          0          0        922   stm32f4xx_hal_msp.o
      1724         58          0          0          0       4020   stm32f4xx_hal_rcc.o
      2664        106          0          0          0      21399   stm32f4xx_hal_tim.o
       390         30          0          0          0       4952   stm32f4xx_hal_tim_ex.o
       158         34          0          0          0      10548   stm32f4xx_it.o
      1334         40          0          0          0       3519   svpwm.o
        56         12          0         88          0       2976   svpwmconfig.o
        28          4         24          4          0       1255   system_stm32f4xx.o
       768         54          0          0        128       4227   tim.o
       464         78          0          0          0       3681   tim1pwm.o
       280         56          0          8          0       3673   tim3encoder.o
         0          0          0          4          0        254   timer.o

    ----------------------------------------------------------------------
     19818       1198        468        588       2656     859690   Object Totals
         0          0         32          0          0          0   (incl. Generated)
        24          0          3          3          0          0   (incl. Padding)

    ----------------------------------------------------------------------

      Code (inc. data)   RO Data    RW Data    ZI Data      Debug   Library Member Name

         0          0       2052          0          0       4704   arm_common_tables.o
       120         12          0          0          0      17170   arm_cos_f32.o
       148         18          0          0          0        814   arm_sin_f32.o
        20          0          0          0          0        124   fabs.o
        86          0          0          0          0          0   __dczerorl2.o
         0          0          0          0          0          0   entry.o
         0          0          0          0          0          0   entry10a.o
         0          0          0          0          0          0   entry11a.o
         4          0          0          0          0          0   entry12b.o
         8          4          0          0          0          0   entry2.o
         4          0          0          0          0          0   entry5.o
         0          0          0          0          0          0   entry7b.o
         0          0          0          0          0          0   entry8b.o
         8          4          0          0          0          0   entry9a.o
        30          0          0          0          0          0   handlers.o
        36          8          0          0          0         68   init.o
         0          0          0          0          0          0   iusefp.o
        30          0          0          0          0         68   llshl.o
        36          0          0          0          0         68   llsshr.o
        32          0          0          0          0         68   llushr.o
        36          0          0          0          0         68   memcpya.o
        36          0          0          0          0        108   memseta.o
      2218         90          0          0          0        464   printfa.o
         0          0          0          4          0          0   stdout.o
        44          0          0          0          0         80   uidiv.o
        98          0          0          0          0         92   uldiv.o
        48          0          0          0          0         68   cdcmple.o
        48          0          0          0          0         68   cdrcmple.o
        56          0          0          0          0         88   d2f.o
       334          0          0          0          0        148   dadd.o
       222          0          0          0          0        100   ddiv.o
       186          0          0          0          0        176   depilogue.o
        48          0          0          0          0         68   dfixul.o
       228          0          0          0          0         96   dmul.o
        38          0          0          0          0         68   f2d.o
       110          0          0          0          0        168   fepilogue.o

    ----------------------------------------------------------------------
      4318        136       2052          4          0      24944   Library Totals
         6          0          0          0          0          0   (incl. Padding)

    ----------------------------------------------------------------------

      Code (inc. data)   RO Data    RW Data    ZI Data      Debug   Library Name

       268         30       2052          0          0      22688   arm_cortexM4lf_math.lib
        20          0          0          0          0        124   m_wm.l
      2706        106          0          4          0       1084   mc_w.l
      1318          0          0          0          0       1048   mf_w.l

    ----------------------------------------------------------------------
      4318        136       2052          4          0      24944   Library Totals

    ----------------------------------------------------------------------

==============================================================================


      Code (inc. data)   RO Data    RW Data    ZI Data      Debug   

     24136       1334       2520        592       2656     864078   Grand Totals
     24136       1334       2520        132       2656     864078   ELF Image Totals (compressed)
     24136       1334       2520        132          0          0   ROM Totals

==============================================================================

    Total RO  Size (Code + RO Data)                26656 (  26.03kB)
    Total RW  Size (RW Data + ZI Data)              3248 (   3.17kB)
    Total ROM Size (Code + RO Data + RW Data)      26788 (  26.16kB)

==============================================================================

