Component: ARM Compiler 5.06 update 7 (build 960) Tool: armlink [4d3601]

==============================================================================

Section Cross References

    startup_stm32f407xx.o(RESET) refers to startup_stm32f407xx.o(STACK) for __initial_sp
    startup_stm32f407xx.o(RESET) refers to startup_stm32f407xx.o(.text) for Reset_Handler
    startup_stm32f407xx.o(RESET) refers to stm32f4xx_it.o(i.NMI_Handler) for NMI_Handler
    startup_stm32f407xx.o(RESET) refers to stm32f4xx_it.o(i.HardFault_Handler) for HardFault_Handler
    startup_stm32f407xx.o(RESET) refers to stm32f4xx_it.o(i.MemManage_Handler) for MemManage_Handler
    startup_stm32f407xx.o(RESET) refers to stm32f4xx_it.o(i.BusFault_Handler) for BusFault_Handler
    startup_stm32f407xx.o(RESET) refers to stm32f4xx_it.o(i.UsageFault_Handler) for UsageFault_Handler
    startup_stm32f407xx.o(RESET) refers to stm32f4xx_it.o(i.SVC_Handler) for SVC_Handler
    startup_stm32f407xx.o(RESET) refers to stm32f4xx_it.o(i.DebugMon_Handler) for DebugMon_Handler
    startup_stm32f407xx.o(RESET) refers to stm32f4xx_it.o(i.PendSV_Handler) for PendSV_Handler
    startup_stm32f407xx.o(RESET) refers to stm32f4xx_it.o(i.SysTick_Handler) for SysTick_Handler
    startup_stm32f407xx.o(RESET) refers to stm32f4xx_it.o(i.EXTI2_IRQHandler) for EXTI2_IRQHandler
    startup_stm32f407xx.o(RESET) refers to stm32f4xx_it.o(i.CAN1_RX0_IRQHandler) for CAN1_RX0_IRQHandler
    startup_stm32f407xx.o(RESET) refers to stm32f4xx_it.o(i.TIM1_UP_TIM10_IRQHandler) for TIM1_UP_TIM10_IRQHandler
    startup_stm32f407xx.o(RESET) refers to stm32f4xx_it.o(i.TIM3_IRQHandler) for TIM3_IRQHandler
    startup_stm32f407xx.o(RESET) refers to stm32f4xx_it.o(i.USART1_IRQHandler) for USART1_IRQHandler
    startup_stm32f407xx.o(RESET) refers to stm32f4xx_it.o(i.EXTI15_10_IRQHandler) for EXTI15_10_IRQHandler
    startup_stm32f407xx.o(RESET) refers to stm32f4xx_it.o(i.DMA2_Stream0_IRQHandler) for DMA2_Stream0_IRQHandler
==============================================================================

Removing Unused input sections from the image.

    Removing startup_stm32f407xx.o(HEAP), (512 bytes).
    Removing main.o(.rev16_text), (4 bytes).
    Removing main.o(.revsh_text), (4 bytes).
    Removing main.o(.rrx_text), (6 bytes).
    Removing gpio.o(.rev16_text), (4 bytes).
    Removing gpio.o(.revsh_text), (4 bytes).
    Removing gpio.o(.rrx_text), (6 bytes).
    Removing adc.o(.rev16_text), (4 bytes).
    Removing adc.o(.revsh_text), (4 bytes).
    Removing adc.o(.rrx_text), (6 bytes).
    Removing adc.o(i.HAL_ADC_MspDeInit), (104 bytes).
    Removing can.o(.rev16_text), (4 bytes).
    Removing can.o(.revsh_text), (4 bytes).
    Removing can.o(.rrx_text), (6 bytes).
    Removing can.o(i.HAL_CAN_MspDeInit), (56 bytes).
    Removing dma.o(.rev16_text), (4 bytes).
    Removing dma.o(.revsh_text), (4 bytes).
    Removing dma.o(.rrx_text), (6 bytes).
==============================================================================

Image Symbol Table

    Local Symbols

    Symbol Name                              Value     Ov Type        Size  Object(Section)

    ../Core/Src/adc.c                        0x00000000   Number         0  adc.o ABSOLUTE
    ../Core/Src/can.c                        0x00000000   Number         0  can.o ABSOLUTE
    ../Core/Src/dma.c                        0x00000000   Number         0  dma.o ABSOLUTE
    ../Core/Src/gpio.c                       0x00000000   Number         0  gpio.o ABSOLUTE
    ../Core/Src/main.c                       0x00000000   Number         0  main.o ABSOLUTE
    ../Core/Src/spi.c                        0x00000000   Number         0  spi.o ABSOLUTE
    ../Core/Src/stm32f4xx_hal_msp.c          0x00000000   Number         0  stm32f4xx_hal_msp.o ABSOLUTE
    ../Core/Src/stm32f4xx_it.c               0x00000000   Number         0  stm32f4xx_it.o ABSOLUTE
    ../Core/Src/system_stm32f4xx.c           0x00000000   Number         0  system_stm32f4xx.o ABSOLUTE
    ../Core/Src/tim.c                        0x00000000   Number         0  tim.o ABSOLUTE
    ../Core/Src/usart.c                      0x00000000   Number         0  usart.o ABSOLUTE
    ../Drivers/STM32F4xx_HAL_Driver/Src/stm32f4xx_hal.c 0x00000000   Number         0  stm32f4xx_hal.o ABSOLUTE
    ../Drivers/STM32F4xx_HAL_Driver/Src/stm32f4xx_hal_adc.c 0x00000000   Number         0  stm32f4xx_hal_adc.o ABSOLUTE
    ../Drivers/STM32F4xx_HAL_Driver/Src/stm32f4xx_hal_adc_ex.c 0x00000000   Number         0  stm32f4xx_hal_adc_ex.o ABSOLUTE
    ../Drivers/STM32F4xx_HAL_Driver/Src/stm32f4xx_hal_can.c 0x00000000   Number         0  stm32f4xx_hal_can.o ABSOLUTE
    ../Drivers/STM32F4xx_HAL_Driver/Src/stm32f4xx_hal_cortex.c 0x00000000   Number         0  stm32f4xx_hal_cortex.o ABSOLUTE
    ../Drivers/STM32F4xx_HAL_Driver/Src/stm32f4xx_hal_dma.c 0x00000000   Number         0  stm32f4xx_hal_dma.o ABSOLUTE
    ../Drivers/STM32F4xx_HAL_Driver/Src/stm32f4xx_hal_dma_ex.c 0x00000000   Number         0  stm32f4xx_hal_dma_ex.o ABSOLUTE
    ../Drivers/STM32F4xx_HAL_Driver/Src/stm32f4xx_hal_exti.c 0x00000000   Number         0  stm32f4xx_hal_exti.o ABSOLUTE
    ../Drivers/STM32F4xx_HAL_Driver/Src/stm32f4xx_hal_flash.c 0x00000000   Number         0  stm32f4xx_hal_flash.o ABSOLUTE
    ../Drivers/STM32F4xx_HAL_Driver/Src/stm32f4xx_hal_flash_ex.c 0x00000000   Number         0  stm32f4xx_hal_flash_ex.o ABSOLUTE
    ../Drivers/STM32F4xx_HAL_Driver/Src/stm32f4xx_hal_flash_ramfunc.c 0x00000000   Number         0  stm32f4xx_hal_flash_ramfunc.o ABSOLUTE
    ../Drivers/STM32F4xx_HAL_Driver/Src/stm32f4xx_hal_gpio.c 0x00000000   Number         0  stm32f4xx_hal_gpio.o ABSOLUTE
    ../Drivers/STM32F4xx_HAL_Driver/Src/stm32f4xx_hal_pwr.c 0x00000000   Number         0  stm32f4xx_hal_pwr.o ABSOLUTE
    ../Drivers/STM32F4xx_HAL_Driver/Src/stm32f4xx_hal_pwr_ex.c 0x00000000   Number         0  stm32f4xx_hal_pwr_ex.o ABSOLUTE
    ../Drivers/STM32F4xx_HAL_Driver/Src/stm32f4xx_hal_rcc.c 0x00000000   Number         0  stm32f4xx_hal_rcc.o ABSOLUTE
    ../Drivers/STM32F4xx_HAL_Driver/Src/stm32f4xx_hal_rcc_ex.c 0x00000000   Number         0  stm32f4xx_hal_rcc_ex.o ABSOLUTE
    ../Drivers/STM32F4xx_HAL_Driver/Src/stm32f4xx_hal_spi.c 0x00000000   Number         0  stm32f4xx_hal_spi.o ABSOLUTE
    ../Drivers/STM32F4xx_HAL_Driver/Src/stm32f4xx_hal_tim.c 0x00000000   Number         0  stm32f4xx_hal_tim.o ABSOLUTE
    ../Drivers/STM32F4xx_HAL_Driver/Src/stm32f4xx_hal_tim_ex.c 0x00000000   Number         0  stm32f4xx_hal_tim_ex.o ABSOLUTE
    ../Drivers/STM32F4xx_HAL_Driver/Src/stm32f4xx_hal_uart.c 0x00000000   Number         0  stm32f4xx_hal_uart.o ABSOLUTE
    ../clib/../cmprslib/zerorunl2.c          0x00000000   Number         0  __dczerorl2.o ABSOLUTE
    ../clib/microlib/division.c              0x00000000   Number         0  uidiv.o ABSOLUTE
    ../clib/microlib/division.c              0x00000000   Number         0  uldiv.o ABSOLUTE
    ../clib/microlib/init/entry.s            0x00000000   Number         0  entry11a.o ABSOLUTE
    ../clib/microlib/init/entry.s            0x00000000   Number         0  entry10b.o ABSOLUTE
    ../clib/microlib/init/entry.s            0x00000000   Number         0  entry8b.o ABSOLUTE
    ../clib/microlib/init/entry.s            0x00000000   Number         0  entry8a.o ABSOLUTE
    ../clib/microlib/init/entry.s            0x00000000   Number         0  entry7b.o ABSOLUTE
    ../clib/microlib/init/entry.s            0x00000000   Number         0  entry7a.o ABSOLUTE
    ../clib/microlib/init/entry.s            0x00000000   Number         0  entry9a.o ABSOLUTE
    ../clib/microlib/init/entry.s            0x00000000   Number         0  entry5.o ABSOLUTE
    ../clib/microlib/init/entry.s            0x00000000   Number         0  entry9b.o ABSOLUTE
    ../clib/microlib/init/entry.s            0x00000000   Number         0  entry2.o ABSOLUTE
    ../clib/microlib/init/entry.s            0x00000000   Number         0  entry10a.o ABSOLUTE
    ../clib/microlib/init/entry.s            0x00000000   Number         0  entry.o ABSOLUTE
    ../clib/microlib/init/entry.s            0x00000000   Number         0  entry12b.o ABSOLUTE
    ../clib/microlib/init/entry.s            0x00000000   Number         0  entry12a.o ABSOLUTE
    ../clib/microlib/init/entry.s            0x00000000   Number         0  entry11b.o ABSOLUTE
    ../clib/microlib/longlong.c              0x00000000   Number         0  llsshr.o ABSOLUTE
    ../clib/microlib/longlong.c              0x00000000   Number         0  llshl.o ABSOLUTE
    ../clib/microlib/longlong.c              0x00000000   Number         0  llushr.o ABSOLUTE
    ../clib/microlib/printf/printf.c         0x00000000   Number         0  printf2.o ABSOLUTE
    ../clib/microlib/printf/printf.c         0x00000000   Number         0  printf5.o ABSOLUTE
    ../clib/microlib/printf/printf.c         0x00000000   Number         0  printf1.o ABSOLUTE
    ../clib/microlib/printf/printf.c         0x00000000   Number         0  printf6.o ABSOLUTE
    ../clib/microlib/printf/printf.c         0x00000000   Number         0  printf0.o ABSOLUTE
    ../clib/microlib/printf/printf.c         0x00000000   Number         0  printf7.o ABSOLUTE
    ../clib/microlib/printf/printf.c         0x00000000   Number         0  printf4.o ABSOLUTE
    ../clib/microlib/printf/printf.c         0x00000000   Number         0  printfb.o ABSOLUTE
    ../clib/microlib/printf/printf.c         0x00000000   Number         0  printf3.o ABSOLUTE
    ../clib/microlib/printf/printf.c         0x00000000   Number         0  printfa.o ABSOLUTE
    ../clib/microlib/printf/printf.c         0x00000000   Number         0  printf8.o ABSOLUTE
    ../clib/microlib/printf/stubs.s          0x00000000   Number         0  stubs.o ABSOLUTE
    ../clib/microlib/stdio/streams.c         0x00000000   Number         0  stdout.o ABSOLUTE
    ../clib/microlib/string/memcpy.c         0x00000000   Number         0  memcpyb.o ABSOLUTE
    ../clib/microlib/string/memcpy.c         0x00000000   Number         0  memcpya.o ABSOLUTE
    ../clib/microlib/string/memset.c         0x00000000   Number         0  memseta.o ABSOLUTE
    ../clib/microlib/stubs.s                 0x00000000   Number         0  iusefp.o ABSOLUTE
    ../fplib/microlib/d2f.c                  0x00000000   Number         0  d2f.o ABSOLUTE
    ../fplib/microlib/f2d.c                  0x00000000   Number         0  f2d.o ABSOLUTE
    ../fplib/microlib/fpadd.c                0x00000000   Number         0  dadd.o ABSOLUTE
    ../fplib/microlib/fpdiv.c                0x00000000   Number         0  ddiv.o ABSOLUTE
    ../fplib/microlib/fpepilogue.c           0x00000000   Number         0  fepilogue.o ABSOLUTE
    ../fplib/microlib/fpepilogue.c           0x00000000   Number         0  depilogue.o ABSOLUTE
    ../fplib/microlib/fpfix.c                0x00000000   Number         0  dfixul.o ABSOLUTE
    ../fplib/microlib/fpflt.c                0x00000000   Number         0  dflti.o ABSOLUTE
    ../fplib/microlib/fpmul.c                0x00000000   Number         0  dmul.o ABSOLUTE
    ../fplib/microlib/fpneg.c                0x00000000   Number         0  dneg.o ABSOLUTE
    ../mathlib/fabs.c                        0x00000000   Number         0  fabs.o ABSOLUTE
    ..\..\Source\CommonTables\arm_common_tables.c 0x00000000   Number         0  arm_common_tables.o ABSOLUTE
    ..\..\Source\FastMathFunctions\arm_cos_f32.c 0x00000000   Number         0  arm_cos_f32.o ABSOLUTE
    ..\..\Source\FastMathFunctions\arm_sin_f32.c 0x00000000   Number         0  arm_sin_f32.o ABSOLUTE
    ..\Core\Src\adc.c                        0x00000000   Number         0  adc.o ABSOLUTE
    ..\Core\Src\can.c                        0x00000000   Number         0  can.o ABSOLUTE
    ..\Core\Src\dma.c                        0x00000000   Number         0  dma.o ABSOLUTE
    ..\Core\Src\gpio.c                       0x00000000   Number         0  gpio.o ABSOLUTE
    ..\Core\Src\main.c                       0x00000000   Number         0  main.o ABSOLUTE
    ..\Core\Src\spi.c                        0x00000000   Number         0  spi.o ABSOLUTE
    ..\Core\Src\stm32f4xx_hal_msp.c          0x00000000   Number         0  stm32f4xx_hal_msp.o ABSOLUTE
    ..\Core\Src\stm32f4xx_it.c               0x00000000   Number         0  stm32f4xx_it.o ABSOLUTE
    ..\Core\Src\system_stm32f4xx.c           0x00000000   Number         0  system_stm32f4xx.o ABSOLUTE
    ..\Core\Src\tim.c                        0x00000000   Number         0  tim.o ABSOLUTE
    ..\Core\Src\usart.c                      0x00000000   Number         0  usart.o ABSOLUTE
    ..\Drivers\STM32F4xx_HAL_Driver\Src\stm32f4xx_hal.c 0x00000000   Number         0  stm32f4xx_hal.o ABSOLUTE
    ..\Drivers\STM32F4xx_HAL_Driver\Src\stm32f4xx_hal_adc.c 0x00000000   Number         0  stm32f4xx_hal_adc.o ABSOLUTE
    ..\Drivers\STM32F4xx_HAL_Driver\Src\stm32f4xx_hal_adc_ex.c 0x00000000   Number         0  stm32f4xx_hal_adc_ex.o ABSOLUTE
    ..\Drivers\STM32F4xx_HAL_Driver\Src\stm32f4xx_hal_can.c 0x00000000   Number         0  stm32f4xx_hal_can.o ABSOLUTE
    ..\Drivers\STM32F4xx_HAL_Driver\Src\stm32f4xx_hal_cortex.c 0x00000000   Number         0  stm32f4xx_hal_cortex.o ABSOLUTE
    ..\Drivers\STM32F4xx_HAL_Driver\Src\stm32f4xx_hal_dma.c 0x00000000   Number         0  stm32f4xx_hal_dma.o ABSOLUTE
    ..\Drivers\STM32F4xx_HAL_Driver\Src\stm32f4xx_hal_dma_ex.c 0x00000000   Number         0  stm32f4xx_hal_dma_ex.o ABSOLUTE
    ..\Drivers\STM32F4xx_HAL_Driver\Src\stm32f4xx_hal_exti.c 0x00000000   Number         0  stm32f4xx_hal_exti.o ABSOLUTE
    ..\Drivers\STM32F4xx_HAL_Driver\Src\stm32f4xx_hal_flash.c 0x00000000   Number         0  stm32f4xx_hal_flash.o ABSOLUTE
    ..\Drivers\STM32F4xx_HAL_Driver\Src\stm32f4xx_hal_flash_ex.c 0x00000000   Number         0  stm32f4xx_hal_flash_ex.o ABSOLUTE
    ..\Drivers\STM32F4xx_HAL_Driver\Src\stm32f4xx_hal_flash_ramfunc.c 0x00000000   Number         0  stm32f4xx_hal_flash_ramfunc.o ABSOLUTE
    ..\Drivers\STM32F4xx_HAL_Driver\Src\stm32f4xx_hal_gpio.c 0x00000000   Number         0  stm32f4xx_hal_gpio.o ABSOLUTE
    ..\Drivers\STM32F4xx_HAL_Driver\Src\stm32f4xx_hal_pwr.c 0x00000000   Number         0  stm32f4xx_hal_pwr.o ABSOLUTE
    ..\Drivers\STM32F4xx_HAL_Driver\Src\stm32f4xx_hal_pwr_ex.c 0x00000000   Number         0  stm32f4xx_hal_pwr_ex.o ABSOLUTE
    ..\Drivers\STM32F4xx_HAL_Driver\Src\stm32f4xx_hal_rcc.c 0x00000000   Number         0  stm32f4xx_hal_rcc.o ABSOLUTE
    ..\Drivers\STM32F4xx_HAL_Driver\Src\stm32f4xx_hal_rcc_ex.c 0x00000000   Number         0  stm32f4xx_hal_rcc_ex.o ABSOLUTE
    ..\Drivers\STM32F4xx_HAL_Driver\Src\stm32f4xx_hal_spi.c 0x00000000   Number         0  stm32f4xx_hal_spi.o ABSOLUTE
    ..\Drivers\STM32F4xx_HAL_Driver\Src\stm32f4xx_hal_tim.c 0x00000000   Number         0  stm32f4xx_hal_tim.o ABSOLUTE
    ..\Drivers\STM32F4xx_HAL_Driver\Src\stm32f4xx_hal_tim_ex.c 0x00000000   Number         0  stm32f4xx_hal_tim_ex.o ABSOLUTE
    ..\Drivers\STM32F4xx_HAL_Driver\Src\stm32f4xx_hal_uart.c 0x00000000   Number         0  stm32f4xx_hal_uart.o ABSOLUTE
    ..\User\APP\APPMain.c                    0x00000000   Number         0  appmain.o ABSOLUTE
    ..\User\Framework\FOC.c                  0x00000000   Number         0  foc.o ABSOLUTE
    ..\User\Framework\LEDControl.c           0x00000000   Number         0  ledcontrol.o ABSOLUTE
    ..\User\Framework\PositionPID.c          0x00000000   Number         0  positionpid.o ABSOLUTE
    ..\User\Framework\SpeedPID.c             0x00000000   Number         0  speedpid.o ABSOLUTE
    ..\User\Framework\Svpwm.c                0x00000000   Number         0  svpwm.o ABSOLUTE
    ..\User\Framework\TLE5012B.c             0x00000000   Number         0  tle5012b.o ABSOLUTE
    ..\User\Function\AngleCalibrationFunc.c  0x00000000   Number         0  anglecalibrationfunc.o ABSOLUTE
    ..\User\Function\FunctionMain.c          0x00000000   Number         0  functionmain.o ABSOLUTE
    ..\User\MCUDriver\CAN1.c                 0x00000000   Number         0  can1.o ABSOLUTE
    ..\User\MCUDriver\LEDGPIO.c              0x00000000   Number         0  ledgpio.o ABSOLUTE
    ..\User\MCUDriver\MCUDriverMain.c        0x00000000   Number         0  mcudrivermain.o ABSOLUTE
    ..\User\MCUDriver\Motor1ADC1.c           0x00000000   Number         0  motor1adc1.o ABSOLUTE
    ..\User\MCUDriver\Motor1EncoderNVIC.c    0x00000000   Number         0  motor1encodernvic.o ABSOLUTE
    ..\User\MCUDriver\Motor1GPIO.c           0x00000000   Number         0  motor1gpio.o ABSOLUTE
    ..\User\MCUDriver\Motor1SPI1.c           0x00000000   Number         0  motor1spi1.o ABSOLUTE
    ..\User\MCUDriver\Motor1TIM1Pwm.c        0x00000000   Number         0  motor1tim1pwm.o ABSOLUTE
    ..\User\MCUDriver\Motor1TIM2Encoder.c    0x00000000   Number         0  motor1tim2encoder_1.o ABSOLUTE
    ..\User\MCUDriver\Motor2ADC2.c           0x00000000   Number         0  motor2adc2.o ABSOLUTE
    ..\User\MCUDriver\Motor2EncoderNVIC.c    0x00000000   Number         0  motor2encodernvic.o ABSOLUTE
    ..\User\MCUDriver\Motor2GPIO.c           0x00000000   Number         0  motor2gpio.o ABSOLUTE
    ..\User\MCUDriver\Motor2SPI2.c           0x00000000   Number         0  motor2spi2.o ABSOLUTE
    ..\User\MCUDriver\Motor2TIM3Pwm.c        0x00000000   Number         0  motor2tim3pwm.o ABSOLUTE
    ..\User\MCUDriver\Motor2TIM4Encoder.c    0x00000000   Number         0  motor2tim4encoder_1.o ABSOLUTE
    ..\User\MCUDriver\Timer.c                0x00000000   Number         0  timer.o ABSOLUTE
    ..\User\MCUDriver\Uart1.c                0x00000000   Number         0  uart1.o ABSOLUTE
    ..\User\PeripheralsDriver\LEDConfig.c    0x00000000   Number         0  ledconfig.o ABSOLUTE
    ..\User\PeripheralsDriver\Motor1FOCConfig.c 0x00000000   Number         0  motor1focconfig.o ABSOLUTE
    ..\User\PeripheralsDriver\Motor1PositionPIDConfig.c 0x00000000   Number         0  motor1positionpidconfig.o ABSOLUTE
    ..\User\PeripheralsDriver\Motor1SpeedPIDConfig.c 0x00000000   Number         0  motor1speedpidconfig.o ABSOLUTE
    ..\User\PeripheralsDriver\Motor1SvpwmConfig.c 0x00000000   Number         0  motor1svpwmconfig.o ABSOLUTE
    ..\User\PeripheralsDriver\Motor2FOCConfig.c 0x00000000   Number         0  motor2focconfig.o ABSOLUTE
    ..\User\PeripheralsDriver\Motor2PositionPIDConfig.c 0x00000000   Number         0  motor2positionpidconfig.o ABSOLUTE
    ..\User\PeripheralsDriver\Motor2SpeedPIDConfig.c 0x00000000   Number         0  motor2speedpidconfig.o ABSOLUTE
    ..\User\PeripheralsDriver\Motor2SvpwmConfig.c 0x00000000   Number         0  motor2svpwmconfig.o ABSOLUTE
    ..\User\PeripheralsDriver\PerDriverMain.c 0x00000000   Number         0  perdrivermain.o ABSOLUTE
    ..\User\Protocol\RingBuffer.c            0x00000000   Number         0  ringbuffer.o ABSOLUTE
    ..\User\RTT\SEGGER_RTT.c                 0x00000000   Number         0  segger_rtt.o ABSOLUTE
    ..\User\RTT\SEGGER_RTT_printf.c          0x00000000   Number         0  segger_rtt_printf.o ABSOLUTE
    ..\\..\\Source\\CommonTables\\arm_common_tables.c 0x00000000   Number         0  arm_common_tables.o ABSOLUTE
    ..\\..\\Source\\FastMathFunctions\\arm_cos_f32.c 0x00000000   Number         0  arm_cos_f32.o ABSOLUTE
    ..\\..\\Source\\FastMathFunctions\\arm_sin_f32.c 0x00000000   Number         0  arm_sin_f32.o ABSOLUTE
    ..\\User\\Framework\\FOC.c               0x00000000   Number         0  foc.o ABSOLUTE
    ..\\User\\Framework\\Svpwm.c             0x00000000   Number         0  svpwm.o ABSOLUTE
    ..\\User\\Framework\\TLE5012B.c          0x00000000   Number         0  tle5012b.o ABSOLUTE
    ..\\User\\Function\\AngleCalibrationFunc.c 0x00000000   Number         0  anglecalibrationfunc.o ABSOLUTE
    ..\\User\\MCUDriver\\CAN1.c              0x00000000   Number         0  can1.o ABSOLUTE
    ..\\User\\MCUDriver\\LEDGPIO.c           0x00000000   Number         0  ledgpio.o ABSOLUTE
    ..\\User\\MCUDriver\\Motor1ADC1.c        0x00000000   Number         0  motor1adc1.o ABSOLUTE
    ..\\User\\MCUDriver\\Motor1EncoderNVIC.c 0x00000000   Number         0  motor1encodernvic.o ABSOLUTE
    ..\\User\\MCUDriver\\Motor1GPIO.c        0x00000000   Number         0  motor1gpio.o ABSOLUTE
    ..\\User\\MCUDriver\\Motor1SPI1.c        0x00000000   Number         0  motor1spi1.o ABSOLUTE
    ..\\User\\MCUDriver\\Motor1TIM1Pwm.c     0x00000000   Number         0  motor1tim1pwm.o ABSOLUTE
    ..\\User\\MCUDriver\\Motor1TIM2Encoder.c 0x00000000   Number         0  motor1tim2encoder_1.o ABSOLUTE
    ..\\User\\MCUDriver\\Motor2ADC2.c        0x00000000   Number         0  motor2adc2.o ABSOLUTE
    ..\\User\\MCUDriver\\Motor2EncoderNVIC.c 0x00000000   Number         0  motor2encodernvic.o ABSOLUTE
    ..\\User\\MCUDriver\\Motor2GPIO.c        0x00000000   Number         0  motor2gpio.o ABSOLUTE
    ..\\User\\MCUDriver\\Motor2SPI2.c        0x00000000   Number         0  motor2spi2.o ABSOLUTE
    ..\\User\\MCUDriver\\Motor2TIM3Pwm.c     0x00000000   Number         0  motor2tim3pwm.o ABSOLUTE
    ..\\User\\MCUDriver\\Motor2TIM4Encoder.c 0x00000000   Number         0  motor2tim4encoder_1.o ABSOLUTE
    ..\\User\\MCUDriver\\Timer.c             0x00000000   Number         0  timer.o ABSOLUTE
    ..\\User\\MCUDriver\\Uart1.c             0x00000000   Number         0  uart1.o ABSOLUTE
    ..\\User\\PeripheralsDriver\\PerDriverMain.c 0x00000000   Number         0  perdrivermain.o ABSOLUTE
    cdcmple.s                                0x00000000   Number         0  cdcmple.o ABSOLUTE
    cdrcmple.s                               0x00000000   Number         0  cdrcmple.o ABSOLUTE
    dc.s                                     0x00000000   Number         0  dc.o ABSOLUTE
    handlers.s                               0x00000000   Number         0  handlers.o ABSOLUTE
    init.s                                   0x00000000   Number         0  init.o ABSOLUTE
    startup_stm32f407xx.s                    0x00000000   Number         0  startup_stm32f407xx.o ABSOLUTE
    RESET                                    0x08000000   Section      392  startup_stm32f407xx.o(RESET)
    .ARM.Collect$$$$00000000                 0x08000188   Section        0  entry.o(.ARM.Collect$$$$00000000)
    .ARM.Collect$$$$00000001                 0x08000188   Section        4  entry2.o(.ARM.Collect$$$$00000001)
    .ARM.Collect$$$$00000004                 0x0800018c   Section        4  entry5.o(.ARM.Collect$$$$00000004)
    .ARM.Collect$$$$00000008                 0x08000190   Section        0  entry7b.o(.ARM.Collect$$$$00000008)
    .ARM.Collect$$$$0000000A                 0x08000190   Section        0  entry8b.o(.ARM.Collect$$$$0000000A)
    .ARM.Collect$$$$0000000B                 0x08000190   Section        8  entry9a.o(.ARM.Collect$$$$0000000B)
    .ARM.Collect$$$$0000000E                 0x08000198   Section        4  entry12b.o(.ARM.Collect$$$$0000000E)
    .ARM.Collect$$$$0000000F                 0x0800019c   Section        0  entry10a.o(.ARM.Collect$$$$0000000F)
    .ARM.Collect$$$$00000011                 0x0800019c   Section        0  entry11a.o(.ARM.Collect$$$$00000011)
    .ARM.Collect$$$$00002712                 0x0800019c   Section        4  entry2.o(.ARM.Collect$$$$00002712)
    __lit__00000000                          0x0800019c   Data           4  entry2.o(.ARM.Collect$$$$00002712)
    .text                                    0x080001a0   Section       36  startup_stm32f407xx.o(.text)
    $v0                                      0x080001a0   Number         0  startup_stm32f407xx.o(.text)
    .text                                    0x080001c4   Section        0  arm_cos_f32.o(.text)
    .text                                    0x0800023c   Section        0  arm_sin_f32.o(.text)
    .text                                    0x080002d0   Section        0  uldiv.o(.text)
    .text                                    0x08000332   Section        0  memcpya.o(.text)
    .text                                    0x08000356   Section        0  memseta.o(.text)
    .text                                    0x0800037a   Section        0  dmul.o(.text)
    .text                                    0x0800045e   Section        0  dflti.o(.text)
    .text                                    0x08000480   Section        0  f2d.o(.text)
    .text                                    0x080004a8   Section       48  cdcmple.o(.text)
    .text                                    0x080004d8   Section       48  cdrcmple.o(.text)
    .text                                    0x08000508   Section        0  d2f.o(.text)
    .text                                    0x08000540   Section        0  uidiv.o(.text)
    .text                                    0x0800056c   Section        0  llshl.o(.text)
    .text                                    0x0800058a   Section        0  llushr.o(.text)
    .text                                    0x080005aa   Section        0  iusefp.o(.text)
    .text                                    0x080005aa   Section        0  fepilogue.o(.text)
    .text                                    0x08000618   Section        0  depilogue.o(.text)
    .text                                    0x080006d2   Section        0  dadd.o(.text)
    .text                                    0x08000820   Section        0  ddiv.o(.text)
    .text                                    0x080008fe   Section        0  dfixul.o(.text)
    .text                                    0x08000930   Section       36  init.o(.text)
    .text                                    0x08000954   Section        0  llsshr.o(.text)
    .text                                    0x08000978   Section        0  __dczerorl2.o(.text)
    i.ADC_DMAConvCplt                        0x080009ce   Section        0  stm32f4xx_hal_adc.o(i.ADC_DMAConvCplt)
    ADC_DMAConvCplt                          0x080009cf   Thumb Code   126  stm32f4xx_hal_adc.o(i.ADC_DMAConvCplt)
    i.ADC_DMAError                           0x08000a4c   Section        0  stm32f4xx_hal_adc.o(i.ADC_DMAError)
    ADC_DMAError                             0x08000a4d   Thumb Code    26  stm32f4xx_hal_adc.o(i.ADC_DMAError)
    i.ADC_DMAHalfConvCplt                    0x08000a66   Section        0  stm32f4xx_hal_adc.o(i.ADC_DMAHalfConvCplt)
    ADC_DMAHalfConvCplt                      0x08000a67   Thumb Code    14  stm32f4xx_hal_adc.o(i.ADC_DMAHalfConvCplt)
    i.ADC_Init                               0x08000a74   Section        0  stm32f4xx_hal_adc.o(i.ADC_Init)
    ADC_Init                                 0x08000a75   Thumb Code   344  stm32f4xx_hal_adc.o(i.ADC_Init)
    i.APPMain_Init                           0x08000bd4   Section        0  appmain.o(i.APPMain_Init)
    i.APPMain_Loop                           0x08000be4   Section        0  appmain.o(i.APPMain_Loop)
    i.AngleCalibrationFunc_Init              0x08000bf4   Section        0  anglecalibrationfunc.o(i.AngleCalibrationFunc_Init)
    i.BusFault_Handler                       0x08000c00   Section        0  stm32f4xx_it.o(i.BusFault_Handler)
    i.CAN1_RX0_IRQHandler                    0x08000c04   Section        0  stm32f4xx_it.o(i.CAN1_RX0_IRQHandler)
    i.CANFilterSet                           0x08000c14   Section        0  can1.o(i.CANFilterSet)
    CANFilterSet                             0x08000c15   Thumb Code    52  can1.o(i.CANFilterSet)
    i.CANSendData                            0x08000c48   Section        0  can1.o(i.CANSendData)
    i.CAN_Init                               0x08000c90   Section        0  can1.o(i.CAN_Init)
    i.CAN_Test                               0x08000cb0   Section        0  can1.o(i.CAN_Test)
    i.ClarkeTransform                        0x08000cec   Section        0  foc.o(i.ClarkeTransform)
    ClarkeTransform                          0x08000ced   Thumb Code    38  foc.o(i.ClarkeTransform)
    i.CurrentPIControlID                     0x08000d18   Section        0  foc.o(i.CurrentPIControlID)
    CurrentPIControlID                       0x08000d19   Thumb Code   346  foc.o(i.CurrentPIControlID)
    i.CurrentPIControlIQ                     0x08000e72   Section        0  foc.o(i.CurrentPIControlIQ)
    CurrentPIControlIQ                       0x08000e73   Thumb Code   350  foc.o(i.CurrentPIControlIQ)
    i.CurrentReconstruction                  0x08000fd0   Section        0  foc.o(i.CurrentReconstruction)
    CurrentReconstruction                    0x08000fd1   Thumb Code   212  foc.o(i.CurrentReconstruction)
    i.DMA2_Stream0_IRQHandler                0x080010a8   Section        0  stm32f4xx_it.o(i.DMA2_Stream0_IRQHandler)
    i.DMA2_Stream2_IRQHandler                0x080010c0   Section        0  stm32f4xx_it.o(i.DMA2_Stream2_IRQHandler)
    i.DMA_CalcBaseAndBitshift                0x080010d8   Section        0  stm32f4xx_hal_dma.o(i.DMA_CalcBaseAndBitshift)
    DMA_CalcBaseAndBitshift                  0x080010d9   Thumb Code    46  stm32f4xx_hal_dma.o(i.DMA_CalcBaseAndBitshift)
    i.DMA_CheckFifoParam                     0x0800110c   Section        0  stm32f4xx_hal_dma.o(i.DMA_CheckFifoParam)
    DMA_CheckFifoParam                       0x0800110d   Thumb Code   170  stm32f4xx_hal_dma.o(i.DMA_CheckFifoParam)
    i.DMA_SetConfig                          0x080011b6   Section        0  stm32f4xx_hal_dma.o(i.DMA_SetConfig)
    DMA_SetConfig                            0x080011b7   Thumb Code    44  stm32f4xx_hal_dma.o(i.DMA_SetConfig)
    i.DebugMon_Handler                       0x080011e2   Section        0  stm32f4xx_it.o(i.DebugMon_Handler)
    i.EXTI15_10_IRQHandler                   0x080011e4   Section        0  stm32f4xx_it.o(i.EXTI15_10_IRQHandler)
    i.EXTI2_IRQHandler                       0x080011f4   Section        0  stm32f4xx_it.o(i.EXTI2_IRQHandler)
    i.Error_Handler                          0x08001202   Section        0  main.o(i.Error_Handler)
    i.FocContorl                             0x08001204   Section        0  foc.o(i.FocContorl)
    i.FunctionMain_Init                      0x08001252   Section        0  functionmain.o(i.FunctionMain_Init)
    i.FunctionMain_Loop                      0x0800125a   Section        0  functionmain.o(i.FunctionMain_Loop)
    i.GetElectricalAngle                     0x0800125c   Section        0  foc.o(i.GetElectricalAngle)
    GetElectricalAngle                       0x0800125d   Thumb Code    54  foc.o(i.GetElectricalAngle)
    i.GetFocAngle                            0x08001298   Section        0  foc.o(i.GetFocAngle)
    i.GetMotor1ADC1PhaseXValue               0x080012a0   Section        0  motor1adc1.o(i.GetMotor1ADC1PhaseXValue)
    i.GetMotor1PreCurrent                    0x080012f8   Section        0  motor1focconfig.o(i.GetMotor1PreCurrent)
    i.GetMotor2ADC2PhaseXValue               0x080013c0   Section        0  motor2adc2.o(i.GetMotor2ADC2PhaseXValue)
    i.GetMotor2PreCurrent                    0x08001418   Section        0  motor2focconfig.o(i.GetMotor2PreCurrent)
    i.GetSVPWMSector                         0x080014e0   Section        0  svpwm.o(i.GetSVPWMSector)
    i.GetVectorDuration                      0x080014e8   Section        0  svpwm.o(i.GetVectorDuration)
    i.HAL_ADC_ConfigChannel                  0x08001778   Section        0  stm32f4xx_hal_adc.o(i.HAL_ADC_ConfigChannel)
    i.HAL_ADC_ConvCpltCallback               0x08001904   Section        0  stm32f4xx_hal_adc.o(i.HAL_ADC_ConvCpltCallback)
    i.HAL_ADC_ConvHalfCpltCallback           0x08001906   Section        0  stm32f4xx_hal_adc.o(i.HAL_ADC_ConvHalfCpltCallback)
    i.HAL_ADC_ErrorCallback                  0x08001908   Section        0  stm32f4xx_hal_adc.o(i.HAL_ADC_ErrorCallback)
    i.HAL_ADC_Init                           0x0800190c   Section        0  stm32f4xx_hal_adc.o(i.HAL_ADC_Init)
    i.HAL_ADC_MspInit                        0x08001974   Section        0  adc.o(i.HAL_ADC_MspInit)
    i.HAL_ADC_Start_DMA                      0x08001b1c   Section        0  stm32f4xx_hal_adc.o(i.HAL_ADC_Start_DMA)
    i.HAL_CAN_ActivateNotification           0x08001ca0   Section        0  stm32f4xx_hal_can.o(i.HAL_CAN_ActivateNotification)
    i.HAL_CAN_AddTxMessage                   0x08001cca   Section        0  stm32f4xx_hal_can.o(i.HAL_CAN_AddTxMessage)
    i.HAL_CAN_ConfigFilter                   0x08001e20   Section        0  stm32f4xx_hal_can.o(i.HAL_CAN_ConfigFilter)
    i.HAL_CAN_ErrorCallback                  0x08001f44   Section        0  stm32f4xx_hal_can.o(i.HAL_CAN_ErrorCallback)
    i.HAL_CAN_GetRxMessage                   0x08001f46   Section        0  stm32f4xx_hal_can.o(i.HAL_CAN_GetRxMessage)
    i.HAL_CAN_GetTxMailboxesFreeLevel        0x080020c0   Section        0  stm32f4xx_hal_can.o(i.HAL_CAN_GetTxMailboxesFreeLevel)
    i.HAL_CAN_IRQHandler                     0x080020f6   Section        0  stm32f4xx_hal_can.o(i.HAL_CAN_IRQHandler)
    i.HAL_CAN_Init                           0x08002344   Section        0  stm32f4xx_hal_can.o(i.HAL_CAN_Init)
    i.HAL_CAN_MspInit                        0x080024b8   Section        0  can.o(i.HAL_CAN_MspInit)
    i.HAL_CAN_RxFifo0FullCallback            0x08002550   Section        0  stm32f4xx_hal_can.o(i.HAL_CAN_RxFifo0FullCallback)
    i.HAL_CAN_RxFifo0MsgPendingCallback      0x08002554   Section        0  can1.o(i.HAL_CAN_RxFifo0MsgPendingCallback)
    i.HAL_CAN_RxFifo1FullCallback            0x080025bc   Section        0  stm32f4xx_hal_can.o(i.HAL_CAN_RxFifo1FullCallback)
    i.HAL_CAN_RxFifo1MsgPendingCallback      0x080025be   Section        0  stm32f4xx_hal_can.o(i.HAL_CAN_RxFifo1MsgPendingCallback)
    i.HAL_CAN_SleepCallback                  0x080025c0   Section        0  stm32f4xx_hal_can.o(i.HAL_CAN_SleepCallback)
    i.HAL_CAN_Start                          0x080025c2   Section        0  stm32f4xx_hal_can.o(i.HAL_CAN_Start)
    i.HAL_CAN_TxMailbox0AbortCallback        0x08002620   Section        0  stm32f4xx_hal_can.o(i.HAL_CAN_TxMailbox0AbortCallback)
    i.HAL_CAN_TxMailbox0CompleteCallback     0x08002622   Section        0  stm32f4xx_hal_can.o(i.HAL_CAN_TxMailbox0CompleteCallback)
    i.HAL_CAN_TxMailbox1AbortCallback        0x08002624   Section        0  stm32f4xx_hal_can.o(i.HAL_CAN_TxMailbox1AbortCallback)
    i.HAL_CAN_TxMailbox1CompleteCallback     0x08002626   Section        0  stm32f4xx_hal_can.o(i.HAL_CAN_TxMailbox1CompleteCallback)
    i.HAL_CAN_TxMailbox2AbortCallback        0x08002628   Section        0  stm32f4xx_hal_can.o(i.HAL_CAN_TxMailbox2AbortCallback)
    i.HAL_CAN_TxMailbox2CompleteCallback     0x0800262a   Section        0  stm32f4xx_hal_can.o(i.HAL_CAN_TxMailbox2CompleteCallback)
    i.HAL_CAN_WakeUpFromRxMsgCallback        0x0800262c   Section        0  stm32f4xx_hal_can.o(i.HAL_CAN_WakeUpFromRxMsgCallback)
    i.HAL_DMA_Abort_IT                       0x0800262e   Section        0  stm32f4xx_hal_dma.o(i.HAL_DMA_Abort_IT)
    i.HAL_DMA_IRQHandler                     0x08002658   Section        0  stm32f4xx_hal_dma.o(i.HAL_DMA_IRQHandler)
    i.HAL_DMA_Init                           0x08002898   Section        0  stm32f4xx_hal_dma.o(i.HAL_DMA_Init)
    i.HAL_DMA_Start_IT                       0x08002984   Section        0  stm32f4xx_hal_dma.o(i.HAL_DMA_Start_IT)
    i.HAL_Delay                              0x08002a18   Section        0  stm32f4xx_hal.o(i.HAL_Delay)
    i.HAL_GPIO_EXTI_Callback                 0x08002a40   Section        0  stm32f4xx_hal_gpio.o(i.HAL_GPIO_EXTI_Callback)
    i.HAL_GPIO_EXTI_IRQHandler               0x08002a44   Section        0  stm32f4xx_hal_gpio.o(i.HAL_GPIO_EXTI_IRQHandler)
    i.HAL_GPIO_Init                          0x08002a60   Section        0  stm32f4xx_hal_gpio.o(i.HAL_GPIO_Init)
    i.HAL_GPIO_WritePin                      0x08002c60   Section        0  stm32f4xx_hal_gpio.o(i.HAL_GPIO_WritePin)
    i.HAL_GetTick                            0x08002c6c   Section        0  stm32f4xx_hal.o(i.HAL_GetTick)
    i.HAL_IncTick                            0x08002c78   Section        0  stm32f4xx_hal.o(i.HAL_IncTick)
    i.HAL_Init                               0x08002c90   Section        0  stm32f4xx_hal.o(i.HAL_Init)
    i.HAL_InitTick                           0x08002ccc   Section        0  stm32f4xx_hal.o(i.HAL_InitTick)
    i.HAL_MspInit                            0x08002d18   Section        0  stm32f4xx_hal_msp.o(i.HAL_MspInit)
    i.HAL_NVIC_EnableIRQ                     0x08002d60   Section        0  stm32f4xx_hal_cortex.o(i.HAL_NVIC_EnableIRQ)
    i.HAL_NVIC_SetPriority                   0x08002d80   Section        0  stm32f4xx_hal_cortex.o(i.HAL_NVIC_SetPriority)
    i.HAL_NVIC_SetPriorityGrouping           0x08002dfc   Section        0  stm32f4xx_hal_cortex.o(i.HAL_NVIC_SetPriorityGrouping)
    i.HAL_RCC_ClockConfig                    0x08002e24   Section        0  stm32f4xx_hal_rcc.o(i.HAL_RCC_ClockConfig)
    i.HAL_RCC_GetHCLKFreq                    0x08002fa8   Section        0  stm32f4xx_hal_rcc.o(i.HAL_RCC_GetHCLKFreq)
    i.HAL_RCC_GetPCLK1Freq                   0x08002fb4   Section        0  stm32f4xx_hal_rcc.o(i.HAL_RCC_GetPCLK1Freq)
    i.HAL_RCC_GetPCLK2Freq                   0x08002fd4   Section        0  stm32f4xx_hal_rcc.o(i.HAL_RCC_GetPCLK2Freq)
    i.HAL_RCC_GetSysClockFreq                0x08002ff4   Section        0  stm32f4xx_hal_rcc.o(i.HAL_RCC_GetSysClockFreq)
    i.HAL_RCC_OscConfig                      0x080030a4   Section        0  stm32f4xx_hal_rcc.o(i.HAL_RCC_OscConfig)
    i.HAL_SPI_Init                           0x0800352c   Section        0  stm32f4xx_hal_spi.o(i.HAL_SPI_Init)
    i.HAL_SPI_MspInit                        0x080035b8   Section        0  spi.o(i.HAL_SPI_MspInit)
    i.HAL_SYSTICK_Config                     0x080036b8   Section        0  stm32f4xx_hal_cortex.o(i.HAL_SYSTICK_Config)
    i.HAL_TIMEx_BreakCallback                0x080036ec   Section        0  stm32f4xx_hal_tim_ex.o(i.HAL_TIMEx_BreakCallback)
    i.HAL_TIMEx_CommutCallback               0x080036ee   Section        0  stm32f4xx_hal_tim_ex.o(i.HAL_TIMEx_CommutCallback)
    i.HAL_TIMEx_ConfigBreakDeadTime          0x080036f0   Section        0  stm32f4xx_hal_tim_ex.o(i.HAL_TIMEx_ConfigBreakDeadTime)
    i.HAL_TIMEx_MasterConfigSynchronization  0x08003764   Section        0  stm32f4xx_hal_tim_ex.o(i.HAL_TIMEx_MasterConfigSynchronization)
    i.HAL_TIM_Base_Init                      0x08003818   Section        0  stm32f4xx_hal_tim.o(i.HAL_TIM_Base_Init)
    i.HAL_TIM_Base_MspInit                   0x0800384c   Section        0  tim.o(i.HAL_TIM_Base_MspInit)
    i.HAL_TIM_Base_Start_IT                  0x08003894   Section        0  stm32f4xx_hal_tim.o(i.HAL_TIM_Base_Start_IT)
    i.HAL_TIM_Encoder_Init                   0x080038be   Section        0  stm32f4xx_hal_tim.o(i.HAL_TIM_Encoder_Init)
    i.HAL_TIM_Encoder_MspInit                0x0800396c   Section        0  tim.o(i.HAL_TIM_Encoder_MspInit)
    i.HAL_TIM_Encoder_Start                  0x08003a60   Section        0  stm32f4xx_hal_tim.o(i.HAL_TIM_Encoder_Start)
    i.HAL_TIM_IC_CaptureCallback             0x08003aae   Section        0  stm32f4xx_hal_tim.o(i.HAL_TIM_IC_CaptureCallback)
    i.HAL_TIM_IRQHandler                     0x08003ab0   Section        0  stm32f4xx_hal_tim.o(i.HAL_TIM_IRQHandler)
    i.HAL_TIM_MspPostInit                    0x08003c48   Section        0  tim.o(i.HAL_TIM_MspPostInit)
    i.HAL_TIM_OC_DelayElapsedCallback        0x08003cf8   Section        0  stm32f4xx_hal_tim.o(i.HAL_TIM_OC_DelayElapsedCallback)
    i.HAL_TIM_PWM_ConfigChannel              0x08003cfa   Section        0  stm32f4xx_hal_tim.o(i.HAL_TIM_PWM_ConfigChannel)
    i.HAL_TIM_PWM_Init                       0x08003e02   Section        0  stm32f4xx_hal_tim.o(i.HAL_TIM_PWM_Init)
    i.HAL_TIM_PWM_MspInit                    0x08003e38   Section        0  tim.o(i.HAL_TIM_PWM_MspInit)
    i.HAL_TIM_PWM_PulseFinishedCallback      0x08003e80   Section        0  stm32f4xx_hal_tim.o(i.HAL_TIM_PWM_PulseFinishedCallback)
    i.HAL_TIM_PWM_Start                      0x08003e84   Section        0  stm32f4xx_hal_tim.o(i.HAL_TIM_PWM_Start)
    i.HAL_TIM_PeriodElapsedCallback          0x08003edc   Section        0  stm32f4xx_hal_tim.o(i.HAL_TIM_PeriodElapsedCallback)
    i.HAL_TIM_SlaveConfigSynchro             0x08003ede   Section        0  stm32f4xx_hal_tim.o(i.HAL_TIM_SlaveConfigSynchro)
    i.HAL_TIM_TriggerCallback                0x08003f4a   Section        0  stm32f4xx_hal_tim.o(i.HAL_TIM_TriggerCallback)
    i.HAL_UART_ErrorCallback                 0x08003f4c   Section        0  stm32f4xx_hal_uart.o(i.HAL_UART_ErrorCallback)
    i.HAL_UART_IRQHandler                    0x08003f50   Section        0  stm32f4xx_hal_uart.o(i.HAL_UART_IRQHandler)
    i.HAL_UART_Init                          0x080040a4   Section        0  stm32f4xx_hal_uart.o(i.HAL_UART_Init)
    i.HAL_UART_MspInit                       0x08004118   Section        0  usart.o(i.HAL_UART_MspInit)
    i.HAL_UART_RxCpltCallback                0x080041b0   Section        0  stm32f4xx_hal_uart.o(i.HAL_UART_RxCpltCallback)
    i.HAL_UART_TxCpltCallback                0x080041b2   Section        0  stm32f4xx_hal_uart.o(i.HAL_UART_TxCpltCallback)
    i.HardFault_Handler                      0x080041b4   Section        0  stm32f4xx_it.o(i.HardFault_Handler)
    i.LEDConfigSetSysLedStatus               0x080041b8   Section        0  ledconfig.o(i.LEDConfigSetSysLedStatus)
    i.LEDConfig_Init                         0x080041dc   Section        0  ledconfig.o(i.LEDConfig_Init)
    i.LEDConfig_Loop                         0x080041ec   Section        0  ledconfig.o(i.LEDConfig_Loop)
    i.LEDRunCycle                            0x080041fc   Section        0  ledcontrol.o(i.LEDRunCycle)
    i.LEDToggle                              0x0800424c   Section        0  ledcontrol.o(i.LEDToggle)
    i.MCUDriverMain_Init                     0x08004264   Section        0  mcudrivermain.o(i.MCUDriverMain_Init)
    i.MCUDriverMain_Loop                     0x0800428c   Section        0  mcudrivermain.o(i.MCUDriverMain_Loop)
    i.MX_ADC1_Init                           0x080042b0   Section        0  adc.o(i.MX_ADC1_Init)
    i.MX_ADC2_Init                           0x08004350   Section        0  adc.o(i.MX_ADC2_Init)
    i.MX_CAN1_Init                           0x080043f0   Section        0  can.o(i.MX_CAN1_Init)
    i.MX_DMA_Init                            0x08004434   Section        0  dma.o(i.MX_DMA_Init)
    i.MX_GPIO_Init                           0x0800447c   Section        0  gpio.o(i.MX_GPIO_Init)
    i.MX_SPI1_Init                           0x08004668   Section        0  spi.o(i.MX_SPI1_Init)
    i.MX_SPI2_Init                           0x080046b4   Section        0  spi.o(i.MX_SPI2_Init)
    i.MX_TIM1_Init                           0x08004700   Section        0  tim.o(i.MX_TIM1_Init)
    i.MX_TIM2_Init                           0x080047d4   Section        0  tim.o(i.MX_TIM2_Init)
    i.MX_TIM3_Init                           0x0800484c   Section        0  tim.o(i.MX_TIM3_Init)
    i.MX_TIM4_Init                           0x08004914   Section        0  tim.o(i.MX_TIM4_Init)
    i.MX_USART1_UART_Init                    0x08004990   Section        0  usart.o(i.MX_USART1_UART_Init)
    i.MemManage_Handler                      0x080049c8   Section        0  stm32f4xx_it.o(i.MemManage_Handler)
    i.Motor1ADC1StartOnce                    0x080049cc   Section        0  motor1adc1.o(i.Motor1ADC1StartOnce)
    i.Motor1ADC1ValueStorage                 0x080049e4   Section        0  motor1adc1.o(i.Motor1ADC1ValueStorage)
    i.Motor1AngleCalibration                 0x08004a0c   Section        0  anglecalibrationfunc.o(i.Motor1AngleCalibration)
    i.Motor1EncoderZEXITCallback             0x08004a70   Section        0  motor1encodernvic.o(i.Motor1EncoderZEXITCallback)
    i.Motor1EncoderZ_Init                    0x08004a94   Section        0  motor1encodernvic.o(i.Motor1EncoderZ_Init)
    i.Motor1FOCConfig_Init                   0x08004aa4   Section        0  motor1focconfig.o(i.Motor1FOCConfig_Init)
    i.Motor1FocControl                       0x08004ae4   Section        0  motor1focconfig.o(i.Motor1FocControl)
    i.Motor1GetAngle                         0x08004af4   Section        0  motor1focconfig.o(i.Motor1GetAngle)
    i.Motor1GetPosition                      0x08004b04   Section        0  motor1positionpidconfig.o(i.Motor1GetPosition)
    i.Motor1GetPreSpeed                      0x08004b18   Section        0  motor1speedpidconfig.o(i.Motor1GetPreSpeed)
    i.Motor1GetSVPWMSector                   0x08004b98   Section        0  motor1svpwmconfig.o(i.Motor1GetSVPWMSector)
    i.Motor1PositionPIDConfigSetTar          0x08004ba8   Section        0  motor1positionpidconfig.o(i.Motor1PositionPIDConfigSetTar)
    i.Motor1PositionPIDConfig_Init           0x08004bc8   Section        0  motor1positionpidconfig.o(i.Motor1PositionPIDConfig_Init)
    i.Motor1PositionPIDConfig_Loop           0x08004bfc   Section        0  motor1positionpidconfig.o(i.Motor1PositionPIDConfig_Loop)
    i.Motor1SetCurrent                       0x08004c0c   Section        0  motor1speedpidconfig.o(i.Motor1SetCurrent)
    i.Motor1SetEnable                        0x08004c2c   Section        0  motor1gpio.o(i.Motor1SetEnable)
    i.Motor1SetPosition                      0x08004c44   Section        0  motor1positionpidconfig.o(i.Motor1SetPosition)
    i.Motor1SetTarIDIQ                       0x08004c5c   Section        0  motor1focconfig.o(i.Motor1SetTarIDIQ)
    i.Motor1SpeedPIDConfigSetTar             0x08004c84   Section        0  motor1speedpidconfig.o(i.Motor1SpeedPIDConfigSetTar)
    i.Motor1SpeedPIDConfig_Init              0x08004ca4   Section        0  motor1speedpidconfig.o(i.Motor1SpeedPIDConfig_Init)
    i.Motor1SpeedPIDConfig_Loop              0x08004cdc   Section        0  motor1speedpidconfig.o(i.Motor1SpeedPIDConfig_Loop)
    i.Motor1SvpwmGenerate                    0x08004cec   Section        0  motor1svpwmconfig.o(i.Motor1SvpwmGenerate)
    i.Motor1TIM1_Init                        0x08004d14   Section        0  motor1tim1pwm.o(i.Motor1TIM1_Init)
    i.Motor1TIM2EncoderGetAngle              0x08004d6c   Section        0  motor1tim2encoder_1.o(i.Motor1TIM2EncoderGetAngle)
    i.Motor1TIM2EncoderGetCnt                0x08004dc4   Section        0  motor1tim2encoder_1.o(i.Motor1TIM2EncoderGetCnt)
    i.Motor1TIM2EncoderInit                  0x08004e1c   Section        0  motor1tim2encoder_1.o(i.Motor1TIM2EncoderInit)
    i.Motor1TIM2EncoderReset                 0x08004e50   Section        0  motor1tim2encoder_1.o(i.Motor1TIM2EncoderReset)
    i.Motor1TIM2EncoderSetCnt                0x08004e78   Section        0  motor1tim2encoder_1.o(i.Motor1TIM2EncoderSetCnt)
    i.Motor2ADC2StartOnce                    0x08004e84   Section        0  motor2adc2.o(i.Motor2ADC2StartOnce)
    i.Motor2ADC2ValueStorage                 0x08004e9c   Section        0  motor2adc2.o(i.Motor2ADC2ValueStorage)
    i.Motor2AngleCalibration                 0x08004ec4   Section        0  anglecalibrationfunc.o(i.Motor2AngleCalibration)
    i.Motor2EncoderZEXITCallback             0x08004f28   Section        0  motor2encodernvic.o(i.Motor2EncoderZEXITCallback)
    i.Motor2EncoderZ_Init                    0x08004f4c   Section        0  motor2encodernvic.o(i.Motor2EncoderZ_Init)
    i.Motor2FOCConfig_Init                   0x08004f5c   Section        0  motor2focconfig.o(i.Motor2FOCConfig_Init)
    i.Motor2FocControl                       0x08004f9c   Section        0  motor2focconfig.o(i.Motor2FocControl)
    i.Motor2GetAngle                         0x08004fac   Section        0  motor2focconfig.o(i.Motor2GetAngle)
    i.Motor2GetPosition                      0x08004fbc   Section        0  motor2positionpidconfig.o(i.Motor2GetPosition)
    i.Motor2GetPreSpeed                      0x08004fd0   Section        0  motor2speedpidconfig.o(i.Motor2GetPreSpeed)
    i.Motor2GetSVPWMSector                   0x08005050   Section        0  motor2svpwmconfig.o(i.Motor2GetSVPWMSector)
    i.Motor2PositionPIDConfigSetTar          0x08005060   Section        0  motor2positionpidconfig.o(i.Motor2PositionPIDConfigSetTar)
    i.Motor2PositionPIDConfig_Init           0x08005080   Section        0  motor2positionpidconfig.o(i.Motor2PositionPIDConfig_Init)
    i.Motor2PositionPIDConfig_Loop           0x080050b4   Section        0  motor2positionpidconfig.o(i.Motor2PositionPIDConfig_Loop)
    i.Motor2SetCurrent                       0x080050c4   Section        0  motor2speedpidconfig.o(i.Motor2SetCurrent)
    i.Motor2SetEnable                        0x080050e4   Section        0  motor2gpio.o(i.Motor2SetEnable)
    i.Motor2SetPosition                      0x080050fc   Section        0  motor2positionpidconfig.o(i.Motor2SetPosition)
    i.Motor2SetTarIDIQ                       0x08005114   Section        0  motor2focconfig.o(i.Motor2SetTarIDIQ)
    i.Motor2SpeedPIDConfigSetTar             0x0800513c   Section        0  motor2speedpidconfig.o(i.Motor2SpeedPIDConfigSetTar)
    i.Motor2SpeedPIDConfig_Init              0x0800515c   Section        0  motor2speedpidconfig.o(i.Motor2SpeedPIDConfig_Init)
    i.Motor2SpeedPIDConfig_Loop              0x08005194   Section        0  motor2speedpidconfig.o(i.Motor2SpeedPIDConfig_Loop)
    i.Motor2SvpwmGenerate                    0x080051a4   Section        0  motor2svpwmconfig.o(i.Motor2SvpwmGenerate)
    i.Motor2TIM3_Init                        0x080051cc   Section        0  motor2tim3pwm.o(i.Motor2TIM3_Init)
    i.Motor2TIM4EncoderGetAngle              0x08005224   Section        0  motor2tim4encoder_1.o(i.Motor2TIM4EncoderGetAngle)
    i.Motor2TIM4EncoderGetCnt                0x0800527c   Section        0  motor2tim4encoder_1.o(i.Motor2TIM4EncoderGetCnt)
    i.Motor2TIM4EncoderInit                  0x080052d4   Section        0  motor2tim4encoder_1.o(i.Motor2TIM4EncoderInit)
    i.Motor2TIM4EncoderReset                 0x08005308   Section        0  motor2tim4encoder_1.o(i.Motor2TIM4EncoderReset)
    i.Motor2TIM4EncoderSetCnt                0x08005330   Section        0  motor2tim4encoder_1.o(i.Motor2TIM4EncoderSetCnt)
    i.NMI_Handler                            0x0800533c   Section        0  stm32f4xx_it.o(i.NMI_Handler)
    i.ParkAntiTransform                      0x0800533e   Section        0  foc.o(i.ParkAntiTransform)
    ParkAntiTransform                        0x0800533f   Thumb Code   102  foc.o(i.ParkAntiTransform)
    i.ParkTransform                          0x080053a4   Section        0  foc.o(i.ParkTransform)
    ParkTransform                            0x080053a5   Thumb Code   106  foc.o(i.ParkTransform)
    i.PendSV_Handler                         0x0800540e   Section        0  stm32f4xx_it.o(i.PendSV_Handler)
    i.PerDriverMain_Init                     0x08005410   Section        0  perdrivermain.o(i.PerDriverMain_Init)
    i.PerDriverMain_Loop                     0x08005430   Section        0  perdrivermain.o(i.PerDriverMain_Loop)
    i.PositionPIDControl                     0x080054e4   Section        0  positionpid.o(i.PositionPIDControl)
    PositionPIDControl                       0x080054e5   Thumb Code   262  positionpid.o(i.PositionPIDControl)
    i.PositionPIDCycle                       0x080055fc   Section        0  positionpid.o(i.PositionPIDCycle)
    i.RingBuffer_De                          0x08005644   Section        0  ringbuffer.o(i.RingBuffer_De)
    i.RingBuffer_En                          0x08005684   Section        0  ringbuffer.o(i.RingBuffer_En)
    i.RingBuffer_IsEmpty                     0x080056c4   Section        0  ringbuffer.o(i.RingBuffer_IsEmpty)
    i.RingBuffer_IsFull                      0x080056d6   Section        0  ringbuffer.o(i.RingBuffer_IsFull)
    i.SEGGER_RTT_Write                       0x080056f4   Section        0  segger_rtt.o(i.SEGGER_RTT_Write)
    i.SVC_Handler                            0x08005864   Section        0  stm32f4xx_it.o(i.SVC_Handler)
    i.SetCurrentPIDParams                    0x08005866   Section        0  foc.o(i.SetCurrentPIDParams)
    i.SetCurrentPIDTar                       0x08005888   Section        0  foc.o(i.SetCurrentPIDTar)
    i.SetFocEnable                           0x08005892   Section        0  foc.o(i.SetFocEnable)
    i.SetLEDFlashing                         0x080058a4   Section        0  ledcontrol.o(i.SetLEDFlashing)
    i.SetLEDOFF                              0x080058ae   Section        0  ledcontrol.o(i.SetLEDOFF)
    i.SetLEDON                               0x080058c8   Section        0  ledcontrol.o(i.SetLEDON)
    i.SetLedLeave                            0x080058d8   Section        0  ledgpio.o(i.SetLedLeave)
    i.SetLedStatus                           0x080058ec   Section        0  ledcontrol.o(i.SetLedStatus)
    i.SetMotor1ChannelAHighLeaveTime_us      0x0800592c   Section        0  motor1tim1pwm.o(i.SetMotor1ChannelAHighLeaveTime_us)
    i.SetMotor1ChannelBHighLeaveTime_us      0x0800597c   Section        0  motor1tim1pwm.o(i.SetMotor1ChannelBHighLeaveTime_us)
    i.SetMotor1ChannelCHighLeaveTime_us      0x080059cc   Section        0  motor1tim1pwm.o(i.SetMotor1ChannelCHighLeaveTime_us)
    i.SetMotor2ChannelAHighLeaveTime_us      0x08005a1c   Section        0  motor2tim3pwm.o(i.SetMotor2ChannelAHighLeaveTime_us)
    i.SetMotor2ChannelBHighLeaveTime_us      0x08005a6c   Section        0  motor2tim3pwm.o(i.SetMotor2ChannelBHighLeaveTime_us)
    i.SetMotor2ChannelCHighLeaveTime_us      0x08005abc   Section        0  motor2tim3pwm.o(i.SetMotor2ChannelCHighLeaveTime_us)
    i.SetPositionPIDEnable                   0x08005b0c   Section        0  positionpid.o(i.SetPositionPIDEnable)
    i.SetPositionPIDParams                   0x08005b18   Section        0  positionpid.o(i.SetPositionPIDParams)
    i.SetPositionPIDTar                      0x08005b26   Section        0  positionpid.o(i.SetPositionPIDTar)
    i.SetSpeedPIDEnable                      0x08005b2c   Section        0  speedpid.o(i.SetSpeedPIDEnable)
    i.SetSpeedPIDParams                      0x08005b38   Section        0  speedpid.o(i.SetSpeedPIDParams)
    i.SetSpeedPIDTar                         0x08005b46   Section        0  speedpid.o(i.SetSpeedPIDTar)
    i.SpeedPIDControl                        0x08005b4c   Section        0  speedpid.o(i.SpeedPIDControl)
    SpeedPIDControl                          0x08005b4d   Thumb Code   168  speedpid.o(i.SpeedPIDControl)
    i.SpeedPIDCycle                          0x08005bf8   Section        0  speedpid.o(i.SpeedPIDCycle)
    i.SvpwmContorol                          0x08005c40   Section        0  svpwm.o(i.SvpwmContorol)
    i.SvpwmGenerate                          0x08005c70   Section        0  svpwm.o(i.SvpwmGenerate)
    i.SvpwmSectorJudgment                    0x08005d90   Section        0  svpwm.o(i.SvpwmSectorJudgment)
    i.SysTick_Handler                        0x08005e68   Section        0  stm32f4xx_it.o(i.SysTick_Handler)
    i.SystemClock_Config                     0x08005ea8   Section        0  main.o(i.SystemClock_Config)
    i.SystemInit                             0x08005f5c   Section        0  system_stm32f4xx.o(i.SystemInit)
    i.TIM1_UP_TIM10_IRQHandler               0x08005f78   Section        0  stm32f4xx_it.o(i.TIM1_UP_TIM10_IRQHandler)
    i.TIM3_IRQHandler                        0x08005f98   Section        0  stm32f4xx_it.o(i.TIM3_IRQHandler)
    i.TIM_Base_SetConfig                     0x08005fb8   Section        0  stm32f4xx_hal_tim.o(i.TIM_Base_SetConfig)
    i.TIM_CCxChannelCmd                      0x08006090   Section        0  stm32f4xx_hal_tim.o(i.TIM_CCxChannelCmd)
    i.TIM_ETR_SetConfig                      0x080060b2   Section        0  stm32f4xx_hal_tim.o(i.TIM_ETR_SetConfig)
    i.TIM_OC1_SetConfig                      0x080060c8   Section        0  stm32f4xx_hal_tim.o(i.TIM_OC1_SetConfig)
    TIM_OC1_SetConfig                        0x080060c9   Thumb Code   104  stm32f4xx_hal_tim.o(i.TIM_OC1_SetConfig)
    i.TIM_OC2_SetConfig                      0x08006138   Section        0  stm32f4xx_hal_tim.o(i.TIM_OC2_SetConfig)
    i.TIM_OC3_SetConfig                      0x080061b4   Section        0  stm32f4xx_hal_tim.o(i.TIM_OC3_SetConfig)
    TIM_OC3_SetConfig                        0x080061b5   Thumb Code   112  stm32f4xx_hal_tim.o(i.TIM_OC3_SetConfig)
    i.TIM_OC4_SetConfig                      0x0800622c   Section        0  stm32f4xx_hal_tim.o(i.TIM_OC4_SetConfig)
    TIM_OC4_SetConfig                        0x0800622d   Thumb Code    74  stm32f4xx_hal_tim.o(i.TIM_OC4_SetConfig)
    i.TIM_SlaveTimer_SetConfig               0x08006280   Section        0  stm32f4xx_hal_tim.o(i.TIM_SlaveTimer_SetConfig)
    TIM_SlaveTimer_SetConfig                 0x08006281   Thumb Code   170  stm32f4xx_hal_tim.o(i.TIM_SlaveTimer_SetConfig)
    i.TIM_TI1_ConfigInputStage               0x0800632a   Section        0  stm32f4xx_hal_tim.o(i.TIM_TI1_ConfigInputStage)
    TIM_TI1_ConfigInputStage                 0x0800632b   Thumb Code    38  stm32f4xx_hal_tim.o(i.TIM_TI1_ConfigInputStage)
    i.TIM_TI2_ConfigInputStage               0x08006350   Section        0  stm32f4xx_hal_tim.o(i.TIM_TI2_ConfigInputStage)
    TIM_TI2_ConfigInputStage                 0x08006351   Thumb Code    40  stm32f4xx_hal_tim.o(i.TIM_TI2_ConfigInputStage)
    i.UART_DMAAbortOnError                   0x08006378   Section        0  stm32f4xx_hal_uart.o(i.UART_DMAAbortOnError)
    UART_DMAAbortOnError                     0x08006379   Thumb Code    20  stm32f4xx_hal_uart.o(i.UART_DMAAbortOnError)
    i.UART_EndRxTransfer                     0x0800638c   Section        0  stm32f4xx_hal_uart.o(i.UART_EndRxTransfer)
    UART_EndRxTransfer                       0x0800638d   Thumb Code    32  stm32f4xx_hal_uart.o(i.UART_EndRxTransfer)
    i.UART_EndTransmit_IT                    0x080063ac   Section        0  stm32f4xx_hal_uart.o(i.UART_EndTransmit_IT)
    UART_EndTransmit_IT                      0x080063ad   Thumb Code    32  stm32f4xx_hal_uart.o(i.UART_EndTransmit_IT)
    i.UART_Receive_IT                        0x080063cc   Section        0  stm32f4xx_hal_uart.o(i.UART_Receive_IT)
    UART_Receive_IT                          0x080063cd   Thumb Code   166  stm32f4xx_hal_uart.o(i.UART_Receive_IT)
    i.UART_SetConfig                         0x08006474   Section        0  stm32f4xx_hal_uart.o(i.UART_SetConfig)
    UART_SetConfig                           0x08006475   Thumb Code   992  stm32f4xx_hal_uart.o(i.UART_SetConfig)
    i.UART_Transmit_IT                       0x0800685c   Section        0  stm32f4xx_hal_uart.o(i.UART_Transmit_IT)
    UART_Transmit_IT                         0x0800685d   Thumb Code   104  stm32f4xx_hal_uart.o(i.UART_Transmit_IT)
    i.USART1_IRQHandler                      0x080068c4   Section        0  stm32f4xx_it.o(i.USART1_IRQHandler)
    i.Uart1_IT_Handle                        0x080068d8   Section        0  uart1.o(i.Uart1_IT_Handle)
    i.Uart1_Init                             0x08006950   Section        0  uart1.o(i.Uart1_Init)
    i.UsageFault_Handler                     0x08006968   Section        0  stm32f4xx_it.o(i.UsageFault_Handler)
    i._Init                                  0x0800696c   Section        0  segger_rtt.o(i._Init)
    _Init                                    0x0800696d   Thumb Code     2  segger_rtt.o(i._Init)
    i.__0printf                              0x08006970   Section        0  printfa.o(i.__0printf)
    i.__NVIC_GetPriorityGrouping             0x08006990   Section        0  stm32f4xx_hal_cortex.o(i.__NVIC_GetPriorityGrouping)
    __NVIC_GetPriorityGrouping               0x08006991   Thumb Code    10  stm32f4xx_hal_cortex.o(i.__NVIC_GetPriorityGrouping)
    i.__NVIC_SetPriority                     0x080069a0   Section        0  stm32f4xx_hal_cortex.o(i.__NVIC_SetPriority)
    __NVIC_SetPriority                       0x080069a1   Thumb Code    32  stm32f4xx_hal_cortex.o(i.__NVIC_SetPriority)
    i.__hardfp_fabs                          0x080069c8   Section        0  fabs.o(i.__hardfp_fabs)
    i.__scatterload_copy                     0x080069dc   Section       14  handlers.o(i.__scatterload_copy)
    i.__scatterload_null                     0x080069ea   Section        2  handlers.o(i.__scatterload_null)
    i.__scatterload_zeroinit                 0x080069ec   Section       14  handlers.o(i.__scatterload_zeroinit)
    i._fp_digits                             0x080069fc   Section        0  printfa.o(i._fp_digits)
    _fp_digits                               0x080069fd   Thumb Code   366  printfa.o(i._fp_digits)
    i._printf_core                           0x08006b80   Section        0  printfa.o(i._printf_core)
    _printf_core                             0x08006b81   Thumb Code  1704  printfa.o(i._printf_core)
    i._printf_post_padding                   0x08007234   Section        0  printfa.o(i._printf_post_padding)
    _printf_post_padding                     0x08007235   Thumb Code    36  printfa.o(i._printf_post_padding)
    i._printf_pre_padding                    0x08007258   Section        0  printfa.o(i._printf_pre_padding)
    _printf_pre_padding                      0x08007259   Thumb Code    46  printfa.o(i._printf_pre_padding)
    i.fputc                                  0x08007286   Section        0  segger_rtt.o(i.fputc)
    i.main                                   0x080072a0   Section        0  main.o(i.main)
    .constdata                               0x080072e4   Section        8  stm32f4xx_hal_dma.o(.constdata)
    flagBitshiftOffset                       0x080072e4   Data           8  stm32f4xx_hal_dma.o(.constdata)
    .constdata                               0x080072ec   Section       24  system_stm32f4xx.o(.constdata)
    .constdata                               0x08007304   Section     2052  arm_common_tables.o(.constdata)
    .conststring                             0x08007b08   Section        9  segger_rtt.o(.conststring)
    .data                                    0x20000000   Section        9  stm32f4xx_hal.o(.data)
    .data                                    0x2000000c   Section        4  system_stm32f4xx.o(.data)
    .data                                    0x20000010   Section        4  mcudrivermain.o(.data)
    last_exec_ms                             0x20000010   Data           4  mcudrivermain.o(.data)
    .data                                    0x20000014   Section        8  motor1encodernvic.o(.data)
    .data                                    0x2000001c   Section        8  motor1tim2encoder_1.o(.data)
    .data                                    0x20000024   Section        8  motor2encodernvic.o(.data)
    .data                                    0x2000002c   Section        8  motor2tim4encoder_1.o(.data)
    .data                                    0x20000034   Section        4  timer.o(.data)
    .data                                    0x20000038   Section       56  uart1.o(.data)
    .data                                    0x20000070   Section       32  perdrivermain.o(.data)
    last_exec_ms                             0x20000088   Data           4  perdrivermain.o(.data)
    last_exec_ms                             0x2000008c   Data           4  perdrivermain.o(.data)
    .data                                    0x20000090   Section       20  ledconfig.o(.data)
    .data                                    0x200000a4   Section       76  motor1svpwmconfig.o(.data)
    .data                                    0x200000f0   Section      156  motor1focconfig.o(.data)
    .data                                    0x2000018c   Section       68  motor1speedpidconfig.o(.data)
    angle                                    0x200001c8   Data           4  motor1speedpidconfig.o(.data)
    lastAngle                                0x200001cc   Data           4  motor1speedpidconfig.o(.data)
    .data                                    0x200001d0   Section       60  motor1positionpidconfig.o(.data)
    .data                                    0x2000020c   Section       76  motor2svpwmconfig.o(.data)
    .data                                    0x20000258   Section      156  motor2focconfig.o(.data)
    .data                                    0x200002f4   Section       68  motor2speedpidconfig.o(.data)
    angle                                    0x20000330   Data           4  motor2speedpidconfig.o(.data)
    lastAngle                                0x20000334   Data           4  motor2speedpidconfig.o(.data)
    .data                                    0x20000338   Section       60  motor2positionpidconfig.o(.data)
    .data                                    0x20000374   Section        4  ledcontrol.o(.data)
    .data                                    0x20000378   Section        4  positionpid.o(.data)
    .data                                    0x2000037c   Section        4  speedpid.o(.data)
    .data                                    0x20000380   Section      120  segger_rtt.o(.data)
    _SEGGER_RTT                              0x20000380   Data         120  segger_rtt.o(.data)
    .data                                    0x200003f8   Section        4  stdout.o(.data)
    .bss                                     0x200003fc   Section      336  adc.o(.bss)
    .bss                                     0x2000054c   Section       40  can.o(.bss)
    .bss                                     0x20000574   Section      176  spi.o(.bss)
    .bss                                     0x20000624   Section      256  tim.o(.bss)
    .bss                                     0x20000724   Section       64  usart.o(.bss)
    .bss                                     0x20000764   Section       36  motor1adc1.o(.bss)
    .bss                                     0x20000788   Section       36  motor2adc2.o(.bss)
    .bss                                     0x200007ac   Section     1000  uart1.o(.bss)
    .bss                                     0x20000b94   Section       52  can1.o(.bss)
    .bss                                     0x20000bc8   Section     1040  segger_rtt.o(.bss)
    _acUpBuffer                              0x20000bc8   Data        1024  segger_rtt.o(.bss)
    _acDownBuffer                            0x20000fc8   Data          16  segger_rtt.o(.bss)
    STACK                                    0x20000fd8   Section     1024  startup_stm32f407xx.o(STACK)

    Global Symbols

    Symbol Name                              Value     Ov Type        Size  Object(Section)

    BuildAttributes$$THM_ISAv4$E$P$D$K$B$S$7EM$VFPi3$EXTD16$VFPS$VFMA$PE$A:L22UL41UL21$X:L11$S22US41US21$IEEE1$IW$USESV6$~STKCKD$USESV7$~SHL$OTIME$ROPI$IEEEX$EBA8$MICROLIB$REQ8$PRES8$EABIv2 0x00000000   Number         0  anon$$obj.o ABSOLUTE
    __ARM_use_no_argv                        0x00000000   Number         0  main.o ABSOLUTE
    _printf_a                                0x00000000   Number         0  stubs.o ABSOLUTE
    _printf_c                                0x00000000   Number         0  stubs.o ABSOLUTE
    _printf_charcount                        0x00000000   Number         0  stubs.o ABSOLUTE
    _printf_d                                0x00000000   Number         0  stubs.o ABSOLUTE
    _printf_e                                0x00000000   Number         0  stubs.o ABSOLUTE
    _printf_f                                0x00000000   Number         0  stubs.o ABSOLUTE
    _printf_flags                            0x00000000   Number         0  stubs.o ABSOLUTE
    _printf_fp_dec                           0x00000000   Number         0  stubs.o ABSOLUTE
    _printf_fp_hex                           0x00000000   Number         0  stubs.o ABSOLUTE
    _printf_g                                0x00000000   Number         0  stubs.o ABSOLUTE
    _printf_i                                0x00000000   Number         0  stubs.o ABSOLUTE
    _printf_int_dec                          0x00000000   Number         0  stubs.o ABSOLUTE
    _printf_l                                0x00000000   Number         0  stubs.o ABSOLUTE
    _printf_lc                               0x00000000   Number         0  stubs.o ABSOLUTE
    _printf_ll                               0x00000000   Number         0  stubs.o ABSOLUTE
    _printf_lld                              0x00000000   Number         0  stubs.o ABSOLUTE
    _printf_lli                              0x00000000   Number         0  stubs.o ABSOLUTE
    _printf_llo                              0x00000000   Number         0  stubs.o ABSOLUTE
    _printf_llu                              0x00000000   Number         0  stubs.o ABSOLUTE
    _printf_llx                              0x00000000   Number         0  stubs.o ABSOLUTE
    _printf_longlong_dec                     0x00000000   Number         0  stubs.o ABSOLUTE
    _printf_longlong_hex                     0x00000000   Number         0  stubs.o ABSOLUTE
    _printf_longlong_oct                     0x00000000   Number         0  stubs.o ABSOLUTE
    _printf_ls                               0x00000000   Number         0  stubs.o ABSOLUTE
    _printf_mbtowc                           0x00000000   Number         0  stubs.o ABSOLUTE
    _printf_n                                0x00000000   Number         0  stubs.o ABSOLUTE
    _printf_o                                0x00000000   Number         0  stubs.o ABSOLUTE
    _printf_p                                0x00000000   Number         0  stubs.o ABSOLUTE
    _printf_percent                          0x00000000   Number         0  stubs.o ABSOLUTE
    _printf_pre_padding                      0x00000000   Number         0  stubs.o ABSOLUTE
    _printf_return_value                     0x00000000   Number         0  stubs.o ABSOLUTE
    _printf_s                                0x00000000   Number         0  stubs.o ABSOLUTE
    _printf_sizespec                         0x00000000   Number         0  stubs.o ABSOLUTE
    _printf_str                              0x00000000   Number         0  stubs.o ABSOLUTE
    _printf_truncate_signed                  0x00000000   Number         0  stubs.o ABSOLUTE
    _printf_truncate_unsigned                0x00000000   Number         0  stubs.o ABSOLUTE
    _printf_u                                0x00000000   Number         0  stubs.o ABSOLUTE
    _printf_wc                               0x00000000   Number         0  stubs.o ABSOLUTE
    _printf_wctomb                           0x00000000   Number         0  stubs.o ABSOLUTE
    _printf_widthprec                        0x00000000   Number         0  stubs.o ABSOLUTE
    _printf_x                                0x00000000   Number         0  stubs.o ABSOLUTE
    __arm_fini_                               - Undefined Weak Reference
    __cpp_initialize__aeabi_                  - Undefined Weak Reference
    __cxa_finalize                            - Undefined Weak Reference
    _clock_init                               - Undefined Weak Reference
    _microlib_exit                            - Undefined Weak Reference
    __Vectors_Size                           0x00000188   Number         0  startup_stm32f407xx.o ABSOLUTE
    __Vectors                                0x08000000   Data           4  startup_stm32f407xx.o(RESET)
    __Vectors_End                            0x08000188   Data           0  startup_stm32f407xx.o(RESET)
    __main                                   0x08000189   Thumb Code     0  entry.o(.ARM.Collect$$$$00000000)
    _main_stk                                0x08000189   Thumb Code     0  entry2.o(.ARM.Collect$$$$00000001)
    _main_scatterload                        0x0800018d   Thumb Code     0  entry5.o(.ARM.Collect$$$$00000004)
    __main_after_scatterload                 0x08000191   Thumb Code     0  entry5.o(.ARM.Collect$$$$00000004)
    _main_clock                              0x08000191   Thumb Code     0  entry7b.o(.ARM.Collect$$$$00000008)
    _main_cpp_init                           0x08000191   Thumb Code     0  entry8b.o(.ARM.Collect$$$$0000000A)
    _main_init                               0x08000191   Thumb Code     0  entry9a.o(.ARM.Collect$$$$0000000B)
    __rt_lib_shutdown_fini                   0x08000199   Thumb Code     0  entry12b.o(.ARM.Collect$$$$0000000E)
    __rt_final_cpp                           0x0800019d   Thumb Code     0  entry10a.o(.ARM.Collect$$$$0000000F)
    __rt_final_exit                          0x0800019d   Thumb Code     0  entry11a.o(.ARM.Collect$$$$00000011)
    Reset_Handler                            0x080001a1   Thumb Code     8  startup_stm32f407xx.o(.text)
    ADC_IRQHandler                           0x080001bb   Thumb Code     0  startup_stm32f407xx.o(.text)
    CAN1_RX1_IRQHandler                      0x080001bb   Thumb Code     0  startup_stm32f407xx.o(.text)
    CAN1_SCE_IRQHandler                      0x080001bb   Thumb Code     0  startup_stm32f407xx.o(.text)
    CAN1_TX_IRQHandler                       0x080001bb   Thumb Code     0  startup_stm32f407xx.o(.text)
    CAN2_RX0_IRQHandler                      0x080001bb   Thumb Code     0  startup_stm32f407xx.o(.text)
    CAN2_RX1_IRQHandler                      0x080001bb   Thumb Code     0  startup_stm32f407xx.o(.text)
    CAN2_SCE_IRQHandler                      0x080001bb   Thumb Code     0  startup_stm32f407xx.o(.text)
    CAN2_TX_IRQHandler                       0x080001bb   Thumb Code     0  startup_stm32f407xx.o(.text)
    DCMI_IRQHandler                          0x080001bb   Thumb Code     0  startup_stm32f407xx.o(.text)
    DMA1_Stream0_IRQHandler                  0x080001bb   Thumb Code     0  startup_stm32f407xx.o(.text)
    DMA1_Stream1_IRQHandler                  0x080001bb   Thumb Code     0  startup_stm32f407xx.o(.text)
    DMA1_Stream2_IRQHandler                  0x080001bb   Thumb Code     0  startup_stm32f407xx.o(.text)
    DMA1_Stream3_IRQHandler                  0x080001bb   Thumb Code     0  startup_stm32f407xx.o(.text)
    DMA1_Stream4_IRQHandler                  0x080001bb   Thumb Code     0  startup_stm32f407xx.o(.text)
    DMA1_Stream5_IRQHandler                  0x080001bb   Thumb Code     0  startup_stm32f407xx.o(.text)
    DMA1_Stream6_IRQHandler                  0x080001bb   Thumb Code     0  startup_stm32f407xx.o(.text)
    DMA1_Stream7_IRQHandler                  0x080001bb   Thumb Code     0  startup_stm32f407xx.o(.text)
    DMA2_Stream1_IRQHandler                  0x080001bb   Thumb Code     0  startup_stm32f407xx.o(.text)
    DMA2_Stream3_IRQHandler                  0x080001bb   Thumb Code     0  startup_stm32f407xx.o(.text)
    DMA2_Stream4_IRQHandler                  0x080001bb   Thumb Code     0  startup_stm32f407xx.o(.text)
    DMA2_Stream5_IRQHandler                  0x080001bb   Thumb Code     0  startup_stm32f407xx.o(.text)
    DMA2_Stream6_IRQHandler                  0x080001bb   Thumb Code     0  startup_stm32f407xx.o(.text)
    DMA2_Stream7_IRQHandler                  0x080001bb   Thumb Code     0  startup_stm32f407xx.o(.text)
    ETH_IRQHandler                           0x080001bb   Thumb Code     0  startup_stm32f407xx.o(.text)
    ETH_WKUP_IRQHandler                      0x080001bb   Thumb Code     0  startup_stm32f407xx.o(.text)
    EXTI0_IRQHandler                         0x080001bb   Thumb Code     0  startup_stm32f407xx.o(.text)
    EXTI1_IRQHandler                         0x080001bb   Thumb Code     0  startup_stm32f407xx.o(.text)
    EXTI3_IRQHandler                         0x080001bb   Thumb Code     0  startup_stm32f407xx.o(.text)
    EXTI4_IRQHandler                         0x080001bb   Thumb Code     0  startup_stm32f407xx.o(.text)
    EXTI9_5_IRQHandler                       0x080001bb   Thumb Code     0  startup_stm32f407xx.o(.text)
    FLASH_IRQHandler                         0x080001bb   Thumb Code     0  startup_stm32f407xx.o(.text)
    FMC_IRQHandler                           0x080001bb   Thumb Code     0  startup_stm32f407xx.o(.text)
    FPU_IRQHandler                           0x080001bb   Thumb Code     0  startup_stm32f407xx.o(.text)
    HASH_RNG_IRQHandler                      0x080001bb   Thumb Code     0  startup_stm32f407xx.o(.text)
    I2C1_ER_IRQHandler                       0x080001bb   Thumb Code     0  startup_stm32f407xx.o(.text)
    I2C1_EV_IRQHandler                       0x080001bb   Thumb Code     0  startup_stm32f407xx.o(.text)
    I2C2_ER_IRQHandler                       0x080001bb   Thumb Code     0  startup_stm32f407xx.o(.text)
    I2C2_EV_IRQHandler                       0x080001bb   Thumb Code     0  startup_stm32f407xx.o(.text)
    I2C3_ER_IRQHandler                       0x080001bb   Thumb Code     0  startup_stm32f407xx.o(.text)
    I2C3_EV_IRQHandler                       0x080001bb   Thumb Code     0  startup_stm32f407xx.o(.text)
    OTG_FS_IRQHandler                        0x080001bb   Thumb Code     0  startup_stm32f407xx.o(.text)
    OTG_FS_WKUP_IRQHandler                   0x080001bb   Thumb Code     0  startup_stm32f407xx.o(.text)
    OTG_HS_EP1_IN_IRQHandler                 0x080001bb   Thumb Code     0  startup_stm32f407xx.o(.text)
    OTG_HS_EP1_OUT_IRQHandler                0x080001bb   Thumb Code     0  startup_stm32f407xx.o(.text)
    OTG_HS_IRQHandler                        0x080001bb   Thumb Code     0  startup_stm32f407xx.o(.text)
    OTG_HS_WKUP_IRQHandler                   0x080001bb   Thumb Code     0  startup_stm32f407xx.o(.text)
    PVD_IRQHandler                           0x080001bb   Thumb Code     0  startup_stm32f407xx.o(.text)
    RCC_IRQHandler                           0x080001bb   Thumb Code     0  startup_stm32f407xx.o(.text)
    RTC_Alarm_IRQHandler                     0x080001bb   Thumb Code     0  startup_stm32f407xx.o(.text)
    RTC_WKUP_IRQHandler                      0x080001bb   Thumb Code     0  startup_stm32f407xx.o(.text)
    SDIO_IRQHandler                          0x080001bb   Thumb Code     0  startup_stm32f407xx.o(.text)
    SPI1_IRQHandler                          0x080001bb   Thumb Code     0  startup_stm32f407xx.o(.text)
    SPI2_IRQHandler                          0x080001bb   Thumb Code     0  startup_stm32f407xx.o(.text)
    SPI3_IRQHandler                          0x080001bb   Thumb Code     0  startup_stm32f407xx.o(.text)
    TAMP_STAMP_IRQHandler                    0x080001bb   Thumb Code     0  startup_stm32f407xx.o(.text)
    TIM1_BRK_TIM9_IRQHandler                 0x080001bb   Thumb Code     0  startup_stm32f407xx.o(.text)
    TIM1_CC_IRQHandler                       0x080001bb   Thumb Code     0  startup_stm32f407xx.o(.text)
    TIM1_TRG_COM_TIM11_IRQHandler            0x080001bb   Thumb Code     0  startup_stm32f407xx.o(.text)
    TIM2_IRQHandler                          0x080001bb   Thumb Code     0  startup_stm32f407xx.o(.text)
    TIM4_IRQHandler                          0x080001bb   Thumb Code     0  startup_stm32f407xx.o(.text)
    TIM5_IRQHandler                          0x080001bb   Thumb Code     0  startup_stm32f407xx.o(.text)
    TIM6_DAC_IRQHandler                      0x080001bb   Thumb Code     0  startup_stm32f407xx.o(.text)
    TIM7_IRQHandler                          0x080001bb   Thumb Code     0  startup_stm32f407xx.o(.text)
    TIM8_BRK_TIM12_IRQHandler                0x080001bb   Thumb Code     0  startup_stm32f407xx.o(.text)
    TIM8_CC_IRQHandler                       0x080001bb   Thumb Code     0  startup_stm32f407xx.o(.text)
    TIM8_TRG_COM_TIM14_IRQHandler            0x080001bb   Thumb Code     0  startup_stm32f407xx.o(.text)
    TIM8_UP_TIM13_IRQHandler                 0x080001bb   Thumb Code     0  startup_stm32f407xx.o(.text)
    UART4_IRQHandler                         0x080001bb   Thumb Code     0  startup_stm32f407xx.o(.text)
    UART5_IRQHandler                         0x080001bb   Thumb Code     0  startup_stm32f407xx.o(.text)
    USART2_IRQHandler                        0x080001bb   Thumb Code     0  startup_stm32f407xx.o(.text)
    USART3_IRQHandler                        0x080001bb   Thumb Code     0  startup_stm32f407xx.o(.text)
    USART6_IRQHandler                        0x080001bb   Thumb Code     0  startup_stm32f407xx.o(.text)
    WWDG_IRQHandler                          0x080001bb   Thumb Code     0  startup_stm32f407xx.o(.text)
    arm_cos_f32                              0x080001c5   Thumb Code   108  arm_cos_f32.o(.text)
    arm_sin_f32                              0x0800023d   Thumb Code   130  arm_sin_f32.o(.text)
    __aeabi_uldivmod                         0x080002d1   Thumb Code    98  uldiv.o(.text)
    __aeabi_memcpy                           0x08000333   Thumb Code    36  memcpya.o(.text)
    __aeabi_memcpy4                          0x08000333   Thumb Code     0  memcpya.o(.text)
    __aeabi_memcpy8                          0x08000333   Thumb Code     0  memcpya.o(.text)
    __aeabi_memset                           0x08000357   Thumb Code    14  memseta.o(.text)
    __aeabi_memset4                          0x08000357   Thumb Code     0  memseta.o(.text)
    __aeabi_memset8                          0x08000357   Thumb Code     0  memseta.o(.text)
    __aeabi_memclr                           0x08000365   Thumb Code     4  memseta.o(.text)
    __aeabi_memclr4                          0x08000365   Thumb Code     0  memseta.o(.text)
    __aeabi_memclr8                          0x08000365   Thumb Code     0  memseta.o(.text)
    _memset$wrapper                          0x08000369   Thumb Code    18  memseta.o(.text)
    __aeabi_dmul                             0x0800037b   Thumb Code   228  dmul.o(.text)
    __aeabi_i2d                              0x0800045f   Thumb Code    34  dflti.o(.text)
    __aeabi_f2d                              0x08000481   Thumb Code    38  f2d.o(.text)
    __aeabi_cdcmpeq                          0x080004a9   Thumb Code     0  cdcmple.o(.text)
    __aeabi_cdcmple                          0x080004a9   Thumb Code    48  cdcmple.o(.text)
    __aeabi_cdrcmple                         0x080004d9   Thumb Code    48  cdrcmple.o(.text)
    __aeabi_d2f                              0x08000509   Thumb Code    56  d2f.o(.text)
    __aeabi_uidiv                            0x08000541   Thumb Code     0  uidiv.o(.text)
    __aeabi_uidivmod                         0x08000541   Thumb Code    44  uidiv.o(.text)
    __aeabi_llsl                             0x0800056d   Thumb Code    30  llshl.o(.text)
    _ll_shift_l                              0x0800056d   Thumb Code     0  llshl.o(.text)
    __aeabi_llsr                             0x0800058b   Thumb Code    32  llushr.o(.text)
    _ll_ushift_r                             0x0800058b   Thumb Code     0  llushr.o(.text)
    __I$use$fp                               0x080005ab   Thumb Code     0  iusefp.o(.text)
    _float_round                             0x080005ab   Thumb Code    18  fepilogue.o(.text)
    _float_epilogue                          0x080005bd   Thumb Code    92  fepilogue.o(.text)
    _double_round                            0x08000619   Thumb Code    30  depilogue.o(.text)
    _double_epilogue                         0x08000637   Thumb Code   156  depilogue.o(.text)
    __aeabi_dadd                             0x080006d3   Thumb Code   322  dadd.o(.text)
    __aeabi_dsub                             0x08000815   Thumb Code     6  dadd.o(.text)
    __aeabi_drsub                            0x0800081b   Thumb Code     6  dadd.o(.text)
    __aeabi_ddiv                             0x08000821   Thumb Code   222  ddiv.o(.text)
    __aeabi_d2ulz                            0x080008ff   Thumb Code    48  dfixul.o(.text)
    __scatterload                            0x08000931   Thumb Code    28  init.o(.text)
    __scatterload_rt2                        0x08000931   Thumb Code     0  init.o(.text)
    __aeabi_lasr                             0x08000955   Thumb Code    36  llsshr.o(.text)
    _ll_sshift_r                             0x08000955   Thumb Code     0  llsshr.o(.text)
    __decompress                             0x08000979   Thumb Code     0  __dczerorl2.o(.text)
    __decompress1                            0x08000979   Thumb Code    86  __dczerorl2.o(.text)
    APPMain_Init                             0x08000bd5   Thumb Code    16  appmain.o(i.APPMain_Init)
    APPMain_Loop                             0x08000be5   Thumb Code    16  appmain.o(i.APPMain_Loop)
    AngleCalibrationFunc_Init                0x08000bf5   Thumb Code    12  anglecalibrationfunc.o(i.AngleCalibrationFunc_Init)
    BusFault_Handler                         0x08000c01   Thumb Code     4  stm32f4xx_it.o(i.BusFault_Handler)
    CAN1_RX0_IRQHandler                      0x08000c05   Thumb Code    10  stm32f4xx_it.o(i.CAN1_RX0_IRQHandler)
    CANSendData                              0x08000c49   Thumb Code    62  can1.o(i.CANSendData)
    CAN_Init                                 0x08000c91   Thumb Code    26  can1.o(i.CAN_Init)
    CAN_Test                                 0x08000cb1   Thumb Code    60  can1.o(i.CAN_Test)
    DMA2_Stream0_IRQHandler                  0x080010a9   Thumb Code    18  stm32f4xx_it.o(i.DMA2_Stream0_IRQHandler)
    DMA2_Stream2_IRQHandler                  0x080010c1   Thumb Code    18  stm32f4xx_it.o(i.DMA2_Stream2_IRQHandler)
    DebugMon_Handler                         0x080011e3   Thumb Code     2  stm32f4xx_it.o(i.DebugMon_Handler)
    EXTI15_10_IRQHandler                     0x080011e5   Thumb Code    16  stm32f4xx_it.o(i.EXTI15_10_IRQHandler)
    EXTI2_IRQHandler                         0x080011f5   Thumb Code    14  stm32f4xx_it.o(i.EXTI2_IRQHandler)
    Error_Handler                            0x08001203   Thumb Code     2  main.o(i.Error_Handler)
    FocContorl                               0x08001205   Thumb Code    78  foc.o(i.FocContorl)
    FunctionMain_Init                        0x08001253   Thumb Code     8  functionmain.o(i.FunctionMain_Init)
    FunctionMain_Loop                        0x0800125b   Thumb Code     2  functionmain.o(i.FunctionMain_Loop)
    GetFocAngle                              0x08001299   Thumb Code     6  foc.o(i.GetFocAngle)
    GetMotor1ADC1PhaseXValue                 0x080012a1   Thumb Code    76  motor1adc1.o(i.GetMotor1ADC1PhaseXValue)
    GetMotor1PreCurrent                      0x080012f9   Thumb Code   184  motor1focconfig.o(i.GetMotor1PreCurrent)
    GetMotor2ADC2PhaseXValue                 0x080013c1   Thumb Code    76  motor2adc2.o(i.GetMotor2ADC2PhaseXValue)
    GetMotor2PreCurrent                      0x08001419   Thumb Code   184  motor2focconfig.o(i.GetMotor2PreCurrent)
    GetSVPWMSector                           0x080014e1   Thumb Code     8  svpwm.o(i.GetSVPWMSector)
    GetVectorDuration                        0x080014e9   Thumb Code   646  svpwm.o(i.GetVectorDuration)
    HAL_ADC_ConfigChannel                    0x08001779   Thumb Code   380  stm32f4xx_hal_adc.o(i.HAL_ADC_ConfigChannel)
    HAL_ADC_ConvCpltCallback                 0x08001905   Thumb Code     2  stm32f4xx_hal_adc.o(i.HAL_ADC_ConvCpltCallback)
    HAL_ADC_ConvHalfCpltCallback             0x08001907   Thumb Code     2  stm32f4xx_hal_adc.o(i.HAL_ADC_ConvHalfCpltCallback)
    HAL_ADC_ErrorCallback                    0x08001909   Thumb Code     2  stm32f4xx_hal_adc.o(i.HAL_ADC_ErrorCallback)
    HAL_ADC_Init                             0x0800190d   Thumb Code   100  stm32f4xx_hal_adc.o(i.HAL_ADC_Init)
    HAL_ADC_MspInit                          0x08001975   Thumb Code   392  adc.o(i.HAL_ADC_MspInit)
    HAL_ADC_Start_DMA                        0x08001b1d   Thumb Code   352  stm32f4xx_hal_adc.o(i.HAL_ADC_Start_DMA)
    HAL_CAN_ActivateNotification             0x08001ca1   Thumb Code    42  stm32f4xx_hal_can.o(i.HAL_CAN_ActivateNotification)
    HAL_CAN_AddTxMessage                     0x08001ccb   Thumb Code   342  stm32f4xx_hal_can.o(i.HAL_CAN_AddTxMessage)
    HAL_CAN_ConfigFilter                     0x08001e21   Thumb Code   286  stm32f4xx_hal_can.o(i.HAL_CAN_ConfigFilter)
    HAL_CAN_ErrorCallback                    0x08001f45   Thumb Code     2  stm32f4xx_hal_can.o(i.HAL_CAN_ErrorCallback)
    HAL_CAN_GetRxMessage                     0x08001f47   Thumb Code   378  stm32f4xx_hal_can.o(i.HAL_CAN_GetRxMessage)
    HAL_CAN_GetTxMailboxesFreeLevel          0x080020c1   Thumb Code    54  stm32f4xx_hal_can.o(i.HAL_CAN_GetTxMailboxesFreeLevel)
    HAL_CAN_IRQHandler                       0x080020f7   Thumb Code   590  stm32f4xx_hal_can.o(i.HAL_CAN_IRQHandler)
    HAL_CAN_Init                             0x08002345   Thumb Code   372  stm32f4xx_hal_can.o(i.HAL_CAN_Init)
    HAL_CAN_MspInit                          0x080024b9   Thumb Code   140  can.o(i.HAL_CAN_MspInit)
    HAL_CAN_RxFifo0FullCallback              0x08002551   Thumb Code     2  stm32f4xx_hal_can.o(i.HAL_CAN_RxFifo0FullCallback)
    HAL_CAN_RxFifo0MsgPendingCallback        0x08002555   Thumb Code    64  can1.o(i.HAL_CAN_RxFifo0MsgPendingCallback)
    HAL_CAN_RxFifo1FullCallback              0x080025bd   Thumb Code     2  stm32f4xx_hal_can.o(i.HAL_CAN_RxFifo1FullCallback)
    HAL_CAN_RxFifo1MsgPendingCallback        0x080025bf   Thumb Code     2  stm32f4xx_hal_can.o(i.HAL_CAN_RxFifo1MsgPendingCallback)
    HAL_CAN_SleepCallback                    0x080025c1   Thumb Code     2  stm32f4xx_hal_can.o(i.HAL_CAN_SleepCallback)
    HAL_CAN_Start                            0x080025c3   Thumb Code    94  stm32f4xx_hal_can.o(i.HAL_CAN_Start)
    HAL_CAN_TxMailbox0AbortCallback          0x08002621   Thumb Code     2  stm32f4xx_hal_can.o(i.HAL_CAN_TxMailbox0AbortCallback)
    HAL_CAN_TxMailbox0CompleteCallback       0x08002623   Thumb Code     2  stm32f4xx_hal_can.o(i.HAL_CAN_TxMailbox0CompleteCallback)
    HAL_CAN_TxMailbox1AbortCallback          0x08002625   Thumb Code     2  stm32f4xx_hal_can.o(i.HAL_CAN_TxMailbox1AbortCallback)
    HAL_CAN_TxMailbox1CompleteCallback       0x08002627   Thumb Code     2  stm32f4xx_hal_can.o(i.HAL_CAN_TxMailbox1CompleteCallback)
    HAL_CAN_TxMailbox2AbortCallback          0x08002629   Thumb Code     2  stm32f4xx_hal_can.o(i.HAL_CAN_TxMailbox2AbortCallback)
    HAL_CAN_TxMailbox2CompleteCallback       0x0800262b   Thumb Code     2  stm32f4xx_hal_can.o(i.HAL_CAN_TxMailbox2CompleteCallback)
    HAL_CAN_WakeUpFromRxMsgCallback          0x0800262d   Thumb Code     2  stm32f4xx_hal_can.o(i.HAL_CAN_WakeUpFromRxMsgCallback)
    HAL_DMA_Abort_IT                         0x0800262f   Thumb Code    40  stm32f4xx_hal_dma.o(i.HAL_DMA_Abort_IT)
    HAL_DMA_IRQHandler                       0x08002659   Thumb Code   570  stm32f4xx_hal_dma.o(i.HAL_DMA_IRQHandler)
    HAL_DMA_Init                             0x08002899   Thumb Code   232  stm32f4xx_hal_dma.o(i.HAL_DMA_Init)
    HAL_DMA_Start_IT                         0x08002985   Thumb Code   146  stm32f4xx_hal_dma.o(i.HAL_DMA_Start_IT)
    HAL_Delay                                0x08002a19   Thumb Code    36  stm32f4xx_hal.o(i.HAL_Delay)
    HAL_GPIO_EXTI_Callback                   0x08002a41   Thumb Code     2  stm32f4xx_hal_gpio.o(i.HAL_GPIO_EXTI_Callback)
    HAL_GPIO_EXTI_IRQHandler                 0x08002a45   Thumb Code    24  stm32f4xx_hal_gpio.o(i.HAL_GPIO_EXTI_IRQHandler)
    HAL_GPIO_Init                            0x08002a61   Thumb Code   466  stm32f4xx_hal_gpio.o(i.HAL_GPIO_Init)
    HAL_GPIO_WritePin                        0x08002c61   Thumb Code    12  stm32f4xx_hal_gpio.o(i.HAL_GPIO_WritePin)
    HAL_GetTick                              0x08002c6d   Thumb Code     6  stm32f4xx_hal.o(i.HAL_GetTick)
    HAL_IncTick                              0x08002c79   Thumb Code    16  stm32f4xx_hal.o(i.HAL_IncTick)
    HAL_Init                                 0x08002c91   Thumb Code    54  stm32f4xx_hal.o(i.HAL_Init)
    HAL_InitTick                             0x08002ccd   Thumb Code    64  stm32f4xx_hal.o(i.HAL_InitTick)
    HAL_MspInit                              0x08002d19   Thumb Code    68  stm32f4xx_hal_msp.o(i.HAL_MspInit)
    HAL_NVIC_EnableIRQ                       0x08002d61   Thumb Code    32  stm32f4xx_hal_cortex.o(i.HAL_NVIC_EnableIRQ)
    HAL_NVIC_SetPriority                     0x08002d81   Thumb Code   124  stm32f4xx_hal_cortex.o(i.HAL_NVIC_SetPriority)
    HAL_NVIC_SetPriorityGrouping             0x08002dfd   Thumb Code    32  stm32f4xx_hal_cortex.o(i.HAL_NVIC_SetPriorityGrouping)
    HAL_RCC_ClockConfig                      0x08002e25   Thumb Code   368  stm32f4xx_hal_rcc.o(i.HAL_RCC_ClockConfig)
    HAL_RCC_GetHCLKFreq                      0x08002fa9   Thumb Code     6  stm32f4xx_hal_rcc.o(i.HAL_RCC_GetHCLKFreq)
    HAL_RCC_GetPCLK1Freq                     0x08002fb5   Thumb Code    22  stm32f4xx_hal_rcc.o(i.HAL_RCC_GetPCLK1Freq)
    HAL_RCC_GetPCLK2Freq                     0x08002fd5   Thumb Code    22  stm32f4xx_hal_rcc.o(i.HAL_RCC_GetPCLK2Freq)
    HAL_RCC_GetSysClockFreq                  0x08002ff5   Thumb Code   162  stm32f4xx_hal_rcc.o(i.HAL_RCC_GetSysClockFreq)
    HAL_RCC_OscConfig                        0x080030a5   Thumb Code  1152  stm32f4xx_hal_rcc.o(i.HAL_RCC_OscConfig)
    HAL_SPI_Init                             0x0800352d   Thumb Code   140  stm32f4xx_hal_spi.o(i.HAL_SPI_Init)
    HAL_SPI_MspInit                          0x080035b9   Thumb Code   234  spi.o(i.HAL_SPI_MspInit)
    HAL_SYSTICK_Config                       0x080036b9   Thumb Code    52  stm32f4xx_hal_cortex.o(i.HAL_SYSTICK_Config)
    HAL_TIMEx_BreakCallback                  0x080036ed   Thumb Code     2  stm32f4xx_hal_tim_ex.o(i.HAL_TIMEx_BreakCallback)
    HAL_TIMEx_CommutCallback                 0x080036ef   Thumb Code     2  stm32f4xx_hal_tim_ex.o(i.HAL_TIMEx_CommutCallback)
    HAL_TIMEx_ConfigBreakDeadTime            0x080036f1   Thumb Code   116  stm32f4xx_hal_tim_ex.o(i.HAL_TIMEx_ConfigBreakDeadTime)
    HAL_TIMEx_MasterConfigSynchronization    0x08003765   Thumb Code   150  stm32f4xx_hal_tim_ex.o(i.HAL_TIMEx_MasterConfigSynchronization)
    HAL_TIM_Base_Init                        0x08003819   Thumb Code    52  stm32f4xx_hal_tim.o(i.HAL_TIM_Base_Init)
    HAL_TIM_Base_MspInit                     0x0800384d   Thumb Code    62  tim.o(i.HAL_TIM_Base_MspInit)
    HAL_TIM_Base_Start_IT                    0x08003895   Thumb Code    42  stm32f4xx_hal_tim.o(i.HAL_TIM_Base_Start_IT)
    HAL_TIM_Encoder_Init                     0x080038bf   Thumb Code   174  stm32f4xx_hal_tim.o(i.HAL_TIM_Encoder_Init)
    HAL_TIM_Encoder_MspInit                  0x0800396d   Thumb Code   226  tim.o(i.HAL_TIM_Encoder_MspInit)
    HAL_TIM_Encoder_Start                    0x08003a61   Thumb Code    78  stm32f4xx_hal_tim.o(i.HAL_TIM_Encoder_Start)
    HAL_TIM_IC_CaptureCallback               0x08003aaf   Thumb Code     2  stm32f4xx_hal_tim.o(i.HAL_TIM_IC_CaptureCallback)
    HAL_TIM_IRQHandler                       0x08003ab1   Thumb Code   406  stm32f4xx_hal_tim.o(i.HAL_TIM_IRQHandler)
    HAL_TIM_MspPostInit                      0x08003c49   Thumb Code   156  tim.o(i.HAL_TIM_MspPostInit)
    HAL_TIM_OC_DelayElapsedCallback          0x08003cf9   Thumb Code     2  stm32f4xx_hal_tim.o(i.HAL_TIM_OC_DelayElapsedCallback)
    HAL_TIM_PWM_ConfigChannel                0x08003cfb   Thumb Code   264  stm32f4xx_hal_tim.o(i.HAL_TIM_PWM_ConfigChannel)
    HAL_TIM_PWM_Init                         0x08003e03   Thumb Code    52  stm32f4xx_hal_tim.o(i.HAL_TIM_PWM_Init)
    HAL_TIM_PWM_MspInit                      0x08003e39   Thumb Code    62  tim.o(i.HAL_TIM_PWM_MspInit)
    HAL_TIM_PWM_PulseFinishedCallback        0x08003e81   Thumb Code     2  stm32f4xx_hal_tim.o(i.HAL_TIM_PWM_PulseFinishedCallback)
    HAL_TIM_PWM_Start                        0x08003e85   Thumb Code    80  stm32f4xx_hal_tim.o(i.HAL_TIM_PWM_Start)
    HAL_TIM_PeriodElapsedCallback            0x08003edd   Thumb Code     2  stm32f4xx_hal_tim.o(i.HAL_TIM_PeriodElapsedCallback)
    HAL_TIM_SlaveConfigSynchro               0x08003edf   Thumb Code   108  stm32f4xx_hal_tim.o(i.HAL_TIM_SlaveConfigSynchro)
    HAL_TIM_TriggerCallback                  0x08003f4b   Thumb Code     2  stm32f4xx_hal_tim.o(i.HAL_TIM_TriggerCallback)
    HAL_UART_ErrorCallback                   0x08003f4d   Thumb Code     2  stm32f4xx_hal_uart.o(i.HAL_UART_ErrorCallback)
    HAL_UART_IRQHandler                      0x08003f51   Thumb Code   336  stm32f4xx_hal_uart.o(i.HAL_UART_IRQHandler)
    HAL_UART_Init                            0x080040a5   Thumb Code   114  stm32f4xx_hal_uart.o(i.HAL_UART_Init)
    HAL_UART_MspInit                         0x08004119   Thumb Code   140  usart.o(i.HAL_UART_MspInit)
    HAL_UART_RxCpltCallback                  0x080041b1   Thumb Code     2  stm32f4xx_hal_uart.o(i.HAL_UART_RxCpltCallback)
    HAL_UART_TxCpltCallback                  0x080041b3   Thumb Code     2  stm32f4xx_hal_uart.o(i.HAL_UART_TxCpltCallback)
    HardFault_Handler                        0x080041b5   Thumb Code     4  stm32f4xx_it.o(i.HardFault_Handler)
    LEDConfigSetSysLedStatus                 0x080041b9   Thumb Code    30  ledconfig.o(i.LEDConfigSetSysLedStatus)
    LEDConfig_Init                           0x080041dd   Thumb Code    14  ledconfig.o(i.LEDConfig_Init)
    LEDConfig_Loop                           0x080041ed   Thumb Code    10  ledconfig.o(i.LEDConfig_Loop)
    LEDRunCycle                              0x080041fd   Thumb Code    70  ledcontrol.o(i.LEDRunCycle)
    LEDToggle                                0x0800424d   Thumb Code    24  ledcontrol.o(i.LEDToggle)
    MCUDriverMain_Init                       0x08004265   Thumb Code    38  mcudrivermain.o(i.MCUDriverMain_Init)
    MCUDriverMain_Loop                       0x0800428d   Thumb Code    28  mcudrivermain.o(i.MCUDriverMain_Loop)
    MX_ADC1_Init                             0x080042b1   Thumb Code   148  adc.o(i.MX_ADC1_Init)
    MX_ADC2_Init                             0x08004351   Thumb Code   148  adc.o(i.MX_ADC2_Init)
    MX_CAN1_Init                             0x080043f1   Thumb Code    58  can.o(i.MX_CAN1_Init)
    MX_DMA_Init                              0x08004435   Thumb Code    68  dma.o(i.MX_DMA_Init)
    MX_GPIO_Init                             0x0800447d   Thumb Code   462  gpio.o(i.MX_GPIO_Init)
    MX_SPI1_Init                             0x08004669   Thumb Code    66  spi.o(i.MX_SPI1_Init)
    MX_SPI2_Init                             0x080046b5   Thumb Code    66  spi.o(i.MX_SPI2_Init)
    MX_TIM1_Init                             0x08004701   Thumb Code   202  tim.o(i.MX_TIM1_Init)
    MX_TIM2_Init                             0x080047d5   Thumb Code   116  tim.o(i.MX_TIM2_Init)
    MX_TIM3_Init                             0x0800484d   Thumb Code   192  tim.o(i.MX_TIM3_Init)
    MX_TIM4_Init                             0x08004915   Thumb Code   114  tim.o(i.MX_TIM4_Init)
    MX_USART1_UART_Init                      0x08004991   Thumb Code    46  usart.o(i.MX_USART1_UART_Init)
    MemManage_Handler                        0x080049c9   Thumb Code     4  stm32f4xx_it.o(i.MemManage_Handler)
    Motor1ADC1StartOnce                      0x080049cd   Thumb Code    14  motor1adc1.o(i.Motor1ADC1StartOnce)
    Motor1ADC1ValueStorage                   0x080049e5   Thumb Code    34  motor1adc1.o(i.Motor1ADC1ValueStorage)
    Motor1AngleCalibration                   0x08004a0d   Thumb Code    88  anglecalibrationfunc.o(i.Motor1AngleCalibration)
    Motor1EncoderZEXITCallback               0x08004a71   Thumb Code    32  motor1encodernvic.o(i.Motor1EncoderZEXITCallback)
    Motor1EncoderZ_Init                      0x08004a95   Thumb Code    10  motor1encodernvic.o(i.Motor1EncoderZ_Init)
    Motor1FOCConfig_Init                     0x08004aa5   Thumb Code    48  motor1focconfig.o(i.Motor1FOCConfig_Init)
    Motor1FocControl                         0x08004ae5   Thumb Code    10  motor1focconfig.o(i.Motor1FocControl)
    Motor1GetAngle                           0x08004af5   Thumb Code    10  motor1focconfig.o(i.Motor1GetAngle)
    Motor1GetPosition                        0x08004b05   Thumb Code    16  motor1positionpidconfig.o(i.Motor1GetPosition)
    Motor1GetPreSpeed                        0x08004b19   Thumb Code   108  motor1speedpidconfig.o(i.Motor1GetPreSpeed)
    Motor1GetSVPWMSector                     0x08004b99   Thumb Code    10  motor1svpwmconfig.o(i.Motor1GetSVPWMSector)
    Motor1PositionPIDConfigSetTar            0x08004ba9   Thumb Code    26  motor1positionpidconfig.o(i.Motor1PositionPIDConfigSetTar)
    Motor1PositionPIDConfig_Init             0x08004bc9   Thumb Code    40  motor1positionpidconfig.o(i.Motor1PositionPIDConfig_Init)
    Motor1PositionPIDConfig_Loop             0x08004bfd   Thumb Code    10  motor1positionpidconfig.o(i.Motor1PositionPIDConfig_Loop)
    Motor1SetCurrent                         0x08004c0d   Thumb Code    28  motor1speedpidconfig.o(i.Motor1SetCurrent)
    Motor1SetEnable                          0x08004c2d   Thumb Code    18  motor1gpio.o(i.Motor1SetEnable)
    Motor1SetPosition                        0x08004c45   Thumb Code    24  motor1positionpidconfig.o(i.Motor1SetPosition)
    Motor1SetTarIDIQ                         0x08004c5d   Thumb Code    34  motor1focconfig.o(i.Motor1SetTarIDIQ)
    Motor1SpeedPIDConfigSetTar               0x08004c85   Thumb Code    26  motor1speedpidconfig.o(i.Motor1SpeedPIDConfigSetTar)
    Motor1SpeedPIDConfig_Init                0x08004ca5   Thumb Code    42  motor1speedpidconfig.o(i.Motor1SpeedPIDConfig_Init)
    Motor1SpeedPIDConfig_Loop                0x08004cdd   Thumb Code    10  motor1speedpidconfig.o(i.Motor1SpeedPIDConfig_Loop)
    Motor1SvpwmGenerate                      0x08004ced   Thumb Code    34  motor1svpwmconfig.o(i.Motor1SvpwmGenerate)
    Motor1TIM1_Init                          0x08004d15   Thumb Code    78  motor1tim1pwm.o(i.Motor1TIM1_Init)
    Motor1TIM2EncoderGetAngle                0x08004d6d   Thumb Code    74  motor1tim2encoder_1.o(i.Motor1TIM2EncoderGetAngle)
    Motor1TIM2EncoderGetCnt                  0x08004dc5   Thumb Code    78  motor1tim2encoder_1.o(i.Motor1TIM2EncoderGetCnt)
    Motor1TIM2EncoderInit                    0x08004e1d   Thumb Code    38  motor1tim2encoder_1.o(i.Motor1TIM2EncoderInit)
    Motor1TIM2EncoderReset                   0x08004e51   Thumb Code    28  motor1tim2encoder_1.o(i.Motor1TIM2EncoderReset)
    Motor1TIM2EncoderSetCnt                  0x08004e79   Thumb Code     6  motor1tim2encoder_1.o(i.Motor1TIM2EncoderSetCnt)
    Motor2ADC2StartOnce                      0x08004e85   Thumb Code    14  motor2adc2.o(i.Motor2ADC2StartOnce)
    Motor2ADC2ValueStorage                   0x08004e9d   Thumb Code    34  motor2adc2.o(i.Motor2ADC2ValueStorage)
    Motor2AngleCalibration                   0x08004ec5   Thumb Code    88  anglecalibrationfunc.o(i.Motor2AngleCalibration)
    Motor2EncoderZEXITCallback               0x08004f29   Thumb Code    32  motor2encodernvic.o(i.Motor2EncoderZEXITCallback)
    Motor2EncoderZ_Init                      0x08004f4d   Thumb Code    10  motor2encodernvic.o(i.Motor2EncoderZ_Init)
    Motor2FOCConfig_Init                     0x08004f5d   Thumb Code    48  motor2focconfig.o(i.Motor2FOCConfig_Init)
    Motor2FocControl                         0x08004f9d   Thumb Code    10  motor2focconfig.o(i.Motor2FocControl)
    Motor2GetAngle                           0x08004fad   Thumb Code    10  motor2focconfig.o(i.Motor2GetAngle)
    Motor2GetPosition                        0x08004fbd   Thumb Code    16  motor2positionpidconfig.o(i.Motor2GetPosition)
    Motor2GetPreSpeed                        0x08004fd1   Thumb Code   108  motor2speedpidconfig.o(i.Motor2GetPreSpeed)
    Motor2GetSVPWMSector                     0x08005051   Thumb Code    10  motor2svpwmconfig.o(i.Motor2GetSVPWMSector)
    Motor2PositionPIDConfigSetTar            0x08005061   Thumb Code    26  motor2positionpidconfig.o(i.Motor2PositionPIDConfigSetTar)
    Motor2PositionPIDConfig_Init             0x08005081   Thumb Code    40  motor2positionpidconfig.o(i.Motor2PositionPIDConfig_Init)
    Motor2PositionPIDConfig_Loop             0x080050b5   Thumb Code    10  motor2positionpidconfig.o(i.Motor2PositionPIDConfig_Loop)
    Motor2SetCurrent                         0x080050c5   Thumb Code    28  motor2speedpidconfig.o(i.Motor2SetCurrent)
    Motor2SetEnable                          0x080050e5   Thumb Code    18  motor2gpio.o(i.Motor2SetEnable)
    Motor2SetPosition                        0x080050fd   Thumb Code    24  motor2positionpidconfig.o(i.Motor2SetPosition)
    Motor2SetTarIDIQ                         0x08005115   Thumb Code    34  motor2focconfig.o(i.Motor2SetTarIDIQ)
    Motor2SpeedPIDConfigSetTar               0x0800513d   Thumb Code    26  motor2speedpidconfig.o(i.Motor2SpeedPIDConfigSetTar)
    Motor2SpeedPIDConfig_Init                0x0800515d   Thumb Code    42  motor2speedpidconfig.o(i.Motor2SpeedPIDConfig_Init)
    Motor2SpeedPIDConfig_Loop                0x08005195   Thumb Code    10  motor2speedpidconfig.o(i.Motor2SpeedPIDConfig_Loop)
    Motor2SvpwmGenerate                      0x080051a5   Thumb Code    34  motor2svpwmconfig.o(i.Motor2SvpwmGenerate)
    Motor2TIM3_Init                          0x080051cd   Thumb Code    78  motor2tim3pwm.o(i.Motor2TIM3_Init)
    Motor2TIM4EncoderGetAngle                0x08005225   Thumb Code    74  motor2tim4encoder_1.o(i.Motor2TIM4EncoderGetAngle)
    Motor2TIM4EncoderGetCnt                  0x0800527d   Thumb Code    78  motor2tim4encoder_1.o(i.Motor2TIM4EncoderGetCnt)
    Motor2TIM4EncoderInit                    0x080052d5   Thumb Code    38  motor2tim4encoder_1.o(i.Motor2TIM4EncoderInit)
    Motor2TIM4EncoderReset                   0x08005309   Thumb Code    28  motor2tim4encoder_1.o(i.Motor2TIM4EncoderReset)
    Motor2TIM4EncoderSetCnt                  0x08005331   Thumb Code     6  motor2tim4encoder_1.o(i.Motor2TIM4EncoderSetCnt)
    NMI_Handler                              0x0800533d   Thumb Code     2  stm32f4xx_it.o(i.NMI_Handler)
    PendSV_Handler                           0x0800540f   Thumb Code     2  stm32f4xx_it.o(i.PendSV_Handler)
    PerDriverMain_Init                       0x08005411   Thumb Code    32  perdrivermain.o(i.PerDriverMain_Init)
    PerDriverMain_Loop                       0x08005431   Thumb Code   150  perdrivermain.o(i.PerDriverMain_Loop)
    PositionPIDCycle                         0x080055fd   Thumb Code    64  positionpid.o(i.PositionPIDCycle)
    RingBuffer_De                            0x08005645   Thumb Code    64  ringbuffer.o(i.RingBuffer_De)
    RingBuffer_En                            0x08005685   Thumb Code    64  ringbuffer.o(i.RingBuffer_En)
    RingBuffer_IsEmpty                       0x080056c5   Thumb Code    18  ringbuffer.o(i.RingBuffer_IsEmpty)
    RingBuffer_IsFull                        0x080056d7   Thumb Code    30  ringbuffer.o(i.RingBuffer_IsFull)
    SEGGER_RTT_Write                         0x080056f5   Thumb Code   364  segger_rtt.o(i.SEGGER_RTT_Write)
    SVC_Handler                              0x08005865   Thumb Code     2  stm32f4xx_it.o(i.SVC_Handler)
    SetCurrentPIDParams                      0x08005867   Thumb Code    34  foc.o(i.SetCurrentPIDParams)
    SetCurrentPIDTar                         0x08005889   Thumb Code    10  foc.o(i.SetCurrentPIDTar)
    SetFocEnable                             0x08005893   Thumb Code    18  foc.o(i.SetFocEnable)
    SetLEDFlashing                           0x080058a5   Thumb Code    10  ledcontrol.o(i.SetLEDFlashing)
    SetLEDOFF                                0x080058af   Thumb Code    26  ledcontrol.o(i.SetLEDOFF)
    SetLEDON                                 0x080058c9   Thumb Code    16  ledcontrol.o(i.SetLEDON)
    SetLedLeave                              0x080058d9   Thumb Code    16  ledgpio.o(i.SetLedLeave)
    SetLedStatus                             0x080058ed   Thumb Code    62  ledcontrol.o(i.SetLedStatus)
    SetMotor1ChannelAHighLeaveTime_us        0x0800592d   Thumb Code    64  motor1tim1pwm.o(i.SetMotor1ChannelAHighLeaveTime_us)
    SetMotor1ChannelBHighLeaveTime_us        0x0800597d   Thumb Code    64  motor1tim1pwm.o(i.SetMotor1ChannelBHighLeaveTime_us)
    SetMotor1ChannelCHighLeaveTime_us        0x080059cd   Thumb Code    64  motor1tim1pwm.o(i.SetMotor1ChannelCHighLeaveTime_us)
    SetMotor2ChannelAHighLeaveTime_us        0x08005a1d   Thumb Code    64  motor2tim3pwm.o(i.SetMotor2ChannelAHighLeaveTime_us)
    SetMotor2ChannelBHighLeaveTime_us        0x08005a6d   Thumb Code    64  motor2tim3pwm.o(i.SetMotor2ChannelBHighLeaveTime_us)
    SetMotor2ChannelCHighLeaveTime_us        0x08005abd   Thumb Code    64  motor2tim3pwm.o(i.SetMotor2ChannelCHighLeaveTime_us)
    SetPositionPIDEnable                     0x08005b0d   Thumb Code    12  positionpid.o(i.SetPositionPIDEnable)
    SetPositionPIDParams                     0x08005b19   Thumb Code    14  positionpid.o(i.SetPositionPIDParams)
    SetPositionPIDTar                        0x08005b27   Thumb Code     6  positionpid.o(i.SetPositionPIDTar)
    SetSpeedPIDEnable                        0x08005b2d   Thumb Code    12  speedpid.o(i.SetSpeedPIDEnable)
    SetSpeedPIDParams                        0x08005b39   Thumb Code    14  speedpid.o(i.SetSpeedPIDParams)
    SetSpeedPIDTar                           0x08005b47   Thumb Code     6  speedpid.o(i.SetSpeedPIDTar)
    SpeedPIDCycle                            0x08005bf9   Thumb Code    64  speedpid.o(i.SpeedPIDCycle)
    SvpwmContorol                            0x08005c41   Thumb Code    48  svpwm.o(i.SvpwmContorol)
    SvpwmGenerate                            0x08005c71   Thumb Code   288  svpwm.o(i.SvpwmGenerate)
    SvpwmSectorJudgment                      0x08005d91   Thumb Code   210  svpwm.o(i.SvpwmSectorJudgment)
    SysTick_Handler                          0x08005e69   Thumb Code    48  stm32f4xx_it.o(i.SysTick_Handler)
    SystemClock_Config                       0x08005ea9   Thumb Code   170  main.o(i.SystemClock_Config)
    SystemInit                               0x08005f5d   Thumb Code    24  system_stm32f4xx.o(i.SystemInit)
    TIM1_UP_TIM10_IRQHandler                 0x08005f79   Thumb Code    28  stm32f4xx_it.o(i.TIM1_UP_TIM10_IRQHandler)
    TIM3_IRQHandler                          0x08005f99   Thumb Code    28  stm32f4xx_it.o(i.TIM3_IRQHandler)
    TIM_Base_SetConfig                       0x08005fb9   Thumb Code   170  stm32f4xx_hal_tim.o(i.TIM_Base_SetConfig)
    TIM_CCxChannelCmd                        0x08006091   Thumb Code    34  stm32f4xx_hal_tim.o(i.TIM_CCxChannelCmd)
    TIM_ETR_SetConfig                        0x080060b3   Thumb Code    22  stm32f4xx_hal_tim.o(i.TIM_ETR_SetConfig)
    TIM_OC2_SetConfig                        0x08006139   Thumb Code   114  stm32f4xx_hal_tim.o(i.TIM_OC2_SetConfig)
    USART1_IRQHandler                        0x080068c5   Thumb Code    14  stm32f4xx_it.o(i.USART1_IRQHandler)
    Uart1_IT_Handle                          0x080068d9   Thumb Code   108  uart1.o(i.Uart1_IT_Handle)
    Uart1_Init                               0x08006951   Thumb Code    18  uart1.o(i.Uart1_Init)
    UsageFault_Handler                       0x08006969   Thumb Code     4  stm32f4xx_it.o(i.UsageFault_Handler)
    __0printf                                0x08006971   Thumb Code    22  printfa.o(i.__0printf)
    __1printf                                0x08006971   Thumb Code     0  printfa.o(i.__0printf)
    __2printf                                0x08006971   Thumb Code     0  printfa.o(i.__0printf)
    __c89printf                              0x08006971   Thumb Code     0  printfa.o(i.__0printf)
    printf                                   0x08006971   Thumb Code     0  printfa.o(i.__0printf)
    __hardfp_fabs                            0x080069c9   Thumb Code    20  fabs.o(i.__hardfp_fabs)
    __scatterload_copy                       0x080069dd   Thumb Code    14  handlers.o(i.__scatterload_copy)
    __scatterload_null                       0x080069eb   Thumb Code     2  handlers.o(i.__scatterload_null)
    __scatterload_zeroinit                   0x080069ed   Thumb Code    14  handlers.o(i.__scatterload_zeroinit)
    fputc                                    0x08007287   Thumb Code    26  segger_rtt.o(i.fputc)
    main                                     0x080072a1   Thumb Code    68  main.o(i.main)
    AHBPrescTable                            0x080072ec   Data          16  system_stm32f4xx.o(.constdata)
    APBPrescTable                            0x080072fc   Data           8  system_stm32f4xx.o(.constdata)
    sinTable_f32                             0x08007304   Data        2052  arm_common_tables.o(.constdata)
    Region$$Table$$Base                      0x08007b14   Number         0  anon$$obj.o(Region$$Table)
    Region$$Table$$Limit                     0x08007b34   Number         0  anon$$obj.o(Region$$Table)
    uwTick                                   0x20000000   Data           4  stm32f4xx_hal.o(.data)
    uwTickPrio                               0x20000004   Data           4  stm32f4xx_hal.o(.data)
    uwTickFreq                               0x20000008   Data           1  stm32f4xx_hal.o(.data)
    SystemCoreClock                          0x2000000c   Data           4  system_stm32f4xx.o(.data)
    gMotor1EncoderCal                        0x20000014   Data           8  motor1encodernvic.o(.data)
    gMotor1Timer2Encoder                     0x2000001c   Data           8  motor1tim2encoder_1.o(.data)
    gMotor2EncoderCal                        0x20000024   Data           8  motor2encodernvic.o(.data)
    gMotor2Timer4Encoder                     0x2000002c   Data           8  motor2tim4encoder_1.o(.data)
    gMS_TimeCNT                              0x20000034   Data           4  timer.o(.data)
    gUart1_RX_RingBuffer                     0x20000038   Data          28  uart1.o(.data)
    gUart1_TX_RingBuffer                     0x20000054   Data          28  uart1.o(.data)
    currentflag                              0x20000070   Data           1  perdrivermain.o(.data)
    speedflag                                0x20000071   Data           1  perdrivermain.o(.data)
    positionflag                             0x20000072   Data           1  perdrivermain.o(.data)
    angle                                    0x20000074   Data           4  perdrivermain.o(.data)
    star                                     0x20000078   Data           4  perdrivermain.o(.data)
    spre                                     0x2000007c   Data           4  perdrivermain.o(.data)
    ptar                                     0x20000080   Data           4  perdrivermain.o(.data)
    ppre                                     0x20000084   Data           4  perdrivermain.o(.data)
    gSysLed                                  0x20000090   Data          20  ledconfig.o(.data)
    gMotor1                                  0x200000a4   Data          76  motor1svpwmconfig.o(.data)
    gMotor1FOC                               0x200000f0   Data         156  motor1focconfig.o(.data)
    gMotor1SpeedPID                          0x2000018c   Data          60  motor1speedpidconfig.o(.data)
    gMotor1PositionPID                       0x200001d0   Data          60  motor1positionpidconfig.o(.data)
    gMotor2                                  0x2000020c   Data          76  motor2svpwmconfig.o(.data)
    gMotor2FOC                               0x20000258   Data         156  motor2focconfig.o(.data)
    gMotor2SpeedPID                          0x200002f4   Data          60  motor2speedpidconfig.o(.data)
    gMotor2PositionPID                       0x20000338   Data          60  motor2positionpidconfig.o(.data)
    gLED_TimeCNT                             0x20000374   Data           4  ledcontrol.o(.data)
    gPositionPID_TimeCNT                     0x20000378   Data           4  positionpid.o(.data)
    gSpeedPID_TimeCNT                        0x2000037c   Data           4  speedpid.o(.data)
    __stdout                                 0x200003f8   Data           4  stdout.o(.data)
    hadc1                                    0x200003fc   Data          72  adc.o(.bss)
    hadc2                                    0x20000444   Data          72  adc.o(.bss)
    hdma_adc1                                0x2000048c   Data          96  adc.o(.bss)
    hdma_adc2                                0x200004ec   Data          96  adc.o(.bss)
    hcan1                                    0x2000054c   Data          40  can.o(.bss)
    hspi1                                    0x20000574   Data          88  spi.o(.bss)
    hspi2                                    0x200005cc   Data          88  spi.o(.bss)
    htim1                                    0x20000624   Data          64  tim.o(.bss)
    htim2                                    0x20000664   Data          64  tim.o(.bss)
    htim3                                    0x200006a4   Data          64  tim.o(.bss)
    htim4                                    0x200006e4   Data          64  tim.o(.bss)
    huart1                                   0x20000724   Data          64  usart.o(.bss)
    gMotor1ADC1                              0x20000764   Data          36  motor1adc1.o(.bss)
    gMotor2ADC2                              0x20000788   Data          36  motor2adc2.o(.bss)
    gUart1_RX_RingBufferBuffer               0x200007ac   Data         500  uart1.o(.bss)
    gUart1_TX_RingBufferBuffer               0x200009a0   Data         500  uart1.o(.bss)
    gTxData                                  0x20000b94   Data          24  can1.o(.bss)
    gRxData                                  0x20000bac   Data          28  can1.o(.bss)
    __initial_sp                             0x200013d8   Data           0  startup_stm32f407xx.o(STACK)



==============================================================================

Memory Map of the image

  Image Entry point : 0x08000189

  Load Region LR_IROM1 (Base: 0x08000000, Size: 0x00007f30, Max: 0x00080000, ABSOLUTE, COMPRESSED[0x00007c08])

    Execution Region ER_IROM1 (Exec base: 0x08000000, Load base: 0x08000000, Size: 0x00007b34, Max: 0x00080000, ABSOLUTE)

    Exec Addr    Load Addr    Size         Type   Attr      Idx    E Section Name        Object

    0x08000000   0x08000000   0x00000188   Data   RO            3    RESET               startup_stm32f407xx.o
    0x08000188   0x08000188   0x00000000   Code   RO         5996  * .ARM.Collect$$$$00000000  mc_w.l(entry.o)
    0x08000188   0x08000188   0x00000004   Code   RO         6282    .ARM.Collect$$$$00000001  mc_w.l(entry2.o)
    0x0800018c   0x0800018c   0x00000004   Code   RO         6285    .ARM.Collect$$$$00000004  mc_w.l(entry5.o)
    0x08000190   0x08000190   0x00000000   Code   RO         6287    .ARM.Collect$$$$00000008  mc_w.l(entry7b.o)
    0x08000190   0x08000190   0x00000000   Code   RO         6289    .ARM.Collect$$$$0000000A  mc_w.l(entry8b.o)
    0x08000190   0x08000190   0x00000008   Code   RO         6290    .ARM.Collect$$$$0000000B  mc_w.l(entry9a.o)
    0x08000198   0x08000198   0x00000004   Code   RO         6297    .ARM.Collect$$$$0000000E  mc_w.l(entry12b.o)
    0x0800019c   0x0800019c   0x00000000   Code   RO         6292    .ARM.Collect$$$$0000000F  mc_w.l(entry10a.o)
    0x0800019c   0x0800019c   0x00000000   Code   RO         6294    .ARM.Collect$$$$00000011  mc_w.l(entry11a.o)
    0x0800019c   0x0800019c   0x00000004   Code   RO         6283    .ARM.Collect$$$$00002712  mc_w.l(entry2.o)
    0x080001a0   0x080001a0   0x00000024   Code   RO            4    .text               startup_stm32f407xx.o
    0x080001c4   0x080001c4   0x00000078   Code   RO         5837    .text               arm_cortexM4lf_math.lib(arm_cos_f32.o)
    0x0800023c   0x0800023c   0x00000094   Code   RO         5887    .text               arm_cortexM4lf_math.lib(arm_sin_f32.o)
    0x080002d0   0x080002d0   0x00000062   Code   RO         5999    .text               mc_w.l(uldiv.o)
    0x08000332   0x08000332   0x00000024   Code   RO         6001    .text               mc_w.l(memcpya.o)
    0x08000356   0x08000356   0x00000024   Code   RO         6003    .text               mc_w.l(memseta.o)
    0x0800037a   0x0800037a   0x000000e4   Code   RO         6268    .text               mf_w.l(dmul.o)
    0x0800045e   0x0800045e   0x00000022   Code   RO         6272    .text               mf_w.l(dflti.o)
    0x08000480   0x08000480   0x00000026   Code   RO         6274    .text               mf_w.l(f2d.o)
    0x080004a6   0x080004a6   0x00000002   PAD
    0x080004a8   0x080004a8   0x00000030   Code   RO         6276    .text               mf_w.l(cdcmple.o)
    0x080004d8   0x080004d8   0x00000030   Code   RO         6278    .text               mf_w.l(cdrcmple.o)
    0x08000508   0x08000508   0x00000038   Code   RO         6280    .text               mf_w.l(d2f.o)
    0x08000540   0x08000540   0x0000002c   Code   RO         6299    .text               mc_w.l(uidiv.o)
    0x0800056c   0x0800056c   0x0000001e   Code   RO         6301    .text               mc_w.l(llshl.o)
    0x0800058a   0x0800058a   0x00000020   Code   RO         6303    .text               mc_w.l(llushr.o)
    0x080005aa   0x080005aa   0x00000000   Code   RO         6305    .text               mc_w.l(iusefp.o)
    0x080005aa   0x080005aa   0x0000006e   Code   RO         6306    .text               mf_w.l(fepilogue.o)
    0x08000618   0x08000618   0x000000ba   Code   RO         6308    .text               mf_w.l(depilogue.o)
    0x080006d2   0x080006d2   0x0000014e   Code   RO         6310    .text               mf_w.l(dadd.o)
    0x08000820   0x08000820   0x000000de   Code   RO         6312    .text               mf_w.l(ddiv.o)
    0x080008fe   0x080008fe   0x00000030   Code   RO         6314    .text               mf_w.l(dfixul.o)
    0x0800092e   0x0800092e   0x00000002   PAD
    0x08000930   0x08000930   0x00000024   Code   RO         6316    .text               mc_w.l(init.o)
    0x08000954   0x08000954   0x00000024   Code   RO         6318    .text               mc_w.l(llsshr.o)
    0x08000978   0x08000978   0x00000056   Code   RO         6328    .text               mc_w.l(__dczerorl2.o)
    0x080009ce   0x080009ce   0x0000007e   Code   RO          693    i.ADC_DMAConvCplt   stm32f4xx_hal_adc.o
    0x08000a4c   0x08000a4c   0x0000001a   Code   RO          694    i.ADC_DMAError      stm32f4xx_hal_adc.o
    0x08000a66   0x08000a66   0x0000000e   Code   RO          695    i.ADC_DMAHalfConvCplt  stm32f4xx_hal_adc.o
    0x08000a74   0x08000a74   0x00000160   Code   RO          696    i.ADC_Init          stm32f4xx_hal_adc.o
    0x08000bd4   0x08000bd4   0x00000010   Code   RO         4010    i.APPMain_Init      appmain.o
    0x08000be4   0x08000be4   0x00000010   Code   RO         4011    i.APPMain_Loop      appmain.o
    0x08000bf4   0x08000bf4   0x0000000c   Code   RO         4068    i.AngleCalibrationFunc_Init  anglecalibrationfunc.o
    0x08000c00   0x08000c00   0x00000004   Code   RO          512    i.BusFault_Handler  stm32f4xx_it.o
    0x08000c04   0x08000c04   0x00000010   Code   RO          513    i.CAN1_RX0_IRQHandler  stm32f4xx_it.o
    0x08000c14   0x08000c14   0x00000034   Code   RO         4777    i.CANFilterSet      can1.o
    0x08000c48   0x08000c48   0x00000048   Code   RO         4779    i.CANSendData       can1.o
    0x08000c90   0x08000c90   0x00000020   Code   RO         4780    i.CAN_Init          can1.o
    0x08000cb0   0x08000cb0   0x0000003c   Code   RO         4781    i.CAN_Test          can1.o
    0x08000cec   0x08000cec   0x0000002c   Code   RO         5299    i.ClarkeTransform   foc.o
    0x08000d18   0x08000d18   0x0000015a   Code   RO         5300    i.CurrentPIControlID  foc.o
    0x08000e72   0x08000e72   0x0000015e   Code   RO         5301    i.CurrentPIControlIQ  foc.o
    0x08000fd0   0x08000fd0   0x000000d8   Code   RO         5302    i.CurrentReconstruction  foc.o
    0x080010a8   0x080010a8   0x00000018   Code   RO          514    i.DMA2_Stream0_IRQHandler  stm32f4xx_it.o
    0x080010c0   0x080010c0   0x00000018   Code   RO          515    i.DMA2_Stream2_IRQHandler  stm32f4xx_it.o
    0x080010d8   0x080010d8   0x00000034   Code   RO         1472    i.DMA_CalcBaseAndBitshift  stm32f4xx_hal_dma.o
    0x0800110c   0x0800110c   0x000000aa   Code   RO         1473    i.DMA_CheckFifoParam  stm32f4xx_hal_dma.o
    0x080011b6   0x080011b6   0x0000002c   Code   RO         1474    i.DMA_SetConfig     stm32f4xx_hal_dma.o
    0x080011e2   0x080011e2   0x00000002   Code   RO          516    i.DebugMon_Handler  stm32f4xx_it.o
    0x080011e4   0x080011e4   0x00000010   Code   RO          517    i.EXTI15_10_IRQHandler  stm32f4xx_it.o
    0x080011f4   0x080011f4   0x0000000e   Code   RO          518    i.EXTI2_IRQHandler  stm32f4xx_it.o
    0x08001202   0x08001202   0x00000002   Code   RO           13    i.Error_Handler     main.o
    0x08001204   0x08001204   0x0000004e   Code   RO         5304    i.FocContorl        foc.o
    0x08001252   0x08001252   0x00000008   Code   RO         4041    i.FunctionMain_Init  functionmain.o
    0x0800125a   0x0800125a   0x00000002   Code   RO         4042    i.FunctionMain_Loop  functionmain.o
    0x0800125c   0x0800125c   0x0000003c   Code   RO         5305    i.GetElectricalAngle  foc.o
    0x08001298   0x08001298   0x00000006   Code   RO         5306    i.GetFocAngle       foc.o
    0x0800129e   0x0800129e   0x00000002   PAD
    0x080012a0   0x080012a0   0x00000058   Code   RO         4167    i.GetMotor1ADC1PhaseXValue  motor1adc1.o
    0x080012f8   0x080012f8   0x000000c8   Code   RO         4959    i.GetMotor1PreCurrent  motor1focconfig.o
    0x080013c0   0x080013c0   0x00000058   Code   RO         4435    i.GetMotor2ADC2PhaseXValue  motor2adc2.o
    0x08001418   0x08001418   0x000000c8   Code   RO         5143    i.GetMotor2PreCurrent  motor2focconfig.o
    0x080014e0   0x080014e0   0x00000008   Code   RO         5570    i.GetSVPWMSector    svpwm.o
    0x080014e8   0x080014e8   0x00000290   Code   RO         5571    i.GetVectorDuration  svpwm.o
    0x08001778   0x08001778   0x0000018c   Code   RO          698    i.HAL_ADC_ConfigChannel  stm32f4xx_hal_adc.o
    0x08001904   0x08001904   0x00000002   Code   RO          699    i.HAL_ADC_ConvCpltCallback  stm32f4xx_hal_adc.o
    0x08001906   0x08001906   0x00000002   Code   RO          700    i.HAL_ADC_ConvHalfCpltCallback  stm32f4xx_hal_adc.o
    0x08001908   0x08001908   0x00000002   Code   RO          702    i.HAL_ADC_ErrorCallback  stm32f4xx_hal_adc.o
    0x0800190a   0x0800190a   0x00000002   PAD
    0x0800190c   0x0800190c   0x00000068   Code   RO          707    i.HAL_ADC_Init      stm32f4xx_hal_adc.o
    0x08001974   0x08001974   0x000001a8   Code   RO          219    i.HAL_ADC_MspInit   adc.o
    0x08001b1c   0x08001b1c   0x00000184   Code   RO          714    i.HAL_ADC_Start_DMA  stm32f4xx_hal_adc.o
    0x08001ca0   0x08001ca0   0x0000002a   Code   RO         2151    i.HAL_CAN_ActivateNotification  stm32f4xx_hal_can.o
    0x08001cca   0x08001cca   0x00000156   Code   RO         2152    i.HAL_CAN_AddTxMessage  stm32f4xx_hal_can.o
    0x08001e20   0x08001e20   0x00000124   Code   RO         2153    i.HAL_CAN_ConfigFilter  stm32f4xx_hal_can.o
    0x08001f44   0x08001f44   0x00000002   Code   RO         2156    i.HAL_CAN_ErrorCallback  stm32f4xx_hal_can.o
    0x08001f46   0x08001f46   0x0000017a   Code   RO         2159    i.HAL_CAN_GetRxMessage  stm32f4xx_hal_can.o
    0x080020c0   0x080020c0   0x00000036   Code   RO         2161    i.HAL_CAN_GetTxMailboxesFreeLevel  stm32f4xx_hal_can.o
    0x080020f6   0x080020f6   0x0000024e   Code   RO         2163    i.HAL_CAN_IRQHandler  stm32f4xx_hal_can.o
    0x08002344   0x08002344   0x00000174   Code   RO         2164    i.HAL_CAN_Init      stm32f4xx_hal_can.o
    0x080024b8   0x080024b8   0x00000098   Code   RO          267    i.HAL_CAN_MspInit   can.o
    0x08002550   0x08002550   0x00000002   Code   RO         2171    i.HAL_CAN_RxFifo0FullCallback  stm32f4xx_hal_can.o
    0x08002552   0x08002552   0x00000002   PAD
    0x08002554   0x08002554   0x00000068   Code   RO         4782    i.HAL_CAN_RxFifo0MsgPendingCallback  can1.o
    0x080025bc   0x080025bc   0x00000002   Code   RO         2173    i.HAL_CAN_RxFifo1FullCallback  stm32f4xx_hal_can.o
    0x080025be   0x080025be   0x00000002   Code   RO         2174    i.HAL_CAN_RxFifo1MsgPendingCallback  stm32f4xx_hal_can.o
    0x080025c0   0x080025c0   0x00000002   Code   RO         2175    i.HAL_CAN_SleepCallback  stm32f4xx_hal_can.o
    0x080025c2   0x080025c2   0x0000005e   Code   RO         2176    i.HAL_CAN_Start     stm32f4xx_hal_can.o
    0x08002620   0x08002620   0x00000002   Code   RO         2178    i.HAL_CAN_TxMailbox0AbortCallback  stm32f4xx_hal_can.o
    0x08002622   0x08002622   0x00000002   Code   RO         2179    i.HAL_CAN_TxMailbox0CompleteCallback  stm32f4xx_hal_can.o
    0x08002624   0x08002624   0x00000002   Code   RO         2180    i.HAL_CAN_TxMailbox1AbortCallback  stm32f4xx_hal_can.o
    0x08002626   0x08002626   0x00000002   Code   RO         2181    i.HAL_CAN_TxMailbox1CompleteCallback  stm32f4xx_hal_can.o
    0x08002628   0x08002628   0x00000002   Code   RO         2182    i.HAL_CAN_TxMailbox2AbortCallback  stm32f4xx_hal_can.o
    0x0800262a   0x0800262a   0x00000002   Code   RO         2183    i.HAL_CAN_TxMailbox2CompleteCallback  stm32f4xx_hal_can.o
    0x0800262c   0x0800262c   0x00000002   Code   RO         2185    i.HAL_CAN_WakeUpFromRxMsgCallback  stm32f4xx_hal_can.o
    0x0800262e   0x0800262e   0x00000028   Code   RO         1476    i.HAL_DMA_Abort_IT  stm32f4xx_hal_dma.o
    0x08002656   0x08002656   0x00000002   PAD
    0x08002658   0x08002658   0x00000240   Code   RO         1480    i.HAL_DMA_IRQHandler  stm32f4xx_hal_dma.o
    0x08002898   0x08002898   0x000000ec   Code   RO         1481    i.HAL_DMA_Init      stm32f4xx_hal_dma.o
    0x08002984   0x08002984   0x00000092   Code   RO         1485    i.HAL_DMA_Start_IT  stm32f4xx_hal_dma.o
    0x08002a16   0x08002a16   0x00000002   PAD
    0x08002a18   0x08002a18   0x00000028   Code   RO         1899    i.HAL_Delay         stm32f4xx_hal.o
    0x08002a40   0x08002a40   0x00000002   Code   RO         1366    i.HAL_GPIO_EXTI_Callback  stm32f4xx_hal_gpio.o
    0x08002a42   0x08002a42   0x00000002   PAD
    0x08002a44   0x08002a44   0x0000001c   Code   RO         1367    i.HAL_GPIO_EXTI_IRQHandler  stm32f4xx_hal_gpio.o
    0x08002a60   0x08002a60   0x00000200   Code   RO         1368    i.HAL_GPIO_Init     stm32f4xx_hal_gpio.o
    0x08002c60   0x08002c60   0x0000000c   Code   RO         1372    i.HAL_GPIO_WritePin  stm32f4xx_hal_gpio.o
    0x08002c6c   0x08002c6c   0x0000000c   Code   RO         1905    i.HAL_GetTick       stm32f4xx_hal.o
    0x08002c78   0x08002c78   0x00000018   Code   RO         1911    i.HAL_IncTick       stm32f4xx_hal.o
    0x08002c90   0x08002c90   0x0000003c   Code   RO         1912    i.HAL_Init          stm32f4xx_hal.o
    0x08002ccc   0x08002ccc   0x0000004c   Code   RO         1913    i.HAL_InitTick      stm32f4xx_hal.o
    0x08002d18   0x08002d18   0x00000048   Code   RO          669    i.HAL_MspInit       stm32f4xx_hal_msp.o
    0x08002d60   0x08002d60   0x00000020   Code   RO         1757    i.HAL_NVIC_EnableIRQ  stm32f4xx_hal_cortex.o
    0x08002d80   0x08002d80   0x0000007c   Code   RO         1763    i.HAL_NVIC_SetPriority  stm32f4xx_hal_cortex.o
    0x08002dfc   0x08002dfc   0x00000028   Code   RO         1764    i.HAL_NVIC_SetPriorityGrouping  stm32f4xx_hal_cortex.o
    0x08002e24   0x08002e24   0x00000184   Code   RO          969    i.HAL_RCC_ClockConfig  stm32f4xx_hal_rcc.o
    0x08002fa8   0x08002fa8   0x0000000c   Code   RO          974    i.HAL_RCC_GetHCLKFreq  stm32f4xx_hal_rcc.o
    0x08002fb4   0x08002fb4   0x00000020   Code   RO          976    i.HAL_RCC_GetPCLK1Freq  stm32f4xx_hal_rcc.o
    0x08002fd4   0x08002fd4   0x00000020   Code   RO          977    i.HAL_RCC_GetPCLK2Freq  stm32f4xx_hal_rcc.o
    0x08002ff4   0x08002ff4   0x000000b0   Code   RO          978    i.HAL_RCC_GetSysClockFreq  stm32f4xx_hal_rcc.o
    0x080030a4   0x080030a4   0x00000488   Code   RO          981    i.HAL_RCC_OscConfig  stm32f4xx_hal_rcc.o
    0x0800352c   0x0800352c   0x0000008c   Code   RO         2395    i.HAL_SPI_Init      stm32f4xx_hal_spi.o
    0x080035b8   0x080035b8   0x00000100   Code   RO          333    i.HAL_SPI_MspInit   spi.o
    0x080036b8   0x080036b8   0x00000034   Code   RO         1768    i.HAL_SYSTICK_Config  stm32f4xx_hal_cortex.o
    0x080036ec   0x080036ec   0x00000002   Code   RO         3394    i.HAL_TIMEx_BreakCallback  stm32f4xx_hal_tim_ex.o
    0x080036ee   0x080036ee   0x00000002   Code   RO         3395    i.HAL_TIMEx_CommutCallback  stm32f4xx_hal_tim_ex.o
    0x080036f0   0x080036f0   0x00000074   Code   RO         3397    i.HAL_TIMEx_ConfigBreakDeadTime  stm32f4xx_hal_tim_ex.o
    0x08003764   0x08003764   0x000000b4   Code   RO         3412    i.HAL_TIMEx_MasterConfigSynchronization  stm32f4xx_hal_tim_ex.o
    0x08003818   0x08003818   0x00000034   Code   RO         2708    i.HAL_TIM_Base_Init  stm32f4xx_hal_tim.o
    0x0800384c   0x0800384c   0x00000048   Code   RO          381    i.HAL_TIM_Base_MspInit  tim.o
    0x08003894   0x08003894   0x0000002a   Code   RO         2713    i.HAL_TIM_Base_Start_IT  stm32f4xx_hal_tim.o
    0x080038be   0x080038be   0x000000ae   Code   RO         2726    i.HAL_TIM_Encoder_Init  stm32f4xx_hal_tim.o
    0x0800396c   0x0800396c   0x000000f4   Code   RO          383    i.HAL_TIM_Encoder_MspInit  tim.o
    0x08003a60   0x08003a60   0x0000004e   Code   RO         2729    i.HAL_TIM_Encoder_Start  stm32f4xx_hal_tim.o
    0x08003aae   0x08003aae   0x00000002   Code   RO         2737    i.HAL_TIM_IC_CaptureCallback  stm32f4xx_hal_tim.o
    0x08003ab0   0x08003ab0   0x00000196   Code   RO         2751    i.HAL_TIM_IRQHandler  stm32f4xx_hal_tim.o
    0x08003c46   0x08003c46   0x00000002   PAD
    0x08003c48   0x08003c48   0x000000b0   Code   RO          384    i.HAL_TIM_MspPostInit  tim.o
    0x08003cf8   0x08003cf8   0x00000002   Code   RO         2754    i.HAL_TIM_OC_DelayElapsedCallback  stm32f4xx_hal_tim.o
    0x08003cfa   0x08003cfa   0x00000108   Code   RO         2775    i.HAL_TIM_PWM_ConfigChannel  stm32f4xx_hal_tim.o
    0x08003e02   0x08003e02   0x00000034   Code   RO         2778    i.HAL_TIM_PWM_Init  stm32f4xx_hal_tim.o
    0x08003e36   0x08003e36   0x00000002   PAD
    0x08003e38   0x08003e38   0x00000048   Code   RO          386    i.HAL_TIM_PWM_MspInit  tim.o
    0x08003e80   0x08003e80   0x00000002   Code   RO         2781    i.HAL_TIM_PWM_PulseFinishedCallback  stm32f4xx_hal_tim.o
    0x08003e82   0x08003e82   0x00000002   PAD
    0x08003e84   0x08003e84   0x00000058   Code   RO         2783    i.HAL_TIM_PWM_Start  stm32f4xx_hal_tim.o
    0x08003edc   0x08003edc   0x00000002   Code   RO         2789    i.HAL_TIM_PeriodElapsedCallback  stm32f4xx_hal_tim.o
    0x08003ede   0x08003ede   0x0000006c   Code   RO         2792    i.HAL_TIM_SlaveConfigSynchro  stm32f4xx_hal_tim.o
    0x08003f4a   0x08003f4a   0x00000002   Code   RO         2794    i.HAL_TIM_TriggerCallback  stm32f4xx_hal_tim.o
    0x08003f4c   0x08003f4c   0x00000002   Code   RO         3666    i.HAL_UART_ErrorCallback  stm32f4xx_hal_uart.o
    0x08003f4e   0x08003f4e   0x00000002   PAD
    0x08003f50   0x08003f50   0x00000154   Code   RO         3669    i.HAL_UART_IRQHandler  stm32f4xx_hal_uart.o
    0x080040a4   0x080040a4   0x00000072   Code   RO         3670    i.HAL_UART_Init     stm32f4xx_hal_uart.o
    0x08004116   0x08004116   0x00000002   PAD
    0x08004118   0x08004118   0x00000098   Code   RO          471    i.HAL_UART_MspInit  usart.o
    0x080041b0   0x080041b0   0x00000002   Code   RO         3676    i.HAL_UART_RxCpltCallback  stm32f4xx_hal_uart.o
    0x080041b2   0x080041b2   0x00000002   Code   RO         3681    i.HAL_UART_TxCpltCallback  stm32f4xx_hal_uart.o
    0x080041b4   0x080041b4   0x00000004   Code   RO          519    i.HardFault_Handler  stm32f4xx_it.o
    0x080041b8   0x080041b8   0x00000024   Code   RO         4886    i.LEDConfigSetSysLedStatus  ledconfig.o
    0x080041dc   0x080041dc   0x0000000e   Code   RO         4887    i.LEDConfig_Init    ledconfig.o
    0x080041ea   0x080041ea   0x00000002   PAD
    0x080041ec   0x080041ec   0x00000010   Code   RO         4888    i.LEDConfig_Loop    ledconfig.o
    0x080041fc   0x080041fc   0x00000050   Code   RO         5413    i.LEDRunCycle       ledcontrol.o
    0x0800424c   0x0800424c   0x00000018   Code   RO         5414    i.LEDToggle         ledcontrol.o
    0x08004264   0x08004264   0x00000026   Code   RO         4138    i.MCUDriverMain_Init  mcudrivermain.o
    0x0800428a   0x0800428a   0x00000002   PAD
    0x0800428c   0x0800428c   0x00000024   Code   RO         4139    i.MCUDriverMain_Loop  mcudrivermain.o
    0x080042b0   0x080042b0   0x000000a0   Code   RO          220    i.MX_ADC1_Init      adc.o
    0x08004350   0x08004350   0x000000a0   Code   RO          221    i.MX_ADC2_Init      adc.o
    0x080043f0   0x080043f0   0x00000044   Code   RO          268    i.MX_CAN1_Init      can.o
    0x08004434   0x08004434   0x00000048   Code   RO          308    i.MX_DMA_Init       dma.o
    0x0800447c   0x0800447c   0x000001ec   Code   RO          194    i.MX_GPIO_Init      gpio.o
    0x08004668   0x08004668   0x0000004c   Code   RO          334    i.MX_SPI1_Init      spi.o
    0x080046b4   0x080046b4   0x0000004c   Code   RO          335    i.MX_SPI2_Init      spi.o
    0x08004700   0x08004700   0x000000d4   Code   RO          387    i.MX_TIM1_Init      tim.o
    0x080047d4   0x080047d4   0x00000078   Code   RO          388    i.MX_TIM2_Init      tim.o
    0x0800484c   0x0800484c   0x000000c8   Code   RO          389    i.MX_TIM3_Init      tim.o
    0x08004914   0x08004914   0x0000007c   Code   RO          390    i.MX_TIM4_Init      tim.o
    0x08004990   0x08004990   0x00000038   Code   RO          472    i.MX_USART1_UART_Init  usart.o
    0x080049c8   0x080049c8   0x00000004   Code   RO          520    i.MemManage_Handler  stm32f4xx_it.o
    0x080049cc   0x080049cc   0x00000018   Code   RO         4168    i.Motor1ADC1StartOnce  motor1adc1.o
    0x080049e4   0x080049e4   0x00000028   Code   RO         4169    i.Motor1ADC1ValueStorage  motor1adc1.o
    0x08004a0c   0x08004a0c   0x00000064   Code   RO         4069    i.Motor1AngleCalibration  anglecalibrationfunc.o
    0x08004a70   0x08004a70   0x00000024   Code   RO         4317    i.Motor1EncoderZEXITCallback  motor1encodernvic.o
    0x08004a94   0x08004a94   0x00000010   Code   RO         4319    i.Motor1EncoderZ_Init  motor1encodernvic.o
    0x08004aa4   0x08004aa4   0x00000040   Code   RO         4960    i.Motor1FOCConfig_Init  motor1focconfig.o
    0x08004ae4   0x08004ae4   0x00000010   Code   RO         4962    i.Motor1FocControl  motor1focconfig.o
    0x08004af4   0x08004af4   0x00000010   Code   RO         4963    i.Motor1GetAngle    motor1focconfig.o
    0x08004b04   0x08004b04   0x00000014   Code   RO         5065    i.Motor1GetPosition  motor1positionpidconfig.o
    0x08004b18   0x08004b18   0x00000080   Code   RO         5014    i.Motor1GetPreSpeed  motor1speedpidconfig.o
    0x08004b98   0x08004b98   0x00000010   Code   RO         4923    i.Motor1GetSVPWMSector  motor1svpwmconfig.o
    0x08004ba8   0x08004ba8   0x00000020   Code   RO         5067    i.Motor1PositionPIDConfigSetTar  motor1positionpidconfig.o
    0x08004bc8   0x08004bc8   0x00000034   Code   RO         5068    i.Motor1PositionPIDConfig_Init  motor1positionpidconfig.o
    0x08004bfc   0x08004bfc   0x00000010   Code   RO         5069    i.Motor1PositionPIDConfig_Loop  motor1positionpidconfig.o
    0x08004c0c   0x08004c0c   0x00000020   Code   RO         5015    i.Motor1SetCurrent  motor1speedpidconfig.o
    0x08004c2c   0x08004c2c   0x00000018   Code   RO         4207    i.Motor1SetEnable   motor1gpio.o
    0x08004c44   0x08004c44   0x00000018   Code   RO         5071    i.Motor1SetPosition  motor1positionpidconfig.o
    0x08004c5c   0x08004c5c   0x00000028   Code   RO         4965    i.Motor1SetTarIDIQ  motor1focconfig.o
    0x08004c84   0x08004c84   0x00000020   Code   RO         5017    i.Motor1SpeedPIDConfigSetTar  motor1speedpidconfig.o
    0x08004ca4   0x08004ca4   0x00000038   Code   RO         5018    i.Motor1SpeedPIDConfig_Init  motor1speedpidconfig.o
    0x08004cdc   0x08004cdc   0x00000010   Code   RO         5019    i.Motor1SpeedPIDConfig_Loop  motor1speedpidconfig.o
    0x08004cec   0x08004cec   0x00000028   Code   RO         4924    i.Motor1SvpwmGenerate  motor1svpwmconfig.o
    0x08004d14   0x08004d14   0x00000058   Code   RO         4231    i.Motor1TIM1_Init   motor1tim1pwm.o
    0x08004d6c   0x08004d6c   0x00000058   Code   RO         4356    i.Motor1TIM2EncoderGetAngle  motor1tim2encoder_1.o
    0x08004dc4   0x08004dc4   0x00000058   Code   RO         4357    i.Motor1TIM2EncoderGetCnt  motor1tim2encoder_1.o
    0x08004e1c   0x08004e1c   0x00000034   Code   RO         4358    i.Motor1TIM2EncoderInit  motor1tim2encoder_1.o
    0x08004e50   0x08004e50   0x00000028   Code   RO         4359    i.Motor1TIM2EncoderReset  motor1tim2encoder_1.o
    0x08004e78   0x08004e78   0x0000000c   Code   RO         4360    i.Motor1TIM2EncoderSetCnt  motor1tim2encoder_1.o
    0x08004e84   0x08004e84   0x00000018   Code   RO         4436    i.Motor2ADC2StartOnce  motor2adc2.o
    0x08004e9c   0x08004e9c   0x00000028   Code   RO         4437    i.Motor2ADC2ValueStorage  motor2adc2.o
    0x08004ec4   0x08004ec4   0x00000064   Code   RO         4070    i.Motor2AngleCalibration  anglecalibrationfunc.o
    0x08004f28   0x08004f28   0x00000024   Code   RO         4561    i.Motor2EncoderZEXITCallback  motor2encodernvic.o
    0x08004f4c   0x08004f4c   0x00000010   Code   RO         4563    i.Motor2EncoderZ_Init  motor2encodernvic.o
    0x08004f5c   0x08004f5c   0x00000040   Code   RO         5144    i.Motor2FOCConfig_Init  motor2focconfig.o
    0x08004f9c   0x08004f9c   0x00000010   Code   RO         5146    i.Motor2FocControl  motor2focconfig.o
    0x08004fac   0x08004fac   0x00000010   Code   RO         5147    i.Motor2GetAngle    motor2focconfig.o
    0x08004fbc   0x08004fbc   0x00000014   Code   RO         5245    i.Motor2GetPosition  motor2positionpidconfig.o
    0x08004fd0   0x08004fd0   0x00000080   Code   RO         5194    i.Motor2GetPreSpeed  motor2speedpidconfig.o
    0x08005050   0x08005050   0x00000010   Code   RO         5116    i.Motor2GetSVPWMSector  motor2svpwmconfig.o
    0x08005060   0x08005060   0x00000020   Code   RO         5247    i.Motor2PositionPIDConfigSetTar  motor2positionpidconfig.o
    0x08005080   0x08005080   0x00000034   Code   RO         5248    i.Motor2PositionPIDConfig_Init  motor2positionpidconfig.o
    0x080050b4   0x080050b4   0x00000010   Code   RO         5249    i.Motor2PositionPIDConfig_Loop  motor2positionpidconfig.o
    0x080050c4   0x080050c4   0x00000020   Code   RO         5195    i.Motor2SetCurrent  motor2speedpidconfig.o
    0x080050e4   0x080050e4   0x00000018   Code   RO         4411    i.Motor2SetEnable   motor2gpio.o
    0x080050fc   0x080050fc   0x00000018   Code   RO         5251    i.Motor2SetPosition  motor2positionpidconfig.o
    0x08005114   0x08005114   0x00000028   Code   RO         5149    i.Motor2SetTarIDIQ  motor2focconfig.o
    0x0800513c   0x0800513c   0x00000020   Code   RO         5197    i.Motor2SpeedPIDConfigSetTar  motor2speedpidconfig.o
    0x0800515c   0x0800515c   0x00000038   Code   RO         5198    i.Motor2SpeedPIDConfig_Init  motor2speedpidconfig.o
    0x08005194   0x08005194   0x00000010   Code   RO         5199    i.Motor2SpeedPIDConfig_Loop  motor2speedpidconfig.o
    0x080051a4   0x080051a4   0x00000028   Code   RO         5117    i.Motor2SvpwmGenerate  motor2svpwmconfig.o
    0x080051cc   0x080051cc   0x00000058   Code   RO         4515    i.Motor2TIM3_Init   motor2tim3pwm.o
    0x08005224   0x08005224   0x00000058   Code   RO         4600    i.Motor2TIM4EncoderGetAngle  motor2tim4encoder_1.o
    0x0800527c   0x0800527c   0x00000058   Code   RO         4601    i.Motor2TIM4EncoderGetCnt  motor2tim4encoder_1.o
    0x080052d4   0x080052d4   0x00000034   Code   RO         4602    i.Motor2TIM4EncoderInit  motor2tim4encoder_1.o
    0x08005308   0x08005308   0x00000028   Code   RO         4603    i.Motor2TIM4EncoderReset  motor2tim4encoder_1.o
    0x08005330   0x08005330   0x0000000c   Code   RO         4604    i.Motor2TIM4EncoderSetCnt  motor2tim4encoder_1.o
    0x0800533c   0x0800533c   0x00000002   Code   RO          521    i.NMI_Handler       stm32f4xx_it.o
    0x0800533e   0x0800533e   0x00000066   Code   RO         5308    i.ParkAntiTransform  foc.o
    0x080053a4   0x080053a4   0x0000006a   Code   RO         5309    i.ParkTransform     foc.o
    0x0800540e   0x0800540e   0x00000002   Code   RO          522    i.PendSV_Handler    stm32f4xx_it.o
    0x08005410   0x08005410   0x00000020   Code   RO         4837    i.PerDriverMain_Init  perdrivermain.o
    0x08005430   0x08005430   0x000000b4   Code   RO         4838    i.PerDriverMain_Loop  perdrivermain.o
    0x080054e4   0x080054e4   0x00000118   Code   RO         5462    i.PositionPIDControl  positionpid.o
    0x080055fc   0x080055fc   0x00000048   Code   RO         5463    i.PositionPIDCycle  positionpid.o
    0x08005644   0x08005644   0x00000040   Code   RO         5778    i.RingBuffer_De     ringbuffer.o
    0x08005684   0x08005684   0x00000040   Code   RO         5779    i.RingBuffer_En     ringbuffer.o
    0x080056c4   0x080056c4   0x00000012   Code   RO         5782    i.RingBuffer_IsEmpty  ringbuffer.o
    0x080056d6   0x080056d6   0x0000001e   Code   RO         5783    i.RingBuffer_IsFull  ringbuffer.o
    0x080056f4   0x080056f4   0x00000170   Code   RO         5664    i.SEGGER_RTT_Write  segger_rtt.o
    0x08005864   0x08005864   0x00000002   Code   RO          523    i.SVC_Handler       stm32f4xx_it.o
    0x08005866   0x08005866   0x00000022   Code   RO         5310    i.SetCurrentPIDParams  foc.o
    0x08005888   0x08005888   0x0000000a   Code   RO         5311    i.SetCurrentPIDTar  foc.o
    0x08005892   0x08005892   0x00000012   Code   RO         5312    i.SetFocEnable      foc.o
    0x080058a4   0x080058a4   0x0000000a   Code   RO         5415    i.SetLEDFlashing    ledcontrol.o
    0x080058ae   0x080058ae   0x0000001a   Code   RO         5416    i.SetLEDOFF         ledcontrol.o
    0x080058c8   0x080058c8   0x00000010   Code   RO         5417    i.SetLEDON          ledcontrol.o
    0x080058d8   0x080058d8   0x00000014   Code   RO         4745    i.SetLedLeave       ledgpio.o
    0x080058ec   0x080058ec   0x0000003e   Code   RO         5418    i.SetLedStatus      ledcontrol.o
    0x0800592a   0x0800592a   0x00000002   PAD
    0x0800592c   0x0800592c   0x00000050   Code   RO         4232    i.SetMotor1ChannelAHighLeaveTime_us  motor1tim1pwm.o
    0x0800597c   0x0800597c   0x00000050   Code   RO         4233    i.SetMotor1ChannelBHighLeaveTime_us  motor1tim1pwm.o
    0x080059cc   0x080059cc   0x00000050   Code   RO         4234    i.SetMotor1ChannelCHighLeaveTime_us  motor1tim1pwm.o
    0x08005a1c   0x08005a1c   0x00000050   Code   RO         4516    i.SetMotor2ChannelAHighLeaveTime_us  motor2tim3pwm.o
    0x08005a6c   0x08005a6c   0x00000050   Code   RO         4517    i.SetMotor2ChannelBHighLeaveTime_us  motor2tim3pwm.o
    0x08005abc   0x08005abc   0x00000050   Code   RO         4518    i.SetMotor2ChannelCHighLeaveTime_us  motor2tim3pwm.o
    0x08005b0c   0x08005b0c   0x0000000c   Code   RO         5465    i.SetPositionPIDEnable  positionpid.o
    0x08005b18   0x08005b18   0x0000000e   Code   RO         5466    i.SetPositionPIDParams  positionpid.o
    0x08005b26   0x08005b26   0x00000006   Code   RO         5467    i.SetPositionPIDTar  positionpid.o
    0x08005b2c   0x08005b2c   0x0000000c   Code   RO         5515    i.SetSpeedPIDEnable  speedpid.o
    0x08005b38   0x08005b38   0x0000000e   Code   RO         5516    i.SetSpeedPIDParams  speedpid.o
    0x08005b46   0x08005b46   0x00000006   Code   RO         5517    i.SetSpeedPIDTar    speedpid.o
    0x08005b4c   0x08005b4c   0x000000ac   Code   RO         5518    i.SpeedPIDControl   speedpid.o
    0x08005bf8   0x08005bf8   0x00000048   Code   RO         5519    i.SpeedPIDCycle     speedpid.o
    0x08005c40   0x08005c40   0x00000030   Code   RO         5572    i.SvpwmContorol     svpwm.o
    0x08005c70   0x08005c70   0x00000120   Code   RO         5573    i.SvpwmGenerate     svpwm.o
    0x08005d90   0x08005d90   0x000000d8   Code   RO         5574    i.SvpwmSectorJudgment  svpwm.o
    0x08005e68   0x08005e68   0x00000040   Code   RO          524    i.SysTick_Handler   stm32f4xx_it.o
    0x08005ea8   0x08005ea8   0x000000b4   Code   RO           14    i.SystemClock_Config  main.o
    0x08005f5c   0x08005f5c   0x0000001c   Code   RO         3977    i.SystemInit        system_stm32f4xx.o
    0x08005f78   0x08005f78   0x00000020   Code   RO          525    i.TIM1_UP_TIM10_IRQHandler  stm32f4xx_it.o
    0x08005f98   0x08005f98   0x00000020   Code   RO          526    i.TIM3_IRQHandler   stm32f4xx_it.o
    0x08005fb8   0x08005fb8   0x000000d8   Code   RO         2796    i.TIM_Base_SetConfig  stm32f4xx_hal_tim.o
    0x08006090   0x08006090   0x00000022   Code   RO         2797    i.TIM_CCxChannelCmd  stm32f4xx_hal_tim.o
    0x080060b2   0x080060b2   0x00000016   Code   RO         2807    i.TIM_ETR_SetConfig  stm32f4xx_hal_tim.o
    0x080060c8   0x080060c8   0x00000070   Code   RO         2809    i.TIM_OC1_SetConfig  stm32f4xx_hal_tim.o
    0x08006138   0x08006138   0x0000007c   Code   RO         2810    i.TIM_OC2_SetConfig  stm32f4xx_hal_tim.o
    0x080061b4   0x080061b4   0x00000078   Code   RO         2811    i.TIM_OC3_SetConfig  stm32f4xx_hal_tim.o
    0x0800622c   0x0800622c   0x00000054   Code   RO         2812    i.TIM_OC4_SetConfig  stm32f4xx_hal_tim.o
    0x08006280   0x08006280   0x000000aa   Code   RO         2813    i.TIM_SlaveTimer_SetConfig  stm32f4xx_hal_tim.o
    0x0800632a   0x0800632a   0x00000026   Code   RO         2814    i.TIM_TI1_ConfigInputStage  stm32f4xx_hal_tim.o
    0x08006350   0x08006350   0x00000028   Code   RO         2816    i.TIM_TI2_ConfigInputStage  stm32f4xx_hal_tim.o
    0x08006378   0x08006378   0x00000014   Code   RO         3683    i.UART_DMAAbortOnError  stm32f4xx_hal_uart.o
    0x0800638c   0x0800638c   0x00000020   Code   RO         3693    i.UART_EndRxTransfer  stm32f4xx_hal_uart.o
    0x080063ac   0x080063ac   0x00000020   Code   RO         3694    i.UART_EndTransmit_IT  stm32f4xx_hal_uart.o
    0x080063cc   0x080063cc   0x000000a6   Code   RO         3696    i.UART_Receive_IT   stm32f4xx_hal_uart.o
    0x08006472   0x08006472   0x00000002   PAD
    0x08006474   0x08006474   0x000003e8   Code   RO         3697    i.UART_SetConfig    stm32f4xx_hal_uart.o
    0x0800685c   0x0800685c   0x00000068   Code   RO         3698    i.UART_Transmit_IT  stm32f4xx_hal_uart.o
    0x080068c4   0x080068c4   0x00000014   Code   RO          527    i.USART1_IRQHandler  stm32f4xx_it.o
    0x080068d8   0x080068d8   0x00000078   Code   RO         4683    i.Uart1_IT_Handle   uart1.o
    0x08006950   0x08006950   0x00000018   Code   RO         4684    i.Uart1_Init        uart1.o
    0x08006968   0x08006968   0x00000004   Code   RO          528    i.UsageFault_Handler  stm32f4xx_it.o
    0x0800696c   0x0800696c   0x00000002   Code   RO         5666    i._Init             segger_rtt.o
    0x0800696e   0x0800696e   0x00000002   PAD
    0x08006970   0x08006970   0x00000020   Code   RO         6240    i.__0printf         mc_w.l(printfa.o)
    0x08006990   0x08006990   0x00000010   Code   RO         1770    i.__NVIC_GetPriorityGrouping  stm32f4xx_hal_cortex.o
    0x080069a0   0x080069a0   0x00000028   Code   RO         1771    i.__NVIC_SetPriority  stm32f4xx_hal_cortex.o
    0x080069c8   0x080069c8   0x00000014   Code   RO         5990    i.__hardfp_fabs     m_wm.l(fabs.o)
    0x080069dc   0x080069dc   0x0000000e   Code   RO         6322    i.__scatterload_copy  mc_w.l(handlers.o)
    0x080069ea   0x080069ea   0x00000002   Code   RO         6323    i.__scatterload_null  mc_w.l(handlers.o)
    0x080069ec   0x080069ec   0x0000000e   Code   RO         6324    i.__scatterload_zeroinit  mc_w.l(handlers.o)
    0x080069fa   0x080069fa   0x00000002   PAD
    0x080069fc   0x080069fc   0x00000184   Code   RO         6247    i._fp_digits        mc_w.l(printfa.o)
    0x08006b80   0x08006b80   0x000006b4   Code   RO         6248    i._printf_core      mc_w.l(printfa.o)
    0x08007234   0x08007234   0x00000024   Code   RO         6249    i._printf_post_padding  mc_w.l(printfa.o)
    0x08007258   0x08007258   0x0000002e   Code   RO         6250    i._printf_pre_padding  mc_w.l(printfa.o)
    0x08007286   0x08007286   0x0000001a   Code   RO         5668    i.fputc             segger_rtt.o
    0x080072a0   0x080072a0   0x00000044   Code   RO           15    i.main              main.o
    0x080072e4   0x080072e4   0x00000008   Data   RO         1487    .constdata          stm32f4xx_hal_dma.o
    0x080072ec   0x080072ec   0x00000018   Data   RO         3978    .constdata          system_stm32f4xx.o
    0x08007304   0x08007304   0x00000804   Data   RO         5967    .constdata          arm_cortexM4lf_math.lib(arm_common_tables.o)
    0x08007b08   0x08007b08   0x00000009   Data   RO         5670    .conststring        segger_rtt.o
    0x08007b11   0x08007b11   0x00000003   PAD
    0x08007b14   0x08007b14   0x00000020   Data   RO         6320    Region$$Table       anon$$obj.o


    Execution Region RW_IRAM2 (Exec base: 0x10000000, Load base: 0x08007c08, Size: 0x00000000, Max: 0x00010000, ABSOLUTE)

    **** No section assigned to this execution region ****


    Execution Region RW_IRAM1 (Exec base: 0x20000000, Load base: 0x08007b34, Size: 0x000013d8, Max: 0x00020000, ABSOLUTE, COMPRESSED[0x000000d4])

    Exec Addr    Load Addr    Size         Type   Attr      Idx    E Section Name        Object

    0x20000000   COMPRESSED   0x00000009   Data   RW         1919    .data               stm32f4xx_hal.o
    0x20000009   COMPRESSED   0x00000003   PAD
    0x2000000c   COMPRESSED   0x00000004   Data   RW         3979    .data               system_stm32f4xx.o
    0x20000010   COMPRESSED   0x00000004   Data   RW         4140    .data               mcudrivermain.o
    0x20000014   COMPRESSED   0x00000008   Data   RW         4320    .data               motor1encodernvic.o
    0x2000001c   COMPRESSED   0x00000008   Data   RW         4361    .data               motor1tim2encoder_1.o
    0x20000024   COMPRESSED   0x00000008   Data   RW         4564    .data               motor2encodernvic.o
    0x2000002c   COMPRESSED   0x00000008   Data   RW         4605    .data               motor2tim4encoder_1.o
    0x20000034   COMPRESSED   0x00000004   Data   RW         4653    .data               timer.o
    0x20000038   COMPRESSED   0x00000038   Data   RW         4689    .data               uart1.o
    0x20000070   COMPRESSED   0x00000020   Data   RW         4839    .data               perdrivermain.o
    0x20000090   COMPRESSED   0x00000014   Data   RW         4889    .data               ledconfig.o
    0x200000a4   COMPRESSED   0x0000004c   Data   RW         4925    .data               motor1svpwmconfig.o
    0x200000f0   COMPRESSED   0x0000009c   Data   RW         4966    .data               motor1focconfig.o
    0x2000018c   COMPRESSED   0x00000044   Data   RW         5021    .data               motor1speedpidconfig.o
    0x200001d0   COMPRESSED   0x0000003c   Data   RW         5072    .data               motor1positionpidconfig.o
    0x2000020c   COMPRESSED   0x0000004c   Data   RW         5118    .data               motor2svpwmconfig.o
    0x20000258   COMPRESSED   0x0000009c   Data   RW         5150    .data               motor2focconfig.o
    0x200002f4   COMPRESSED   0x00000044   Data   RW         5201    .data               motor2speedpidconfig.o
    0x20000338   COMPRESSED   0x0000003c   Data   RW         5252    .data               motor2positionpidconfig.o
    0x20000374   COMPRESSED   0x00000004   Data   RW         5419    .data               ledcontrol.o
    0x20000378   COMPRESSED   0x00000004   Data   RW         5468    .data               positionpid.o
    0x2000037c   COMPRESSED   0x00000004   Data   RW         5521    .data               speedpid.o
    0x20000380   COMPRESSED   0x00000078   Data   RW         5671    .data               segger_rtt.o
    0x200003f8   COMPRESSED   0x00000004   Data   RW         6298    .data               mc_w.l(stdout.o)
    0x200003fc        -       0x00000150   Zero   RW          222    .bss                adc.o
    0x2000054c        -       0x00000028   Zero   RW          269    .bss                can.o
    0x20000574        -       0x000000b0   Zero   RW          336    .bss                spi.o
    0x20000624        -       0x00000100   Zero   RW          391    .bss                tim.o
    0x20000724        -       0x00000040   Zero   RW          473    .bss                usart.o
    0x20000764        -       0x00000024   Zero   RW         4170    .bss                motor1adc1.o
    0x20000788        -       0x00000024   Zero   RW         4438    .bss                motor2adc2.o
    0x200007ac        -       0x000003e8   Zero   RW         4688    .bss                uart1.o
    0x20000b94        -       0x00000034   Zero   RW         4783    .bss                can1.o
    0x20000bc8        -       0x00000410   Zero   RW         5669    .bss                segger_rtt.o
    0x20000fd8        -       0x00000400   Zero   RW            1    STACK               startup_stm32f407xx.o


==============================================================================

Image component sizes


      Code (inc. data)   RO Data    RW Data    ZI Data      Debug   Object Name

       744         56          0          0        336       2934   adc.o
       212         24          0          0          0       1930   anglecalibrationfunc.o
        32          0          0          0          0       1050   appmain.o
       220         22          0          0         40       1821   can.o
       320         56          0          0         52       4034   can1.o
        72          4          0          0          0        846   dma.o
      1370         24          0          0          0      10019   foc.o
        10          0          0          0          0       1044   functionmain.o
       492         30          0          0          0       1275   gpio.o
        66         12          0         20          0       3070   ledconfig.o
       218         10          0          4          0       5208   ledcontrol.o
        20          4          0          0          0        574   ledgpio.o
       250         10          0          0          0     718876   main.o
        74          8          0          4          0       1238   mcudrivermain.o
       152         28          0          0         36       2656   motor1adc1.o
        52         10          0          8          0       1895   motor1encodernvic.o
       336         50          0        156          0       5108   motor1focconfig.o
        24          6          0          0          0        590   motor1gpio.o
       144         28          0         60          0       3539   motor1positionpidconfig.o
       264         50          0         68          0       3610   motor1speedpidconfig.o
        56         12          0         76          0       2807   motor1svpwmconfig.o
       328         58          0          0          0       2510   motor1tim1pwm.o
       280         56          0          8          0       3856   motor1tim2encoder_1.o
       152         28          0          0         36       2656   motor2adc2.o
        52         10          0          8          0       1895   motor2encodernvic.o
       336         50          0        156          0       3513   motor2focconfig.o
        24          6          0          0          0        590   motor2gpio.o
       144         28          0         60          0       3539   motor2positionpidconfig.o
       264         50          0         68          0       3610   motor2speedpidconfig.o
        56         12          0         76          0       1599   motor2svpwmconfig.o
       328         58          0          0          0       2510   motor2tim3pwm.o
       280         56          0          8          0       3860   motor2tim4encoder_1.o
       212         30          0         32          0       1865   perdrivermain.o
       384         26          0          4          0       5380   positionpid.o
       176          0          0          0          0       3333   ringbuffer.o
       396          4          9        120       1040       3235   segger_rtt.o
       276         12          0          4          0       5129   speedpid.o
       408         42          0          0        176       2538   spi.o
        36          8        392          0       1024        872   startup_stm32f407xx.o
       212         36          0          9          0       9693   stm32f4xx_hal.o
      1412         64          0          0          0       7761   stm32f4xx_hal_adc.o
      2188          6          0          0          0      15809   stm32f4xx_hal_can.o
       304         22          0          0          0      34723   stm32f4xx_hal_cortex.o
      1264         16          8          0          0       6498   stm32f4xx_hal_dma.o
       554         50          0          0          0       3708   stm32f4xx_hal_gpio.o
        72          4          0          0          0        930   stm32f4xx_hal_msp.o
      1800         84          0          0          0       5872   stm32f4xx_hal_rcc.o
       140          0          0          0          0       1239   stm32f4xx_hal_spi.o
      2234         98          0          0          0      18818   stm32f4xx_hal_tim.o
       300         30          0          0          0       3509   stm32f4xx_hal_tim_ex.o
      1814         12          0          0          0       8327   stm32f4xx_hal_uart.o
       266         48          0          0          0      11814   stm32f4xx_it.o
      1216         40          0          0          0       3447   svpwm.o
        28          4         24          4          0       1267   system_stm32f4xx.o
      1220         90          0          0        256       6395   tim.o
         0          0          0          4          0        258   timer.o
       144         18          0         56       1000       2722   uart1.o
       208         22          0          0         64       1850   usart.o

    ----------------------------------------------------------------------
     24668       1622        468       1016       4060     971254   Object Totals
         0          0         32          0          0          0   (incl. Generated)
        32          0          3          3          0          0   (incl. Padding)

    ----------------------------------------------------------------------

      Code (inc. data)   RO Data    RW Data    ZI Data      Debug   Library Member Name

         0          0       2052          0          0       4704   arm_common_tables.o
       120         12          0          0          0      17170   arm_cos_f32.o
       148         18          0          0          0        814   arm_sin_f32.o
        20          0          0          0          0        124   fabs.o
        86          0          0          0          0          0   __dczerorl2.o
         0          0          0          0          0          0   entry.o
         0          0          0          0          0          0   entry10a.o
         0          0          0          0          0          0   entry11a.o
         4          0          0          0          0          0   entry12b.o
         8          4          0          0          0          0   entry2.o
         4          0          0          0          0          0   entry5.o
         0          0          0          0          0          0   entry7b.o
         0          0          0          0          0          0   entry8b.o
         8          4          0          0          0          0   entry9a.o
        30          0          0          0          0          0   handlers.o
        36          8          0          0          0         68   init.o
         0          0          0          0          0          0   iusefp.o
        30          0          0          0          0         68   llshl.o
        36          0          0          0          0         68   llsshr.o
        32          0          0          0          0         68   llushr.o
        36          0          0          0          0         68   memcpya.o
        36          0          0          0          0        108   memseta.o
      2218         90          0          0          0        464   printfa.o
         0          0          0          4          0          0   stdout.o
        44          0          0          0          0         80   uidiv.o
        98          0          0          0          0         92   uldiv.o
        48          0          0          0          0         68   cdcmple.o
        48          0          0          0          0         68   cdrcmple.o
        56          0          0          0          0         88   d2f.o
       334          0          0          0          0        148   dadd.o
       222          0          0          0          0        100   ddiv.o
       186          0          0          0          0        176   depilogue.o
        48          0          0          0          0         68   dfixul.o
        34          0          0          0          0         76   dflti.o
       228          0          0          0          0         96   dmul.o
        38          0          0          0          0         68   f2d.o
       110          0          0          0          0        168   fepilogue.o

    ----------------------------------------------------------------------
      4352        136       2052          4          0      25020   Library Totals
         6          0          0          0          0          0   (incl. Padding)

    ----------------------------------------------------------------------

      Code (inc. data)   RO Data    RW Data    ZI Data      Debug   Library Name

       268         30       2052          0          0      22688   arm_cortexM4lf_math.lib
        20          0          0          0          0        124   m_wm.l
      2706        106          0          4          0       1084   mc_w.l
      1352          0          0          0          0       1124   mf_w.l

    ----------------------------------------------------------------------
      4352        136       2052          4          0      25020   Library Totals

    ----------------------------------------------------------------------

==============================================================================


      Code (inc. data)   RO Data    RW Data    ZI Data      Debug   

     29020       1758       2520       1020       4060     969866   Grand Totals
     29020       1758       2520        212       4060     969866   ELF Image Totals (compressed)
     29020       1758       2520        212          0          0   ROM Totals

==============================================================================

    Total RO  Size (Code + RO Data)                31540 (  30.80kB)
    Total RW  Size (RW Data + ZI Data)              5080 (   4.96kB)
    Total ROM Size (Code + RO Data + RW Data)      31752 (  31.01kB)

==============================================================================

