:020000040800F2
:10000000D8130020A10100083D530008B5410008A5
:10001000C9490008010C00086969000800000000D7
:10002000000000000000000000000000655800080B
:10003000E3110008000000000F540008695E00088A
:10004000BB010008BB010008BB010008BB010008A0
:10005000BB010008BB010008BB010008BB01000890
:10006000F5110008BB010008BB010008BB01000836
:10007000BB010008BB010008BB010008BB01000870
:10008000BB010008BB010008BB010008BB01000860
:10009000050C0008BB010008BB010008BB010008FB
:1000A000BB010008795F0008BB010008BB01000824
:1000B000BB010008995F0008BB010008BB010008F4
:1000C000BB010008BB010008BB010008BB01000820
:1000D000BB010008C5680008BB010008BB0100089F
:1000E000E5110008BB010008BB010008BB010008C6
:1000F000BB010008BB010008BB010008BB010008F0
:10010000BB010008BB010008BB010008BB010008DF
:10011000BB010008BB010008BB010008BB010008CF
:10012000A9100008BB010008C1100008BB010008AD
:10013000BB010008BB010008BB010008BB010008AF
:10014000BB010008BB010008BB010008BB0100089F
:10015000BB010008BB010008BB010008BB0100088F
:10016000BB010008BB010008BB010008BB0100087F
:10017000BB010008BB010008BB0100080000000033
:10018000BB010008BB010008DFF810D000F0D0FB75
:1001900000480047A1720008AFF30080D813002088
:1001A0000648804706480047FEE7FEE7FEE7FEE711
:1001B000FEE7FEE7FEE7FEE7FEE7FEE75D5F00081D
:1001C000890100089FED1A1AF5EE000A40EE010AB7
:1001D000BDEEE00AF5EEC00A10EE100AF1EE10FADC
:1001E00038BF401E00EE100A1349F7EE001AB8EEB1
:1001F000C00A30EEC00ADFED0F0A20EE200AFCEE46
:10020000C00A10EE900AC0F3080000EE900A01EB5D
:100210008000F8EE600A90ED011A70EE600A90ED31
:10022000000A71EEE01A21EE800A00EE810A7047A2
:1002300083F9223E0000004404730008B5EEC00AB2
:10024000F1EE10FA07D2DFED1E0AB4EEE00AF1EE8D
:1002500010FAA8BF7047DFED1B0AB5EEC00A60EECA
:10026000200ABDEEE01A11EE100AF1EE10FA38BFC6
:10027000401E00EE100A1549F7EE001AB8EEC00A4B
:1002800030EEC00ADFED100A60EE200ABCEEE00A94
:1002900010EE100AC0F3080000EE100A01EB800017
:1002A000B8EE400A90ED011A70EEC00A90ED000A17
:1002B00071EEE01A21EE800A00EE810A704700001C
:1002C000CD024CB483F9223E0000004404730008C0
:1002D0002DE9F05F0546002092469B46884606467B
:1002E000814640241BE0284641464746224600F00E
:1002F0004CF953465A46C01A914110D3114618463C
:10030000224600F033F92D1A67EB01084F462246CA
:100310000120002100F02AF917EB00094E41201EB0
:10032000A4F10104DFDC484631462A464346BDE8D5
:10033000F09F40EA01039B0703D009E008C9121FA0
:1003400008C0042AFAD203E011F8013B00F8013B8F
:10035000521EF9D27047D2B201E000F8012B491EBB
:10036000FBD270470022F6E710B513460A46044652
:100370001946FFF7F0FF204610BD2DE9FE4F81EA38
:10038000030404F0004421F0004100944FF0000BFE
:1003900023F0004350EA01045ED052EA03045BD02C
:1003A000C3F30A54C1F30A552C44A4F2F334019464
:1003B000A0FB0254C1F3130141F48011C3F31303F2
:1003C00043F4801301FB024400FB034E840A970AA6
:1003D00044EA815447EA8357A4FB076802958D0AD3
:1003E00005FB07854FEA932C04FB0C542705029D5F
:1003F0004FEA065847EA1637B5EB08056EEB070CCF
:10040000870E920E47EA811742EA8312A7FB020188
:10041000B6EB0B0164EB00042B0D43EA0C335E18C2
:1004200044EB1C50DA465146E7FB0201C5F31304C6
:100430004FEA0B3343EA14534FEA0432019C43EA78
:100440000603A4F10C040294009CCDE900B400F072
:10045000F2F803B0BDE8F08F00200146F9E70EB5D1
:10046000C10F80EAE0700844CA07002140F233431C
:100470008DE80E000A460B4600F0DDF803B000BD23
:1004800000F0004230F000400AD0C10D01F560716B
:10049000C0F3160042EA0151C208400711437047F9
:1004A000002001467047000030B5041E71F10004C1
:1004B00004DB4FF00044404264EB0101141E73F171
:1004C000000405DB1C464FF00043524263EB04037B
:1004D0008B4208BF824230BD30B5041E71F100046A
:1004E00004DB4FF00044404264EB0101141E73F141
:1004F000000405DB1C464FF00043524263EB04034B
:10050000994208BF904230BD01F0004330B421F061
:10051000004150EA010206D00A0DA2F56072C1F353
:100520001301002A02DC30BC00207047440F44EA6B
:10053000C104C100E01830BC00EBC25000F035B877
:1005400030B50B46014600202022012409E021FAA3
:1005500002F59D4205D303FA02F5491B04FA02F5A0
:100560002844151EA2F10102F1DC30BD202A04DB73
:10057000203A00FA02F1002070479140C2F12003B6
:1005800020FA03F3194390407047202A04DB203AF5
:1005900021FA02F00021704721FA02F3D040C2F1A3
:1005A000200291400843194670470029A8BF7047B0
:1005B000401C490008BF20F00100704710B4B0FA99
:1005C00080FC00FA0CF050EA010404BF10BC704734
:1005D00049B1CCF1200421FA04F411FA0CF118BF4E
:1005E000012121430843A3EB0C01CB1D4FEA00611D
:1005F0004FEA102042BF002010BC704700EBC350F0
:1006000010440029A4BF10BC7047401C490008BF1B
:1006100020F0010010BC704710B5141E73F10004E7
:1006200008DA401C41F1000192185B411A4301D1E4
:1006300020F0010010BD2DE9F04D92469B4611B10E
:10064000B1FA81F202E0B0FA80F220329046FFF770
:100650008DFF04460F4640EA0A0041EA0B0153466B
:100660005A46084313D0114653EA010019D0C8F185
:1006700040025046FFF789FF05460E465046594650
:100680004246FFF773FF084305D0012004E02046EF
:100690003946BDE8F08D0020054346EAE0762C435C
:1006A00037430A986305E40AA0EB08000022FD0A1C
:1006B00044EA47540A3002D500200146E9E7010523
:1006C00010196941DDE9084500196941BDE8F04D9F
:1006D000A2E72DE9FE4F804681EA0300C00F0C46D9
:1006E000009021F0004123F00045B8EB0200A94141
:1006F00005D24046214690461C460B46024623F052
:100700000040104347D0270DC7F30A00C3F30A5136
:100710000290401A019040286BDAC3F3130040F4B2
:10072000801B0098924620B10023D2EB030A63EBB2
:100730000B0B01985946C0F140025046FFF716FFD7
:1007400006460D4650465946019A00F003F910EB53
:1007500008006141002487EA115284EAE7731A43D2
:1007600040D0009A62B3019A012A4FEA075215DC81
:10077000001B61EB02014FF0004202EA0752CDE993
:100780000042001C41F5801132462B46FFF753FF13
:1007900003B0BDE8F08F40462146F9E7001B61EB4E
:1007A0000201001C41F5801300185B412018A2F5DE
:1007B000001747EB030140EAD570B6196D4111E00F
:1007C0006D084FEA360645EAC0754FEA0752001B2E
:1007D00061EB0201001C41F5801149084FEA30002D
:1007E0000019514132462B4603B0BDE8F04FFFF7E8
:1007F00013BF0098012240000023D0EB020263EBFC
:10080000E073009821464FEAE074B8EB000061EB1A
:100810000401E9E783F000435BE781F0004158E71A
:100820002DE9F04D81EA030404F0004B21F000456E
:1008300014464FF0000A23F0004150EA050220D090
:1008400054EA01021DD0C5F30A570246C5F313034B
:10085000C1F31300C1F30A5640F4801543F480132A
:10086000A7EB0608101BD64608F2FD3873EB05000F
:1008700002D308F1010801E092185B41B8F1000FC2
:1008800003DA00200146BDE8F08D00204FF480110E
:10089000064684460EE0171B73EB050705D3121BB3
:1008A00063EB050306434CEA010C49084FEA3000AC
:1008B00092185B4150EA0107EDD152EA030012D0D1
:1008C00082EA040083EA0501084305D0101BAB410E
:1008D00006D20122002306E000224FF0004302E08E
:1008E0006FF0010253101AEB06004CEB085110EBAD
:1008F0000A0041EB0B01BDE8F04DFFF78DBEC1F3DF
:100900000A52C1F3130140F2FF3341F480119A42BD
:1009100002DA00200146704740F233439A42A2F2C5
:10092000334202DC5242FFF730BEFFF71FBE000029
:10093000064C074D06E0E06840F0010394E807002C
:1009400098471034AC42F6D3FFF722FC147B000822
:10095000347B0008202A06DBCB17203A41FA02F04C
:1009600043EAE07306E041FA02F3D040C2F120020C
:10097000914008431946704770B58C1810F8015B18
:1009800015F0070301D110F8013B2A1106D110F828
:10099000012B03E010F8016B01F8016B5B1EF9D12C
:1009A0002B0705D40023521E0DD401F8013BFAE7B2
:1009B00010F8013BCB1A921C03E013F8015B01F81D
:1009C000015B521EF9D5A142D8D3002070BD70B58D
:1009D0000546AC6B206C00F0500050BB206C40F41E
:1009E000007020642068806800F04050E8B9207EE4
:1009F000D8B92068C06A00F4700020B1206880680F
:100A000000F4806088B92068406820F020002168E8
:100A10004860206C20F480702064206C00F48050CA
:100A200018B9206C40F001002064204600F06AFFF5
:100A30000BE0206C00F0100018B1204600F064FFBD
:100A400003E0A06BC16C2846884770BD70B50546B1
:100A5000AC6B40202064606C40F004006064204671
:100A600000F052FF70BD70B50446A56B284600F03B
:100A70004AFF70BD55494A6822F440324A604A68CC
:100A800043681A434A600268526822F4807203681D
:100A90005A6002685368026943EA022203685A6096
:100AA0000268526822F0407203685A600268526815
:100AB00083681A4303685A600268926822F40062ED
:100AC00003689A6002689268C3681A4303689A6070
:100AD0003F4B826A9A4218D00268926822F0706294
:100AE00003689A6002689268836A1A4303689A608E
:100AF0000268926822F0405203689A600268926825
:100B0000C36A1A4303689A600BE00268926822F095
:100B1000706203689A600268926822F0405203682B
:100B20009A600268926822F0020203689A60026882
:100B30009368027E43EA420203689A602022125CB4
:100B4000A2B10268526842F4006203685A60026807
:100B5000526822F4604203685A6002685368426A2D
:100B6000521E43EA423203685A6005E00268526846
:100B700022F4006203685A600268D26A22F47002AA
:100B80000368DA620268D36A828B521E43EA025219
:100B90000368DA620268926822F4007203689A605D
:100BA0000268936890F8302043EA422203689A6012
:100BB0000268926822F4806203689A60026893680F
:100BC000426943EA822203689A6070470023014029
:100BD0000100000F10B503F045FB00F03AFB04F0F4
:100BE00017FC10BD10B503F051FB04F021FC00F020
:100BF00034FB10BD10B503F009FF04F063F910BD1C
:100C000000BFFEE710B5024801F075FA10BD000004
:100C10004C05002030B58BB005460C4601200990EC
:100C20000020069001200790002008900590019474
:100C300002940394049401A9284601F0F1F808B144
:100C400000F0DFFA0BB030BD3EB505460C464FF460
:100C500080500D490860486000208860C8600846E0
:100C600004612246294601A8FFF763FB6B4601AAEF
:100C70000549064801F029F800BF044801F020FAB0
:100C80000328FAD13EBD0000940B00204C05002043
:100C900010B500210548FFF7BDFF044801F091FCA5
:100CA0000221024800F0FCFF10BD00004C050020AE
:100CB0001CB56B208DF8000079208DF801007320A1
:100CC0008DF8020067208DF8030064208DF8040081
:100CD00073208DF8050062208DF8060031208DF814
:100CE000070008216846FFF7AFFF1CBD90ED070A1B
:100CF00080ED0A0A90ED070AD0ED080AB0EE001A5E
:100D000001EE200ADFED030A80EE201A80ED0B1AB7
:100D100070470000D0B3DD3F10B52DED088B0446C1
:100D200094ED0D0A84ED130A94ED020A84ED140A81
:100D300094ED140AD4ED130A30EE600A84ED150A1E
:100D400094ED150AD4ED160A30EE600AD4ED100ABF
:100D500020EE200AD4ED110A94ED151A00EE810A56
:100D6000D4ED170A30EE200A84ED170A94ED150A27
:100D700084ED160A94ED180A10EE101A0846FFF7D3
:100D80007FFB41EC1A0BB0EE4A0AF0EE6A0A05F05E
:100D90001BFEB0EE408AF0EE608A94ED170A10EE6A
:100DA000101A0846FFF76CFB41EC190B53EC182B9B
:100DB000FFF792FB17D294ED180A10EE101A0846AE
:100DC000FFF75EFB41EC190BB0EE490AF0EE690A41
:100DD00005F0FAFDB0EE408AF0EE608A51EC180B97
:100DE000FFF792FBE06594ED180A10EE101A084622
:100DF000FFF746FB41EC1B0BB0EE4B0AF0EE6B0A23
:100E000005F0E2FDB0EE40AAF0EE60AA51EC1A0B3C
:100E100081F0004141EC180B94ED170A10EE101A06
:100E20000846FFF72DFB41EC190B53EC182BFFF78D
:100E30003BFB1BD294ED180A10EE101A0846FFF780
:100E40001FFB41EC1A0BB0EE4A0AF0EE6A0A05F0FD
:100E5000BBFDB0EE409AF0EE609A51EC190B81F0B8
:100E6000004141EC180BFFF74FFBE065BDEC088B30
:100E700010BD10B52DED088B044694ED0C0A84EDE1
:100E80001C0A94ED010A84ED1D0A94ED1D0AD4EDAF
:100E90001C0A30EE600A84ED1E0A94ED1E0AD4EDA1
:100EA0001F0A30EE600AD4ED190A20EE200AD4EDB4
:100EB0001A0A94ED1E1A00EE810AD4ED200A30EED3
:100EC000200A84ED200A94ED1E0A84ED1F0A94ED99
:100ED000210A10EE101A0846FFF7D2FA41EC1A0B5D
:100EE000B0EE4A0AF0EE6A0A05F06EFDB0EE408AF6
:100EF000F0EE608A94ED200A10EE101A0846FFF713
:100F0000BFFA41EC190B53EC182BFFF7E5FA18D296
:100F100094ED210A10EE101A0846FFF7B1FA41ECE1
:100F2000190BB0EE490AF0EE690A05F04DFDB0EE7E
:100F3000408AF0EE608A51EC180BFFF7E5FA802149
:100F4000085194ED210A10EE101A0846FFF798FA9E
:100F500041EC1B0BB0EE4B0AF0EE6B0A05F034FDD2
:100F6000B0EE40AAF0EE60AA51EC1A0B81F00041FD
:100F700041EC180B94ED200A10EE101A0846FFF70A
:100F80007FFA41EC190B53EC182BFFF78DFA1CD2AA
:100F900094ED210A10EE101A0846FFF771FA41ECA1
:100FA0001A0BB0EE4A0AF0EE6A0A05F00DFDB0EE3B
:100FB000409AF0EE609A51EC190B81F0004141EC3F
:100FC000180BFFF7A1FA80210851BDEC088B10BD6A
:100FD00010B5044604F12402111F081FD4F8943000
:100FE0009847207E032800DA10BDD4F8900080478F
:100FF000072853D2DFE800F05204111E2B384500B9
:1010000094ED080ADFED270A30EEC00AD4ED090A94
:1010100030EE600A84ED070A41E094ED070ADFED47
:10102000210A30EEC00AD4ED090A30EE600A84EDE0
:10103000080A34E094ED070ADFED1A0A30EEC00A20
:10104000D4ED090A30EE600A84ED080A27E094ED39
:10105000070ADFED140A30EEC00AD4ED080A30EEBC
:10106000600A84ED090A1AE094ED070ADFED0D0A23
:1010700030EEC00AD4ED080A30EE600A84ED090AA9
:101080000DE094ED080ADFED070A30EEC00AD4ED5A
:10109000090A30EE600A84ED070A00E000BF00BFD5
:1010A00000BFA1E70000000010B503F09BFC03F0B7
:1010B00019FD024801F0D0FA10BD00008C04002098
:1010C00010B503F0EBFE03F069FF024801F0C4FA2B
:1010D00010BD0000EC0400200146087810381823E9
:1010E000B0FBF3F20848805CC865032A05D908689C
:1010F0006FF30900001D886503E008686FF30900BD
:101100008865886D70470000E47200080146002081
:101110008A6A8B69CBB932B1012A0DD0022A03D079
:10112000032A10D10EE000BFCB6A03F08073B3F145
:10113000807F00D1012007E0CB6AB3F1C07F00D1EE
:10114000012001E000E000BF34E08B69B3F5005FEF
:101150001AD132B1012A07D0022A03D0032A11D1B1
:101160000AE000BF01200EE0CB6A03F08073B3F108
:10117000807F00D1012006E0CB6AB3F1C07F00D1AF
:10118000012000E000BF15E032B1012A05D0022A9B
:1011900004D0032A0CD103E000BF00BF012008E007
:1011A000CB6A03F08073B3F1807F00D1012000E0AF
:1011B00000BF00BF704730B50468246824F4802461
:1011C00005682C60046863608468402C04D104685E
:1011D000A2600468E16003E00468A1600468E26062
:1011E00030BD704710B503F09FFE4FF4006001F072
:1011F00029FC10BD10B503F03BFC042001F022FCDB
:1012000010BD704710B50446207800B910BD2046C7
:1012100000F024F82046FFF7DBFE2046FFF766FDCE
:10122000204604F0BFF82046FFF776FD2046FFF782
:1012300020FE204604F083F894ED0F1AF0EE410AE8
:1012400094ED0E1AB0EE410AD4F89800804700BF22
:10125000DCE710B5FFF7CEFC10BD704710B50446B3
:10126000D4F88C00804784ED030AD4ED030A60783B
:1012700000EE100AB8EE400A20EE800A84ED040A5F
:1012800094ED040ADFED030A20EE200A84ED050A3E
:1012900010BD00004DF38E3C90ED030A7047000036
:1012A0000146032901DB00207047104850F8210057
:1012B00000EE100AB8EEC00ADFED0D0A20EE200A9B
:1012C0000A480C3050F8210000EE900AF8EEE00ACF
:1012D0009FED081A01EE200ABDEEC00A10EE102A9A
:1012E00002480C3040F821201046DDE7700700204E
:1012F0006666663FD0CCCC3D2DE9F0412DED068BE6
:1013000004460D4616460020FFF7CAFF0746FFF7C2
:10131000A6F841EC1A0B9FED260B53EC102BFFF7B0
:101320002CF841EC190B9FED240B53EC102BFFF71D
:1013300024F841EC180BFFF7E7F820600120FFF7D5
:10134000AFFF0746FFF78BF841EC1A0B9FED180B28
:1013500053EC102BFFF711F841EC190B9FED160B16
:1013600053EC102BFFF709F841EC180BFFF7CCF802
:1013700028600220FFF794FF0746FFF770F841EC62
:101380001A0B9FED0B0B53EC102BFEF7F6FF41EC05
:10139000190B9FED090B53EC102BFEF7EEFF41EC00
:1013A000180BFFF7B1F83060BDEC068BBDE8F0819B
:1013B000F168E388B5F8343F000000000000F83F12
:1013C0000146032901DB00207047104850F8210036
:1013D00000EE100AB8EEC00ADFED0D0A20EE200A7A
:1013E0000A480C3050F8210000EE900AF8EEE00AAE
:1013F0009FED081A01EE200ABDEEC00A10EE102A79
:1014000002480C3040F821201046DDE79407002008
:101410006666663FD0CCCC3D2DE9F0412DED068BC4
:1014200004460D4616460020FFF7CAFF0746FFF7A1
:1014300016F841EC1A0B9FED260B53EC102BFEF720
:101440009CFF41EC190B9FED240B53EC102BFEF786
:1014500094FF41EC180BFFF757F820600120FFF7CD
:10146000AFFF0746FEF7FBFF41EC1A0B9FED180B91
:1014700053EC102BFEF781FF41EC190B9FED160B7F
:1014800053EC102BFEF779FF41EC180BFFF73CF8FB
:1014900028600220FFF794FF0746FEF7E0FF41ECCB
:1014A0001A0B9FED0B0B53EC102BFEF766FF41EC74
:1014B000190B9FED090B53EC102BFEF75EFF41EC6F
:1014C000180BFFF721F83060BDEC068BBDE8F0810A
:1014D000F168E388B5F8343F000000000000F83FF1
:1014E000014691F83C00704790F83C1007297CD2E7
:1014F000DFE801F07B04376A9FD2FD0090ED0D0A12
:10150000DFED9B0A20EE200AD0ED0E0A80EE201AB5
:1015100090ED030A21EE000A80ED090A90ED0D0A14
:10152000DFED930A20EE200AD0ED0E0A80EE201A9D
:1015300090ED020A21EE000A80ED0B0A90ED0D0AF3
:10154000D0ED090A30EE600AD0ED0B0A30EE600AE9
:10155000F0EE000A80EE201A80ED0C1A80ED051ADC
:1015600003E190ED0D0ADFED830A20EE200AD0EDB5
:101570000E0A80EE201A90ED030A21EE000A80ED9B
:10158000070A90ED0D0ADFED7B0A20EE200AD0ED70
:101590000E0A80EE201A90ED040A21EE000A80ED7A
:1015A0000B0A90ED0D0AD0ED070A30EE600AD0ED7F
:1015B0000B0A30EE600AF0EE000A80EE201A80ED91
:1015C0000C1A80ED051AD0E090ED0D0ADFED680AE7
:1015D00060EE200A90ED0E1A80EE810AD0ED020A2C
:1015E00020EE200A80ED070A00E0BDE090ED0D0A34
:1015F000DFED5F0A20EE200AD0ED0E0A80EE201A01
:1016000090ED040A21EE000A80ED080A90ED0D0A23
:10161000D0ED070A30EE600AD0ED080A30EE600A1D
:10162000F0EE000A80EE201A80ED0C1A80ED051A0B
:101630009BE090ED0D0ADFED4F0A20EE200A90EDC1
:101640000E1AC0EE010A90ED020A20EE800A80ED2B
:10165000060A90ED0D0ADFED470A20EE200A90ED14
:101660000E1AC0EE010A90ED030A20EE800A80ED0A
:10167000080A90ED0D0AD0ED060A30EE600AD0EDB2
:10168000080A30EE600AF0EE000A80EE201A80EDC3
:101690000C1A80ED051A68E090ED0D0ADFED340AB2
:1016A00060EE200A90ED0E1A80EE810AD0ED040A59
:1016B00020EE200A80ED060A90ED0D0ADFED2C0ADF
:1016C00060EE200A90ED0E1A80EE810AD0ED030A3A
:1016D00020EE200A80ED0A0A90ED0D0AD0ED060AF0
:1016E00030EE600AD0ED0A0A30EE600A00E008E051
:1016F000F0EE000A80EE201A80ED0C1A80ED051A3B
:1017000033E090ED0D0ADFED1B0A60EE200A90ED4C
:101710000E1A80EE810AD0ED040A20EE200A80ED38
:10172000090A90ED0D0ADFED130A20EE200AD0ED34
:101730000E0A80EE201A90ED020A21EE000A80EDDA
:101740000A0A90ED0D0AD0ED090A30EE600AD0EDDC
:101750000A0A30EE600AF0EE000A80EE201A80EDF0
:101760000C1A80ED051A00E000BF00BF70470000B2
:101770002DB2DD3F2DB2DDBF38B50246002000900E
:1017800000BF92F83C00012801D1022038BD0120A1
:1017900082F83C0000BF0868092816D91068C068A4
:1017A0000C780A3C04EB44050724AC40A0431468C1
:1017B000E0600C780A3C04EB44048868A04014689C
:1017C000E46820431468E06013E0106800690C7856
:1017D00004EB44050724AC40A043146820610C7856
:1017E00004EB44048868A04014682469204314680A
:1017F00020614868072817D21068406B0C79641E76
:1018000004EB84051F24AC40A0431468606308887F
:1018100080B20C79641E04EB8404A0401468646BED
:1018200020431468606331E048680D2817D21068BF
:10183000006B0C79E41F04EB84051F24AC40A0432B
:1018400014682063088880B20C79E41F04EB8404D8
:10185000A0401468246B20431468206316E01068CD
:10186000C06A0C790D3C04EB84051F24AC40A043F6
:101870001468E062088880B20C790D3C04EB8404A3
:10188000A0401468E46A20431468E062194B1A4CC3
:101890001068A04206D10868122803D1586840F4A5
:1018A00080005860144C1068A0421CD108681028B1
:1018B00002D00868112816D1586840F4000058601A
:1018C000086810280FD10D4800680D4CB0FBF4F0EB
:1018D00000EB80004000009002E00098401E009065
:1018E00000980028F9D100BF002082F83C0000BF1A
:1018F00000BF4BE700230140002001400C00002006
:1019000040420F00704770477047000070B50446B2
:1019100000250CB9012070BD1549A06A884200D08D
:1019200000BF206C30B9204600F024F8002060642D
:1019300084F83C00206C00F0100088B9206C20F482
:10194000885040F0020020642046FFF793F8002002
:101950006064206C20F0020040F00100206400E090
:10196000012500BF002084F83C0000BF2846D2E7D4
:101970000100000F10B586B00446142101A8FEF73F
:10198000F1FC5E492068884264D100BF00200090CD
:101990005B48006840F48070594908600846006858
:1019A00000F48070009000BF00BF00BF00200090D6
:1019B00053481438006840F0040051491439086055
:1019C0000846006800F00400009000BF00BF00BFA0
:1019D000002000900846006840F0020008600846B9
:1019E000006800F00200009000BF00BF30200190AE
:1019F000032002900020039001A9424801F030F832
:101A000001200190032002900020039001A93E488C
:101A100001F026F83D483E4908600020486000215A
:101A20003B488160C1604FF4806101618900416180
:101A3000890081618911C16149020162002141620D
:101A400000F02AFF08B1FFF7DCFB00BF3048A063BD
:101A5000846351E02F49206888424DD100BF0020A7
:101A600000902748006840F4007025490860084647
:101A7000006800F40070009000BF00BF00BF0020AD
:101A800000901F481438006840F004001C491439C5
:101A900008600846006800F00400009000BF00BF26
:101AA00007200190032002900020039001A915480F
:101AB00000F0D6FF15483030174908604FF000702D
:101AC0004860002114488160C1604FF48061016169
:101AD00089004161890081618911C1614902016206
:101AE0000021416200F0D8FE08B1FFF78AFB00BF79
:101AF0000948A063846300BF06B010BD0020014008
:101B000044380240000802400004024010640240D1
:101B10008C04002000210140EC040020F8B50446AC
:101B20000D4616460020009000BF94F83C000128A6
:101B300001D10220F8BD012084F83C0000BF2068DC
:101B4000806800F00100A0B92068806840F00100C2
:101B500021688860494800684949B0FBF1F000EB12
:101B60004000009002E00098401E0090009800287D
:101B7000F9D12068806800F0010000287CD0206C3A
:101B800040F20161884340F480702064206840681E
:101B900000F4806028B1206C20F4005040F48050A4
:101BA0002064206C00F48050B0F5805F04D1606C3C
:101BB00020F00600606401E00020606400BF0020A7
:101BC00084F83C0000BF2F4F2F48A16BC8632F48FB
:101BD000A16B08642E48A16BC8646FF022002168D5
:101BE00008602068406840F0806021684860206894
:101BF000806840F4807021688860226802F14C019E
:101C000033462A46A06B00F0BDFE786800F01F0046
:101C100018BB20492068884213D01F492068884299
:101C200004D1381D006800F01F0050B11B49206826
:101C3000884221D11348001D006800F01F001028C1
:101C40001AD22068806800F0405028B92068806867
:101C500040F08040216888600EE00E49206888428C
:101C60000AD12068806800F0405028B92068806858
:101C700040F080402168886000205BE70C00002075
:101C800040420F0000230140CF090008670A000806
:101C90004D0A0008002001400021014000220140BF
:101CA00010B5024692F82030012B01D0022B06D14C
:101CB00010684069084314686061002010BD506AD4
:101CC00040F4802050620120F8E7F0B504460D464C
:101CD0001E4694F8207020688368A86800B900E068
:101CE00000BF012F01D0022F7CD103F0806030B9FA
:101CF00003F0006018B903F08050002873D0C3F3DC
:101D00000161022905D9606A40F400006062012087
:101D1000F0BD012088403060A86860B9B5F800C007
:101D2000E86840EA4C5C206800F5C07000EB0110E8
:101D3000C0F800C00FE0D5E901C040EACC00D5F8FA
:101D40000CC040EA0C00D4F800C00CF5C07C0CEBD1
:101D5000011CCCF80000D5F810C0206800F5C07058
:101D600000EB0110C0F804C0287D01280ED12068C6
:101D700000F5C07000EB0110406840F4807C2068E2
:101D800000F5C07000EB0110C0F804C0D079000667
:101D900092F806C040EA0C4092F805C040EA0C2CCC
:101DA00010794CEA000C206800F5C07000EB0110BF
:101DB000C0F80CC0D078000692F802C040EA0C408F
:101DC00092F801C040EA0C2092F800C040EA0C00F2
:101DD000D4F800C00CF5C07C0CEB011CCCF808005A
:101DE000206801E016E00FE000F5C07000EB011084
:101DF000006840F0010C206800F5C07000EB011095
:101E0000C0F800C0002083E7606A40F40010606200
:101E100001207DE7606A40F480206062012077E75E
:101E2000F0B504460A46216894F82050012D01D0EF
:101E3000022D7ED1424901F50071086840F0010091
:101E40000860086820F47C5008600868566A40EA18
:101E500006200860107D00F01F06012000FA06F33E
:101E6000C8699843C861A1F50071D069C8B9D1F8B3
:101E70000C029843C1F80C02908880B2968940EA1F
:101E8000064601F51070576940F83760108880B237
:101E9000168940EA064601F51070576900EBC70045
:101EA0004660D069012819D1D1F80C021843C1F855
:101EB0000C02908880B2168840EA064601F5107040
:101EC000576940F83760908980B2168940EA064623
:101ED00001F51070576900EBC7004660906928B99A
:101EE000D1F804029843C1F8040204E0D1F80402D6
:101EF0001843C1F80402106928B9D1F814029843B4
:101F0000C1F8140204E0D1F814021843C1F8140215
:101F1000106A012804D1D1F81C021843C1F81C0230
:101F2000D1F8000220F00100C1F800020020F0BD4D
:101F3000FFE7606A40F4802060620120F7E700005C
:101F400000640040704770B5044694F82050012D9D
:101F500001D0022D7DD151B92068C06800F0030086
:101F600080B9606A40F400106062012070BD206892
:101F7000006900F0030028B9606A40F40010606254
:101F80000120F3E7206800F5D87000EB011000682D
:101F900000F004009060906840B9206800F5D870A7
:101FA00000EB01100068400D106007E0206800F5AC
:101FB000D87000EB01100068C0085060206800F580
:101FC000D87000EB0110006800F00200D0602068BB
:101FD00000F5D87000EB0110406800F00F001061B0
:101FE000206800F5D87000EB0110406800F47F40D5
:101FF000000A9061206800F5D87000EB011040687D
:10200000000C5061206800F5D87000EB011080686A
:102010001870206800F5D87000EB0110806800F49B
:102020007F40000A5870206800F5D87000EB01105E
:10203000806800F47F00000C9870206800F5D8706C
:1020400000EB01108068000ED870206800F5D87091
:1020500000E02FE000EB0110C0681871206800F567
:10206000D87000EB0110C06800F47F40000A58717E
:10207000206800F5D87000EB0110C06800F47F0004
:10208000000C9871206800F5D87000EB0110C06852
:10209000000ED87131B92068C06840F02000266871
:1020A000F06005E02068006940F02000266830619B
:1020B00000205BE7606A40F480206062012055E701
:1020C0000146002091F82020012A01D0022A11D1D6
:1020D0000B689B6803F0806303B1401C0B689B682E
:1020E00003F0006303B1401C0B689B6803F080534E
:1020F00003B1401C70472DE9F05F044600252068BD
:1021000046692068D0F80490206887682068D0F875
:102110000CA02068D0F810B02068D0F8188006F025
:102120000100002855D007F00100C0B1012021684E
:10213000886007F0020018B1204600F072FA0EE045
:1021400007F0040010B145F4006508E007F008004E
:1021500010B145F4805502E0204600F061FA07F422
:102160008070C8B14FF480702168886007F40070F7
:1021700018B1204600F057FA0EE007F4806010B165
:1021800045F4005508E007F4006010B145F48045BF
:1021900002E0204600F046FA07F48030C8B14FF460
:1021A00080302168886007F4003018B1204600F0C4
:1021B0003CFA0EE007F4802010B145F4004508E039
:1021C00007F4002010B145F4803502E0204600F00D
:1021D0002BFA06F0080038B10AF0100020B145F4DF
:1021E000007510202168C86006F0040040B10AF0B4
:1021F000080028B108202168C860204600F0A8F92E
:1022000006F0020038B12068C06800F0030010B189
:10221000204600F09FF906F0400038B10BF01000A6
:1022200020B145F4806510202168086106F0200087
:1022300040B10BF0080028B1082021680861204651
:1022400000F0BCF906F0100038B12068006900F019
:10225000030010B1204600F0B2F906F4003040B19E
:1022600009F0100028B1102021684860204600F0D5
:10227000A7F906F4803040B109F0080028B1082021
:1022800021684860204600F0D1F906F4004088B388
:1022900009F0040078B306F4807020B108F0010062
:1022A00008B145F0010506F4007020B108F0020005
:1022B00008B145F0020506F4806020B108F0040082
:1022C00008B145F0040506F40060A0B108F0700004
:1022D00088B108F07000402817D006DC10280BD019
:1022E00020280CD0302819D10CE0502810D06028BC
:1022F00014D110E01DE019E045F008050FE045F0AD
:1023000010050CE045F0200509E045F0400506E029
:1023100045F0800503E045F4807500E000BF00BF94
:102320002068806920F0700021688861042021689D
:1023300048602DB1606A284360622046FFF702FEC4
:10234000BDE8F09F70B504460CB9012070BD94F84B
:10235000200010B9204600F0AFF82068006820F097
:1023600002002168086000F081FC05460DE000F0E5
:102370007DFC401B0A2808D9606A40F40030606286
:10238000052084F820000120E0E72068406800F084
:1023900002000028EBD12068006840F001002168AD
:1023A000086000F063FC05460DE000F05FFC401B98
:1023B0000A2808D9606A40F400306062052084F879
:1023C00020000120C2E72068406800F001000028DA
:1023D000EBD0207E012806D12068006840F0800004
:1023E0002168086005E02068006820F0800021680E
:1023F0000860607E012806D12068006840F0400037
:102400002168086005E02068006820F0400021682D
:102410000860A07E012806D12068006840F02000F6
:102420002168086005E02068006820F0200021682D
:102430000860E07E012806D12068006820F01000C6
:102440002168086005E02068006840F010002168FD
:102450000860207F012806D12068006840F008004D
:102460002168086005E02068006820F00800216805
:102470000860607F012806D12068006840F00400F1
:102480002168086005E02068006820F004002168E9
:102490000860D4E9020108432169084361690843DF
:1024A0006168491E08432168C861002060620120FC
:1024B00084F82000002049E710B586B004461421B6
:1024C00001A8FDF74FFF1F492068884238D100BF9F
:1024D000002000901C48006840F000701A49086015
:1024E0000846006800F00070009000BF00BF00BF09
:1024F0000020009014481038006840F00100124994
:10250000103908600846006800F00100009000BF24
:1025100000BF4FF4C05001900220029000200390B1
:10252000032004900920059001A9084800F098FABA
:1025300000220721142000F023FC142000F010FCDE
:1025400006B010BD00640040403802400000024068
:10255000704700007CB505460E492868884218D1AE
:1025600000266B460C4A00210C48FFF7ECFC0C4897
:10257000067C002407E01DF80420214609A004F091
:10258000F7F9601CC4B2B442F5DB0BA004F0F0F91B
:1025900000BF7CBD00640040AC0B00204C05002057
:1025A000940B0020646174615B25645D203D2025EF
:1025B00063202020200000000D0A000070477047B3
:1025C000704770B5044694F82000012822D10220FB
:1025D00084F820002068006820F00100216808606D
:1025E00000F044FB05460DE000F040FB401B0A28CC
:1025F00008D9606A40F400306062052084F8200049
:10260000012070BD2068406800F001000028EBD177
:102610006062F6E7606A40F4002060620120F0E743
:102620007047704770477047704770477047014662
:1026300091F83500022803D08020486501207047BA
:10264000052081F835000868006820F001000A685C
:1026500010600020F3E70000F8B504460020009069
:102660008C4800684FF41651B0FBF1F7A56D2E6849
:1026700094F85C1008208840304098B120680068C9
:1026800000F0040070B12068006820F004002168A8
:10269000086094F85C1008208840A860606D40F0E5
:1026A0000100606594F85C1001208840304068B1FA
:1026B0002068406900F0800040B194F85C1001206F
:1026C0008840A860606D40F00200606594F85C107E
:1026D00004208840304068B12068006800F00200A3
:1026E00040B194F85C1004208840A860606D40F010
:1026F0000400606594F85C1010208840304078B386
:102700002068006800F0080050B394F85C101020B6
:102710008840A8602068006800F4802080B12068AC
:10272000006800F4002028B9206CC8B12046216C54
:10273000884715E0A06C98B12046A16C88470FE04F
:102740002068006800F4807028B92068006820F0D4
:10275000080021680860206C10B12046216C884771
:1027600094F85C10202088403040002865D0206814
:10277000006800F0100000285FD094F85C10202062
:102780008840A86094F83500052828D120680068A2
:1027900020F01600216808602068406920F0800061
:1027A00021684861206C08B9A06C28B120680068D5
:1027B00020F008002168086094F85C103F208840F1
:1027C000A86000BF002084F8340000BF012084F816
:1027D0003500206D10B12046216D8847F8BD206876
:1027E000006800F4802080B12068006800F40020B8
:1027F00028B9606C10B12046616C88471DE0E06B21
:10280000D8B12046E16B884717E02068006800F4E3
:10281000807068B92068006820F0100021680860A6
:1028200000BF002084F8340000BF012084F8350088
:10283000E06B10B12046E16B8847606D38B3606D86
:1028400000F00100F0B1052084F835002068006830
:1028500020F001002168086000BF0098401C009033
:10286000B84200D905E02068006800F001000028A7
:10287000F3D100BF00BF002084F8340000BF012066
:1028800084F83500E06C10B12046E16C884700BF49
:10289000A4E700000C0000202DE9F04104460025CB
:1028A00000F0E4F9074614B90120BDE8F081606A40
:1028B00000B100BF00BF002084F8340000BF022038
:1028C00084F835002068006820F001002168086065
:1028D0000AE000F0CBF9C01B052805D9202060656F
:1028E000032084F83500E0E72068006800F001006C
:1028F0000028EED12068056821480540D4E901018F
:102900000843E16808432169084361690843A169F4
:102910000843E1690843216A08430543606A0428C3
:1029200003D1D4E90B010843054320680560206802
:10293000456925F00705606A0543606A04280DD1E2
:10294000A06A0543E06A48B12046FEF7DFFB28B1E4
:1029500040206065012084F83500A6E720684561C5
:102960002046FEF7B9FB064694F85C103F208840ED
:10297000B06000206065012084F83500002094E7F5
:102980003F8010F02DE9F04704460D4616461F46DD
:102990004FF00008D4F8589000BF94F83400012894
:1029A00002D10220BDE8F087012084F8340000BF86
:1029B00094F83500012825D1022084F83500002044
:1029C00060653B46324629462046FEF7F4FB94F804
:1029D0005C103F208840C9F808002068006840F07B
:1029E000160021680860206C28B12068006840F05B
:1029F0000800216808602068006840F00100216834
:102A0000086006E000BF002084F8340000BF4FF0EB
:102A100002084046C6E7000070B5044600F026F9FB
:102A200006462546681C10B104480078054400BFDE
:102A300000F01CF9801BA842FAD370BD08000020EA
:102A40007047000010B5044604480068204020B1DB
:102A5000024804602046FFF7F3FF10BD143C01401C
:102A6000F8B502460B460025002400200021DCE0DA
:102A7000012606FA01F51E6806EA0504AC4273D188
:102A80005E68012E08D05E68022E05D05E68112EA9
:102A900002D05E68122E13D190684F000326BE400C
:102AA000B0434F00DE68BE4030439060506801265E
:102AB0008E40B0431E79C6F300168E4030435060FE
:102AC000D0684F000326BE40B0434F009E68BE4012
:102AD0003043D0605E68022E02D05E68122E13D1A1
:102AE000CF0802F1200656F827004E07F70E0F26F2
:102AF000BE40B0434F07FF0E1E69BE403043CF08B3
:102B000002F1200646F8270010684F000326BE4059
:102B1000B0431E7906F003064F00BE4030431060FC
:102B20005E6806F08056B6F1805F7DD100BF00265A
:102B30000096404E366846F480463E4F3E603E4624
:102B4000366806F48046009600BF00BF3A4E8F08F4
:102B500056F827008E07370F0F26BE40B043374E7A
:102B6000B24202D1002624E05EE0354EB24201D1ED
:102B700001261EE0334EB24201D1022619E0324E48
:102B8000B24201D1032614E0304EB24201D10426F4
:102B90000FE02F4EB24201D105260AE02D4EB2427F
:102BA00001D1062605E02C4EB24201D1072600E0F5
:102BB00008268F073F0FBE4030431F4E8F0846F850
:102BC0002700264E3068A0435E6806F48036B6F5CE
:102BD000803F00D12043214E3060361D3068A04335
:102BE0005E6806F40036B6F5003F00D120431B4E68
:102BF000361D3060361D3068A0435E6806F48016CE
:102C0000B6F5801F00D12043144E08363060361DC3
:102C10003068A0435E6806F40016B6F5001F00D1C8
:102C200020430E4E0C363060491C1029FFF420AFB3
:102C3000F8BD00004438024008380140000002405E
:102C40000004024000080240000C02400010024054
:102C50000014024000180240001C0240003C0140E9
:102C60000AB1816101E00B0483617047014800688B
:102C700070470000000000200348006803490978FD
:102C80000844014908607047000000200800002047
:102C900010B50D48006840F400700B490860084604
:102CA000006840F4806008600846006840F4807066
:102CB0000860032000F0A2F8002000F007F800F000
:102CC0002BF8002010BD0000003C024070B5044607
:102CD0000E4800784FF47A71B1FBF0F00C490968A6
:102CE000B1FBF0F5284600F0E7FC08B1012070BD0B
:102CF000102C07D200222146501E00F041F8054852
:102D0000046001E00120F2E70020F0E70800002065
:102D10000C0000200400002008B500BF0020009037
:102D20000E48006840F480400C490860084600687E
:102D300000F48040009000BF00BF00BF0020009062
:102D4000081F006840F08050091F086008460068AE
:102D500000F08050009000BF00BF08BD4438024022
:102D600001460846002809DB00F01F0301229A40B3
:102D700043099B0003F1E023C3F8002100BF704723
:102D80002DE9F05F80460D461646002703F000FE51
:102D9000074639462A46334601F00700C0F1070AC4
:102DA000BAF1040F02D94FF0040A01E0C0F1070A9A
:102DB000D14600F1040ABAF1070F02D24FF0000A1F
:102DC00001E0A0F1030AD4464FF0010A0AFA09FA19
:102DD000AAF1010A0AEA020A0AFA0CFA4FF0010BF8
:102DE0000BFA0CFBABF1010B0BEA030B4AEA0B04E9
:102DF0002146404603F0D4FDBDE8F09F00BF00F03F
:102E00000702064B19684FF6FF031940044B0B43AA
:102E100043EA0221014B196000BF70470CED00E04E
:102E20000000FA0570B504460D460CB9012070BDCE
:102E30005848006800F00F00A84209D255490D70AB
:102E40000846006800F00F00A84201D00120EEE71C
:102E5000207800F0020002281DD1207800F0040044
:102E6000042805D14C48006840F4E0504A49086005
:102E7000207800F00800082805D14748006840F491
:102E80006040454908604448006820F0F000A168AF
:102E9000084341490860207800F00100A8B3606849
:102EA000012807D13C4808380068C0F34040B8B951
:102EB0000120BCE76068022802D06068032807D1BF
:102EC000354808380068C0F3406048B90120AEE7D3
:102ED000314808380068C0F3400008B90120A6E76F
:102EE0002D48006820F00300616808432A49086003
:102EF000FFF7BCFE064609E0FFF7B8FE801B41F273
:102F00008831884202D9032091E707E0224800680F
:102F100000F00C006168B0EB810FEDD11D48006836
:102F200000F00F00A84209D91A490D700846006840
:102F300000F00F00A84201D0012078E7207800F0CF
:102F40000400042807D11448006820F4E050E16828
:102F5000084311490860207800F00800082808D1CB
:102F60000D48006820F46040216940EAC1000A4928
:102F7000086000F03FF808490968C1F30311074AE7
:102F8000515CC8400649086006480068FFF79EFE8D
:102F900000204CE7003C024008380240EC72000878
:102FA0000C00002004000020014800687047000069
:102FB0000C00002000B5FFF7F7FF04490968C1F3D2
:102FC0008221034A515CC84000BD0000083802401D
:102FD000FC72000800B5FFF7E7FF04490968C1F378
:102FE0004231034A515CC84000BD0000083802402D
:102FF000FC7200082DE9F047002400250026A146B8
:103000002548006800F00C0020B1042805D00828ED
:103010003AD105E0DFF8849039E0DFF8849036E0BB
:103020001D48001F006800F03F041B48001F006897
:1030300000F4800078B11A481749091F0968C1F3E4
:103040008811A0FB01700146224600233846FDF797
:103050003FF905460EE011480F49091F0968C1F301
:103060008811A0FB01700146224600233846FDF777
:103070002FF905460848001F0068C0F30140401CB6
:103080004600B5FBF6F902E0DFF8109000BF00BF84
:103090004846BDE8F0870000083802400024F400EC
:1030A00000127A00F8B504460CB90120F8BD20786A
:1030B00000F00100002874D0F948006800F00C000E
:1030C00004280DD0F648006800F00C00082813D141
:1030D000F348001F006800F48000B0F5800F0BD1AA
:1030E000EF4808380068C0F34040002859D06068B5
:1030F000002856D10120D9E700BF6068B0F5803FB5
:1031000008D1E7480838006840F48030E4490839BD
:1031100008601EE06068B0F5A02F0DD1E0480838C7
:10312000006840F48020DE490839086008460068DD
:1031300040F4803008600CE0D9480838006820F47A
:103140008030D749083908600846006820F480209C
:10315000086000BF606890B1FFF788FD054606E093
:10316000FFF784FD401B642801D903209EE7CC486B
:1031700008380068C0F340400028F1D011E0FFF7A4
:1031800075FD054606E0FFF771FD401B642801D977
:1031900003208BE7C24808380068C0F3404000288D
:1031A000F1D1207800F0020002285FD1BC4800680D
:1031B00000F00C0058B1BA48006800F00C00082874
:1031C0001CD1B748001F006800F48000B0B9B448B3
:1031D00008380068C0F3400020B1E068012801D041
:1031E000012063E7AE480838006820F0F800216944
:1031F00040EAC100AA490839086037E0E06800B336
:103200000120A8490860FFF731FD054606E0FFF7F9
:103210002DFD401B022801D9032047E7A0480838AC
:103220000068C0F340000028F1D09D4808380068CD
:1032300020F0F800216940EAC10099490839086086
:1032400014E0002097490860FFF710FD054606E0EE
:10325000FFF70CFD401B022801D9032026E7904808
:1032600008380068C0F340000028F1D1207800F051
:10327000080008282CD16069A8B101208A4908609B
:10328000FFF7F4FC054606E0FFF7F0FC401B0228C0
:1032900001D903200AE782486C300068C0F340007F
:1032A0000028F1D014E000207F490860FFF7DEFC21
:1032B000054606E0FFF7DAFC401B022801D903208F
:1032C000F4E677486C300068C0F340000028F1D184
:1032D000207800F00400042870D1002770483830AE
:1032E000006800F0805090B900BF002000906C484A
:1032F0003830006840F0805069493831086008462D
:10330000006800F08050009000BF00BF01276748B0
:10331000006800F48070B0B96448006840F48070C0
:1033200062490860FFF7A2FC054606E0FFF79EFC35
:10333000401B022801D90320B8E65C48006800F46D
:1033400080700028F2D000BFA068012808D154483E
:103350006830006840F001005149683108601DE0A4
:10336000A06805280DD14E486830006840F0040080
:103370004B49683108600846006840F00100086069
:103380000CE047486830006820F00100444968318B
:1033900008600846006820F00400086000BFA068CC
:1033A000A8B1FFF763FC054609E0FFF75FFC401B8F
:1033B00041F28831884202D9032077E626E0384876
:1033C00068300068C0F340000028EED013E0FFF73B
:1033D0004DFC054608E0FFF749FC401B41F28831EF
:1033E000884201D9032061E62D4868300068C0F3A7
:1033F00040000028EFD1012F07D12948383000685C
:1034000020F0805026493831086000BFA0690028AC
:1034100045D02348006800F00C0008285DD0A06962
:10342000022845D100201F490866FFF71FFC05460A
:1034300006E0FFF71BFC401B022801D9032035E6FC
:10344000174808380068C0F340600028F1D1D4E97B
:1034500007010843616A40EA81110122A06AC2EBB8
:10346000500041EA00412C20005D41EA00600C4917
:10347000091F086001200B490866FFF7F7FB0546A6
:1034800006E0FFF7F3FB401B022801D903200DE6FD
:10349000034808380068C0F340600028F1D03FE0DE
:1034A0000838024000004742800E4742007000404A
:1034B00000201C490866FFF7D9FB054606E0FFF728
:1034C000D5FB401B022801D90320EFE51648006810
:1034D000C0F340600028F2D122E0A069012800D1A9
:1034E000E4E51148001D066806F48001E0698142A8
:1034F00014D106F03F01206A81420FD147F6C07017
:103500003040616A884209D106F44031A06A8142A4
:1035100004D106F07061E06A814201D00120C5E566
:103520000020C3E5000047420038024010B50446C1
:103530000CB9012010BD606A00B900BF0021A16272
:1035400094F8510028B9002084F85000204600F07B
:1035500033F8022084F851002068006820F0400011
:1035600021680860D4E901010843E1680843216942
:10357000084361690843218B01F400710843E16944
:103580000843216A0843A16A0843216808600421AE
:10359000A06901EA1040616A084321684860206818
:1035A000C06920F400602168C861002060650120C6
:1035B00084F851000020BDE710B586B00446142100
:1035C00001A8FCF7CFFE37492068884230D100BF00
:1035D000002000903448006840F480503249086070
:1035E0000846006800F48050009000BF00BF00BF94
:1035F000002000902C481438006840F001002A494F
:10360000143908600846006800F00100009000BF0F
:1036100000BFE020019002200290002003900320D0
:1036200004900520059001A92048FFF719FA36E01B
:103630001F492068884232D100BF002000901A48FC
:10364000001F006840F480401749091F08600846C1
:10365000006800F48040009000BF00BF00BF002061
:10366000009011481438006840F002000E491439E7
:1036700008600846006800F00200009000BF00BF2C
:103680004FF460400190022002900020039003203C
:1036900004900520059001A90648FFF7E1F906B05E
:1036A00010BD0000003001404438024000000240DC
:1036B000003800400004024070B504462546681EEC
:1036C000B0F1807F01D301200FE0681E4FF0E021B0
:1036D00048610F214FF0FF3003F062F900204FF0F6
:1036E000E021886107200861002070BD70477047A5
:1036F00010B50346002200BF93F83C00012801D119
:10370000022010BD012083F83C0000BF22F0FF0022
:10371000CC6840EA040222F440708C6840EA04025B
:1037200022F480604C6840EA040222F400600C68D5
:1037300040EA040222F480500C6940EA040222F4B8
:1037400000504C6940EA040222F48040CC6940EA0F
:1037500004021868426400BF002083F83C0000BFE8
:1037600000BFCEE730B502460B4600BF92F83C00E2
:10377000012801D1022030BD012082F83C0000BFA9
:10378000022082F83D00106844681068816824F0C7
:1037900070041868044310684460184D1068A8420B
:1037A0001BD01068B0F1804F17D0154D1068A8429B
:1037B00013D0144D1068A8420FD0134D1068A842C2
:1037C0000BD0124D1068A84207D0114D1068A842C6
:1037D00003D0104D1068A84205D121F0800158682F
:1037E000014310688160012082F83D0000BF002085
:1037F00082F83C0000BF00BFBDE7000000000140B0
:103800000004004000080040000C0040000401409B
:10381000004001400018004010B504460CB90120DA
:1038200010BD94F83D0028B9002084F83C002046E3
:1038300000F00CF8022084F83D00211D206802F001
:10384000BBFB012084F83D000020E9E738B50446C1
:103850000E492068884217D100BF002000900C4814
:10386000006840F002000A4908600846006800F05D
:103870000200009000BF00BF002206211D20FFF7BC
:103880007FFA1D20FFF76CFA38BD000000040040ED
:103890004038024001460868C06840F001000B68EB
:1038A000D8600868806800F00702062A05D008681A
:1038B000006840F001000B681860002070472DE997
:1038C000F04104460D4614B90120BDE8F08194F89A
:1038D0003D0028B9002084F83C00204600F046F85E
:1038E000022084F83D002068806844F20701884384
:1038F00021688860211D206802F05EFB2068D0F8F6
:103900000880206886692068076A286840EA0808F5
:1039100040F203308643A969A86840EA01200643C3
:1039200040F60C4086434FF2F0008643E969E868B0
:1039300040EA0120064328690001296A40EA013073
:10394000064327F0220727F088076969686840EA7C
:10395000011007432068C0F808802068866120684D
:103960000762012084F83D000020AEE710B586B064
:103970000446142101A8FCF7F5FC2068B0F1804F43
:103980002FD100BF002000903148006840F00100B6
:103990002F4908600846006800F00100009000BF51
:1039A00000BF00BF0020009029481038006840F098
:1039B00001002749103908600846006800F001003E
:1039C000009000BF00BF0320019002200290002061
:1039D000039004900120059001A91E48FFF740F8CC
:1039E00033E01D49206888422FD100BF002000909D
:1039F0001748006840F00400154908600846006850
:103A000000F00400009000BF00BF00BF0020009045
:103A10000F481038006840F008000D491039086060
:103A20000846006800F00800009000BF00BF4FF497
:103A30004050019002200290002003900490022048
:103A4000059001A90548FFF70BF806B010BD00006E
:103A5000403802400000024000080040000C0240D4
:103A600030B504460D4615B1042D0CD105E00122F8
:103A70000021206802F00CFB10E0012204212068E4
:103A800002F006FB0AE001220021206802F000FBA0
:103A900001220421206802F0FBFA00BF00BF206869
:103AA000006840F0010021680860002030BD7047C8
:103AB00010B5044620680069C0F34000D8B1206802
:103AC000C068C0F34000B0B16FF002002168086127
:103AD000012020772068806900F0030018B120469B
:103AE000FFF7E5FF05E0204600F006F9204600F06C
:103AF000C7F90020207720680069C0F38000D8B1A2
:103B00002068C068C0F38000B0B16FF00400216885
:103B10000861022020772068806900F4407018B1A5
:103B20002046FFF7C4FF05E0204600F0E5F82046F8
:103B300000F0A6F90020207720680069C0F3C000DB
:103B4000D8B12068C068C0F3C000B0B16FF0080001
:103B500021680861042020772068C06900F0030014
:103B600018B12046FFF7A3FF05E0204600F0C4F897
:103B7000204600F085F90020207720680069C0F316
:103B80000010D8B12068C068C0F30010B0B16FF069
:103B9000100021680861082020772068C06900F4BF
:103BA000407018B12046FFF782FF05E0204600F084
:103BB000A3F8204600F064F900202077206800690F
:103BC00000F0010058B12068C06800F0010030B179
:103BD0006FF0010021680861204600F07FF920683D
:103BE0000069C0F3C01058B12068C068C0F3C010AD
:103BF00030B16FF08000216808612046FFF776FD44
:103C000020680069C0F3801058B12068C068C0F314
:103C1000801030B16FF0400021680861204600F04C
:103C200094F920680069C0F3401058B12068C0685A
:103C3000C0F3401030B16FF02000216808612046C9
:103C4000FFF755FD10BD000010B586B004461421E5
:103C500001A8FCF787FB2349206888421ED100BFDA
:103C6000002000902048006840F010001E490860C5
:103C70000846006800F01000009000BF00BF4FF43D
:103C8000285001900220029000200390049001200F
:103C9000059001A91548FEF7E3FE21E014492068CC
:103CA00088421DD100BF002000900F48006840F0FE
:103CB00004000D4908600846006800F00400009008
:103CC00000BF00BF4FF4E07001900220029000207E
:103CD000039004900220059001A90648FEF7C0FE5B
:103CE00006B010BD00000140303802400010024014
:103CF0000004004000080240704770B504460D46BD
:103D0000164600BF94F83C00012801D1022070BD86
:103D1000012084F83C0000BF022084F83D0036B149
:103D2000042E1BD0082E31D00C2E5ED145E0294642
:103D3000206802F0C9F92068806940F00800216815
:103D400088612068806920F004002168886120680B
:103D50008069296908432168886147E0294620680D
:103D600002F0EAF92068806940F400602168886107
:103D70002068806920F480602168886120688069FB
:103D8000296940EA0120216888612FE029462068DE
:103D900002F010FA2068C06940F008002168C8618C
:103DA0002068C06920F004002168C8612068C069EB
:103DB000296908432168C86118E02946206802F093
:103DC00035FA2068C06940F400602168C861206845
:103DD000C06920F480602168C8612068C0692969D1
:103DE00040EA01202168C86100E000BF00BF012057
:103DF00084F83D0000BF002084F83C0000BF00BFF5
:103E000085E710B504460CB9012010BD94F83D00BB
:103E100028B9002084F83C00204600F00DF802206C
:103E200084F83D00211D206802F0C6F8012084F8C6
:103E30003D000020E9E7000038B504460E4920683F
:103E4000884217D100BF002000900C48006840F065
:103E500001000A4908600846006800F0010000906F
:103E600000BF00BF002204211920FEF789FF19209E
:103E7000FEF776FF38BD00000000014044380240E4
:103E80007047000070B504460E4601223146206896
:103E900002F0FEF80F492068884203D00E492068DE
:103EA000884201D1012000E0002028B12068406C48
:103EB00040F40040216848642068806800F00705ED
:103EC000062D05D02068006840F0010021680860D8
:103ED000002070BD0000014000040140704770B533
:103EE00004460D4600BF94F83C00012801D1022091
:103EF00070BD012084F83C0000BF022084F83D0022
:103F00002946204602F0BCF948B1012084F83D0062
:103F100000BF002084F83C0000BF0120E8E72068D3
:103F2000C06820F040002168C8602068C06820F4A4
:103F300080402168C860012084F83D0000BF002057
:103F400084F83C0000BF00BFD2E770477047000014
:103F50002DE9F0470446206805682068C668206897
:103F600047694FF00008C14605F00F08B8F1000F8F
:103F70000AD105F0200038B106F0200020B120461B
:103F800002F024FABDE8F087B8F1000F72D007F014
:103F9000010018B906F4907000286BD005F00100FC
:103FA00030B106F4807018B1E06B40F00100E063BE
:103FB00005F0040030B107F0010018B1E06B40F0EB
:103FC0000200E06305F0020030B107F0010018B113
:103FD000E06B40F00400E06305F0080048B106F033
:103FE000200010B907F0010018B1E06B40F00800A4
:103FF000E063E06B70B305F0200028B106F020000C
:1040000010B1204602F0E2F920684069C0F380193F
:10401000E06B00F0080010B9B9F1000F23D0204682
:1040200002F0B4F92068406900F04000402816D141
:104030002068406920F0400021684861606B50B101
:104040001748616B0865606BFEF7F1FA10B1606BA1
:10405000016D88470CE02046FFF778FF08E0204616
:10406000FFF774FF04E02046FFF770FF0020E063D5
:1040700088E7FFE705F0800030B106F0800018B156
:10408000204602F0EBFB7DE705F0400030B106F082
:10409000400018B1204602F089F973E700BF71E7CC
:1040A0007963000810B504460CB9012010BDA06961
:1040B00000B100E000BF94F8390028B9002084F86E
:1040C0003800204600F028F8242084F839002068C1
:1040D000C06820F400502168C860204602F0CAF988
:1040E0002068006920F490402168086120684069D8
:1040F00020F02A00216848612068C06840F4005020
:104100002168C8600020E063202084F8390084F82A
:104110003A000020CAE7000010B586B0044614211A
:1041200001A8FCF71FF91F492068884238D100BF59
:10413000002000901C48006840F010001A490860F8
:104140000846006800F01000009000BF00BF00BFEC
:104150000020009014481438006840F00100124913
:10416000143908600846006800F00100009000BFA4
:1041700000BF4FF4C0600190022002900020039025
:10418000032004900720059001A90848FEF768FC69
:10419000002208212520FEF7F3FD2520FEF7E0FD93
:1041A00006B010BD0010014044380240000002403B
:1041B0007047704700BFFEE710B52DED028B044637
:1041C000B0EE408AB0EE480A2146034801F08EFB6B
:1041D000BDEC028B10BD00009000002010B5B7EEC2
:1041E000000A0220FFF7E8FF10BD000010B50248EA
:1041F00000F004F810BD00009000002010B5044647
:104200001049E0680968081A00EE100AB8EE400A82
:10421000D4ED010A9FED0C1A60EE810AB4EEE00ABB
:10422000F1EE10FA01DB012000E0002040B105486A
:104230000068E0602078022802D1204600F006F8ED
:1042400010BD00007403002000007A4410B504463D
:10425000607808B9012000E0002060706078216972
:10426000884710BD10B51E2400F054FD00F0AEFFCD
:1042700000F010FC00F06AFE00F0D0FD01F02AF81A
:1042800002F066FBFCF704FD10BD000010B5064807
:1042900004680648006800F5FA70844203D3FCF70E
:1042A00007FD0248046010BD34000020100000200B
:1042B0001FB50020009001900290039021482249F0
:1042C00008604FF48030486000211F488160012160
:1042D00001610021017680F82010C1621B498162D2
:1042E0000021C1600321C161012180F8301000214B
:1042F0004161FDF70BFB08B1FCF783FF0E20009036
:10430000012001900020029069460F48FDF734FA21
:1043100008B1FCF776FF0F2000900220019069465B
:104320000948FDF729FA08B1FCF76BFF0820009057
:104330000320019069460448FDF71EFA08B1FCF716
:1043400060FF1FBD00200140FC0300200100000FA2
:104350001FB500200090019002900390214822494F
:1043600008604FF48030486000211F4881600121BF
:1043700001610021017680F82010C1621B49816231
:104380000021C1600321C161012180F830100021AA
:104390004161FDF7BBFA08B1FCF733FF0A2000903A
:1043A000012001900020029069460F48FDF7E4F9D2
:1043B00008B1FCF726FF0B2000900220019069460F
:1043C0000948FDF7D9F908B1FCF71BFF0C20009054
:1043D0000320019069460448FDF7CEF908B1FCF7C7
:1043E00010FF1FBD00210140440400200100000F08
:1043F00010B50E480E4908600720486000210C489F
:104400008160C1604FF4802101614FF4A0014161DE
:104410000021017641768176C17601774177FDF7FB
:1044200091FF08B1FCF7EDFE10BD000000640040F4
:104430004C05002008B500BF002000900E48006821
:1044400040F480000C4908600846006800F48000D1
:10445000009000BF00BF002203213820FEF790FC2F
:104460003820FEF77DFC002205213A20FEF788FC6B
:104470003A20FEF775FC08BD3038024000B587B021
:10448000142102A8FBF76EFF00BF002001906F48C7
:10449000006840F080006D4908600846006800F040
:1044A0008000019000BF00BF00BF002001900846BF
:1044B000006840F0040008600846006800F004004E
:1044C000019000BF00BF00BF0020019008460068B7
:1044D00040F0010008600846006800F0010001900B
:1044E00000BF00BF00BF002001900846006840F0F8
:1044F000020008600846006800F00200019000BF5A
:1045000000BF00BF002001900846006840F0100086
:1045100008600846006800F01000019000BF00BF6E
:1045200000BF002001900846006840F008000860C5
:104530000846006800F00800019000BF00BF01229B
:1045400010214348FEF78CFB00224FF48071414854
:10455000FEF786FB012211033F48FEF781FB002294
:104560004FF400713D48FEF77BFB002210213C48D0
:10457000FEF776FB042002903A4803900020049056
:1045800002A93348FEF76CFA102002900120039034
:1045900004900220059002A92D48FEF761FA4FF41D
:1045A000807002900120039000200490059002A9E1
:1045B0002848FEF755FA4FF48050029001200390EE
:1045C00004900220059002A92348FEF749FA4FF40F
:1045D00000600290234803900020049002A9204824
:1045E000FEF73EFA4FF40070029001200390002085
:1045F0000490059002A91948FEF732FA0F200290A4
:10460000002003900120049002A91548FEF728FA23
:10461000102002900120039000200490059002A930
:104620000F48FEF71DFA002201210820FEF7A8FB23
:104630000820FEF795FB002202212820FEF7A0FBB0
:104640002820FEF78DFB07B000BD00003038024087
:104650000000024000100240000402400008024036
:10466000000C02400000111010B5104810490860FD
:104670004FF48270486000210D4881604FF4006162
:10468000C16000210161012141614902816118215C
:10469000C16100210162416281620A21C162FEF7AB
:1046A00045FF08B1FCF7ADFD10BD00000030014032
:1046B0007405002010B51048104908604FF482704E
:1046C000486000210D4881604FF40061C160002105
:1046D000016101214161490281611021C161002113
:1046E0000162416281620A21C162FEF71FFF08B1C7
:1046F000FCF787FD10BD000000380040CC0500200D
:1047000000B591B000200F9010901C2108A8FBF775
:1047100029FE20216846FBF725FE2C482C4908601D
:104720000120486040212A48816041F26701C16050
:1047300000210161416180218161FFF762FB08B1C5
:10474000FCF75FFD20200F90802010900FA92048DB
:10475000FFF708F808B1FCF754FD6020089000202E
:1047600009900A900B900C900D900E90002208A9D1
:104770001748FFF7C2FA08B1FCF743FD042208A965
:104780001348FFF7BAFA08B1FCF73BFD082208A965
:104790000F48FFF7B2FA08B1FCF733FD0020009094
:1047A00001900290039004904FF400500590002077
:1047B000079069460648FEF79BFF08B1FCF721FD0C
:1047C0000348FFF741FA11B000BD000000000140AE
:1047D0002406002000B58BB0242102A8FBF7C2FDFF
:1047E0000020009001904FF08040174908600020A1
:1047F000486000211448816044F62061C1600021B6
:104800000161816101200290002003900120049049
:104810000020059006900790012008900020099044
:104820000A9002A90848FFF74AF808B1FCF7E9FC2A
:1048300000200090019069460348FEF793FF08B1FD
:10484000FCF7DFFC0BB000BD6406002000B58FB0A4
:1048500014210AA8FBF786FD0020089009901C216E
:1048600001A8FBF77FFD294829490860002048601E
:1048700040212748816041F26701C1600021016148
:1048800080218161FEF7C8FF08B1FCF7BAFC20481F
:10489000FFF7B7FA08B1FCF7B4FC06200A90002035
:1048A0000B900AA91A48FFF71AFB08B1FCF7A9FCFC
:1048B000202008900020099008A91548FEF752FF13
:1048C00008B1FCF79EFC602001900020029003904C
:1048D0000590002201A90E48FFF70FFA08B1FCF776
:1048E00090FC042201A90A48FFF707FA08B1FCF777
:1048F00088FC082201A90648FFF7FFF908B1FCF778
:1049000080FC0348FFF7A0F90FB000BD0004004091
:10491000A406002000B58BB0242102A8FBF722FDDD
:104920000020009001901848184908600020486055
:1049300000211648816044F62061C16000210161B8
:10494000816101200290002003900120049000204A
:1049500005900690079001200890002009900A9089
:1049600002A90A48FEF7ABFF08B1FCF74AFC002099
:104970000090019069460548FEF7F4FE08B1FCF787
:1049800040FC0BB000BD000000080040E406002021
:1049900010B50B480B4908604FF4E1304860002126
:1049A00008488160C16001610C2141610021816181
:1049B000C161FFF777FB08B1FCF723FC10BD0000D5
:1049C000001001402407002000BFFEE710B50322BD
:1049D00002490348FDF7A2F810BD0000640700205B
:1049E000FC03002008480068A0F500600649C86084
:1049F00008464068A0F50060086108468068A0F598
:104A000000604861704700006407002010B5012075
:104A100000F00CF99FED130A00F088FF9FED120AD9
:104A200000F0ACFF9FED100A00F0D0FF4FF4FA70D9
:104A3000FDF7F2FF002406E00A20FDF7EDFF00F08D
:104A400007FA601CC4B20A2CF6DB9FED080A00F0DE
:104A50006DFF9FED060A00F091FF9FED040A00F044
:104A6000B5FF10BD0000A042000020420000000081
:104A700010B50748007930B900F0A4F9044908607E
:104A80000120087103E00249086800F0F5F910BD43
:104A900014000020002002490860087170470000DF
:104AA0001400002010B501210A4800F0F2FEDFEDED
:104AB0000A1A9FED0A1ADFED0A0A9FED090A054856
:104AC00000F0D1FEDFED050A9FED040A014800F079
:104AD000DBFE10BDF00000206991DD400000000009
:104AE000BC74933C10B50248FCF78CFB10BD000071
:104AF000F000002010B50248FCF7CEFB10BD00000E
:104B0000F000002010B5FFF7F5FFDFED020A30EEF0
:104B1000600A10BD0000344310B52DED028BFFF785
:104B2000E9FF184880ED000A90ED000A1648D0ED24
:104B3000000A30EE600AB0EE408A9FED140AB4EE2F
:104B4000C08AF1EE10FA05D29FED110A38EE000A84
:104B5000B0EE408A9FED0F0AB4EEC08AF1EE10FA73
:104B600005DD9FED0B0A38EE400AB0EE408A05489D
:104B700090ED000A044880ED000AB0EE480ABDEC52
:104B8000028B10BDC8010020CC010020000034C3FE
:104B90000000B4430000344310B50248FCF7A0FC09
:104BA00010BD0000A400002010B52DED028BB0EE6A
:104BB000408AB0EE480A034800F0B5FFBDEC028B16
:104BC00010BD0000D001002010B5B7EE000A084863
:104BD00000F09CFF9FED071ADFED070A9FED050A25
:104BE000034800F099FF9FED040AFFF7DDFF10BDB9
:104BF000D00100208FC2753D0000000010B50248B2
:104C000000F0FCFC10BD0000D001002010B52DED1F
:104C1000028BB0EE408AF0EE480A9FED030A00F0E6
:104C20001DF8BDEC028B10BD0000000010B504465D
:104C300022464FF480710248FEF712F810BD0000C2
:104C40000010024010B52DED028BB0EE408AB0EEA0
:104C5000480A00F017F8BDEC028B10BD10B52DED21
:104C6000028BB0EE408AF0EE608AF0EE680AB0EE99
:104C7000480A034800F008FEBDEC028B10BD00009E
:104C8000F000002010B52DED028BB0EE408AB0EEA2
:104C9000480A034800F057FFBDEC028B10BD00002E
:104CA0008C01002010B5B7EE000A094800F03EFF65
:104CB0009FED081ADFED080AB5EE000A044800F07F
:104CC0003BFF9FED040A024800F03DFF10BD0000CD
:104CD0008C0100200000000017B7513A10B50248BF
:104CE00000F08AFF10BD00008C01002010B52DEDF2
:104CF000028BB0EE408AF0EE608AF0EE680AB0EE09
:104D0000480A034800F09CFFBDEC028B10BD000078
:104D1000A400002010B51348FEF7BCFD0021114887
:104D2000FFF7B0F804210F48FFF7ACF808210D4851
:104D3000FFF7A8F800200B4909684863094909688A
:104D4000886308490968C8639FED070A00F0EEFD13
:104D50009FED050A00F012FE9FED030A00F036FEFB
:104D600010BD0000240600200000000000B500F087
:104D700029F800EE100AF8EEC00A9FED0F1A80EE37
:104D8000810ADFED0E0A20EE200A0D4880ED010AAF
:104D900090ED010AB5EEC00AF1EE10FA07D290EDDF
:104DA000010ADFED060A30EE200A80ED010A044810
:104DB00090ED010A00BD0000000000460000B44371
:104DC0001C0000201348016813480068406AA0F5E1
:104DD0001C50103808440F49086042F210700E4908
:104DE000096848620B480068002805DA094800682D
:104DF00000F500500749086006490868C11700EB34
:104E0000D1414913A0EB4131024A116010460068BC
:104E1000704700001C0000206406002010B504212B
:104E20000848FEF71DFE42F2107006490968486204
:104E30009FED050A054880ED010A0020034908603E
:104E400010BD000064060020000000001C000020CF
:104E500042F210700549096848629FED050A05484D
:104E600080ED010A002003490860704764060020B5
:104E7000000000001C00002001490860704700008D
:104E80001C00002010B5032202490348FCF746FE2F
:104E900010BD000088070020440400200848006876
:104EA000A0F500600649C86008464068A0F50060AB
:104EB000086108468068A0F50060486170470000FE
:104EC0008807002010B5012000F00CF99FED130AAF
:104ED00000F0A4FD9FED120A00F0C8FD9FED100A3E
:104EE00000F0ECFD4FF4FA70FDF796FD002406E0AB
:104EF00000F00AFA0A20FDF78FFD601CC4B20A2CEC
:104F0000F6DB9FED080A00F089FD9FED060A00F030
:104F1000ADFD9FED040A00F0D1FD10BD0000A042E0
:104F2000000020420000000010B50748007930B9A9
:104F300000F0A4F9044908600120087103E0024967
:104F4000086800F0F5F910BD240000200020024997
:104F500008600871704700002400002010B501218E
:104F60000A4800F096FCDFED0A1A9FED0A1ADFED01
:104F70000A0A9FED090A054800F075FCDFED050AF5
:104F80009FED040A014800F07FFC10BD580200208C
:104F90006991DD4000000000BC74933C10B50248EC
:104FA000FCF730F910BD00005802002010B502488F
:104FB000FCF772F910BD00005802002010B5FFF791
:104FC000F5FFDFED020A30EE600A10BD0000344349
:104FD00010B52DED028BFFF7E9FF184880ED000AB0
:104FE00090ED000A1648D0ED000A30EE600AB0EEEF
:104FF000408A9FED140AB4EEC08AF1EE10FA05D291
:105000009FED110A38EE000AB0EE408A9FED0F0ABC
:10501000B4EEC08AF1EE10FA05DD9FED0B0A38EE12
:10502000400AB0EE408A054890ED000A044880ED41
:10503000000AB0EE480ABDEC028B10BD3003002020
:1050400034030020000034C30000B44300003443A4
:1050500010B50248FCF744FA10BD00000C02002015
:1050600010B52DED028BB0EE408AB0EE480A034831
:1050700000F059FDBDEC028B10BD0000380300208C
:1050800010B5B7EE000A084800F040FD9FED071A82
:10509000DFED070A9FED050A034800F03DFD9FED97
:1050A000040AFFF7DDFF10BD380300208FC2753DF5
:1050B0000000000010B5024800F0A0FA10BD00008A
:1050C0003803002010B52DED028BB0EE408AF0EED3
:1050D000480A9FED030A00F01DF8BDEC028B10BDDD
:1050E0000000000010B5044622464FF4007102484B
:1050F000FDF7B6FD10BD00000008024010B52DED13
:10510000028BB0EE408AB0EE480A00F017F8BDEC12
:10511000028B10BD10B52DED028BB0EE408AF0EE83
:10512000608AF0EE680AB0EE480A034800F0ACFB73
:10513000BDEC028B10BD00005802002010B52DED13
:10514000028BB0EE408AB0EE480A034800F0FBFC48
:10515000BDEC028B10BD0000F402002010B5B7EECC
:10516000000A094800F0E2FC9FED081ADFED080A8A
:10517000B5EE000A044800F0DFFC9FED040A024887
:1051800000F0E1FC10BD0000F4020020000000006F
:1051900017B7513A10B5024800F02EFD10BD0000BF
:1051A000F402002010B52DED028BB0EE408AF0EE37
:1051B000608AF0EE680AB0EE480A034800F040FD4D
:1051C000BDEC028B10BD00000C02002010B513488E
:1051D000FEF760FB00211148FEF754FE04210F4842
:1051E000FEF750FE08210D48FEF74CFE00200B494B
:1051F0000968486309490968886308490968C863F8
:105200009FED070A00F00AFC9FED050A00F02EFC56
:105210009FED030A00F052FC10BD0000A406002020
:105220000000000000B500F029F800EE100AF8EECA
:10523000C00A9FED0F1A80EE810ADFED0E0A20EE04
:10524000200A0D4880ED010A90ED010AB5EEC00A72
:10525000F1EE10FA07D290ED010ADFED060A30EE0A
:10526000200A80ED010A044890ED010A00BD00000B
:10527000000000460000B4432C00002013480168E1
:1052800013480068406AA0F51C50103808440F49C4
:10529000086042F210700E49096848620B480068C5
:1052A000002805DA0948006800F500500749086041
:1052B00006490868C11700EBD1414913A0EB413101
:1052C000024A116010460068704700002C00002060
:1052D000E406002010B504210848FEF7C1FB42F2A5
:1052E00010700649096848629FED050A054880ED7F
:1052F000010A00200349086010BD0000E4060020F8
:10530000000000002C00002042F2107005490968DE
:1053100048629FED050A054880ED010A0020034917
:1053200008607047E4060020000000002C00002008
:1053300001490860704700002C000020704710B53C
:105340002DED028B0446D4ED050AB0EE600AFAF7A3
:1053500039FFD4ED170A20EE208AD4ED050AB0EE0D
:10536000600AFAF76BFFD4ED200A00EEC08A84EDE4
:105370000E8AD4ED050AB0EE600AFAF75FFFD4EDAD
:10538000170A20EE208AD4ED050AB0EE600AFAF77B
:1053900019FFD4ED200A00EE808A84ED0F8ABDEC5F
:1053A000028B10BD10B52DED028B0446D4ED050A1D
:1053B000B0EE600AFAF706FFD4ED0A0A20EE208A62
:1053C000D4ED050AB0EE600AFAF738FFD4ED0B0A07
:1053D00000EE808A84ED0D8AD4ED050AB0EE600AF5
:1053E000FAF72CFFD4ED0A0AF1EE600A20EE208ACB
:1053F000D4ED050AB0EE600AFAF7E4FED4ED0B0A2C
:1054000000EE808A84ED0C8ABDEC028B10BD7047E3
:1054100010B5FEF7E3FEFFF745FBFFF743FCFFF790
:10542000D3FBFFF79BFDFFF799FEFFF729FE10BDA9
:1054300010B52549086825490968491D884201D3E6
:1054400022490860204804682148006800F57A7005
:1054500084422DD31F4890ED000AF3EE0E0A30EE81
:10546000200A80ED000A90ED000ADFED1B0AB4EE81
:10547000E00AF1EE10FA03DB9FED180A80ED000A56
:105480001448D0ED000A9FED161A71EE600AB0EED6
:10549000600AFFF789FB0F48D0ED000A9FED101A54
:1054A00071EE600AB0EE600AFFF7DAFD08480460AA
:1054B000FEF79CFEFFF712FCFFF7A0FBFFF76AFE6A
:1054C000FFF7F8FD10BD0000340000208800002028
:1054D0008C000020740000200000B4430000000095
:1054E0000000344310B52DED028B0446606B8047FD
:1054F00084ED060A94ED060AD4ED050A30EE600A42
:10550000B0EE408A9FED390AB4EEC08AF1EE10FA8F
:1055100006DD9FED370A38EE400AB0EE408A0CE017
:105520009FED340AB4EEC08AF1EE10FA05D29FED79
:10553000300A38EE000AB0EE408A9FED2F0A30EEB6
:10554000480A84ED070A94ED020AD4ED070A20EE1A
:10555000200AD4ED070A94ED081A70EEC10A94ED02
:10556000031A01EE200AD4ED040A94ED091A00EEA4
:10557000810A84ED0A0A94ED070A84ED080A94ED85
:10558000090AD4ED070A30EE200A84ED090A94EDE9
:105590000A0AD4ED0B0AB4EEE00AF1EE10FA04DDCB
:1055A00094ED0B0A84ED0A0A10E094ED0A0AD4ED9A
:1055B0000B0AF1EE600AB4EEE00AF1EE10FA05D241
:1055C00094ED0B0AB1EE400A84ED0A0A207818B96E
:1055D0009FED090A84ED0A0AD4ED0A0AB0EE600ACA
:1055E000A06B8047BDEC028B10BD0000000034436F
:1055F0000000B443000034C30000000010B50446AE
:105600000E4960680968081A00EE100AB8EE400AF0
:10561000D4ED0C0A9FED0A1A60EE810AB4EEE00A9E
:10562000F1EE10FA01DB012000E0002028B1034870
:10563000006860602046FFF755FF10BD780300202A
:1056400000007A4470B504460D46204600F03AF852
:1056500008B1012070BD45B12068E368A66803FB6E
:10566000060132462846FAF764FEE068401C61688D
:10567000B0FBF1F201FB1200E0606069401C606168
:105680000020E7E770B504460D46204600F023F8F9
:1056900008B1012070BD45B121682369A66803FBEC
:1056A000061032462946FAF744FE2069401C61681C
:1056B000B0FBF1F201FB12002061A069401CA06167
:1056C0000020E7E701460869CA68904201D101203D
:1056D00070470020FCE701460869401C4A68B0FB9F
:1056E000F2F302FB1300CA68904201D10120704717
:1056F0000020FCE72DE9F04704468946164601F0F4
:1057000035F904EB4401564800EBC100007D00F080
:105710000300022827D004EB4401514800EBC100EC
:10572000D0F8108004EB44014D4800EBC100C06884
:10573000A8EB0000451E002D06DA04EB44014848A2
:1057400000EBC10080680544AE420CDD04EB44016F
:10575000434800EBC100007D00F0030010B90020B9
:10576000BDE8F0872E460EB90020F9E7002700BFFC
:1057700004EB44013A4800EBC100D0F8108004EB80
:105780004401374800EBC100C068A8EB0000451E8B
:10579000002D06DA04EB4401314800EBC1008068BB
:1057A000054404EB44012E4800EBC10004EB440225
:1057B00081682B4800EBC200C068081AA84201DDCE
:1057C00028460CE004EB4401254800EBC10004EB43
:1057D00044028168224800EBC200C068081A0546EE
:1057E000B54201DA284600E03046054604EB4402A3
:1057F0001B4901EBC20104EB44034A68184901EB61
:10580000C301C96850182A464946FAF792FD2F4449
:10581000A944761B04EB4401114800EBC100C068A9
:10582000411904EB44020E4800EBC200C16004EBD6
:1058300044010B4800EBC100C16804EB4402084876
:1058400000EBC2008068814206D1002104EB4402D3
:10585000034800EBC200C160002E89D138467FE7C3
:1058600098030020704780ED100AC0ED110A80ED0A
:10587000121AC0ED181A80ED190AC0ED1A0A80ED4F
:105880001B1AC0ED211A704780ED020AC0ED010A13
:10589000704770B504460D4625702078D4F88810FE
:1058A000884770BD0221017080ED010A704710B574
:1058B000044600202070227A0AB9012200E000226A
:1058C00010462169884710BD10B50446012020709C
:1058D000207A2169884710BD10B504462246102160
:1058E0000148FDF7BDF910BD000C024070B52DED6B
:1058F000028B05460C46B0EE408A24B1012C06D03E
:10590000022C0ED107E02846FFF7D1FF09E0284618
:10591000FFF7DAFF05E0B0EE480A2846FFF7C2FFBE
:1059200000BF00BFBDEC028B70BD0000B5EEC00A29
:10593000F1EE10FA03D2DFED0D0AB0EE600ADFEDF2
:105940000C0AB4EEE00AF1EE10FA03DDDFED080A0E
:10595000B0EE600ADFED070A60EE200AFCEEE00A16
:1059600010EE900A0449096848637047000000007F
:105970000000C8420000284224060020B5EEC00AFC
:10598000F1EE10FA03D2DFED0D0AB0EE600ADFEDA2
:105990000C0AB4EEE00AF1EE10FA03DDDFED080ABE
:1059A000B0EE600ADFED070A60EE200AFCEEE00AC6
:1059B00010EE900A044909688863704700000000EF
:1059C0000000C8420000284224060020B5EEC00AAC
:1059D000F1EE10FA03D2DFED0D0AB0EE600ADFED52
:1059E0000C0AB4EEE00AF1EE10FA03DDDFED080A6E
:1059F000B0EE600ADFED070A60EE200AFCEEE00A76
:105A000010EE900A04490968C8637047000000005E
:105A10000000C8420000284224060020B5EEC00A5B
:105A2000F1EE10FA03D2DFED0D0AB0EE600ADFED01
:105A30000C0AB4EEE00AF1EE10FA03DDDFED080A1D
:105A4000B0EE600ADFED070A60EE200AFCEEE00A25
:105A500010EE900A0449096848637047000000008E
:105A60000000C84200002842A4060020B5EEC00A8B
:105A7000F1EE10FA03D2DFED0D0AB0EE600ADFEDB1
:105A80000C0AB4EEE00AF1EE10FA03DDDFED080ACD
:105A9000B0EE600ADFED070A60EE200AFCEEE00AD5
:105AA00010EE900A044909688863704700000000FE
:105AB0000000C84200002842A4060020B5EEC00A3B
:105AC000F1EE10FA03D2DFED0D0AB0EE600ADFED61
:105AD0000C0AB4EEE00AF1EE10FA03DDDFED080A7D
:105AE000B0EE600ADFED070A60EE200AFCEEE00A85
:105AF00010EE900A04490968C8637047000000006E
:105B00000000C84200002842A4060020FCEEC00AA3
:105B100010EE901A0170704780ED020AC0ED040A81
:105B200080ED031A704780ED050A7047FCEEC00A4D
:105B300010EE901A0170704780ED020AC0ED040A61
:105B400080ED031A704780ED050A704710B50446D2
:105B5000606B804784ED060A94ED050AD4ED060AD1
:105B600030EE600A84ED070A94ED070AD4ED080AC6
:105B700030EE600AD4ED020A20EE200AD4ED040AC9
:105B800094ED071A00EE810AD4ED0A0A30EE200ADD
:105B900084ED0A0A94ED070A84ED080A94ED0A0AD6
:105BA000D4ED0B0AB4EEE00AF1EE10FA04DD94ED48
:105BB0000B0A84ED0A0A10E094ED0A0AD4ED0B0AF0
:105BC000F1EE600AB4EEE00AF1EE10FA05D294EDBF
:105BD0000B0AB1EE400A84ED0A0A207818B99FED4D
:105BE000050A84ED0A0AD4ED0A0AB0EE600AA06B39
:105BF000804710BD0000000010B504460E496068E3
:105C00000968081A00EE100AB8EE400AD4ED0C0A32
:105C10009FED0A1A60EE810AB4EEE00AF1EE10FA86
:105C200001DB012000E0002028B10348006860602B
:105C30002046FFF78BFF10BD7C03002000007A4454
:105C400010B52DED028B0446F0EE408AB0EE608A6E
:105C5000C4ED008A84ED018A204600F099F82046C0
:105C6000FBF742FC204600F003F8BDEC028B10BDB0
:105C700010B52DED048B044694F83C00072877D22C
:105C8000DFE800F07604172A3D50630094ED090A1E
:105C9000D4ED0B0A30EE200AD4ED0C0A30EE208A47
:105CA00094ED0B0AD4ED0C0A70EE208A94ED0C9A58
:105CB0005EE094ED0B0AD4ED0C0A30EE208A94EDF0
:105CC000070AD4ED0B0A30EE200AD4ED0C0A70EE70
:105CD000208A94ED0C9A4BE094ED0C8A94ED070A1F
:105CE000D4ED080A30EE200AD4ED0C0A70EE208ABA
:105CF00094ED080AD4ED0C0A30EE209A38E094EDC9
:105D00000C8A94ED080AD4ED0C0A70EE208A94ED0A
:105D1000060AD4ED080A30EE200AD4ED0C0A30EE63
:105D2000209A25E094ED0A0AD4ED0C0A30EE208A80
:105D3000D4ED0C8A94ED060AD4ED0A0A30EE200A5E
:105D4000D4ED0C0A30EE209A12E094ED090AD4ED5D
:105D50000A0A30EE200AD4ED0C0A30EE208AD4ED87
:105D60000C8A94ED0A0AD4ED0C0A30EE209A00BF9A
:105D700000BFB0EE480A206C8047B0EE680A606C45
:105D80008047B0EE490AA06C8047BDEC048B10BD83
:105D900070B590ED010A80ED020AD0ED010AB0EE77
:105DA000001A80EE810AD0ED000A9FED2E1A10EE47
:105DB000810A80ED030AD0ED010AB0EE001A80EEF0
:105DC000810AD0ED000AF1EE600A9FED261A10EE6E
:105DD000810A80ED040A90ED020AB5EEC00AF1EEE8
:105DE00010FA01DD012100E0002190ED030AB5EE7B
:105DF000C00AF1EE10FA01DD012200E0002290ED70
:105E0000040AB5EEC00AF1EE10FA01DD012300E04C
:105E100000239D00022606FB02550D44ECB2072C20
:105E20001DD2DFE804F01C081804100C1400012532
:105E300080F83C5013E0022580F83C500FE0032529
:105E400080F83C500BE0042580F83C5007E0052525
:105E500080F83C5003E0062580F83C5000BF00BFAE
:105E600070BD00002DB25D3F10B50B480068401CAE
:105E70000949086009480068401C0849086008484A
:105E80000068401C0649086006480068401C054937
:105E90000860FCF7F1FE10BD340000207403002000
:105EA0007C0300207803002000B593B0302107A8C0
:105EB000FAF758FA142102A8FAF754FA00BF0020A2
:105EC00001902448006840F080502249086008464C
:105ED000006800F08050019000BF00BF00BF0020AC
:105EE00001901D48006840F480401B490860084646
:105EF000006800F48040019000BF00BF01200790BF
:105F00000004089002200D9041050E9104210F918C
:105F1000A8211091022111910421129107A8FDF7E7
:105F2000C1F808B1FBF76DF90F2002900220039031
:105F3000002004904FF4A05005904FF4805006903C
:105F4000052102A8FCF76EFF08B1FBF75AF913B060
:105F500000BD000040380240007000400548006865
:105F600040F47000034908604FF000600149803937
:105F70000860704788ED00E010B5064800680068CA
:105F800000F01000102801D1FEF720FD0148FDF7B8
:105F90008FFD10BD2406002010B50648006800687B
:105FA00000F01000102801D1FEF76CFF0148FDF74A
:105FB0007FFD10BDA406002010B50268294B984251
:105FC0000ED0B0F1804F0BD0274B984208D0274B12
:105FD000984205D0264B984202D0264B984203D1D6
:105FE00022F070024B681A431E4B984220D0B0F149
:105FF000804F1DD01C4B98421AD01C4B984217D092
:106000001B4B984214D01B4B984211D01A4B98420C
:106010000ED01A4B98420BD0194B984208D0194B0E
:10602000984205D0184B984202D0184B984203D1A1
:1060300022F44072CB681A4322F080034C6943EA91
:10604000040202608B68C3620B688362054B98424E
:1060500002D0084B984201D10B69036301234361CD
:1060600010BD000000000140000400400008004096
:10607000000C004000040140004001400044014089
:106080000048014000180040001C00400020004073
:1060900030B501F01F05012404FA05F3046A9C439E
:1060A0000462046A01F01F0502FA05F52C4304623C
:1060B00030BD30B50C46816821F47F4142EA0325AA
:1060C00025432943816030BD30B5056A25F00105BF
:1060D0000562026A4368846924F0700424F00304B2
:1060E0000D682C4322F002028D682A43104DA8420D
:1060F00000D103E00F4DA84206D100BF22F00802F4
:10610000CD682A4322F00402094DA84202D0094D6D
:10611000A84207D123F4807323F400734D692B4305
:106120008D692B43436084614D684563026230BDD5
:10613000000001400004014030B5056A25F010055B
:106140000562026A4368846924F4E04424F44074DC
:106150000D6844EA052422F020028D6842EA051207
:10616000124DA84200D103E0114DA84207D100BF53
:1061700022F08002CD6842EA051222F040020B4D67
:10618000A84202D00A4DA84209D123F4806323F427
:1061900000634D6943EA85038D6943EA85034360E3
:1061A00084614D688563026230BD000000000140DB
:1061B0000004014030B5056A25F480750562026A65
:1061C0004368C46924F0700424F003040D682C4370
:1061D00022F400728D6842EA0522124DA84200D1D5
:1061E00003E0114DA84207D100BF22F40062CD6840
:1061F00042EA052222F480620A4DA84202D00A4DEA
:10620000A84209D123F4805323F400534D6943EA93
:1062100005138D6943EA05134360C4614D68C56386
:10622000026230BD000001400004014030B5056A43
:1062300025F480550562036A4468C26922F4E0428D
:1062400022F440720D6842EA052223F400538D685F
:1062500043EA0533084DA84202D0084DA84204D1B4
:1062600024F480444D6944EA85144460C2614D6859
:106270000564036230BD00000000014000040140DD
:106280002DE9F04105460C462868866826F0700620
:106290006068064326F00706206806432868866083
:1062A000606800F00F0100293BD10011082838D2A6
:1062B000DFE800F0333435360B272D04D4E903131F
:1062C000A2682868FFF7F5FE2CE02068052802D1B7
:1062D0000120BDE8F0812868D0F820802868006A95
:1062E00020F00100296808622868876927F0F00714
:1062F000206947EA0017286887612868C0F820806D
:1063000010E02269A168286800F00FF80AE022690D
:10631000A168286800F01CF804E000BF00BF00BFBF
:1063200000E000BF00BF0020D3E730B50B461446A5
:10633000026A056A25F001050562816921F0F00114
:1063400041EA041122F00A021A438161026230BD5F
:1063500030B50B461446056A25F0100505628169C3
:10636000026A21F4704141EA043122F0A00242EABB
:1063700003128161026230BD70B50546AC6B00202E
:10638000E085E0842046FDF7E1FD70BD0168C96845
:1063900021F490710268D1600168496921F001011E
:1063A00002685161202180F83A10704710B5044608
:1063B0002068C06820F040002168C860202084F870
:1063C00039002046FDF7F5FE002010BD70B50446EB
:1063D00094F83A0022284AD1A068B0F5805F13D122
:1063E000A56A206940B920684068C0F30800288089
:1063F000A06A801CA06219E020684068C0B22880B2
:10640000A06A401CA06211E0206938B92068406889
:10641000C1B2A26A501CA062117007E020684068F7
:1064200000F07F01A26A501CA0621170E08D401E36
:1064300080B2E085C8B92068C06820F020002168DB
:10644000C8602068C06820F480702168C860206837
:10645000406920F0010021684861202084F83A005A
:106460002046FDF7A5FE002070BD0020FCE70220BD
:10647000FAE700002DE9F84F04462068006920F48F
:106480004050E1680843216808612169A068084319
:1064900061690843E169084300902068C06849F2D7
:1064A0000C618843009908432168C86020684069EE
:1064B00020F44070A169084321684861E069B0F5A3
:1064C000004F75D1E3492068884203D0E249206833
:1064D00088426FD1FCF77EFD814602206168A0FBF7
:1064E00001510B461920A9FB00712A463846F9F7DD
:1064F000EFFE6421B0FBF1F04FEA001A0220616860
:10650000A0FB01510B461920A9FB00712A46384611
:10651000F9F7DEFE074602206168A0FB01510B4639
:106520001920A9FB00B12A465846F9F7D1FE64218B
:10653000B0FBF1F000EBC00101EB0010A7EB800015
:10654000322101EBC0006421B0FBF1F000F0F80053
:106550000AEB400A02206168A0FB01510B4619209A
:10656000A9FB00712A463846F9F7B2FE0746022019
:106570006168A0FB01510B461920A9FB00B12A4616
:106580005846F9F7A5FE6421B0FBF1F000EBC0011D
:1065900001EB0010A7EB8000322101EBC000642169
:1065A000B0FBF1F000F007005044216888604FE133
:1065B0006EE0FFE7FCF7FEFC814602206168A0FB6D
:1065C00001510B461920A9FB00712A463846F9F7FC
:1065D0007FFE6421B0FBF1F04FEA001A02206168EF
:1065E000A0FB01510B461920A9FB00712A46384631
:1065F000F9F76EFE074602206168A0FB01510B46C9
:106600001920A9FB00B12A465846F9F761FE64211A
:10661000B0FBF1F000EBC00101EB0010A7EB800034
:10662000322101EBC0006421B0FBF1F000F0F80072
:106630000AEB400A02206168A0FB01510B461920B9
:10664000A9FB00712A463846F9F742FE07460220A8
:106650006168A0FB015003461920A9FB00B12A463E
:106660005846F9F735FE6421B0FBF1F000EBC001AC
:1066700001EB0010A7EB8000322101EBC000642188
:10668000B0FBF1F000F00700504421688860DFE0C3
:1066900070492068884203D06F49206888426BD1D6
:1066A000FCF798FC814604206168A0FB01510B4671
:1066B0001920A9FB00712A463846F9F709FE8246DF
:1066C00004206168A0FB01510B461920A9FB007151
:1066D0002A463846F9F7FCFD6421B0FBF1F000EBE7
:1066E000C00101EB0010AAEB8000322101EB001089
:1066F0006421B0FBF1F000F0F00A04206168A0FB17
:10670000015003461920A9FB00712A463846F9F7C3
:10671000DFFD6421B0FBF1F00AEB001A0420616890
:10672000A0FB01510B461920A9FB00712A463846EF
:10673000F9F7CEFD074604206168A0FB015003462F
:106740001920A9FB00B12A465846F9F7C1FD64217A
:10675000B0FBF1F000EBC00101EB0010A7EB8000F3
:10676000322101EB00106421B0FBF1F000F00F00CA
:106770005044216888606BE0FCF71CFC81460420D3
:106780006168A0FB015003461920A9FB00712A464D
:106790003846F9F79DFD824604206168A0FB015050
:1067A00003461920A9FB00712A463846F9F790FDE7
:1067B0006421B0FBF1F000EBC00101EB0010AAEB8B
:1067C0008000322101EB00106421B0FBF1F000F0F9
:1067D000F00A04206168A0FB015003461920A9FBC0
:1067E00000712A463846F9F773FD6421B0FBF1F0D9
:1067F0000AEB001A04206168A0FB0170034619200F
:10680000A9FB005001463A462846F9F761FD0746C4
:1068100004206168A0FB015003461920A9FB00B1C8
:106820002A465846F9F754FD6421B0FBF1F000EB1D
:10683000C00101EB0010A7EB8000322101EB00103A
:106840006421B0FBF1F000F00F0050442168886033
:10685000BDE8F88F0010014000140140014691F896
:10686000390021282CD18868B0F5805F0FD10A6AE1
:106870001088C0F308000B685860086918B9086AE6
:10688000801C086209E0086A401C086205E00B6A87
:10689000581C086218780B685860C88C401E80B27B
:1068A000C88458B90868C06820F080000B68D860B8
:1068B0000868C06840F040000B68D860002070474E
:1068C0000220FCE710B500F007F80248FDF740FB96
:1068D00010BD0000240700201CB5002001901948BD
:1068E0000068006800F0200020280DD11648FEF74F
:1068F000F2FE48B9134800684068C0B2009069468B
:106900001148FEF7BFFE00BF0E480068006800F0A7
:106910008000802815D10D48FEF7D4FE48B901A9A2
:106920000A48FEF78FFE9DF8040006490968486092
:1069300007E004480068C06820F080000149096849
:10694000C8601CBD2407002038000020540000202F
:1069500004480068C06840F0200002490968C86027
:10696000704700002407002000BFFEE770470000CA
:106970000FB4054B10B503A9044A029800F000F9C2
:1069800010BC5DF814FB000087720008F8030020BB
:1069900002480068C0F30220704700000CED00E0E0
:1069A00010B5002804DB0A07130E054A135406E04D
:1069B0000A07140E034A00F00F031B1FD45410BD26
:1069C00000E400E018ED00E02DED020B019820F04E
:1069D000004001909DED000B02B0704702E008C836
:1069E000121F08C1002AFAD170477047002001E049
:1069F00001C1121F002AFBD1704700002DE9FF5F83
:106A000082B00021DDE90430020DDDF840B003431F
:106A100018D044F61050A2F2FF32424315141198D8
:106A200001281FD0A5EB0B00401C5FEA000A4FF0C5
:106A300000064E4FDFF83891B046504615D5CAF1E2
:106A4000000413E0119801244AA3012801D16FEA40
:106A50000B010298119AC0E90031C0E9024206B068
:106A6000BDE8F09FCBF10000DFE704460021404A7B
:106A7000491842EB0450CDE9001012E0E00707D0BE
:106A800032463B4640464946F9F777FC8046894600
:106A900032463B4610461946F9F76FFC06460F464C
:106AA0006410002CEAD1DDE90401DDE90023BAF12C
:106AB000000F06DAF9F761FC42464B46F9F75DFC38
:106AC00005E0F9F7ADFE42464B46F9F7A9FE04464C
:106AD0000E460022284BF9F7FFFC03D84FF0FF3099
:106AE000014607E00022254B20463146F9F7F1FD2B
:106AF000F9F705FF102409E0002C0ADB0A22002325
:106B0000F9F7E6FB039B30321A55641E50EA010286
:106B1000F2D1641C039AC4F111031444119A012A9E
:106B200003D0012208430DD10AE0084304D000201D
:106B30004FF0110B119072E7A3EB0B056D1E0DE0EA
:106B40005B4504DD4FF0000205F1010504E003DAC6
:106B50004FF00002A5F10105002AECD0029811992E
:106B6000C0E90231C0E9004579E7000000001440A7
:106B70000000F03F300000000000F0430000E03F64
:106B80002DE9FF4F95B09A46884606460025EEE16E
:106B9000252877D100242746F94A0121039400E0F3
:106BA000044316F8013F203B01FA03F01042F7D1ED
:106BB00030782A2811D06FF02F033078A0F13002FE
:106BC000092A16D8039A44F0020402EB820203EB6E
:106BD00042021044761C0390EFE758F8042B03920E
:106BE000002A03DA504244F40054039044F00204B3
:106BF000761C30782E2816D116F8010F44F00404C4
:106C00002A280DD06FF02F023078A0F13003092B25
:106C100009D807EB870302EB4303C718761CF3E799
:106C200058F8047B761C30786C280FD006DC4C2892
:106C300017D068280DD06A2814D104E0742810D029
:106C40007A280FD10DE044F400140AE044F48014D3
:106C500001E044F440147278824202D104F58014B9
:106C6000761C761C307866280BD013DC582877D039
:106C700009DC002875D04528F6D04628F4D04728EE
:106C80001AD193E118E0632835D0642879D06528BB
:106C900012D18BE1702873D008DC6728F1D0692805
:106CA0006FD06E280DD06F2806D1ACE073282CD0A1
:106CB000752874D0782853D05246179990476D1C88
:106CC00054E1C4F30250022809D003280DD0D8F8AB
:106CD000001004280DD00D6008F1040846E1D8F832
:106CE0000010EA17C1E90052F6E7D8F800100D804D
:106CF000F2E70D70F0E718F8041B8DF80010002083
:106D00008DF80100EB46012003E058F804BB4FF07A
:106D1000FF3061074FF0000102D40DE009F10101DD
:106D20008946B9420FDA8145F8DB1BF809100029C2
:106D3000F4D108E009F1010189468142FADB1BF830
:106D400009100029F6D103985346A0EB0907214604
:106D50003846179A00F080FA284400EB090507E04E
:106D600044E008E10DE01BF8010B524617999047EB
:106D7000B9F10109F7D2534621463846179AF2E095
:106D800039E00A21C4F302524FF0000B0091022AAD
:106D900006D058F8040BC117032A09D00AE023E0F3
:106DA00008F1070020F00702F2E80201904605E032
:106DB00000B2C117042A01D140B2C117002906DA76
:106DC0000A460021404261EB02012D2202E0220529
:106DD00004D52B228DF80420012203E0E20701D024
:106DE0002022F7E7914657E00A2100E010214FF0FA
:106DF000000B00910BE010214FF0000B44F0040455
:106E00000827009103E008204FF0000B0090C4F326
:106E10000252022A05D058F8040B0021032A08D098
:106E200008E008F1070020F00702F2E802019046AE
:106E300003E080B2042A00D1C0B24FF0000922075B
:106E40002AD53278702A07D0DDF800C08CF0100CFB
:106E50005CEA0B0C05D00EE040228DF804200122E4
:106E600008E050EA010306D030238DF804308DF895
:106E7000052002229146009B83F0080353EA0B038E
:106E80000AD150EA010201D1620705D530228DF8FE
:106E900004204FF001097F1E3278582A04D039A20D
:106EA0000C920CAA02920BE03BA2F9E75B46009A17
:106EB000F9F70EFA0C9B9B5C029A521E0292137019
:106EC00050EA0102F2D1029804A9081A00F1200B3D
:106ED000600702D524F4803400E001275F4502DD1D
:106EE000A7EB0B0000E0002000EB0B0100900398E3
:106EF0004944401A0390E00306D453462146179AAA
:106F0000039800F0A9F90544002706E001A85246BD
:106F1000C05D179990476D1C7F1C4F45F6DBE00361
:106F20000CD553462146179A039800F095F905446D
:106F300004E030205246179990476D1C0099481E76
:106F400000900029F5DC08E002980299524600788A
:106F5000491C0291179990476D1CBBF10001ABF1E0
:106F6000010BF1DC5BE100F065F90544761C30783B
:106F700000287FF40DAE19B02846BDE8F08F000060
:106F800009280100303132333435363738396162FF
:106F900063646566000000003031323334353637C3
:106FA000383941424344454600000000600700D4A0
:106FB000062708F1070020F00700F0E802238046CA
:106FC00003F0004C5FEA0C0001D097A009E0200517
:106FD00001D596A005E0E00701D095A001E0AFF251
:106FE0004C001390307823F0004365280CD006DC69
:106FF000452809D046281DD047287FD13BE0662888
:1070000018D067287AD136E00021112F01DB11203A
:1070100000E0781CCDE9000104A90CA8FFF7EEFC04
:10702000DDE90D010C9A4FF0000B07F101091092F8
:1070300000914EE04FF000400097CDE9011004A907
:107040000CA8FFF7DBFCDDE90D020C9B0F994FF05C
:10705000000B91461093009211B9791C00EB0109C5
:10706000B7EB090003D4C0F1FF3B07F10109A9EB1D
:107070000700019042E0012F00DA01270021112FC3
:1070800001DD112000E03846CDE9000104A90CA87B
:10709000FFF7B4FCDDE90D010C9A00914FF0000BF5
:1070A000B946109221070FD4009A4A4503DA914657
:1070B00001E0A9F10109B9F1010F05DD109AA9F16B
:1070C0000101515C3029F4D0B84202DA10F1040F0A
:1070D00003DA0121CDE9011010E0002803DC83442C
:1070E000A9EB000102E0411C494500DD8946A0EB07
:1070F0000B00401C01904FF000400290200705D487
:107100000198484502DB4FF0FF30019000208DF8D8
:107110004B0002980DF14B07B0F1004F25D0022033
:107120000C902B200D90029800280CDA404202901F
:107130002D200D9007E00A210298F9F701FA30316D
:10714000029007F8011D0C99481E0C900029F2DCF2
:1071500002980028EFD1791E0D980870307800F061
:10716000200040F0450007F8020D11A8C01BC01D0B
:1071700002901398007800B1012000EB09010198FA
:1071800001EBE071029801440398401A401E0390FD
:10719000E00306D453462146179A039800F05CF8A2
:1071A00005441398007818B15246179990476D1C02
:1071B000E00323D553462146179A039800F04CF874
:1071C00005441BE0BBF1000F07DB0098584504DDC8
:1071D0001098179910F80B0001E0179930205246CB
:1071E000904701980BF1010B401E05F1010501903C
:1071F00004D12E205246179990476D1CB9F1000119
:10720000A9F10109DEDC05E017F8010B52461799D8
:1072100090476D1C0299481E02900029F4DC5346E9
:107220002146179A03989EE62D0000002B000000CF
:10723000200000002DE9F041044600251E461746B7
:10724000880404D405E039462020B0476D1C641E34
:10725000F9D52846BDE8F0812DE9F0410446002526
:107260001E469046C80301D5302700E02027880439
:1072700004D505E041463846B0476D1C641EF9D57B
:107280002846BDE8F08138B504460D46E0B20090CE
:10729000012269460020FEF72DFA9DF8000038BD56
:1072A000FBF7F6FCFEF700FEFDF7E8F8FDF7C2F885
:1072B000FCF7FEFFFDF74CF8FDF7D6F9FDF7FAF9FC
:1072C000FDF796F8FDF71CFAFDF784FAFDF7BEFA14
:1072D000FDF720FBFDF75CFBF9F77CFC01E0F9F71B
:1072E00081FCFCE7000610160006101600000000E6
:1072F0000000000001020304060708090000000066
:107300000102030400000000920E493CB10AC93C8E
:107310002BC3163D2EFB483D752B7B3D04A9963DA6
:1073200080B6AF3D36BDC83D2FBCE13D73B2FA3DDE
:1073300087CF093E8340163EB5AB223EA2102F3EBA
:10734000CF6E3B3EC2C5473E0115543E135C603EC6
:107350007F9A6C3ECCCF783EC07D823E938E883E35
:10736000229A8E3E32A0943E86A09A3EE59AA03E96
:10737000128FA63ED47CAC3EEF63B23E2A44B83EA8
:10738000491DBE3E15EFC33E53B9C93ECA7BCF3E31
:107390004136D53E80E8DA3E4F92E03E7533E63E18
:1073A000BBCBEB3EEA5AF13ECBE0F63E275DFC3E1E
:1073B000E4E7003F3D9C033F824B063F9BF5083FBF
:1073C0006B9A0B3FDA390E3FCDD3103F2A68133F3B
:1073D000D9F6153FC07F183FC6021B3FD17F1D3F26
:1073E000CBF61F3F9967223F25D2243F5636273FD1
:1073F0001594293F4AEB2B3FDE3B2E3FBB85303FA8
:10740000C9C8323FF304353F233A373F4268393F1A
:107410003B8F3B3FF9AE3D3F67C73F3F70D8413F91
:1074200001E2433F03E4453F65DE473F12D1493F58
:10743000F8BB4B3F029F4D3F207A4F3F3D4D513FA0
:107440004918533F31DB543FE595563F5348583F69
:107450006AF2593F1A945B3F532D5D3F05BE5E3F74
:107460002146603F97C5613F5A3C633F59AA643F3C
:10747000880F663FD86B673F3CBF683FA7096A3FEC
:107480000C4B6B3F5E836C3F93B26D3F9ED86E3F5B
:1074900073F56F3F0809713F5213723F4714733FF2
:1074A000DD0B743F0BFA743FC6DE753F07BA763FBB
:1074B000C58B773FF853783F9812793F9DC7793F46
:1074C00002737A3FBE147B3FCDAC7B3F283B7C3FB1
:1074D000C9BF7C3FAC3A7D3FCCAB7D3F23137E3FA1
:1074E000B0707E3F6DC47E3F580E7F3F6D4E7F3F34
:1074F000AB847F3F0FB17F3F97D37F3F43EC7F3F0C
:1075000011FB7F3F0000803F11FB7F3F43EC7F3F3B
:1075100097D37F3F0FB17F3FAB847F3F6D4E7F3F5F
:10752000580E7F3F6DC47E3FB0707E3F23137E3F79
:10753000CCAB7D3FAC3A7D3FC9BF7C3F283B7C3F15
:10754000CDAC7B3FBE147B3F02737A3F9DC7793F32
:107550009812793FF853783FC58B773F07BA763F4B
:10756000C6DE753F0BFA743FDD0B743F4714733F63
:107570005213723F0809713F73F56F3F9ED86E3FFB
:1075800093B26D3F5E836C3F0C4B6B3FA7096A3F24
:107590003CBF683FD86B673F880F663F59AA643F7E
:1075A0005A3C633F97C5613F2146603F05BE5E3F41
:1075B000532D5D3F1A945B3F6AF2593F5348583F41
:1075C000E595563F31DB543F4918533F3D4D513F00
:1075D000207A4F3F029F4D3FF8BB4B3F12D1493FAE
:1075E00065DE473F03E4453F01E2433F70D8413F3A
:1075F00067C73F3FF9AE3D3F3B8F3B3F4268393F56
:10760000233A373FF304353FC9C8323FBB85303F8B
:10761000DE3B2E3F4AEB2B3F1594293F5636273F42
:1076200025D2243F9967223FCBF61F3FD17F1D3FD4
:10763000C6021B3FC07F183FD9F6153F2A68133F8B
:10764000CDD3103FDA390E3F6B9A0B3F9BF5083FC5
:10765000824B063F3D9C033FE4E7003F275DFC3E35
:10766000CBE0F63EEA5AF13EBBCBEB3E7533E63E4D
:107670004F92E03E80E8DA3E4136D53ECA7BCF3EAF
:1076800053B9C93E15EFC33E491DBE3E2A44B83E1C
:10769000EF63B23ED47CAC3E128FA63EE59AA03E8C
:1076A00086A09A3E32A0943E229A8E3E938E883EC9
:1076B000C07D823ECCCF783E7F9A6C3E135C603EAC
:1076C0000115543EC2C5473ECF6E3B3EA2102F3E31
:1076D000B5AB223E8340163E87CF093E73B2FA3DDA
:1076E0002FBCE13D36BDC83D80B6AF3D04A9963DF7
:1076F000752B7B3D2EFB483D2BC3163DB10AC93C83
:10770000920E493C00000000920E49BCB10AC9BC6F
:107710002BC316BD2EFB48BD752B7BBD04A996BDA2
:1077200080B6AFBD36BDC8BD2FBCE1BD73B2FABDDA
:1077300087CF09BE834016BEB5AB22BEA2102FBEB6
:10774000CF6E3BBEC2C547BE011554BE135C60BEC2
:107750007F9A6CBECCCF78BEC07D82BE938E88BE31
:10776000229A8EBE32A094BE86A09ABEE59AA0BE92
:10777000128FA6BED47CACBEEF63B2BE2A44B8BEA4
:10778000491DBEBE15EFC3BE53B9C9BECA7BCFBE2D
:107790004136D5BE80E8DABE4F92E0BE7533E6BE14
:1077A000BBCBEBBEEA5AF1BECBE0F6BE275DFCBE1A
:1077B000E4E700BF3D9C03BF824B06BF9BF508BFBB
:1077C0006B9A0BBFDA390EBFCDD310BF2A6813BF37
:1077D000D9F615BFC07F18BFC6021BBFD17F1DBF22
:1077E000CBF61FBF996722BF25D224BF563627BFCD
:1077F000159429BF4AEB2BBFDE3B2EBFBB8530BFA4
:10780000C9C832BFF30435BF233A37BF426839BF16
:107810003B8F3BBFF9AE3DBF67C73FBF70D841BF8D
:1078200001E243BF03E445BF65DE47BF12D149BF54
:10783000F8BB4BBF029F4DBF207A4FBF3D4D51BF9C
:10784000491853BF31DB54BFE59556BF534858BF65
:107850006AF259BF1A945BBF532D5DBF05BE5EBF70
:10786000214660BF97C561BF5A3C63BF59AA64BF38
:10787000880F66BFD86B67BF3CBF68BFA7096ABFE8
:107880000C4B6BBF5E836CBF93B26DBF9ED86EBF57
:1078900073F56FBF080971BF521372BF471473BFEE
:1078A000DD0B74BF0BFA74BFC6DE75BF07BA76BFB7
:1078B000C58B77BFF85378BF981279BF9DC779BF42
:1078C00002737ABFBE147BBFCDAC7BBF283B7CBFAD
:1078D000C9BF7CBFAC3A7DBFCCAB7DBF23137EBF9D
:1078E000B0707EBF6DC47EBF580E7FBF6D4E7FBF30
:1078F000AB847FBF0FB17FBF97D37FBF43EC7FBF08
:1079000011FB7FBF000080BF11FB7FBF43EC7FBF37
:1079100097D37FBF0FB17FBFAB847FBF6D4E7FBF5B
:10792000580E7FBF6DC47EBFB0707EBF23137EBF75
:10793000CCAB7DBFAC3A7DBFC9BF7CBF283B7CBF11
:10794000CDAC7BBFBE147BBF02737ABF9DC779BF2E
:10795000981279BFF85378BFC58B77BF07BA76BF47
:10796000C6DE75BF0BFA74BFDD0B74BF471473BF5F
:10797000521372BF080971BF73F56FBF9ED86EBFF7
:1079800093B26DBF5E836CBF0C4B6BBFA7096ABF20
:107990003CBF68BFD86B67BF880F66BF59AA64BF7A
:1079A0005A3C63BF97C561BF214660BF05BE5EBF3D
:1079B000532D5DBF1A945BBF6AF259BF534858BF3D
:1079C000E59556BF31DB54BF491853BF3D4D51BFFC
:1079D000207A4FBF029F4DBFF8BB4BBF12D149BFAA
:1079E00065DE47BF03E445BF01E243BF70D841BF36
:1079F00067C73FBFF9AE3DBF3B8F3BBF426839BF52
:107A0000233A37BFF30435BFC9C832BFBB8530BF87
:107A1000DE3B2EBF4AEB2BBF159429BF563627BF3E
:107A200025D224BF996722BFCBF61FBFD17F1DBFD0
:107A3000C6021BBFC07F18BFD9F615BF2A6813BF87
:107A4000CDD310BFDA390EBF6B9A0BBF9BF508BFC1
:107A5000824B06BF3D9C03BFE4E700BF275DFCBE31
:107A6000CBE0F6BEEA5AF1BEBBCBEBBE7533E6BE49
:107A70004F92E0BE80E8DABE4136D5BECA7BCFBEAB
:107A800053B9C9BE15EFC3BE491DBEBE2A44B8BE18
:107A9000EF63B2BED47CACBE128FA6BEE59AA0BE88
:107AA00086A09ABE32A094BE229A8EBE938E88BEC5
:107AB000C07D82BECCCF78BE7F9A6CBE135C60BEA8
:107AC000011554BEC2C547BECF6E3BBEA2102FBE2D
:107AD000B5AB22BE834016BE87CF09BE73B2FABDD6
:107AE0002FBCE1BD36BDC8BD80B6AFBD04A996BDF3
:107AF000752B7BBD2EFB48BD2BC316BDB10AC9BC7F
:107B0000920E49BC000000805465726D696E616C14
:107B100000000000347B000800000020FC0300008F
:107B200078090008087C0008FC030020DC0F000036
:107B3000EC6900084132104201032924F413AC0718
:107B40001B20F4353938F10B18A0091C0128693CB9
:107B500013D95802360823C842434041132D591BFC
:107B6000087D041ACD0411021607026F03132D4C71
:107B700014086D4D1408994B1408F9121B08ED10E8
:107B8000012E180820416F12033B19400A2F0D3CAB
:107B9000811808C8420AD7A33B05440A3945442145
:107BA0004340411B1D5AD419041ABD041102160783
:107BB000026F0313E550140825521B0851081319CE
:107BC000140C2E08A551E8100920416F12033BD177
:107BD0004F1B08C5440136180848420AD7A33BBDCD
:107BE00044DAFD44600B53454747455220525454F4
:107BF0005A020413087B1408C80B12200226043909
:087C000030120F032B201000CD
:040000050800018965
:00000001FF
