:020000040800F2
:10000000300F0020A101000855490008ED39000813
:100010008D4100084B090008255C00080000000025
:10002000000000000000000000000000214F000858
:10003000470E000800000000274A00082555000868
:10004000BB010008BB010008BB010008BB010008A0
:10005000BB010008BB010008BB010008BB01000890
:10006000590E0008BB010008BB010008BB010008D5
:10007000BB010008BB010008BB010008BB01000870
:10008000BB010008BB010008BB010008BB01000860
:10009000BB010008BB010008BB010008BB01000850
:1000A000BB01000835560008BB010008BB01000871
:1000B000BB01000855560008BB010008BB01000841
:1000C000BB010008BB010008BB010008BB01000820
:1000D000BB010008995B0008BB010008BB010008D8
:1000E000490E0008BB010008BB010008BB01000865
:1000F000BB010008BB010008BB010008BB010008F0
:10010000BB010008BB010008BB010008BB010008DF
:10011000BB010008BB010008BB010008BB010008CF
:100120000D0D0008BB010008250D0008BB010008EB
:10013000BB010008BB010008BB010008BB010008AF
:10014000BB010008BB010008BB010008BB0100089F
:10015000BB010008BB010008BB010008BB0100088F
:10016000BB010008BB010008BB010008BB0100087F
:10017000BB010008BB010008BB0100080000000033
:10018000BB010008BB010008DFF810D000F08CFABA
:1001900000480047935C0008AFF30080300F002058
:1001A0000648804706480047FEE7FEE7FEE7FEE711
:1001B000FEE7FEE7FEE7FEE7FEE7FEE7195600086A
:1001C000890100089FED1A1AF5EE000A40EE010AB7
:1001D000BDEEE00AF5EEC00A10EE100AF1EE10FADC
:1001E00038BF401E00EE100A1349F7EE001AB8EEB1
:1001F000C00A30EEC00ADFED0F0A20EE200AFCEE46
:10020000C00A10EE900AC0F3080000EE900A01EB5D
:100210008000F8EE600A90ED011A70EE600A90ED31
:10022000000A71EEE01A21EE800A00EE810A7047A2
:1002300083F9223E00000044345D0008B5EEC00A98
:10024000F1EE10FA07D2DFED1E0AB4EEE00AF1EE8D
:1002500010FAA8BF7047DFED1B0AB5EEC00A60EECA
:10026000200ABDEEE01A11EE100AF1EE10FA38BFC6
:10027000401E00EE100A1549F7EE001AB8EEC00A4B
:1002800030EEC00ADFED100A60EE200ABCEEE00A94
:1002900010EE100AC0F3080000EE100A01EB800017
:1002A000B8EE400A90ED011A70EEC00A90ED000A17
:1002B00071EEE01A21EE800A00EE810A704700001C
:1002C000CD024CB483F9223E00000044345D0008A6
:1002D0002DE9F05F0546002092469B46884606467B
:1002E000814640241BE0284641464746224600F00E
:1002F00036F953465A46C01A914110D31146184652
:10030000224600F01DF92D1A67EB01084F462246E0
:100310000120002100F014F917EB00094E41201EC6
:10032000A4F10104DFDC484631462A464346BDE8D5
:10033000F09F40EA01039B0703D009E008C9121FA0
:1003400008C0042AFAD203E011F8013B00F8013B8F
:10035000521EF9D27047D2B201E000F8012B491EBB
:10036000FBD270470022F6E710B513460A46044652
:100370001946FFF7F0FF204610BD2DE9FE4F81EA38
:10038000030404F0004421F0004100944FF0000BFE
:1003900023F0004350EA01045ED052EA03045BD02C
:1003A000C3F30A54C1F30A552C44A4F2F334019464
:1003B000A0FB0254C1F3130141F48011C3F31303F2
:1003C00043F4801301FB024400FB034E840A970AA6
:1003D00044EA815447EA8357A4FB076802958D0AD3
:1003E00005FB07854FEA932C04FB0C542705029D5F
:1003F0004FEA065847EA1637B5EB08056EEB070CCF
:10040000870E920E47EA811742EA8312A7FB020188
:10041000B6EB0B0164EB00042B0D43EA0C335E18C2
:1004200044EB1C50DA465146E7FB0201C5F31304C6
:100430004FEA0B3343EA14534FEA0432019C43EA78
:100440000603A4F10C040294009CCDE900B400F072
:10045000DCF803B0BDE8F08F00200146F9E70EB5E7
:10046000C10F80EAE0700844CA07002140F233431C
:100470008DE80E000A460B4600F0C7F803B000BD39
:1004800000F0004230F000400AD0C10D01F560716B
:10049000C0F3160042EA0151C208400711437047F9
:1004A000002001467047000030B5041E71F10004C1
:1004B00004DB4FF00044404264EB0101141E73F171
:1004C000000405DB1C464FF00043524263EB04037B
:1004D0008B4208BF824230BD30B5041E71F100046A
:1004E00004DB4FF00044404264EB0101141E73F141
:1004F000000405DB1C464FF00043524263EB04034B
:10050000994208BF904230BD01F0004330B421F061
:10051000004150EA010206D00A0DA2F56072C1F353
:100520001301002A02DC30BC00207047440F44EA6B
:10053000C104C100E01830BC00EBC25000F01FB88D
:10054000202A04DB203A00FA02F100207047914093
:10055000C2F1200320FA03F3194390407047202A88
:1005600004DB203A21FA02F00021704721FA02F35D
:10057000D040C2F12002914008431946704700293B
:10058000A8BF7047401C490008BF20F00100704719
:1005900010B4B0FA80FC00FA0CF050EA010404BF79
:1005A00010BC704749B1CCF1200421FA04F411FACF
:1005B0000CF118BF012121430843A3EB0C01CB1D13
:1005C0004FEA00614FEA102042BF002010BC704784
:1005D00000EBC35010440029A4BF10BC7047401C5E
:1005E000490008BF20F0010010BC704710B5141E70
:1005F00073F1000408DA401C41F1000192185B41DC
:100600001A4301D120F0010010BD2DE9F04D9246B2
:100610009B4611B1B1FA81F202E0B0FA80F22032C9
:100620009046FFF78DFF04460F4640EA0A0041EA74
:100630000B0153465A46084313D0114653EA0100B2
:1006400019D0C8F140025046FFF789FF05460E4613
:10065000504659464246FFF773FF084305D0012034
:1006600004E020463946BDE8F08D0020054346EA07
:10067000E0762C4337430A986305E40AA0EB0800B0
:100680000022FD0A44EA47540A3002D50020014600
:10069000E9E7010510196941DDE9084500196941DB
:1006A000BDE8F04DA2E70000064C074D06E0E0680B
:1006B00040F0010394E8070098471034AC42F6D3A9
:1006C000FFF766FD386500085865000870B58C189E
:1006D00010F8015B15F0070301D110F8013B2A1156
:1006E00006D110F8012B03E010F8016B01F8016B43
:1006F0005B1EF9D12B0705D40023521E0DD401F83F
:10070000013BFAE710F8013BCB1A921C03E013F807
:10071000015B01F8015B521EF9D5A142D8D300203C
:1007200070BD70B50546AC6B206C00F0500050BB3E
:10073000206C40F4007020642068806800F0405015
:10074000E8B9207ED8B92068C06A00F4700020B1F2
:100750002068806800F4806088B92068406820F0D4
:10076000200021684860206C20F480702064206C98
:1007700000F4805018B9206C40F00100206420463D
:1007800000F0EEFE0BE0206C00F0100018B12046E7
:1007900000F0E8FE03E0A06BC16C2846884770BDFE
:1007A00070B50546AC6B40202064606C40F00400DE
:1007B0006064204600F0D6FE70BD70B50446A56B9F
:1007C000284600F0CEFE70BD55494A6822F44032FA
:1007D0004A604A6843681A434A600268526822F4D1
:1007E000807203685A6002685368026943EA022211
:1007F00003685A600268526822F0407203685A60C7
:100800000268526883681A4303685A6002689268F3
:1008100022F4006203689A6002689268C3681A430F
:1008200003689A603F4B826A9A4218D002689268C5
:1008300022F0706203689A6002689268836A1A43C1
:1008400003689A600268926822F0405203689A60D6
:1008500002689268C36A1A4303689A600BE00268F0
:10086000926822F0706203689A600268926822F0CF
:10087000405203689A600268926822F0020203689C
:100880009A6002689368027E43EA420203689A60B3
:100890002022125CA2B10268526842F4006203682E
:1008A0005A600268526822F4604203685A60026823
:1008B0005368426A521E43EA423203685A6005E0B6
:1008C0000268526822F4006203685A600268D26AC1
:1008D00022F470020368DA620268D36A828B521EC5
:1008E00043EA02520368DA620268926822F40072F4
:1008F00003689A600268936890F8302043EA4222C5
:1009000003689A600268926822F4806203689A60C1
:1009100002689368426943EA822203689A607047DA
:10092000002301400100000F10B503F0B7F804F0F8
:100930007BF800F0BCFA10BD10B503F0B6F804F077
:1009400083F800F0B8FA10BD704700BFFEE7000062
:1009500090ED070A80ED0A0A90ED070AD0ED080A2B
:10096000B0EE001A01EE200ADFED030A80EE201A35
:1009700080ED0B1A70470000D0B3DD3F10B52DEDB0
:10098000088B044694ED0D0A84ED130A94ED020AD7
:1009900084ED140A94ED140AD4ED130A30EE600AC3
:1009A00084ED150A94ED150AD4ED160A30EE600AAE
:1009B000D4ED100A20EE200AD4ED110A94ED151A98
:1009C00000EE810AD4ED170A30EE200A84ED170AF2
:1009D00094ED150A84ED160A94ED180A10EE101A1B
:1009E0000846FFF74DFD41EC1A0BB0EE4A0AF0EE57
:1009F0006A0A05F035F9B0EE408AF0EE608A94EDAF
:100A0000170A10EE101A0846FFF73AFD41EC190BD1
:100A100053EC182BFFF760FD17D294ED180A10EE77
:100A2000101A0846FFF72CFD41EC190BB0EE490AED
:100A3000F0EE690A05F014F9B0EE408AF0EE608A33
:100A400051EC180BFFF760FDE06594ED180A10EE0D
:100A5000101A0846FFF714FD41EC1B0BB0EE4B0AD1
:100A6000F0EE6B0A05F0FCF8B0EE40AAF0EE60AADA
:100A700051EC1A0B81F0004141EC180B94ED170A70
:100A800010EE101A0846FFF7FBFC41EC190B53EC73
:100A9000182BFFF709FD1BD294ED180A10EE101A5F
:100AA0000846FFF7EDFC41EC1A0BB0EE4A0AF0EEF7
:100AB0006A0A05F0D5F8B0EE409AF0EE609A51EC73
:100AC000190B81F0004141EC180BFFF71DFDE065AB
:100AD000BDEC088B10BD10B52DED088B044694EDD0
:100AE0000C0A84ED1C0A94ED010A84ED1D0A94EDB4
:100AF0001D0AD4ED1C0A30EE600A84ED1E0A94ED46
:100B00001E0AD4ED1F0A30EE600AD4ED190A20EE59
:100B1000200AD4ED1A0A94ED1E1A00EE810AD4EDD3
:100B2000200A30EE200A84ED200A94ED1E0A84ED9E
:100B30001F0A94ED210A10EE101A0846FFF7A0FCD8
:100B400041EC1A0BB0EE4A0AF0EE6A0A05F088F89A
:100B5000B0EE408AF0EE608A94ED200A10EE101A92
:100B60000846FFF78DFC41EC190B53EC182BFFF7EF
:100B7000B3FC18D294ED210A10EE101A0846FFF7C4
:100B80007FFC41EC190BB0EE490AF0EE690A05F062
:100B900067F8B0EE408AF0EE608A51EC180BFFF770
:100BA000B3FC8021085194ED210A10EE101A08467A
:100BB000FFF766FC41EC1B0BB0EE4B0AF0EE6B0A44
:100BC00005F04EF8B0EE40AAF0EE60AA51EC1A0B18
:100BD00081F0004141EC180B94ED200A10EE101A40
:100BE0000846FFF74DFC41EC190B53EC182BFFF7AF
:100BF0005BFC1CD294ED210A10EE101A0846FFF798
:100C00003FFC41EC1A0BB0EE4A0AF0EE6A0A05F01E
:100C100027F8B0EE409AF0EE609A51EC190B81F093
:100C2000004141EC180BFFF76FFC80210851BDEC2F
:100C3000088B10BD10B5044604F12402111F081FD3
:100C4000D4F894309847207E032800DA10BDD4F8F9
:100C500090008047072853D2DFE800F05204111EAD
:100C60002B38450094ED080ADFED270A30EEC00A64
:100C7000D4ED090A30EE600A84ED070A41E094EDF4
:100C8000070ADFED210A30EEC00AD4ED090A30EE82
:100C9000600A84ED080A34E094ED070ADFED1A0AD1
:100CA00030EEC00AD4ED090A30EE600A84ED080A7D
:100CB00027E094ED070ADFED140A30EEC00AD4ED08
:100CC000080A30EE600A84ED090A1AE094ED070A7A
:100CD000DFED0D0A30EEC00AD4ED080A30EE600AEE
:100CE00084ED090A0DE094ED080ADFED070A30EE05
:100CF000C00AD4ED090A30EE600A84ED070A00E06C
:100D000000BF00BF00BFA1E70000000010B503F066
:100D10004BFA03F08FFA024800F002FF10BD00000A
:100D20002404002010B503F02FFC03F073FC0248EC
:100D300000F0F6FE10BD0000840400200146087893
:100D400010381823B0FBF3F20848805CC865032A0A
:100D500005D908686FF30900001D886503E008687D
:100D60006FF309008865886D70470000145D000806
:100D7000014600208A6A8B69CBB932B1012A0DD0B5
:100D8000022A03D0032A10D10EE000BFCB6A03F081
:100D90008073B3F1807F00D1012007E0CB6AB3F10B
:100DA000C07F00D1012001E000E000BF34E08B698A
:100DB000B3F5005F1AD132B1012A07D0022A03D05D
:100DC000032A11D10AE000BF01200EE0CB6A03F034
:100DD0008073B3F1807F00D1012006E0CB6AB3F1CC
:100DE000C07F00D1012000E000BF15E032B1012A30
:100DF00005D0022A04D0032A0CD103E000BF00BFB3
:100E0000012008E0CB6A03F08073B3F1807F00D14A
:100E1000012000E000BF00BF704730B504682468BF
:100E200024F4802405682C60046863608468402C86
:100E300004D10468A2600468E16003E00468A16072
:100E40000468E26030BD704710B503F0B1FB4FF4A9
:100E5000006001F045F810BD10B503F0B9F90420A9
:100E600001F03EF810BD704710B50446204600F072
:100E700023F82046FFF7DEFE2046FFF769FD2046F7
:100E800003F09CFD2046FFF779FD2046FFF723FE87
:100E9000204603F060FD94ED0F1AF0EE410A94ED48
:100EA0000E1AB0EE410AD4F89800804710BD10B574
:100EB000FFF74AFD10BD704710B50446D4F88C000A
:100EC000804784ED030AD4ED030A607800EE100A2F
:100ED000B8EE400A20EE800A84ED040A94ED040A7C
:100EE000DFED030A20EE200A84ED050A10BD0000A4
:100EF0004DF38E3C90ED030A704700000146032934
:100F000001DB00207047104850F8210000EE100A65
:100F1000B8EEC00ADFED0D0A20EE200A0A480C30B8
:100F200050F8210000EE900AF8EEE00A9FED081A52
:100F300001EE200ABDEEC00A10EE102A02480C3065
:100F400040F821201046DDE7080700206666663F6E
:100F5000D0CCCC3D2DE9F0412DED068B04460D465D
:100F600016460020FFF7CAFF0746FFF778FA41EC64
:100F70001A0B9FED260B53EC102BFFF7FEF941ECFB
:100F8000190B9FED240B53EC102BFFF7F6F941ECF6
:100F9000180BFFF7B9FA20600120FFF7AFFF0746F3
:100FA000FFF75DFA41EC1A0B9FED180B53EC102B79
:100FB000FFF7E3F941EC190B9FED160B53EC102BE7
:100FC000FFF7DBF941EC180BFFF79EFA28600220CF
:100FD000FFF794FF0746FFF742FA41EC1A0B9FED2B
:100FE0000B0B53EC102BFFF7C8F941EC190B9FEDDD
:100FF000090B53EC102BFFF7C0F941EC180BFFF76E
:1010000083FA3060BDEC068BBDE8F081F168E388BF
:10101000B5F8343F000000000000F83F0146032906
:1010200001DB00207047104850F8210000EE100A44
:10103000B8EEC00ADFED0D0A20EE200A0A480C3097
:1010400050F8210000EE900AF8EEE00A9FED081A31
:1010500001EE200ABDEEC00A10EE102A02480C3044
:1010600040F821201046DDE72C0700206666663F29
:10107000D0CCCC3D2DE9F0412DED068B04460D463C
:1010800016460020FFF7CAFF0746FFF7E8F941ECD4
:101090001A0B9FED260B53EC102BFFF76EF941EC6A
:1010A000190B9FED240B53EC102BFFF766F941EC65
:1010B000180BFFF729FA20600120FFF7AFFF074662
:1010C000FFF7CDF941EC1A0B9FED180B53EC102BE9
:1010D000FFF753F941EC190B9FED160B53EC102B56
:1010E000FFF74BF941EC180BFFF70EFA28600220CE
:1010F000FFF794FF0746FFF7B2F941EC1A0B9FED9B
:101100000B0B53EC102BFFF738F941EC190B9FED4B
:10111000090B53EC102BFFF730F941EC180BFFF7DC
:10112000F3F93060BDEC068BBDE8F081F168E3882F
:10113000B5F8343F000000000000F83F014691F888
:101140003C00704790F83C1007297CD2DFE801F0A2
:101150007B04376A9FD2FD0090ED0D0ADFED9B0AFC
:1011600020EE200AD0ED0E0A80EE201A90ED030A40
:1011700021EE000A80ED090A90ED0D0ADFED930AD9
:1011800020EE200AD0ED0E0A80EE201A90ED020A21
:1011900021EE000A80ED0B0A90ED0D0AD0ED090A50
:1011A00030EE600AD0ED0B0A30EE600AF0EE000A75
:1011B00080EE201A80ED0C1A80ED051A03E190ED07
:1011C0000D0ADFED830A20EE200AD0ED0E0A80EE34
:1011D000201A90ED030A21EE000A80ED070A90ED37
:1011E0000D0ADFED7B0A20EE200AD0ED0E0A80EE1C
:1011F000201A90ED040A21EE000A80ED0B0A90ED12
:101200000D0AD0ED070A30EE600AD0ED0B0A30EE81
:10121000600AF0EE000A80EE201A80ED0C1A80EDD4
:10122000051AD0E090ED0D0ADFED680A60EE200AA5
:1012300090ED0E1A80EE810AD0ED020A20EE200A0F
:1012400080ED070A00E0BDE090ED0D0ADFED5F0ADA
:1012500020EE200AD0ED0E0A80EE201A90ED040A4E
:1012600021EE000A80ED080A90ED0D0AD0ED070A84
:1012700030EE600AD0ED080A30EE600AF0EE000AA7
:1012800080EE201A80ED0C1A80ED051A9BE090ED9F
:101290000D0ADFED4F0A20EE200A90ED0E1AC0EE87
:1012A000010A90ED020A20EE800A80ED060A90ED18
:1012B0000D0ADFED470A20EE200A90ED0E1AC0EE6F
:1012C000010A90ED030A20EE800A80ED080A90EDF5
:1012D0000D0AD0ED060A30EE600AD0ED080A30EEB5
:1012E000600AF0EE000A80EE201A80ED0C1A80ED04
:1012F000051A68E090ED0D0ADFED340A60EE200A71
:1013000090ED0E1A80EE810AD0ED040A20EE200A3C
:1013100080ED060A90ED0D0ADFED2C0A60EE200A42
:1013200090ED0E1A80EE810AD0ED030A20EE200A1D
:1013300080ED0A0A90ED0D0AD0ED060A30EE600A43
:10134000D0ED0A0A30EE600A00E008E0F0EE000A94
:1013500080EE201A80ED0C1A80ED051A33E090ED36
:101360000D0ADFED1B0A60EE200A90ED0E1A80EEEA
:10137000810AD0ED040A20EE200A80ED090A90EDE2
:101380000D0ADFED130A20EE200AD0ED0E0A80EEE2
:10139000201A90ED020A21EE000A80ED0A0A90ED73
:1013A0000D0AD0ED090A30EE600AD0ED0A0A30EEDF
:1013B000600AF0EE000A80EE201A80ED0C1A80ED33
:1013C000051A00E000BF00BF704700002DB2DD3FEE
:1013D0002DB2DDBF38B502460020009000BF92F864
:1013E0003C00012801D1022038BD012082F83C00D8
:1013F00000BF0868092816D91068C0680C780A3C34
:1014000004EB44050724AC40A0431468E0600C786A
:101410000A3C04EB44048868A0401468E468204354
:101420001468E06013E0106800690C7804EB440570
:101430000724AC40A043146820610C7804EB4404FA
:101440008868A040146824692043146820614868B3
:10145000072817D21068406B0C79641E04EB8405D2
:101460001F24AC40A04314686063088880B20C79E4
:10147000641E04EB8404A0401468646B2043146869
:10148000606331E048680D2817D21068006B0C7952
:10149000E41F04EB84051F24AC40A04314682063C0
:1014A000088880B20C79E41F04EB8404A04014681F
:1014B000246B20431468206316E01068C06A0C791E
:1014C0000D3C04EB84051F24AC40A0431468E0628B
:1014D000088880B20C790D3C04EB8404A0401468A9
:1014E000E46A20431468E062194B1A4C1068A04269
:1014F00006D10868122803D1586840F4800058606B
:10150000144C1068A0421CD10868102802D008684A
:10151000112816D1586840F4000058600868102857
:101520000FD10D4800680D4CB0FBF4F000EB8000CB
:101530004000009002E00098401E009000980028B3
:10154000F9D100BF002082F83C0000BF00BF4BE78C
:1015500000230140002001400C00002040420F0009
:10156000704770477047000070B5044600250CB9FD
:10157000012070BD1549A06A884200D000BF206CD0
:1015800030B9204600F024F80020606484F83C0064
:10159000206C00F0100088B9206C20F4885040F0D6
:1015A000020020642046FFF70FF900206064206CE1
:1015B00020F0020040F00100206400E0012500BF9F
:1015C000002084F83C0000BF2846D2E70100000F4D
:1015D00010B586B00446142101A8FEF7C3FE5E498B
:1015E0002068884264D100BF002000905B480068FA
:1015F00040F48070594908600846006800F4807023
:10160000009000BF00BF00BF002000905348143876
:10161000006840F004005149143908600846006829
:1016200000F00400009000BF00BF00BF0020009049
:101630000846006840F0020008600846006800F0B4
:101640000200009000BF00BF3020019003200290F4
:101650000020039001A9424800F050FC01200190B5
:10166000032002900020039001A93E4800F046FCB0
:101670003D483E4908600020486000213B488160A9
:10168000C1604FF48061016189004161890081611D
:101690008911C161490201620021416200F060FBD1
:1016A00008B1FFF7E0FB00BF3048A063846351E05E
:1016B0002F49206888424DD100BF00200090274864
:1016C000006840F40070254908600846006800F48E
:1016D0000070009000BF00BF00BF002000901F48B6
:1016E0001438006840F004001C49143908600846AA
:1016F000006800F00400009000BF00BF07200190C8
:10170000032002900020039001A9154800F0F6FB89
:1017100015483030174908604FF0007048600021CC
:1017200014488160C1604FF48061016189004161AA
:10173000890081618911C161490201620021416210
:1017400000F00EFB08B1FFF78EFB00BF0948A06355
:10175000846300BF06B010BD002001404438024041
:1017600000080240000402401064024024040020EB
:101770000021014084040020F8B504460D461646B9
:101780000020009000BF94F83C00012801D1022005
:10179000F8BD012084F83C0000BF2068806800F09C
:1017A0000100A0B92068806840F0010021688860CD
:1017B000494800684949B0FBF1F000EB4000009057
:1017C00002E00098401E009000980028F9D120689F
:1017D000806800F0010000287CD0206C40F201619C
:1017E000884340F4807020642068406800F4806082
:1017F00028B1206C20F4005040F480502064206C0C
:1018000000F48050B0F5805F04D1606C20F00600D9
:10181000606401E00020606400BF002084F83C00A8
:1018200000BF2F4F2F48A16BC8632F48A16B0864DE
:101830002E48A16BC8646FF0220021680860206800
:10184000406840F08060216848602068806840F40B
:10185000807021688860226802F14C0133462A4674
:10186000A06B00F0F3FA786800F01F0018BB204965
:101870002068884213D01F492068884204D1381D4F
:10188000006800F01F0050B11B492068884221D138
:101890001348001D006800F01F0010281AD22068AD
:1018A000806800F0405028B92068806840F080408F
:1018B000216888600EE00E49206888420AD12068BD
:1018C000806800F0405028B92068806840F080406F
:1018D0002168886000205BE70C00002040420F0078
:1018E0000023014023070008BB070008A1070008E8
:1018F00000200140002101400022014070B5044653
:101900000CB9012070BD94F8200010B9204600F0F9
:10191000AFF82068006820F002002168086000F03D
:10192000F3FB05460DE000F0EFFB401B0A2808D949
:10193000606A40F400306062052084F820000120D5
:10194000E0E72068406800F002000028EBD1206842
:10195000006840F001002168086000F0D5FB0546F2
:101960000DE000F0D1FB401B0A2808D9606A40F462
:1019700000306062052084F820000120C2E7206862
:10198000406800F001000028EBD0207E012806D13D
:101990002068006840F080002168086005E0206849
:1019A000006820F0800021680860607E012806D170
:1019B0002068006840F040002168086005E0206869
:1019C000006820F0400021680860A07E012806D150
:1019D0002068006840F020002168086005E0206869
:1019E000006820F0200021680860E07E012806D110
:1019F0002068006820F010002168086005E0206879
:101A0000006840F0100021680860207F012806D19E
:101A10002068006840F008002168086005E0206840
:101A2000006820F0080021680860607F012806D166
:101A30002068006840F004002168086005E0206824
:101A4000006820F0040021680860D4E9020108431E
:101A500021690843616908436168491E0843216898
:101A6000C86100206062012084F82000002049E75E
:101A700010B586B00446142101A8FEF773FC1B497B
:101A80002068884230D100BF0020009018480068CC
:101A900040F00070164908600846006800F00070C9
:101AA000009000BF00BF00BF002000901048103819
:101AB000006840F001000E491039086008460068CF
:101AC00000F00100009000BF00BF4FF4C050019033
:101AD000022002900020039003200490092005902A
:101AE00001A9044800F00AFA06B010BD00640040E5
:101AF0004038024000000240014691F835000228BB
:101B000003D08020486501207047052081F835000A
:101B10000868006820F001000A6810600020F3E700
:101B2000F8B50446002000908C4800684FF4165128
:101B3000B0FBF1F7A56D2E6894F85C100820884082
:101B4000304098B12068006800F0040070B120684F
:101B5000006820F004002168086094F85C100820F8
:101B60008840A860606D40F00100606594F85C10EA
:101B700001208840304068B12068406900F0800052
:101B800040B194F85C1001208840A860606D40F07E
:101B90000200606594F85C1004208840304068B111
:101BA0002068006800F0020040B194F85C10042046
:101BB0008840A860606D40F00400606594F85C1097
:101BC00010208840304078B32068006800F008009A
:101BD00050B394F85C1010208840A860206800681A
:101BE00000F4802080B12068006800F4002028B94B
:101BF000206CC8B12046216C884715E0A06C98B1D4
:101C00002046A16C88470FE02068006800F48070CF
:101C100028B92068006820F0080021680860206C5E
:101C200010B12046216C884794F85C102020884031
:101C30003040002865D02068006800F010000028BF
:101C40005FD094F85C1020208840A86094F835009C
:101C5000052828D12068006820F016002168086057
:101C60002068406920F0800021684861206C08B934
:101C7000A06C28B12068006820F008002168086086
:101C800094F85C103F208840A86000BF002084F8D2
:101C9000340000BF012084F83500206D10B12046CB
:101CA000216D8847F8BD2068006800F4802080B16D
:101CB0002068006800F4002028B9606C10B120464C
:101CC000616C88471DE0E06BD8B12046E16B884726
:101CD00017E02068006800F4807068B92068006828
:101CE00020F010002168086000BF002084F8340054
:101CF00000BF012084F83500E06B10B12046E16B95
:101D00008847606D38B3606D00F00100F0B10520C8
:101D100084F835002068006820F001002168086020
:101D200000BF0098401C0090B84200D905E0206830
:101D3000006800F001000028F3D100BF00BF0020C0
:101D400084F8340000BF012084F83500E06C10B145
:101D50002046E16C884700BFA4E700000C0000208B
:101D60002DE9F0410446002500F0CEF9074614B9EC
:101D70000120BDE8F081606A00B100BF00BF002013
:101D800084F8340000BF022084F835002068006821
:101D900020F00100216808600AE000F0B5F9C01BDE
:101DA000052805D920206065032084F83500E0E788
:101DB0002068006800F001000028EED12068056866
:101DC00021480540D4E901010843E168084321693D
:101DD000084361690843A1690843E1690843216A2E
:101DE00008430543606A042803D1D4E90B01084382
:101DF0000543206805602068456925F00705606A8D
:101E00000543606A04280DD1A06A0543E06A48B121
:101E10002046FEF7ADFF28B140206065012084F820
:101E20003500A6E7206845612046FEF787FF064695
:101E300094F85C103F208840B0600020606501206D
:101E400084F83500002094E73F8010F02DE9F0473A
:101E500004460D4616461F464FF00008D4F8589029
:101E600000BF94F83400012802D10220BDE8F087B9
:101E7000012084F8340000BF94F83500012825D1F2
:101E8000022084F83500002060653B463246294632
:101E90002046FEF7C2FF94F85C103F208840C9F846
:101EA00008002068006840F0160021680860206C77
:101EB00028B12068006840F00800216808602068A8
:101EC000006840F001002168086006E000BF0020C3
:101ED00084F8340000BF4FF002084046C6E7704760
:101EE00010B5044604480068204020B10248046050
:101EF0002046FFF7F4FF10BD143C0140F8B5024640
:101F00000B460025002400200021DCE0012606FA13
:101F100001F51E6806EA0504AC4273D15E68012E25
:101F200008D05E68022E05D05E68112E02D05E6871
:101F3000122E13D190684F000326BE40B0434F00CD
:101F4000DE68BE4030439060506801268E40B0434A
:101F50001E79C6F300168E4030435060D0684F00A3
:101F60000326BE40B0434F009E68BE403043D06061
:101F70005E68022E02D05E68122E13D1CF0802F1E5
:101F8000200656F827004E07F70E0F26BE40B04336
:101F90004F07FF0E1E69BE403043CF0802F12006F6
:101FA00046F8270010684F000326BE40B0431E7954
:101FB00006F003064F00BE40304310605E6806F036
:101FC0008056B6F1805F7DD100BF00260096404E5E
:101FD000366846F480463E4F3E603E46366806F41C
:101FE0008046009600BF00BF3A4E8F0856F8270083
:101FF0008E07370F0F26BE40B043374EB24202D194
:10200000002624E05EE0354EB24201D101261EE0FA
:10201000334EB24201D1022619E0324EB24201D112
:10202000032614E0304EB24201D104260FE02F4EB9
:10203000B24201D105260AE02D4EB24201D1062658
:1020400005E02C4EB24201D1072600E008268F079A
:102050003F0FBE4030431F4E8F0846F82700264EE4
:102060003068A0435E6806F48036B6F5803F00D144
:102070002043214E3060361D3068A0435E6806F470
:102080000036B6F5003F00D120431B4E361D3060B0
:10209000361D3068A0435E6806F48016B6F5801FD2
:1020A00000D12043144E08363060361D3068A043FE
:1020B0005E6806F40016B6F5001F00D120430E4EF0
:1020C0000C363060491C1029FFF420AFF8BD000029
:1020D0004438024008380140000002400004024039
:1020E00000080240000C02400010024000140240B0
:1020F00000180240001C0240003C01400AB181610E
:1021000001E00B04836170470148006870470000DC
:102110000000002003480068034909780844014989
:1021200008607047000000200800002010B50D482E
:10213000006840F400700B4908600846006840F4ED
:10214000806008600846006840F4807008600320E2
:1021500000F0A2F8002000F007F800F02BF80020B3
:1021600010BD0000003C024070B504460E480078E7
:102170004FF47A71B1FBF0F00C490968B1FBF0F54E
:10218000284600F059FF08B1012070BD102C07D27D
:1021900000222146501E00F041F80548046001E08D
:1021A0000120F2E70020F0E7080000200C000020EA
:1021B0000400002008B500BF002000900E48006811
:1021C00040F480400C4908600846006800F48040F4
:1021D000009000BF00BF00BF00200090081F0068F3
:1021E00040F08050091F08600846006800F08050E9
:1021F000009000BF00BF08BD4438024001460846B9
:10220000002809DB00F01F0301229A4043099B00CC
:1022100003F1E023C3F8002100BF70472DE9F05F10
:1022200080460D461646002703F0FEFC0746394659
:102230002A46334601F00700C0F1070ABAF1040F3D
:1022400002D94FF0040A01E0C0F1070AD14600F1BB
:10225000040ABAF1070F02D24FF0000A01E0A0F120
:10226000030AD4464FF0010A0AFA09FAAAF1010A50
:102270000AEA020A0AFA0CFA4FF0010B0BFA0CFBFD
:10228000ABF1010B0BEA030B4AEA0B042146404673
:1022900003F0D2FCBDE8F09F00BF00F00702064B40
:1022A00019684FF6FF031940044B0B4343EA022120
:1022B000014B196000BF70470CED00E00000FA050B
:1022C00070B504460D460CB9012070BD5848006831
:1022D00000F00F00A84209D255490D700846006869
:1022E00000F00F00A84201D00120EEE7207800F0B6
:1022F000020002281DD1207800F00400042805D136
:102300004C48006840F4E0504A490860207800F0EA
:102310000800082805D14748006840F46040454956
:1023200008604448006820F0F000A1680843414973
:102330000860207800F00100A8B36068012807D188
:102340003C4808380068C0F34040B8B90120BCE7F9
:102350006068022802D06068032807D13548083831
:102360000068C0F3406048B90120AEE73148083842
:102370000068C0F3400008B90120A6E72D480068B6
:1023800020F00300616808432A490860FFF7BCFE9B
:10239000064609E0FFF7B8FE801B41F2883188420B
:1023A00002D9032091E707E02248006800F00C0002
:1023B0006168B0EB810FEDD11D48006800F00F009F
:1023C000A84209D91A490D700846006800F00F00AC
:1023D000A84201D0012078E7207800F0040004280A
:1023E00007D11448006820F4E050E168084311491F
:1023F0000860207800F00800082808D10D4800681F
:1024000020F46040216940EAC1000A49086000F0F8
:1024100019F808490968C1F30311074A515CC8401B
:102420000649086006480068FFF79EFE00204CE75A
:10243000003C0240083802401C5D00080C000020EF
:10244000040000202DE9F047002400250026A146C5
:102450002548006800F00C0020B1042805D00828A9
:102460003AD105E0DFF8849039E0DFF8849036E077
:102470001D48001F006800F03F041B48001F006853
:1024800000F4800078B11A481749091F0968C1F3A0
:102490008811A0FB01700146224600233846FDF753
:1024A00017FF05460EE011480F49091F0968C1F3DF
:1024B0008811A0FB01700146224600233846FDF733
:1024C00007FF05460848001F0068C0F30140401C94
:1024D0004600B5FBF6F902E0DFF8109000BF00BF40
:1024E0004846BDE8F0870000083802400024F400A8
:1024F00000127A00F8B504460CB90120F8BD207826
:1025000000F00100002874D0F948006800F00C00C9
:1025100004280DD0F648006800F00C00082813D1FC
:10252000F348001F006800F48000B0F5800F0BD165
:10253000EF4808380068C0F34040002859D0606870
:10254000002856D10120D9E700BF6068B0F5803F70
:1025500008D1E7480838006840F48030E449083979
:1025600008601EE06068B0F5A02F0DD1E048083883
:10257000006840F48020DE49083908600846006899
:1025800040F4803008600CE0D9480838006820F436
:102590008030D749083908600846006820F4802058
:1025A000086000BF606890B1FFF7AEFD054606E029
:1025B000FFF7AAFD401B642801D903209EE7CC4801
:1025C00008380068C0F340400028F1D011E0FFF760
:1025D0009BFD054606E0FFF797FD401B642801D9E7
:1025E00003208BE7C24808380068C0F34040002849
:1025F000F1D1207800F0020002285FD1BC480068C9
:1026000000F00C0058B1BA48006800F00C0008282F
:102610001CD1B748001F006800F48000B0B9B4486E
:1026200008380068C0F3400020B1E068012801D0FC
:10263000012063E7AE480838006820F0F8002169FF
:1026400040EAC100AA490839086037E0E06800B3F1
:102650000120A8490860FFF757FD054606E0FFF78F
:1026600053FD401B022801D9032047E7A048083842
:102670000068C0F340000028F1D09D480838006889
:1026800020F0F800216940EAC10099490839086042
:1026900014E0002097490860FFF736FD054606E084
:1026A000FFF732FD401B022801D9032026E790489E
:1026B00008380068C0F340000028F1D1207800F00D
:1026C000080008282CD16069A8B101208A49086057
:1026D000FFF71AFD054606E0FFF716FD401B02282E
:1026E00001D903200AE782486C300068C0F340003B
:1026F0000028F1D014E000207F490860FFF704FDB6
:10270000054606E0FFF700FD401B022801D9032023
:10271000F4E677486C300068C0F340000028F1D13F
:10272000207800F00400042870D100277048383069
:10273000006800F0805090B900BF002000906C4805
:102740003830006840F080506949383108600846E8
:10275000006800F08050009000BF00BF012767486C
:10276000006800F48070B0B96448006840F480707C
:1027700062490860FFF7C8FC054606E0FFF7C4FCA5
:10278000401B022801D90320B8E65C48006800F429
:1027900080700028F2D000BFA068012808D15448FA
:1027A0006830006840F001005149683108601DE060
:1027B000A06805280DD14E486830006840F004003C
:1027C0004B49683108600846006840F00100086025
:1027D0000CE047486830006820F001004449683147
:1027E00008600846006820F00400086000BFA06888
:1027F000A8B1FFF789FC054609E0FFF785FC401BFF
:1028000041F28831884202D9032077E626E0384831
:1028100068300068C0F340000028EED013E0FFF7F6
:1028200073FC054608E0FFF76FFC401B41F288315E
:10283000884201D9032061E62D4868300068C0F362
:1028400040000028EFD1012F07D129483830006817
:1028500020F0805026493831086000BFA069002868
:1028600045D02348006800F00C0008285DD0A0691E
:10287000022845D100201F490866FFF745FC0546A0
:1028800006E0FFF741FC401B022801D9032035E692
:10289000174808380068C0F340600028F1D1D4E937
:1028A00007010843616A40EA81110122A06AC2EB74
:1028B000500041EA00412C20005D41EA00600C49D3
:1028C000091F086001200B490866FFF71DFC05463B
:1028D00006E0FFF719FC401B022801D903200DE692
:1028E000034808380068C0F340600028F1D03FE09A
:1028F0000838024000004742800E47420070004006
:1029000000201C490866FFF7FFFB054606E0FFF7BD
:10291000FBFB401B022801D90320EFE516480068A5
:10292000C0F340600028F2D122E0A069012800D164
:10293000E4E51148001D066806F48001E069814263
:1029400014D106F03F01206A81420FD147F6C070D2
:102950003040616A884209D106F44031A06A814260
:1029600004D106F07061E06A814201D00120C5E522
:102970000020C3E5000047420038024010B504467D
:102980000CB9012010BD606A00B900BF0021A1622E
:1029900094F8510028B9002084F85000204600F037
:1029A00033F8022084F851002068006820F04000CD
:1029B00021680860D4E901010843E16808432169FE
:1029C000084361690843218B01F400710843E16900
:1029D0000843216A0843A16A08432168086004216A
:1029E000A06901EA1040616A0843216848602068D4
:1029F000C06920F400602168C86100206065012082
:102A000084F851000020BDE710B586B004461421BB
:102A100001A8FDF7A7FC37492068884230D100BFE4
:102A2000002000903448006840F48050324908602B
:102A30000846006800F48050009000BF00BF00BF4F
:102A4000002000902C481438006840F001002A490A
:102A5000143908600846006800F00100009000BFCB
:102A600000BFE0200190022002900020039003208C
:102A700004900520059001A92048FFF73FFA36E0B1
:102A80001F492068884232D100BF002000901A48B8
:102A9000001F006840F480401749091F086008467D
:102AA000006800F48040009000BF00BF00BF00201D
:102AB000009011481438006840F002000E491439A3
:102AC00008600846006800F00200009000BF00BFE8
:102AD0004FF46040019002200290002003900320F8
:102AE00004900520059001A90648FFF707FA06B0F3
:102AF00010BD000000300140443802400000024098
:102B000000380040000402402DE9F843044688469E
:102B100016461D464FF000096068B0F5827F0DD162
:102B2000A06858B9042084F8510033464246414613
:102B30002046009500F06BF9BDE8F88300BF94F8DB
:102B40005000012801D10220F6E7012084F850004E
:102B500000BFFFF7D9FA074694F85100012802D0C8
:102B60004FF0020978E0B8F1000F00D016B94FF02D
:102B7000010971E0042084F8510000206065C4F868
:102B80003880A687E6872063A086E086206460649C
:102B9000A068B0F5004F05D12068006820F480409F
:102BA000216808602068006800F04000402805D0D7
:102BB0002068006840F0400021680860E068F8B9CB
:102BC0001AE02068806800F0010050B12068007BA6
:102BD000A16B0870A06B401CA063E08F401EE087D3
:102BE0000AE0FFF791FAC01BA84201D3681C00B9A4
:102BF00015B94FF003092FE0E08F0028E1D11EE066
:102C00001AE02068806800F0010050B12068C068B8
:102C1000A16B0880A06B801CA063E08F401EE08742
:102C20000AE0FFF771FAC01BA84201D3681C00B983
:102C300015B94FF003090FE0E08F0028E1D13A46C3
:102C40002946204602F098F808B120206065606DA2
:102C500008B14FF0010900BF012084F8510000BF06
:102C6000002084F8500000BF484665E72DE9F84F82
:102C70000446884616461D464FF0000A00BF94F8E9
:102C80005000012802D10220BDE8F88F012084F80D
:102C9000500000BFFFF738FA0746B14694F85100DC
:102CA000012802D04FF0020AA7E0B8F1000F00D0CF
:102CB00016B94FF0010AA0E0032084F8510000206B
:102CC0006065C4F83080A686E686A063A087E087AA
:102CD00060642064A068B0F5004F05D120680068EA
:102CE00040F48040216808602068006800F04000DF
:102CF000402805D02068006840F040002168086046
:102D0000E068B0F5006F2FD1606810B1B9F1010F24
:102D100009D1206B00882168C860206B801C20636B
:102D2000E08E401EE0861BE02068806800F0020014
:102D300002280AD1206B00882168C860206B801CA3
:102D40002063E08E401EE0860AE0FFF7DDF9C01B3D
:102D5000A84201D3681C00B915B94FF0030A4CE032
:102D6000E08E0028E0D12EE0606810B1B9F1010FCB
:102D700009D1206B007821680873206B401C206308
:102D8000E08E401EE0861BE02068806800F00200B4
:102D900002280AD1206B007821680873206B401C40
:102DA0002063E08E401EE0860AE0FFF7ADF9C01B0D
:102DB000A84201D3681C00B915B94FF0030A1CE002
:102DC000E08E0028E0D13A462946204602F01EF85F
:102DD00008B120206065A06850B900BF00200090B5
:102DE0002068C068009020688068009000BF00BF25
:102DF000606D08B14FF0010A00BF012084F8510056
:102E000000BF002084F8500000BF50463CE72DE989
:102E1000FF5F0446884691461D460E9E01200290A3
:102E20000020019000BF94F85000012803D1022037
:102E300004B0BDE8F09F012084F8500000BFFFF708
:102E400063F9074694F851B060680390AA46BBF155
:102E5000010F0BD00398B0F5827F04D1A06810B9A0
:102E6000BBF1040F02D002200190DBE0B8F1000FAB
:102E700003D0B9F1000F00D015B901200190D1E0C5
:102E800094F85100042802D0052084F85100002055
:102E90006065C4F83890E587A587C4F83080E5867A
:102EA000A586206460642068006800F04000402827
:102EB00005D02068006840F0400021680860E068A4
:102EC000B0F5006F4AD1606810B1BAF1010F09D1B5
:102ED000206B00882168C860206B801C2063E08E16
:102EE000401EE08633E02068806800F0020002287F
:102EF00010D1E08E70B1029801280BD1206B0088B0
:102F00002168C860206B801C2063E08E401EE08634
:102F1000002002902068806800F0010068B1E08F16
:102F200058B12068C068A16B0880A06B801CA063AA
:102F3000E08F401EE08701200290FFF7E5F8C01BFC
:102F4000B04204D3701C10B1032001906AE0E08EFF
:102F50000028C8D1E08F0028C5D14AE0606810B1D0
:102F6000BAF1010F09D1206B007821680873206B3A
:102F7000401C2063E08E401EE08634E020688068BC
:102F800000F00200022810D1E08E70B102980128F2
:102F90000BD1206B007821680873206B401C2063E4
:102FA000E08E401EE086002002902068806800F0DD
:102FB000010068B1E08F58B12068C068A16B08704B
:102FC000A06B401CA063E08F401EE08701200290B0
:102FD000FFF79AF8C01BB04201D3701C00B916B9B4
:102FE000032001901EE0E08E0028C7D1E08F00286A
:102FF000C4D13A463146204601F008FF20B10120F5
:103000000190202060650DE0A06850B900BF00204D
:1030100000902068C068009020688068009000BF21
:1030200000BF00BF012084F8510000BF002084F8D9
:10303000500000BF0198FBE670B504462546681EA7
:10304000B0F1807F01D301200FE0681E4FF0E02136
:1030500048610F214FF0FF3002F0EEFD00204FF0ED
:10306000E021886107200861002070BD704770472B
:1030700010B50346002200BF93F83C00012801D19F
:10308000022010BD012083F83C0000BF22F0FF00A9
:10309000CC6840EA040222F440708C6840EA0402E2
:1030A00022F480604C6840EA040222F400600C685C
:1030B00040EA040222F480500C6940EA040222F43F
:1030C00000504C6940EA040222F48040CC6940EA96
:1030D00004021868426400BF002083F83C0000BF6F
:1030E00000BFCEE730B502460B4600BF92F83C0069
:1030F000012801D1022030BD012082F83C0000BF30
:10310000022082F83D00106844681068816824F04D
:1031100070041868044310684460184D1068A84291
:103120001BD01068B0F1804F17D0154D1068A84221
:1031300013D0144D1068A8420FD0134D1068A84248
:103140000BD0124D1068A84207D0114D1068A8424C
:1031500003D0104D1068A84205D121F080015868B5
:10316000014310688160012082F83D0000BF00200B
:1031700082F83C0000BF00BFBDE700000000014036
:103180000004004000080040000C00400004014022
:10319000004001400018004010B504460CB9012061
:1031A00010BD94F83D0028B9002084F83C0020466A
:1031B00000F00CF8022084F83D00211D206802F088
:1031C00059FA012084F83D000020E9E738B50446AB
:1031D0000E492068884217D100BF002000900C489B
:1031E000006840F002000A4908600846006800F0E4
:1031F0000200009000BF00BF002206211D20FFF743
:103200000DF81D20FEF7FAFF38BD00000004004055
:103210004038024001460868C06840F001000B6871
:10322000D8600868806800F00702062A05D00868A0
:10323000006840F001000B681860002070472DE91D
:10324000F04104460D4614B90120BDE8F08194F820
:103250003D0028B9002084F83C00204600F046F8E4
:10326000022084F83D002068806844F2070188430A
:1032700021688860211D206802F0FCF92068D0F8E0
:103280000880206886692068076A286840EA08087C
:1032900040F203308643A969A86840EA012006434A
:1032A00040F60C4086434FF2F0008643E969E86837
:1032B00040EA0120064328690001296A40EA0130FA
:1032C000064327F0220727F088076969686840EA03
:1032D000011007432068C0F80880206886612068D4
:1032E0000762012084F83D000020AEE710B586B0EB
:1032F0000446142101A8FDF735F82068B0F1804F8D
:103300002FD100BF002000903148006840F001003C
:103310002F4908600846006800F00100009000BFD7
:1033200000BF00BF0020009029481038006840F01E
:1033300001002749103908600846006800F00100C4
:10334000009000BF00BF03200190022002900020E7
:10335000039004900120059001A91E48FEF7CEFDC0
:1033600033E01D49206888422FD100BF0020009023
:103370001748006840F004001549086008460068D6
:1033800000F00400009000BF00BF00BF00200090CC
:103390000F481038006840F008000D4910390860E7
:1033A0000846006800F00800009000BF00BF4FF41E
:1033B00040500190022002900020039004900220CF
:1033C000059001A90548FEF799FD06B010BD000063
:1033D000403802400000024000080040000C02405B
:1033E000704710B5044620680069C0F34000D8B1AA
:1033F0002068C068C0F34000B0B16FF002002168DF
:103400000861012020772068806900F0030018B16E
:103410002046FFF7E5FF05E0204600F00FF92046C3
:1034200000F0D0F90020207720680069C0F3800008
:10343000D8B12068C068C0F38000B0B16FF004005C
:1034400021680861022020772068806900F44070BC
:1034500018B12046FFF7C4FF05E0204600F0EEF863
:10346000204600F0AFF90020207720680069C0F303
:10347000C000D8B12068C068C0F3C000B0B16FF020
:10348000080021680861042020772068C06900F0E6
:10349000030018B12046FFF7A3FF05E0204600F027
:1034A000CDF8204600F08EF90020207720680069D2
:1034B000C0F30010D8B12068C068C0F30010B0B1EC
:1034C0006FF0100021680861082020772068C0692B
:1034D00000F4407018B12046FFF782FF05E0204657
:1034E00000F0ACF8204600F06DF90020207720684D
:1034F000006900F0010058B12068C06800F00100C8
:1035000030B16FF0010021680861204600F088F9B1
:1035100020680069C0F3C01058B12068C068C0F3CB
:10352000C01030B16FF08000216808612046FFF7BD
:103530009DFD20680069C0F3801058B12068C06804
:10354000C0F3801030B16FF0400021680861204660
:1035500000F09DF920680069C0F3401058B1206860
:10356000C068C0F3401030B16FF0200021680861DE
:103570002046FFF77CFD10BD10B586B0044614212F
:1035800001A8FCF7EFFE26492068884221D100BF40
:10359000002000902348006840F010002149086096
:1035A0000846006800F01000009000BF00BF4FF414
:1035B00028500190022002900020039004900120E6
:1035C000059001A91848FEF799FC1848FFF722FE5C
:1035D00024E017492068884220D100BF00200090D5
:1035E0001048006840F004000E4908600846006872
:1035F00000F00400009000BF00BF4FF4E0700190A5
:10360000022002900020039004900220059001A95E
:103610000848FEF773FC0848FFF7FCFD06B010BD34
:10362000000001403038024000100240BC0500207C
:1036300000040040000802403C060020704770B5BE
:1036400004460D46164600BF94F83C00012801D1FF
:10365000022070BD012084F83C0000BF022084F8E5
:103660003D0036B1042E1BD0082E31D00C2E5ED179
:1036700045E02946206802F085F82068806940F01E
:103680000800216888612068806920F004002168B2
:10369000886120688069296908432168886147E05A
:1036A0002946206802F0A6F82068806940F400608E
:1036B000216888612068806920F4806021688861C1
:1036C00020688069296940EA0120216888612FE02B
:1036D0002946206802F0CCF82068C06940F0080054
:1036E0002168C8612068C06920F004002168C861B1
:1036F0002068C069296908432168C86118E0294623
:10370000206802F0F1F82068C06940F40060216888
:10371000C8612068C06920F480602168C8612068A1
:10372000C069296940EA01202168C86100E000BF42
:1037300000BF012084F83D0000BF002084F83C0059
:1037400000BF00BF85E710B504460CB9012010BDCD
:1037500094F83D0028B9002084F83C00204600F091
:103760000DF8022084F83D00211D206801F082FF41
:10377000012084F83D000020E9E7000038B5044648
:103780000E492068884217D100BF002000900C48E5
:10379000006840F001000A4908600846006800F02F
:1037A0000100009000BF00BF002204211920FEF795
:1037B00035FD1920FEF722FD38BD00000000014054
:1037C000443802407047000070B504460E4601229E
:1037D0003146206801F0BAFF0F492068884203D0C3
:1037E0000E492068884201D1012000E0002028B164
:1037F0002068406C40F4004021684864206880687C
:1038000000F00705062D05D02068006840F0010093
:1038100021680860002070BD0000014000040140E4
:10382000704770B504460D4600BF94F83C0001286F
:1038300001D1022070BD012084F83C0000BF0220AD
:1038400084F83D002946204602F078F848B101206E
:1038500084F83D0000BF002084F83C0000BF012038
:10386000E8E72068C06820F040002168C860206850
:10387000C06820F480402168C860012084F83D00C1
:1038800000BF002084F83C0000BF00BFD2E77047B3
:10389000704700002DE9F04704462068056820685D
:1038A000C668206847694FF00008C14605F00F0858
:1038B000B8F1000F0AD105F0200038B106F0200061
:1038C00020B1204602F0E0F8BDE8F087B8F1000F23
:1038D00072D007F0010018B906F4907000286BD080
:1038E00005F0010030B106F4807018B1E06B40F0D3
:1038F0000100E06305F0040030B107F0010018B1E9
:10390000E06B40F00200E06305F0020030B107F028
:10391000010018B1E06B40F00400E06305F008001E
:1039200048B106F0200010B907F0010018B1E06BB3
:1039300040F00800E063E06B70B305F0200028B1B0
:1039400006F0200010B1204602F09EF82068406981
:10395000C0F38019E06B00F0080010B9B9F1000F56
:1039600023D0204602F070F82068406900F0400043
:10397000402816D12068406920F040002168486145
:10398000606B50B11748616B0865606BFEF7B4F867
:1039900010B1606B016D88470CE02046FFF778FF9F
:1039A00008E02046FFF774FF04E02046FFF770FFB1
:1039B0000020E06388E7FFE705F0800030B106F003
:1039C000800018B1204602F0B2F87DE705F0400013
:1039D00030B106F0400018B1204602F045F873E718
:1039E00000BF71E7355A00087047704700BFFEE717
:1039F00010B52DED028B0446B0EE408AB0EE480AB9
:103A00002146034801F0D0FABDEC028B10BD000046
:103A10007C00002010B5B7EE000A0220FFF7E8FF97
:103A200010BD000010B5024800F004F810BD000001
:103A30007C00002010B504461049E0680968081AA7
:103A400000EE100AB8EE400AD4ED010A9FED0C1A00
:103A500060EE810AB4EEE00AF1EE10FA01DB01201B
:103A600000E0002040B105480068E06020780228AE
:103A700002D1204600F006F810BD000088030020A7
:103A800000007A4410B50446607808B9012000E0CF
:103A90000020607060782169884710BD10B51E2431
:103AA00000F004FD00F0F4FE10BD70471FB50020CB
:103AB00000900190029003902148224908604FF441
:103AC0008030486000211F48816001210161002190
:103AD000017680F82010C1621B4981620021C1601B
:103AE0000321C161012180F8301000214161FDF7FF
:103AF0003BFD08B1FDF7B7F90E20009001200190C1
:103B00000020029069460F48FDF764FC08B1FDF7FC
:103B1000AAF90F2000900220019069460948FDF79C
:103B200059FC08B1FDF79FF908200090032001908F
:103B300069460448FDF74EFC08B1FDF794F91FBD36
:103B400000200140940300200100000F1FB5002059
:103B500000900190029003902148224908604FF4A0
:103B60008030486000211F488160012101610021EF
:103B7000017680F82010C1621B4981620021C1607A
:103B80000321C161012180F8301000214161FDF75E
:103B9000EBFC08B1FDF767F90A20009001200190C5
:103BA0000020029069460F48FDF714FC08B1FDF7AC
:103BB0005AF90B2000900220019069460948FDF750
:103BC00009FC08B1FDF74FF90C200090032001908B
:103BD00069460448FDF7FEFB08B1FDF744F91FBD37
:103BE00000210140DC0300200100000F10B50E4849
:103BF0000E4908602A20486041070C488160002176
:103C0000C1604FF4403101614FF4800141610021F6
:103C1000017641768176C17601774177FDF76EFEB8
:103C200008B1FDF720F910BD00640040E404002055
:103C300008B500BF002000900E48006840F48000E6
:103C40000C4908600846006800F48000009000BF3E
:103C500000BF002203213820FEF7E0FA3820FEF7EB
:103C6000CDFA002205213A20FEF7D8FA3A20FEF7D5
:103C7000C5FA08BD3038024000B587B0142102A84B
:103C8000FCF770FB00BF002001906F48006840F017
:103C900080006D4908600846006800F080000190CF
:103CA00000BF00BF00BF002001900846006840F040
:103CB000040008600846006800F00400019000BF9E
:103CC00000BF00BF002001900846006840F00100DE
:103CD00008600846006800F00100019000BF00BFC6
:103CE00000BF002001900846006840F00200086014
:103CF0000846006800F00200019000BF00BF00BF4E
:103D0000002001900846006840F010000860084656
:103D1000006800F01000019000BF00BF00BF00204D
:103D200001900846006840F00800086008460068F6
:103D300000F00800019000BF00BF0122102143489D
:103D4000FEF7DCF900224FF480714148FEF7D6F906
:103D5000012211033F48FEF7D1F900224FF4007110
:103D60003D48FEF7CBF9002210213C48FEF7C6F98A
:103D7000042002903A4803900020049002A933489E
:103D8000FEF7BCF81020029001200390049002205E
:103D9000059002A92D48FEF7B1F84FF4807002900B
:103DA0000120039000200490059002A92848FEF706
:103DB000A5F84FF480500290012003900490022057
:103DC000059002A92348FEF799F84FF4006002908D
:103DD000234803900020049002A92048FEF78EF8A3
:103DE0004FF4007002900120039000200490059091
:103DF00002A91948FEF782F80F20029000200390D4
:103E00000120049002A91548FEF778F810200290CE
:103E10000120039000200490059002A90F48FEF7AE
:103E20006DF8002201210820FEF7F8F90820FEF7BE
:103E3000E5F9002202212820FEF7F0F92820FEF7FC
:103E4000DDF907B000BD000030380240000002403C
:103E5000001002400004024000080240000C024032
:103E60000000111010B51048104908604FF482701E
:103E7000486000210D4881604FF40061C16000215D
:103E8000016101214161490281611821C161002163
:103E90000162416281620A21C162FEF76FFD08B1D1
:103EA000FCF7E1FF10BD0000003001400C050020D0
:103EB00010B51048104908604FF482704860002126
:103EC0000D4881604FF40061C16000210161012152
:103ED0004161490281611021C16100210162416299
:103EE00081620A21C162FEF749FD08B1FCF7BBFF00
:103EF00010BD0000003800406405002000B591B0FE
:103F000000200F9010901C2108A8FCF72BFA20210C
:103F10006846FCF727FA2C482C49086001204860C5
:103F200040212A48816041F26701C160002101619E
:103F3000416180218161FFF706FC08B1FCF793FF26
:103F400020200F90802010900FA92048FFF7CAF87A
:103F500008B1FCF788FF60200890002009900A90C3
:103F60000B900C900D900E90002208A91748FFF7B7
:103F700066FB08B1FCF777FF042208A91348FFF796
:103F80005EFB08B1FCF76FFF082208A90F48FFF796
:103F900056FB08B1FCF767FF0020009001900290EB
:103FA000039004904FF4005005900020079069465C
:103FB0000648FFF75DF808B1FCF755FF0348FFF727
:103FC000DBFA11B000BD000000000140BC0500207C
:103FD00000B58BB0242102A8FCF7C4F900200090A2
:103FE00001904FF080401749086000204860002190
:103FF0001448816044F62061C16000210161816143
:1040000001200290002003900120049000200590E0
:104010000690079001200890002009900A9002A9BC
:104020000848FFF70CF908B1FCF71DFF00200090CD
:10403000019069460348FFF755F808B1FCF713FFF4
:104040000BB000BDFC05002000B58FB014210AA8FC
:10405000FCF788F90020089009901C2101A8FCF7C2
:1040600081F92948294908600020486040212748F3
:10407000816041F26701C16000210161802181619D
:10408000FFF78AF808B1FCF7EEFE2048FFF75BFB6C
:1040900008B1FCF7E8FE06200A9000200B900AA960
:1040A0001A48FFF7BEFB08B1FCF7DDFE20200890A0
:1040B0000020099008A91548FFF714F808B1FCF78B
:1040C000D2FE602001900020029003900590002213
:1040D00001A90E48FFF7B3FA08B1FCF7C4FE0422A9
:1040E00001A90A48FFF7ABFA08B1FCF7BCFE0822A9
:1040F00001A90648FFF7A3FA08B1FCF7B4FE03488C
:10410000FFF73AFA0FB000BD000400403C06002063
:1041100000B58BB0242102A8FCF724F90020009000
:10412000019018481849086000204860002116488E
:10413000816044F62061C16000210161816101203C
:10414000029000200390012004900020059006902A
:10415000079001200890002009900A9002A90A48BF
:10416000FFF76DF808B1FCF77EFE0020009001908B
:1041700069460548FEF7B6FF08B1FCF774FE0BB0C0
:1041800000BD0000000800407C06002000BFFEE7E4
:1041900010B5032202490348FDF7EEFA10BD0000F6
:1041A000FC0600209403002008480068A0F5006089
:1041B0000649C86008464068A0F5006008610846E6
:1041C0008068A0F50060486170470000FC06002090
:1041D00010B50748007930B900F090F9044908603B
:1041E0000120087103E00249086800F0B3F910BD2E
:1041F0001000002010B501210A4800F0A8FEDFEDF4
:104200000A1A9FED0A1ADFED0A0A9FED090A05480E
:1042100000F087FEDFED050A9FED040A014800F07B
:1042200091FE10BDF00000206991DD40000000000B
:10423000BC74933C10B50248FCF716FE10BD00009C
:10424000F000002010B50248FCF754FE10BD00003D
:10425000F000002010B5FFF7F5FFDFED020A30EEA9
:10426000600A10BD0000344310B52DED028BFFF73E
:10427000E9FF184880ED000A90ED000A1648D0EDDD
:10428000000A30EE600AB0EE408A9FED140AB4EEE8
:10429000C08AF1EE10FA05D29FED110A38EE000A3D
:1042A000B0EE408A9FED0F0AB4EEC08AF1EE10FA2C
:1042B00005DD9FED0B0A38EE400AB0EE408A054856
:1042C00090ED000A044880ED000AB0EE480ABDEC0B
:1042D000028B10BDC8010020CC010020000034C3B7
:1042E0000000B4430000344310B50248FCF726FF39
:1042F00010BD0000A400002010B52DED028BB0EE23
:10430000408AB0EE480A034800F06BFFBDEC028B18
:1043100010BD0000D001002010B5B7EE000A08481B
:1043200000F052FF9FED071ADFED070A9FED050A27
:10433000034800F04FFF9FED040AFFF7DDFF10BDBB
:10434000D00100200AD7A33D0000000010B50248AC
:1043500000F056FC10BD0000D001002008B54FF45D
:104360007A73012269460348FEF7CEFBBDF80000D0
:1043700008BD00000C05002010B50446224610219F
:104380000148FDF7BBFE10BD0000024001B54FF42F
:104390007A73012269460248FEF768FC08BD0000F6
:1043A0000C05002010B52DED028BB0EE408AF0EE2A
:1043B000480A9FED030A00F01DF8BDEC028B10BD0A
:1043C0000000000010B5044622464FF480710248F8
:1043D000FDF794FE10BD00000010024010B52DED59
:1043E000028BB0EE408AB0EE480A00F017F8BDEC40
:1043F000028B10BD10B52DED028BB0EE408AF0EEB1
:10440000608AF0EE680AB0EE480A034800F09AFDB0
:10441000BDEC028B10BD0000F000002010B52DEDAA
:10442000028BB0EE408AB0EE480A034800F0E9FE85
:10443000BDEC028B10BD00008C01002010B5B7EE62
:10444000000A094800F0D0FE9FED081ADFED080AC7
:10445000B5EE000A044800F0CDFE9FED040A0248C4
:1044600000F0CFFE10BD00008C0100200000000015
:1044700017B7513A10B5024800F01CFF10BD0000FC
:104480008C01002010B52DED028BB0EE408AF0EECD
:10449000608AF0EE680AB0EE480A034800F02EFF8A
:1044A000BDEC028B10BD0000A400002010B500215F
:1044B0001048FFF789F904210E48FFF785F9082114
:1044C0000C48FFF781F900200A4909684863094947
:1044D0000968886307490968C8639FED070A00F007
:1044E00083FD9FED050A00F0A7FD9FED030A00F094
:1044F000CBFD10BDBC050020000000001348016882
:1045000013480068406AA0F51C50103808440F4951
:10451000086042F210700E49096848620B48006852
:10452000002805DA0948006800F58050074908604E
:1045300006490868C11700EB11510913A0EB0131BE
:10454000024A116010460068704700001800002001
:10455000FC05002001490860704700001800002099
:1045600010B5024800F070FB10BD00009000002064
:1045700010B5032202490348FDF7FEF810BD000004
:1045800020070020DC03002008480068A0F5006038
:104590000649C86008464068A0F500600861084602
:1045A0008068A0F500604861704700002007002087
:1045B00010B50748007930B900F092F90449086055
:1045C0000120087103E00249086800F0B5F910BD48
:1045D0002000002010B501210A4800F0B8FCDFEDF2
:1045E0000A1A9FED0A1ADFED0A0A9FED090A05482B
:1045F00000F097FCDFED050A9FED040A014800F08A
:10460000A1FC10BD6C0200206991DD40000000009B
:10461000BC74933C10B50248FCF726FC10BD0000AA
:104620006C02002010B50248FCF764FC10BD0000CD
:104630006C02002010B5FFF7F5FFDFED020A30EE47
:10464000600A10BD0000344310B52DED028BFFF75A
:10465000E9FF184880ED000A90ED000A1648D0EDF9
:10466000000A30EE600AB0EE408A9FED140AB4EE04
:10467000C08AF1EE10FA05D29FED110A38EE000A59
:10468000B0EE408A9FED0F0AB4EEC08AF1EE10FA48
:1046900005DD9FED0B0A38EE400AB0EE408A054872
:1046A00090ED000A044880ED000AB0EE480ABDEC27
:1046B000028B10BD4403002048030020000034C3D7
:1046C0000000B4430000344310B50248FCF736FD47
:1046D00010BD00002002002010B52DED028BB0EEC1
:1046E000408AB0EE480A034800F07BFDBDEC028B27
:1046F00010BD00004C03002010B5B7EE000A0848BA
:1047000000F062FD9FED071ADFED070A9FED050A35
:10471000034800F05FFD9FED040AFFF7DDFF10BDC9
:104720004C0300200AD7A33D0000000010B502484A
:1047300000F066FA10BD00004C03002008B54FF4ED
:104740007A73012269460348FEF7DEF9BDF80000DE
:1047500008BD00006405002010B5044622464FF451
:1047600080510248FDF7CAFC10BD00000004024061
:1047700001B54FF47A73012269460248FEF776FAD2
:1047800008BD00006405002010B52DED028BB0EED1
:10479000408AF0EE480A9FED030A00F01DF8BDECD8
:1047A000028B10BD0000000010B5044622464FF4F5
:1047B00000710248FDF7A2FC10BD00000008024095
:1047C00010B52DED028BB0EE408AB0EE480A00F035
:1047D00017F8BDEC028B10BD10B52DED028BB0EEBD
:1047E000408AF0EE608AF0EE680AB0EE480A0348AC
:1047F00000F0A8FBBDEC028B10BD00006C02002095
:1048000010B52DED028BB0EE408AB0EE480A034899
:1048100000F0F7FCBDEC028B10BD00000803002087
:1048200010B5B7EE000A094800F0DEFC9FED081A4B
:10483000DFED080AB5EE000A044800F0DBFC9FED4E
:10484000040A024800F0DDFC10BD0000080300204F
:104850000000000017B7513A10B5024800F02AFDD9
:1048600010BD00000803002010B52DED028BB0EE46
:10487000408AF0EE608AF0EE680AB0EE480A03481B
:1048800000F03CFDBDEC028B10BD000020020020BA
:1048900010B500211048FEF797FF04210E48FEF7DF
:1048A00093FF08210C48FEF78FFF00200A49096892
:1048B000486309490968886307490968C8639FED27
:1048C000070A00F009FC9FED050A00F02DFC9FEDA2
:1048D000030A00F051FC10BD3C060020000000005F
:1048E0001348016813480068406AA0F51C5010384E
:1048F00008440F49086042F210700E490968486286
:104900000B480068002805DA0948006800F5805067
:104910000749086006490868C11700EB11510913DF
:10492000A0EB0131024A1160104600687047000098
:10493000280000207C060020014908607047000024
:104940002800002010B5024800F07EF910BD0000DC
:104950000C020020704710B52DED028B0446D4EDFB
:10496000050AB0EE600AFBF72DFCD4ED170A20EE25
:10497000208AD4ED050AB0EE600AFBF75FFCD4EDA7
:10498000200A00EEC08A84ED0E8AD4ED050AB0EE4E
:10499000600AFBF753FCD4ED170A20EE208AD4ED11
:1049A000050AB0EE600AFBF70DFCD4ED200A00EE1C
:1049B000808A84ED0F8ABDEC028B10BD10B52DED01
:1049C000028B0446D4ED050AB0EE600AFBF7FAFB51
:1049D000D4ED0A0A20EE208AD4ED050AB0EE600A72
:1049E000FBF72CFCD4ED0B0A00EE808A84ED0D8AD7
:1049F000D4ED050AB0EE600AFBF720FCD4ED0A0AFC
:104A0000F1EE600A20EE208AD4ED050AB0EE600ACD
:104A1000FBF7D8FBD4ED0B0A00EE808A84ED0C8AFC
:104A2000BDEC028B10BD704710B5FEF7F3FFFFF72A
:104A3000E1FBFFF703FDFFF76FFCFFF7CBFDFFF78F
:104A4000EFFEFFF759FE10BD10B523490868234952
:104A50000968491D884201D3204908601E4804683E
:104A60001F48006800F57A70844229D31D480088E9
:104A70001E3000B21B4908800846B0F90000B0F5AE
:104A8000B47F01DB002008801648B0F90000C0F1B7
:104A9000B40000EE900AF8EEE00AB0EE600AFFF70C
:104AA0002BFC1048B0F90000C0F1B40000EE900AF1
:104AB000F8EEE00AB0EE600AFFF70EFE0848046068
:104AC000FEF7B0FFFFF7D6FCFFF740FCFFF7C4FE90
:104AD000FFF72CFE10BD0000300000207400002005
:104AE000780000207000002010B52DED028B0446E8
:104AF000606B804784ED060A94ED060AD4ED050A42
:104B000030EE600AB0EE408A9FED390AB4EEC08AFA
:104B1000F1EE10FA06DD9FED370A38EE400AB0EEEE
:104B2000408A0CE09FED340AB4EEC08AF1EE10FA30
:104B300005D29FED300A38EE000AB0EE408A9FEDB4
:104B40002F0A30EE480A84ED070A94ED020AD4EDEC
:104B5000070A20EE200AD4ED070A94ED081A70EE39
:104B6000C10A94ED031A01EE200AD4ED040A94ED73
:104B7000091A00EE810A84ED0A0A94ED070A84ED11
:104B8000080A94ED090AD4ED070A30EE200A84EDF4
:104B9000090A94ED0A0AD4ED0B0AB4EEE00AF1EE2C
:104BA00010FA04DD94ED0B0A84ED0A0A10E094ED8E
:104BB0000A0AD4ED0B0AF1EE600AB4EEE00AF1EE57
:104BC00010FA05D294ED0B0AB1EE400A84ED0A0A00
:104BD000207818B99FED090A84ED0A0AD4ED0A0A73
:104BE000B0EE600AA06B8047BDEC028B10BD0000E8
:104BF000000034430000B443000034C30000000050
:104C000010B504460E4960680968081A00EE100ADB
:104C1000B8EE400AD4ED0C0A9FED0A1A60EE810A44
:104C2000B4EEE00AF1EE10FA01DB012000E0002012
:104C300028B10348006860602046FFF755FF10BDAB
:104C40008C03002000007A4470B52DED028B0446E1
:104C50004FF6FF7500206168884701202169884769
:104C600048F22100A1688847E06880470546012096
:104C700061688847C5F30E0500EE105AB8EE400A89
:104C80009FED0F1AC0EE010A9FED0E0A20EE800A7A
:104C9000B0EE408A94ED000A38EE400AB0EE408A49
:104CA000B5EEC08AF1EE10FA05D29FED060A38EE95
:104CB000000AB0EE408AB0EE480ABDEC028B70BD2F
:104CC00000FEFF460000B44370B504460D46204682
:104CD00000F03AF808B1012070BD45B12068E368E2
:104CE000A66803FB060132462846FBF722FBE06874
:104CF000401C6168B0FBF1F201FB1200E0606069EA
:104D0000401C60610020E7E770B504460D46204670
:104D100000F023F808B1012070BD45B12168236976
:104D2000A66803FB061032462946FBF702FB206902
:104D3000401C6168B0FBF1F201FB12002061A06928
:104D4000401CA0610020E7E701460869CA6890425C
:104D500001D1012070470020FCE701460869401C92
:104D60004A68B0FBF2F302FB1300CA68904201D11B
:104D7000012070470020FCE7F8B504460E461546B2
:104D80006068B0F5827F0DD1A068B0F5004F03D008
:104D9000A068B0F5806F05D12068006820F0400061
:104DA000216808606068B0F5827F1FD1A068B0F507
:104DB000806F0DD03346002280212046009500F000
:104DC0005BF808B3606D40F0200060650320F8BD1B
:104DD0003346002201212046009500F04DF898B19D
:104DE000606D40F0200060650320F0E7334600224C
:104DF00001212046009500F03FF828B1606D40F099
:104E0000200060650320E2E70020E0E77CB504466F
:104E10000D461646164800681821B0FBF1F01549FA
:104E2000B0FBF1F04FF47A71484301906068B0F53F
:104E3000827F0DD12B46002280212046009600F073
:104E40001BF898B1606D40F02000606503207CBDC8
:104E500000BF019800B908E00198401E0190206849
:104E60008068C0F3C0100028F3D100BF0020EEE737
:104E70000C00002040420F002DE9F04104460E4690
:104E800017461D46DDF818803EE0681CD8B3FDF7D4
:104E90003BF9A0EB0800A84200D2A5BB20684068FF
:104EA00020F0E000216848606068B0F5827F0DD195
:104EB000A068B0F5004F03D0A068B0F5806F05D1B1
:104EC0002068006820F0400021680860A06AB0F502
:104ED000005F0DD100BF2068006820F400502168F9
:104EE00008602068006840F400502168086000BF36
:104EF000012084F8510000BF002084F8500000BF5A
:104F00000320BDE8F081FFE7206880683040B042B0
:104F100001D1012000E00020B842B6D10020F0E726
:104F2000704780ED100AC0ED110A80ED121AC0ED35
:104F3000181A80ED190AC0ED1A0A80ED1B1AC0ED8F
:104F4000211A704780ED020AC0ED010A704770B562
:104F500004460D4625702078D4F88810884770BD27
:104F60000221017080ED010A704710B5044600204F
:104F70002070227A0AB9012200E00022104621693D
:104F8000884710BD10B5044601202070207A2169A1
:104F9000884710BD10B50446224610210148FDF790
:104FA000ADF810BD000C024070B52DED028B05462A
:104FB0000C46B0EE408A24B1012C06D0022C0ED152
:104FC00007E02846FFF7D1FF09E02846FFF7DAFFA0
:104FD00005E0B0EE480A2846FFF7C2FF00BF00BF59
:104FE000BDEC028B70BD0000B5EEC00AF1EE10FA08
:104FF00003D2DFED0D0AB0EE600ADFED0C0AB4EE6D
:10500000E00AF1EE10FA03DDDFED080AB0EE600A07
:10501000DFED070A60EE200AFCEEE00A10EE900ACF
:105020000449096848637047000000000000C84256
:1050300000002842BC050020B5EEC00AF1EE10FACF
:1050400003D2DFED0D0AB0EE600ADFED0C0AB4EE1C
:10505000E00AF1EE10FA03DDDFED080AB0EE600AB7
:10506000DFED070A60EE200AFCEEE00A10EE900A7F
:105070000449096888637047000000000000C842C6
:1050800000002842BC050020B5EEC00AF1EE10FA7F
:1050900003D2DFED0D0AB0EE600ADFED0C0AB4EECC
:1050A000E00AF1EE10FA03DDDFED080AB0EE600A67
:1050B000DFED070A60EE200AFCEEE00A10EE900A2F
:1050C00004490968C8637047000000000000C84236
:1050D00000002842BC050020B5EEC00AF1EE10FA2F
:1050E00003D2DFED0D0AB0EE600ADFED0C0AB4EE7C
:1050F000E00AF1EE10FA03DDDFED080AB0EE600A17
:10510000DFED070A60EE200AFCEEE00A10EE900ADE
:105110000449096848637047000000000000C84265
:10512000000028423C060020B5EEC00AF1EE10FA5D
:1051300003D2DFED0D0AB0EE600ADFED0C0AB4EE2B
:10514000E00AF1EE10FA03DDDFED080AB0EE600AC6
:10515000DFED070A60EE200AFCEEE00A10EE900A8E
:105160000449096888637047000000000000C842D5
:10517000000028423C060020B5EEC00AF1EE10FA0D
:1051800003D2DFED0D0AB0EE600ADFED0C0AB4EEDB
:10519000E00AF1EE10FA03DDDFED080AB0EE600A76
:1051A000DFED070A60EE200AFCEEE00A10EE900A3E
:1051B00004490968C8637047000000000000C84245
:1051C000000028423C060020FCEEC00A10EE901AB7
:1051D0000170704780ED020AC0ED040A80ED031AE9
:1051E000704780ED050A7047FCEEC00A10EE901A79
:1051F0000170704780ED020AC0ED040A80ED031AC9
:10520000704780ED050A704710B50446606B804713
:1052100084ED060A94ED050AD4ED060A30EE600A24
:1052200084ED070A94ED070AD4ED080A30EE600A0F
:10523000D4ED020A20EE200AD4ED040A94ED071AF8
:1052400000EE810AD4ED0A0A30EE200A84ED0A0A43
:1052500094ED070A84ED080A94ED0A0AD4ED0B0ACE
:10526000B4EEE00AF1EE10FA04DD94ED0B0A84EDE1
:105270000A0A10E094ED0A0AD4ED0B0AF1EE600A76
:10528000B4EEE00AF1EE10FA05D294ED0B0AB1EE9D
:10529000400A84ED0A0A207818B99FED050A84EDCA
:1052A0000A0AD4ED0A0AB0EE600AA06B804710BD6E
:1052B0000000000010B504460E4960680968081A2D
:1052C00000EE100AB8EE400AD4ED0C0A9FED0A1A5F
:1052D00060EE810AB4EEE00AF1EE10FA01DB012083
:1052E00000E0002028B10348006860602046FFF716
:1052F0008BFF10BD9003002000007A4410B52DED07
:10530000028B0446F0EE408AB0EE608AC4ED008A5B
:1053100084ED018A204600F099F82046FBF712FF41
:10532000204600F003F8BDEC028B10BD10B52DED4A
:10533000048B044694F83C00072877D2DFE800F09D
:105340007604172A3D50630094ED090AD4ED0B0A48
:1053500030EE200AD4ED0C0A30EE208A94ED0B0AD0
:10536000D4ED0C0A70EE208A94ED0C9A5EE094ED78
:105370000B0AD4ED0C0A30EE208A94ED070AD4ED26
:105380000B0A30EE200AD4ED0C0A70EE208A94ED60
:105390000C9A4BE094ED0C8A94ED070AD4ED080AC0
:1053A00030EE200AD4ED0C0A70EE208A94ED080A43
:1053B000D4ED0C0A30EE209A38E094ED0C8A94ED8E
:1053C000080AD4ED0C0A70EE208A94ED060AD4ED9A
:1053D000080A30EE200AD4ED0C0A30EE209A25E0BF
:1053E00094ED0A0AD4ED0C0A30EE208AD4ED0C8A32
:1053F00094ED060AD4ED0A0A30EE200AD4ED0C0A28
:1054000030EE209A12E094ED090AD4ED0A0A30EE4B
:10541000200AD4ED0C0A30EE208AD4ED0C8A94EDEB
:105420000A0AD4ED0C0A30EE209A00BF00BFB0EE9D
:10543000480A206C8047B0EE680A606C8047B0EE86
:10544000490AA06C8047BDEC048B10BD70B590ED8F
:10545000010A80ED020AD0ED010AB0EE001A80EEDA
:10546000810AD0ED000A9FED2E1A10EE810A80ED20
:10547000030AD0ED010AB0EE001A80EE810AD0EDE9
:10548000000AF1EE600A9FED261A10EE810A80ED07
:10549000040A90ED020AB5EEC00AF1EE10FA01DD41
:1054A000012100E0002190ED030AB5EEC00AF1EE03
:1054B00010FA01DD012200E0002290ED040AB5EEB1
:1054C000C00AF1EE10FA01DD012300E000239D0087
:1054D000022606FB02550D44ECB2072C1DD2DFE874
:1054E00004F01C081804100C1400012580F83C502E
:1054F00013E0022580F83C500FE0032580F83C5073
:105500000BE0042580F83C5007E0052580F83C506E
:1055100003E0062580F83C5000BF00BF70BD0000CE
:105520002DB25D3F10B50B480068401C094908606A
:1055300009480068401C0849086008480068401C89
:105540000649086006480068401C05490860FCF7E9
:10555000E1FD10BD300000208803002090030020F2
:105560008C03002000B593B0302107A8FAF7FAFEAB
:10557000142102A8FAF7F6FE00BF0020019024488B
:10558000006840F08050224908600846006800F03A
:105590008050019000BF00BF00BF002001901D4857
:1055A000006840F480401B4908600846006800F429
:1055B0008040019000BF00BF0120079000040890C8
:1055C00002200D9041050E9104210F91A821109108
:1055D000022111910421129107A8FCF78BFF08B159
:1055E000FBF741FC0F200290022003900020049062
:1055F0004FF4A05005904FF480500690052102A86A
:10560000FCF75EFE08B1FBF72EFC13B000BD0000F6
:1056100040380240007000400548006840F47000C7
:10562000034908604FF00060014980390860704705
:1056300088ED00E010B506480068006800F0100032
:10564000102801D1FEF7A4FD0148FDF7CAFE10BDE8
:10565000BC05002010B506480068006800F0100086
:10566000102801D1FEF784FF0148FDF7BAFE10BDF6
:105670003C06002010B50268294B98420ED0B0F1CC
:10568000804F0BD0274B984208D0274B984205D02B
:10569000264B984202D0264B984203D122F070024A
:1056A0004B681A431E4B984220D0B0F1804F1DD05A
:1056B0001C4B98421AD01C4B984217D01B4B984257
:1056C00014D01B4B984211D01A4B98420ED01A4B53
:1056D00098420BD0194B984208D0194B984205D0EC
:1056E000184B984202D0184B984203D122F44072D2
:1056F000CB681A4322F080034C6943EA040202603B
:105700008B68C3620B688362054B984202D0084BDA
:10571000984201D10B6903630123436110BD00006E
:10572000000001400004004000080040000C004060
:105730000004014000400140004401400048014095
:1057400000180040001C00400020004030B501F06F
:105750001F05012404FA05F3046A9C430462046AE9
:1057600001F01F0502FA05F52C43046230BD30B587
:105770000C46816821F47F4142EA032525432943F1
:10578000816030BD30B5056A25F001050562026A09
:105790004368846924F0700424F003040D682C43EA
:1057A00022F002028D682A43104DA84200D103E086
:1057B0000F4DA84206D100BF22F00802CD682A434F
:1057C00022F00402094DA84202D0094DA84207D197
:1057D00023F4807323F400734D692B438D692B43AD
:1057E000436084614D684563026230BD0000014042
:1057F0000004014030B5056A25F010050562026A13
:105800004368846924F4E04424F440740D6844EA55
:10581000052422F020028D6842EA0512124DA842AA
:1058200000D103E0114DA84207D100BF22F0800251
:10583000CD6842EA051222F040020B4DA84202D088
:105840000A4DA84209D123F4806323F400634D6913
:1058500043EA85038D6943EA8503436084614D68AB
:105860008563026230BD0000000001400004014079
:1058700030B5056A25F480750562026A4368C4691B
:1058800024F0700424F003040D682C4322F4007209
:105890008D6842EA0522124DA84200D103E0114D65
:1058A000A84207D100BF22F40062CD6842EA052277
:1058B00022F480620A4DA84202D00A4DA84209D1C2
:1058C00023F4805323F400534D6943EA05138D6993
:1058D00043EA05134360C4614D68C563026230BD8D
:1058E000000001400004014030B5056A25F48055F0
:1058F0000562036A4468C26922F4E04222F44072FD
:105900000D6842EA052223F400538D6843EA05330B
:10591000084DA84202D0084DA84204D124F4804486
:105920004D6944EA85144460C2614D6805640362B0
:1059300030BD000000000140000401402DE9F041AD
:1059400005460C462868866826F07006606806439F
:1059500026F007062068064328688660606800F025
:105960000F0100293BD10011082838D2DFE800F0F0
:10597000333435360B272D04D4E90313A268286885
:10598000FFF7F5FE2CE02068052802D10120BDE8D4
:10599000F0812868D0F820802868006A20F0010093
:1059A000296808622868876927F0F007206947EAB4
:1059B0000017286887612868C0F8208010E02269F5
:1059C000A168286800F00FF80AE02269A168286839
:1059D00000F01CF804E000BF00BF00BF00E000BF03
:1059E00000BF0020D3E730B50B461446026A056AB3
:1059F00025F001050562816921F0F00141EA0411F9
:105A000022F00A021A438161026230BD30B50B46B2
:105A10001446056A25F0100505628169026A21F4C1
:105A2000704141EA043122F0A00242EA031281618E
:105A3000026230BD70B50546AC6B0020E085E084A5
:105A40002046FDF725FF70BD0168C96821F49071FB
:105A50000268D1600168496921F001010268516161
:105A6000202180F83A10704710B504462068C068BD
:105A700020F040002168C860202084F839002046CA
:105A8000FDF7B3FF002010BD70B5044694F83A004E
:105A900022284AD1A068B0F5805F13D1A56A206999
:105AA00040B920684068C0F308002880A06A801CC4
:105AB000A06219E020684068C0B22880A06A401C3B
:105AC000A06211E0206938B920684068C1B2A26ABA
:105AD000501CA062117007E02068406800F07F0150
:105AE000A26A501CA0621170E08D401E80B2E08559
:105AF000C8B92068C06820F020002168C86020680C
:105B0000C06820F480702168C8602068406920F077
:105B1000010021684861202084F83A002046FDF702
:105B200063FF002070BD0020FCE70220FAE7014679
:105B300091F8390021282CD18868B0F5805F0FD109
:105B40000A6A1088C0F308000B685860086918B921
:105B5000086A801C086209E0086A401C086205E0C7
:105B60000B6A581C086218780B685860C88C401E75
:105B700080B2C88458B90868C06820F080000B68FB
:105B8000D8600868C06840F040000B68D86000200A
:105B900070470220FCE7000010B500F007F802484B
:105BA000FDF778FE10BD0000BC0600201CB50020EB
:105BB000019019480068006800F0200020280DD1ED
:105BC0001648FFF7CAF848B9134800684068C0B2E1
:105BD000009069461148FFF797F800BF0E4800682B
:105BE000006800F08000802815D10D48FFF7ACF860
:105BF00048B901A90A48FFF767F89DF8040006496B
:105C00000968486007E004480068C06820F0800028
:105C100001490968C8601CBDBC0600203400002092
:105C20005000002000BFFEE702480068C0F30220D9
:105C3000704700000CED00E010B5002804DB0A07F7
:105C4000130E054A135406E00A07140E034A00F027
:105C50000F031B1FD45410BD00E400E018ED00E05A
:105C60002DED020B019820F0004001909DED000BFE
:105C700002B0704702E008C8121F08C1002AFAD11A
:105C800070477047002001E001C1121F002AFBD1BC
:105C90007047FCF74BFAFFF765FCFDF7EDFFFDF7EA
:105CA000C7FFFDF703FFFDF751FFFEF7DBF8FEF737
:105CB000FFF8FDF79BFFFEF721F9FEF789F9FEF7E4
:105CC000C3F9FEF725FAFAF72FFE01E0FAF734FEE2
:105CD000FCE70000F0B502464FF0E026B1697469B8
:105CE0000A4E36680A4FB6FBF7F500BF4FF0E026C4
:105CF000B069814201D90E1A01E06618361A33469E
:105D000005FB02F69E42F1D8F0BD00000C00002019
:105D100040420F000006101600061016000000009A
:105D2000000000000102030406070809000000004B
:105D30000102030400000000920E493CB10AC93C74
:105D40002BC3163D2EFB483D752B7B3D04A9963D8C
:105D500080B6AF3D36BDC83D2FBCE13D73B2FA3DC4
:105D600087CF093E8340163EB5AB223EA2102F3EA0
:105D7000CF6E3B3EC2C5473E0115543E135C603EAC
:105D80007F9A6C3ECCCF783EC07D823E938E883E1B
:105D9000229A8E3E32A0943E86A09A3EE59AA03E7C
:105DA000128FA63ED47CAC3EEF63B23E2A44B83E8E
:105DB000491DBE3E15EFC33E53B9C93ECA7BCF3E17
:105DC0004136D53E80E8DA3E4F92E03E7533E63EFE
:105DD000BBCBEB3EEA5AF13ECBE0F63E275DFC3E04
:105DE000E4E7003F3D9C033F824B063F9BF5083FA5
:105DF0006B9A0B3FDA390E3FCDD3103F2A68133F21
:105E0000D9F6153FC07F183FC6021B3FD17F1D3F0B
:105E1000CBF61F3F9967223F25D2243F5636273FB6
:105E20001594293F4AEB2B3FDE3B2E3FBB85303F8D
:105E3000C9C8323FF304353F233A373F4268393F00
:105E40003B8F3B3FF9AE3D3F67C73F3F70D8413F77
:105E500001E2433F03E4453F65DE473F12D1493F3E
:105E6000F8BB4B3F029F4D3F207A4F3F3D4D513F86
:105E70004918533F31DB543FE595563F5348583F4F
:105E80006AF2593F1A945B3F532D5D3F05BE5E3F5A
:105E90002146603F97C5613F5A3C633F59AA643F22
:105EA000880F663FD86B673F3CBF683FA7096A3FD2
:105EB0000C4B6B3F5E836C3F93B26D3F9ED86E3F41
:105EC00073F56F3F0809713F5213723F4714733FD8
:105ED000DD0B743F0BFA743FC6DE753F07BA763FA1
:105EE000C58B773FF853783F9812793F9DC7793F2C
:105EF00002737A3FBE147B3FCDAC7B3F283B7C3F97
:105F0000C9BF7C3FAC3A7D3FCCAB7D3F23137E3F86
:105F1000B0707E3F6DC47E3F580E7F3F6D4E7F3F19
:105F2000AB847F3F0FB17F3F97D37F3F43EC7F3FF1
:105F300011FB7F3F0000803F11FB7F3F43EC7F3F21
:105F400097D37F3F0FB17F3FAB847F3F6D4E7F3F45
:105F5000580E7F3F6DC47E3FB0707E3F23137E3F5F
:105F6000CCAB7D3FAC3A7D3FC9BF7C3F283B7C3FFB
:105F7000CDAC7B3FBE147B3F02737A3F9DC7793F18
:105F80009812793FF853783FC58B773F07BA763F31
:105F9000C6DE753F0BFA743FDD0B743F4714733F49
:105FA0005213723F0809713F73F56F3F9ED86E3FE1
:105FB00093B26D3F5E836C3F0C4B6B3FA7096A3F0A
:105FC0003CBF683FD86B673F880F663F59AA643F64
:105FD0005A3C633F97C5613F2146603F05BE5E3F27
:105FE000532D5D3F1A945B3F6AF2593F5348583F27
:105FF000E595563F31DB543F4918533F3D4D513FE6
:10600000207A4F3F029F4D3FF8BB4B3F12D1493F93
:1060100065DE473F03E4453F01E2433F70D8413F1F
:1060200067C73F3FF9AE3D3F3B8F3B3F4268393F3B
:10603000233A373FF304353FC9C8323FBB85303F71
:10604000DE3B2E3F4AEB2B3F1594293F5636273F28
:1060500025D2243F9967223FCBF61F3FD17F1D3FBA
:10606000C6021B3FC07F183FD9F6153F2A68133F71
:10607000CDD3103FDA390E3F6B9A0B3F9BF5083FAB
:10608000824B063F3D9C033FE4E7003F275DFC3E1B
:10609000CBE0F63EEA5AF13EBBCBEB3E7533E63E33
:1060A0004F92E03E80E8DA3E4136D53ECA7BCF3E95
:1060B00053B9C93E15EFC33E491DBE3E2A44B83E02
:1060C000EF63B23ED47CAC3E128FA63EE59AA03E72
:1060D00086A09A3E32A0943E229A8E3E938E883EAF
:1060E000C07D823ECCCF783E7F9A6C3E135C603E92
:1060F0000115543EC2C5473ECF6E3B3EA2102F3E17
:10610000B5AB223E8340163E87CF093E73B2FA3DBF
:106110002FBCE13D36BDC83D80B6AF3D04A9963DDC
:10612000752B7B3D2EFB483D2BC3163DB10AC93C68
:10613000920E493C00000000920E49BCB10AC9BC55
:106140002BC316BD2EFB48BD752B7BBD04A996BD88
:1061500080B6AFBD36BDC8BD2FBCE1BD73B2FABDC0
:1061600087CF09BE834016BEB5AB22BEA2102FBE9C
:10617000CF6E3BBEC2C547BE011554BE135C60BEA8
:106180007F9A6CBECCCF78BEC07D82BE938E88BE17
:10619000229A8EBE32A094BE86A09ABEE59AA0BE78
:1061A000128FA6BED47CACBEEF63B2BE2A44B8BE8A
:1061B000491DBEBE15EFC3BE53B9C9BECA7BCFBE13
:1061C0004136D5BE80E8DABE4F92E0BE7533E6BEFA
:1061D000BBCBEBBEEA5AF1BECBE0F6BE275DFCBE00
:1061E000E4E700BF3D9C03BF824B06BF9BF508BFA1
:1061F0006B9A0BBFDA390EBFCDD310BF2A6813BF1D
:10620000D9F615BFC07F18BFC6021BBFD17F1DBF07
:10621000CBF61FBF996722BF25D224BF563627BFB2
:10622000159429BF4AEB2BBFDE3B2EBFBB8530BF89
:10623000C9C832BFF30435BF233A37BF426839BFFC
:106240003B8F3BBFF9AE3DBF67C73FBF70D841BF73
:1062500001E243BF03E445BF65DE47BF12D149BF3A
:10626000F8BB4BBF029F4DBF207A4FBF3D4D51BF82
:10627000491853BF31DB54BFE59556BF534858BF4B
:106280006AF259BF1A945BBF532D5DBF05BE5EBF56
:10629000214660BF97C561BF5A3C63BF59AA64BF1E
:1062A000880F66BFD86B67BF3CBF68BFA7096ABFCE
:1062B0000C4B6BBF5E836CBF93B26DBF9ED86EBF3D
:1062C00073F56FBF080971BF521372BF471473BFD4
:1062D000DD0B74BF0BFA74BFC6DE75BF07BA76BF9D
:1062E000C58B77BFF85378BF981279BF9DC779BF28
:1062F00002737ABFBE147BBFCDAC7BBF283B7CBF93
:10630000C9BF7CBFAC3A7DBFCCAB7DBF23137EBF82
:10631000B0707EBF6DC47EBF580E7FBF6D4E7FBF15
:10632000AB847FBF0FB17FBF97D37FBF43EC7FBFED
:1063300011FB7FBF000080BF11FB7FBF43EC7FBF1D
:1063400097D37FBF0FB17FBFAB847FBF6D4E7FBF41
:10635000580E7FBF6DC47EBFB0707EBF23137EBF5B
:10636000CCAB7DBFAC3A7DBFC9BF7CBF283B7CBFF7
:10637000CDAC7BBFBE147BBF02737ABF9DC779BF14
:10638000981279BFF85378BFC58B77BF07BA76BF2D
:10639000C6DE75BF0BFA74BFDD0B74BF471473BF45
:1063A000521372BF080971BF73F56FBF9ED86EBFDD
:1063B00093B26DBF5E836CBF0C4B6BBFA7096ABF06
:1063C0003CBF68BFD86B67BF880F66BF59AA64BF60
:1063D0005A3C63BF97C561BF214660BF05BE5EBF23
:1063E000532D5DBF1A945BBF6AF259BF534858BF23
:1063F000E59556BF31DB54BF491853BF3D4D51BFE2
:10640000207A4FBF029F4DBFF8BB4BBF12D149BF8F
:1064100065DE47BF03E445BF01E243BF70D841BF1B
:1064200067C73FBFF9AE3DBF3B8F3BBF426839BF37
:10643000233A37BFF30435BFC9C832BFBB8530BF6D
:10644000DE3B2EBF4AEB2BBF159429BF563627BF24
:1064500025D224BF996722BFCBF61FBFD17F1DBFB6
:10646000C6021BBFC07F18BFD9F615BF2A6813BF6D
:10647000CDD310BFDA390EBF6B9A0BBF9BF508BFA7
:10648000824B06BF3D9C03BFE4E700BF275DFCBE17
:10649000CBE0F6BEEA5AF1BEBBCBEBBE7533E6BE2F
:1064A0004F92E0BE80E8DABE4136D5BECA7BCFBE91
:1064B00053B9C9BE15EFC3BE491DBEBE2A44B8BEFE
:1064C000EF63B2BED47CACBE128FA6BEE59AA0BE6E
:1064D00086A09ABE32A094BE229A8EBE938E88BEAB
:1064E000C07D82BECCCF78BE7F9A6CBE135C60BE8E
:1064F000011554BEC2C547BECF6E3BBEA2102FBE13
:10650000B5AB22BE834016BE87CF09BE73B2FABDBB
:106510002FBCE1BD36BDC8BD80B6AFBD04A996BDD8
:10652000752B7BBD2EFB48BD2BC316BDB10AC9BC64
:10653000920E49BC00000080586500080000002051
:1065400094030000CC060008306600089403002085
:106550009C0B0000845C000841321042010325249A
:10656000F41344071B20F4313934F10B1838091C9B
:106570000118692C13954F1008087A523D41794350
:106580001B088D041A5D0413D55C02360823C8422B
:106590004340411AE9581339501B08890411021667
:1065A00007026F031AC5DC1361451408E942140899
:1065B000550F0C2E088544E8180820416F12033B44
:1065C00069401AA54C01361808C8420AD7A33B55A2
:1065D000441ADD4417F2A9384259471B0871041ABE
:1065E0003D040B38D55C582143404113D950140861
:1065F00029511B08790411021607026F031AA9DC3E
:106600001345491408C946140875100C2E0869482A
:10661000E8180820416F12033B49401A894C0136A3
:10662000180848420AD7A33B3544DAC144000000A9
:040000050800018965
:00000001FF
