Component: ARM Compiler 5.06 update 7 (build 960) Tool: armlink [4d3601]

==============================================================================

Section Cross References

    startup_stm32f407xx.o(RESET) refers to startup_stm32f407xx.o(STACK) for __initial_sp
    startup_stm32f407xx.o(RESET) refers to startup_stm32f407xx.o(.text) for Reset_Handler
    startup_stm32f407xx.o(RESET) refers to stm32f4xx_it.o(i.NMI_Handler) for NMI_Handler
    startup_stm32f407xx.o(RESET) refers to stm32f4xx_it.o(i.HardFault_Handler) for HardFault_Handler
    startup_stm32f407xx.o(RESET) refers to stm32f4xx_it.o(i.MemManage_Handler) for MemManage_Handler
    startup_stm32f407xx.o(RESET) refers to stm32f4xx_it.o(i.BusFault_Handler) for BusFault_Handler
    startup_stm32f407xx.o(RESET) refers to stm32f4xx_it.o(i.UsageFault_Handler) for UsageFault_Handler
    startup_stm32f407xx.o(RESET) refers to stm32f4xx_it.o(i.SVC_Handler) for SVC_Handler
    startup_stm32f407xx.o(RESET) refers to stm32f4xx_it.o(i.DebugMon_Handler) for DebugMon_Handler
    startup_stm32f407xx.o(RESET) refers to stm32f4xx_it.o(i.PendSV_Handler) for PendSV_Handler
    startup_stm32f407xx.o(RESET) refers to stm32f4xx_it.o(i.SysTick_Handler) for SysTick_Handler
    startup_stm32f407xx.o(RESET) refers to stm32f4xx_it.o(i.EXTI2_IRQHandler) for EXTI2_IRQHandler
    startup_stm32f407xx.o(RESET) refers to stm32f4xx_it.o(i.TIM1_UP_TIM10_IRQHandler) for TIM1_UP_TIM10_IRQHandler
    startup_stm32f407xx.o(RESET) refers to stm32f4xx_it.o(i.TIM3_IRQHandler) for TIM3_IRQHandler
    startup_stm32f407xx.o(RESET) refers to stm32f4xx_it.o(i.USART1_IRQHandler) for USART1_IRQHandler
    startup_stm32f407xx.o(RESET) refers to stm32f4xx_it.o(i.EXTI15_10_IRQHandler) for EXTI15_10_IRQHandler
    startup_stm32f407xx.o(RESET) refers to stm32f4xx_it.o(i.DMA2_Stream0_IRQHandler) for DMA2_Stream0_IRQHandler
    startup_stm32f407xx.o(RESET) refers to stm32f4xx_it.o(i.DMA2_Stream2_IRQHandler) for DMA2_Stream2_IRQHandler
==============================================================================

Removing Unused input sections from the image.

    Removing startup_stm32f407xx.o(HEAP), (512 bytes).
    Removing main.o(.rev16_text), (4 bytes).
    Removing main.o(.revsh_text), (4 bytes).
    Removing main.o(.rrx_text), (6 bytes).
    Removing gpio.o(.rev16_text), (4 bytes).
    Removing gpio.o(.revsh_text), (4 bytes).
    Removing gpio.o(.rrx_text), (6 bytes).
    Removing adc.o(.rev16_text), (4 bytes).
    Removing adc.o(.revsh_text), (4 bytes).
    Removing adc.o(.rrx_text), (6 bytes).
    Removing adc.o(i.HAL_ADC_MspDeInit), (104 bytes).
    Removing can.o(.rev16_text), (4 bytes).
    Removing can.o(.revsh_text), (4 bytes).
    Removing can.o(.rrx_text), (6 bytes).
    Removing can.o(i.HAL_CAN_MspDeInit), (48 bytes).
    Removing dma.o(.rev16_text), (4 bytes).
    Removing dma.o(.revsh_text), (4 bytes).
    Removing dma.o(.rrx_text), (6 bytes).
==============================================================================

Image Symbol Table

    Local Symbols

    Symbol Name                              Value     Ov Type        Size  Object(Section)

    ../Core/Src/adc.c                        0x00000000   Number         0  adc.o ABSOLUTE
    ../Core/Src/can.c                        0x00000000   Number         0  can.o ABSOLUTE
    ../Core/Src/dma.c                        0x00000000   Number         0  dma.o ABSOLUTE
    ../Core/Src/gpio.c                       0x00000000   Number         0  gpio.o ABSOLUTE
    ../Core/Src/main.c                       0x00000000   Number         0  main.o ABSOLUTE
    ../Core/Src/spi.c                        0x00000000   Number         0  spi.o ABSOLUTE
    ../Core/Src/stm32f4xx_hal_msp.c          0x00000000   Number         0  stm32f4xx_hal_msp.o ABSOLUTE
    ../Core/Src/stm32f4xx_it.c               0x00000000   Number         0  stm32f4xx_it.o ABSOLUTE
    ../Core/Src/system_stm32f4xx.c           0x00000000   Number         0  system_stm32f4xx.o ABSOLUTE
    ../Core/Src/tim.c                        0x00000000   Number         0  tim.o ABSOLUTE
    ../Core/Src/usart.c                      0x00000000   Number         0  usart.o ABSOLUTE
    ../Drivers/STM32F4xx_HAL_Driver/Src/stm32f4xx_hal.c 0x00000000   Number         0  stm32f4xx_hal.o ABSOLUTE
    ../Drivers/STM32F4xx_HAL_Driver/Src/stm32f4xx_hal_adc.c 0x00000000   Number         0  stm32f4xx_hal_adc.o ABSOLUTE
    ../Drivers/STM32F4xx_HAL_Driver/Src/stm32f4xx_hal_adc_ex.c 0x00000000   Number         0  stm32f4xx_hal_adc_ex.o ABSOLUTE
    ../Drivers/STM32F4xx_HAL_Driver/Src/stm32f4xx_hal_can.c 0x00000000   Number         0  stm32f4xx_hal_can.o ABSOLUTE
    ../Drivers/STM32F4xx_HAL_Driver/Src/stm32f4xx_hal_cortex.c 0x00000000   Number         0  stm32f4xx_hal_cortex.o ABSOLUTE
    ../Drivers/STM32F4xx_HAL_Driver/Src/stm32f4xx_hal_dma.c 0x00000000   Number         0  stm32f4xx_hal_dma.o ABSOLUTE
    ../Drivers/STM32F4xx_HAL_Driver/Src/stm32f4xx_hal_dma_ex.c 0x00000000   Number         0  stm32f4xx_hal_dma_ex.o ABSOLUTE
    ../Drivers/STM32F4xx_HAL_Driver/Src/stm32f4xx_hal_exti.c 0x00000000   Number         0  stm32f4xx_hal_exti.o ABSOLUTE
    ../Drivers/STM32F4xx_HAL_Driver/Src/stm32f4xx_hal_flash.c 0x00000000   Number         0  stm32f4xx_hal_flash.o ABSOLUTE
    ../Drivers/STM32F4xx_HAL_Driver/Src/stm32f4xx_hal_flash_ex.c 0x00000000   Number         0  stm32f4xx_hal_flash_ex.o ABSOLUTE
    ../Drivers/STM32F4xx_HAL_Driver/Src/stm32f4xx_hal_flash_ramfunc.c 0x00000000   Number         0  stm32f4xx_hal_flash_ramfunc.o ABSOLUTE
    ../Drivers/STM32F4xx_HAL_Driver/Src/stm32f4xx_hal_gpio.c 0x00000000   Number         0  stm32f4xx_hal_gpio.o ABSOLUTE
    ../Drivers/STM32F4xx_HAL_Driver/Src/stm32f4xx_hal_pwr.c 0x00000000   Number         0  stm32f4xx_hal_pwr.o ABSOLUTE
    ../Drivers/STM32F4xx_HAL_Driver/Src/stm32f4xx_hal_pwr_ex.c 0x00000000   Number         0  stm32f4xx_hal_pwr_ex.o ABSOLUTE
    ../Drivers/STM32F4xx_HAL_Driver/Src/stm32f4xx_hal_rcc.c 0x00000000   Number         0  stm32f4xx_hal_rcc.o ABSOLUTE
    ../Drivers/STM32F4xx_HAL_Driver/Src/stm32f4xx_hal_rcc_ex.c 0x00000000   Number         0  stm32f4xx_hal_rcc_ex.o ABSOLUTE
    ../Drivers/STM32F4xx_HAL_Driver/Src/stm32f4xx_hal_spi.c 0x00000000   Number         0  stm32f4xx_hal_spi.o ABSOLUTE
    ../Drivers/STM32F4xx_HAL_Driver/Src/stm32f4xx_hal_tim.c 0x00000000   Number         0  stm32f4xx_hal_tim.o ABSOLUTE
    ../Drivers/STM32F4xx_HAL_Driver/Src/stm32f4xx_hal_tim_ex.c 0x00000000   Number         0  stm32f4xx_hal_tim_ex.o ABSOLUTE
    ../Drivers/STM32F4xx_HAL_Driver/Src/stm32f4xx_hal_uart.c 0x00000000   Number         0  stm32f4xx_hal_uart.o ABSOLUTE
    ../clib/../cmprslib/zerorunl2.c          0x00000000   Number         0  __dczerorl2.o ABSOLUTE
    ../clib/microlib/division.c              0x00000000   Number         0  uldiv.o ABSOLUTE
    ../clib/microlib/division.c              0x00000000   Number         0  uidiv.o ABSOLUTE
    ../clib/microlib/init/entry.s            0x00000000   Number         0  entry11a.o ABSOLUTE
    ../clib/microlib/init/entry.s            0x00000000   Number         0  entry8a.o ABSOLUTE
    ../clib/microlib/init/entry.s            0x00000000   Number         0  entry5.o ABSOLUTE
    ../clib/microlib/init/entry.s            0x00000000   Number         0  entry.o ABSOLUTE
    ../clib/microlib/init/entry.s            0x00000000   Number         0  entry10b.o ABSOLUTE
    ../clib/microlib/init/entry.s            0x00000000   Number         0  entry9b.o ABSOLUTE
    ../clib/microlib/init/entry.s            0x00000000   Number         0  entry11b.o ABSOLUTE
    ../clib/microlib/init/entry.s            0x00000000   Number         0  entry10a.o ABSOLUTE
    ../clib/microlib/init/entry.s            0x00000000   Number         0  entry12a.o ABSOLUTE
    ../clib/microlib/init/entry.s            0x00000000   Number         0  entry12b.o ABSOLUTE
    ../clib/microlib/init/entry.s            0x00000000   Number         0  entry7b.o ABSOLUTE
    ../clib/microlib/init/entry.s            0x00000000   Number         0  entry2.o ABSOLUTE
    ../clib/microlib/init/entry.s            0x00000000   Number         0  entry7a.o ABSOLUTE
    ../clib/microlib/init/entry.s            0x00000000   Number         0  entry8b.o ABSOLUTE
    ../clib/microlib/init/entry.s            0x00000000   Number         0  entry9a.o ABSOLUTE
    ../clib/microlib/longlong.c              0x00000000   Number         0  llshl.o ABSOLUTE
    ../clib/microlib/longlong.c              0x00000000   Number         0  llushr.o ABSOLUTE
    ../clib/microlib/longlong.c              0x00000000   Number         0  llsshr.o ABSOLUTE
    ../clib/microlib/printf/printf.c         0x00000000   Number         0  printf5.o ABSOLUTE
    ../clib/microlib/printf/printf.c         0x00000000   Number         0  printf7.o ABSOLUTE
    ../clib/microlib/printf/printf.c         0x00000000   Number         0  printf8.o ABSOLUTE
    ../clib/microlib/printf/printf.c         0x00000000   Number         0  printfa.o ABSOLUTE
    ../clib/microlib/printf/printf.c         0x00000000   Number         0  printfb.o ABSOLUTE
    ../clib/microlib/printf/printf.c         0x00000000   Number         0  printf0.o ABSOLUTE
    ../clib/microlib/printf/printf.c         0x00000000   Number         0  printf1.o ABSOLUTE
    ../clib/microlib/printf/printf.c         0x00000000   Number         0  printf2.o ABSOLUTE
    ../clib/microlib/printf/printf.c         0x00000000   Number         0  printf3.o ABSOLUTE
    ../clib/microlib/printf/printf.c         0x00000000   Number         0  printf4.o ABSOLUTE
    ../clib/microlib/printf/printf.c         0x00000000   Number         0  printf6.o ABSOLUTE
    ../clib/microlib/printf/stubs.s          0x00000000   Number         0  stubs.o ABSOLUTE
    ../clib/microlib/stdio/streams.c         0x00000000   Number         0  stdout.o ABSOLUTE
    ../clib/microlib/string/memcpy.c         0x00000000   Number         0  memcpya.o ABSOLUTE
    ../clib/microlib/string/memcpy.c         0x00000000   Number         0  memcpyb.o ABSOLUTE
    ../clib/microlib/string/memset.c         0x00000000   Number         0  memseta.o ABSOLUTE
    ../clib/microlib/stubs.s                 0x00000000   Number         0  iusefp.o ABSOLUTE
    ../fplib/microlib/d2f.c                  0x00000000   Number         0  d2f.o ABSOLUTE
    ../fplib/microlib/f2d.c                  0x00000000   Number         0  f2d.o ABSOLUTE
    ../fplib/microlib/fpadd.c                0x00000000   Number         0  dadd.o ABSOLUTE
    ../fplib/microlib/fpdiv.c                0x00000000   Number         0  ddiv.o ABSOLUTE
    ../fplib/microlib/fpepilogue.c           0x00000000   Number         0  fepilogue.o ABSOLUTE
    ../fplib/microlib/fpepilogue.c           0x00000000   Number         0  depilogue.o ABSOLUTE
    ../fplib/microlib/fpfix.c                0x00000000   Number         0  dfixul.o ABSOLUTE
    ../fplib/microlib/fpflt.c                0x00000000   Number         0  dflti.o ABSOLUTE
    ../fplib/microlib/fpmul.c                0x00000000   Number         0  dmul.o ABSOLUTE
    ../fplib/microlib/fpneg.c                0x00000000   Number         0  dneg.o ABSOLUTE
    ../mathlib/fabs.c                        0x00000000   Number         0  fabs.o ABSOLUTE
    ..\..\Source\CommonTables\arm_common_tables.c 0x00000000   Number         0  arm_common_tables.o ABSOLUTE
    ..\..\Source\FastMathFunctions\arm_cos_f32.c 0x00000000   Number         0  arm_cos_f32.o ABSOLUTE
    ..\..\Source\FastMathFunctions\arm_sin_f32.c 0x00000000   Number         0  arm_sin_f32.o ABSOLUTE
    ..\Core\Src\adc.c                        0x00000000   Number         0  adc.o ABSOLUTE
    ..\Core\Src\can.c                        0x00000000   Number         0  can.o ABSOLUTE
    ..\Core\Src\dma.c                        0x00000000   Number         0  dma.o ABSOLUTE
    ..\Core\Src\gpio.c                       0x00000000   Number         0  gpio.o ABSOLUTE
    ..\Core\Src\main.c                       0x00000000   Number         0  main.o ABSOLUTE
    ..\Core\Src\spi.c                        0x00000000   Number         0  spi.o ABSOLUTE
    ..\Core\Src\stm32f4xx_hal_msp.c          0x00000000   Number         0  stm32f4xx_hal_msp.o ABSOLUTE
    ..\Core\Src\stm32f4xx_it.c               0x00000000   Number         0  stm32f4xx_it.o ABSOLUTE
    ..\Core\Src\system_stm32f4xx.c           0x00000000   Number         0  system_stm32f4xx.o ABSOLUTE
    ..\Core\Src\tim.c                        0x00000000   Number         0  tim.o ABSOLUTE
    ..\Core\Src\usart.c                      0x00000000   Number         0  usart.o ABSOLUTE
    ..\Drivers\STM32F4xx_HAL_Driver\Src\stm32f4xx_hal.c 0x00000000   Number         0  stm32f4xx_hal.o ABSOLUTE
    ..\Drivers\STM32F4xx_HAL_Driver\Src\stm32f4xx_hal_adc.c 0x00000000   Number         0  stm32f4xx_hal_adc.o ABSOLUTE
    ..\Drivers\STM32F4xx_HAL_Driver\Src\stm32f4xx_hal_adc_ex.c 0x00000000   Number         0  stm32f4xx_hal_adc_ex.o ABSOLUTE
    ..\Drivers\STM32F4xx_HAL_Driver\Src\stm32f4xx_hal_can.c 0x00000000   Number         0  stm32f4xx_hal_can.o ABSOLUTE
    ..\Drivers\STM32F4xx_HAL_Driver\Src\stm32f4xx_hal_cortex.c 0x00000000   Number         0  stm32f4xx_hal_cortex.o ABSOLUTE
    ..\Drivers\STM32F4xx_HAL_Driver\Src\stm32f4xx_hal_dma.c 0x00000000   Number         0  stm32f4xx_hal_dma.o ABSOLUTE
    ..\Drivers\STM32F4xx_HAL_Driver\Src\stm32f4xx_hal_dma_ex.c 0x00000000   Number         0  stm32f4xx_hal_dma_ex.o ABSOLUTE
    ..\Drivers\STM32F4xx_HAL_Driver\Src\stm32f4xx_hal_exti.c 0x00000000   Number         0  stm32f4xx_hal_exti.o ABSOLUTE
    ..\Drivers\STM32F4xx_HAL_Driver\Src\stm32f4xx_hal_flash.c 0x00000000   Number         0  stm32f4xx_hal_flash.o ABSOLUTE
    ..\Drivers\STM32F4xx_HAL_Driver\Src\stm32f4xx_hal_flash_ex.c 0x00000000   Number         0  stm32f4xx_hal_flash_ex.o ABSOLUTE
    ..\Drivers\STM32F4xx_HAL_Driver\Src\stm32f4xx_hal_flash_ramfunc.c 0x00000000   Number         0  stm32f4xx_hal_flash_ramfunc.o ABSOLUTE
    ..\Drivers\STM32F4xx_HAL_Driver\Src\stm32f4xx_hal_gpio.c 0x00000000   Number         0  stm32f4xx_hal_gpio.o ABSOLUTE
    ..\Drivers\STM32F4xx_HAL_Driver\Src\stm32f4xx_hal_pwr.c 0x00000000   Number         0  stm32f4xx_hal_pwr.o ABSOLUTE
    ..\Drivers\STM32F4xx_HAL_Driver\Src\stm32f4xx_hal_pwr_ex.c 0x00000000   Number         0  stm32f4xx_hal_pwr_ex.o ABSOLUTE
    ..\Drivers\STM32F4xx_HAL_Driver\Src\stm32f4xx_hal_rcc.c 0x00000000   Number         0  stm32f4xx_hal_rcc.o ABSOLUTE
    ..\Drivers\STM32F4xx_HAL_Driver\Src\stm32f4xx_hal_rcc_ex.c 0x00000000   Number         0  stm32f4xx_hal_rcc_ex.o ABSOLUTE
    ..\Drivers\STM32F4xx_HAL_Driver\Src\stm32f4xx_hal_spi.c 0x00000000   Number         0  stm32f4xx_hal_spi.o ABSOLUTE
    ..\Drivers\STM32F4xx_HAL_Driver\Src\stm32f4xx_hal_tim.c 0x00000000   Number         0  stm32f4xx_hal_tim.o ABSOLUTE
    ..\Drivers\STM32F4xx_HAL_Driver\Src\stm32f4xx_hal_tim_ex.c 0x00000000   Number         0  stm32f4xx_hal_tim_ex.o ABSOLUTE
    ..\Drivers\STM32F4xx_HAL_Driver\Src\stm32f4xx_hal_uart.c 0x00000000   Number         0  stm32f4xx_hal_uart.o ABSOLUTE
    ..\User\APP\APPMain.c                    0x00000000   Number         0  appmain.o ABSOLUTE
    ..\User\Framework\FOC.c                  0x00000000   Number         0  foc.o ABSOLUTE
    ..\User\Framework\LEDControl.c           0x00000000   Number         0  ledcontrol.o ABSOLUTE
    ..\User\Framework\PositionPID.c          0x00000000   Number         0  positionpid.o ABSOLUTE
    ..\User\Framework\SpeedPID.c             0x00000000   Number         0  speedpid.o ABSOLUTE
    ..\User\Framework\Svpwm.c                0x00000000   Number         0  svpwm.o ABSOLUTE
    ..\User\Framework\TLE5012B.c             0x00000000   Number         0  tle5012b.o ABSOLUTE
    ..\User\Function\AngleCalibrationFunc.c  0x00000000   Number         0  anglecalibrationfunc.o ABSOLUTE
    ..\User\Function\FunctionMain.c          0x00000000   Number         0  functionmain.o ABSOLUTE
    ..\User\MCUDriver\LEDGPIO.c              0x00000000   Number         0  ledgpio.o ABSOLUTE
    ..\User\MCUDriver\MCUDriverMain.c        0x00000000   Number         0  mcudrivermain.o ABSOLUTE
    ..\User\MCUDriver\Motor1ADC1.c           0x00000000   Number         0  motor1adc1.o ABSOLUTE
    ..\User\MCUDriver\Motor1EncoderNVIC.c    0x00000000   Number         0  motor1encodernvic.o ABSOLUTE
    ..\User\MCUDriver\Motor1GPIO.c           0x00000000   Number         0  motor1gpio.o ABSOLUTE
    ..\User\MCUDriver\Motor1SPI1.c           0x00000000   Number         0  motor1spi1.o ABSOLUTE
    ..\User\MCUDriver\Motor1TIM1Pwm.c        0x00000000   Number         0  motor1tim1pwm.o ABSOLUTE
    ..\User\MCUDriver\Motor1TIM2Encoder.c    0x00000000   Number         0  motor1tim2encoder.o ABSOLUTE
    ..\User\MCUDriver\Motor2ADC2.c           0x00000000   Number         0  motor2adc2.o ABSOLUTE
    ..\User\MCUDriver\Motor2EncoderNVIC.c    0x00000000   Number         0  motor2encodernvic.o ABSOLUTE
    ..\User\MCUDriver\Motor2GPIO.c           0x00000000   Number         0  motor2gpio.o ABSOLUTE
    ..\User\MCUDriver\Motor2SPI2.c           0x00000000   Number         0  motor2spi2.o ABSOLUTE
    ..\User\MCUDriver\Motor2TIM3Pwm.c        0x00000000   Number         0  motor2tim3pwm.o ABSOLUTE
    ..\User\MCUDriver\Motor2TIM4Encoder.c    0x00000000   Number         0  motor2tim4encoder.o ABSOLUTE
    ..\User\MCUDriver\Timer.c                0x00000000   Number         0  timer.o ABSOLUTE
    ..\User\MCUDriver\Uart1.c                0x00000000   Number         0  uart1.o ABSOLUTE
    ..\User\PeripheralsDriver\LEDConfig.c    0x00000000   Number         0  ledconfig.o ABSOLUTE
    ..\User\PeripheralsDriver\Motor1FOCConfig.c 0x00000000   Number         0  motor1focconfig.o ABSOLUTE
    ..\User\PeripheralsDriver\Motor1PositionPIDConfig.c 0x00000000   Number         0  motor1positionpidconfig.o ABSOLUTE
    ..\User\PeripheralsDriver\Motor1SpeedPIDConfig.c 0x00000000   Number         0  motor1speedpidconfig.o ABSOLUTE
    ..\User\PeripheralsDriver\Motor1SvpwmConfig.c 0x00000000   Number         0  motor1svpwmconfig.o ABSOLUTE
    ..\User\PeripheralsDriver\Motor1TLE5012BConfig.c 0x00000000   Number         0  motor1tle5012bconfig.o ABSOLUTE
    ..\User\PeripheralsDriver\Motor2FOCConfig.c 0x00000000   Number         0  motor2focconfig.o ABSOLUTE
    ..\User\PeripheralsDriver\Motor2PositionPIDConfig.c 0x00000000   Number         0  motor2positionpidconfig.o ABSOLUTE
    ..\User\PeripheralsDriver\Motor2SpeedPIDConfig.c 0x00000000   Number         0  motor2speedpidconfig.o ABSOLUTE
    ..\User\PeripheralsDriver\Motor2SvpwmConfig.c 0x00000000   Number         0  motor2svpwmconfig.o ABSOLUTE
    ..\User\PeripheralsDriver\Motor2TLE5012BConfig.c 0x00000000   Number         0  motor2tle5012bconfig.o ABSOLUTE
    ..\User\PeripheralsDriver\PerDriverMain.c 0x00000000   Number         0  perdrivermain.o ABSOLUTE
    ..\User\Protocol\RingBuffer.c            0x00000000   Number         0  ringbuffer.o ABSOLUTE
    ..\User\RTT\SEGGER_RTT.c                 0x00000000   Number         0  segger_rtt.o ABSOLUTE
    ..\User\RTT\SEGGER_RTT_printf.c          0x00000000   Number         0  segger_rtt_printf.o ABSOLUTE
    ..\\..\\Source\\CommonTables\\arm_common_tables.c 0x00000000   Number         0  arm_common_tables.o ABSOLUTE
    ..\\..\\Source\\FastMathFunctions\\arm_cos_f32.c 0x00000000   Number         0  arm_cos_f32.o ABSOLUTE
    ..\\..\\Source\\FastMathFunctions\\arm_sin_f32.c 0x00000000   Number         0  arm_sin_f32.o ABSOLUTE
    ..\\User\\Framework\\FOC.c               0x00000000   Number         0  foc.o ABSOLUTE
    ..\\User\\Framework\\Svpwm.c             0x00000000   Number         0  svpwm.o ABSOLUTE
    ..\\User\\Framework\\TLE5012B.c          0x00000000   Number         0  tle5012b.o ABSOLUTE
    ..\\User\\Function\\AngleCalibrationFunc.c 0x00000000   Number         0  anglecalibrationfunc.o ABSOLUTE
    ..\\User\\MCUDriver\\LEDGPIO.c           0x00000000   Number         0  ledgpio.o ABSOLUTE
    ..\\User\\MCUDriver\\Motor1ADC1.c        0x00000000   Number         0  motor1adc1.o ABSOLUTE
    ..\\User\\MCUDriver\\Motor1EncoderNVIC.c 0x00000000   Number         0  motor1encodernvic.o ABSOLUTE
    ..\\User\\MCUDriver\\Motor1GPIO.c        0x00000000   Number         0  motor1gpio.o ABSOLUTE
    ..\\User\\MCUDriver\\Motor1SPI1.c        0x00000000   Number         0  motor1spi1.o ABSOLUTE
    ..\\User\\MCUDriver\\Motor1TIM1Pwm.c     0x00000000   Number         0  motor1tim1pwm.o ABSOLUTE
    ..\\User\\MCUDriver\\Motor1TIM2Encoder.c 0x00000000   Number         0  motor1tim2encoder.o ABSOLUTE
    ..\\User\\MCUDriver\\Motor2ADC2.c        0x00000000   Number         0  motor2adc2.o ABSOLUTE
    ..\\User\\MCUDriver\\Motor2EncoderNVIC.c 0x00000000   Number         0  motor2encodernvic.o ABSOLUTE
    ..\\User\\MCUDriver\\Motor2GPIO.c        0x00000000   Number         0  motor2gpio.o ABSOLUTE
    ..\\User\\MCUDriver\\Motor2SPI2.c        0x00000000   Number         0  motor2spi2.o ABSOLUTE
    ..\\User\\MCUDriver\\Motor2TIM3Pwm.c     0x00000000   Number         0  motor2tim3pwm.o ABSOLUTE
    ..\\User\\MCUDriver\\Motor2TIM4Encoder.c 0x00000000   Number         0  motor2tim4encoder.o ABSOLUTE
    ..\\User\\MCUDriver\\Timer.c             0x00000000   Number         0  timer.o ABSOLUTE
    ..\\User\\MCUDriver\\Uart1.c             0x00000000   Number         0  uart1.o ABSOLUTE
    ..\\User\\PeripheralsDriver\\PerDriverMain.c 0x00000000   Number         0  perdrivermain.o ABSOLUTE
    cdcmple.s                                0x00000000   Number         0  cdcmple.o ABSOLUTE
    cdrcmple.s                               0x00000000   Number         0  cdrcmple.o ABSOLUTE
    dc.s                                     0x00000000   Number         0  dc.o ABSOLUTE
    handlers.s                               0x00000000   Number         0  handlers.o ABSOLUTE
    init.s                                   0x00000000   Number         0  init.o ABSOLUTE
    startup_stm32f407xx.s                    0x00000000   Number         0  startup_stm32f407xx.o ABSOLUTE
    RESET                                    0x08000000   Section      392  startup_stm32f407xx.o(RESET)
    .ARM.Collect$$$$00000000                 0x08000188   Section        0  entry.o(.ARM.Collect$$$$00000000)
    .ARM.Collect$$$$00000001                 0x08000188   Section        4  entry2.o(.ARM.Collect$$$$00000001)
    .ARM.Collect$$$$00000004                 0x0800018c   Section        4  entry5.o(.ARM.Collect$$$$00000004)
    .ARM.Collect$$$$00000008                 0x08000190   Section        0  entry7b.o(.ARM.Collect$$$$00000008)
    .ARM.Collect$$$$0000000A                 0x08000190   Section        0  entry8b.o(.ARM.Collect$$$$0000000A)
    .ARM.Collect$$$$0000000B                 0x08000190   Section        8  entry9a.o(.ARM.Collect$$$$0000000B)
    .ARM.Collect$$$$0000000E                 0x08000198   Section        4  entry12b.o(.ARM.Collect$$$$0000000E)
    .ARM.Collect$$$$0000000F                 0x0800019c   Section        0  entry10a.o(.ARM.Collect$$$$0000000F)
    .ARM.Collect$$$$00000011                 0x0800019c   Section        0  entry11a.o(.ARM.Collect$$$$00000011)
    .ARM.Collect$$$$00002712                 0x0800019c   Section        4  entry2.o(.ARM.Collect$$$$00002712)
    __lit__00000000                          0x0800019c   Data           4  entry2.o(.ARM.Collect$$$$00002712)
    .text                                    0x080001a0   Section       36  startup_stm32f407xx.o(.text)
    $v0                                      0x080001a0   Number         0  startup_stm32f407xx.o(.text)
    .text                                    0x080001c4   Section        0  arm_cos_f32.o(.text)
    .text                                    0x0800023c   Section        0  arm_sin_f32.o(.text)
    .text                                    0x080002d0   Section        0  uldiv.o(.text)
    .text                                    0x08000332   Section        0  memcpya.o(.text)
    .text                                    0x08000356   Section        0  memseta.o(.text)
    .text                                    0x0800037a   Section        0  dmul.o(.text)
    .text                                    0x0800045e   Section        0  dflti.o(.text)
    .text                                    0x08000480   Section        0  f2d.o(.text)
    .text                                    0x080004a8   Section       48  cdcmple.o(.text)
    .text                                    0x080004d8   Section       48  cdrcmple.o(.text)
    .text                                    0x08000508   Section        0  d2f.o(.text)
    .text                                    0x08000540   Section        0  llshl.o(.text)
    .text                                    0x0800055e   Section        0  llushr.o(.text)
    .text                                    0x0800057e   Section        0  iusefp.o(.text)
    .text                                    0x0800057e   Section        0  fepilogue.o(.text)
    .text                                    0x080005ec   Section        0  depilogue.o(.text)
    .text                                    0x080006a8   Section       36  init.o(.text)
    .text                                    0x080006cc   Section        0  __dczerorl2.o(.text)
    i.ADC_DMAConvCplt                        0x08000722   Section        0  stm32f4xx_hal_adc.o(i.ADC_DMAConvCplt)
    ADC_DMAConvCplt                          0x08000723   Thumb Code   126  stm32f4xx_hal_adc.o(i.ADC_DMAConvCplt)
    i.ADC_DMAError                           0x080007a0   Section        0  stm32f4xx_hal_adc.o(i.ADC_DMAError)
    ADC_DMAError                             0x080007a1   Thumb Code    26  stm32f4xx_hal_adc.o(i.ADC_DMAError)
    i.ADC_DMAHalfConvCplt                    0x080007ba   Section        0  stm32f4xx_hal_adc.o(i.ADC_DMAHalfConvCplt)
    ADC_DMAHalfConvCplt                      0x080007bb   Thumb Code    14  stm32f4xx_hal_adc.o(i.ADC_DMAHalfConvCplt)
    i.ADC_Init                               0x080007c8   Section        0  stm32f4xx_hal_adc.o(i.ADC_Init)
    ADC_Init                                 0x080007c9   Thumb Code   344  stm32f4xx_hal_adc.o(i.ADC_Init)
    i.APPMain_Init                           0x08000928   Section        0  appmain.o(i.APPMain_Init)
    i.APPMain_Loop                           0x08000938   Section        0  appmain.o(i.APPMain_Loop)
    i.AngleCalibrationFunc_Init              0x08000948   Section        0  anglecalibrationfunc.o(i.AngleCalibrationFunc_Init)
    i.BusFault_Handler                       0x0800094a   Section        0  stm32f4xx_it.o(i.BusFault_Handler)
    i.ClarkeTransform                        0x08000950   Section        0  foc.o(i.ClarkeTransform)
    ClarkeTransform                          0x08000951   Thumb Code    38  foc.o(i.ClarkeTransform)
    i.CurrentPIControlID                     0x0800097c   Section        0  foc.o(i.CurrentPIControlID)
    CurrentPIControlID                       0x0800097d   Thumb Code   346  foc.o(i.CurrentPIControlID)
    i.CurrentPIControlIQ                     0x08000ad6   Section        0  foc.o(i.CurrentPIControlIQ)
    CurrentPIControlIQ                       0x08000ad7   Thumb Code   350  foc.o(i.CurrentPIControlIQ)
    i.CurrentReconstruction                  0x08000c34   Section        0  foc.o(i.CurrentReconstruction)
    CurrentReconstruction                    0x08000c35   Thumb Code   212  foc.o(i.CurrentReconstruction)
    i.DMA2_Stream0_IRQHandler                0x08000d0c   Section        0  stm32f4xx_it.o(i.DMA2_Stream0_IRQHandler)
    i.DMA2_Stream2_IRQHandler                0x08000d24   Section        0  stm32f4xx_it.o(i.DMA2_Stream2_IRQHandler)
    i.DMA_CalcBaseAndBitshift                0x08000d3c   Section        0  stm32f4xx_hal_dma.o(i.DMA_CalcBaseAndBitshift)
    DMA_CalcBaseAndBitshift                  0x08000d3d   Thumb Code    46  stm32f4xx_hal_dma.o(i.DMA_CalcBaseAndBitshift)
    i.DMA_CheckFifoParam                     0x08000d70   Section        0  stm32f4xx_hal_dma.o(i.DMA_CheckFifoParam)
    DMA_CheckFifoParam                       0x08000d71   Thumb Code   170  stm32f4xx_hal_dma.o(i.DMA_CheckFifoParam)
    i.DMA_SetConfig                          0x08000e1a   Section        0  stm32f4xx_hal_dma.o(i.DMA_SetConfig)
    DMA_SetConfig                            0x08000e1b   Thumb Code    44  stm32f4xx_hal_dma.o(i.DMA_SetConfig)
    i.DebugMon_Handler                       0x08000e46   Section        0  stm32f4xx_it.o(i.DebugMon_Handler)
    i.EXTI15_10_IRQHandler                   0x08000e48   Section        0  stm32f4xx_it.o(i.EXTI15_10_IRQHandler)
    i.EXTI2_IRQHandler                       0x08000e58   Section        0  stm32f4xx_it.o(i.EXTI2_IRQHandler)
    i.Error_Handler                          0x08000e66   Section        0  main.o(i.Error_Handler)
    i.FocContorl                             0x08000e68   Section        0  foc.o(i.FocContorl)
    i.FunctionMain_Init                      0x08000eae   Section        0  functionmain.o(i.FunctionMain_Init)
    i.FunctionMain_Loop                      0x08000eb6   Section        0  functionmain.o(i.FunctionMain_Loop)
    i.GetElectricalAngle                     0x08000eb8   Section        0  foc.o(i.GetElectricalAngle)
    GetElectricalAngle                       0x08000eb9   Thumb Code    54  foc.o(i.GetElectricalAngle)
    i.GetFocAngle                            0x08000ef4   Section        0  foc.o(i.GetFocAngle)
    i.GetMotor1ADC1PhaseXValue               0x08000efc   Section        0  motor1adc1.o(i.GetMotor1ADC1PhaseXValue)
    i.GetMotor1PreCurrent                    0x08000f54   Section        0  motor1focconfig.o(i.GetMotor1PreCurrent)
    i.GetMotor2ADC2PhaseXValue               0x0800101c   Section        0  motor2adc2.o(i.GetMotor2ADC2PhaseXValue)
    i.GetMotor2PreCurrent                    0x08001074   Section        0  motor2focconfig.o(i.GetMotor2PreCurrent)
    i.GetSVPWMSector                         0x0800113c   Section        0  svpwm.o(i.GetSVPWMSector)
    i.GetVectorDuration                      0x08001144   Section        0  svpwm.o(i.GetVectorDuration)
    i.HAL_ADC_ConfigChannel                  0x080013d4   Section        0  stm32f4xx_hal_adc.o(i.HAL_ADC_ConfigChannel)
    i.HAL_ADC_ConvCpltCallback               0x08001560   Section        0  stm32f4xx_hal_adc.o(i.HAL_ADC_ConvCpltCallback)
    i.HAL_ADC_ConvHalfCpltCallback           0x08001562   Section        0  stm32f4xx_hal_adc.o(i.HAL_ADC_ConvHalfCpltCallback)
    i.HAL_ADC_ErrorCallback                  0x08001564   Section        0  stm32f4xx_hal_adc.o(i.HAL_ADC_ErrorCallback)
    i.HAL_ADC_Init                           0x08001568   Section        0  stm32f4xx_hal_adc.o(i.HAL_ADC_Init)
    i.HAL_ADC_MspInit                        0x080015d0   Section        0  adc.o(i.HAL_ADC_MspInit)
    i.HAL_ADC_Start_DMA                      0x08001778   Section        0  stm32f4xx_hal_adc.o(i.HAL_ADC_Start_DMA)
    i.HAL_CAN_Init                           0x080018fc   Section        0  stm32f4xx_hal_can.o(i.HAL_CAN_Init)
    i.HAL_CAN_MspInit                        0x08001a70   Section        0  can.o(i.HAL_CAN_MspInit)
    i.HAL_DMA_Abort_IT                       0x08001af8   Section        0  stm32f4xx_hal_dma.o(i.HAL_DMA_Abort_IT)
    i.HAL_DMA_IRQHandler                     0x08001b20   Section        0  stm32f4xx_hal_dma.o(i.HAL_DMA_IRQHandler)
    i.HAL_DMA_Init                           0x08001d60   Section        0  stm32f4xx_hal_dma.o(i.HAL_DMA_Init)
    i.HAL_DMA_Start_IT                       0x08001e4c   Section        0  stm32f4xx_hal_dma.o(i.HAL_DMA_Start_IT)
    i.HAL_GPIO_EXTI_Callback                 0x08001ede   Section        0  stm32f4xx_hal_gpio.o(i.HAL_GPIO_EXTI_Callback)
    i.HAL_GPIO_EXTI_IRQHandler               0x08001ee0   Section        0  stm32f4xx_hal_gpio.o(i.HAL_GPIO_EXTI_IRQHandler)
    i.HAL_GPIO_Init                          0x08001efc   Section        0  stm32f4xx_hal_gpio.o(i.HAL_GPIO_Init)
    i.HAL_GPIO_WritePin                      0x080020fc   Section        0  stm32f4xx_hal_gpio.o(i.HAL_GPIO_WritePin)
    i.HAL_GetTick                            0x08002108   Section        0  stm32f4xx_hal.o(i.HAL_GetTick)
    i.HAL_IncTick                            0x08002114   Section        0  stm32f4xx_hal.o(i.HAL_IncTick)
    i.HAL_Init                               0x0800212c   Section        0  stm32f4xx_hal.o(i.HAL_Init)
    i.HAL_InitTick                           0x08002168   Section        0  stm32f4xx_hal.o(i.HAL_InitTick)
    i.HAL_MspInit                            0x080021b4   Section        0  stm32f4xx_hal_msp.o(i.HAL_MspInit)
    i.HAL_NVIC_EnableIRQ                     0x080021fc   Section        0  stm32f4xx_hal_cortex.o(i.HAL_NVIC_EnableIRQ)
    i.HAL_NVIC_SetPriority                   0x0800221c   Section        0  stm32f4xx_hal_cortex.o(i.HAL_NVIC_SetPriority)
    i.HAL_NVIC_SetPriorityGrouping           0x08002298   Section        0  stm32f4xx_hal_cortex.o(i.HAL_NVIC_SetPriorityGrouping)
    i.HAL_RCC_ClockConfig                    0x080022c0   Section        0  stm32f4xx_hal_rcc.o(i.HAL_RCC_ClockConfig)
    i.HAL_RCC_GetSysClockFreq                0x08002444   Section        0  stm32f4xx_hal_rcc.o(i.HAL_RCC_GetSysClockFreq)
    i.HAL_RCC_OscConfig                      0x080024f4   Section        0  stm32f4xx_hal_rcc.o(i.HAL_RCC_OscConfig)
    i.HAL_SPI_Init                           0x0800297c   Section        0  stm32f4xx_hal_spi.o(i.HAL_SPI_Init)
    i.HAL_SPI_MspInit                        0x08002a08   Section        0  spi.o(i.HAL_SPI_MspInit)
    i.HAL_SPI_Receive                        0x08002b08   Section        0  stm32f4xx_hal_spi.o(i.HAL_SPI_Receive)
    i.HAL_SPI_Transmit                       0x08002c6c   Section        0  stm32f4xx_hal_spi.o(i.HAL_SPI_Transmit)
    i.HAL_SPI_TransmitReceive                0x08002e0e   Section        0  stm32f4xx_hal_spi.o(i.HAL_SPI_TransmitReceive)
    i.HAL_SYSTICK_Config                     0x08003038   Section        0  stm32f4xx_hal_cortex.o(i.HAL_SYSTICK_Config)
    i.HAL_TIMEx_BreakCallback                0x0800306c   Section        0  stm32f4xx_hal_tim_ex.o(i.HAL_TIMEx_BreakCallback)
    i.HAL_TIMEx_CommutCallback               0x0800306e   Section        0  stm32f4xx_hal_tim_ex.o(i.HAL_TIMEx_CommutCallback)
    i.HAL_TIMEx_ConfigBreakDeadTime          0x08003070   Section        0  stm32f4xx_hal_tim_ex.o(i.HAL_TIMEx_ConfigBreakDeadTime)
    i.HAL_TIMEx_MasterConfigSynchronization  0x080030e4   Section        0  stm32f4xx_hal_tim_ex.o(i.HAL_TIMEx_MasterConfigSynchronization)
    i.HAL_TIM_Base_Init                      0x08003198   Section        0  stm32f4xx_hal_tim.o(i.HAL_TIM_Base_Init)
    i.HAL_TIM_Base_MspInit                   0x080031cc   Section        0  tim.o(i.HAL_TIM_Base_MspInit)
    i.HAL_TIM_Base_Start_IT                  0x08003214   Section        0  stm32f4xx_hal_tim.o(i.HAL_TIM_Base_Start_IT)
    i.HAL_TIM_Encoder_Init                   0x0800323e   Section        0  stm32f4xx_hal_tim.o(i.HAL_TIM_Encoder_Init)
    i.HAL_TIM_Encoder_MspInit                0x080032ec   Section        0  tim.o(i.HAL_TIM_Encoder_MspInit)
    i.HAL_TIM_IC_CaptureCallback             0x080033e0   Section        0  stm32f4xx_hal_tim.o(i.HAL_TIM_IC_CaptureCallback)
    i.HAL_TIM_IRQHandler                     0x080033e2   Section        0  stm32f4xx_hal_tim.o(i.HAL_TIM_IRQHandler)
    i.HAL_TIM_MspPostInit                    0x08003578   Section        0  tim.o(i.HAL_TIM_MspPostInit)
    i.HAL_TIM_OC_DelayElapsedCallback        0x0800363c   Section        0  stm32f4xx_hal_tim.o(i.HAL_TIM_OC_DelayElapsedCallback)
    i.HAL_TIM_PWM_ConfigChannel              0x0800363e   Section        0  stm32f4xx_hal_tim.o(i.HAL_TIM_PWM_ConfigChannel)
    i.HAL_TIM_PWM_Init                       0x08003746   Section        0  stm32f4xx_hal_tim.o(i.HAL_TIM_PWM_Init)
    i.HAL_TIM_PWM_MspInit                    0x0800377c   Section        0  tim.o(i.HAL_TIM_PWM_MspInit)
    i.HAL_TIM_PWM_PulseFinishedCallback      0x080037c4   Section        0  stm32f4xx_hal_tim.o(i.HAL_TIM_PWM_PulseFinishedCallback)
    i.HAL_TIM_PWM_Start                      0x080037c8   Section        0  stm32f4xx_hal_tim.o(i.HAL_TIM_PWM_Start)
    i.HAL_TIM_PeriodElapsedCallback          0x08003820   Section        0  stm32f4xx_hal_tim.o(i.HAL_TIM_PeriodElapsedCallback)
    i.HAL_TIM_SlaveConfigSynchro             0x08003822   Section        0  stm32f4xx_hal_tim.o(i.HAL_TIM_SlaveConfigSynchro)
    i.HAL_TIM_TriggerCallback                0x0800388e   Section        0  stm32f4xx_hal_tim.o(i.HAL_TIM_TriggerCallback)
    i.HAL_UART_ErrorCallback                 0x08003890   Section        0  stm32f4xx_hal_uart.o(i.HAL_UART_ErrorCallback)
    i.HAL_UART_IRQHandler                    0x08003894   Section        0  stm32f4xx_hal_uart.o(i.HAL_UART_IRQHandler)
    i.HAL_UART_RxCpltCallback                0x080039e8   Section        0  stm32f4xx_hal_uart.o(i.HAL_UART_RxCpltCallback)
    i.HAL_UART_TxCpltCallback                0x080039ea   Section        0  stm32f4xx_hal_uart.o(i.HAL_UART_TxCpltCallback)
    i.HardFault_Handler                      0x080039ec   Section        0  stm32f4xx_it.o(i.HardFault_Handler)
    i.LEDConfigSetSysLedStatus               0x080039f0   Section        0  ledconfig.o(i.LEDConfigSetSysLedStatus)
    i.LEDConfig_Init                         0x08003a14   Section        0  ledconfig.o(i.LEDConfig_Init)
    i.LEDConfig_Loop                         0x08003a24   Section        0  ledconfig.o(i.LEDConfig_Loop)
    i.LEDRunCycle                            0x08003a34   Section        0  ledcontrol.o(i.LEDRunCycle)
    i.LEDToggle                              0x08003a84   Section        0  ledcontrol.o(i.LEDToggle)
    i.MCUDriverMain_Init                     0x08003a9c   Section        0  mcudrivermain.o(i.MCUDriverMain_Init)
    i.MCUDriverMain_Loop                     0x08003aaa   Section        0  mcudrivermain.o(i.MCUDriverMain_Loop)
    i.MX_ADC1_Init                           0x08003aac   Section        0  adc.o(i.MX_ADC1_Init)
    i.MX_ADC2_Init                           0x08003b4c   Section        0  adc.o(i.MX_ADC2_Init)
    i.MX_CAN1_Init                           0x08003bec   Section        0  can.o(i.MX_CAN1_Init)
    i.MX_DMA_Init                            0x08003c30   Section        0  dma.o(i.MX_DMA_Init)
    i.MX_GPIO_Init                           0x08003c78   Section        0  gpio.o(i.MX_GPIO_Init)
    i.MX_SPI1_Init                           0x08003e64   Section        0  spi.o(i.MX_SPI1_Init)
    i.MX_SPI2_Init                           0x08003eb0   Section        0  spi.o(i.MX_SPI2_Init)
    i.MX_TIM1_Init                           0x08003efc   Section        0  tim.o(i.MX_TIM1_Init)
    i.MX_TIM2_Init                           0x08003fd0   Section        0  tim.o(i.MX_TIM2_Init)
    i.MX_TIM3_Init                           0x08004048   Section        0  tim.o(i.MX_TIM3_Init)
    i.MX_TIM4_Init                           0x08004110   Section        0  tim.o(i.MX_TIM4_Init)
    i.MemManage_Handler                      0x0800418c   Section        0  stm32f4xx_it.o(i.MemManage_Handler)
    i.Motor1ADC1StartOnce                    0x08004190   Section        0  motor1adc1.o(i.Motor1ADC1StartOnce)
    i.Motor1ADC1ValueStorage                 0x080041a8   Section        0  motor1adc1.o(i.Motor1ADC1ValueStorage)
    i.Motor1EncoderZEXITCallback             0x080041d0   Section        0  motor1encodernvic.o(i.Motor1EncoderZEXITCallback)
    i.Motor1FOCConfig_Init                   0x080041f4   Section        0  motor1focconfig.o(i.Motor1FOCConfig_Init)
    i.Motor1FocControl                       0x08004234   Section        0  motor1focconfig.o(i.Motor1FocControl)
    i.Motor1GetAngle                         0x08004244   Section        0  motor1focconfig.o(i.Motor1GetAngle)
    i.Motor1GetPosition                      0x08004254   Section        0  motor1positionpidconfig.o(i.Motor1GetPosition)
    i.Motor1GetPreSpeed                      0x08004268   Section        0  motor1speedpidconfig.o(i.Motor1GetPreSpeed)
    i.Motor1GetSVPWMSector                   0x080042e8   Section        0  motor1svpwmconfig.o(i.Motor1GetSVPWMSector)
    i.Motor1PositionPIDConfigSetTar          0x080042f8   Section        0  motor1positionpidconfig.o(i.Motor1PositionPIDConfigSetTar)
    i.Motor1PositionPIDConfig_Init           0x08004318   Section        0  motor1positionpidconfig.o(i.Motor1PositionPIDConfig_Init)
    i.Motor1PositionPIDConfig_Loop           0x0800434c   Section        0  motor1positionpidconfig.o(i.Motor1PositionPIDConfig_Loop)
    i.Motor1SPI1ReadData                     0x0800435c   Section        0  motor1spi1.o(i.Motor1SPI1ReadData)
    i.Motor1SPI1SetCS                        0x08004378   Section        0  motor1spi1.o(i.Motor1SPI1SetCS)
    i.Motor1SPI1WriteData                    0x0800438c   Section        0  motor1spi1.o(i.Motor1SPI1WriteData)
    i.Motor1SetCurrent                       0x080043a4   Section        0  motor1speedpidconfig.o(i.Motor1SetCurrent)
    i.Motor1SetEnable                        0x080043c4   Section        0  motor1gpio.o(i.Motor1SetEnable)
    i.Motor1SetPosition                      0x080043dc   Section        0  motor1positionpidconfig.o(i.Motor1SetPosition)
    i.Motor1SetTarIDIQ                       0x080043f4   Section        0  motor1focconfig.o(i.Motor1SetTarIDIQ)
    i.Motor1SpeedPIDConfigSetTar             0x0800441c   Section        0  motor1speedpidconfig.o(i.Motor1SpeedPIDConfigSetTar)
    i.Motor1SpeedPIDConfig_Init              0x0800443c   Section        0  motor1speedpidconfig.o(i.Motor1SpeedPIDConfig_Init)
    i.Motor1SpeedPIDConfig_Loop              0x08004474   Section        0  motor1speedpidconfig.o(i.Motor1SpeedPIDConfig_Loop)
    i.Motor1SvpwmGenerate                    0x08004484   Section        0  motor1svpwmconfig.o(i.Motor1SvpwmGenerate)
    i.Motor1TIM1_Init                        0x080044ac   Section        0  motor1tim1pwm.o(i.Motor1TIM1_Init)
    i.Motor1TIM2EncoderGetCnt                0x080044fc   Section        0  motor1tim2encoder.o(i.Motor1TIM2EncoderGetCnt)
    i.Motor1TIM2EncoderSetCnt                0x08004554   Section        0  motor1tim2encoder.o(i.Motor1TIM2EncoderSetCnt)
    i.Motor1TLE5012BReadAngel                0x08004560   Section        0  motor1tle5012bconfig.o(i.Motor1TLE5012BReadAngel)
    i.Motor2ADC2StartOnce                    0x08004570   Section        0  motor2adc2.o(i.Motor2ADC2StartOnce)
    i.Motor2ADC2ValueStorage                 0x08004588   Section        0  motor2adc2.o(i.Motor2ADC2ValueStorage)
    i.Motor2EncoderZEXITCallback             0x080045b0   Section        0  motor2encodernvic.o(i.Motor2EncoderZEXITCallback)
    i.Motor2FOCConfig_Init                   0x080045d4   Section        0  motor2focconfig.o(i.Motor2FOCConfig_Init)
    i.Motor2FocControl                       0x08004614   Section        0  motor2focconfig.o(i.Motor2FocControl)
    i.Motor2GetAngle                         0x08004624   Section        0  motor2focconfig.o(i.Motor2GetAngle)
    i.Motor2GetPosition                      0x08004634   Section        0  motor2positionpidconfig.o(i.Motor2GetPosition)
    i.Motor2GetPreSpeed                      0x08004648   Section        0  motor2speedpidconfig.o(i.Motor2GetPreSpeed)
    i.Motor2GetSVPWMSector                   0x080046c8   Section        0  motor2svpwmconfig.o(i.Motor2GetSVPWMSector)
    i.Motor2PositionPIDConfigSetTar          0x080046d8   Section        0  motor2positionpidconfig.o(i.Motor2PositionPIDConfigSetTar)
    i.Motor2PositionPIDConfig_Init           0x080046f8   Section        0  motor2positionpidconfig.o(i.Motor2PositionPIDConfig_Init)
    i.Motor2PositionPIDConfig_Loop           0x0800472c   Section        0  motor2positionpidconfig.o(i.Motor2PositionPIDConfig_Loop)
    i.Motor2SPI2ReadData                     0x0800473c   Section        0  motor2spi2.o(i.Motor2SPI2ReadData)
    i.Motor2SPI2SetCS                        0x08004758   Section        0  motor2spi2.o(i.Motor2SPI2SetCS)
    i.Motor2SPI2WriteData                    0x08004770   Section        0  motor2spi2.o(i.Motor2SPI2WriteData)
    i.Motor2SetCurrent                       0x08004788   Section        0  motor2speedpidconfig.o(i.Motor2SetCurrent)
    i.Motor2SetEnable                        0x080047a8   Section        0  motor2gpio.o(i.Motor2SetEnable)
    i.Motor2SetPosition                      0x080047c0   Section        0  motor2positionpidconfig.o(i.Motor2SetPosition)
    i.Motor2SetTarIDIQ                       0x080047d8   Section        0  motor2focconfig.o(i.Motor2SetTarIDIQ)
    i.Motor2SpeedPIDConfigSetTar             0x08004800   Section        0  motor2speedpidconfig.o(i.Motor2SpeedPIDConfigSetTar)
    i.Motor2SpeedPIDConfig_Init              0x08004820   Section        0  motor2speedpidconfig.o(i.Motor2SpeedPIDConfig_Init)
    i.Motor2SpeedPIDConfig_Loop              0x08004858   Section        0  motor2speedpidconfig.o(i.Motor2SpeedPIDConfig_Loop)
    i.Motor2SvpwmGenerate                    0x08004868   Section        0  motor2svpwmconfig.o(i.Motor2SvpwmGenerate)
    i.Motor2TIM3_Init                        0x08004890   Section        0  motor2tim3pwm.o(i.Motor2TIM3_Init)
    i.Motor2TIM4EncoderGetCnt                0x080048e0   Section        0  motor2tim4encoder.o(i.Motor2TIM4EncoderGetCnt)
    i.Motor2TIM4EncoderSetCnt                0x08004938   Section        0  motor2tim4encoder.o(i.Motor2TIM4EncoderSetCnt)
    i.Motor2TLE5012BReadAngel                0x08004944   Section        0  motor2tle5012bconfig.o(i.Motor2TLE5012BReadAngel)
    i.NMI_Handler                            0x08004954   Section        0  stm32f4xx_it.o(i.NMI_Handler)
    i.ParkAntiTransform                      0x08004956   Section        0  foc.o(i.ParkAntiTransform)
    ParkAntiTransform                        0x08004957   Thumb Code   102  foc.o(i.ParkAntiTransform)
    i.ParkTransform                          0x080049bc   Section        0  foc.o(i.ParkTransform)
    ParkTransform                            0x080049bd   Thumb Code   106  foc.o(i.ParkTransform)
    i.PendSV_Handler                         0x08004a26   Section        0  stm32f4xx_it.o(i.PendSV_Handler)
    i.PerDriverMain_Init                     0x08004a28   Section        0  perdrivermain.o(i.PerDriverMain_Init)
    i.PerDriverMain_Loop                     0x08004a48   Section        0  perdrivermain.o(i.PerDriverMain_Loop)
    i.PositionPIDControl                     0x08004ae8   Section        0  positionpid.o(i.PositionPIDControl)
    PositionPIDControl                       0x08004ae9   Thumb Code   262  positionpid.o(i.PositionPIDControl)
    i.PositionPIDCycle                       0x08004c00   Section        0  positionpid.o(i.PositionPIDCycle)
    i.ReadTLE5012BAngle                      0x08004c48   Section        0  tle5012b.o(i.ReadTLE5012BAngle)
    i.RingBuffer_De                          0x08004cc8   Section        0  ringbuffer.o(i.RingBuffer_De)
    i.RingBuffer_En                          0x08004d08   Section        0  ringbuffer.o(i.RingBuffer_En)
    i.RingBuffer_IsEmpty                     0x08004d48   Section        0  ringbuffer.o(i.RingBuffer_IsEmpty)
    i.RingBuffer_IsFull                      0x08004d5a   Section        0  ringbuffer.o(i.RingBuffer_IsFull)
    i.SPI_EndRxTransaction                   0x08004d78   Section        0  stm32f4xx_hal_spi.o(i.SPI_EndRxTransaction)
    SPI_EndRxTransaction                     0x08004d79   Thumb Code   148  stm32f4xx_hal_spi.o(i.SPI_EndRxTransaction)
    i.SPI_EndRxTxTransaction                 0x08004e0c   Section        0  stm32f4xx_hal_spi.o(i.SPI_EndRxTxTransaction)
    SPI_EndRxTxTransaction                   0x08004e0d   Thumb Code   100  stm32f4xx_hal_spi.o(i.SPI_EndRxTxTransaction)
    i.SPI_WaitFlagStateUntilTimeout          0x08004e78   Section        0  stm32f4xx_hal_spi.o(i.SPI_WaitFlagStateUntilTimeout)
    SPI_WaitFlagStateUntilTimeout            0x08004e79   Thumb Code   168  stm32f4xx_hal_spi.o(i.SPI_WaitFlagStateUntilTimeout)
    i.SVC_Handler                            0x08004f20   Section        0  stm32f4xx_it.o(i.SVC_Handler)
    i.SetCurrentPIDParams                    0x08004f22   Section        0  foc.o(i.SetCurrentPIDParams)
    i.SetCurrentPIDTar                       0x08004f44   Section        0  foc.o(i.SetCurrentPIDTar)
    i.SetFocEnable                           0x08004f4e   Section        0  foc.o(i.SetFocEnable)
    i.SetLEDFlashing                         0x08004f60   Section        0  ledcontrol.o(i.SetLEDFlashing)
    i.SetLEDOFF                              0x08004f6a   Section        0  ledcontrol.o(i.SetLEDOFF)
    i.SetLEDON                               0x08004f84   Section        0  ledcontrol.o(i.SetLEDON)
    i.SetLedLeave                            0x08004f94   Section        0  ledgpio.o(i.SetLedLeave)
    i.SetLedStatus                           0x08004fa8   Section        0  ledcontrol.o(i.SetLedStatus)
    i.SetMotor1ChannelAHighLeaveTime_us      0x08004fe8   Section        0  motor1tim1pwm.o(i.SetMotor1ChannelAHighLeaveTime_us)
    i.SetMotor1ChannelBHighLeaveTime_us      0x08005038   Section        0  motor1tim1pwm.o(i.SetMotor1ChannelBHighLeaveTime_us)
    i.SetMotor1ChannelCHighLeaveTime_us      0x08005088   Section        0  motor1tim1pwm.o(i.SetMotor1ChannelCHighLeaveTime_us)
    i.SetMotor2ChannelAHighLeaveTime_us      0x080050d8   Section        0  motor2tim3pwm.o(i.SetMotor2ChannelAHighLeaveTime_us)
    i.SetMotor2ChannelBHighLeaveTime_us      0x08005128   Section        0  motor2tim3pwm.o(i.SetMotor2ChannelBHighLeaveTime_us)
    i.SetMotor2ChannelCHighLeaveTime_us      0x08005178   Section        0  motor2tim3pwm.o(i.SetMotor2ChannelCHighLeaveTime_us)
    i.SetPositionPIDEnable                   0x080051c8   Section        0  positionpid.o(i.SetPositionPIDEnable)
    i.SetPositionPIDParams                   0x080051d4   Section        0  positionpid.o(i.SetPositionPIDParams)
    i.SetPositionPIDTar                      0x080051e2   Section        0  positionpid.o(i.SetPositionPIDTar)
    i.SetSpeedPIDEnable                      0x080051e8   Section        0  speedpid.o(i.SetSpeedPIDEnable)
    i.SetSpeedPIDParams                      0x080051f4   Section        0  speedpid.o(i.SetSpeedPIDParams)
    i.SetSpeedPIDTar                         0x08005202   Section        0  speedpid.o(i.SetSpeedPIDTar)
    i.SpeedPIDControl                        0x08005208   Section        0  speedpid.o(i.SpeedPIDControl)
    SpeedPIDControl                          0x08005209   Thumb Code   168  speedpid.o(i.SpeedPIDControl)
    i.SpeedPIDCycle                          0x080052b4   Section        0  speedpid.o(i.SpeedPIDCycle)
    i.SvpwmContorol                          0x080052fc   Section        0  svpwm.o(i.SvpwmContorol)
    i.SvpwmGenerate                          0x0800532c   Section        0  svpwm.o(i.SvpwmGenerate)
    i.SvpwmSectorJudgment                    0x0800544c   Section        0  svpwm.o(i.SvpwmSectorJudgment)
    i.SysTick_Handler                        0x08005524   Section        0  stm32f4xx_it.o(i.SysTick_Handler)
    i.SystemClock_Config                     0x08005564   Section        0  main.o(i.SystemClock_Config)
    i.SystemInit                             0x08005618   Section        0  system_stm32f4xx.o(i.SystemInit)
    i.TIM1_UP_TIM10_IRQHandler               0x08005634   Section        0  stm32f4xx_it.o(i.TIM1_UP_TIM10_IRQHandler)
    i.TIM3_IRQHandler                        0x08005654   Section        0  stm32f4xx_it.o(i.TIM3_IRQHandler)
    i.TIM_Base_SetConfig                     0x08005674   Section        0  stm32f4xx_hal_tim.o(i.TIM_Base_SetConfig)
    i.TIM_CCxChannelCmd                      0x0800574c   Section        0  stm32f4xx_hal_tim.o(i.TIM_CCxChannelCmd)
    i.TIM_ETR_SetConfig                      0x0800576e   Section        0  stm32f4xx_hal_tim.o(i.TIM_ETR_SetConfig)
    i.TIM_OC1_SetConfig                      0x08005784   Section        0  stm32f4xx_hal_tim.o(i.TIM_OC1_SetConfig)
    TIM_OC1_SetConfig                        0x08005785   Thumb Code   104  stm32f4xx_hal_tim.o(i.TIM_OC1_SetConfig)
    i.TIM_OC2_SetConfig                      0x080057f4   Section        0  stm32f4xx_hal_tim.o(i.TIM_OC2_SetConfig)
    i.TIM_OC3_SetConfig                      0x08005870   Section        0  stm32f4xx_hal_tim.o(i.TIM_OC3_SetConfig)
    TIM_OC3_SetConfig                        0x08005871   Thumb Code   112  stm32f4xx_hal_tim.o(i.TIM_OC3_SetConfig)
    i.TIM_OC4_SetConfig                      0x080058e8   Section        0  stm32f4xx_hal_tim.o(i.TIM_OC4_SetConfig)
    TIM_OC4_SetConfig                        0x080058e9   Thumb Code    74  stm32f4xx_hal_tim.o(i.TIM_OC4_SetConfig)
    i.TIM_SlaveTimer_SetConfig               0x0800593c   Section        0  stm32f4xx_hal_tim.o(i.TIM_SlaveTimer_SetConfig)
    TIM_SlaveTimer_SetConfig                 0x0800593d   Thumb Code   170  stm32f4xx_hal_tim.o(i.TIM_SlaveTimer_SetConfig)
    i.TIM_TI1_ConfigInputStage               0x080059e6   Section        0  stm32f4xx_hal_tim.o(i.TIM_TI1_ConfigInputStage)
    TIM_TI1_ConfigInputStage                 0x080059e7   Thumb Code    38  stm32f4xx_hal_tim.o(i.TIM_TI1_ConfigInputStage)
    i.TIM_TI2_ConfigInputStage               0x08005a0c   Section        0  stm32f4xx_hal_tim.o(i.TIM_TI2_ConfigInputStage)
    TIM_TI2_ConfigInputStage                 0x08005a0d   Thumb Code    40  stm32f4xx_hal_tim.o(i.TIM_TI2_ConfigInputStage)
    i.UART_DMAAbortOnError                   0x08005a34   Section        0  stm32f4xx_hal_uart.o(i.UART_DMAAbortOnError)
    UART_DMAAbortOnError                     0x08005a35   Thumb Code    20  stm32f4xx_hal_uart.o(i.UART_DMAAbortOnError)
    i.UART_EndRxTransfer                     0x08005a48   Section        0  stm32f4xx_hal_uart.o(i.UART_EndRxTransfer)
    UART_EndRxTransfer                       0x08005a49   Thumb Code    32  stm32f4xx_hal_uart.o(i.UART_EndRxTransfer)
    i.UART_EndTransmit_IT                    0x08005a68   Section        0  stm32f4xx_hal_uart.o(i.UART_EndTransmit_IT)
    UART_EndTransmit_IT                      0x08005a69   Thumb Code    32  stm32f4xx_hal_uart.o(i.UART_EndTransmit_IT)
    i.UART_Receive_IT                        0x08005a88   Section        0  stm32f4xx_hal_uart.o(i.UART_Receive_IT)
    UART_Receive_IT                          0x08005a89   Thumb Code   166  stm32f4xx_hal_uart.o(i.UART_Receive_IT)
    i.UART_Transmit_IT                       0x08005b2e   Section        0  stm32f4xx_hal_uart.o(i.UART_Transmit_IT)
    UART_Transmit_IT                         0x08005b2f   Thumb Code   104  stm32f4xx_hal_uart.o(i.UART_Transmit_IT)
    i.USART1_IRQHandler                      0x08005b98   Section        0  stm32f4xx_it.o(i.USART1_IRQHandler)
    i.Uart1_IT_Handle                        0x08005bac   Section        0  uart1.o(i.Uart1_IT_Handle)
    i.UsageFault_Handler                     0x08005c24   Section        0  stm32f4xx_it.o(i.UsageFault_Handler)
    i.__NVIC_GetPriorityGrouping             0x08005c28   Section        0  stm32f4xx_hal_cortex.o(i.__NVIC_GetPriorityGrouping)
    __NVIC_GetPriorityGrouping               0x08005c29   Thumb Code    10  stm32f4xx_hal_cortex.o(i.__NVIC_GetPriorityGrouping)
    i.__NVIC_SetPriority                     0x08005c38   Section        0  stm32f4xx_hal_cortex.o(i.__NVIC_SetPriority)
    __NVIC_SetPriority                       0x08005c39   Thumb Code    32  stm32f4xx_hal_cortex.o(i.__NVIC_SetPriority)
    i.__hardfp_fabs                          0x08005c60   Section        0  fabs.o(i.__hardfp_fabs)
    i.__scatterload_copy                     0x08005c74   Section       14  handlers.o(i.__scatterload_copy)
    i.__scatterload_null                     0x08005c82   Section        2  handlers.o(i.__scatterload_null)
    i.__scatterload_zeroinit                 0x08005c84   Section       14  handlers.o(i.__scatterload_zeroinit)
    i.main                                   0x08005c92   Section        0  main.o(i.main)
    i.rt_hw_us_delay                         0x08005cd4   Section        0  timer.o(i.rt_hw_us_delay)
    .constdata                               0x08005d14   Section        8  stm32f4xx_hal_dma.o(.constdata)
    flagBitshiftOffset                       0x08005d14   Data           8  stm32f4xx_hal_dma.o(.constdata)
    .constdata                               0x08005d1c   Section       24  system_stm32f4xx.o(.constdata)
    .constdata                               0x08005d34   Section     2052  arm_common_tables.o(.constdata)
    .data                                    0x20000000   Section        9  stm32f4xx_hal.o(.data)
    .data                                    0x2000000c   Section        4  system_stm32f4xx.o(.data)
    .data                                    0x20000010   Section        8  motor1encodernvic.o(.data)
    .data                                    0x20000018   Section        8  motor1tim2encoder.o(.data)
    .data                                    0x20000020   Section        8  motor2encodernvic.o(.data)
    .data                                    0x20000028   Section        8  motor2tim4encoder.o(.data)
    .data                                    0x20000030   Section        4  timer.o(.data)
    .data                                    0x20000034   Section       56  uart1.o(.data)
    .data                                    0x2000006c   Section       16  perdrivermain.o(.data)
    last_exec_ms                             0x20000074   Data           4  perdrivermain.o(.data)
    last_exec_ms                             0x20000078   Data           4  perdrivermain.o(.data)
    .data                                    0x2000007c   Section       20  ledconfig.o(.data)
    .data                                    0x20000090   Section       20  motor1tle5012bconfig.o(.data)
    .data                                    0x200000a4   Section       76  motor1svpwmconfig.o(.data)
    .data                                    0x200000f0   Section      156  motor1focconfig.o(.data)
    .data                                    0x2000018c   Section       68  motor1speedpidconfig.o(.data)
    angle                                    0x200001c8   Data           4  motor1speedpidconfig.o(.data)
    lastAngle                                0x200001cc   Data           4  motor1speedpidconfig.o(.data)
    .data                                    0x200001d0   Section       60  motor1positionpidconfig.o(.data)
    .data                                    0x2000020c   Section       20  motor2tle5012bconfig.o(.data)
    .data                                    0x20000220   Section       76  motor2svpwmconfig.o(.data)
    .data                                    0x2000026c   Section      156  motor2focconfig.o(.data)
    .data                                    0x20000308   Section       68  motor2speedpidconfig.o(.data)
    angle                                    0x20000344   Data           4  motor2speedpidconfig.o(.data)
    lastAngle                                0x20000348   Data           4  motor2speedpidconfig.o(.data)
    .data                                    0x2000034c   Section       60  motor2positionpidconfig.o(.data)
    .data                                    0x20000388   Section        4  ledcontrol.o(.data)
    .data                                    0x2000038c   Section        4  positionpid.o(.data)
    .data                                    0x20000390   Section        4  speedpid.o(.data)
    .bss                                     0x20000394   Section      336  adc.o(.bss)
    .bss                                     0x200004e4   Section       40  can.o(.bss)
    .bss                                     0x2000050c   Section      176  spi.o(.bss)
    .bss                                     0x200005bc   Section      256  tim.o(.bss)
    .bss                                     0x200006bc   Section       64  usart.o(.bss)
    .bss                                     0x200006fc   Section       36  motor1adc1.o(.bss)
    .bss                                     0x20000720   Section       36  motor2adc2.o(.bss)
    .bss                                     0x20000744   Section     1000  uart1.o(.bss)
    STACK                                    0x20000b30   Section     1024  startup_stm32f407xx.o(STACK)

    Global Symbols

    Symbol Name                              Value     Ov Type        Size  Object(Section)

    BuildAttributes$$THM_ISAv4$E$P$D$K$B$S$7EM$VFPi3$EXTD16$VFPS$VFMA$PE$A:L22UL41UL21$X:L11$S22US41US21$IEEE1$IW$USESV6$~STKCKD$USESV7$~SHL$OTIME$ROPI$IEEEX$EBA8$MICROLIB$REQ8$PRES8$EABIv2 0x00000000   Number         0  anon$$obj.o ABSOLUTE
    __ARM_use_no_argv                        0x00000000   Number         0  main.o ABSOLUTE
    _printf_a                                0x00000000   Number         0  stubs.o ABSOLUTE
    _printf_c                                0x00000000   Number         0  stubs.o ABSOLUTE
    _printf_charcount                        0x00000000   Number         0  stubs.o ABSOLUTE
    _printf_d                                0x00000000   Number         0  stubs.o ABSOLUTE
    _printf_e                                0x00000000   Number         0  stubs.o ABSOLUTE
    _printf_f                                0x00000000   Number         0  stubs.o ABSOLUTE
    _printf_flags                            0x00000000   Number         0  stubs.o ABSOLUTE
    _printf_fp_dec                           0x00000000   Number         0  stubs.o ABSOLUTE
    _printf_fp_hex                           0x00000000   Number         0  stubs.o ABSOLUTE
    _printf_g                                0x00000000   Number         0  stubs.o ABSOLUTE
    _printf_i                                0x00000000   Number         0  stubs.o ABSOLUTE
    _printf_int_dec                          0x00000000   Number         0  stubs.o ABSOLUTE
    _printf_l                                0x00000000   Number         0  stubs.o ABSOLUTE
    _printf_lc                               0x00000000   Number         0  stubs.o ABSOLUTE
    _printf_ll                               0x00000000   Number         0  stubs.o ABSOLUTE
    _printf_lld                              0x00000000   Number         0  stubs.o ABSOLUTE
    _printf_lli                              0x00000000   Number         0  stubs.o ABSOLUTE
    _printf_llo                              0x00000000   Number         0  stubs.o ABSOLUTE
    _printf_llu                              0x00000000   Number         0  stubs.o ABSOLUTE
    _printf_llx                              0x00000000   Number         0  stubs.o ABSOLUTE
    _printf_longlong_dec                     0x00000000   Number         0  stubs.o ABSOLUTE
    _printf_longlong_hex                     0x00000000   Number         0  stubs.o ABSOLUTE
    _printf_longlong_oct                     0x00000000   Number         0  stubs.o ABSOLUTE
    _printf_ls                               0x00000000   Number         0  stubs.o ABSOLUTE
    _printf_mbtowc                           0x00000000   Number         0  stubs.o ABSOLUTE
    _printf_n                                0x00000000   Number         0  stubs.o ABSOLUTE
    _printf_o                                0x00000000   Number         0  stubs.o ABSOLUTE
    _printf_p                                0x00000000   Number         0  stubs.o ABSOLUTE
    _printf_percent                          0x00000000   Number         0  stubs.o ABSOLUTE
    _printf_pre_padding                      0x00000000   Number         0  stubs.o ABSOLUTE
    _printf_return_value                     0x00000000   Number         0  stubs.o ABSOLUTE
    _printf_s                                0x00000000   Number         0  stubs.o ABSOLUTE
    _printf_sizespec                         0x00000000   Number         0  stubs.o ABSOLUTE
    _printf_str                              0x00000000   Number         0  stubs.o ABSOLUTE
    _printf_truncate_signed                  0x00000000   Number         0  stubs.o ABSOLUTE
    _printf_truncate_unsigned                0x00000000   Number         0  stubs.o ABSOLUTE
    _printf_u                                0x00000000   Number         0  stubs.o ABSOLUTE
    _printf_wc                               0x00000000   Number         0  stubs.o ABSOLUTE
    _printf_wctomb                           0x00000000   Number         0  stubs.o ABSOLUTE
    _printf_widthprec                        0x00000000   Number         0  stubs.o ABSOLUTE
    _printf_x                                0x00000000   Number         0  stubs.o ABSOLUTE
    __arm_fini_                               - Undefined Weak Reference
    __cpp_initialize__aeabi_                  - Undefined Weak Reference
    __cxa_finalize                            - Undefined Weak Reference
    _clock_init                               - Undefined Weak Reference
    _microlib_exit                            - Undefined Weak Reference
    __Vectors_Size                           0x00000188   Number         0  startup_stm32f407xx.o ABSOLUTE
    __Vectors                                0x08000000   Data           4  startup_stm32f407xx.o(RESET)
    __Vectors_End                            0x08000188   Data           0  startup_stm32f407xx.o(RESET)
    __main                                   0x08000189   Thumb Code     0  entry.o(.ARM.Collect$$$$00000000)
    _main_stk                                0x08000189   Thumb Code     0  entry2.o(.ARM.Collect$$$$00000001)
    _main_scatterload                        0x0800018d   Thumb Code     0  entry5.o(.ARM.Collect$$$$00000004)
    __main_after_scatterload                 0x08000191   Thumb Code     0  entry5.o(.ARM.Collect$$$$00000004)
    _main_clock                              0x08000191   Thumb Code     0  entry7b.o(.ARM.Collect$$$$00000008)
    _main_cpp_init                           0x08000191   Thumb Code     0  entry8b.o(.ARM.Collect$$$$0000000A)
    _main_init                               0x08000191   Thumb Code     0  entry9a.o(.ARM.Collect$$$$0000000B)
    __rt_lib_shutdown_fini                   0x08000199   Thumb Code     0  entry12b.o(.ARM.Collect$$$$0000000E)
    __rt_final_cpp                           0x0800019d   Thumb Code     0  entry10a.o(.ARM.Collect$$$$0000000F)
    __rt_final_exit                          0x0800019d   Thumb Code     0  entry11a.o(.ARM.Collect$$$$00000011)
    Reset_Handler                            0x080001a1   Thumb Code     8  startup_stm32f407xx.o(.text)
    ADC_IRQHandler                           0x080001bb   Thumb Code     0  startup_stm32f407xx.o(.text)
    CAN1_RX0_IRQHandler                      0x080001bb   Thumb Code     0  startup_stm32f407xx.o(.text)
    CAN1_RX1_IRQHandler                      0x080001bb   Thumb Code     0  startup_stm32f407xx.o(.text)
    CAN1_SCE_IRQHandler                      0x080001bb   Thumb Code     0  startup_stm32f407xx.o(.text)
    CAN1_TX_IRQHandler                       0x080001bb   Thumb Code     0  startup_stm32f407xx.o(.text)
    CAN2_RX0_IRQHandler                      0x080001bb   Thumb Code     0  startup_stm32f407xx.o(.text)
    CAN2_RX1_IRQHandler                      0x080001bb   Thumb Code     0  startup_stm32f407xx.o(.text)
    CAN2_SCE_IRQHandler                      0x080001bb   Thumb Code     0  startup_stm32f407xx.o(.text)
    CAN2_TX_IRQHandler                       0x080001bb   Thumb Code     0  startup_stm32f407xx.o(.text)
    DCMI_IRQHandler                          0x080001bb   Thumb Code     0  startup_stm32f407xx.o(.text)
    DMA1_Stream0_IRQHandler                  0x080001bb   Thumb Code     0  startup_stm32f407xx.o(.text)
    DMA1_Stream1_IRQHandler                  0x080001bb   Thumb Code     0  startup_stm32f407xx.o(.text)
    DMA1_Stream2_IRQHandler                  0x080001bb   Thumb Code     0  startup_stm32f407xx.o(.text)
    DMA1_Stream3_IRQHandler                  0x080001bb   Thumb Code     0  startup_stm32f407xx.o(.text)
    DMA1_Stream4_IRQHandler                  0x080001bb   Thumb Code     0  startup_stm32f407xx.o(.text)
    DMA1_Stream5_IRQHandler                  0x080001bb   Thumb Code     0  startup_stm32f407xx.o(.text)
    DMA1_Stream6_IRQHandler                  0x080001bb   Thumb Code     0  startup_stm32f407xx.o(.text)
    DMA1_Stream7_IRQHandler                  0x080001bb   Thumb Code     0  startup_stm32f407xx.o(.text)
    DMA2_Stream1_IRQHandler                  0x080001bb   Thumb Code     0  startup_stm32f407xx.o(.text)
    DMA2_Stream3_IRQHandler                  0x080001bb   Thumb Code     0  startup_stm32f407xx.o(.text)
    DMA2_Stream4_IRQHandler                  0x080001bb   Thumb Code     0  startup_stm32f407xx.o(.text)
    DMA2_Stream5_IRQHandler                  0x080001bb   Thumb Code     0  startup_stm32f407xx.o(.text)
    DMA2_Stream6_IRQHandler                  0x080001bb   Thumb Code     0  startup_stm32f407xx.o(.text)
    DMA2_Stream7_IRQHandler                  0x080001bb   Thumb Code     0  startup_stm32f407xx.o(.text)
    ETH_IRQHandler                           0x080001bb   Thumb Code     0  startup_stm32f407xx.o(.text)
    ETH_WKUP_IRQHandler                      0x080001bb   Thumb Code     0  startup_stm32f407xx.o(.text)
    EXTI0_IRQHandler                         0x080001bb   Thumb Code     0  startup_stm32f407xx.o(.text)
    EXTI1_IRQHandler                         0x080001bb   Thumb Code     0  startup_stm32f407xx.o(.text)
    EXTI3_IRQHandler                         0x080001bb   Thumb Code     0  startup_stm32f407xx.o(.text)
    EXTI4_IRQHandler                         0x080001bb   Thumb Code     0  startup_stm32f407xx.o(.text)
    EXTI9_5_IRQHandler                       0x080001bb   Thumb Code     0  startup_stm32f407xx.o(.text)
    FLASH_IRQHandler                         0x080001bb   Thumb Code     0  startup_stm32f407xx.o(.text)
    FMC_IRQHandler                           0x080001bb   Thumb Code     0  startup_stm32f407xx.o(.text)
    FPU_IRQHandler                           0x080001bb   Thumb Code     0  startup_stm32f407xx.o(.text)
    HASH_RNG_IRQHandler                      0x080001bb   Thumb Code     0  startup_stm32f407xx.o(.text)
    I2C1_ER_IRQHandler                       0x080001bb   Thumb Code     0  startup_stm32f407xx.o(.text)
    I2C1_EV_IRQHandler                       0x080001bb   Thumb Code     0  startup_stm32f407xx.o(.text)
    I2C2_ER_IRQHandler                       0x080001bb   Thumb Code     0  startup_stm32f407xx.o(.text)
    I2C2_EV_IRQHandler                       0x080001bb   Thumb Code     0  startup_stm32f407xx.o(.text)
    I2C3_ER_IRQHandler                       0x080001bb   Thumb Code     0  startup_stm32f407xx.o(.text)
    I2C3_EV_IRQHandler                       0x080001bb   Thumb Code     0  startup_stm32f407xx.o(.text)
    OTG_FS_IRQHandler                        0x080001bb   Thumb Code     0  startup_stm32f407xx.o(.text)
    OTG_FS_WKUP_IRQHandler                   0x080001bb   Thumb Code     0  startup_stm32f407xx.o(.text)
    OTG_HS_EP1_IN_IRQHandler                 0x080001bb   Thumb Code     0  startup_stm32f407xx.o(.text)
    OTG_HS_EP1_OUT_IRQHandler                0x080001bb   Thumb Code     0  startup_stm32f407xx.o(.text)
    OTG_HS_IRQHandler                        0x080001bb   Thumb Code     0  startup_stm32f407xx.o(.text)
    OTG_HS_WKUP_IRQHandler                   0x080001bb   Thumb Code     0  startup_stm32f407xx.o(.text)
    PVD_IRQHandler                           0x080001bb   Thumb Code     0  startup_stm32f407xx.o(.text)
    RCC_IRQHandler                           0x080001bb   Thumb Code     0  startup_stm32f407xx.o(.text)
    RTC_Alarm_IRQHandler                     0x080001bb   Thumb Code     0  startup_stm32f407xx.o(.text)
    RTC_WKUP_IRQHandler                      0x080001bb   Thumb Code     0  startup_stm32f407xx.o(.text)
    SDIO_IRQHandler                          0x080001bb   Thumb Code     0  startup_stm32f407xx.o(.text)
    SPI1_IRQHandler                          0x080001bb   Thumb Code     0  startup_stm32f407xx.o(.text)
    SPI2_IRQHandler                          0x080001bb   Thumb Code     0  startup_stm32f407xx.o(.text)
    SPI3_IRQHandler                          0x080001bb   Thumb Code     0  startup_stm32f407xx.o(.text)
    TAMP_STAMP_IRQHandler                    0x080001bb   Thumb Code     0  startup_stm32f407xx.o(.text)
    TIM1_BRK_TIM9_IRQHandler                 0x080001bb   Thumb Code     0  startup_stm32f407xx.o(.text)
    TIM1_CC_IRQHandler                       0x080001bb   Thumb Code     0  startup_stm32f407xx.o(.text)
    TIM1_TRG_COM_TIM11_IRQHandler            0x080001bb   Thumb Code     0  startup_stm32f407xx.o(.text)
    TIM2_IRQHandler                          0x080001bb   Thumb Code     0  startup_stm32f407xx.o(.text)
    TIM4_IRQHandler                          0x080001bb   Thumb Code     0  startup_stm32f407xx.o(.text)
    TIM5_IRQHandler                          0x080001bb   Thumb Code     0  startup_stm32f407xx.o(.text)
    TIM6_DAC_IRQHandler                      0x080001bb   Thumb Code     0  startup_stm32f407xx.o(.text)
    TIM7_IRQHandler                          0x080001bb   Thumb Code     0  startup_stm32f407xx.o(.text)
    TIM8_BRK_TIM12_IRQHandler                0x080001bb   Thumb Code     0  startup_stm32f407xx.o(.text)
    TIM8_CC_IRQHandler                       0x080001bb   Thumb Code     0  startup_stm32f407xx.o(.text)
    TIM8_TRG_COM_TIM14_IRQHandler            0x080001bb   Thumb Code     0  startup_stm32f407xx.o(.text)
    TIM8_UP_TIM13_IRQHandler                 0x080001bb   Thumb Code     0  startup_stm32f407xx.o(.text)
    UART4_IRQHandler                         0x080001bb   Thumb Code     0  startup_stm32f407xx.o(.text)
    UART5_IRQHandler                         0x080001bb   Thumb Code     0  startup_stm32f407xx.o(.text)
    USART2_IRQHandler                        0x080001bb   Thumb Code     0  startup_stm32f407xx.o(.text)
    USART3_IRQHandler                        0x080001bb   Thumb Code     0  startup_stm32f407xx.o(.text)
    USART6_IRQHandler                        0x080001bb   Thumb Code     0  startup_stm32f407xx.o(.text)
    WWDG_IRQHandler                          0x080001bb   Thumb Code     0  startup_stm32f407xx.o(.text)
    arm_cos_f32                              0x080001c5   Thumb Code   108  arm_cos_f32.o(.text)
    arm_sin_f32                              0x0800023d   Thumb Code   130  arm_sin_f32.o(.text)
    __aeabi_uldivmod                         0x080002d1   Thumb Code    98  uldiv.o(.text)
    __aeabi_memcpy                           0x08000333   Thumb Code    36  memcpya.o(.text)
    __aeabi_memcpy4                          0x08000333   Thumb Code     0  memcpya.o(.text)
    __aeabi_memcpy8                          0x08000333   Thumb Code     0  memcpya.o(.text)
    __aeabi_memset                           0x08000357   Thumb Code    14  memseta.o(.text)
    __aeabi_memset4                          0x08000357   Thumb Code     0  memseta.o(.text)
    __aeabi_memset8                          0x08000357   Thumb Code     0  memseta.o(.text)
    __aeabi_memclr                           0x08000365   Thumb Code     4  memseta.o(.text)
    __aeabi_memclr4                          0x08000365   Thumb Code     0  memseta.o(.text)
    __aeabi_memclr8                          0x08000365   Thumb Code     0  memseta.o(.text)
    _memset$wrapper                          0x08000369   Thumb Code    18  memseta.o(.text)
    __aeabi_dmul                             0x0800037b   Thumb Code   228  dmul.o(.text)
    __aeabi_i2d                              0x0800045f   Thumb Code    34  dflti.o(.text)
    __aeabi_f2d                              0x08000481   Thumb Code    38  f2d.o(.text)
    __aeabi_cdcmpeq                          0x080004a9   Thumb Code     0  cdcmple.o(.text)
    __aeabi_cdcmple                          0x080004a9   Thumb Code    48  cdcmple.o(.text)
    __aeabi_cdrcmple                         0x080004d9   Thumb Code    48  cdrcmple.o(.text)
    __aeabi_d2f                              0x08000509   Thumb Code    56  d2f.o(.text)
    __aeabi_llsl                             0x08000541   Thumb Code    30  llshl.o(.text)
    _ll_shift_l                              0x08000541   Thumb Code     0  llshl.o(.text)
    __aeabi_llsr                             0x0800055f   Thumb Code    32  llushr.o(.text)
    _ll_ushift_r                             0x0800055f   Thumb Code     0  llushr.o(.text)
    __I$use$fp                               0x0800057f   Thumb Code     0  iusefp.o(.text)
    _float_round                             0x0800057f   Thumb Code    18  fepilogue.o(.text)
    _float_epilogue                          0x08000591   Thumb Code    92  fepilogue.o(.text)
    _double_round                            0x080005ed   Thumb Code    30  depilogue.o(.text)
    _double_epilogue                         0x0800060b   Thumb Code   156  depilogue.o(.text)
    __scatterload                            0x080006a9   Thumb Code    28  init.o(.text)
    __scatterload_rt2                        0x080006a9   Thumb Code     0  init.o(.text)
    __decompress                             0x080006cd   Thumb Code     0  __dczerorl2.o(.text)
    __decompress1                            0x080006cd   Thumb Code    86  __dczerorl2.o(.text)
    APPMain_Init                             0x08000929   Thumb Code    16  appmain.o(i.APPMain_Init)
    APPMain_Loop                             0x08000939   Thumb Code    16  appmain.o(i.APPMain_Loop)
    AngleCalibrationFunc_Init                0x08000949   Thumb Code     2  anglecalibrationfunc.o(i.AngleCalibrationFunc_Init)
    BusFault_Handler                         0x0800094b   Thumb Code     4  stm32f4xx_it.o(i.BusFault_Handler)
    DMA2_Stream0_IRQHandler                  0x08000d0d   Thumb Code    18  stm32f4xx_it.o(i.DMA2_Stream0_IRQHandler)
    DMA2_Stream2_IRQHandler                  0x08000d25   Thumb Code    18  stm32f4xx_it.o(i.DMA2_Stream2_IRQHandler)
    DebugMon_Handler                         0x08000e47   Thumb Code     2  stm32f4xx_it.o(i.DebugMon_Handler)
    EXTI15_10_IRQHandler                     0x08000e49   Thumb Code    16  stm32f4xx_it.o(i.EXTI15_10_IRQHandler)
    EXTI2_IRQHandler                         0x08000e59   Thumb Code    14  stm32f4xx_it.o(i.EXTI2_IRQHandler)
    Error_Handler                            0x08000e67   Thumb Code     2  main.o(i.Error_Handler)
    FocContorl                               0x08000e69   Thumb Code    70  foc.o(i.FocContorl)
    FunctionMain_Init                        0x08000eaf   Thumb Code     8  functionmain.o(i.FunctionMain_Init)
    FunctionMain_Loop                        0x08000eb7   Thumb Code     2  functionmain.o(i.FunctionMain_Loop)
    GetFocAngle                              0x08000ef5   Thumb Code     6  foc.o(i.GetFocAngle)
    GetMotor1ADC1PhaseXValue                 0x08000efd   Thumb Code    76  motor1adc1.o(i.GetMotor1ADC1PhaseXValue)
    GetMotor1PreCurrent                      0x08000f55   Thumb Code   184  motor1focconfig.o(i.GetMotor1PreCurrent)
    GetMotor2ADC2PhaseXValue                 0x0800101d   Thumb Code    76  motor2adc2.o(i.GetMotor2ADC2PhaseXValue)
    GetMotor2PreCurrent                      0x08001075   Thumb Code   184  motor2focconfig.o(i.GetMotor2PreCurrent)
    GetSVPWMSector                           0x0800113d   Thumb Code     8  svpwm.o(i.GetSVPWMSector)
    GetVectorDuration                        0x08001145   Thumb Code   646  svpwm.o(i.GetVectorDuration)
    HAL_ADC_ConfigChannel                    0x080013d5   Thumb Code   380  stm32f4xx_hal_adc.o(i.HAL_ADC_ConfigChannel)
    HAL_ADC_ConvCpltCallback                 0x08001561   Thumb Code     2  stm32f4xx_hal_adc.o(i.HAL_ADC_ConvCpltCallback)
    HAL_ADC_ConvHalfCpltCallback             0x08001563   Thumb Code     2  stm32f4xx_hal_adc.o(i.HAL_ADC_ConvHalfCpltCallback)
    HAL_ADC_ErrorCallback                    0x08001565   Thumb Code     2  stm32f4xx_hal_adc.o(i.HAL_ADC_ErrorCallback)
    HAL_ADC_Init                             0x08001569   Thumb Code   100  stm32f4xx_hal_adc.o(i.HAL_ADC_Init)
    HAL_ADC_MspInit                          0x080015d1   Thumb Code   392  adc.o(i.HAL_ADC_MspInit)
    HAL_ADC_Start_DMA                        0x08001779   Thumb Code   352  stm32f4xx_hal_adc.o(i.HAL_ADC_Start_DMA)
    HAL_CAN_Init                             0x080018fd   Thumb Code   372  stm32f4xx_hal_can.o(i.HAL_CAN_Init)
    HAL_CAN_MspInit                          0x08001a71   Thumb Code   124  can.o(i.HAL_CAN_MspInit)
    HAL_DMA_Abort_IT                         0x08001af9   Thumb Code    40  stm32f4xx_hal_dma.o(i.HAL_DMA_Abort_IT)
    HAL_DMA_IRQHandler                       0x08001b21   Thumb Code   570  stm32f4xx_hal_dma.o(i.HAL_DMA_IRQHandler)
    HAL_DMA_Init                             0x08001d61   Thumb Code   232  stm32f4xx_hal_dma.o(i.HAL_DMA_Init)
    HAL_DMA_Start_IT                         0x08001e4d   Thumb Code   146  stm32f4xx_hal_dma.o(i.HAL_DMA_Start_IT)
    HAL_GPIO_EXTI_Callback                   0x08001edf   Thumb Code     2  stm32f4xx_hal_gpio.o(i.HAL_GPIO_EXTI_Callback)
    HAL_GPIO_EXTI_IRQHandler                 0x08001ee1   Thumb Code    24  stm32f4xx_hal_gpio.o(i.HAL_GPIO_EXTI_IRQHandler)
    HAL_GPIO_Init                            0x08001efd   Thumb Code   466  stm32f4xx_hal_gpio.o(i.HAL_GPIO_Init)
    HAL_GPIO_WritePin                        0x080020fd   Thumb Code    12  stm32f4xx_hal_gpio.o(i.HAL_GPIO_WritePin)
    HAL_GetTick                              0x08002109   Thumb Code     6  stm32f4xx_hal.o(i.HAL_GetTick)
    HAL_IncTick                              0x08002115   Thumb Code    16  stm32f4xx_hal.o(i.HAL_IncTick)
    HAL_Init                                 0x0800212d   Thumb Code    54  stm32f4xx_hal.o(i.HAL_Init)
    HAL_InitTick                             0x08002169   Thumb Code    64  stm32f4xx_hal.o(i.HAL_InitTick)
    HAL_MspInit                              0x080021b5   Thumb Code    68  stm32f4xx_hal_msp.o(i.HAL_MspInit)
    HAL_NVIC_EnableIRQ                       0x080021fd   Thumb Code    32  stm32f4xx_hal_cortex.o(i.HAL_NVIC_EnableIRQ)
    HAL_NVIC_SetPriority                     0x0800221d   Thumb Code   124  stm32f4xx_hal_cortex.o(i.HAL_NVIC_SetPriority)
    HAL_NVIC_SetPriorityGrouping             0x08002299   Thumb Code    32  stm32f4xx_hal_cortex.o(i.HAL_NVIC_SetPriorityGrouping)
    HAL_RCC_ClockConfig                      0x080022c1   Thumb Code   368  stm32f4xx_hal_rcc.o(i.HAL_RCC_ClockConfig)
    HAL_RCC_GetSysClockFreq                  0x08002445   Thumb Code   162  stm32f4xx_hal_rcc.o(i.HAL_RCC_GetSysClockFreq)
    HAL_RCC_OscConfig                        0x080024f5   Thumb Code  1152  stm32f4xx_hal_rcc.o(i.HAL_RCC_OscConfig)
    HAL_SPI_Init                             0x0800297d   Thumb Code   140  stm32f4xx_hal_spi.o(i.HAL_SPI_Init)
    HAL_SPI_MspInit                          0x08002a09   Thumb Code   234  spi.o(i.HAL_SPI_MspInit)
    HAL_SPI_Receive                          0x08002b09   Thumb Code   356  stm32f4xx_hal_spi.o(i.HAL_SPI_Receive)
    HAL_SPI_Transmit                         0x08002c6d   Thumb Code   418  stm32f4xx_hal_spi.o(i.HAL_SPI_Transmit)
    HAL_SPI_TransmitReceive                  0x08002e0f   Thumb Code   554  stm32f4xx_hal_spi.o(i.HAL_SPI_TransmitReceive)
    HAL_SYSTICK_Config                       0x08003039   Thumb Code    52  stm32f4xx_hal_cortex.o(i.HAL_SYSTICK_Config)
    HAL_TIMEx_BreakCallback                  0x0800306d   Thumb Code     2  stm32f4xx_hal_tim_ex.o(i.HAL_TIMEx_BreakCallback)
    HAL_TIMEx_CommutCallback                 0x0800306f   Thumb Code     2  stm32f4xx_hal_tim_ex.o(i.HAL_TIMEx_CommutCallback)
    HAL_TIMEx_ConfigBreakDeadTime            0x08003071   Thumb Code   116  stm32f4xx_hal_tim_ex.o(i.HAL_TIMEx_ConfigBreakDeadTime)
    HAL_TIMEx_MasterConfigSynchronization    0x080030e5   Thumb Code   150  stm32f4xx_hal_tim_ex.o(i.HAL_TIMEx_MasterConfigSynchronization)
    HAL_TIM_Base_Init                        0x08003199   Thumb Code    52  stm32f4xx_hal_tim.o(i.HAL_TIM_Base_Init)
    HAL_TIM_Base_MspInit                     0x080031cd   Thumb Code    62  tim.o(i.HAL_TIM_Base_MspInit)
    HAL_TIM_Base_Start_IT                    0x08003215   Thumb Code    42  stm32f4xx_hal_tim.o(i.HAL_TIM_Base_Start_IT)
    HAL_TIM_Encoder_Init                     0x0800323f   Thumb Code   174  stm32f4xx_hal_tim.o(i.HAL_TIM_Encoder_Init)
    HAL_TIM_Encoder_MspInit                  0x080032ed   Thumb Code   226  tim.o(i.HAL_TIM_Encoder_MspInit)
    HAL_TIM_IC_CaptureCallback               0x080033e1   Thumb Code     2  stm32f4xx_hal_tim.o(i.HAL_TIM_IC_CaptureCallback)
    HAL_TIM_IRQHandler                       0x080033e3   Thumb Code   406  stm32f4xx_hal_tim.o(i.HAL_TIM_IRQHandler)
    HAL_TIM_MspPostInit                      0x08003579   Thumb Code   168  tim.o(i.HAL_TIM_MspPostInit)
    HAL_TIM_OC_DelayElapsedCallback          0x0800363d   Thumb Code     2  stm32f4xx_hal_tim.o(i.HAL_TIM_OC_DelayElapsedCallback)
    HAL_TIM_PWM_ConfigChannel                0x0800363f   Thumb Code   264  stm32f4xx_hal_tim.o(i.HAL_TIM_PWM_ConfigChannel)
    HAL_TIM_PWM_Init                         0x08003747   Thumb Code    52  stm32f4xx_hal_tim.o(i.HAL_TIM_PWM_Init)
    HAL_TIM_PWM_MspInit                      0x0800377d   Thumb Code    62  tim.o(i.HAL_TIM_PWM_MspInit)
    HAL_TIM_PWM_PulseFinishedCallback        0x080037c5   Thumb Code     2  stm32f4xx_hal_tim.o(i.HAL_TIM_PWM_PulseFinishedCallback)
    HAL_TIM_PWM_Start                        0x080037c9   Thumb Code    80  stm32f4xx_hal_tim.o(i.HAL_TIM_PWM_Start)
    HAL_TIM_PeriodElapsedCallback            0x08003821   Thumb Code     2  stm32f4xx_hal_tim.o(i.HAL_TIM_PeriodElapsedCallback)
    HAL_TIM_SlaveConfigSynchro               0x08003823   Thumb Code   108  stm32f4xx_hal_tim.o(i.HAL_TIM_SlaveConfigSynchro)
    HAL_TIM_TriggerCallback                  0x0800388f   Thumb Code     2  stm32f4xx_hal_tim.o(i.HAL_TIM_TriggerCallback)
    HAL_UART_ErrorCallback                   0x08003891   Thumb Code     2  stm32f4xx_hal_uart.o(i.HAL_UART_ErrorCallback)
    HAL_UART_IRQHandler                      0x08003895   Thumb Code   336  stm32f4xx_hal_uart.o(i.HAL_UART_IRQHandler)
    HAL_UART_RxCpltCallback                  0x080039e9   Thumb Code     2  stm32f4xx_hal_uart.o(i.HAL_UART_RxCpltCallback)
    HAL_UART_TxCpltCallback                  0x080039eb   Thumb Code     2  stm32f4xx_hal_uart.o(i.HAL_UART_TxCpltCallback)
    HardFault_Handler                        0x080039ed   Thumb Code     4  stm32f4xx_it.o(i.HardFault_Handler)
    LEDConfigSetSysLedStatus                 0x080039f1   Thumb Code    30  ledconfig.o(i.LEDConfigSetSysLedStatus)
    LEDConfig_Init                           0x08003a15   Thumb Code    14  ledconfig.o(i.LEDConfig_Init)
    LEDConfig_Loop                           0x08003a25   Thumb Code    10  ledconfig.o(i.LEDConfig_Loop)
    LEDRunCycle                              0x08003a35   Thumb Code    70  ledcontrol.o(i.LEDRunCycle)
    LEDToggle                                0x08003a85   Thumb Code    24  ledcontrol.o(i.LEDToggle)
    MCUDriverMain_Init                       0x08003a9d   Thumb Code    14  mcudrivermain.o(i.MCUDriverMain_Init)
    MCUDriverMain_Loop                       0x08003aab   Thumb Code     2  mcudrivermain.o(i.MCUDriverMain_Loop)
    MX_ADC1_Init                             0x08003aad   Thumb Code   148  adc.o(i.MX_ADC1_Init)
    MX_ADC2_Init                             0x08003b4d   Thumb Code   148  adc.o(i.MX_ADC2_Init)
    MX_CAN1_Init                             0x08003bed   Thumb Code    60  can.o(i.MX_CAN1_Init)
    MX_DMA_Init                              0x08003c31   Thumb Code    68  dma.o(i.MX_DMA_Init)
    MX_GPIO_Init                             0x08003c79   Thumb Code   462  gpio.o(i.MX_GPIO_Init)
    MX_SPI1_Init                             0x08003e65   Thumb Code    66  spi.o(i.MX_SPI1_Init)
    MX_SPI2_Init                             0x08003eb1   Thumb Code    66  spi.o(i.MX_SPI2_Init)
    MX_TIM1_Init                             0x08003efd   Thumb Code   202  tim.o(i.MX_TIM1_Init)
    MX_TIM2_Init                             0x08003fd1   Thumb Code   116  tim.o(i.MX_TIM2_Init)
    MX_TIM3_Init                             0x08004049   Thumb Code   192  tim.o(i.MX_TIM3_Init)
    MX_TIM4_Init                             0x08004111   Thumb Code   114  tim.o(i.MX_TIM4_Init)
    MemManage_Handler                        0x0800418d   Thumb Code     4  stm32f4xx_it.o(i.MemManage_Handler)
    Motor1ADC1StartOnce                      0x08004191   Thumb Code    14  motor1adc1.o(i.Motor1ADC1StartOnce)
    Motor1ADC1ValueStorage                   0x080041a9   Thumb Code    34  motor1adc1.o(i.Motor1ADC1ValueStorage)
    Motor1EncoderZEXITCallback               0x080041d1   Thumb Code    32  motor1encodernvic.o(i.Motor1EncoderZEXITCallback)
    Motor1FOCConfig_Init                     0x080041f5   Thumb Code    48  motor1focconfig.o(i.Motor1FOCConfig_Init)
    Motor1FocControl                         0x08004235   Thumb Code    10  motor1focconfig.o(i.Motor1FocControl)
    Motor1GetAngle                           0x08004245   Thumb Code    10  motor1focconfig.o(i.Motor1GetAngle)
    Motor1GetPosition                        0x08004255   Thumb Code    16  motor1positionpidconfig.o(i.Motor1GetPosition)
    Motor1GetPreSpeed                        0x08004269   Thumb Code   108  motor1speedpidconfig.o(i.Motor1GetPreSpeed)
    Motor1GetSVPWMSector                     0x080042e9   Thumb Code    10  motor1svpwmconfig.o(i.Motor1GetSVPWMSector)
    Motor1PositionPIDConfigSetTar            0x080042f9   Thumb Code    26  motor1positionpidconfig.o(i.Motor1PositionPIDConfigSetTar)
    Motor1PositionPIDConfig_Init             0x08004319   Thumb Code    40  motor1positionpidconfig.o(i.Motor1PositionPIDConfig_Init)
    Motor1PositionPIDConfig_Loop             0x0800434d   Thumb Code    10  motor1positionpidconfig.o(i.Motor1PositionPIDConfig_Loop)
    Motor1SPI1ReadData                       0x0800435d   Thumb Code    22  motor1spi1.o(i.Motor1SPI1ReadData)
    Motor1SPI1SetCS                          0x08004379   Thumb Code    16  motor1spi1.o(i.Motor1SPI1SetCS)
    Motor1SPI1WriteData                      0x0800438d   Thumb Code    18  motor1spi1.o(i.Motor1SPI1WriteData)
    Motor1SetCurrent                         0x080043a5   Thumb Code    28  motor1speedpidconfig.o(i.Motor1SetCurrent)
    Motor1SetEnable                          0x080043c5   Thumb Code    18  motor1gpio.o(i.Motor1SetEnable)
    Motor1SetPosition                        0x080043dd   Thumb Code    24  motor1positionpidconfig.o(i.Motor1SetPosition)
    Motor1SetTarIDIQ                         0x080043f5   Thumb Code    34  motor1focconfig.o(i.Motor1SetTarIDIQ)
    Motor1SpeedPIDConfigSetTar               0x0800441d   Thumb Code    26  motor1speedpidconfig.o(i.Motor1SpeedPIDConfigSetTar)
    Motor1SpeedPIDConfig_Init                0x0800443d   Thumb Code    42  motor1speedpidconfig.o(i.Motor1SpeedPIDConfig_Init)
    Motor1SpeedPIDConfig_Loop                0x08004475   Thumb Code    10  motor1speedpidconfig.o(i.Motor1SpeedPIDConfig_Loop)
    Motor1SvpwmGenerate                      0x08004485   Thumb Code    34  motor1svpwmconfig.o(i.Motor1SvpwmGenerate)
    Motor1TIM1_Init                          0x080044ad   Thumb Code    72  motor1tim1pwm.o(i.Motor1TIM1_Init)
    Motor1TIM2EncoderGetCnt                  0x080044fd   Thumb Code    78  motor1tim2encoder.o(i.Motor1TIM2EncoderGetCnt)
    Motor1TIM2EncoderSetCnt                  0x08004555   Thumb Code     6  motor1tim2encoder.o(i.Motor1TIM2EncoderSetCnt)
    Motor1TLE5012BReadAngel                  0x08004561   Thumb Code    10  motor1tle5012bconfig.o(i.Motor1TLE5012BReadAngel)
    Motor2ADC2StartOnce                      0x08004571   Thumb Code    14  motor2adc2.o(i.Motor2ADC2StartOnce)
    Motor2ADC2ValueStorage                   0x08004589   Thumb Code    34  motor2adc2.o(i.Motor2ADC2ValueStorage)
    Motor2EncoderZEXITCallback               0x080045b1   Thumb Code    32  motor2encodernvic.o(i.Motor2EncoderZEXITCallback)
    Motor2FOCConfig_Init                     0x080045d5   Thumb Code    48  motor2focconfig.o(i.Motor2FOCConfig_Init)
    Motor2FocControl                         0x08004615   Thumb Code    10  motor2focconfig.o(i.Motor2FocControl)
    Motor2GetAngle                           0x08004625   Thumb Code    10  motor2focconfig.o(i.Motor2GetAngle)
    Motor2GetPosition                        0x08004635   Thumb Code    16  motor2positionpidconfig.o(i.Motor2GetPosition)
    Motor2GetPreSpeed                        0x08004649   Thumb Code   108  motor2speedpidconfig.o(i.Motor2GetPreSpeed)
    Motor2GetSVPWMSector                     0x080046c9   Thumb Code    10  motor2svpwmconfig.o(i.Motor2GetSVPWMSector)
    Motor2PositionPIDConfigSetTar            0x080046d9   Thumb Code    26  motor2positionpidconfig.o(i.Motor2PositionPIDConfigSetTar)
    Motor2PositionPIDConfig_Init             0x080046f9   Thumb Code    40  motor2positionpidconfig.o(i.Motor2PositionPIDConfig_Init)
    Motor2PositionPIDConfig_Loop             0x0800472d   Thumb Code    10  motor2positionpidconfig.o(i.Motor2PositionPIDConfig_Loop)
    Motor2SPI2ReadData                       0x0800473d   Thumb Code    22  motor2spi2.o(i.Motor2SPI2ReadData)
    Motor2SPI2SetCS                          0x08004759   Thumb Code    18  motor2spi2.o(i.Motor2SPI2SetCS)
    Motor2SPI2WriteData                      0x08004771   Thumb Code    18  motor2spi2.o(i.Motor2SPI2WriteData)
    Motor2SetCurrent                         0x08004789   Thumb Code    28  motor2speedpidconfig.o(i.Motor2SetCurrent)
    Motor2SetEnable                          0x080047a9   Thumb Code    18  motor2gpio.o(i.Motor2SetEnable)
    Motor2SetPosition                        0x080047c1   Thumb Code    24  motor2positionpidconfig.o(i.Motor2SetPosition)
    Motor2SetTarIDIQ                         0x080047d9   Thumb Code    34  motor2focconfig.o(i.Motor2SetTarIDIQ)
    Motor2SpeedPIDConfigSetTar               0x08004801   Thumb Code    26  motor2speedpidconfig.o(i.Motor2SpeedPIDConfigSetTar)
    Motor2SpeedPIDConfig_Init                0x08004821   Thumb Code    42  motor2speedpidconfig.o(i.Motor2SpeedPIDConfig_Init)
    Motor2SpeedPIDConfig_Loop                0x08004859   Thumb Code    10  motor2speedpidconfig.o(i.Motor2SpeedPIDConfig_Loop)
    Motor2SvpwmGenerate                      0x08004869   Thumb Code    34  motor2svpwmconfig.o(i.Motor2SvpwmGenerate)
    Motor2TIM3_Init                          0x08004891   Thumb Code    72  motor2tim3pwm.o(i.Motor2TIM3_Init)
    Motor2TIM4EncoderGetCnt                  0x080048e1   Thumb Code    78  motor2tim4encoder.o(i.Motor2TIM4EncoderGetCnt)
    Motor2TIM4EncoderSetCnt                  0x08004939   Thumb Code     6  motor2tim4encoder.o(i.Motor2TIM4EncoderSetCnt)
    Motor2TLE5012BReadAngel                  0x08004945   Thumb Code    10  motor2tle5012bconfig.o(i.Motor2TLE5012BReadAngel)
    NMI_Handler                              0x08004955   Thumb Code     2  stm32f4xx_it.o(i.NMI_Handler)
    PendSV_Handler                           0x08004a27   Thumb Code     2  stm32f4xx_it.o(i.PendSV_Handler)
    PerDriverMain_Init                       0x08004a29   Thumb Code    32  perdrivermain.o(i.PerDriverMain_Init)
    PerDriverMain_Loop                       0x08004a49   Thumb Code   142  perdrivermain.o(i.PerDriverMain_Loop)
    PositionPIDCycle                         0x08004c01   Thumb Code    64  positionpid.o(i.PositionPIDCycle)
    ReadTLE5012BAngle                        0x08004c49   Thumb Code   120  tle5012b.o(i.ReadTLE5012BAngle)
    RingBuffer_De                            0x08004cc9   Thumb Code    64  ringbuffer.o(i.RingBuffer_De)
    RingBuffer_En                            0x08004d09   Thumb Code    64  ringbuffer.o(i.RingBuffer_En)
    RingBuffer_IsEmpty                       0x08004d49   Thumb Code    18  ringbuffer.o(i.RingBuffer_IsEmpty)
    RingBuffer_IsFull                        0x08004d5b   Thumb Code    30  ringbuffer.o(i.RingBuffer_IsFull)
    SVC_Handler                              0x08004f21   Thumb Code     2  stm32f4xx_it.o(i.SVC_Handler)
    SetCurrentPIDParams                      0x08004f23   Thumb Code    34  foc.o(i.SetCurrentPIDParams)
    SetCurrentPIDTar                         0x08004f45   Thumb Code    10  foc.o(i.SetCurrentPIDTar)
    SetFocEnable                             0x08004f4f   Thumb Code    18  foc.o(i.SetFocEnable)
    SetLEDFlashing                           0x08004f61   Thumb Code    10  ledcontrol.o(i.SetLEDFlashing)
    SetLEDOFF                                0x08004f6b   Thumb Code    26  ledcontrol.o(i.SetLEDOFF)
    SetLEDON                                 0x08004f85   Thumb Code    16  ledcontrol.o(i.SetLEDON)
    SetLedLeave                              0x08004f95   Thumb Code    16  ledgpio.o(i.SetLedLeave)
    SetLedStatus                             0x08004fa9   Thumb Code    62  ledcontrol.o(i.SetLedStatus)
    SetMotor1ChannelAHighLeaveTime_us        0x08004fe9   Thumb Code    64  motor1tim1pwm.o(i.SetMotor1ChannelAHighLeaveTime_us)
    SetMotor1ChannelBHighLeaveTime_us        0x08005039   Thumb Code    64  motor1tim1pwm.o(i.SetMotor1ChannelBHighLeaveTime_us)
    SetMotor1ChannelCHighLeaveTime_us        0x08005089   Thumb Code    64  motor1tim1pwm.o(i.SetMotor1ChannelCHighLeaveTime_us)
    SetMotor2ChannelAHighLeaveTime_us        0x080050d9   Thumb Code    64  motor2tim3pwm.o(i.SetMotor2ChannelAHighLeaveTime_us)
    SetMotor2ChannelBHighLeaveTime_us        0x08005129   Thumb Code    64  motor2tim3pwm.o(i.SetMotor2ChannelBHighLeaveTime_us)
    SetMotor2ChannelCHighLeaveTime_us        0x08005179   Thumb Code    64  motor2tim3pwm.o(i.SetMotor2ChannelCHighLeaveTime_us)
    SetPositionPIDEnable                     0x080051c9   Thumb Code    12  positionpid.o(i.SetPositionPIDEnable)
    SetPositionPIDParams                     0x080051d5   Thumb Code    14  positionpid.o(i.SetPositionPIDParams)
    SetPositionPIDTar                        0x080051e3   Thumb Code     6  positionpid.o(i.SetPositionPIDTar)
    SetSpeedPIDEnable                        0x080051e9   Thumb Code    12  speedpid.o(i.SetSpeedPIDEnable)
    SetSpeedPIDParams                        0x080051f5   Thumb Code    14  speedpid.o(i.SetSpeedPIDParams)
    SetSpeedPIDTar                           0x08005203   Thumb Code     6  speedpid.o(i.SetSpeedPIDTar)
    SpeedPIDCycle                            0x080052b5   Thumb Code    64  speedpid.o(i.SpeedPIDCycle)
    SvpwmContorol                            0x080052fd   Thumb Code    48  svpwm.o(i.SvpwmContorol)
    SvpwmGenerate                            0x0800532d   Thumb Code   288  svpwm.o(i.SvpwmGenerate)
    SvpwmSectorJudgment                      0x0800544d   Thumb Code   210  svpwm.o(i.SvpwmSectorJudgment)
    SysTick_Handler                          0x08005525   Thumb Code    48  stm32f4xx_it.o(i.SysTick_Handler)
    SystemClock_Config                       0x08005565   Thumb Code   170  main.o(i.SystemClock_Config)
    SystemInit                               0x08005619   Thumb Code    24  system_stm32f4xx.o(i.SystemInit)
    TIM1_UP_TIM10_IRQHandler                 0x08005635   Thumb Code    28  stm32f4xx_it.o(i.TIM1_UP_TIM10_IRQHandler)
    TIM3_IRQHandler                          0x08005655   Thumb Code    28  stm32f4xx_it.o(i.TIM3_IRQHandler)
    TIM_Base_SetConfig                       0x08005675   Thumb Code   170  stm32f4xx_hal_tim.o(i.TIM_Base_SetConfig)
    TIM_CCxChannelCmd                        0x0800574d   Thumb Code    34  stm32f4xx_hal_tim.o(i.TIM_CCxChannelCmd)
    TIM_ETR_SetConfig                        0x0800576f   Thumb Code    22  stm32f4xx_hal_tim.o(i.TIM_ETR_SetConfig)
    TIM_OC2_SetConfig                        0x080057f5   Thumb Code   114  stm32f4xx_hal_tim.o(i.TIM_OC2_SetConfig)
    USART1_IRQHandler                        0x08005b99   Thumb Code    14  stm32f4xx_it.o(i.USART1_IRQHandler)
    Uart1_IT_Handle                          0x08005bad   Thumb Code   108  uart1.o(i.Uart1_IT_Handle)
    UsageFault_Handler                       0x08005c25   Thumb Code     4  stm32f4xx_it.o(i.UsageFault_Handler)
    __hardfp_fabs                            0x08005c61   Thumb Code    20  fabs.o(i.__hardfp_fabs)
    __scatterload_copy                       0x08005c75   Thumb Code    14  handlers.o(i.__scatterload_copy)
    __scatterload_null                       0x08005c83   Thumb Code     2  handlers.o(i.__scatterload_null)
    __scatterload_zeroinit                   0x08005c85   Thumb Code    14  handlers.o(i.__scatterload_zeroinit)
    main                                     0x08005c93   Thumb Code    64  main.o(i.main)
    rt_hw_us_delay                           0x08005cd5   Thumb Code    54  timer.o(i.rt_hw_us_delay)
    AHBPrescTable                            0x08005d1c   Data          16  system_stm32f4xx.o(.constdata)
    APBPrescTable                            0x08005d2c   Data           8  system_stm32f4xx.o(.constdata)
    sinTable_f32                             0x08005d34   Data        2052  arm_common_tables.o(.constdata)
    Region$$Table$$Base                      0x08006538   Number         0  anon$$obj.o(Region$$Table)
    Region$$Table$$Limit                     0x08006558   Number         0  anon$$obj.o(Region$$Table)
    uwTick                                   0x20000000   Data           4  stm32f4xx_hal.o(.data)
    uwTickPrio                               0x20000004   Data           4  stm32f4xx_hal.o(.data)
    uwTickFreq                               0x20000008   Data           1  stm32f4xx_hal.o(.data)
    SystemCoreClock                          0x2000000c   Data           4  system_stm32f4xx.o(.data)
    gMotor1EncoderCal                        0x20000010   Data           8  motor1encodernvic.o(.data)
    gMotor1Timer2Encoder                     0x20000018   Data           8  motor1tim2encoder.o(.data)
    gMotor2EncoderCal                        0x20000020   Data           8  motor2encodernvic.o(.data)
    gMotor2Timer4Encoder                     0x20000028   Data           8  motor2tim4encoder.o(.data)
    gMS_TimeCNT                              0x20000030   Data           4  timer.o(.data)
    gUart1_RX_RingBuffer                     0x20000034   Data          28  uart1.o(.data)
    gUart1_TX_RingBuffer                     0x20000050   Data          28  uart1.o(.data)
    currentflag                              0x2000006c   Data           1  perdrivermain.o(.data)
    speedflag                                0x2000006d   Data           1  perdrivermain.o(.data)
    positionflag                             0x2000006e   Data           1  perdrivermain.o(.data)
    angle                                    0x20000070   Data           2  perdrivermain.o(.data)
    gSysLed                                  0x2000007c   Data          20  ledconfig.o(.data)
    gMorot1Encoder                           0x20000090   Data          20  motor1tle5012bconfig.o(.data)
    gMotor1                                  0x200000a4   Data          76  motor1svpwmconfig.o(.data)
    gMotor1FOC                               0x200000f0   Data         156  motor1focconfig.o(.data)
    gMotor1SpeedPID                          0x2000018c   Data          60  motor1speedpidconfig.o(.data)
    gMotor1PositionPID                       0x200001d0   Data          60  motor1positionpidconfig.o(.data)
    gMorot2Encoder                           0x2000020c   Data          20  motor2tle5012bconfig.o(.data)
    gMotor2                                  0x20000220   Data          76  motor2svpwmconfig.o(.data)
    gMotor2FOC                               0x2000026c   Data         156  motor2focconfig.o(.data)
    gMotor2SpeedPID                          0x20000308   Data          60  motor2speedpidconfig.o(.data)
    gMotor2PositionPID                       0x2000034c   Data          60  motor2positionpidconfig.o(.data)
    gLED_TimeCNT                             0x20000388   Data           4  ledcontrol.o(.data)
    gPositionPID_TimeCNT                     0x2000038c   Data           4  positionpid.o(.data)
    gSpeedPID_TimeCNT                        0x20000390   Data           4  speedpid.o(.data)
    hadc1                                    0x20000394   Data          72  adc.o(.bss)
    hadc2                                    0x200003dc   Data          72  adc.o(.bss)
    hdma_adc1                                0x20000424   Data          96  adc.o(.bss)
    hdma_adc2                                0x20000484   Data          96  adc.o(.bss)
    hcan1                                    0x200004e4   Data          40  can.o(.bss)
    hspi1                                    0x2000050c   Data          88  spi.o(.bss)
    hspi2                                    0x20000564   Data          88  spi.o(.bss)
    htim1                                    0x200005bc   Data          64  tim.o(.bss)
    htim2                                    0x200005fc   Data          64  tim.o(.bss)
    htim3                                    0x2000063c   Data          64  tim.o(.bss)
    htim4                                    0x2000067c   Data          64  tim.o(.bss)
    huart1                                   0x200006bc   Data          64  usart.o(.bss)
    gMotor1ADC1                              0x200006fc   Data          36  motor1adc1.o(.bss)
    gMotor2ADC2                              0x20000720   Data          36  motor2adc2.o(.bss)
    gUart1_RX_RingBufferBuffer               0x20000744   Data         500  uart1.o(.bss)
    gUart1_TX_RingBufferBuffer               0x20000938   Data         500  uart1.o(.bss)
    __initial_sp                             0x20000f30   Data           0  startup_stm32f407xx.o(STACK)



==============================================================================

Memory Map of the image

  Image Entry point : 0x08000189

  Load Region LR_IROM1 (Base: 0x08000000, Size: 0x000068ec, Max: 0x00080000, ABSOLUTE, COMPRESSED[0x00006630])

    Execution Region ER_IROM1 (Exec base: 0x08000000, Load base: 0x08000000, Size: 0x00006558, Max: 0x00080000, ABSOLUTE)

    Exec Addr    Load Addr    Size         Type   Attr      Idx    E Section Name        Object

    0x08000000   0x08000000   0x00000188   Data   RO            3    RESET               startup_stm32f407xx.o
    0x08000188   0x08000188   0x00000000   Code   RO         5847  * .ARM.Collect$$$$00000000  mc_w.l(entry.o)
    0x08000188   0x08000188   0x00000004   Code   RO         6133    .ARM.Collect$$$$00000001  mc_w.l(entry2.o)
    0x0800018c   0x0800018c   0x00000004   Code   RO         6136    .ARM.Collect$$$$00000004  mc_w.l(entry5.o)
    0x08000190   0x08000190   0x00000000   Code   RO         6138    .ARM.Collect$$$$00000008  mc_w.l(entry7b.o)
    0x08000190   0x08000190   0x00000000   Code   RO         6140    .ARM.Collect$$$$0000000A  mc_w.l(entry8b.o)
    0x08000190   0x08000190   0x00000008   Code   RO         6141    .ARM.Collect$$$$0000000B  mc_w.l(entry9a.o)
    0x08000198   0x08000198   0x00000004   Code   RO         6148    .ARM.Collect$$$$0000000E  mc_w.l(entry12b.o)
    0x0800019c   0x0800019c   0x00000000   Code   RO         6143    .ARM.Collect$$$$0000000F  mc_w.l(entry10a.o)
    0x0800019c   0x0800019c   0x00000000   Code   RO         6145    .ARM.Collect$$$$00000011  mc_w.l(entry11a.o)
    0x0800019c   0x0800019c   0x00000004   Code   RO         6134    .ARM.Collect$$$$00002712  mc_w.l(entry2.o)
    0x080001a0   0x080001a0   0x00000024   Code   RO            4    .text               startup_stm32f407xx.o
    0x080001c4   0x080001c4   0x00000078   Code   RO         5688    .text               arm_cortexM4lf_math.lib(arm_cos_f32.o)
    0x0800023c   0x0800023c   0x00000094   Code   RO         5738    .text               arm_cortexM4lf_math.lib(arm_sin_f32.o)
    0x080002d0   0x080002d0   0x00000062   Code   RO         5850    .text               mc_w.l(uldiv.o)
    0x08000332   0x08000332   0x00000024   Code   RO         5852    .text               mc_w.l(memcpya.o)
    0x08000356   0x08000356   0x00000024   Code   RO         5854    .text               mc_w.l(memseta.o)
    0x0800037a   0x0800037a   0x000000e4   Code   RO         6119    .text               mf_w.l(dmul.o)
    0x0800045e   0x0800045e   0x00000022   Code   RO         6123    .text               mf_w.l(dflti.o)
    0x08000480   0x08000480   0x00000026   Code   RO         6125    .text               mf_w.l(f2d.o)
    0x080004a6   0x080004a6   0x00000002   PAD
    0x080004a8   0x080004a8   0x00000030   Code   RO         6127    .text               mf_w.l(cdcmple.o)
    0x080004d8   0x080004d8   0x00000030   Code   RO         6129    .text               mf_w.l(cdrcmple.o)
    0x08000508   0x08000508   0x00000038   Code   RO         6131    .text               mf_w.l(d2f.o)
    0x08000540   0x08000540   0x0000001e   Code   RO         6152    .text               mc_w.l(llshl.o)
    0x0800055e   0x0800055e   0x00000020   Code   RO         6154    .text               mc_w.l(llushr.o)
    0x0800057e   0x0800057e   0x00000000   Code   RO         6156    .text               mc_w.l(iusefp.o)
    0x0800057e   0x0800057e   0x0000006e   Code   RO         6157    .text               mf_w.l(fepilogue.o)
    0x080005ec   0x080005ec   0x000000ba   Code   RO         6159    .text               mf_w.l(depilogue.o)
    0x080006a6   0x080006a6   0x00000002   PAD
    0x080006a8   0x080006a8   0x00000024   Code   RO         6167    .text               mc_w.l(init.o)
    0x080006cc   0x080006cc   0x00000056   Code   RO         6179    .text               mc_w.l(__dczerorl2.o)
    0x08000722   0x08000722   0x0000007e   Code   RO          687    i.ADC_DMAConvCplt   stm32f4xx_hal_adc.o
    0x080007a0   0x080007a0   0x0000001a   Code   RO          688    i.ADC_DMAError      stm32f4xx_hal_adc.o
    0x080007ba   0x080007ba   0x0000000e   Code   RO          689    i.ADC_DMAHalfConvCplt  stm32f4xx_hal_adc.o
    0x080007c8   0x080007c8   0x00000160   Code   RO          690    i.ADC_Init          stm32f4xx_hal_adc.o
    0x08000928   0x08000928   0x00000010   Code   RO         4004    i.APPMain_Init      appmain.o
    0x08000938   0x08000938   0x00000010   Code   RO         4005    i.APPMain_Loop      appmain.o
    0x08000948   0x08000948   0x00000002   Code   RO         4059    i.AngleCalibrationFunc_Init  anglecalibrationfunc.o
    0x0800094a   0x0800094a   0x00000004   Code   RO          512    i.BusFault_Handler  stm32f4xx_it.o
    0x0800094e   0x0800094e   0x00000002   PAD
    0x08000950   0x08000950   0x0000002c   Code   RO         5188    i.ClarkeTransform   foc.o
    0x0800097c   0x0800097c   0x0000015a   Code   RO         5189    i.CurrentPIControlID  foc.o
    0x08000ad6   0x08000ad6   0x0000015e   Code   RO         5190    i.CurrentPIControlIQ  foc.o
    0x08000c34   0x08000c34   0x000000d8   Code   RO         5191    i.CurrentReconstruction  foc.o
    0x08000d0c   0x08000d0c   0x00000018   Code   RO          513    i.DMA2_Stream0_IRQHandler  stm32f4xx_it.o
    0x08000d24   0x08000d24   0x00000018   Code   RO          514    i.DMA2_Stream2_IRQHandler  stm32f4xx_it.o
    0x08000d3c   0x08000d3c   0x00000034   Code   RO         1466    i.DMA_CalcBaseAndBitshift  stm32f4xx_hal_dma.o
    0x08000d70   0x08000d70   0x000000aa   Code   RO         1467    i.DMA_CheckFifoParam  stm32f4xx_hal_dma.o
    0x08000e1a   0x08000e1a   0x0000002c   Code   RO         1468    i.DMA_SetConfig     stm32f4xx_hal_dma.o
    0x08000e46   0x08000e46   0x00000002   Code   RO          515    i.DebugMon_Handler  stm32f4xx_it.o
    0x08000e48   0x08000e48   0x00000010   Code   RO          516    i.EXTI15_10_IRQHandler  stm32f4xx_it.o
    0x08000e58   0x08000e58   0x0000000e   Code   RO          517    i.EXTI2_IRQHandler  stm32f4xx_it.o
    0x08000e66   0x08000e66   0x00000002   Code   RO           13    i.Error_Handler     main.o
    0x08000e68   0x08000e68   0x00000046   Code   RO         5193    i.FocContorl        foc.o
    0x08000eae   0x08000eae   0x00000008   Code   RO         4035    i.FunctionMain_Init  functionmain.o
    0x08000eb6   0x08000eb6   0x00000002   Code   RO         4036    i.FunctionMain_Loop  functionmain.o
    0x08000eb8   0x08000eb8   0x0000003c   Code   RO         5194    i.GetElectricalAngle  foc.o
    0x08000ef4   0x08000ef4   0x00000006   Code   RO         5195    i.GetFocAngle       foc.o
    0x08000efa   0x08000efa   0x00000002   PAD
    0x08000efc   0x08000efc   0x00000058   Code   RO         4147    i.GetMotor1ADC1PhaseXValue  motor1adc1.o
    0x08000f54   0x08000f54   0x000000c8   Code   RO         4875    i.GetMotor1PreCurrent  motor1focconfig.o
    0x0800101c   0x0800101c   0x00000058   Code   RO         4422    i.GetMotor2ADC2PhaseXValue  motor2adc2.o
    0x08001074   0x08001074   0x000000c8   Code   RO         5050    i.GetMotor2PreCurrent  motor2focconfig.o
    0x0800113c   0x0800113c   0x00000008   Code   RO         5442    i.GetSVPWMSector    svpwm.o
    0x08001144   0x08001144   0x00000290   Code   RO         5443    i.GetVectorDuration  svpwm.o
    0x080013d4   0x080013d4   0x0000018c   Code   RO          692    i.HAL_ADC_ConfigChannel  stm32f4xx_hal_adc.o
    0x08001560   0x08001560   0x00000002   Code   RO          693    i.HAL_ADC_ConvCpltCallback  stm32f4xx_hal_adc.o
    0x08001562   0x08001562   0x00000002   Code   RO          694    i.HAL_ADC_ConvHalfCpltCallback  stm32f4xx_hal_adc.o
    0x08001564   0x08001564   0x00000002   Code   RO          696    i.HAL_ADC_ErrorCallback  stm32f4xx_hal_adc.o
    0x08001566   0x08001566   0x00000002   PAD
    0x08001568   0x08001568   0x00000068   Code   RO          701    i.HAL_ADC_Init      stm32f4xx_hal_adc.o
    0x080015d0   0x080015d0   0x000001a8   Code   RO          219    i.HAL_ADC_MspInit   adc.o
    0x08001778   0x08001778   0x00000184   Code   RO          708    i.HAL_ADC_Start_DMA  stm32f4xx_hal_adc.o
    0x080018fc   0x080018fc   0x00000174   Code   RO         2158    i.HAL_CAN_Init      stm32f4xx_hal_can.o
    0x08001a70   0x08001a70   0x00000088   Code   RO          267    i.HAL_CAN_MspInit   can.o
    0x08001af8   0x08001af8   0x00000028   Code   RO         1470    i.HAL_DMA_Abort_IT  stm32f4xx_hal_dma.o
    0x08001b20   0x08001b20   0x00000240   Code   RO         1474    i.HAL_DMA_IRQHandler  stm32f4xx_hal_dma.o
    0x08001d60   0x08001d60   0x000000ec   Code   RO         1475    i.HAL_DMA_Init      stm32f4xx_hal_dma.o
    0x08001e4c   0x08001e4c   0x00000092   Code   RO         1479    i.HAL_DMA_Start_IT  stm32f4xx_hal_dma.o
    0x08001ede   0x08001ede   0x00000002   Code   RO         1360    i.HAL_GPIO_EXTI_Callback  stm32f4xx_hal_gpio.o
    0x08001ee0   0x08001ee0   0x0000001c   Code   RO         1361    i.HAL_GPIO_EXTI_IRQHandler  stm32f4xx_hal_gpio.o
    0x08001efc   0x08001efc   0x00000200   Code   RO         1362    i.HAL_GPIO_Init     stm32f4xx_hal_gpio.o
    0x080020fc   0x080020fc   0x0000000c   Code   RO         1366    i.HAL_GPIO_WritePin  stm32f4xx_hal_gpio.o
    0x08002108   0x08002108   0x0000000c   Code   RO         1899    i.HAL_GetTick       stm32f4xx_hal.o
    0x08002114   0x08002114   0x00000018   Code   RO         1905    i.HAL_IncTick       stm32f4xx_hal.o
    0x0800212c   0x0800212c   0x0000003c   Code   RO         1906    i.HAL_Init          stm32f4xx_hal.o
    0x08002168   0x08002168   0x0000004c   Code   RO         1907    i.HAL_InitTick      stm32f4xx_hal.o
    0x080021b4   0x080021b4   0x00000048   Code   RO          663    i.HAL_MspInit       stm32f4xx_hal_msp.o
    0x080021fc   0x080021fc   0x00000020   Code   RO         1751    i.HAL_NVIC_EnableIRQ  stm32f4xx_hal_cortex.o
    0x0800221c   0x0800221c   0x0000007c   Code   RO         1757    i.HAL_NVIC_SetPriority  stm32f4xx_hal_cortex.o
    0x08002298   0x08002298   0x00000028   Code   RO         1758    i.HAL_NVIC_SetPriorityGrouping  stm32f4xx_hal_cortex.o
    0x080022c0   0x080022c0   0x00000184   Code   RO          963    i.HAL_RCC_ClockConfig  stm32f4xx_hal_rcc.o
    0x08002444   0x08002444   0x000000b0   Code   RO          972    i.HAL_RCC_GetSysClockFreq  stm32f4xx_hal_rcc.o
    0x080024f4   0x080024f4   0x00000488   Code   RO          975    i.HAL_RCC_OscConfig  stm32f4xx_hal_rcc.o
    0x0800297c   0x0800297c   0x0000008c   Code   RO         2389    i.HAL_SPI_Init      stm32f4xx_hal_spi.o
    0x08002a08   0x08002a08   0x00000100   Code   RO          333    i.HAL_SPI_MspInit   spi.o
    0x08002b08   0x08002b08   0x00000164   Code   RO         2392    i.HAL_SPI_Receive   stm32f4xx_hal_spi.o
    0x08002c6c   0x08002c6c   0x000001a2   Code   RO         2397    i.HAL_SPI_Transmit  stm32f4xx_hal_spi.o
    0x08002e0e   0x08002e0e   0x0000022a   Code   RO         2398    i.HAL_SPI_TransmitReceive  stm32f4xx_hal_spi.o
    0x08003038   0x08003038   0x00000034   Code   RO         1762    i.HAL_SYSTICK_Config  stm32f4xx_hal_cortex.o
    0x0800306c   0x0800306c   0x00000002   Code   RO         3388    i.HAL_TIMEx_BreakCallback  stm32f4xx_hal_tim_ex.o
    0x0800306e   0x0800306e   0x00000002   Code   RO         3389    i.HAL_TIMEx_CommutCallback  stm32f4xx_hal_tim_ex.o
    0x08003070   0x08003070   0x00000074   Code   RO         3391    i.HAL_TIMEx_ConfigBreakDeadTime  stm32f4xx_hal_tim_ex.o
    0x080030e4   0x080030e4   0x000000b4   Code   RO         3406    i.HAL_TIMEx_MasterConfigSynchronization  stm32f4xx_hal_tim_ex.o
    0x08003198   0x08003198   0x00000034   Code   RO         2702    i.HAL_TIM_Base_Init  stm32f4xx_hal_tim.o
    0x080031cc   0x080031cc   0x00000048   Code   RO          381    i.HAL_TIM_Base_MspInit  tim.o
    0x08003214   0x08003214   0x0000002a   Code   RO         2707    i.HAL_TIM_Base_Start_IT  stm32f4xx_hal_tim.o
    0x0800323e   0x0800323e   0x000000ae   Code   RO         2720    i.HAL_TIM_Encoder_Init  stm32f4xx_hal_tim.o
    0x080032ec   0x080032ec   0x000000f4   Code   RO          383    i.HAL_TIM_Encoder_MspInit  tim.o
    0x080033e0   0x080033e0   0x00000002   Code   RO         2731    i.HAL_TIM_IC_CaptureCallback  stm32f4xx_hal_tim.o
    0x080033e2   0x080033e2   0x00000196   Code   RO         2745    i.HAL_TIM_IRQHandler  stm32f4xx_hal_tim.o
    0x08003578   0x08003578   0x000000c4   Code   RO          384    i.HAL_TIM_MspPostInit  tim.o
    0x0800363c   0x0800363c   0x00000002   Code   RO         2748    i.HAL_TIM_OC_DelayElapsedCallback  stm32f4xx_hal_tim.o
    0x0800363e   0x0800363e   0x00000108   Code   RO         2769    i.HAL_TIM_PWM_ConfigChannel  stm32f4xx_hal_tim.o
    0x08003746   0x08003746   0x00000034   Code   RO         2772    i.HAL_TIM_PWM_Init  stm32f4xx_hal_tim.o
    0x0800377a   0x0800377a   0x00000002   PAD
    0x0800377c   0x0800377c   0x00000048   Code   RO          386    i.HAL_TIM_PWM_MspInit  tim.o
    0x080037c4   0x080037c4   0x00000002   Code   RO         2775    i.HAL_TIM_PWM_PulseFinishedCallback  stm32f4xx_hal_tim.o
    0x080037c6   0x080037c6   0x00000002   PAD
    0x080037c8   0x080037c8   0x00000058   Code   RO         2777    i.HAL_TIM_PWM_Start  stm32f4xx_hal_tim.o
    0x08003820   0x08003820   0x00000002   Code   RO         2783    i.HAL_TIM_PeriodElapsedCallback  stm32f4xx_hal_tim.o
    0x08003822   0x08003822   0x0000006c   Code   RO         2786    i.HAL_TIM_SlaveConfigSynchro  stm32f4xx_hal_tim.o
    0x0800388e   0x0800388e   0x00000002   Code   RO         2788    i.HAL_TIM_TriggerCallback  stm32f4xx_hal_tim.o
    0x08003890   0x08003890   0x00000002   Code   RO         3660    i.HAL_UART_ErrorCallback  stm32f4xx_hal_uart.o
    0x08003892   0x08003892   0x00000002   PAD
    0x08003894   0x08003894   0x00000154   Code   RO         3663    i.HAL_UART_IRQHandler  stm32f4xx_hal_uart.o
    0x080039e8   0x080039e8   0x00000002   Code   RO         3670    i.HAL_UART_RxCpltCallback  stm32f4xx_hal_uart.o
    0x080039ea   0x080039ea   0x00000002   Code   RO         3675    i.HAL_UART_TxCpltCallback  stm32f4xx_hal_uart.o
    0x080039ec   0x080039ec   0x00000004   Code   RO          518    i.HardFault_Handler  stm32f4xx_it.o
    0x080039f0   0x080039f0   0x00000024   Code   RO         4806    i.LEDConfigSetSysLedStatus  ledconfig.o
    0x08003a14   0x08003a14   0x0000000e   Code   RO         4807    i.LEDConfig_Init    ledconfig.o
    0x08003a22   0x08003a22   0x00000002   PAD
    0x08003a24   0x08003a24   0x00000010   Code   RO         4808    i.LEDConfig_Loop    ledconfig.o
    0x08003a34   0x08003a34   0x00000050   Code   RO         5297    i.LEDRunCycle       ledcontrol.o
    0x08003a84   0x08003a84   0x00000018   Code   RO         5298    i.LEDToggle         ledcontrol.o
    0x08003a9c   0x08003a9c   0x0000000e   Code   RO         4126    i.MCUDriverMain_Init  mcudrivermain.o
    0x08003aaa   0x08003aaa   0x00000002   Code   RO         4127    i.MCUDriverMain_Loop  mcudrivermain.o
    0x08003aac   0x08003aac   0x000000a0   Code   RO          220    i.MX_ADC1_Init      adc.o
    0x08003b4c   0x08003b4c   0x000000a0   Code   RO          221    i.MX_ADC2_Init      adc.o
    0x08003bec   0x08003bec   0x00000044   Code   RO          268    i.MX_CAN1_Init      can.o
    0x08003c30   0x08003c30   0x00000048   Code   RO          308    i.MX_DMA_Init       dma.o
    0x08003c78   0x08003c78   0x000001ec   Code   RO          194    i.MX_GPIO_Init      gpio.o
    0x08003e64   0x08003e64   0x0000004c   Code   RO          334    i.MX_SPI1_Init      spi.o
    0x08003eb0   0x08003eb0   0x0000004c   Code   RO          335    i.MX_SPI2_Init      spi.o
    0x08003efc   0x08003efc   0x000000d4   Code   RO          387    i.MX_TIM1_Init      tim.o
    0x08003fd0   0x08003fd0   0x00000078   Code   RO          388    i.MX_TIM2_Init      tim.o
    0x08004048   0x08004048   0x000000c8   Code   RO          389    i.MX_TIM3_Init      tim.o
    0x08004110   0x08004110   0x0000007c   Code   RO          390    i.MX_TIM4_Init      tim.o
    0x0800418c   0x0800418c   0x00000004   Code   RO          519    i.MemManage_Handler  stm32f4xx_it.o
    0x08004190   0x08004190   0x00000018   Code   RO         4148    i.Motor1ADC1StartOnce  motor1adc1.o
    0x080041a8   0x080041a8   0x00000028   Code   RO         4149    i.Motor1ADC1ValueStorage  motor1adc1.o
    0x080041d0   0x080041d0   0x00000024   Code   RO         4297    i.Motor1EncoderZEXITCallback  motor1encodernvic.o
    0x080041f4   0x080041f4   0x00000040   Code   RO         4876    i.Motor1FOCConfig_Init  motor1focconfig.o
    0x08004234   0x08004234   0x00000010   Code   RO         4878    i.Motor1FocControl  motor1focconfig.o
    0x08004244   0x08004244   0x00000010   Code   RO         4879    i.Motor1GetAngle    motor1focconfig.o
    0x08004254   0x08004254   0x00000014   Code   RO         4969    i.Motor1GetPosition  motor1positionpidconfig.o
    0x08004268   0x08004268   0x00000080   Code   RO         4924    i.Motor1GetPreSpeed  motor1speedpidconfig.o
    0x080042e8   0x080042e8   0x00000010   Code   RO         4851    i.Motor1GetSVPWMSector  motor1svpwmconfig.o
    0x080042f8   0x080042f8   0x00000020   Code   RO         4970    i.Motor1PositionPIDConfigSetTar  motor1positionpidconfig.o
    0x08004318   0x08004318   0x00000034   Code   RO         4971    i.Motor1PositionPIDConfig_Init  motor1positionpidconfig.o
    0x0800434c   0x0800434c   0x00000010   Code   RO         4972    i.Motor1PositionPIDConfig_Loop  motor1positionpidconfig.o
    0x0800435c   0x0800435c   0x0000001c   Code   RO         4257    i.Motor1SPI1ReadData  motor1spi1.o
    0x08004378   0x08004378   0x00000014   Code   RO         4258    i.Motor1SPI1SetCS   motor1spi1.o
    0x0800438c   0x0800438c   0x00000018   Code   RO         4259    i.Motor1SPI1WriteData  motor1spi1.o
    0x080043a4   0x080043a4   0x00000020   Code   RO         4925    i.Motor1SetCurrent  motor1speedpidconfig.o
    0x080043c4   0x080043c4   0x00000018   Code   RO         4187    i.Motor1SetEnable   motor1gpio.o
    0x080043dc   0x080043dc   0x00000018   Code   RO         4974    i.Motor1SetPosition  motor1positionpidconfig.o
    0x080043f4   0x080043f4   0x00000028   Code   RO         4880    i.Motor1SetTarIDIQ  motor1focconfig.o
    0x0800441c   0x0800441c   0x00000020   Code   RO         4926    i.Motor1SpeedPIDConfigSetTar  motor1speedpidconfig.o
    0x0800443c   0x0800443c   0x00000038   Code   RO         4927    i.Motor1SpeedPIDConfig_Init  motor1speedpidconfig.o
    0x08004474   0x08004474   0x00000010   Code   RO         4928    i.Motor1SpeedPIDConfig_Loop  motor1speedpidconfig.o
    0x08004484   0x08004484   0x00000028   Code   RO         4852    i.Motor1SvpwmGenerate  motor1svpwmconfig.o
    0x080044ac   0x080044ac   0x00000050   Code   RO         4211    i.Motor1TIM1_Init   motor1tim1pwm.o
    0x080044fc   0x080044fc   0x00000058   Code   RO         4340    i.Motor1TIM2EncoderGetCnt  motor1tim2encoder.o
    0x08004554   0x08004554   0x0000000c   Code   RO         4343    i.Motor1TIM2EncoderSetCnt  motor1tim2encoder.o
    0x08004560   0x08004560   0x00000010   Code   RO         4833    i.Motor1TLE5012BReadAngel  motor1tle5012bconfig.o
    0x08004570   0x08004570   0x00000018   Code   RO         4423    i.Motor2ADC2StartOnce  motor2adc2.o
    0x08004588   0x08004588   0x00000028   Code   RO         4424    i.Motor2ADC2ValueStorage  motor2adc2.o
    0x080045b0   0x080045b0   0x00000024   Code   RO         4548    i.Motor2EncoderZEXITCallback  motor2encodernvic.o
    0x080045d4   0x080045d4   0x00000040   Code   RO         5051    i.Motor2FOCConfig_Init  motor2focconfig.o
    0x08004614   0x08004614   0x00000010   Code   RO         5053    i.Motor2FocControl  motor2focconfig.o
    0x08004624   0x08004624   0x00000010   Code   RO         5054    i.Motor2GetAngle    motor2focconfig.o
    0x08004634   0x08004634   0x00000014   Code   RO         5140    i.Motor2GetPosition  motor2positionpidconfig.o
    0x08004648   0x08004648   0x00000080   Code   RO         5095    i.Motor2GetPreSpeed  motor2speedpidconfig.o
    0x080046c8   0x080046c8   0x00000010   Code   RO         5029    i.Motor2GetSVPWMSector  motor2svpwmconfig.o
    0x080046d8   0x080046d8   0x00000020   Code   RO         5141    i.Motor2PositionPIDConfigSetTar  motor2positionpidconfig.o
    0x080046f8   0x080046f8   0x00000034   Code   RO         5142    i.Motor2PositionPIDConfig_Init  motor2positionpidconfig.o
    0x0800472c   0x0800472c   0x00000010   Code   RO         5143    i.Motor2PositionPIDConfig_Loop  motor2positionpidconfig.o
    0x0800473c   0x0800473c   0x0000001c   Code   RO         4462    i.Motor2SPI2ReadData  motor2spi2.o
    0x08004758   0x08004758   0x00000018   Code   RO         4463    i.Motor2SPI2SetCS   motor2spi2.o
    0x08004770   0x08004770   0x00000018   Code   RO         4464    i.Motor2SPI2WriteData  motor2spi2.o
    0x08004788   0x08004788   0x00000020   Code   RO         5096    i.Motor2SetCurrent  motor2speedpidconfig.o
    0x080047a8   0x080047a8   0x00000018   Code   RO         4398    i.Motor2SetEnable   motor2gpio.o
    0x080047c0   0x080047c0   0x00000018   Code   RO         5145    i.Motor2SetPosition  motor2positionpidconfig.o
    0x080047d8   0x080047d8   0x00000028   Code   RO         5055    i.Motor2SetTarIDIQ  motor2focconfig.o
    0x08004800   0x08004800   0x00000020   Code   RO         5097    i.Motor2SpeedPIDConfigSetTar  motor2speedpidconfig.o
    0x08004820   0x08004820   0x00000038   Code   RO         5098    i.Motor2SpeedPIDConfig_Init  motor2speedpidconfig.o
    0x08004858   0x08004858   0x00000010   Code   RO         5099    i.Motor2SpeedPIDConfig_Loop  motor2speedpidconfig.o
    0x08004868   0x08004868   0x00000028   Code   RO         5030    i.Motor2SvpwmGenerate  motor2svpwmconfig.o
    0x08004890   0x08004890   0x00000050   Code   RO         4502    i.Motor2TIM3_Init   motor2tim3pwm.o
    0x080048e0   0x080048e0   0x00000058   Code   RO         4591    i.Motor2TIM4EncoderGetCnt  motor2tim4encoder.o
    0x08004938   0x08004938   0x0000000c   Code   RO         4594    i.Motor2TIM4EncoderSetCnt  motor2tim4encoder.o
    0x08004944   0x08004944   0x00000010   Code   RO         5014    i.Motor2TLE5012BReadAngel  motor2tle5012bconfig.o
    0x08004954   0x08004954   0x00000002   Code   RO          520    i.NMI_Handler       stm32f4xx_it.o
    0x08004956   0x08004956   0x00000066   Code   RO         5196    i.ParkAntiTransform  foc.o
    0x080049bc   0x080049bc   0x0000006a   Code   RO         5197    i.ParkTransform     foc.o
    0x08004a26   0x08004a26   0x00000002   Code   RO          521    i.PendSV_Handler    stm32f4xx_it.o
    0x08004a28   0x08004a28   0x00000020   Code   RO         4761    i.PerDriverMain_Init  perdrivermain.o
    0x08004a48   0x08004a48   0x000000a0   Code   RO         4762    i.PerDriverMain_Loop  perdrivermain.o
    0x08004ae8   0x08004ae8   0x00000118   Code   RO         5345    i.PositionPIDControl  positionpid.o
    0x08004c00   0x08004c00   0x00000048   Code   RO         5346    i.PositionPIDCycle  positionpid.o
    0x08004c48   0x08004c48   0x00000080   Code   RO         5490    i.ReadTLE5012BAngle  tle5012b.o
    0x08004cc8   0x08004cc8   0x00000040   Code   RO         5632    i.RingBuffer_De     ringbuffer.o
    0x08004d08   0x08004d08   0x00000040   Code   RO         5633    i.RingBuffer_En     ringbuffer.o
    0x08004d48   0x08004d48   0x00000012   Code   RO         5636    i.RingBuffer_IsEmpty  ringbuffer.o
    0x08004d5a   0x08004d5a   0x0000001e   Code   RO         5637    i.RingBuffer_IsFull  ringbuffer.o
    0x08004d78   0x08004d78   0x00000094   Code   RO         2426    i.SPI_EndRxTransaction  stm32f4xx_hal_spi.o
    0x08004e0c   0x08004e0c   0x0000006c   Code   RO         2427    i.SPI_EndRxTxTransaction  stm32f4xx_hal_spi.o
    0x08004e78   0x08004e78   0x000000a8   Code   RO         2432    i.SPI_WaitFlagStateUntilTimeout  stm32f4xx_hal_spi.o
    0x08004f20   0x08004f20   0x00000002   Code   RO          522    i.SVC_Handler       stm32f4xx_it.o
    0x08004f22   0x08004f22   0x00000022   Code   RO         5198    i.SetCurrentPIDParams  foc.o
    0x08004f44   0x08004f44   0x0000000a   Code   RO         5199    i.SetCurrentPIDTar  foc.o
    0x08004f4e   0x08004f4e   0x00000012   Code   RO         5200    i.SetFocEnable      foc.o
    0x08004f60   0x08004f60   0x0000000a   Code   RO         5299    i.SetLEDFlashing    ledcontrol.o
    0x08004f6a   0x08004f6a   0x0000001a   Code   RO         5300    i.SetLEDOFF         ledcontrol.o
    0x08004f84   0x08004f84   0x00000010   Code   RO         5301    i.SetLEDON          ledcontrol.o
    0x08004f94   0x08004f94   0x00000014   Code   RO         4729    i.SetLedLeave       ledgpio.o
    0x08004fa8   0x08004fa8   0x0000003e   Code   RO         5302    i.SetLedStatus      ledcontrol.o
    0x08004fe6   0x08004fe6   0x00000002   PAD
    0x08004fe8   0x08004fe8   0x00000050   Code   RO         4212    i.SetMotor1ChannelAHighLeaveTime_us  motor1tim1pwm.o
    0x08005038   0x08005038   0x00000050   Code   RO         4213    i.SetMotor1ChannelBHighLeaveTime_us  motor1tim1pwm.o
    0x08005088   0x08005088   0x00000050   Code   RO         4214    i.SetMotor1ChannelCHighLeaveTime_us  motor1tim1pwm.o
    0x080050d8   0x080050d8   0x00000050   Code   RO         4503    i.SetMotor2ChannelAHighLeaveTime_us  motor2tim3pwm.o
    0x08005128   0x08005128   0x00000050   Code   RO         4504    i.SetMotor2ChannelBHighLeaveTime_us  motor2tim3pwm.o
    0x08005178   0x08005178   0x00000050   Code   RO         4505    i.SetMotor2ChannelCHighLeaveTime_us  motor2tim3pwm.o
    0x080051c8   0x080051c8   0x0000000c   Code   RO         5348    i.SetPositionPIDEnable  positionpid.o
    0x080051d4   0x080051d4   0x0000000e   Code   RO         5349    i.SetPositionPIDParams  positionpid.o
    0x080051e2   0x080051e2   0x00000006   Code   RO         5350    i.SetPositionPIDTar  positionpid.o
    0x080051e8   0x080051e8   0x0000000c   Code   RO         5392    i.SetSpeedPIDEnable  speedpid.o
    0x080051f4   0x080051f4   0x0000000e   Code   RO         5393    i.SetSpeedPIDParams  speedpid.o
    0x08005202   0x08005202   0x00000006   Code   RO         5394    i.SetSpeedPIDTar    speedpid.o
    0x08005208   0x08005208   0x000000ac   Code   RO         5395    i.SpeedPIDControl   speedpid.o
    0x080052b4   0x080052b4   0x00000048   Code   RO         5396    i.SpeedPIDCycle     speedpid.o
    0x080052fc   0x080052fc   0x00000030   Code   RO         5444    i.SvpwmContorol     svpwm.o
    0x0800532c   0x0800532c   0x00000120   Code   RO         5445    i.SvpwmGenerate     svpwm.o
    0x0800544c   0x0800544c   0x000000d8   Code   RO         5446    i.SvpwmSectorJudgment  svpwm.o
    0x08005524   0x08005524   0x00000040   Code   RO          523    i.SysTick_Handler   stm32f4xx_it.o
    0x08005564   0x08005564   0x000000b4   Code   RO           14    i.SystemClock_Config  main.o
    0x08005618   0x08005618   0x0000001c   Code   RO         3971    i.SystemInit        system_stm32f4xx.o
    0x08005634   0x08005634   0x00000020   Code   RO          524    i.TIM1_UP_TIM10_IRQHandler  stm32f4xx_it.o
    0x08005654   0x08005654   0x00000020   Code   RO          525    i.TIM3_IRQHandler   stm32f4xx_it.o
    0x08005674   0x08005674   0x000000d8   Code   RO         2790    i.TIM_Base_SetConfig  stm32f4xx_hal_tim.o
    0x0800574c   0x0800574c   0x00000022   Code   RO         2791    i.TIM_CCxChannelCmd  stm32f4xx_hal_tim.o
    0x0800576e   0x0800576e   0x00000016   Code   RO         2801    i.TIM_ETR_SetConfig  stm32f4xx_hal_tim.o
    0x08005784   0x08005784   0x00000070   Code   RO         2803    i.TIM_OC1_SetConfig  stm32f4xx_hal_tim.o
    0x080057f4   0x080057f4   0x0000007c   Code   RO         2804    i.TIM_OC2_SetConfig  stm32f4xx_hal_tim.o
    0x08005870   0x08005870   0x00000078   Code   RO         2805    i.TIM_OC3_SetConfig  stm32f4xx_hal_tim.o
    0x080058e8   0x080058e8   0x00000054   Code   RO         2806    i.TIM_OC4_SetConfig  stm32f4xx_hal_tim.o
    0x0800593c   0x0800593c   0x000000aa   Code   RO         2807    i.TIM_SlaveTimer_SetConfig  stm32f4xx_hal_tim.o
    0x080059e6   0x080059e6   0x00000026   Code   RO         2808    i.TIM_TI1_ConfigInputStage  stm32f4xx_hal_tim.o
    0x08005a0c   0x08005a0c   0x00000028   Code   RO         2810    i.TIM_TI2_ConfigInputStage  stm32f4xx_hal_tim.o
    0x08005a34   0x08005a34   0x00000014   Code   RO         3677    i.UART_DMAAbortOnError  stm32f4xx_hal_uart.o
    0x08005a48   0x08005a48   0x00000020   Code   RO         3687    i.UART_EndRxTransfer  stm32f4xx_hal_uart.o
    0x08005a68   0x08005a68   0x00000020   Code   RO         3688    i.UART_EndTransmit_IT  stm32f4xx_hal_uart.o
    0x08005a88   0x08005a88   0x000000a6   Code   RO         3690    i.UART_Receive_IT   stm32f4xx_hal_uart.o
    0x08005b2e   0x08005b2e   0x00000068   Code   RO         3692    i.UART_Transmit_IT  stm32f4xx_hal_uart.o
    0x08005b96   0x08005b96   0x00000002   PAD
    0x08005b98   0x08005b98   0x00000014   Code   RO          526    i.USART1_IRQHandler  stm32f4xx_it.o
    0x08005bac   0x08005bac   0x00000078   Code   RO         4673    i.Uart1_IT_Handle   uart1.o
    0x08005c24   0x08005c24   0x00000004   Code   RO          527    i.UsageFault_Handler  stm32f4xx_it.o
    0x08005c28   0x08005c28   0x00000010   Code   RO         1764    i.__NVIC_GetPriorityGrouping  stm32f4xx_hal_cortex.o
    0x08005c38   0x08005c38   0x00000028   Code   RO         1765    i.__NVIC_SetPriority  stm32f4xx_hal_cortex.o
    0x08005c60   0x08005c60   0x00000014   Code   RO         5841    i.__hardfp_fabs     m_wm.l(fabs.o)
    0x08005c74   0x08005c74   0x0000000e   Code   RO         6173    i.__scatterload_copy  mc_w.l(handlers.o)
    0x08005c82   0x08005c82   0x00000002   Code   RO         6174    i.__scatterload_null  mc_w.l(handlers.o)
    0x08005c84   0x08005c84   0x0000000e   Code   RO         6175    i.__scatterload_zeroinit  mc_w.l(handlers.o)
    0x08005c92   0x08005c92   0x00000040   Code   RO           15    i.main              main.o
    0x08005cd2   0x08005cd2   0x00000002   PAD
    0x08005cd4   0x08005cd4   0x00000040   Code   RO         4642    i.rt_hw_us_delay    timer.o
    0x08005d14   0x08005d14   0x00000008   Data   RO         1481    .constdata          stm32f4xx_hal_dma.o
    0x08005d1c   0x08005d1c   0x00000018   Data   RO         3972    .constdata          system_stm32f4xx.o
    0x08005d34   0x08005d34   0x00000804   Data   RO         5818    .constdata          arm_cortexM4lf_math.lib(arm_common_tables.o)
    0x08006538   0x08006538   0x00000020   Data   RO         6171    Region$$Table       anon$$obj.o


    Execution Region RW_IRAM2 (Exec base: 0x10000000, Load base: 0x08006630, Size: 0x00000000, Max: 0x00010000, ABSOLUTE)

    **** No section assigned to this execution region ****


    Execution Region RW_IRAM1 (Exec base: 0x20000000, Load base: 0x08006558, Size: 0x00000f30, Max: 0x00020000, ABSOLUTE, COMPRESSED[0x000000d8])

    Exec Addr    Load Addr    Size         Type   Attr      Idx    E Section Name        Object

    0x20000000   COMPRESSED   0x00000009   Data   RW         1913    .data               stm32f4xx_hal.o
    0x20000009   COMPRESSED   0x00000003   PAD
    0x2000000c   COMPRESSED   0x00000004   Data   RW         3973    .data               system_stm32f4xx.o
    0x20000010   COMPRESSED   0x00000008   Data   RW         4300    .data               motor1encodernvic.o
    0x20000018   COMPRESSED   0x00000008   Data   RW         4344    .data               motor1tim2encoder.o
    0x20000020   COMPRESSED   0x00000008   Data   RW         4551    .data               motor2encodernvic.o
    0x20000028   COMPRESSED   0x00000008   Data   RW         4595    .data               motor2tim4encoder.o
    0x20000030   COMPRESSED   0x00000004   Data   RW         4643    .data               timer.o
    0x20000034   COMPRESSED   0x00000038   Data   RW         4678    .data               uart1.o
    0x2000006c   COMPRESSED   0x00000010   Data   RW         4763    .data               perdrivermain.o
    0x2000007c   COMPRESSED   0x00000014   Data   RW         4809    .data               ledconfig.o
    0x20000090   COMPRESSED   0x00000014   Data   RW         4834    .data               motor1tle5012bconfig.o
    0x200000a4   COMPRESSED   0x0000004c   Data   RW         4853    .data               motor1svpwmconfig.o
    0x200000f0   COMPRESSED   0x0000009c   Data   RW         4881    .data               motor1focconfig.o
    0x2000018c   COMPRESSED   0x00000044   Data   RW         4930    .data               motor1speedpidconfig.o
    0x200001d0   COMPRESSED   0x0000003c   Data   RW         4975    .data               motor1positionpidconfig.o
    0x2000020c   COMPRESSED   0x00000014   Data   RW         5015    .data               motor2tle5012bconfig.o
    0x20000220   COMPRESSED   0x0000004c   Data   RW         5031    .data               motor2svpwmconfig.o
    0x2000026c   COMPRESSED   0x0000009c   Data   RW         5056    .data               motor2focconfig.o
    0x20000308   COMPRESSED   0x00000044   Data   RW         5101    .data               motor2speedpidconfig.o
    0x2000034c   COMPRESSED   0x0000003c   Data   RW         5146    .data               motor2positionpidconfig.o
    0x20000388   COMPRESSED   0x00000004   Data   RW         5303    .data               ledcontrol.o
    0x2000038c   COMPRESSED   0x00000004   Data   RW         5351    .data               positionpid.o
    0x20000390   COMPRESSED   0x00000004   Data   RW         5398    .data               speedpid.o
    0x20000394        -       0x00000150   Zero   RW          222    .bss                adc.o
    0x200004e4        -       0x00000028   Zero   RW          269    .bss                can.o
    0x2000050c        -       0x000000b0   Zero   RW          336    .bss                spi.o
    0x200005bc        -       0x00000100   Zero   RW          391    .bss                tim.o
    0x200006bc        -       0x00000040   Zero   RW          473    .bss                usart.o
    0x200006fc        -       0x00000024   Zero   RW         4150    .bss                motor1adc1.o
    0x20000720        -       0x00000024   Zero   RW         4425    .bss                motor2adc2.o
    0x20000744        -       0x000003e8   Zero   RW         4677    .bss                uart1.o
    0x20000b2c   COMPRESSED   0x00000004   PAD
    0x20000b30        -       0x00000400   Zero   RW            1    STACK               startup_stm32f407xx.o


==============================================================================

Image component sizes


      Code (inc. data)   RO Data    RW Data    ZI Data      Debug   Object Name

       744         56          0          0        336       2914   adc.o
         2          0          0          0          0        540   anglecalibrationfunc.o
        32          0          0          0          0       1038   appmain.o
       204         20          0          0         40       1801   can.o
        72          4          0          0          0        838   dma.o
      1362         24          0          0          0       8695   foc.o
        10          0          0          0          0       1044   functionmain.o
       492         30          0          0          0       1267   gpio.o
        66         12          0         20          0       2067   ledconfig.o
       218         10          0          4          0       5208   ledcontrol.o
        20          4          0          0          0        570   ledgpio.o
       246         10          0          0          0     718804   main.o
        16          0          0          0          0       1086   mcudrivermain.o
       152         28          0          0         36       2636   motor1adc1.o
        36          4          0          8          0       1349   motor1encodernvic.o
       336         50          0        156          0       5080   motor1focconfig.o
        24          6          0          0          0        586   motor1gpio.o
       144         28          0         60          0       3515   motor1positionpidconfig.o
       264         50          0         68          0       3586   motor1speedpidconfig.o
        72         16          0          0          0       1721   motor1spi1.o
        56         12          0         76          0       2807   motor1svpwmconfig.o
       320         56          0          0          0       2490   motor1tim1pwm.o
       100         16          0          8          0       2095   motor1tim2encoder.o
        16          6          0         20          0       1695   motor1tle5012bconfig.o
       152         28          0          0         36       2636   motor2adc2.o
        36          4          0          8          0       1349   motor2encodernvic.o
       336         50          0        156          0       3489   motor2focconfig.o
        24          6          0          0          0        586   motor2gpio.o
       144         28          0         60          0       3515   motor2positionpidconfig.o
       264         50          0         68          0       3586   motor2speedpidconfig.o
        76         18          0          0          0       1721   motor2spi2.o
        56         12          0         76          0       1599   motor2svpwmconfig.o
       320         56          0          0          0       2490   motor2tim3pwm.o
       100         16          0          8          0       2099   motor2tim4encoder.o
        16          6          0         20          0        903   motor2tle5012bconfig.o
       192         18          0         16          0       1741   perdrivermain.o
       384         26          0          4          0       5348   positionpid.o
       176          0          0          0          0       2649   ringbuffer.o
       276         12          0          4          0       5097   speedpid.o
       408         42          0          0        176       2518   spi.o
        36          8        392          0       1024        868   startup_stm32f407xx.o
       172         32          0          9          0       8985   stm32f4xx_hal.o
      1412         64          0          0          0       7717   stm32f4xx_hal_adc.o
       372          0          0          0          0       1391   stm32f4xx_hal_can.o
       304         22          0          0          0      34695   stm32f4xx_hal_cortex.o
      1264         16          8          0          0       6466   stm32f4xx_hal_dma.o
       554         50          0          0          0       3688   stm32f4xx_hal_gpio.o
        72          4          0          0          0        922   stm32f4xx_hal_msp.o
      1724         58          0          0          0       4020   stm32f4xx_hal_rcc.o
      1892          8          0          0          0       8010   stm32f4xx_hal_spi.o
      2156         98          0          0          0      17966   stm32f4xx_hal_tim.o
       300         30          0          0          0       3489   stm32f4xx_hal_tim_ex.o
       700          4          0          0          0       6711   stm32f4xx_hal_uart.o
       250         42          0          0          0      12207   stm32f4xx_it.o
      1216         40          0          0          0       3447   svpwm.o
        28          4         24          4          0       1255   system_stm32f4xx.o
      1240         98          0          0        256       6363   tim.o
        64         10          0          4          0        939   timer.o
       128          8          0          0          0        744   tle5012b.o
       120         12          0         56       1000       2213   uart1.o
         0          0          0          0         64        237   usart.o

    ----------------------------------------------------------------------
     21988       1422        456        916       2972     947091   Object Totals
         0          0         32          0          0          0   (incl. Generated)
        20          0          0          3          4          0   (incl. Padding)

    ----------------------------------------------------------------------

      Code (inc. data)   RO Data    RW Data    ZI Data      Debug   Library Member Name

         0          0       2052          0          0       4704   arm_common_tables.o
       120         12          0          0          0      17170   arm_cos_f32.o
       148         18          0          0          0        814   arm_sin_f32.o
        20          0          0          0          0        124   fabs.o
        86          0          0          0          0          0   __dczerorl2.o
         0          0          0          0          0          0   entry.o
         0          0          0          0          0          0   entry10a.o
         0          0          0          0          0          0   entry11a.o
         4          0          0          0          0          0   entry12b.o
         8          4          0          0          0          0   entry2.o
         4          0          0          0          0          0   entry5.o
         0          0          0          0          0          0   entry7b.o
         0          0          0          0          0          0   entry8b.o
         8          4          0          0          0          0   entry9a.o
        30          0          0          0          0          0   handlers.o
        36          8          0          0          0         68   init.o
         0          0          0          0          0          0   iusefp.o
        30          0          0          0          0         68   llshl.o
        32          0          0          0          0         68   llushr.o
        36          0          0          0          0         68   memcpya.o
        36          0          0          0          0        108   memseta.o
        98          0          0          0          0         92   uldiv.o
        48          0          0          0          0         68   cdcmple.o
        48          0          0          0          0         68   cdrcmple.o
        56          0          0          0          0         88   d2f.o
       186          0          0          0          0        176   depilogue.o
        34          0          0          0          0         76   dflti.o
       228          0          0          0          0         96   dmul.o
        38          0          0          0          0         68   f2d.o
       110          0          0          0          0        168   fepilogue.o

    ----------------------------------------------------------------------
      1448         46       2052          0          0      24092   Library Totals
         4          0          0          0          0          0   (incl. Padding)

    ----------------------------------------------------------------------

      Code (inc. data)   RO Data    RW Data    ZI Data      Debug   Library Name

       268         30       2052          0          0      22688   arm_cortexM4lf_math.lib
        20          0          0          0          0        124   m_wm.l
       408         16          0          0          0        472   mc_w.l
       748          0          0          0          0        808   mf_w.l

    ----------------------------------------------------------------------
      1448         46       2052          0          0      24092   Library Totals

    ----------------------------------------------------------------------

==============================================================================


      Code (inc. data)   RO Data    RW Data    ZI Data      Debug   

     23436       1468       2508        916       2972     948395   Grand Totals
     23436       1468       2508        216       2972     948395   ELF Image Totals (compressed)
     23436       1468       2508        216          0          0   ROM Totals

==============================================================================

    Total RO  Size (Code + RO Data)                25944 (  25.34kB)
    Total RW  Size (RW Data + ZI Data)              3888 (   3.80kB)
    Total ROM Size (Code + RO Data + RW Data)      26160 (  25.55kB)

==============================================================================

